{"contracts/Ducid.sol":{"Ducid":{"abi":[{"inputs":[],"stateMutability":"nonpayable","type":"constructor"},{"inputs":[],"name":"AccessOnlyToACollege","type":"error"},{"inputs":[],"name":"AccessOnlyToOwner","type":"error"},{"inputs":[],"name":"AccessOnlyToVerifiedCollege","type":"error"},{"inputs":[],"name":"CollegeAlreadyVerified","type":"error"},{"inputs":[],"name":"CollegeAlreadyrejected","type":"error"},{"inputs":[],"name":"CollegeNotFound","type":"error"},{"inputs":[],"name":"DataMissMatching","type":"error"},{"inputs":[],"name":"EmptyDataNotAllowed","type":"error"},{"inputs":[],"name":"NoAccessToEditData","type":"error"},{"inputs":[],"name":"StudentNotFound","type":"error"},{"inputs":[],"name":"studentIsOfAnotherCollege","type":"error"},{"inputs":[{"internalType":"string","name":"collegeName","type":"string"}],"name":"addAsCollege","outputs":[],"stateMutability":"nonpayable","type":"function"},{"inputs":[{"internalType":"address","name":"studentAddress","type":"address"},{"internalType":"string","name":"studentName","type":"string"},{"internalType":"string","name":"studentAge","type":"string"},{"internalType":"string","name":"studentPercentage","type":"string"}],"name":"addNewStudent","outputs":[],"stateMutability":"nonpayable","type":"function"},{"inputs":[{"internalType":"string","name":"collegeId","type":"string"}],"name":"approveCollege","outputs":[],"stateMutability":"nonpayable","type":"function"},{"inputs":[{"internalType":"address","name":"thirdParty","type":"address"},{"internalType":"string","name":"studentId","type":"string"},{"internalType":"string","name":"dataType","type":"string"}],"name":"checkAccessToThirdParty","outputs":[{"internalType":"bool","name":"","type":"bool"}],"stateMutability":"view","type":"function"},{"inputs":[{"internalType":"string","name":"dataType","type":"string"},{"internalType":"string","name":"data","type":"string"}],"name":"editOwnCollegeData","outputs":[],"stateMutability":"nonpayable","type":"function"},{"inputs":[{"internalType":"string","name":"studentId","type":"string"},{"internalType":"string","name":"dataType","type":"string"},{"internalType":"bool","name":"access","type":"bool"}],"name":"editStudentDataAccessPermission","outputs":[],"stateMutability":"nonpayable","type":"function"},{"inputs":[{"internalType":"string","name":"studentId","type":"string"},{"internalType":"string[]","name":"dataTypes","type":"string[]"},{"internalType":"string[]","name":"data","type":"string[]"}],"name":"editStudentDataAsCollege","outputs":[],"stateMutability":"nonpayable","type":"function"},{"inputs":[{"internalType":"string[]","name":"dataTypes","type":"string[]"},{"internalType":"string[]","name":"data","type":"string[]"}],"name":"editStudentDataAsStudent","outputs":[],"stateMutability":"nonpayable","type":"function"},{"inputs":[],"name":"getAllCollegeIds","outputs":[{"internalType":"string[]","name":"","type":"string[]"}],"stateMutability":"view","type":"function"},{"inputs":[{"internalType":"string","name":"collegeId","type":"string"},{"internalType":"string","name":"dataType","type":"string"}],"name":"getCollegeData","outputs":[{"internalType":"string","name":"","type":"string"}],"stateMutability":"view","type":"function"},{"inputs":[{"internalType":"string","name":"collegeId","type":"string"}],"name":"getCollegeDataTypes","outputs":[{"internalType":"string[]","name":"","type":"string[]"}],"stateMutability":"view","type":"function"},{"inputs":[{"internalType":"string","name":"collegeId","type":"string"}],"name":"getCollegeStatus","outputs":[{"internalType":"enum Ducid.CollegeStatus","name":"","type":"uint8"}],"stateMutability":"view","type":"function"},{"inputs":[],"name":"getCollegeStudentIds","outputs":[{"internalType":"string[]","name":"","type":"string[]"}],"stateMutability":"view","type":"function"},{"inputs":[],"name":"getOwnCollegeId","outputs":[{"internalType":"string","name":"","type":"string"}],"stateMutability":"view","type":"function"},{"inputs":[],"name":"getOwnStudentId","outputs":[{"internalType":"string","name":"","type":"string"}],"stateMutability":"view","type":"function"},{"inputs":[],"name":"getOwner","outputs":[{"internalType":"address","name":"","type":"address"}],"stateMutability":"view","type":"function"},{"inputs":[{"internalType":"string","name":"studentId","type":"string"},{"internalType":"string","name":"dataType","type":"string"}],"name":"getStudentData","outputs":[{"internalType":"string","name":"","type":"string"}],"stateMutability":"view","type":"function"},{"inputs":[{"internalType":"string","name":"studentId","type":"string"},{"internalType":"string","name":"dataType","type":"string"},{"internalType":"bool","name":"TypeOfData","type":"bool"}],"name":"getStudentDataAsCollege","outputs":[{"internalType":"string","name":"data","type":"string"}],"stateMutability":"view","type":"function"},{"inputs":[{"internalType":"string","name":"studentId","type":"string"},{"internalType":"string","name":"dataType","type":"string"}],"name":"getStudentDataStatus","outputs":[{"internalType":"enum Ducid.StudentDataStatus","name":"","type":"uint8"}],"stateMutability":"view","type":"function"},{"inputs":[{"internalType":"string","name":"studentId","type":"string"}],"name":"getStudentDataTypes","outputs":[{"internalType":"string[]","name":"","type":"string[]"}],"stateMutability":"view","type":"function"},{"inputs":[{"internalType":"string","name":"studentId","type":"string"},{"internalType":"string","name":"dataType","type":"string"}],"name":"getStudentEditAccess","outputs":[{"internalType":"bool","name":"","type":"bool"}],"stateMutability":"view","type":"function"},{"inputs":[{"internalType":"string","name":"studentId","type":"string"}],"name":"getStudentStatus","outputs":[{"internalType":"enum Ducid.StudentStatus","name":"","type":"uint8"}],"stateMutability":"view","type":"function"},{"inputs":[{"internalType":"address","name":"thirdParty","type":"address"},{"internalType":"string","name":"dataType","type":"string"}],"name":"giveAccessToThirdParty","outputs":[],"stateMutability":"nonpayable","type":"function"},{"inputs":[{"internalType":"string","name":"collegeId","type":"string"}],"name":"rejectCollege","outputs":[],"stateMutability":"nonpayable","type":"function"},{"inputs":[{"internalType":"address","name":"thirdParty","type":"address"},{"internalType":"string","name":"dataType","type":"string"}],"name":"revokeAccessToThirdParty","outputs":[],"stateMutability":"nonpayable","type":"function"},{"inputs":[{"internalType":"string","name":"studentId","type":"string"},{"internalType":"string","name":"dataType","type":"string"}],"name":"verifyStudentData","outputs":[],"stateMutability":"nonpayable","type":"function"}],"evm":{"bytecode":{"linkReferences":{},"object":"608060405234801561001057600080fd5b50336000806101000a81548173ffffffffffffffffffffffffffffffffffffffff021916908373ffffffffffffffffffffffffffffffffffffffff160217905550615f9680620000616000396000f3fe608060405234801561001057600080fd5b506004361061018e5760003560e01c806390bff258116100de578063b4a9f2c411610097578063ce54123d11610071578063ce54123d146104a5578063ea055796146104d5578063f18b178114610505578063f42867a5146105215761018e565b8063b4a9f2c41461043d578063bc1829f814610459578063c2d8eef3146104895761018e565b806390bff2581461036d57806395a6ba22146103895780639a645856146103a55780639be977d6146103d5578063a7ed6e41146103f1578063a83cf342146104215761018e565b806362893b131161014b5780637f3e1e82116101255780637f3e1e82146102f957806385c5989e1461031557806388c045e214610331578063893d20e81461034f5761018e565b806362893b131461027b57806375d0b932146102ab5780637bb312fd146102db5761018e565b80630147aabd146101935780631abf4112146101c357806328fd6ae1146101e15780633d9c5434146102115780633e6835b41461022d57806353ef780e1461025d575b600080fd5b6101ad60048036038101906101a89190614d30565b61053d565b6040516101ba9190614de0565b60405180910390f35b6101cb6105d3565b6040516101d89190614f4d565b60405180910390f35b6101fb60048036038101906101f6919061509f565b6108e5565b6040516102089190614de0565b60405180910390f35b61022b60048036038101906102269190615117565b610937565b005b61024760048036038101906102429190615190565b610b1d565b604051610254919061526f565b60405180910390f35b610265611158565b604051610272919061526f565b60405180910390f35b61029560048036038101906102909190615291565b611227565b6040516102a2919061526f565b60405180910390f35b6102c560048036038101906102c09190615117565b611444565b6040516102d29190615389565b60405180910390f35b6102e361147c565b6040516102f0919061526f565b60405180910390f35b610313600480360381019061030e91906153a4565b61154b565b005b61032f600480360381019061032a9190615117565b611abf565b005b610339611c1e565b6040516103469190614f4d565b60405180910390f35b610357611cf7565b604051610364919061547c565b60405180910390f35b610387600480360381019061038291906154ed565b611d20565b005b6103a3600480360381019061039e9190615291565b6123d6565b005b6103bf60048036038101906103ba9190615291565b6127a0565b6040516103cc919061526f565b60405180910390f35b6103ef60048036038101906103ea91906155a1565b612873565b005b61040b60048036038101906104069190615117565b612b2d565b6040516104189190614f4d565b60405180910390f35b61043b60048036038101906104369190615601565b612c27565b005b61045760048036038101906104529190615291565b613016565b005b610473600480360381019061046e9190615117565b61364e565b60405161048091906156ca565b60405180910390f35b6104a3600480360381019061049e9190615117565b613686565b005b6104bf60048036038101906104ba9190615291565b61386e565b6040516104cc919061572d565b60405180910390f35b6104ef60048036038101906104ea9190615117565b613d4d565b6040516104fc9190614f4d565b60405180910390f35b61051f600480360381019061051a91906155a1565b613e47565b005b61053b60048036038101906105369190615190565b614101565b005b6000600e60008773ffffffffffffffffffffffffffffffffffffffff1673ffffffffffffffffffffffffffffffffffffffff168152602001908152602001600020858560405161058e929190615778565b908152602001604051809103902083836040516105ac929190615778565b908152602001604051809103902060009054906101000a900460ff16905095945050505050565b60606000600160003373ffffffffffffffffffffffffffffffffffffffff1673ffffffffffffffffffffffffffffffffffffffff1681526020019081526020016000208054610621906157c0565b80601f016020809104026020016040519081016040528092919081815260200182805461064d906157c0565b801561069a5780601f1061066f5761010080835404028352916020019161069a565b820191906000526020600020905b81548152906001019060200180831161067d57829003601f168201915b50505050509050600060038111156106b5576106b4615312565b5b6003826040516106c59190615822565b908152602001604051809103902060009054906101000a900460ff1660038111156106f3576106f2615312565b5b0361072a576040517f8fa622f500000000000000000000000000000000000000000000000000000000815260040160405180910390fd5b6002600381111561073e5761073d615312565b5b60038260405161074e9190615822565b908152602001604051809103902060009054906101000a900460ff16600381111561077c5761077b615312565b5b146107b3576040517f8ac8e00b00000000000000000000000000000000000000000000000000000000815260040160405180910390fd5b6007600160003373ffffffffffffffffffffffffffffffffffffffff1673ffffffffffffffffffffffffffffffffffffffff16815260200190815260200160002060405161080191906158d1565b9081526020016040518091039020805480602002602001604051908101604052809291908181526020016000905b828210156108db57838290600052602060002001805461084e906157c0565b80601f016020809104026020016040519081016040528092919081815260200182805461087a906157c0565b80156108c75780601f1061089c576101008083540402835291602001916108c7565b820191906000526020600020905b8154815290600101906020018083116108aa57829003601f168201915b50505050508152602001906001019061082f565b5050505091505090565b6000600b836040516108f79190615822565b9081526020016040518091039020826040516109139190615822565b908152602001604051809103902060009054906101000a900460ff16905092915050565b60008054906101000a900473ffffffffffffffffffffffffffffffffffffffff1673ffffffffffffffffffffffffffffffffffffffff163373ffffffffffffffffffffffffffffffffffffffff16146109bc576040517f2dca963600000000000000000000000000000000000000000000000000000000815260040160405180910390fd5b600060038111156109d0576109cf615312565b5b600383836040516109e2929190615778565b908152602001604051809103902060009054906101000a900460ff166003811115610a1057610a0f615312565b5b03610a47576040517f567e9be600000000000000000000000000000000000000000000000000000000815260040160405180910390fd5b600380811115610a5a57610a59615312565b5b60038383604051610a6c929190615778565b908152602001604051809103902060009054906101000a900460ff166003811115610a9a57610a99615312565b5b03610ad1576040517f20f935a000000000000000000000000000000000000000000000000000000000815260040160405180910390fd5b6003808383604051610ae4929190615778565b908152602001604051809103902060006101000a81548160ff02191690836003811115610b1457610b13615312565b5b02179055505050565b60606000600160003373ffffffffffffffffffffffffffffffffffffffff1673ffffffffffffffffffffffffffffffffffffffff1681526020019081526020016000208054610b6b906157c0565b80601f0160208091040260200160405190810160405280929190818152602001828054610b97906157c0565b8015610be45780601f10610bb957610100808354040283529160200191610be4565b820191906000526020600020905b815481529060010190602001808311610bc757829003601f168201915b5050505050905060006003811115610bff57610bfe615312565b5b600382604051610c0f9190615822565b908152602001604051809103902060009054906101000a900460ff166003811115610c3d57610c3c615312565b5b03610c74576040517f8fa622f500000000000000000000000000000000000000000000000000000000815260040160405180910390fd5b60026003811115610c8857610c87615312565b5b600382604051610c989190615822565b908152602001604051809103902060009054906101000a900460ff166003811115610cc657610cc5615312565b5b14610cfd576040517f8ac8e00b00000000000000000000000000000000000000000000000000000000815260040160405180910390fd5b868660006001811115610d1357610d12615312565b5b60088383604051610d25929190615778565b908152602001604051809103902060009054906101000a900460ff166001811115610d5357610d52615312565b5b03610d8a576040517f078de8bf00000000000000000000000000000000000000000000000000000000815260040160405180910390fd5b6000600160003373ffffffffffffffffffffffffffffffffffffffff1673ffffffffffffffffffffffffffffffffffffffff1681526020019081526020016000208054610dd6906157c0565b80601f0160208091040260200160405190810160405280929190818152602001828054610e02906157c0565b8015610e4f5780601f10610e2457610100808354040283529160200191610e4f565b820191906000526020600020905b815481529060010190602001808311610e3257829003601f168201915b50505050509050600060098484604051610e6a929190615778565b9081526020016040518091039020604051610e8490615934565b90815260200160405180910390208054610e9d906157c0565b80601f0160208091040260200160405190810160405280929190818152602001828054610ec9906157c0565b8015610f165780601f10610eeb57610100808354040283529160200191610f16565b820191906000526020600020905b815481529060010190602001808311610ef957829003601f168201915b5050505050905080604051602001610f2e9190615822565b6040516020818303038152906040528051906020012082604051602001610f559190615822565b6040516020818303038152906040528051906020012014610fa2576040517fca7b7fb200000000000000000000000000000000000000000000000000000000815260040160405180910390fd5b86156110765760098b8b604051610fba929190615778565b90815260200160405180910390208989604051610fd8929190615778565b90815260200160405180910390208054610ff1906157c0565b80601f016020809104026020016040519081016040528092919081815260200182805461101d906157c0565b801561106a5780601f1061103f5761010080835404028352916020019161106a565b820191906000526020600020905b81548152906001019060200180831161104d57829003601f168201915b5050505050955061114a565b8661114957600d8b8b60405161108d929190615778565b908152602001604051809103902089896040516110ab929190615778565b908152602001604051809103902080546110c4906157c0565b80601f01602080910402602001604051908101604052809291908181526020018280546110f0906157c0565b801561113d5780601f106111125761010080835404028352916020019161113d565b820191906000526020600020905b81548152906001019060200180831161112057829003601f168201915b5050505050955061114a565b5b505050505095945050505050565b6060600660003373ffffffffffffffffffffffffffffffffffffffff1673ffffffffffffffffffffffffffffffffffffffff16815260200190815260200160002080546111a4906157c0565b80601f01602080910402602001604051908101604052809291908181526020018280546111d0906157c0565b801561121d5780601f106111f25761010080835404028352916020019161121d565b820191906000526020600020905b81548152906001019060200180831161120057829003601f168201915b5050505050905090565b60606000600181111561123d5761123c615312565b5b6008868660405161124f929190615778565b908152602001604051809103902060009054906101000a900460ff16600181111561127d5761127c615312565b5b036112b4576040517f078de8bf00000000000000000000000000000000000000000000000000000000815260040160405180910390fd5b600e60003373ffffffffffffffffffffffffffffffffffffffff1673ffffffffffffffffffffffffffffffffffffffff1681526020019081526020016000208585604051611303929190615778565b90815260200160405180910390208383604051611321929190615778565b908152602001604051809103902060009054906101000a900460ff16611373576040517f722f899200000000000000000000000000000000000000000000000000000000815260040160405180910390fd5b60098585604051611385929190615778565b908152602001604051809103902083836040516113a3929190615778565b908152602001604051809103902080546113bc906157c0565b80601f01602080910402602001604051908101604052809291908181526020018280546113e8906157c0565b80156114355780601f1061140a57610100808354040283529160200191611435565b820191906000526020600020905b81548152906001019060200180831161141857829003601f168201915b50505050509050949350505050565b600060088383604051611458929190615778565b908152602001604051809103902060009054906101000a900460ff16905092915050565b6060600160003373ffffffffffffffffffffffffffffffffffffffff1673ffffffffffffffffffffffffffffffffffffffff16815260200190815260200160002080546114c8906157c0565b80601f01602080910402602001604051908101604052809291908181526020018280546114f4906157c0565b80156115415780601f1061151657610100808354040283529160200191611541565b820191906000526020600020905b81548152906001019060200180831161152457829003601f168201915b5050505050905090565b6000600160003373ffffffffffffffffffffffffffffffffffffffff1673ffffffffffffffffffffffffffffffffffffffff1681526020019081526020016000208054611597906157c0565b80601f01602080910402602001604051908101604052809291908181526020018280546115c3906157c0565b80156116105780601f106115e557610100808354040283529160200191611610565b820191906000526020600020905b8154815290600101906020018083116115f357829003601f168201915b505050505090506000600381111561162b5761162a615312565b5b60038260405161163b9190615822565b908152602001604051809103902060009054906101000a900460ff16600381111561166957611668615312565b5b036116a0576040517f8fa622f500000000000000000000000000000000000000000000000000000000815260040160405180910390fd5b600260038111156116b4576116b3615312565b5b6003826040516116c49190615822565b908152602001604051809103902060009054906101000a900460ff1660038111156116f2576116f1615312565b5b14611729576040517f8ac8e00b00000000000000000000000000000000000000000000000000000000815260040160405180910390fd5b6000600160003373ffffffffffffffffffffffffffffffffffffffff1673ffffffffffffffffffffffffffffffffffffffff1681526020019081526020016000208054611775906157c0565b80601f01602080910402602001604051908101604052809291908181526020018280546117a1906157c0565b80156117ee5780601f106117c3576101008083540402835291602001916117ee565b820191906000526020600020905b8154815290600101906020018083116117d157829003601f168201915b5050505050905060006118008a6145e6565b905080600660008c73ffffffffffffffffffffffffffffffffffffffff1673ffffffffffffffffffffffffffffffffffffffff168152602001908152602001600020908161184e9190615aea565b5060078260405161185f9190615822565b90815260200160405180910390208190806001815401808255809150506001900390600052602060002001600090919091909150908161189f9190615aea565b5060016008826040516118b29190615822565b908152602001604051809103902060006101000a81548160ff021916908360018111156118e2576118e1615312565b5b0217905550611927816040518060400160405280600a81526020017f436f6c6c6567652049640000000000000000000000000000000000000000000081525084614625565b6119ab816040518060400160405280600c81526020017f53747564656e74204e616d6500000000000000000000000000000000000000008152508b8b8080601f016020809104026020016040519081016040528093929190818152602001838380828437600081840152601f19601f82011690508083019250505050505050614625565b611a2f816040518060400160405280600b81526020017f53747564656e742041676500000000000000000000000000000000000000000081525089898080601f016020809104026020016040519081016040528093929190818152602001838380828437600081840152601f19601f82011690508083019250505050505050614625565b611ab3816040518060400160405280601281526020017f53747564656e742050657263656e74616765000000000000000000000000000081525087878080601f016020809104026020016040519081016040528093929190818152602001838380828437600081840152601f19601f82011690508083019250505050505050614625565b50505050505050505050565b6000611aca336145e6565b905080600160003373ffffffffffffffffffffffffffffffffffffffff1673ffffffffffffffffffffffffffffffffffffffff1681526020019081526020016000209081611b189190615aea565b50600281908060018154018082558091505060019003906000526020600020016000909190919091509081611b4d9190615aea565b506001600382604051611b609190615822565b908152602001604051809103902060006101000a81548160ff02191690836003811115611b9057611b8f615312565b5b0217905550611c19816040518060400160405280600c81526020017f436f6c6c656765204e616d65000000000000000000000000000000000000000081525085858080601f016020809104026020016040519081016040528093929190818152602001838380828437600081840152601f19601f82011690508083019250505050505050614795565b505050565b60606002805480602002602001604051908101604052809291908181526020016000905b82821015611cee578382906000526020600020018054611c61906157c0565b80601f0160208091040260200160405190810160405280929190818152602001828054611c8d906157c0565b8015611cda5780601f10611caf57610100808354040283529160200191611cda565b820191906000526020600020905b815481529060010190602001808311611cbd57829003601f168201915b505050505081526020019060010190611c42565b50505050905090565b60008060009054906101000a900473ffffffffffffffffffffffffffffffffffffffff16905090565b6000600160003373ffffffffffffffffffffffffffffffffffffffff1673ffffffffffffffffffffffffffffffffffffffff1681526020019081526020016000208054611d6c906157c0565b80601f0160208091040260200160405190810160405280929190818152602001828054611d98906157c0565b8015611de55780601f10611dba57610100808354040283529160200191611de5565b820191906000526020600020905b815481529060010190602001808311611dc857829003601f168201915b5050505050905060006003811115611e0057611dff615312565b5b600382604051611e109190615822565b908152602001604051809103902060009054906101000a900460ff166003811115611e3e57611e3d615312565b5b03611e75576040517f8fa622f500000000000000000000000000000000000000000000000000000000815260040160405180910390fd5b60026003811115611e8957611e88615312565b5b600382604051611e999190615822565b908152602001604051809103902060009054906101000a900460ff166003811115611ec757611ec6615312565b5b14611efe576040517f8ac8e00b00000000000000000000000000000000000000000000000000000000815260040160405180910390fd5b868660006001811115611f1457611f13615312565b5b60088383604051611f26929190615778565b908152602001604051809103902060009054906101000a900460ff166001811115611f5457611f53615312565b5b03611f8b576040517f078de8bf00000000000000000000000000000000000000000000000000000000815260040160405180910390fd5b6000600160003373ffffffffffffffffffffffffffffffffffffffff1673ffffffffffffffffffffffffffffffffffffffff1681526020019081526020016000208054611fd7906157c0565b80601f0160208091040260200160405190810160405280929190818152602001828054612003906157c0565b80156120505780601f1061202557610100808354040283529160200191612050565b820191906000526020600020905b81548152906001019060200180831161203357829003601f168201915b5050505050905060006009848460405161206b929190615778565b908152602001604051809103902060405161208590615934565b9081526020016040518091039020805461209e906157c0565b80601f01602080910402602001604051908101604052809291908181526020018280546120ca906157c0565b80156121175780601f106120ec57610100808354040283529160200191612117565b820191906000526020600020905b8154815290600101906020018083116120fa57829003601f168201915b505050505090508060405160200161212f9190615822565b60405160208183030381529060405280519060200120826040516020016121569190615822565b60405160208183030381529060405280519060200120146121a3576040517fca7b7fb200000000000000000000000000000000000000000000000000000000815260040160405180910390fd5b8686905089899050146121e2576040517f79b3f46f00000000000000000000000000000000000000000000000000000000815260040160405180910390fd5b60005b898990508110156123c857600088888381811061220557612204615bbc565b5b90506020028101906122179190615bfa565b8080601f016020809104026020016040519081016040528093929190818152602001838380828437600081840152601f19601f8201169050808301925050505050505090506000815103612297576040517f47b4af9400000000000000000000000000000000000000000000000000000000815260040160405180910390fd5b6123b48d8d8080601f016020809104026020016040519081016040528093929190818152602001838380828437600081840152601f19601f820116905080830192505050505050508c8c858181106122f2576122f1615bbc565b5b90506020028101906123049190615bfa565b8080601f016020809104026020016040519081016040528093929190818152602001838380828437600081840152601f19601f820116905080830192505050505050508b8b8681811061235a57612359615bbc565b5b905060200281019061236c9190615bfa565b8080601f016020809104026020016040519081016040528093929190818152602001838380828437600081840152601f19601f82011690508083019250505050505050614625565b5080806123c090615c8c565b9150506121e5565b505050505050505050505050565b6000600160003373ffffffffffffffffffffffffffffffffffffffff1673ffffffffffffffffffffffffffffffffffffffff1681526020019081526020016000208054612422906157c0565b80601f016020809104026020016040519081016040528092919081815260200182805461244e906157c0565b801561249b5780601f106124705761010080835404028352916020019161249b565b820191906000526020600020905b81548152906001019060200180831161247e57829003601f168201915b50505050509050600060038111156124b6576124b5615312565b5b6003826040516124c69190615822565b908152602001604051809103902060009054906101000a900460ff1660038111156124f4576124f3615312565b5b0361252b576040517f8fa622f500000000000000000000000000000000000000000000000000000000815260040160405180910390fd5b6002600381111561253f5761253e615312565b5b60038260405161254f9190615822565b908152602001604051809103902060009054906101000a900460ff16600381111561257d5761257c615312565b5b146125b4576040517f8ac8e00b00000000000000000000000000000000000000000000000000000000815260040160405180910390fd5b600083838080601f016020809104026020016040519081016040528093929190818152602001838380828437600081840152601f19601f8201169050808301925050505050505090506000815103612638576040517f47b4af9400000000000000000000000000000000000000000000000000000000815260040160405180910390fd5b6000600160003373ffffffffffffffffffffffffffffffffffffffff1673ffffffffffffffffffffffffffffffffffffffff1681526020019081526020016000208054612684906157c0565b80601f01602080910402602001604051908101604052809291908181526020018280546126b0906157c0565b80156126fd5780601f106126d2576101008083540402835291602001916126fd565b820191906000526020600020905b8154815290600101906020018083116126e057829003601f168201915b505050505090506127978188888080601f016020809104026020016040519081016040528093929190818152602001838380828437600081840152601f19601f8201169050808301925050505050505087878080601f016020809104026020016040519081016040528093929190818152602001838380828437600081840152601f19601f82011690508083019250505050505050614795565b50505050505050565b6060600485856040516127b4929190615778565b908152602001604051809103902083836040516127d2929190615778565b908152602001604051809103902080546127eb906157c0565b80601f0160208091040260200160405190810160405280929190818152602001828054612817906157c0565b80156128645780601f1061283957610100808354040283529160200191612864565b820191906000526020600020905b81548152906001019060200180831161284757829003601f168201915b50505050509050949350505050565b6000600660003373ffffffffffffffffffffffffffffffffffffffff1673ffffffffffffffffffffffffffffffffffffffff16815260200190815260200160002080546128bf906157c0565b80601f01602080910402602001604051908101604052809291908181526020018280546128eb906157c0565b80156129385780601f1061290d57610100808354040283529160200191612938565b820191906000526020600020905b81548152906001019060200180831161291b57829003601f168201915b505050505090506000600181111561295357612952615312565b5b6008826040516129639190615822565b908152602001604051809103902060009054906101000a900460ff16600181111561299157612990615312565b5b036129c8576040517f078de8bf00000000000000000000000000000000000000000000000000000000815260040160405180910390fd5b6000600660003373ffffffffffffffffffffffffffffffffffffffff1673ffffffffffffffffffffffffffffffffffffffff1681526020019081526020016000208054612a14906157c0565b80601f0160208091040260200160405190810160405280929190818152602001828054612a40906157c0565b8015612a8d5780601f10612a6257610100808354040283529160200191612a8d565b820191906000526020600020905b815481529060010190602001808311612a7057829003601f168201915b505050505090506001600e60008773ffffffffffffffffffffffffffffffffffffffff1673ffffffffffffffffffffffffffffffffffffffff16815260200190815260200160002082604051612ae39190615822565b90815260200160405180910390208585604051612b01929190615778565b908152602001604051809103902060006101000a81548160ff0219169083151502179055505050505050565b606060058383604051612b41929190615778565b9081526020016040518091039020805480602002602001604051908101604052809291908181526020016000905b82821015612c1b578382906000526020600020018054612b8e906157c0565b80601f0160208091040260200160405190810160405280929190818152602001828054612bba906157c0565b8015612c075780601f10612bdc57610100808354040283529160200191612c07565b820191906000526020600020905b815481529060010190602001808311612bea57829003601f168201915b505050505081526020019060010190612b6f565b50505050905092915050565b6000600660003373ffffffffffffffffffffffffffffffffffffffff1673ffffffffffffffffffffffffffffffffffffffff1681526020019081526020016000208054612c73906157c0565b80601f0160208091040260200160405190810160405280929190818152602001828054612c9f906157c0565b8015612cec5780601f10612cc157610100808354040283529160200191612cec565b820191906000526020600020905b815481529060010190602001808311612ccf57829003601f168201915b5050505050905060006001811115612d0757612d06615312565b5b600882604051612d179190615822565b908152602001604051809103902060009054906101000a900460ff166001811115612d4557612d44615312565b5b03612d7c576040517f078de8bf00000000000000000000000000000000000000000000000000000000815260040160405180910390fd5b828290508585905014612dbb576040517f79b3f46f00000000000000000000000000000000000000000000000000000000815260040160405180910390fd5b6000600660003373ffffffffffffffffffffffffffffffffffffffff1673ffffffffffffffffffffffffffffffffffffffff1681526020019081526020016000208054612e07906157c0565b80601f0160208091040260200160405190810160405280929190818152602001828054612e33906157c0565b8015612e805780601f10612e5557610100808354040283529160200191612e80565b820191906000526020600020905b815481529060010190602001808311612e6357829003601f168201915b5050505050905060005b8686905081101561300d57600b82604051612ea59190615822565b9081526020016040518091039020878783818110612ec657612ec5615bbc565b5b9050602002810190612ed89190615bfa565b604051612ee6929190615778565b908152602001604051809103902060009054906101000a900460ff16612f38576040517f722f899200000000000000000000000000000000000000000000000000000000815260040160405180910390fd5b612f6882888884818110612f4f57612f4e615bbc565b5b9050602002810190612f619190615bfa565b6001614905565b848482818110612f7b57612f7a615bbc565b5b9050602002810190612f8d9190615bfa565b600d84604051612f9d9190615822565b9081526020016040518091039020898985818110612fbe57612fbd615bbc565b5b9050602002810190612fd09190615bfa565b604051612fde929190615778565b90815260200160405180910390209182612ff9929190615cdf565b50808061300590615c8c565b915050612e8a565b50505050505050565b6000600160003373ffffffffffffffffffffffffffffffffffffffff1673ffffffffffffffffffffffffffffffffffffffff1681526020019081526020016000208054613062906157c0565b80601f016020809104026020016040519081016040528092919081815260200182805461308e906157c0565b80156130db5780601f106130b0576101008083540402835291602001916130db565b820191906000526020600020905b8154815290600101906020018083116130be57829003601f168201915b50505050509050600060038111156130f6576130f5615312565b5b6003826040516131069190615822565b908152602001604051809103902060009054906101000a900460ff16600381111561313457613133615312565b5b0361316b576040517f8fa622f500000000000000000000000000000000000000000000000000000000815260040160405180910390fd5b6002600381111561317f5761317e615312565b5b60038260405161318f9190615822565b908152602001604051809103902060009054906101000a900460ff1660038111156131bd576131bc615312565b5b146131f4576040517f8ac8e00b00000000000000000000000000000000000000000000000000000000815260040160405180910390fd5b84846000600181111561320a57613209615312565b5b6008838360405161321c929190615778565b908152602001604051809103902060009054906101000a900460ff16600181111561324a57613249615312565b5b03613281576040517f078de8bf00000000000000000000000000000000000000000000000000000000815260040160405180910390fd5b6000600160003373ffffffffffffffffffffffffffffffffffffffff1673ffffffffffffffffffffffffffffffffffffffff16815260200190815260200160002080546132cd906157c0565b80601f01602080910402602001604051908101604052809291908181526020018280546132f9906157c0565b80156133465780601f1061331b57610100808354040283529160200191613346565b820191906000526020600020905b81548152906001019060200180831161332957829003601f168201915b50505050509050600060098484604051613361929190615778565b908152602001604051809103902060405161337b90615934565b90815260200160405180910390208054613394906157c0565b80601f01602080910402602001604051908101604052809291908181526020018280546133c0906157c0565b801561340d5780601f106133e25761010080835404028352916020019161340d565b820191906000526020600020905b8154815290600101906020018083116133f057829003601f168201915b50505050509050806040516020016134259190615822565b604051602081830303815290604052805190602001208260405160200161344c9190615822565b6040516020818303038152906040528051906020012014613499576040517fca7b7fb200000000000000000000000000000000000000000000000000000000815260040160405180910390fd5b6134ea89898080601f016020809104026020016040519081016040528093929190818152602001838380828437600081840152601f19601f8201169050808301925050505050505088886000614905565b61364389898080601f016020809104026020016040519081016040528093929190818152602001838380828437600081840152601f19601f8201169050808301925050505050505088888080601f016020809104026020016040519081016040528093929190818152602001838380828437600081840152601f19601f82011690508083019250505050505050600d8c8c604051613589929190615778565b90815260200160405180910390208a8a6040516135a7929190615778565b908152602001604051809103902080546135c0906157c0565b80601f01602080910402602001604051908101604052809291908181526020018280546135ec906157c0565b80156136395780601f1061360e57610100808354040283529160200191613639565b820191906000526020600020905b81548152906001019060200180831161361c57829003601f168201915b5050505050614625565b505050505050505050565b600060038383604051613662929190615778565b908152602001604051809103902060009054906101000a900460ff16905092915050565b60008054906101000a900473ffffffffffffffffffffffffffffffffffffffff1673ffffffffffffffffffffffffffffffffffffffff163373ffffffffffffffffffffffffffffffffffffffff161461370b576040517f2dca963600000000000000000000000000000000000000000000000000000000815260040160405180910390fd5b6000600381111561371f5761371e615312565b5b60038383604051613731929190615778565b908152602001604051809103902060009054906101000a900460ff16600381111561375f5761375e615312565b5b03613796576040517f567e9be600000000000000000000000000000000000000000000000000000000815260040160405180910390fd5b600260038111156137aa576137a9615312565b5b600383836040516137bc929190615778565b908152602001604051809103902060009054906101000a900460ff1660038111156137ea576137e9615312565b5b03613821576040517f61fd49df00000000000000000000000000000000000000000000000000000000815260040160405180910390fd5b600260038383604051613835929190615778565b908152602001604051809103902060006101000a81548160ff0219169083600381111561386557613864615312565b5b02179055505050565b600080600160003373ffffffffffffffffffffffffffffffffffffffff1673ffffffffffffffffffffffffffffffffffffffff16815260200190815260200160002080546138bb906157c0565b80601f01602080910402602001604051908101604052809291908181526020018280546138e7906157c0565b80156139345780601f1061390957610100808354040283529160200191613934565b820191906000526020600020905b81548152906001019060200180831161391757829003601f168201915b505050505090506000600381111561394f5761394e615312565b5b60038260405161395f9190615822565b908152602001604051809103902060009054906101000a900460ff16600381111561398d5761398c615312565b5b036139c4576040517f8fa622f500000000000000000000000000000000000000000000000000000000815260040160405180910390fd5b600260038111156139d8576139d7615312565b5b6003826040516139e89190615822565b908152602001604051809103902060009054906101000a900460ff166003811115613a1657613a15615312565b5b14613a4d576040517f8ac8e00b00000000000000000000000000000000000000000000000000000000815260040160405180910390fd5b858560006001811115613a6357613a62615312565b5b60088383604051613a75929190615778565b908152602001604051809103902060009054906101000a900460ff166001811115613aa357613aa2615312565b5b03613ada576040517f078de8bf00000000000000000000000000000000000000000000000000000000815260040160405180910390fd5b6000600160003373ffffffffffffffffffffffffffffffffffffffff1673ffffffffffffffffffffffffffffffffffffffff1681526020019081526020016000208054613b26906157c0565b80601f0160208091040260200160405190810160405280929190818152602001828054613b52906157c0565b8015613b9f5780601f10613b7457610100808354040283529160200191613b9f565b820191906000526020600020905b815481529060010190602001808311613b8257829003601f168201915b50505050509050600060098484604051613bba929190615778565b9081526020016040518091039020604051613bd490615934565b90815260200160405180910390208054613bed906157c0565b80601f0160208091040260200160405190810160405280929190818152602001828054613c19906157c0565b8015613c665780601f10613c3b57610100808354040283529160200191613c66565b820191906000526020600020905b815481529060010190602001808311613c4957829003601f168201915b5050505050905080604051602001613c7e9190615822565b6040516020818303038152906040528051906020012082604051602001613ca59190615822565b6040516020818303038152906040528051906020012014613cf2576040517fca7b7fb200000000000000000000000000000000000000000000000000000000815260040160405180910390fd5b600c8a8a604051613d04929190615778565b90815260200160405180910390208888604051613d22929190615778565b908152602001604051809103902060009054906101000a900460ff1695505050505050949350505050565b6060600a8383604051613d61929190615778565b9081526020016040518091039020805480602002602001604051908101604052809291908181526020016000905b82821015613e3b578382906000526020600020018054613dae906157c0565b80601f0160208091040260200160405190810160405280929190818152602001828054613dda906157c0565b8015613e275780601f10613dfc57610100808354040283529160200191613e27565b820191906000526020600020905b815481529060010190602001808311613e0a57829003601f168201915b505050505081526020019060010190613d8f565b50505050905092915050565b6000600660003373ffffffffffffffffffffffffffffffffffffffff1673ffffffffffffffffffffffffffffffffffffffff1681526020019081526020016000208054613e93906157c0565b80601f0160208091040260200160405190810160405280929190818152602001828054613ebf906157c0565b8015613f0c5780601f10613ee157610100808354040283529160200191613f0c565b820191906000526020600020905b815481529060010190602001808311613eef57829003601f168201915b5050505050905060006001811115613f2757613f26615312565b5b600882604051613f379190615822565b908152602001604051809103902060009054906101000a900460ff166001811115613f6557613f64615312565b5b03613f9c576040517f078de8bf00000000000000000000000000000000000000000000000000000000815260040160405180910390fd5b6000600660003373ffffffffffffffffffffffffffffffffffffffff1673ffffffffffffffffffffffffffffffffffffffff1681526020019081526020016000208054613fe8906157c0565b80601f0160208091040260200160405190810160405280929190818152602001828054614014906157c0565b80156140615780601f1061403657610100808354040283529160200191614061565b820191906000526020600020905b81548152906001019060200180831161404457829003601f168201915b505050505090506000600e60008773ffffffffffffffffffffffffffffffffffffffff1673ffffffffffffffffffffffffffffffffffffffff168152602001908152602001600020826040516140b79190615822565b908152602001604051809103902085856040516140d5929190615778565b908152602001604051809103902060006101000a81548160ff0219169083151502179055505050505050565b6000600160003373ffffffffffffffffffffffffffffffffffffffff1673ffffffffffffffffffffffffffffffffffffffff168152602001908152602001600020805461414d906157c0565b80601f0160208091040260200160405190810160405280929190818152602001828054614179906157c0565b80156141c65780601f1061419b576101008083540402835291602001916141c6565b820191906000526020600020905b8154815290600101906020018083116141a957829003601f168201915b50505050509050600060038111156141e1576141e0615312565b5b6003826040516141f19190615822565b908152602001604051809103902060009054906101000a900460ff16600381111561421f5761421e615312565b5b03614256576040517f8fa622f500000000000000000000000000000000000000000000000000000000815260040160405180910390fd5b6002600381111561426a57614269615312565b5b60038260405161427a9190615822565b908152602001604051809103902060009054906101000a900460ff1660038111156142a8576142a7615312565b5b146142df576040517f8ac8e00b00000000000000000000000000000000000000000000000000000000815260040160405180910390fd5b8585600060018111156142f5576142f4615312565b5b60088383604051614307929190615778565b908152602001604051809103902060009054906101000a900460ff16600181111561433557614334615312565b5b0361436c576040517f078de8bf00000000000000000000000000000000000000000000000000000000815260040160405180910390fd5b6000600160003373ffffffffffffffffffffffffffffffffffffffff1673ffffffffffffffffffffffffffffffffffffffff16815260200190815260200160002080546143b8906157c0565b80601f01602080910402602001604051908101604052809291908181526020018280546143e4906157c0565b80156144315780601f1061440657610100808354040283529160200191614431565b820191906000526020600020905b81548152906001019060200180831161441457829003601f168201915b5050505050905060006009848460405161444c929190615778565b908152602001604051809103902060405161446690615934565b9081526020016040518091039020805461447f906157c0565b80601f01602080910402602001604051908101604052809291908181526020018280546144ab906157c0565b80156144f85780601f106144cd576101008083540402835291602001916144f8565b820191906000526020600020905b8154815290600101906020018083116144db57829003601f168201915b50505050509050806040516020016145109190615822565b60405160208183030381529060405280519060200120826040516020016145379190615822565b6040516020818303038152906040528051906020012014614584576040517fca7b7fb200000000000000000000000000000000000000000000000000000000815260040160405180910390fd5b85600b8b8b604051614597929190615778565b908152602001604051809103902089896040516145b5929190615778565b908152602001604051809103902060006101000a81548160ff02191690831515021790555050505050505050505050565b606061461e82424460405160200161460093929190615e18565b6040516020818303038152906040528051906020012060001c61496f565b9050919050565b60006009846040516146379190615822565b9081526020016040518091039020836040516146539190615822565b9081526020016040518091039020805461466c906157c0565b80601f0160208091040260200160405190810160405280929190818152602001828054614698906157c0565b80156146e55780601f106146ba576101008083540402835291602001916146e5565b820191906000526020600020905b8154815290600101906020018083116146c857829003601f168201915b50505050509050600081510361474757600a846040516147059190615822565b9081526020016040518091039020839080600181540180825580915050600190039060005260206000200160009091909190915090816147459190615aea565b505b816009856040516147589190615822565b9081526020016040518091039020846040516147749190615822565b9081526020016040518091039020908161478e9190615aea565b5050505050565b60006004846040516147a79190615822565b9081526020016040518091039020836040516147c39190615822565b908152602001604051809103902080546147dc906157c0565b80601f0160208091040260200160405190810160405280929190818152602001828054614808906157c0565b80156148555780601f1061482a57610100808354040283529160200191614855565b820191906000526020600020905b81548152906001019060200180831161483857829003601f168201915b5050505050905060008151036148b7576005846040516148759190615822565b9081526020016040518091039020839080600181540180825580915050600190039060005260206000200160009091909190915090816148b59190615aea565b505b816004856040516148c89190615822565b9081526020016040518091039020846040516148e49190615822565b908152602001604051809103902090816148fe9190615aea565b5050505050565b80600c856040516149169190615822565b90815260200160405180910390208484604051614934929190615778565b908152602001604051809103902060006101000a81548160ff0219169083600281111561496457614963615312565b5b021790555050505050565b60606149868260016149808561498d565b01614a1d565b9050919050565b600080600090506000608084901c11156149af57608083901c92506010810190505b6000604084901c11156149ca57604083901c92506008810190505b6000602084901c11156149e557602083901c92506004810190505b6000601084901c1115614a0057601083901c92506002810190505b6000600884901c1115614a14576001810190505b80915050919050565b606060006002836002614a309190615e55565b614a3a9190615e97565b67ffffffffffffffff811115614a5357614a52614f74565b5b6040519080825280601f01601f191660200182016040528015614a855781602001600182028036833780820191505090505b5090507f300000000000000000000000000000000000000000000000000000000000000081600081518110614abd57614abc615bbc565b5b60200101907effffffffffffffffffffffffffffffffffffffffffffffffffffffffffffff1916908160001a9053507f780000000000000000000000000000000000000000000000000000000000000081600181518110614b2157614b20615bbc565b5b60200101907effffffffffffffffffffffffffffffffffffffffffffffffffffffffffffff1916908160001a90535060006001846002614b619190615e55565b614b6b9190615e97565b90505b6001811115614c0b577f3031323334353637383961626364656600000000000000000000000000000000600f861660108110614bad57614bac615bbc565b5b1a60f81b828281518110614bc457614bc3615bbc565b5b60200101907effffffffffffffffffffffffffffffffffffffffffffffffffffffffffffff1916908160001a905350600485901c945080614c0490615ecb565b9050614b6e565b5060008414614c4f576040517f08c379a0000000000000000000000000000000000000000000000000000000008152600401614c4690615f40565b60405180910390fd5b8091505092915050565b6000604051905090565b600080fd5b600080fd5b600073ffffffffffffffffffffffffffffffffffffffff82169050919050565b6000614c9882614c6d565b9050919050565b614ca881614c8d565b8114614cb357600080fd5b50565b600081359050614cc581614c9f565b92915050565b600080fd5b600080fd5b600080fd5b60008083601f840112614cf057614cef614ccb565b5b8235905067ffffffffffffffff811115614d0d57614d0c614cd0565b5b602083019150836001820283011115614d2957614d28614cd5565b5b9250929050565b600080600080600060608688031215614d4c57614d4b614c63565b5b6000614d5a88828901614cb6565b955050602086013567ffffffffffffffff811115614d7b57614d7a614c68565b5b614d8788828901614cda565b9450945050604086013567ffffffffffffffff811115614daa57614da9614c68565b5b614db688828901614cda565b92509250509295509295909350565b60008115159050919050565b614dda81614dc5565b82525050565b6000602082019050614df56000830184614dd1565b92915050565b600081519050919050565b600082825260208201905092915050565b6000819050602082019050919050565b600081519050919050565b600082825260208201905092915050565b60005b83811015614e61578082015181840152602081019050614e46565b60008484015250505050565b6000601f19601f8301169050919050565b6000614e8982614e27565b614e938185614e32565b9350614ea3818560208601614e43565b614eac81614e6d565b840191505092915050565b6000614ec38383614e7e565b905092915050565b6000602082019050919050565b6000614ee382614dfb565b614eed8185614e06565b935083602082028501614eff85614e17565b8060005b85811015614f3b5784840389528151614f1c8582614eb7565b9450614f2783614ecb565b925060208a01995050600181019050614f03565b50829750879550505050505092915050565b60006020820190508181036000830152614f678184614ed8565b905092915050565b600080fd5b7f4e487b7100000000000000000000000000000000000000000000000000000000600052604160045260246000fd5b614fac82614e6d565b810181811067ffffffffffffffff82111715614fcb57614fca614f74565b5b80604052505050565b6000614fde614c59565b9050614fea8282614fa3565b919050565b600067ffffffffffffffff82111561500a57615009614f74565b5b61501382614e6d565b9050602081019050919050565b82818337600083830152505050565b600061504261503d84614fef565b614fd4565b90508281526020810184848401111561505e5761505d614f6f565b5b615069848285615020565b509392505050565b600082601f83011261508657615085614ccb565b5b813561509684826020860161502f565b91505092915050565b600080604083850312156150b6576150b5614c63565b5b600083013567ffffffffffffffff8111156150d4576150d3614c68565b5b6150e085828601615071565b925050602083013567ffffffffffffffff81111561510157615100614c68565b5b61510d85828601615071565b9150509250929050565b6000806020838503121561512e5761512d614c63565b5b600083013567ffffffffffffffff81111561514c5761514b614c68565b5b61515885828601614cda565b92509250509250929050565b61516d81614dc5565b811461517857600080fd5b50565b60008135905061518a81615164565b92915050565b6000806000806000606086880312156151ac576151ab614c63565b5b600086013567ffffffffffffffff8111156151ca576151c9614c68565b5b6151d688828901614cda565b9550955050602086013567ffffffffffffffff8111156151f9576151f8614c68565b5b61520588828901614cda565b935093505060406152188882890161517b565b9150509295509295909350565b600082825260208201905092915050565b600061524182614e27565b61524b8185615225565b935061525b818560208601614e43565b61526481614e6d565b840191505092915050565b600060208201905081810360008301526152898184615236565b905092915050565b600080600080604085870312156152ab576152aa614c63565b5b600085013567ffffffffffffffff8111156152c9576152c8614c68565b5b6152d587828801614cda565b9450945050602085013567ffffffffffffffff8111156152f8576152f7614c68565b5b61530487828801614cda565b925092505092959194509250565b7f4e487b7100000000000000000000000000000000000000000000000000000000600052602160045260246000fd5b6002811061535257615351615312565b5b50565b600081905061536382615341565b919050565b600061537382615355565b9050919050565b61538381615368565b82525050565b600060208201905061539e600083018461537a565b92915050565b60008060008060008060006080888a0312156153c3576153c2614c63565b5b60006153d18a828b01614cb6565b975050602088013567ffffffffffffffff8111156153f2576153f1614c68565b5b6153fe8a828b01614cda565b9650965050604088013567ffffffffffffffff81111561542157615420614c68565b5b61542d8a828b01614cda565b9450945050606088013567ffffffffffffffff8111156154505761544f614c68565b5b61545c8a828b01614cda565b925092505092959891949750929550565b61547681614c8d565b82525050565b6000602082019050615491600083018461546d565b92915050565b60008083601f8401126154ad576154ac614ccb565b5b8235905067ffffffffffffffff8111156154ca576154c9614cd0565b5b6020830191508360208202830111156154e6576154e5614cd5565b5b9250929050565b6000806000806000806060878903121561550a57615509614c63565b5b600087013567ffffffffffffffff81111561552857615527614c68565b5b61553489828a01614cda565b9650965050602087013567ffffffffffffffff81111561555757615556614c68565b5b61556389828a01615497565b9450945050604087013567ffffffffffffffff81111561558657615585614c68565b5b61559289828a01615497565b92509250509295509295509295565b6000806000604084860312156155ba576155b9614c63565b5b60006155c886828701614cb6565b935050602084013567ffffffffffffffff8111156155e9576155e8614c68565b5b6155f586828701614cda565b92509250509250925092565b6000806000806040858703121561561b5761561a614c63565b5b600085013567ffffffffffffffff81111561563957615638614c68565b5b61564587828801615497565b9450945050602085013567ffffffffffffffff81111561566857615667614c68565b5b61567487828801615497565b925092505092959194509250565b6004811061569357615692615312565b5b50565b60008190506156a482615682565b919050565b60006156b482615696565b9050919050565b6156c4816156a9565b82525050565b60006020820190506156df60008301846156bb565b92915050565b600381106156f6576156f5615312565b5b50565b6000819050615707826156e5565b919050565b6000615717826156f9565b9050919050565b6157278161570c565b82525050565b6000602082019050615742600083018461571e565b92915050565b600081905092915050565b600061575f8385615748565b935061576c838584615020565b82840190509392505050565b6000615785828486615753565b91508190509392505050565b7f4e487b7100000000000000000000000000000000000000000000000000000000600052602260045260246000fd5b600060028204905060018216806157d857607f821691505b6020821081036157eb576157ea615791565b5b50919050565b60006157fc82614e27565b6158068185615748565b9350615816818560208601614e43565b80840191505092915050565b600061582e82846157f1565b915081905092915050565b60008190508160005260206000209050919050565b6000815461585b816157c0565b6158658186615748565b945060018216600081146158805760018114615895576158c8565b60ff19831686528115158202860193506158c8565b61589e85615839565b60005b838110156158c0578154818901526001820191506020810190506158a1565b838801955050505b50505092915050565b60006158dd828461584e565b915081905092915050565b7f436f6c6c65676520496400000000000000000000000000000000000000000000600082015250565b600061591e600a83615748565b9150615929826158e8565b600a82019050919050565b600061593f82615911565b9150819050919050565b60006020601f8301049050919050565b600082821b905092915050565b6000600883026159967fffffffffffffffffffffffffffffffffffffffffffffffffffffffffffffffff82615959565b6159a08683615959565b95508019841693508086168417925050509392505050565b6000819050919050565b6000819050919050565b60006159e76159e26159dd846159b8565b6159c2565b6159b8565b9050919050565b6000819050919050565b615a01836159cc565b615a15615a0d826159ee565b848454615966565b825550505050565b600090565b615a2a615a1d565b615a358184846159f8565b505050565b5b81811015615a5957615a4e600082615a22565b600181019050615a3b565b5050565b601f821115615a9e57615a6f81615839565b615a7884615949565b81016020851015615a87578190505b615a9b615a9385615949565b830182615a3a565b50505b505050565b600082821c905092915050565b6000615ac160001984600802615aa3565b1980831691505092915050565b6000615ada8383615ab0565b9150826002028217905092915050565b615af382614e27565b67ffffffffffffffff811115615b0c57615b0b614f74565b5b615b1682546157c0565b615b21828285615a5d565b600060209050601f831160018114615b545760008415615b42578287015190505b615b4c8582615ace565b865550615bb4565b601f198416615b6286615839565b60005b82811015615b8a57848901518255600182019150602085019450602081019050615b65565b86831015615ba75784890151615ba3601f891682615ab0565b8355505b6001600288020188555050505b505050505050565b7f4e487b7100000000000000000000000000000000000000000000000000000000600052603260045260246000fd5b600080fd5b600080fd5b600080fd5b60008083356001602003843603038112615c1757615c16615beb565b5b80840192508235915067ffffffffffffffff821115615c3957615c38615bf0565b5b602083019250600182023603831315615c5557615c54615bf5565b5b509250929050565b7f4e487b7100000000000000000000000000000000000000000000000000000000600052601160045260246000fd5b6000615c97826159b8565b91507fffffffffffffffffffffffffffffffffffffffffffffffffffffffffffffffff8203615cc957615cc8615c5d565b5b600182019050919050565b600082905092915050565b615ce98383615cd4565b67ffffffffffffffff811115615d0257615d01614f74565b5b615d0c82546157c0565b615d17828285615a5d565b6000601f831160018114615d465760008415615d34578287013590505b615d3e8582615ace565b865550615da6565b601f198416615d5486615839565b60005b82811015615d7c57848901358255600182019150602085019450602081019050615d57565b86831015615d995784890135615d95601f891682615ab0565b8355505b6001600288020188555050505b50505050505050565b60008160601b9050919050565b6000615dc782615daf565b9050919050565b6000615dd982615dbc565b9050919050565b615df1615dec82614c8d565b615dce565b82525050565b6000819050919050565b615e12615e0d826159b8565b615df7565b82525050565b6000615e248286615de0565b601482019150615e348285615e01565b602082019150615e448284615e01565b602082019150819050949350505050565b6000615e60826159b8565b9150615e6b836159b8565b9250828202615e79816159b8565b91508282048414831517615e9057615e8f615c5d565b5b5092915050565b6000615ea2826159b8565b9150615ead836159b8565b9250828201905080821115615ec557615ec4615c5d565b5b92915050565b6000615ed6826159b8565b915060008203615ee957615ee8615c5d565b5b600182039050919050565b7f537472696e67733a20686578206c656e67746820696e73756666696369656e74600082015250565b6000615f2a602083615225565b9150615f3582615ef4565b602082019050919050565b60006020820190508181036000830152615f5981615f1d565b905091905056fea264697066735822122044d9d5446082ae42747c1caeccbbe412a6d24c345e1b2ddf2a18538e5b0c7a3064736f6c63430008110033","opcodes":"PUSH1 0x80 PUSH1 0x40 MSTORE CALLVALUE DUP1 ISZERO PUSH2 0x10 JUMPI PUSH1 0x0 DUP1 REVERT JUMPDEST POP CALLER PUSH1 0x0 DUP1 PUSH2 0x100 EXP DUP2 SLOAD DUP2 PUSH20 0xFFFFFFFFFFFFFFFFFFFFFFFFFFFFFFFFFFFFFFFF MUL NOT AND SWAP1 DUP4 PUSH20 0xFFFFFFFFFFFFFFFFFFFFFFFFFFFFFFFFFFFFFFFF AND MUL OR SWAP1 SSTORE POP PUSH2 0x5F96 DUP1 PUSH3 0x61 PUSH1 0x0 CODECOPY PUSH1 0x0 RETURN INVALID PUSH1 0x80 PUSH1 0x40 MSTORE CALLVALUE DUP1 ISZERO PUSH2 0x10 JUMPI PUSH1 0x0 DUP1 REVERT JUMPDEST POP PUSH1 0x4 CALLDATASIZE LT PUSH2 0x18E JUMPI PUSH1 0x0 CALLDATALOAD PUSH1 0xE0 SHR DUP1 PUSH4 0x90BFF258 GT PUSH2 0xDE JUMPI DUP1 PUSH4 0xB4A9F2C4 GT PUSH2 0x97 JUMPI DUP1 PUSH4 0xCE54123D GT PUSH2 0x71 JUMPI DUP1 PUSH4 0xCE54123D EQ PUSH2 0x4A5 JUMPI DUP1 PUSH4 0xEA055796 EQ PUSH2 0x4D5 JUMPI DUP1 PUSH4 0xF18B1781 EQ PUSH2 0x505 JUMPI DUP1 PUSH4 0xF42867A5 EQ PUSH2 0x521 JUMPI PUSH2 0x18E JUMP JUMPDEST DUP1 PUSH4 0xB4A9F2C4 EQ PUSH2 0x43D JUMPI DUP1 PUSH4 0xBC1829F8 EQ PUSH2 0x459 JUMPI DUP1 PUSH4 0xC2D8EEF3 EQ PUSH2 0x489 JUMPI PUSH2 0x18E JUMP JUMPDEST DUP1 PUSH4 0x90BFF258 EQ PUSH2 0x36D JUMPI DUP1 PUSH4 0x95A6BA22 EQ PUSH2 0x389 JUMPI DUP1 PUSH4 0x9A645856 EQ PUSH2 0x3A5 JUMPI DUP1 PUSH4 0x9BE977D6 EQ PUSH2 0x3D5 JUMPI DUP1 PUSH4 0xA7ED6E41 EQ PUSH2 0x3F1 JUMPI DUP1 PUSH4 0xA83CF342 EQ PUSH2 0x421 JUMPI PUSH2 0x18E JUMP JUMPDEST DUP1 PUSH4 0x62893B13 GT PUSH2 0x14B JUMPI DUP1 PUSH4 0x7F3E1E82 GT PUSH2 0x125 JUMPI DUP1 PUSH4 0x7F3E1E82 EQ PUSH2 0x2F9 JUMPI DUP1 PUSH4 0x85C5989E EQ PUSH2 0x315 JUMPI DUP1 PUSH4 0x88C045E2 EQ PUSH2 0x331 JUMPI DUP1 PUSH4 0x893D20E8 EQ PUSH2 0x34F JUMPI PUSH2 0x18E JUMP JUMPDEST DUP1 PUSH4 0x62893B13 EQ PUSH2 0x27B JUMPI DUP1 PUSH4 0x75D0B932 EQ PUSH2 0x2AB JUMPI DUP1 PUSH4 0x7BB312FD EQ PUSH2 0x2DB JUMPI PUSH2 0x18E JUMP JUMPDEST DUP1 PUSH4 0x147AABD EQ PUSH2 0x193 JUMPI DUP1 PUSH4 0x1ABF4112 EQ PUSH2 0x1C3 JUMPI DUP1 PUSH4 0x28FD6AE1 EQ PUSH2 0x1E1 JUMPI DUP1 PUSH4 0x3D9C5434 EQ PUSH2 0x211 JUMPI DUP1 PUSH4 0x3E6835B4 EQ PUSH2 0x22D JUMPI DUP1 PUSH4 0x53EF780E EQ PUSH2 0x25D JUMPI JUMPDEST PUSH1 0x0 DUP1 REVERT JUMPDEST PUSH2 0x1AD PUSH1 0x4 DUP1 CALLDATASIZE SUB DUP2 ADD SWAP1 PUSH2 0x1A8 SWAP2 SWAP1 PUSH2 0x4D30 JUMP JUMPDEST PUSH2 0x53D JUMP JUMPDEST PUSH1 0x40 MLOAD PUSH2 0x1BA SWAP2 SWAP1 PUSH2 0x4DE0 JUMP JUMPDEST PUSH1 0x40 MLOAD DUP1 SWAP2 SUB SWAP1 RETURN JUMPDEST PUSH2 0x1CB PUSH2 0x5D3 JUMP JUMPDEST PUSH1 0x40 MLOAD PUSH2 0x1D8 SWAP2 SWAP1 PUSH2 0x4F4D JUMP JUMPDEST PUSH1 0x40 MLOAD DUP1 SWAP2 SUB SWAP1 RETURN JUMPDEST PUSH2 0x1FB PUSH1 0x4 DUP1 CALLDATASIZE SUB DUP2 ADD SWAP1 PUSH2 0x1F6 SWAP2 SWAP1 PUSH2 0x509F JUMP JUMPDEST PUSH2 0x8E5 JUMP JUMPDEST PUSH1 0x40 MLOAD PUSH2 0x208 SWAP2 SWAP1 PUSH2 0x4DE0 JUMP JUMPDEST PUSH1 0x40 MLOAD DUP1 SWAP2 SUB SWAP1 RETURN JUMPDEST PUSH2 0x22B PUSH1 0x4 DUP1 CALLDATASIZE SUB DUP2 ADD SWAP1 PUSH2 0x226 SWAP2 SWAP1 PUSH2 0x5117 JUMP JUMPDEST PUSH2 0x937 JUMP JUMPDEST STOP JUMPDEST PUSH2 0x247 PUSH1 0x4 DUP1 CALLDATASIZE SUB DUP2 ADD SWAP1 PUSH2 0x242 SWAP2 SWAP1 PUSH2 0x5190 JUMP JUMPDEST PUSH2 0xB1D JUMP JUMPDEST PUSH1 0x40 MLOAD PUSH2 0x254 SWAP2 SWAP1 PUSH2 0x526F JUMP JUMPDEST PUSH1 0x40 MLOAD DUP1 SWAP2 SUB SWAP1 RETURN JUMPDEST PUSH2 0x265 PUSH2 0x1158 JUMP JUMPDEST PUSH1 0x40 MLOAD PUSH2 0x272 SWAP2 SWAP1 PUSH2 0x526F JUMP JUMPDEST PUSH1 0x40 MLOAD DUP1 SWAP2 SUB SWAP1 RETURN JUMPDEST PUSH2 0x295 PUSH1 0x4 DUP1 CALLDATASIZE SUB DUP2 ADD SWAP1 PUSH2 0x290 SWAP2 SWAP1 PUSH2 0x5291 JUMP JUMPDEST PUSH2 0x1227 JUMP JUMPDEST PUSH1 0x40 MLOAD PUSH2 0x2A2 SWAP2 SWAP1 PUSH2 0x526F JUMP JUMPDEST PUSH1 0x40 MLOAD DUP1 SWAP2 SUB SWAP1 RETURN JUMPDEST PUSH2 0x2C5 PUSH1 0x4 DUP1 CALLDATASIZE SUB DUP2 ADD SWAP1 PUSH2 0x2C0 SWAP2 SWAP1 PUSH2 0x5117 JUMP JUMPDEST PUSH2 0x1444 JUMP JUMPDEST PUSH1 0x40 MLOAD PUSH2 0x2D2 SWAP2 SWAP1 PUSH2 0x5389 JUMP JUMPDEST PUSH1 0x40 MLOAD DUP1 SWAP2 SUB SWAP1 RETURN JUMPDEST PUSH2 0x2E3 PUSH2 0x147C JUMP JUMPDEST PUSH1 0x40 MLOAD PUSH2 0x2F0 SWAP2 SWAP1 PUSH2 0x526F JUMP JUMPDEST PUSH1 0x40 MLOAD DUP1 SWAP2 SUB SWAP1 RETURN JUMPDEST PUSH2 0x313 PUSH1 0x4 DUP1 CALLDATASIZE SUB DUP2 ADD SWAP1 PUSH2 0x30E SWAP2 SWAP1 PUSH2 0x53A4 JUMP JUMPDEST PUSH2 0x154B JUMP JUMPDEST STOP JUMPDEST PUSH2 0x32F PUSH1 0x4 DUP1 CALLDATASIZE SUB DUP2 ADD SWAP1 PUSH2 0x32A SWAP2 SWAP1 PUSH2 0x5117 JUMP JUMPDEST PUSH2 0x1ABF JUMP JUMPDEST STOP JUMPDEST PUSH2 0x339 PUSH2 0x1C1E JUMP JUMPDEST PUSH1 0x40 MLOAD PUSH2 0x346 SWAP2 SWAP1 PUSH2 0x4F4D JUMP JUMPDEST PUSH1 0x40 MLOAD DUP1 SWAP2 SUB SWAP1 RETURN JUMPDEST PUSH2 0x357 PUSH2 0x1CF7 JUMP JUMPDEST PUSH1 0x40 MLOAD PUSH2 0x364 SWAP2 SWAP1 PUSH2 0x547C JUMP JUMPDEST PUSH1 0x40 MLOAD DUP1 SWAP2 SUB SWAP1 RETURN JUMPDEST PUSH2 0x387 PUSH1 0x4 DUP1 CALLDATASIZE SUB DUP2 ADD SWAP1 PUSH2 0x382 SWAP2 SWAP1 PUSH2 0x54ED JUMP JUMPDEST PUSH2 0x1D20 JUMP JUMPDEST STOP JUMPDEST PUSH2 0x3A3 PUSH1 0x4 DUP1 CALLDATASIZE SUB DUP2 ADD SWAP1 PUSH2 0x39E SWAP2 SWAP1 PUSH2 0x5291 JUMP JUMPDEST PUSH2 0x23D6 JUMP JUMPDEST STOP JUMPDEST PUSH2 0x3BF PUSH1 0x4 DUP1 CALLDATASIZE SUB DUP2 ADD SWAP1 PUSH2 0x3BA SWAP2 SWAP1 PUSH2 0x5291 JUMP JUMPDEST PUSH2 0x27A0 JUMP JUMPDEST PUSH1 0x40 MLOAD PUSH2 0x3CC SWAP2 SWAP1 PUSH2 0x526F JUMP JUMPDEST PUSH1 0x40 MLOAD DUP1 SWAP2 SUB SWAP1 RETURN JUMPDEST PUSH2 0x3EF PUSH1 0x4 DUP1 CALLDATASIZE SUB DUP2 ADD SWAP1 PUSH2 0x3EA SWAP2 SWAP1 PUSH2 0x55A1 JUMP JUMPDEST PUSH2 0x2873 JUMP JUMPDEST STOP JUMPDEST PUSH2 0x40B PUSH1 0x4 DUP1 CALLDATASIZE SUB DUP2 ADD SWAP1 PUSH2 0x406 SWAP2 SWAP1 PUSH2 0x5117 JUMP JUMPDEST PUSH2 0x2B2D JUMP JUMPDEST PUSH1 0x40 MLOAD PUSH2 0x418 SWAP2 SWAP1 PUSH2 0x4F4D JUMP JUMPDEST PUSH1 0x40 MLOAD DUP1 SWAP2 SUB SWAP1 RETURN JUMPDEST PUSH2 0x43B PUSH1 0x4 DUP1 CALLDATASIZE SUB DUP2 ADD SWAP1 PUSH2 0x436 SWAP2 SWAP1 PUSH2 0x5601 JUMP JUMPDEST PUSH2 0x2C27 JUMP JUMPDEST STOP JUMPDEST PUSH2 0x457 PUSH1 0x4 DUP1 CALLDATASIZE SUB DUP2 ADD SWAP1 PUSH2 0x452 SWAP2 SWAP1 PUSH2 0x5291 JUMP JUMPDEST PUSH2 0x3016 JUMP JUMPDEST STOP JUMPDEST PUSH2 0x473 PUSH1 0x4 DUP1 CALLDATASIZE SUB DUP2 ADD SWAP1 PUSH2 0x46E SWAP2 SWAP1 PUSH2 0x5117 JUMP JUMPDEST PUSH2 0x364E JUMP JUMPDEST PUSH1 0x40 MLOAD PUSH2 0x480 SWAP2 SWAP1 PUSH2 0x56CA JUMP JUMPDEST PUSH1 0x40 MLOAD DUP1 SWAP2 SUB SWAP1 RETURN JUMPDEST PUSH2 0x4A3 PUSH1 0x4 DUP1 CALLDATASIZE SUB DUP2 ADD SWAP1 PUSH2 0x49E SWAP2 SWAP1 PUSH2 0x5117 JUMP JUMPDEST PUSH2 0x3686 JUMP JUMPDEST STOP JUMPDEST PUSH2 0x4BF PUSH1 0x4 DUP1 CALLDATASIZE SUB DUP2 ADD SWAP1 PUSH2 0x4BA SWAP2 SWAP1 PUSH2 0x5291 JUMP JUMPDEST PUSH2 0x386E JUMP JUMPDEST PUSH1 0x40 MLOAD PUSH2 0x4CC SWAP2 SWAP1 PUSH2 0x572D JUMP JUMPDEST PUSH1 0x40 MLOAD DUP1 SWAP2 SUB SWAP1 RETURN JUMPDEST PUSH2 0x4EF PUSH1 0x4 DUP1 CALLDATASIZE SUB DUP2 ADD SWAP1 PUSH2 0x4EA SWAP2 SWAP1 PUSH2 0x5117 JUMP JUMPDEST PUSH2 0x3D4D JUMP JUMPDEST PUSH1 0x40 MLOAD PUSH2 0x4FC SWAP2 SWAP1 PUSH2 0x4F4D JUMP JUMPDEST PUSH1 0x40 MLOAD DUP1 SWAP2 SUB SWAP1 RETURN JUMPDEST PUSH2 0x51F PUSH1 0x4 DUP1 CALLDATASIZE SUB DUP2 ADD SWAP1 PUSH2 0x51A SWAP2 SWAP1 PUSH2 0x55A1 JUMP JUMPDEST PUSH2 0x3E47 JUMP JUMPDEST STOP JUMPDEST PUSH2 0x53B PUSH1 0x4 DUP1 CALLDATASIZE SUB DUP2 ADD SWAP1 PUSH2 0x536 SWAP2 SWAP1 PUSH2 0x5190 JUMP JUMPDEST PUSH2 0x4101 JUMP JUMPDEST STOP JUMPDEST PUSH1 0x0 PUSH1 0xE PUSH1 0x0 DUP8 PUSH20 0xFFFFFFFFFFFFFFFFFFFFFFFFFFFFFFFFFFFFFFFF AND PUSH20 0xFFFFFFFFFFFFFFFFFFFFFFFFFFFFFFFFFFFFFFFF AND DUP2 MSTORE PUSH1 0x20 ADD SWAP1 DUP2 MSTORE PUSH1 0x20 ADD PUSH1 0x0 KECCAK256 DUP6 DUP6 PUSH1 0x40 MLOAD PUSH2 0x58E SWAP3 SWAP2 SWAP1 PUSH2 0x5778 JUMP JUMPDEST SWAP1 DUP2 MSTORE PUSH1 0x20 ADD PUSH1 0x40 MLOAD DUP1 SWAP2 SUB SWAP1 KECCAK256 DUP4 DUP4 PUSH1 0x40 MLOAD PUSH2 0x5AC SWAP3 SWAP2 SWAP1 PUSH2 0x5778 JUMP JUMPDEST SWAP1 DUP2 MSTORE PUSH1 0x20 ADD PUSH1 0x40 MLOAD DUP1 SWAP2 SUB SWAP1 KECCAK256 PUSH1 0x0 SWAP1 SLOAD SWAP1 PUSH2 0x100 EXP SWAP1 DIV PUSH1 0xFF AND SWAP1 POP SWAP6 SWAP5 POP POP POP POP POP JUMP JUMPDEST PUSH1 0x60 PUSH1 0x0 PUSH1 0x1 PUSH1 0x0 CALLER PUSH20 0xFFFFFFFFFFFFFFFFFFFFFFFFFFFFFFFFFFFFFFFF AND PUSH20 0xFFFFFFFFFFFFFFFFFFFFFFFFFFFFFFFFFFFFFFFF AND DUP2 MSTORE PUSH1 0x20 ADD SWAP1 DUP2 MSTORE PUSH1 0x20 ADD PUSH1 0x0 KECCAK256 DUP1 SLOAD PUSH2 0x621 SWAP1 PUSH2 0x57C0 JUMP JUMPDEST DUP1 PUSH1 0x1F ADD PUSH1 0x20 DUP1 SWAP2 DIV MUL PUSH1 0x20 ADD PUSH1 0x40 MLOAD SWAP1 DUP2 ADD PUSH1 0x40 MSTORE DUP1 SWAP3 SWAP2 SWAP1 DUP2 DUP2 MSTORE PUSH1 0x20 ADD DUP3 DUP1 SLOAD PUSH2 0x64D SWAP1 PUSH2 0x57C0 JUMP JUMPDEST DUP1 ISZERO PUSH2 0x69A JUMPI DUP1 PUSH1 0x1F LT PUSH2 0x66F JUMPI PUSH2 0x100 DUP1 DUP4 SLOAD DIV MUL DUP4 MSTORE SWAP2 PUSH1 0x20 ADD SWAP2 PUSH2 0x69A JUMP JUMPDEST DUP3 ADD SWAP2 SWAP1 PUSH1 0x0 MSTORE PUSH1 0x20 PUSH1 0x0 KECCAK256 SWAP1 JUMPDEST DUP2 SLOAD DUP2 MSTORE SWAP1 PUSH1 0x1 ADD SWAP1 PUSH1 0x20 ADD DUP1 DUP4 GT PUSH2 0x67D JUMPI DUP3 SWAP1 SUB PUSH1 0x1F AND DUP3 ADD SWAP2 JUMPDEST POP POP POP POP POP SWAP1 POP PUSH1 0x0 PUSH1 0x3 DUP2 GT ISZERO PUSH2 0x6B5 JUMPI PUSH2 0x6B4 PUSH2 0x5312 JUMP JUMPDEST JUMPDEST PUSH1 0x3 DUP3 PUSH1 0x40 MLOAD PUSH2 0x6C5 SWAP2 SWAP1 PUSH2 0x5822 JUMP JUMPDEST SWAP1 DUP2 MSTORE PUSH1 0x20 ADD PUSH1 0x40 MLOAD DUP1 SWAP2 SUB SWAP1 KECCAK256 PUSH1 0x0 SWAP1 SLOAD SWAP1 PUSH2 0x100 EXP SWAP1 DIV PUSH1 0xFF AND PUSH1 0x3 DUP2 GT ISZERO PUSH2 0x6F3 JUMPI PUSH2 0x6F2 PUSH2 0x5312 JUMP JUMPDEST JUMPDEST SUB PUSH2 0x72A JUMPI PUSH1 0x40 MLOAD PUSH32 0x8FA622F500000000000000000000000000000000000000000000000000000000 DUP2 MSTORE PUSH1 0x4 ADD PUSH1 0x40 MLOAD DUP1 SWAP2 SUB SWAP1 REVERT JUMPDEST PUSH1 0x2 PUSH1 0x3 DUP2 GT ISZERO PUSH2 0x73E JUMPI PUSH2 0x73D PUSH2 0x5312 JUMP JUMPDEST JUMPDEST PUSH1 0x3 DUP3 PUSH1 0x40 MLOAD PUSH2 0x74E SWAP2 SWAP1 PUSH2 0x5822 JUMP JUMPDEST SWAP1 DUP2 MSTORE PUSH1 0x20 ADD PUSH1 0x40 MLOAD DUP1 SWAP2 SUB SWAP1 KECCAK256 PUSH1 0x0 SWAP1 SLOAD SWAP1 PUSH2 0x100 EXP SWAP1 DIV PUSH1 0xFF AND PUSH1 0x3 DUP2 GT ISZERO PUSH2 0x77C JUMPI PUSH2 0x77B PUSH2 0x5312 JUMP JUMPDEST JUMPDEST EQ PUSH2 0x7B3 JUMPI PUSH1 0x40 MLOAD PUSH32 0x8AC8E00B00000000000000000000000000000000000000000000000000000000 DUP2 MSTORE PUSH1 0x4 ADD PUSH1 0x40 MLOAD DUP1 SWAP2 SUB SWAP1 REVERT JUMPDEST PUSH1 0x7 PUSH1 0x1 PUSH1 0x0 CALLER PUSH20 0xFFFFFFFFFFFFFFFFFFFFFFFFFFFFFFFFFFFFFFFF AND PUSH20 0xFFFFFFFFFFFFFFFFFFFFFFFFFFFFFFFFFFFFFFFF AND DUP2 MSTORE PUSH1 0x20 ADD SWAP1 DUP2 MSTORE PUSH1 0x20 ADD PUSH1 0x0 KECCAK256 PUSH1 0x40 MLOAD PUSH2 0x801 SWAP2 SWAP1 PUSH2 0x58D1 JUMP JUMPDEST SWAP1 DUP2 MSTORE PUSH1 0x20 ADD PUSH1 0x40 MLOAD DUP1 SWAP2 SUB SWAP1 KECCAK256 DUP1 SLOAD DUP1 PUSH1 0x20 MUL PUSH1 0x20 ADD PUSH1 0x40 MLOAD SWAP1 DUP2 ADD PUSH1 0x40 MSTORE DUP1 SWAP3 SWAP2 SWAP1 DUP2 DUP2 MSTORE PUSH1 0x20 ADD PUSH1 0x0 SWAP1 JUMPDEST DUP3 DUP3 LT ISZERO PUSH2 0x8DB JUMPI DUP4 DUP3 SWAP1 PUSH1 0x0 MSTORE PUSH1 0x20 PUSH1 0x0 KECCAK256 ADD DUP1 SLOAD PUSH2 0x84E SWAP1 PUSH2 0x57C0 JUMP JUMPDEST DUP1 PUSH1 0x1F ADD PUSH1 0x20 DUP1 SWAP2 DIV MUL PUSH1 0x20 ADD PUSH1 0x40 MLOAD SWAP1 DUP2 ADD PUSH1 0x40 MSTORE DUP1 SWAP3 SWAP2 SWAP1 DUP2 DUP2 MSTORE PUSH1 0x20 ADD DUP3 DUP1 SLOAD PUSH2 0x87A SWAP1 PUSH2 0x57C0 JUMP JUMPDEST DUP1 ISZERO PUSH2 0x8C7 JUMPI DUP1 PUSH1 0x1F LT PUSH2 0x89C JUMPI PUSH2 0x100 DUP1 DUP4 SLOAD DIV MUL DUP4 MSTORE SWAP2 PUSH1 0x20 ADD SWAP2 PUSH2 0x8C7 JUMP JUMPDEST DUP3 ADD SWAP2 SWAP1 PUSH1 0x0 MSTORE PUSH1 0x20 PUSH1 0x0 KECCAK256 SWAP1 JUMPDEST DUP2 SLOAD DUP2 MSTORE SWAP1 PUSH1 0x1 ADD SWAP1 PUSH1 0x20 ADD DUP1 DUP4 GT PUSH2 0x8AA JUMPI DUP3 SWAP1 SUB PUSH1 0x1F AND DUP3 ADD SWAP2 JUMPDEST POP POP POP POP POP DUP2 MSTORE PUSH1 0x20 ADD SWAP1 PUSH1 0x1 ADD SWAP1 PUSH2 0x82F JUMP JUMPDEST POP POP POP POP SWAP2 POP POP SWAP1 JUMP JUMPDEST PUSH1 0x0 PUSH1 0xB DUP4 PUSH1 0x40 MLOAD PUSH2 0x8F7 SWAP2 SWAP1 PUSH2 0x5822 JUMP JUMPDEST SWAP1 DUP2 MSTORE PUSH1 0x20 ADD PUSH1 0x40 MLOAD DUP1 SWAP2 SUB SWAP1 KECCAK256 DUP3 PUSH1 0x40 MLOAD PUSH2 0x913 SWAP2 SWAP1 PUSH2 0x5822 JUMP JUMPDEST SWAP1 DUP2 MSTORE PUSH1 0x20 ADD PUSH1 0x40 MLOAD DUP1 SWAP2 SUB SWAP1 KECCAK256 PUSH1 0x0 SWAP1 SLOAD SWAP1 PUSH2 0x100 EXP SWAP1 DIV PUSH1 0xFF AND SWAP1 POP SWAP3 SWAP2 POP POP JUMP JUMPDEST PUSH1 0x0 DUP1 SLOAD SWAP1 PUSH2 0x100 EXP SWAP1 DIV PUSH20 0xFFFFFFFFFFFFFFFFFFFFFFFFFFFFFFFFFFFFFFFF AND PUSH20 0xFFFFFFFFFFFFFFFFFFFFFFFFFFFFFFFFFFFFFFFF AND CALLER PUSH20 0xFFFFFFFFFFFFFFFFFFFFFFFFFFFFFFFFFFFFFFFF AND EQ PUSH2 0x9BC JUMPI PUSH1 0x40 MLOAD PUSH32 0x2DCA963600000000000000000000000000000000000000000000000000000000 DUP2 MSTORE PUSH1 0x4 ADD PUSH1 0x40 MLOAD DUP1 SWAP2 SUB SWAP1 REVERT JUMPDEST PUSH1 0x0 PUSH1 0x3 DUP2 GT ISZERO PUSH2 0x9D0 JUMPI PUSH2 0x9CF PUSH2 0x5312 JUMP JUMPDEST JUMPDEST PUSH1 0x3 DUP4 DUP4 PUSH1 0x40 MLOAD PUSH2 0x9E2 SWAP3 SWAP2 SWAP1 PUSH2 0x5778 JUMP JUMPDEST SWAP1 DUP2 MSTORE PUSH1 0x20 ADD PUSH1 0x40 MLOAD DUP1 SWAP2 SUB SWAP1 KECCAK256 PUSH1 0x0 SWAP1 SLOAD SWAP1 PUSH2 0x100 EXP SWAP1 DIV PUSH1 0xFF AND PUSH1 0x3 DUP2 GT ISZERO PUSH2 0xA10 JUMPI PUSH2 0xA0F PUSH2 0x5312 JUMP JUMPDEST JUMPDEST SUB PUSH2 0xA47 JUMPI PUSH1 0x40 MLOAD PUSH32 0x567E9BE600000000000000000000000000000000000000000000000000000000 DUP2 MSTORE PUSH1 0x4 ADD PUSH1 0x40 MLOAD DUP1 SWAP2 SUB SWAP1 REVERT JUMPDEST PUSH1 0x3 DUP1 DUP2 GT ISZERO PUSH2 0xA5A JUMPI PUSH2 0xA59 PUSH2 0x5312 JUMP JUMPDEST JUMPDEST PUSH1 0x3 DUP4 DUP4 PUSH1 0x40 MLOAD PUSH2 0xA6C SWAP3 SWAP2 SWAP1 PUSH2 0x5778 JUMP JUMPDEST SWAP1 DUP2 MSTORE PUSH1 0x20 ADD PUSH1 0x40 MLOAD DUP1 SWAP2 SUB SWAP1 KECCAK256 PUSH1 0x0 SWAP1 SLOAD SWAP1 PUSH2 0x100 EXP SWAP1 DIV PUSH1 0xFF AND PUSH1 0x3 DUP2 GT ISZERO PUSH2 0xA9A JUMPI PUSH2 0xA99 PUSH2 0x5312 JUMP JUMPDEST JUMPDEST SUB PUSH2 0xAD1 JUMPI PUSH1 0x40 MLOAD PUSH32 0x20F935A000000000000000000000000000000000000000000000000000000000 DUP2 MSTORE PUSH1 0x4 ADD PUSH1 0x40 MLOAD DUP1 SWAP2 SUB SWAP1 REVERT JUMPDEST PUSH1 0x3 DUP1 DUP4 DUP4 PUSH1 0x40 MLOAD PUSH2 0xAE4 SWAP3 SWAP2 SWAP1 PUSH2 0x5778 JUMP JUMPDEST SWAP1 DUP2 MSTORE PUSH1 0x20 ADD PUSH1 0x40 MLOAD DUP1 SWAP2 SUB SWAP1 KECCAK256 PUSH1 0x0 PUSH2 0x100 EXP DUP2 SLOAD DUP2 PUSH1 0xFF MUL NOT AND SWAP1 DUP4 PUSH1 0x3 DUP2 GT ISZERO PUSH2 0xB14 JUMPI PUSH2 0xB13 PUSH2 0x5312 JUMP JUMPDEST JUMPDEST MUL OR SWAP1 SSTORE POP POP POP JUMP JUMPDEST PUSH1 0x60 PUSH1 0x0 PUSH1 0x1 PUSH1 0x0 CALLER PUSH20 0xFFFFFFFFFFFFFFFFFFFFFFFFFFFFFFFFFFFFFFFF AND PUSH20 0xFFFFFFFFFFFFFFFFFFFFFFFFFFFFFFFFFFFFFFFF AND DUP2 MSTORE PUSH1 0x20 ADD SWAP1 DUP2 MSTORE PUSH1 0x20 ADD PUSH1 0x0 KECCAK256 DUP1 SLOAD PUSH2 0xB6B SWAP1 PUSH2 0x57C0 JUMP JUMPDEST DUP1 PUSH1 0x1F ADD PUSH1 0x20 DUP1 SWAP2 DIV MUL PUSH1 0x20 ADD PUSH1 0x40 MLOAD SWAP1 DUP2 ADD PUSH1 0x40 MSTORE DUP1 SWAP3 SWAP2 SWAP1 DUP2 DUP2 MSTORE PUSH1 0x20 ADD DUP3 DUP1 SLOAD PUSH2 0xB97 SWAP1 PUSH2 0x57C0 JUMP JUMPDEST DUP1 ISZERO PUSH2 0xBE4 JUMPI DUP1 PUSH1 0x1F LT PUSH2 0xBB9 JUMPI PUSH2 0x100 DUP1 DUP4 SLOAD DIV MUL DUP4 MSTORE SWAP2 PUSH1 0x20 ADD SWAP2 PUSH2 0xBE4 JUMP JUMPDEST DUP3 ADD SWAP2 SWAP1 PUSH1 0x0 MSTORE PUSH1 0x20 PUSH1 0x0 KECCAK256 SWAP1 JUMPDEST DUP2 SLOAD DUP2 MSTORE SWAP1 PUSH1 0x1 ADD SWAP1 PUSH1 0x20 ADD DUP1 DUP4 GT PUSH2 0xBC7 JUMPI DUP3 SWAP1 SUB PUSH1 0x1F AND DUP3 ADD SWAP2 JUMPDEST POP POP POP POP POP SWAP1 POP PUSH1 0x0 PUSH1 0x3 DUP2 GT ISZERO PUSH2 0xBFF JUMPI PUSH2 0xBFE PUSH2 0x5312 JUMP JUMPDEST JUMPDEST PUSH1 0x3 DUP3 PUSH1 0x40 MLOAD PUSH2 0xC0F SWAP2 SWAP1 PUSH2 0x5822 JUMP JUMPDEST SWAP1 DUP2 MSTORE PUSH1 0x20 ADD PUSH1 0x40 MLOAD DUP1 SWAP2 SUB SWAP1 KECCAK256 PUSH1 0x0 SWAP1 SLOAD SWAP1 PUSH2 0x100 EXP SWAP1 DIV PUSH1 0xFF AND PUSH1 0x3 DUP2 GT ISZERO PUSH2 0xC3D JUMPI PUSH2 0xC3C PUSH2 0x5312 JUMP JUMPDEST JUMPDEST SUB PUSH2 0xC74 JUMPI PUSH1 0x40 MLOAD PUSH32 0x8FA622F500000000000000000000000000000000000000000000000000000000 DUP2 MSTORE PUSH1 0x4 ADD PUSH1 0x40 MLOAD DUP1 SWAP2 SUB SWAP1 REVERT JUMPDEST PUSH1 0x2 PUSH1 0x3 DUP2 GT ISZERO PUSH2 0xC88 JUMPI PUSH2 0xC87 PUSH2 0x5312 JUMP JUMPDEST JUMPDEST PUSH1 0x3 DUP3 PUSH1 0x40 MLOAD PUSH2 0xC98 SWAP2 SWAP1 PUSH2 0x5822 JUMP JUMPDEST SWAP1 DUP2 MSTORE PUSH1 0x20 ADD PUSH1 0x40 MLOAD DUP1 SWAP2 SUB SWAP1 KECCAK256 PUSH1 0x0 SWAP1 SLOAD SWAP1 PUSH2 0x100 EXP SWAP1 DIV PUSH1 0xFF AND PUSH1 0x3 DUP2 GT ISZERO PUSH2 0xCC6 JUMPI PUSH2 0xCC5 PUSH2 0x5312 JUMP JUMPDEST JUMPDEST EQ PUSH2 0xCFD JUMPI PUSH1 0x40 MLOAD PUSH32 0x8AC8E00B00000000000000000000000000000000000000000000000000000000 DUP2 MSTORE PUSH1 0x4 ADD PUSH1 0x40 MLOAD DUP1 SWAP2 SUB SWAP1 REVERT JUMPDEST DUP7 DUP7 PUSH1 0x0 PUSH1 0x1 DUP2 GT ISZERO PUSH2 0xD13 JUMPI PUSH2 0xD12 PUSH2 0x5312 JUMP JUMPDEST JUMPDEST PUSH1 0x8 DUP4 DUP4 PUSH1 0x40 MLOAD PUSH2 0xD25 SWAP3 SWAP2 SWAP1 PUSH2 0x5778 JUMP JUMPDEST SWAP1 DUP2 MSTORE PUSH1 0x20 ADD PUSH1 0x40 MLOAD DUP1 SWAP2 SUB SWAP1 KECCAK256 PUSH1 0x0 SWAP1 SLOAD SWAP1 PUSH2 0x100 EXP SWAP1 DIV PUSH1 0xFF AND PUSH1 0x1 DUP2 GT ISZERO PUSH2 0xD53 JUMPI PUSH2 0xD52 PUSH2 0x5312 JUMP JUMPDEST JUMPDEST SUB PUSH2 0xD8A JUMPI PUSH1 0x40 MLOAD PUSH32 0x78DE8BF00000000000000000000000000000000000000000000000000000000 DUP2 MSTORE PUSH1 0x4 ADD PUSH1 0x40 MLOAD DUP1 SWAP2 SUB SWAP1 REVERT JUMPDEST PUSH1 0x0 PUSH1 0x1 PUSH1 0x0 CALLER PUSH20 0xFFFFFFFFFFFFFFFFFFFFFFFFFFFFFFFFFFFFFFFF AND PUSH20 0xFFFFFFFFFFFFFFFFFFFFFFFFFFFFFFFFFFFFFFFF AND DUP2 MSTORE PUSH1 0x20 ADD SWAP1 DUP2 MSTORE PUSH1 0x20 ADD PUSH1 0x0 KECCAK256 DUP1 SLOAD PUSH2 0xDD6 SWAP1 PUSH2 0x57C0 JUMP JUMPDEST DUP1 PUSH1 0x1F ADD PUSH1 0x20 DUP1 SWAP2 DIV MUL PUSH1 0x20 ADD PUSH1 0x40 MLOAD SWAP1 DUP2 ADD PUSH1 0x40 MSTORE DUP1 SWAP3 SWAP2 SWAP1 DUP2 DUP2 MSTORE PUSH1 0x20 ADD DUP3 DUP1 SLOAD PUSH2 0xE02 SWAP1 PUSH2 0x57C0 JUMP JUMPDEST DUP1 ISZERO PUSH2 0xE4F JUMPI DUP1 PUSH1 0x1F LT PUSH2 0xE24 JUMPI PUSH2 0x100 DUP1 DUP4 SLOAD DIV MUL DUP4 MSTORE SWAP2 PUSH1 0x20 ADD SWAP2 PUSH2 0xE4F JUMP JUMPDEST DUP3 ADD SWAP2 SWAP1 PUSH1 0x0 MSTORE PUSH1 0x20 PUSH1 0x0 KECCAK256 SWAP1 JUMPDEST DUP2 SLOAD DUP2 MSTORE SWAP1 PUSH1 0x1 ADD SWAP1 PUSH1 0x20 ADD DUP1 DUP4 GT PUSH2 0xE32 JUMPI DUP3 SWAP1 SUB PUSH1 0x1F AND DUP3 ADD SWAP2 JUMPDEST POP POP POP POP POP SWAP1 POP PUSH1 0x0 PUSH1 0x9 DUP5 DUP5 PUSH1 0x40 MLOAD PUSH2 0xE6A SWAP3 SWAP2 SWAP1 PUSH2 0x5778 JUMP JUMPDEST SWAP1 DUP2 MSTORE PUSH1 0x20 ADD PUSH1 0x40 MLOAD DUP1 SWAP2 SUB SWAP1 KECCAK256 PUSH1 0x40 MLOAD PUSH2 0xE84 SWAP1 PUSH2 0x5934 JUMP JUMPDEST SWAP1 DUP2 MSTORE PUSH1 0x20 ADD PUSH1 0x40 MLOAD DUP1 SWAP2 SUB SWAP1 KECCAK256 DUP1 SLOAD PUSH2 0xE9D SWAP1 PUSH2 0x57C0 JUMP JUMPDEST DUP1 PUSH1 0x1F ADD PUSH1 0x20 DUP1 SWAP2 DIV MUL PUSH1 0x20 ADD PUSH1 0x40 MLOAD SWAP1 DUP2 ADD PUSH1 0x40 MSTORE DUP1 SWAP3 SWAP2 SWAP1 DUP2 DUP2 MSTORE PUSH1 0x20 ADD DUP3 DUP1 SLOAD PUSH2 0xEC9 SWAP1 PUSH2 0x57C0 JUMP JUMPDEST DUP1 ISZERO PUSH2 0xF16 JUMPI DUP1 PUSH1 0x1F LT PUSH2 0xEEB JUMPI PUSH2 0x100 DUP1 DUP4 SLOAD DIV MUL DUP4 MSTORE SWAP2 PUSH1 0x20 ADD SWAP2 PUSH2 0xF16 JUMP JUMPDEST DUP3 ADD SWAP2 SWAP1 PUSH1 0x0 MSTORE PUSH1 0x20 PUSH1 0x0 KECCAK256 SWAP1 JUMPDEST DUP2 SLOAD DUP2 MSTORE SWAP1 PUSH1 0x1 ADD SWAP1 PUSH1 0x20 ADD DUP1 DUP4 GT PUSH2 0xEF9 JUMPI DUP3 SWAP1 SUB PUSH1 0x1F AND DUP3 ADD SWAP2 JUMPDEST POP POP POP POP POP SWAP1 POP DUP1 PUSH1 0x40 MLOAD PUSH1 0x20 ADD PUSH2 0xF2E SWAP2 SWAP1 PUSH2 0x5822 JUMP JUMPDEST PUSH1 0x40 MLOAD PUSH1 0x20 DUP2 DUP4 SUB SUB DUP2 MSTORE SWAP1 PUSH1 0x40 MSTORE DUP1 MLOAD SWAP1 PUSH1 0x20 ADD KECCAK256 DUP3 PUSH1 0x40 MLOAD PUSH1 0x20 ADD PUSH2 0xF55 SWAP2 SWAP1 PUSH2 0x5822 JUMP JUMPDEST PUSH1 0x40 MLOAD PUSH1 0x20 DUP2 DUP4 SUB SUB DUP2 MSTORE SWAP1 PUSH1 0x40 MSTORE DUP1 MLOAD SWAP1 PUSH1 0x20 ADD KECCAK256 EQ PUSH2 0xFA2 JUMPI PUSH1 0x40 MLOAD PUSH32 0xCA7B7FB200000000000000000000000000000000000000000000000000000000 DUP2 MSTORE PUSH1 0x4 ADD PUSH1 0x40 MLOAD DUP1 SWAP2 SUB SWAP1 REVERT JUMPDEST DUP7 ISZERO PUSH2 0x1076 JUMPI PUSH1 0x9 DUP12 DUP12 PUSH1 0x40 MLOAD PUSH2 0xFBA SWAP3 SWAP2 SWAP1 PUSH2 0x5778 JUMP JUMPDEST SWAP1 DUP2 MSTORE PUSH1 0x20 ADD PUSH1 0x40 MLOAD DUP1 SWAP2 SUB SWAP1 KECCAK256 DUP10 DUP10 PUSH1 0x40 MLOAD PUSH2 0xFD8 SWAP3 SWAP2 SWAP1 PUSH2 0x5778 JUMP JUMPDEST SWAP1 DUP2 MSTORE PUSH1 0x20 ADD PUSH1 0x40 MLOAD DUP1 SWAP2 SUB SWAP1 KECCAK256 DUP1 SLOAD PUSH2 0xFF1 SWAP1 PUSH2 0x57C0 JUMP JUMPDEST DUP1 PUSH1 0x1F ADD PUSH1 0x20 DUP1 SWAP2 DIV MUL PUSH1 0x20 ADD PUSH1 0x40 MLOAD SWAP1 DUP2 ADD PUSH1 0x40 MSTORE DUP1 SWAP3 SWAP2 SWAP1 DUP2 DUP2 MSTORE PUSH1 0x20 ADD DUP3 DUP1 SLOAD PUSH2 0x101D SWAP1 PUSH2 0x57C0 JUMP JUMPDEST DUP1 ISZERO PUSH2 0x106A JUMPI DUP1 PUSH1 0x1F LT PUSH2 0x103F JUMPI PUSH2 0x100 DUP1 DUP4 SLOAD DIV MUL DUP4 MSTORE SWAP2 PUSH1 0x20 ADD SWAP2 PUSH2 0x106A JUMP JUMPDEST DUP3 ADD SWAP2 SWAP1 PUSH1 0x0 MSTORE PUSH1 0x20 PUSH1 0x0 KECCAK256 SWAP1 JUMPDEST DUP2 SLOAD DUP2 MSTORE SWAP1 PUSH1 0x1 ADD SWAP1 PUSH1 0x20 ADD DUP1 DUP4 GT PUSH2 0x104D JUMPI DUP3 SWAP1 SUB PUSH1 0x1F AND DUP3 ADD SWAP2 JUMPDEST POP POP POP POP POP SWAP6 POP PUSH2 0x114A JUMP JUMPDEST DUP7 PUSH2 0x1149 JUMPI PUSH1 0xD DUP12 DUP12 PUSH1 0x40 MLOAD PUSH2 0x108D SWAP3 SWAP2 SWAP1 PUSH2 0x5778 JUMP JUMPDEST SWAP1 DUP2 MSTORE PUSH1 0x20 ADD PUSH1 0x40 MLOAD DUP1 SWAP2 SUB SWAP1 KECCAK256 DUP10 DUP10 PUSH1 0x40 MLOAD PUSH2 0x10AB SWAP3 SWAP2 SWAP1 PUSH2 0x5778 JUMP JUMPDEST SWAP1 DUP2 MSTORE PUSH1 0x20 ADD PUSH1 0x40 MLOAD DUP1 SWAP2 SUB SWAP1 KECCAK256 DUP1 SLOAD PUSH2 0x10C4 SWAP1 PUSH2 0x57C0 JUMP JUMPDEST DUP1 PUSH1 0x1F ADD PUSH1 0x20 DUP1 SWAP2 DIV MUL PUSH1 0x20 ADD PUSH1 0x40 MLOAD SWAP1 DUP2 ADD PUSH1 0x40 MSTORE DUP1 SWAP3 SWAP2 SWAP1 DUP2 DUP2 MSTORE PUSH1 0x20 ADD DUP3 DUP1 SLOAD PUSH2 0x10F0 SWAP1 PUSH2 0x57C0 JUMP JUMPDEST DUP1 ISZERO PUSH2 0x113D JUMPI DUP1 PUSH1 0x1F LT PUSH2 0x1112 JUMPI PUSH2 0x100 DUP1 DUP4 SLOAD DIV MUL DUP4 MSTORE SWAP2 PUSH1 0x20 ADD SWAP2 PUSH2 0x113D JUMP JUMPDEST DUP3 ADD SWAP2 SWAP1 PUSH1 0x0 MSTORE PUSH1 0x20 PUSH1 0x0 KECCAK256 SWAP1 JUMPDEST DUP2 SLOAD DUP2 MSTORE SWAP1 PUSH1 0x1 ADD SWAP1 PUSH1 0x20 ADD DUP1 DUP4 GT PUSH2 0x1120 JUMPI DUP3 SWAP1 SUB PUSH1 0x1F AND DUP3 ADD SWAP2 JUMPDEST POP POP POP POP POP SWAP6 POP PUSH2 0x114A JUMP JUMPDEST JUMPDEST POP POP POP POP POP SWAP6 SWAP5 POP POP POP POP POP JUMP JUMPDEST PUSH1 0x60 PUSH1 0x6 PUSH1 0x0 CALLER PUSH20 0xFFFFFFFFFFFFFFFFFFFFFFFFFFFFFFFFFFFFFFFF AND PUSH20 0xFFFFFFFFFFFFFFFFFFFFFFFFFFFFFFFFFFFFFFFF AND DUP2 MSTORE PUSH1 0x20 ADD SWAP1 DUP2 MSTORE PUSH1 0x20 ADD PUSH1 0x0 KECCAK256 DUP1 SLOAD PUSH2 0x11A4 SWAP1 PUSH2 0x57C0 JUMP JUMPDEST DUP1 PUSH1 0x1F ADD PUSH1 0x20 DUP1 SWAP2 DIV MUL PUSH1 0x20 ADD PUSH1 0x40 MLOAD SWAP1 DUP2 ADD PUSH1 0x40 MSTORE DUP1 SWAP3 SWAP2 SWAP1 DUP2 DUP2 MSTORE PUSH1 0x20 ADD DUP3 DUP1 SLOAD PUSH2 0x11D0 SWAP1 PUSH2 0x57C0 JUMP JUMPDEST DUP1 ISZERO PUSH2 0x121D JUMPI DUP1 PUSH1 0x1F LT PUSH2 0x11F2 JUMPI PUSH2 0x100 DUP1 DUP4 SLOAD DIV MUL DUP4 MSTORE SWAP2 PUSH1 0x20 ADD SWAP2 PUSH2 0x121D JUMP JUMPDEST DUP3 ADD SWAP2 SWAP1 PUSH1 0x0 MSTORE PUSH1 0x20 PUSH1 0x0 KECCAK256 SWAP1 JUMPDEST DUP2 SLOAD DUP2 MSTORE SWAP1 PUSH1 0x1 ADD SWAP1 PUSH1 0x20 ADD DUP1 DUP4 GT PUSH2 0x1200 JUMPI DUP3 SWAP1 SUB PUSH1 0x1F AND DUP3 ADD SWAP2 JUMPDEST POP POP POP POP POP SWAP1 POP SWAP1 JUMP JUMPDEST PUSH1 0x60 PUSH1 0x0 PUSH1 0x1 DUP2 GT ISZERO PUSH2 0x123D JUMPI PUSH2 0x123C PUSH2 0x5312 JUMP JUMPDEST JUMPDEST PUSH1 0x8 DUP7 DUP7 PUSH1 0x40 MLOAD PUSH2 0x124F SWAP3 SWAP2 SWAP1 PUSH2 0x5778 JUMP JUMPDEST SWAP1 DUP2 MSTORE PUSH1 0x20 ADD PUSH1 0x40 MLOAD DUP1 SWAP2 SUB SWAP1 KECCAK256 PUSH1 0x0 SWAP1 SLOAD SWAP1 PUSH2 0x100 EXP SWAP1 DIV PUSH1 0xFF AND PUSH1 0x1 DUP2 GT ISZERO PUSH2 0x127D JUMPI PUSH2 0x127C PUSH2 0x5312 JUMP JUMPDEST JUMPDEST SUB PUSH2 0x12B4 JUMPI PUSH1 0x40 MLOAD PUSH32 0x78DE8BF00000000000000000000000000000000000000000000000000000000 DUP2 MSTORE PUSH1 0x4 ADD PUSH1 0x40 MLOAD DUP1 SWAP2 SUB SWAP1 REVERT JUMPDEST PUSH1 0xE PUSH1 0x0 CALLER PUSH20 0xFFFFFFFFFFFFFFFFFFFFFFFFFFFFFFFFFFFFFFFF AND PUSH20 0xFFFFFFFFFFFFFFFFFFFFFFFFFFFFFFFFFFFFFFFF AND DUP2 MSTORE PUSH1 0x20 ADD SWAP1 DUP2 MSTORE PUSH1 0x20 ADD PUSH1 0x0 KECCAK256 DUP6 DUP6 PUSH1 0x40 MLOAD PUSH2 0x1303 SWAP3 SWAP2 SWAP1 PUSH2 0x5778 JUMP JUMPDEST SWAP1 DUP2 MSTORE PUSH1 0x20 ADD PUSH1 0x40 MLOAD DUP1 SWAP2 SUB SWAP1 KECCAK256 DUP4 DUP4 PUSH1 0x40 MLOAD PUSH2 0x1321 SWAP3 SWAP2 SWAP1 PUSH2 0x5778 JUMP JUMPDEST SWAP1 DUP2 MSTORE PUSH1 0x20 ADD PUSH1 0x40 MLOAD DUP1 SWAP2 SUB SWAP1 KECCAK256 PUSH1 0x0 SWAP1 SLOAD SWAP1 PUSH2 0x100 EXP SWAP1 DIV PUSH1 0xFF AND PUSH2 0x1373 JUMPI PUSH1 0x40 MLOAD PUSH32 0x722F899200000000000000000000000000000000000000000000000000000000 DUP2 MSTORE PUSH1 0x4 ADD PUSH1 0x40 MLOAD DUP1 SWAP2 SUB SWAP1 REVERT JUMPDEST PUSH1 0x9 DUP6 DUP6 PUSH1 0x40 MLOAD PUSH2 0x1385 SWAP3 SWAP2 SWAP1 PUSH2 0x5778 JUMP JUMPDEST SWAP1 DUP2 MSTORE PUSH1 0x20 ADD PUSH1 0x40 MLOAD DUP1 SWAP2 SUB SWAP1 KECCAK256 DUP4 DUP4 PUSH1 0x40 MLOAD PUSH2 0x13A3 SWAP3 SWAP2 SWAP1 PUSH2 0x5778 JUMP JUMPDEST SWAP1 DUP2 MSTORE PUSH1 0x20 ADD PUSH1 0x40 MLOAD DUP1 SWAP2 SUB SWAP1 KECCAK256 DUP1 SLOAD PUSH2 0x13BC SWAP1 PUSH2 0x57C0 JUMP JUMPDEST DUP1 PUSH1 0x1F ADD PUSH1 0x20 DUP1 SWAP2 DIV MUL PUSH1 0x20 ADD PUSH1 0x40 MLOAD SWAP1 DUP2 ADD PUSH1 0x40 MSTORE DUP1 SWAP3 SWAP2 SWAP1 DUP2 DUP2 MSTORE PUSH1 0x20 ADD DUP3 DUP1 SLOAD PUSH2 0x13E8 SWAP1 PUSH2 0x57C0 JUMP JUMPDEST DUP1 ISZERO PUSH2 0x1435 JUMPI DUP1 PUSH1 0x1F LT PUSH2 0x140A JUMPI PUSH2 0x100 DUP1 DUP4 SLOAD DIV MUL DUP4 MSTORE SWAP2 PUSH1 0x20 ADD SWAP2 PUSH2 0x1435 JUMP JUMPDEST DUP3 ADD SWAP2 SWAP1 PUSH1 0x0 MSTORE PUSH1 0x20 PUSH1 0x0 KECCAK256 SWAP1 JUMPDEST DUP2 SLOAD DUP2 MSTORE SWAP1 PUSH1 0x1 ADD SWAP1 PUSH1 0x20 ADD DUP1 DUP4 GT PUSH2 0x1418 JUMPI DUP3 SWAP1 SUB PUSH1 0x1F AND DUP3 ADD SWAP2 JUMPDEST POP POP POP POP POP SWAP1 POP SWAP5 SWAP4 POP POP POP POP JUMP JUMPDEST PUSH1 0x0 PUSH1 0x8 DUP4 DUP4 PUSH1 0x40 MLOAD PUSH2 0x1458 SWAP3 SWAP2 SWAP1 PUSH2 0x5778 JUMP JUMPDEST SWAP1 DUP2 MSTORE PUSH1 0x20 ADD PUSH1 0x40 MLOAD DUP1 SWAP2 SUB SWAP1 KECCAK256 PUSH1 0x0 SWAP1 SLOAD SWAP1 PUSH2 0x100 EXP SWAP1 DIV PUSH1 0xFF AND SWAP1 POP SWAP3 SWAP2 POP POP JUMP JUMPDEST PUSH1 0x60 PUSH1 0x1 PUSH1 0x0 CALLER PUSH20 0xFFFFFFFFFFFFFFFFFFFFFFFFFFFFFFFFFFFFFFFF AND PUSH20 0xFFFFFFFFFFFFFFFFFFFFFFFFFFFFFFFFFFFFFFFF AND DUP2 MSTORE PUSH1 0x20 ADD SWAP1 DUP2 MSTORE PUSH1 0x20 ADD PUSH1 0x0 KECCAK256 DUP1 SLOAD PUSH2 0x14C8 SWAP1 PUSH2 0x57C0 JUMP JUMPDEST DUP1 PUSH1 0x1F ADD PUSH1 0x20 DUP1 SWAP2 DIV MUL PUSH1 0x20 ADD PUSH1 0x40 MLOAD SWAP1 DUP2 ADD PUSH1 0x40 MSTORE DUP1 SWAP3 SWAP2 SWAP1 DUP2 DUP2 MSTORE PUSH1 0x20 ADD DUP3 DUP1 SLOAD PUSH2 0x14F4 SWAP1 PUSH2 0x57C0 JUMP JUMPDEST DUP1 ISZERO PUSH2 0x1541 JUMPI DUP1 PUSH1 0x1F LT PUSH2 0x1516 JUMPI PUSH2 0x100 DUP1 DUP4 SLOAD DIV MUL DUP4 MSTORE SWAP2 PUSH1 0x20 ADD SWAP2 PUSH2 0x1541 JUMP JUMPDEST DUP3 ADD SWAP2 SWAP1 PUSH1 0x0 MSTORE PUSH1 0x20 PUSH1 0x0 KECCAK256 SWAP1 JUMPDEST DUP2 SLOAD DUP2 MSTORE SWAP1 PUSH1 0x1 ADD SWAP1 PUSH1 0x20 ADD DUP1 DUP4 GT PUSH2 0x1524 JUMPI DUP3 SWAP1 SUB PUSH1 0x1F AND DUP3 ADD SWAP2 JUMPDEST POP POP POP POP POP SWAP1 POP SWAP1 JUMP JUMPDEST PUSH1 0x0 PUSH1 0x1 PUSH1 0x0 CALLER PUSH20 0xFFFFFFFFFFFFFFFFFFFFFFFFFFFFFFFFFFFFFFFF AND PUSH20 0xFFFFFFFFFFFFFFFFFFFFFFFFFFFFFFFFFFFFFFFF AND DUP2 MSTORE PUSH1 0x20 ADD SWAP1 DUP2 MSTORE PUSH1 0x20 ADD PUSH1 0x0 KECCAK256 DUP1 SLOAD PUSH2 0x1597 SWAP1 PUSH2 0x57C0 JUMP JUMPDEST DUP1 PUSH1 0x1F ADD PUSH1 0x20 DUP1 SWAP2 DIV MUL PUSH1 0x20 ADD PUSH1 0x40 MLOAD SWAP1 DUP2 ADD PUSH1 0x40 MSTORE DUP1 SWAP3 SWAP2 SWAP1 DUP2 DUP2 MSTORE PUSH1 0x20 ADD DUP3 DUP1 SLOAD PUSH2 0x15C3 SWAP1 PUSH2 0x57C0 JUMP JUMPDEST DUP1 ISZERO PUSH2 0x1610 JUMPI DUP1 PUSH1 0x1F LT PUSH2 0x15E5 JUMPI PUSH2 0x100 DUP1 DUP4 SLOAD DIV MUL DUP4 MSTORE SWAP2 PUSH1 0x20 ADD SWAP2 PUSH2 0x1610 JUMP JUMPDEST DUP3 ADD SWAP2 SWAP1 PUSH1 0x0 MSTORE PUSH1 0x20 PUSH1 0x0 KECCAK256 SWAP1 JUMPDEST DUP2 SLOAD DUP2 MSTORE SWAP1 PUSH1 0x1 ADD SWAP1 PUSH1 0x20 ADD DUP1 DUP4 GT PUSH2 0x15F3 JUMPI DUP3 SWAP1 SUB PUSH1 0x1F AND DUP3 ADD SWAP2 JUMPDEST POP POP POP POP POP SWAP1 POP PUSH1 0x0 PUSH1 0x3 DUP2 GT ISZERO PUSH2 0x162B JUMPI PUSH2 0x162A PUSH2 0x5312 JUMP JUMPDEST JUMPDEST PUSH1 0x3 DUP3 PUSH1 0x40 MLOAD PUSH2 0x163B SWAP2 SWAP1 PUSH2 0x5822 JUMP JUMPDEST SWAP1 DUP2 MSTORE PUSH1 0x20 ADD PUSH1 0x40 MLOAD DUP1 SWAP2 SUB SWAP1 KECCAK256 PUSH1 0x0 SWAP1 SLOAD SWAP1 PUSH2 0x100 EXP SWAP1 DIV PUSH1 0xFF AND PUSH1 0x3 DUP2 GT ISZERO PUSH2 0x1669 JUMPI PUSH2 0x1668 PUSH2 0x5312 JUMP JUMPDEST JUMPDEST SUB PUSH2 0x16A0 JUMPI PUSH1 0x40 MLOAD PUSH32 0x8FA622F500000000000000000000000000000000000000000000000000000000 DUP2 MSTORE PUSH1 0x4 ADD PUSH1 0x40 MLOAD DUP1 SWAP2 SUB SWAP1 REVERT JUMPDEST PUSH1 0x2 PUSH1 0x3 DUP2 GT ISZERO PUSH2 0x16B4 JUMPI PUSH2 0x16B3 PUSH2 0x5312 JUMP JUMPDEST JUMPDEST PUSH1 0x3 DUP3 PUSH1 0x40 MLOAD PUSH2 0x16C4 SWAP2 SWAP1 PUSH2 0x5822 JUMP JUMPDEST SWAP1 DUP2 MSTORE PUSH1 0x20 ADD PUSH1 0x40 MLOAD DUP1 SWAP2 SUB SWAP1 KECCAK256 PUSH1 0x0 SWAP1 SLOAD SWAP1 PUSH2 0x100 EXP SWAP1 DIV PUSH1 0xFF AND PUSH1 0x3 DUP2 GT ISZERO PUSH2 0x16F2 JUMPI PUSH2 0x16F1 PUSH2 0x5312 JUMP JUMPDEST JUMPDEST EQ PUSH2 0x1729 JUMPI PUSH1 0x40 MLOAD PUSH32 0x8AC8E00B00000000000000000000000000000000000000000000000000000000 DUP2 MSTORE PUSH1 0x4 ADD PUSH1 0x40 MLOAD DUP1 SWAP2 SUB SWAP1 REVERT JUMPDEST PUSH1 0x0 PUSH1 0x1 PUSH1 0x0 CALLER PUSH20 0xFFFFFFFFFFFFFFFFFFFFFFFFFFFFFFFFFFFFFFFF AND PUSH20 0xFFFFFFFFFFFFFFFFFFFFFFFFFFFFFFFFFFFFFFFF AND DUP2 MSTORE PUSH1 0x20 ADD SWAP1 DUP2 MSTORE PUSH1 0x20 ADD PUSH1 0x0 KECCAK256 DUP1 SLOAD PUSH2 0x1775 SWAP1 PUSH2 0x57C0 JUMP JUMPDEST DUP1 PUSH1 0x1F ADD PUSH1 0x20 DUP1 SWAP2 DIV MUL PUSH1 0x20 ADD PUSH1 0x40 MLOAD SWAP1 DUP2 ADD PUSH1 0x40 MSTORE DUP1 SWAP3 SWAP2 SWAP1 DUP2 DUP2 MSTORE PUSH1 0x20 ADD DUP3 DUP1 SLOAD PUSH2 0x17A1 SWAP1 PUSH2 0x57C0 JUMP JUMPDEST DUP1 ISZERO PUSH2 0x17EE JUMPI DUP1 PUSH1 0x1F LT PUSH2 0x17C3 JUMPI PUSH2 0x100 DUP1 DUP4 SLOAD DIV MUL DUP4 MSTORE SWAP2 PUSH1 0x20 ADD SWAP2 PUSH2 0x17EE JUMP JUMPDEST DUP3 ADD SWAP2 SWAP1 PUSH1 0x0 MSTORE PUSH1 0x20 PUSH1 0x0 KECCAK256 SWAP1 JUMPDEST DUP2 SLOAD DUP2 MSTORE SWAP1 PUSH1 0x1 ADD SWAP1 PUSH1 0x20 ADD DUP1 DUP4 GT PUSH2 0x17D1 JUMPI DUP3 SWAP1 SUB PUSH1 0x1F AND DUP3 ADD SWAP2 JUMPDEST POP POP POP POP POP SWAP1 POP PUSH1 0x0 PUSH2 0x1800 DUP11 PUSH2 0x45E6 JUMP JUMPDEST SWAP1 POP DUP1 PUSH1 0x6 PUSH1 0x0 DUP13 PUSH20 0xFFFFFFFFFFFFFFFFFFFFFFFFFFFFFFFFFFFFFFFF AND PUSH20 0xFFFFFFFFFFFFFFFFFFFFFFFFFFFFFFFFFFFFFFFF AND DUP2 MSTORE PUSH1 0x20 ADD SWAP1 DUP2 MSTORE PUSH1 0x20 ADD PUSH1 0x0 KECCAK256 SWAP1 DUP2 PUSH2 0x184E SWAP2 SWAP1 PUSH2 0x5AEA JUMP JUMPDEST POP PUSH1 0x7 DUP3 PUSH1 0x40 MLOAD PUSH2 0x185F SWAP2 SWAP1 PUSH2 0x5822 JUMP JUMPDEST SWAP1 DUP2 MSTORE PUSH1 0x20 ADD PUSH1 0x40 MLOAD DUP1 SWAP2 SUB SWAP1 KECCAK256 DUP2 SWAP1 DUP1 PUSH1 0x1 DUP2 SLOAD ADD DUP1 DUP3 SSTORE DUP1 SWAP2 POP POP PUSH1 0x1 SWAP1 SUB SWAP1 PUSH1 0x0 MSTORE PUSH1 0x20 PUSH1 0x0 KECCAK256 ADD PUSH1 0x0 SWAP1 SWAP2 SWAP1 SWAP2 SWAP1 SWAP2 POP SWAP1 DUP2 PUSH2 0x189F SWAP2 SWAP1 PUSH2 0x5AEA JUMP JUMPDEST POP PUSH1 0x1 PUSH1 0x8 DUP3 PUSH1 0x40 MLOAD PUSH2 0x18B2 SWAP2 SWAP1 PUSH2 0x5822 JUMP JUMPDEST SWAP1 DUP2 MSTORE PUSH1 0x20 ADD PUSH1 0x40 MLOAD DUP1 SWAP2 SUB SWAP1 KECCAK256 PUSH1 0x0 PUSH2 0x100 EXP DUP2 SLOAD DUP2 PUSH1 0xFF MUL NOT AND SWAP1 DUP4 PUSH1 0x1 DUP2 GT ISZERO PUSH2 0x18E2 JUMPI PUSH2 0x18E1 PUSH2 0x5312 JUMP JUMPDEST JUMPDEST MUL OR SWAP1 SSTORE POP PUSH2 0x1927 DUP2 PUSH1 0x40 MLOAD DUP1 PUSH1 0x40 ADD PUSH1 0x40 MSTORE DUP1 PUSH1 0xA DUP2 MSTORE PUSH1 0x20 ADD PUSH32 0x436F6C6C65676520496400000000000000000000000000000000000000000000 DUP2 MSTORE POP DUP5 PUSH2 0x4625 JUMP JUMPDEST PUSH2 0x19AB DUP2 PUSH1 0x40 MLOAD DUP1 PUSH1 0x40 ADD PUSH1 0x40 MSTORE DUP1 PUSH1 0xC DUP2 MSTORE PUSH1 0x20 ADD PUSH32 0x53747564656E74204E616D650000000000000000000000000000000000000000 DUP2 MSTORE POP DUP12 DUP12 DUP1 DUP1 PUSH1 0x1F ADD PUSH1 0x20 DUP1 SWAP2 DIV MUL PUSH1 0x20 ADD PUSH1 0x40 MLOAD SWAP1 DUP2 ADD PUSH1 0x40 MSTORE DUP1 SWAP4 SWAP3 SWAP2 SWAP1 DUP2 DUP2 MSTORE PUSH1 0x20 ADD DUP4 DUP4 DUP1 DUP3 DUP5 CALLDATACOPY PUSH1 0x0 DUP2 DUP5 ADD MSTORE PUSH1 0x1F NOT PUSH1 0x1F DUP3 ADD AND SWAP1 POP DUP1 DUP4 ADD SWAP3 POP POP POP POP POP POP POP PUSH2 0x4625 JUMP JUMPDEST PUSH2 0x1A2F DUP2 PUSH1 0x40 MLOAD DUP1 PUSH1 0x40 ADD PUSH1 0x40 MSTORE DUP1 PUSH1 0xB DUP2 MSTORE PUSH1 0x20 ADD PUSH32 0x53747564656E7420416765000000000000000000000000000000000000000000 DUP2 MSTORE POP DUP10 DUP10 DUP1 DUP1 PUSH1 0x1F ADD PUSH1 0x20 DUP1 SWAP2 DIV MUL PUSH1 0x20 ADD PUSH1 0x40 MLOAD SWAP1 DUP2 ADD PUSH1 0x40 MSTORE DUP1 SWAP4 SWAP3 SWAP2 SWAP1 DUP2 DUP2 MSTORE PUSH1 0x20 ADD DUP4 DUP4 DUP1 DUP3 DUP5 CALLDATACOPY PUSH1 0x0 DUP2 DUP5 ADD MSTORE PUSH1 0x1F NOT PUSH1 0x1F DUP3 ADD AND SWAP1 POP DUP1 DUP4 ADD SWAP3 POP POP POP POP POP POP POP PUSH2 0x4625 JUMP JUMPDEST PUSH2 0x1AB3 DUP2 PUSH1 0x40 MLOAD DUP1 PUSH1 0x40 ADD PUSH1 0x40 MSTORE DUP1 PUSH1 0x12 DUP2 MSTORE PUSH1 0x20 ADD PUSH32 0x53747564656E742050657263656E746167650000000000000000000000000000 DUP2 MSTORE POP DUP8 DUP8 DUP1 DUP1 PUSH1 0x1F ADD PUSH1 0x20 DUP1 SWAP2 DIV MUL PUSH1 0x20 ADD PUSH1 0x40 MLOAD SWAP1 DUP2 ADD PUSH1 0x40 MSTORE DUP1 SWAP4 SWAP3 SWAP2 SWAP1 DUP2 DUP2 MSTORE PUSH1 0x20 ADD DUP4 DUP4 DUP1 DUP3 DUP5 CALLDATACOPY PUSH1 0x0 DUP2 DUP5 ADD MSTORE PUSH1 0x1F NOT PUSH1 0x1F DUP3 ADD AND SWAP1 POP DUP1 DUP4 ADD SWAP3 POP POP POP POP POP POP POP PUSH2 0x4625 JUMP JUMPDEST POP POP POP POP POP POP POP POP POP POP JUMP JUMPDEST PUSH1 0x0 PUSH2 0x1ACA CALLER PUSH2 0x45E6 JUMP JUMPDEST SWAP1 POP DUP1 PUSH1 0x1 PUSH1 0x0 CALLER PUSH20 0xFFFFFFFFFFFFFFFFFFFFFFFFFFFFFFFFFFFFFFFF AND PUSH20 0xFFFFFFFFFFFFFFFFFFFFFFFFFFFFFFFFFFFFFFFF AND DUP2 MSTORE PUSH1 0x20 ADD SWAP1 DUP2 MSTORE PUSH1 0x20 ADD PUSH1 0x0 KECCAK256 SWAP1 DUP2 PUSH2 0x1B18 SWAP2 SWAP1 PUSH2 0x5AEA JUMP JUMPDEST POP PUSH1 0x2 DUP2 SWAP1 DUP1 PUSH1 0x1 DUP2 SLOAD ADD DUP1 DUP3 SSTORE DUP1 SWAP2 POP POP PUSH1 0x1 SWAP1 SUB SWAP1 PUSH1 0x0 MSTORE PUSH1 0x20 PUSH1 0x0 KECCAK256 ADD PUSH1 0x0 SWAP1 SWAP2 SWAP1 SWAP2 SWAP1 SWAP2 POP SWAP1 DUP2 PUSH2 0x1B4D SWAP2 SWAP1 PUSH2 0x5AEA JUMP JUMPDEST POP PUSH1 0x1 PUSH1 0x3 DUP3 PUSH1 0x40 MLOAD PUSH2 0x1B60 SWAP2 SWAP1 PUSH2 0x5822 JUMP JUMPDEST SWAP1 DUP2 MSTORE PUSH1 0x20 ADD PUSH1 0x40 MLOAD DUP1 SWAP2 SUB SWAP1 KECCAK256 PUSH1 0x0 PUSH2 0x100 EXP DUP2 SLOAD DUP2 PUSH1 0xFF MUL NOT AND SWAP1 DUP4 PUSH1 0x3 DUP2 GT ISZERO PUSH2 0x1B90 JUMPI PUSH2 0x1B8F PUSH2 0x5312 JUMP JUMPDEST JUMPDEST MUL OR SWAP1 SSTORE POP PUSH2 0x1C19 DUP2 PUSH1 0x40 MLOAD DUP1 PUSH1 0x40 ADD PUSH1 0x40 MSTORE DUP1 PUSH1 0xC DUP2 MSTORE PUSH1 0x20 ADD PUSH32 0x436F6C6C656765204E616D650000000000000000000000000000000000000000 DUP2 MSTORE POP DUP6 DUP6 DUP1 DUP1 PUSH1 0x1F ADD PUSH1 0x20 DUP1 SWAP2 DIV MUL PUSH1 0x20 ADD PUSH1 0x40 MLOAD SWAP1 DUP2 ADD PUSH1 0x40 MSTORE DUP1 SWAP4 SWAP3 SWAP2 SWAP1 DUP2 DUP2 MSTORE PUSH1 0x20 ADD DUP4 DUP4 DUP1 DUP3 DUP5 CALLDATACOPY PUSH1 0x0 DUP2 DUP5 ADD MSTORE PUSH1 0x1F NOT PUSH1 0x1F DUP3 ADD AND SWAP1 POP DUP1 DUP4 ADD SWAP3 POP POP POP POP POP POP POP PUSH2 0x4795 JUMP JUMPDEST POP POP POP JUMP JUMPDEST PUSH1 0x60 PUSH1 0x2 DUP1 SLOAD DUP1 PUSH1 0x20 MUL PUSH1 0x20 ADD PUSH1 0x40 MLOAD SWAP1 DUP2 ADD PUSH1 0x40 MSTORE DUP1 SWAP3 SWAP2 SWAP1 DUP2 DUP2 MSTORE PUSH1 0x20 ADD PUSH1 0x0 SWAP1 JUMPDEST DUP3 DUP3 LT ISZERO PUSH2 0x1CEE JUMPI DUP4 DUP3 SWAP1 PUSH1 0x0 MSTORE PUSH1 0x20 PUSH1 0x0 KECCAK256 ADD DUP1 SLOAD PUSH2 0x1C61 SWAP1 PUSH2 0x57C0 JUMP JUMPDEST DUP1 PUSH1 0x1F ADD PUSH1 0x20 DUP1 SWAP2 DIV MUL PUSH1 0x20 ADD PUSH1 0x40 MLOAD SWAP1 DUP2 ADD PUSH1 0x40 MSTORE DUP1 SWAP3 SWAP2 SWAP1 DUP2 DUP2 MSTORE PUSH1 0x20 ADD DUP3 DUP1 SLOAD PUSH2 0x1C8D SWAP1 PUSH2 0x57C0 JUMP JUMPDEST DUP1 ISZERO PUSH2 0x1CDA JUMPI DUP1 PUSH1 0x1F LT PUSH2 0x1CAF JUMPI PUSH2 0x100 DUP1 DUP4 SLOAD DIV MUL DUP4 MSTORE SWAP2 PUSH1 0x20 ADD SWAP2 PUSH2 0x1CDA JUMP JUMPDEST DUP3 ADD SWAP2 SWAP1 PUSH1 0x0 MSTORE PUSH1 0x20 PUSH1 0x0 KECCAK256 SWAP1 JUMPDEST DUP2 SLOAD DUP2 MSTORE SWAP1 PUSH1 0x1 ADD SWAP1 PUSH1 0x20 ADD DUP1 DUP4 GT PUSH2 0x1CBD JUMPI DUP3 SWAP1 SUB PUSH1 0x1F AND DUP3 ADD SWAP2 JUMPDEST POP POP POP POP POP DUP2 MSTORE PUSH1 0x20 ADD SWAP1 PUSH1 0x1 ADD SWAP1 PUSH2 0x1C42 JUMP JUMPDEST POP POP POP POP SWAP1 POP SWAP1 JUMP JUMPDEST PUSH1 0x0 DUP1 PUSH1 0x0 SWAP1 SLOAD SWAP1 PUSH2 0x100 EXP SWAP1 DIV PUSH20 0xFFFFFFFFFFFFFFFFFFFFFFFFFFFFFFFFFFFFFFFF AND SWAP1 POP SWAP1 JUMP JUMPDEST PUSH1 0x0 PUSH1 0x1 PUSH1 0x0 CALLER PUSH20 0xFFFFFFFFFFFFFFFFFFFFFFFFFFFFFFFFFFFFFFFF AND PUSH20 0xFFFFFFFFFFFFFFFFFFFFFFFFFFFFFFFFFFFFFFFF AND DUP2 MSTORE PUSH1 0x20 ADD SWAP1 DUP2 MSTORE PUSH1 0x20 ADD PUSH1 0x0 KECCAK256 DUP1 SLOAD PUSH2 0x1D6C SWAP1 PUSH2 0x57C0 JUMP JUMPDEST DUP1 PUSH1 0x1F ADD PUSH1 0x20 DUP1 SWAP2 DIV MUL PUSH1 0x20 ADD PUSH1 0x40 MLOAD SWAP1 DUP2 ADD PUSH1 0x40 MSTORE DUP1 SWAP3 SWAP2 SWAP1 DUP2 DUP2 MSTORE PUSH1 0x20 ADD DUP3 DUP1 SLOAD PUSH2 0x1D98 SWAP1 PUSH2 0x57C0 JUMP JUMPDEST DUP1 ISZERO PUSH2 0x1DE5 JUMPI DUP1 PUSH1 0x1F LT PUSH2 0x1DBA JUMPI PUSH2 0x100 DUP1 DUP4 SLOAD DIV MUL DUP4 MSTORE SWAP2 PUSH1 0x20 ADD SWAP2 PUSH2 0x1DE5 JUMP JUMPDEST DUP3 ADD SWAP2 SWAP1 PUSH1 0x0 MSTORE PUSH1 0x20 PUSH1 0x0 KECCAK256 SWAP1 JUMPDEST DUP2 SLOAD DUP2 MSTORE SWAP1 PUSH1 0x1 ADD SWAP1 PUSH1 0x20 ADD DUP1 DUP4 GT PUSH2 0x1DC8 JUMPI DUP3 SWAP1 SUB PUSH1 0x1F AND DUP3 ADD SWAP2 JUMPDEST POP POP POP POP POP SWAP1 POP PUSH1 0x0 PUSH1 0x3 DUP2 GT ISZERO PUSH2 0x1E00 JUMPI PUSH2 0x1DFF PUSH2 0x5312 JUMP JUMPDEST JUMPDEST PUSH1 0x3 DUP3 PUSH1 0x40 MLOAD PUSH2 0x1E10 SWAP2 SWAP1 PUSH2 0x5822 JUMP JUMPDEST SWAP1 DUP2 MSTORE PUSH1 0x20 ADD PUSH1 0x40 MLOAD DUP1 SWAP2 SUB SWAP1 KECCAK256 PUSH1 0x0 SWAP1 SLOAD SWAP1 PUSH2 0x100 EXP SWAP1 DIV PUSH1 0xFF AND PUSH1 0x3 DUP2 GT ISZERO PUSH2 0x1E3E JUMPI PUSH2 0x1E3D PUSH2 0x5312 JUMP JUMPDEST JUMPDEST SUB PUSH2 0x1E75 JUMPI PUSH1 0x40 MLOAD PUSH32 0x8FA622F500000000000000000000000000000000000000000000000000000000 DUP2 MSTORE PUSH1 0x4 ADD PUSH1 0x40 MLOAD DUP1 SWAP2 SUB SWAP1 REVERT JUMPDEST PUSH1 0x2 PUSH1 0x3 DUP2 GT ISZERO PUSH2 0x1E89 JUMPI PUSH2 0x1E88 PUSH2 0x5312 JUMP JUMPDEST JUMPDEST PUSH1 0x3 DUP3 PUSH1 0x40 MLOAD PUSH2 0x1E99 SWAP2 SWAP1 PUSH2 0x5822 JUMP JUMPDEST SWAP1 DUP2 MSTORE PUSH1 0x20 ADD PUSH1 0x40 MLOAD DUP1 SWAP2 SUB SWAP1 KECCAK256 PUSH1 0x0 SWAP1 SLOAD SWAP1 PUSH2 0x100 EXP SWAP1 DIV PUSH1 0xFF AND PUSH1 0x3 DUP2 GT ISZERO PUSH2 0x1EC7 JUMPI PUSH2 0x1EC6 PUSH2 0x5312 JUMP JUMPDEST JUMPDEST EQ PUSH2 0x1EFE JUMPI PUSH1 0x40 MLOAD PUSH32 0x8AC8E00B00000000000000000000000000000000000000000000000000000000 DUP2 MSTORE PUSH1 0x4 ADD PUSH1 0x40 MLOAD DUP1 SWAP2 SUB SWAP1 REVERT JUMPDEST DUP7 DUP7 PUSH1 0x0 PUSH1 0x1 DUP2 GT ISZERO PUSH2 0x1F14 JUMPI PUSH2 0x1F13 PUSH2 0x5312 JUMP JUMPDEST JUMPDEST PUSH1 0x8 DUP4 DUP4 PUSH1 0x40 MLOAD PUSH2 0x1F26 SWAP3 SWAP2 SWAP1 PUSH2 0x5778 JUMP JUMPDEST SWAP1 DUP2 MSTORE PUSH1 0x20 ADD PUSH1 0x40 MLOAD DUP1 SWAP2 SUB SWAP1 KECCAK256 PUSH1 0x0 SWAP1 SLOAD SWAP1 PUSH2 0x100 EXP SWAP1 DIV PUSH1 0xFF AND PUSH1 0x1 DUP2 GT ISZERO PUSH2 0x1F54 JUMPI PUSH2 0x1F53 PUSH2 0x5312 JUMP JUMPDEST JUMPDEST SUB PUSH2 0x1F8B JUMPI PUSH1 0x40 MLOAD PUSH32 0x78DE8BF00000000000000000000000000000000000000000000000000000000 DUP2 MSTORE PUSH1 0x4 ADD PUSH1 0x40 MLOAD DUP1 SWAP2 SUB SWAP1 REVERT JUMPDEST PUSH1 0x0 PUSH1 0x1 PUSH1 0x0 CALLER PUSH20 0xFFFFFFFFFFFFFFFFFFFFFFFFFFFFFFFFFFFFFFFF AND PUSH20 0xFFFFFFFFFFFFFFFFFFFFFFFFFFFFFFFFFFFFFFFF AND DUP2 MSTORE PUSH1 0x20 ADD SWAP1 DUP2 MSTORE PUSH1 0x20 ADD PUSH1 0x0 KECCAK256 DUP1 SLOAD PUSH2 0x1FD7 SWAP1 PUSH2 0x57C0 JUMP JUMPDEST DUP1 PUSH1 0x1F ADD PUSH1 0x20 DUP1 SWAP2 DIV MUL PUSH1 0x20 ADD PUSH1 0x40 MLOAD SWAP1 DUP2 ADD PUSH1 0x40 MSTORE DUP1 SWAP3 SWAP2 SWAP1 DUP2 DUP2 MSTORE PUSH1 0x20 ADD DUP3 DUP1 SLOAD PUSH2 0x2003 SWAP1 PUSH2 0x57C0 JUMP JUMPDEST DUP1 ISZERO PUSH2 0x2050 JUMPI DUP1 PUSH1 0x1F LT PUSH2 0x2025 JUMPI PUSH2 0x100 DUP1 DUP4 SLOAD DIV MUL DUP4 MSTORE SWAP2 PUSH1 0x20 ADD SWAP2 PUSH2 0x2050 JUMP JUMPDEST DUP3 ADD SWAP2 SWAP1 PUSH1 0x0 MSTORE PUSH1 0x20 PUSH1 0x0 KECCAK256 SWAP1 JUMPDEST DUP2 SLOAD DUP2 MSTORE SWAP1 PUSH1 0x1 ADD SWAP1 PUSH1 0x20 ADD DUP1 DUP4 GT PUSH2 0x2033 JUMPI DUP3 SWAP1 SUB PUSH1 0x1F AND DUP3 ADD SWAP2 JUMPDEST POP POP POP POP POP SWAP1 POP PUSH1 0x0 PUSH1 0x9 DUP5 DUP5 PUSH1 0x40 MLOAD PUSH2 0x206B SWAP3 SWAP2 SWAP1 PUSH2 0x5778 JUMP JUMPDEST SWAP1 DUP2 MSTORE PUSH1 0x20 ADD PUSH1 0x40 MLOAD DUP1 SWAP2 SUB SWAP1 KECCAK256 PUSH1 0x40 MLOAD PUSH2 0x2085 SWAP1 PUSH2 0x5934 JUMP JUMPDEST SWAP1 DUP2 MSTORE PUSH1 0x20 ADD PUSH1 0x40 MLOAD DUP1 SWAP2 SUB SWAP1 KECCAK256 DUP1 SLOAD PUSH2 0x209E SWAP1 PUSH2 0x57C0 JUMP JUMPDEST DUP1 PUSH1 0x1F ADD PUSH1 0x20 DUP1 SWAP2 DIV MUL PUSH1 0x20 ADD PUSH1 0x40 MLOAD SWAP1 DUP2 ADD PUSH1 0x40 MSTORE DUP1 SWAP3 SWAP2 SWAP1 DUP2 DUP2 MSTORE PUSH1 0x20 ADD DUP3 DUP1 SLOAD PUSH2 0x20CA SWAP1 PUSH2 0x57C0 JUMP JUMPDEST DUP1 ISZERO PUSH2 0x2117 JUMPI DUP1 PUSH1 0x1F LT PUSH2 0x20EC JUMPI PUSH2 0x100 DUP1 DUP4 SLOAD DIV MUL DUP4 MSTORE SWAP2 PUSH1 0x20 ADD SWAP2 PUSH2 0x2117 JUMP JUMPDEST DUP3 ADD SWAP2 SWAP1 PUSH1 0x0 MSTORE PUSH1 0x20 PUSH1 0x0 KECCAK256 SWAP1 JUMPDEST DUP2 SLOAD DUP2 MSTORE SWAP1 PUSH1 0x1 ADD SWAP1 PUSH1 0x20 ADD DUP1 DUP4 GT PUSH2 0x20FA JUMPI DUP3 SWAP1 SUB PUSH1 0x1F AND DUP3 ADD SWAP2 JUMPDEST POP POP POP POP POP SWAP1 POP DUP1 PUSH1 0x40 MLOAD PUSH1 0x20 ADD PUSH2 0x212F SWAP2 SWAP1 PUSH2 0x5822 JUMP JUMPDEST PUSH1 0x40 MLOAD PUSH1 0x20 DUP2 DUP4 SUB SUB DUP2 MSTORE SWAP1 PUSH1 0x40 MSTORE DUP1 MLOAD SWAP1 PUSH1 0x20 ADD KECCAK256 DUP3 PUSH1 0x40 MLOAD PUSH1 0x20 ADD PUSH2 0x2156 SWAP2 SWAP1 PUSH2 0x5822 JUMP JUMPDEST PUSH1 0x40 MLOAD PUSH1 0x20 DUP2 DUP4 SUB SUB DUP2 MSTORE SWAP1 PUSH1 0x40 MSTORE DUP1 MLOAD SWAP1 PUSH1 0x20 ADD KECCAK256 EQ PUSH2 0x21A3 JUMPI PUSH1 0x40 MLOAD PUSH32 0xCA7B7FB200000000000000000000000000000000000000000000000000000000 DUP2 MSTORE PUSH1 0x4 ADD PUSH1 0x40 MLOAD DUP1 SWAP2 SUB SWAP1 REVERT JUMPDEST DUP7 DUP7 SWAP1 POP DUP10 DUP10 SWAP1 POP EQ PUSH2 0x21E2 JUMPI PUSH1 0x40 MLOAD PUSH32 0x79B3F46F00000000000000000000000000000000000000000000000000000000 DUP2 MSTORE PUSH1 0x4 ADD PUSH1 0x40 MLOAD DUP1 SWAP2 SUB SWAP1 REVERT JUMPDEST PUSH1 0x0 JUMPDEST DUP10 DUP10 SWAP1 POP DUP2 LT ISZERO PUSH2 0x23C8 JUMPI PUSH1 0x0 DUP9 DUP9 DUP4 DUP2 DUP2 LT PUSH2 0x2205 JUMPI PUSH2 0x2204 PUSH2 0x5BBC JUMP JUMPDEST JUMPDEST SWAP1 POP PUSH1 0x20 MUL DUP2 ADD SWAP1 PUSH2 0x2217 SWAP2 SWAP1 PUSH2 0x5BFA JUMP JUMPDEST DUP1 DUP1 PUSH1 0x1F ADD PUSH1 0x20 DUP1 SWAP2 DIV MUL PUSH1 0x20 ADD PUSH1 0x40 MLOAD SWAP1 DUP2 ADD PUSH1 0x40 MSTORE DUP1 SWAP4 SWAP3 SWAP2 SWAP1 DUP2 DUP2 MSTORE PUSH1 0x20 ADD DUP4 DUP4 DUP1 DUP3 DUP5 CALLDATACOPY PUSH1 0x0 DUP2 DUP5 ADD MSTORE PUSH1 0x1F NOT PUSH1 0x1F DUP3 ADD AND SWAP1 POP DUP1 DUP4 ADD SWAP3 POP POP POP POP POP POP POP SWAP1 POP PUSH1 0x0 DUP2 MLOAD SUB PUSH2 0x2297 JUMPI PUSH1 0x40 MLOAD PUSH32 0x47B4AF9400000000000000000000000000000000000000000000000000000000 DUP2 MSTORE PUSH1 0x4 ADD PUSH1 0x40 MLOAD DUP1 SWAP2 SUB SWAP1 REVERT JUMPDEST PUSH2 0x23B4 DUP14 DUP14 DUP1 DUP1 PUSH1 0x1F ADD PUSH1 0x20 DUP1 SWAP2 DIV MUL PUSH1 0x20 ADD PUSH1 0x40 MLOAD SWAP1 DUP2 ADD PUSH1 0x40 MSTORE DUP1 SWAP4 SWAP3 SWAP2 SWAP1 DUP2 DUP2 MSTORE PUSH1 0x20 ADD DUP4 DUP4 DUP1 DUP3 DUP5 CALLDATACOPY PUSH1 0x0 DUP2 DUP5 ADD MSTORE PUSH1 0x1F NOT PUSH1 0x1F DUP3 ADD AND SWAP1 POP DUP1 DUP4 ADD SWAP3 POP POP POP POP POP POP POP DUP13 DUP13 DUP6 DUP2 DUP2 LT PUSH2 0x22F2 JUMPI PUSH2 0x22F1 PUSH2 0x5BBC JUMP JUMPDEST JUMPDEST SWAP1 POP PUSH1 0x20 MUL DUP2 ADD SWAP1 PUSH2 0x2304 SWAP2 SWAP1 PUSH2 0x5BFA JUMP JUMPDEST DUP1 DUP1 PUSH1 0x1F ADD PUSH1 0x20 DUP1 SWAP2 DIV MUL PUSH1 0x20 ADD PUSH1 0x40 MLOAD SWAP1 DUP2 ADD PUSH1 0x40 MSTORE DUP1 SWAP4 SWAP3 SWAP2 SWAP1 DUP2 DUP2 MSTORE PUSH1 0x20 ADD DUP4 DUP4 DUP1 DUP3 DUP5 CALLDATACOPY PUSH1 0x0 DUP2 DUP5 ADD MSTORE PUSH1 0x1F NOT PUSH1 0x1F DUP3 ADD AND SWAP1 POP DUP1 DUP4 ADD SWAP3 POP POP POP POP POP POP POP DUP12 DUP12 DUP7 DUP2 DUP2 LT PUSH2 0x235A JUMPI PUSH2 0x2359 PUSH2 0x5BBC JUMP JUMPDEST JUMPDEST SWAP1 POP PUSH1 0x20 MUL DUP2 ADD SWAP1 PUSH2 0x236C SWAP2 SWAP1 PUSH2 0x5BFA JUMP JUMPDEST DUP1 DUP1 PUSH1 0x1F ADD PUSH1 0x20 DUP1 SWAP2 DIV MUL PUSH1 0x20 ADD PUSH1 0x40 MLOAD SWAP1 DUP2 ADD PUSH1 0x40 MSTORE DUP1 SWAP4 SWAP3 SWAP2 SWAP1 DUP2 DUP2 MSTORE PUSH1 0x20 ADD DUP4 DUP4 DUP1 DUP3 DUP5 CALLDATACOPY PUSH1 0x0 DUP2 DUP5 ADD MSTORE PUSH1 0x1F NOT PUSH1 0x1F DUP3 ADD AND SWAP1 POP DUP1 DUP4 ADD SWAP3 POP POP POP POP POP POP POP PUSH2 0x4625 JUMP JUMPDEST POP DUP1 DUP1 PUSH2 0x23C0 SWAP1 PUSH2 0x5C8C JUMP JUMPDEST SWAP2 POP POP PUSH2 0x21E5 JUMP JUMPDEST POP POP POP POP POP POP POP POP POP POP POP POP JUMP JUMPDEST PUSH1 0x0 PUSH1 0x1 PUSH1 0x0 CALLER PUSH20 0xFFFFFFFFFFFFFFFFFFFFFFFFFFFFFFFFFFFFFFFF AND PUSH20 0xFFFFFFFFFFFFFFFFFFFFFFFFFFFFFFFFFFFFFFFF AND DUP2 MSTORE PUSH1 0x20 ADD SWAP1 DUP2 MSTORE PUSH1 0x20 ADD PUSH1 0x0 KECCAK256 DUP1 SLOAD PUSH2 0x2422 SWAP1 PUSH2 0x57C0 JUMP JUMPDEST DUP1 PUSH1 0x1F ADD PUSH1 0x20 DUP1 SWAP2 DIV MUL PUSH1 0x20 ADD PUSH1 0x40 MLOAD SWAP1 DUP2 ADD PUSH1 0x40 MSTORE DUP1 SWAP3 SWAP2 SWAP1 DUP2 DUP2 MSTORE PUSH1 0x20 ADD DUP3 DUP1 SLOAD PUSH2 0x244E SWAP1 PUSH2 0x57C0 JUMP JUMPDEST DUP1 ISZERO PUSH2 0x249B JUMPI DUP1 PUSH1 0x1F LT PUSH2 0x2470 JUMPI PUSH2 0x100 DUP1 DUP4 SLOAD DIV MUL DUP4 MSTORE SWAP2 PUSH1 0x20 ADD SWAP2 PUSH2 0x249B JUMP JUMPDEST DUP3 ADD SWAP2 SWAP1 PUSH1 0x0 MSTORE PUSH1 0x20 PUSH1 0x0 KECCAK256 SWAP1 JUMPDEST DUP2 SLOAD DUP2 MSTORE SWAP1 PUSH1 0x1 ADD SWAP1 PUSH1 0x20 ADD DUP1 DUP4 GT PUSH2 0x247E JUMPI DUP3 SWAP1 SUB PUSH1 0x1F AND DUP3 ADD SWAP2 JUMPDEST POP POP POP POP POP SWAP1 POP PUSH1 0x0 PUSH1 0x3 DUP2 GT ISZERO PUSH2 0x24B6 JUMPI PUSH2 0x24B5 PUSH2 0x5312 JUMP JUMPDEST JUMPDEST PUSH1 0x3 DUP3 PUSH1 0x40 MLOAD PUSH2 0x24C6 SWAP2 SWAP1 PUSH2 0x5822 JUMP JUMPDEST SWAP1 DUP2 MSTORE PUSH1 0x20 ADD PUSH1 0x40 MLOAD DUP1 SWAP2 SUB SWAP1 KECCAK256 PUSH1 0x0 SWAP1 SLOAD SWAP1 PUSH2 0x100 EXP SWAP1 DIV PUSH1 0xFF AND PUSH1 0x3 DUP2 GT ISZERO PUSH2 0x24F4 JUMPI PUSH2 0x24F3 PUSH2 0x5312 JUMP JUMPDEST JUMPDEST SUB PUSH2 0x252B JUMPI PUSH1 0x40 MLOAD PUSH32 0x8FA622F500000000000000000000000000000000000000000000000000000000 DUP2 MSTORE PUSH1 0x4 ADD PUSH1 0x40 MLOAD DUP1 SWAP2 SUB SWAP1 REVERT JUMPDEST PUSH1 0x2 PUSH1 0x3 DUP2 GT ISZERO PUSH2 0x253F JUMPI PUSH2 0x253E PUSH2 0x5312 JUMP JUMPDEST JUMPDEST PUSH1 0x3 DUP3 PUSH1 0x40 MLOAD PUSH2 0x254F SWAP2 SWAP1 PUSH2 0x5822 JUMP JUMPDEST SWAP1 DUP2 MSTORE PUSH1 0x20 ADD PUSH1 0x40 MLOAD DUP1 SWAP2 SUB SWAP1 KECCAK256 PUSH1 0x0 SWAP1 SLOAD SWAP1 PUSH2 0x100 EXP SWAP1 DIV PUSH1 0xFF AND PUSH1 0x3 DUP2 GT ISZERO PUSH2 0x257D JUMPI PUSH2 0x257C PUSH2 0x5312 JUMP JUMPDEST JUMPDEST EQ PUSH2 0x25B4 JUMPI PUSH1 0x40 MLOAD PUSH32 0x8AC8E00B00000000000000000000000000000000000000000000000000000000 DUP2 MSTORE PUSH1 0x4 ADD PUSH1 0x40 MLOAD DUP1 SWAP2 SUB SWAP1 REVERT JUMPDEST PUSH1 0x0 DUP4 DUP4 DUP1 DUP1 PUSH1 0x1F ADD PUSH1 0x20 DUP1 SWAP2 DIV MUL PUSH1 0x20 ADD PUSH1 0x40 MLOAD SWAP1 DUP2 ADD PUSH1 0x40 MSTORE DUP1 SWAP4 SWAP3 SWAP2 SWAP1 DUP2 DUP2 MSTORE PUSH1 0x20 ADD DUP4 DUP4 DUP1 DUP3 DUP5 CALLDATACOPY PUSH1 0x0 DUP2 DUP5 ADD MSTORE PUSH1 0x1F NOT PUSH1 0x1F DUP3 ADD AND SWAP1 POP DUP1 DUP4 ADD SWAP3 POP POP POP POP POP POP POP SWAP1 POP PUSH1 0x0 DUP2 MLOAD SUB PUSH2 0x2638 JUMPI PUSH1 0x40 MLOAD PUSH32 0x47B4AF9400000000000000000000000000000000000000000000000000000000 DUP2 MSTORE PUSH1 0x4 ADD PUSH1 0x40 MLOAD DUP1 SWAP2 SUB SWAP1 REVERT JUMPDEST PUSH1 0x0 PUSH1 0x1 PUSH1 0x0 CALLER PUSH20 0xFFFFFFFFFFFFFFFFFFFFFFFFFFFFFFFFFFFFFFFF AND PUSH20 0xFFFFFFFFFFFFFFFFFFFFFFFFFFFFFFFFFFFFFFFF AND DUP2 MSTORE PUSH1 0x20 ADD SWAP1 DUP2 MSTORE PUSH1 0x20 ADD PUSH1 0x0 KECCAK256 DUP1 SLOAD PUSH2 0x2684 SWAP1 PUSH2 0x57C0 JUMP JUMPDEST DUP1 PUSH1 0x1F ADD PUSH1 0x20 DUP1 SWAP2 DIV MUL PUSH1 0x20 ADD PUSH1 0x40 MLOAD SWAP1 DUP2 ADD PUSH1 0x40 MSTORE DUP1 SWAP3 SWAP2 SWAP1 DUP2 DUP2 MSTORE PUSH1 0x20 ADD DUP3 DUP1 SLOAD PUSH2 0x26B0 SWAP1 PUSH2 0x57C0 JUMP JUMPDEST DUP1 ISZERO PUSH2 0x26FD JUMPI DUP1 PUSH1 0x1F LT PUSH2 0x26D2 JUMPI PUSH2 0x100 DUP1 DUP4 SLOAD DIV MUL DUP4 MSTORE SWAP2 PUSH1 0x20 ADD SWAP2 PUSH2 0x26FD JUMP JUMPDEST DUP3 ADD SWAP2 SWAP1 PUSH1 0x0 MSTORE PUSH1 0x20 PUSH1 0x0 KECCAK256 SWAP1 JUMPDEST DUP2 SLOAD DUP2 MSTORE SWAP1 PUSH1 0x1 ADD SWAP1 PUSH1 0x20 ADD DUP1 DUP4 GT PUSH2 0x26E0 JUMPI DUP3 SWAP1 SUB PUSH1 0x1F AND DUP3 ADD SWAP2 JUMPDEST POP POP POP POP POP SWAP1 POP PUSH2 0x2797 DUP2 DUP9 DUP9 DUP1 DUP1 PUSH1 0x1F ADD PUSH1 0x20 DUP1 SWAP2 DIV MUL PUSH1 0x20 ADD PUSH1 0x40 MLOAD SWAP1 DUP2 ADD PUSH1 0x40 MSTORE DUP1 SWAP4 SWAP3 SWAP2 SWAP1 DUP2 DUP2 MSTORE PUSH1 0x20 ADD DUP4 DUP4 DUP1 DUP3 DUP5 CALLDATACOPY PUSH1 0x0 DUP2 DUP5 ADD MSTORE PUSH1 0x1F NOT PUSH1 0x1F DUP3 ADD AND SWAP1 POP DUP1 DUP4 ADD SWAP3 POP POP POP POP POP POP POP DUP8 DUP8 DUP1 DUP1 PUSH1 0x1F ADD PUSH1 0x20 DUP1 SWAP2 DIV MUL PUSH1 0x20 ADD PUSH1 0x40 MLOAD SWAP1 DUP2 ADD PUSH1 0x40 MSTORE DUP1 SWAP4 SWAP3 SWAP2 SWAP1 DUP2 DUP2 MSTORE PUSH1 0x20 ADD DUP4 DUP4 DUP1 DUP3 DUP5 CALLDATACOPY PUSH1 0x0 DUP2 DUP5 ADD MSTORE PUSH1 0x1F NOT PUSH1 0x1F DUP3 ADD AND SWAP1 POP DUP1 DUP4 ADD SWAP3 POP POP POP POP POP POP POP PUSH2 0x4795 JUMP JUMPDEST POP POP POP POP POP POP POP JUMP JUMPDEST PUSH1 0x60 PUSH1 0x4 DUP6 DUP6 PUSH1 0x40 MLOAD PUSH2 0x27B4 SWAP3 SWAP2 SWAP1 PUSH2 0x5778 JUMP JUMPDEST SWAP1 DUP2 MSTORE PUSH1 0x20 ADD PUSH1 0x40 MLOAD DUP1 SWAP2 SUB SWAP1 KECCAK256 DUP4 DUP4 PUSH1 0x40 MLOAD PUSH2 0x27D2 SWAP3 SWAP2 SWAP1 PUSH2 0x5778 JUMP JUMPDEST SWAP1 DUP2 MSTORE PUSH1 0x20 ADD PUSH1 0x40 MLOAD DUP1 SWAP2 SUB SWAP1 KECCAK256 DUP1 SLOAD PUSH2 0x27EB SWAP1 PUSH2 0x57C0 JUMP JUMPDEST DUP1 PUSH1 0x1F ADD PUSH1 0x20 DUP1 SWAP2 DIV MUL PUSH1 0x20 ADD PUSH1 0x40 MLOAD SWAP1 DUP2 ADD PUSH1 0x40 MSTORE DUP1 SWAP3 SWAP2 SWAP1 DUP2 DUP2 MSTORE PUSH1 0x20 ADD DUP3 DUP1 SLOAD PUSH2 0x2817 SWAP1 PUSH2 0x57C0 JUMP JUMPDEST DUP1 ISZERO PUSH2 0x2864 JUMPI DUP1 PUSH1 0x1F LT PUSH2 0x2839 JUMPI PUSH2 0x100 DUP1 DUP4 SLOAD DIV MUL DUP4 MSTORE SWAP2 PUSH1 0x20 ADD SWAP2 PUSH2 0x2864 JUMP JUMPDEST DUP3 ADD SWAP2 SWAP1 PUSH1 0x0 MSTORE PUSH1 0x20 PUSH1 0x0 KECCAK256 SWAP1 JUMPDEST DUP2 SLOAD DUP2 MSTORE SWAP1 PUSH1 0x1 ADD SWAP1 PUSH1 0x20 ADD DUP1 DUP4 GT PUSH2 0x2847 JUMPI DUP3 SWAP1 SUB PUSH1 0x1F AND DUP3 ADD SWAP2 JUMPDEST POP POP POP POP POP SWAP1 POP SWAP5 SWAP4 POP POP POP POP JUMP JUMPDEST PUSH1 0x0 PUSH1 0x6 PUSH1 0x0 CALLER PUSH20 0xFFFFFFFFFFFFFFFFFFFFFFFFFFFFFFFFFFFFFFFF AND PUSH20 0xFFFFFFFFFFFFFFFFFFFFFFFFFFFFFFFFFFFFFFFF AND DUP2 MSTORE PUSH1 0x20 ADD SWAP1 DUP2 MSTORE PUSH1 0x20 ADD PUSH1 0x0 KECCAK256 DUP1 SLOAD PUSH2 0x28BF SWAP1 PUSH2 0x57C0 JUMP JUMPDEST DUP1 PUSH1 0x1F ADD PUSH1 0x20 DUP1 SWAP2 DIV MUL PUSH1 0x20 ADD PUSH1 0x40 MLOAD SWAP1 DUP2 ADD PUSH1 0x40 MSTORE DUP1 SWAP3 SWAP2 SWAP1 DUP2 DUP2 MSTORE PUSH1 0x20 ADD DUP3 DUP1 SLOAD PUSH2 0x28EB SWAP1 PUSH2 0x57C0 JUMP JUMPDEST DUP1 ISZERO PUSH2 0x2938 JUMPI DUP1 PUSH1 0x1F LT PUSH2 0x290D JUMPI PUSH2 0x100 DUP1 DUP4 SLOAD DIV MUL DUP4 MSTORE SWAP2 PUSH1 0x20 ADD SWAP2 PUSH2 0x2938 JUMP JUMPDEST DUP3 ADD SWAP2 SWAP1 PUSH1 0x0 MSTORE PUSH1 0x20 PUSH1 0x0 KECCAK256 SWAP1 JUMPDEST DUP2 SLOAD DUP2 MSTORE SWAP1 PUSH1 0x1 ADD SWAP1 PUSH1 0x20 ADD DUP1 DUP4 GT PUSH2 0x291B JUMPI DUP3 SWAP1 SUB PUSH1 0x1F AND DUP3 ADD SWAP2 JUMPDEST POP POP POP POP POP SWAP1 POP PUSH1 0x0 PUSH1 0x1 DUP2 GT ISZERO PUSH2 0x2953 JUMPI PUSH2 0x2952 PUSH2 0x5312 JUMP JUMPDEST JUMPDEST PUSH1 0x8 DUP3 PUSH1 0x40 MLOAD PUSH2 0x2963 SWAP2 SWAP1 PUSH2 0x5822 JUMP JUMPDEST SWAP1 DUP2 MSTORE PUSH1 0x20 ADD PUSH1 0x40 MLOAD DUP1 SWAP2 SUB SWAP1 KECCAK256 PUSH1 0x0 SWAP1 SLOAD SWAP1 PUSH2 0x100 EXP SWAP1 DIV PUSH1 0xFF AND PUSH1 0x1 DUP2 GT ISZERO PUSH2 0x2991 JUMPI PUSH2 0x2990 PUSH2 0x5312 JUMP JUMPDEST JUMPDEST SUB PUSH2 0x29C8 JUMPI PUSH1 0x40 MLOAD PUSH32 0x78DE8BF00000000000000000000000000000000000000000000000000000000 DUP2 MSTORE PUSH1 0x4 ADD PUSH1 0x40 MLOAD DUP1 SWAP2 SUB SWAP1 REVERT JUMPDEST PUSH1 0x0 PUSH1 0x6 PUSH1 0x0 CALLER PUSH20 0xFFFFFFFFFFFFFFFFFFFFFFFFFFFFFFFFFFFFFFFF AND PUSH20 0xFFFFFFFFFFFFFFFFFFFFFFFFFFFFFFFFFFFFFFFF AND DUP2 MSTORE PUSH1 0x20 ADD SWAP1 DUP2 MSTORE PUSH1 0x20 ADD PUSH1 0x0 KECCAK256 DUP1 SLOAD PUSH2 0x2A14 SWAP1 PUSH2 0x57C0 JUMP JUMPDEST DUP1 PUSH1 0x1F ADD PUSH1 0x20 DUP1 SWAP2 DIV MUL PUSH1 0x20 ADD PUSH1 0x40 MLOAD SWAP1 DUP2 ADD PUSH1 0x40 MSTORE DUP1 SWAP3 SWAP2 SWAP1 DUP2 DUP2 MSTORE PUSH1 0x20 ADD DUP3 DUP1 SLOAD PUSH2 0x2A40 SWAP1 PUSH2 0x57C0 JUMP JUMPDEST DUP1 ISZERO PUSH2 0x2A8D JUMPI DUP1 PUSH1 0x1F LT PUSH2 0x2A62 JUMPI PUSH2 0x100 DUP1 DUP4 SLOAD DIV MUL DUP4 MSTORE SWAP2 PUSH1 0x20 ADD SWAP2 PUSH2 0x2A8D JUMP JUMPDEST DUP3 ADD SWAP2 SWAP1 PUSH1 0x0 MSTORE PUSH1 0x20 PUSH1 0x0 KECCAK256 SWAP1 JUMPDEST DUP2 SLOAD DUP2 MSTORE SWAP1 PUSH1 0x1 ADD SWAP1 PUSH1 0x20 ADD DUP1 DUP4 GT PUSH2 0x2A70 JUMPI DUP3 SWAP1 SUB PUSH1 0x1F AND DUP3 ADD SWAP2 JUMPDEST POP POP POP POP POP SWAP1 POP PUSH1 0x1 PUSH1 0xE PUSH1 0x0 DUP8 PUSH20 0xFFFFFFFFFFFFFFFFFFFFFFFFFFFFFFFFFFFFFFFF AND PUSH20 0xFFFFFFFFFFFFFFFFFFFFFFFFFFFFFFFFFFFFFFFF AND DUP2 MSTORE PUSH1 0x20 ADD SWAP1 DUP2 MSTORE PUSH1 0x20 ADD PUSH1 0x0 KECCAK256 DUP3 PUSH1 0x40 MLOAD PUSH2 0x2AE3 SWAP2 SWAP1 PUSH2 0x5822 JUMP JUMPDEST SWAP1 DUP2 MSTORE PUSH1 0x20 ADD PUSH1 0x40 MLOAD DUP1 SWAP2 SUB SWAP1 KECCAK256 DUP6 DUP6 PUSH1 0x40 MLOAD PUSH2 0x2B01 SWAP3 SWAP2 SWAP1 PUSH2 0x5778 JUMP JUMPDEST SWAP1 DUP2 MSTORE PUSH1 0x20 ADD PUSH1 0x40 MLOAD DUP1 SWAP2 SUB SWAP1 KECCAK256 PUSH1 0x0 PUSH2 0x100 EXP DUP2 SLOAD DUP2 PUSH1 0xFF MUL NOT AND SWAP1 DUP4 ISZERO ISZERO MUL OR SWAP1 SSTORE POP POP POP POP POP POP JUMP JUMPDEST PUSH1 0x60 PUSH1 0x5 DUP4 DUP4 PUSH1 0x40 MLOAD PUSH2 0x2B41 SWAP3 SWAP2 SWAP1 PUSH2 0x5778 JUMP JUMPDEST SWAP1 DUP2 MSTORE PUSH1 0x20 ADD PUSH1 0x40 MLOAD DUP1 SWAP2 SUB SWAP1 KECCAK256 DUP1 SLOAD DUP1 PUSH1 0x20 MUL PUSH1 0x20 ADD PUSH1 0x40 MLOAD SWAP1 DUP2 ADD PUSH1 0x40 MSTORE DUP1 SWAP3 SWAP2 SWAP1 DUP2 DUP2 MSTORE PUSH1 0x20 ADD PUSH1 0x0 SWAP1 JUMPDEST DUP3 DUP3 LT ISZERO PUSH2 0x2C1B JUMPI DUP4 DUP3 SWAP1 PUSH1 0x0 MSTORE PUSH1 0x20 PUSH1 0x0 KECCAK256 ADD DUP1 SLOAD PUSH2 0x2B8E SWAP1 PUSH2 0x57C0 JUMP JUMPDEST DUP1 PUSH1 0x1F ADD PUSH1 0x20 DUP1 SWAP2 DIV MUL PUSH1 0x20 ADD PUSH1 0x40 MLOAD SWAP1 DUP2 ADD PUSH1 0x40 MSTORE DUP1 SWAP3 SWAP2 SWAP1 DUP2 DUP2 MSTORE PUSH1 0x20 ADD DUP3 DUP1 SLOAD PUSH2 0x2BBA SWAP1 PUSH2 0x57C0 JUMP JUMPDEST DUP1 ISZERO PUSH2 0x2C07 JUMPI DUP1 PUSH1 0x1F LT PUSH2 0x2BDC JUMPI PUSH2 0x100 DUP1 DUP4 SLOAD DIV MUL DUP4 MSTORE SWAP2 PUSH1 0x20 ADD SWAP2 PUSH2 0x2C07 JUMP JUMPDEST DUP3 ADD SWAP2 SWAP1 PUSH1 0x0 MSTORE PUSH1 0x20 PUSH1 0x0 KECCAK256 SWAP1 JUMPDEST DUP2 SLOAD DUP2 MSTORE SWAP1 PUSH1 0x1 ADD SWAP1 PUSH1 0x20 ADD DUP1 DUP4 GT PUSH2 0x2BEA JUMPI DUP3 SWAP1 SUB PUSH1 0x1F AND DUP3 ADD SWAP2 JUMPDEST POP POP POP POP POP DUP2 MSTORE PUSH1 0x20 ADD SWAP1 PUSH1 0x1 ADD SWAP1 PUSH2 0x2B6F JUMP JUMPDEST POP POP POP POP SWAP1 POP SWAP3 SWAP2 POP POP JUMP JUMPDEST PUSH1 0x0 PUSH1 0x6 PUSH1 0x0 CALLER PUSH20 0xFFFFFFFFFFFFFFFFFFFFFFFFFFFFFFFFFFFFFFFF AND PUSH20 0xFFFFFFFFFFFFFFFFFFFFFFFFFFFFFFFFFFFFFFFF AND DUP2 MSTORE PUSH1 0x20 ADD SWAP1 DUP2 MSTORE PUSH1 0x20 ADD PUSH1 0x0 KECCAK256 DUP1 SLOAD PUSH2 0x2C73 SWAP1 PUSH2 0x57C0 JUMP JUMPDEST DUP1 PUSH1 0x1F ADD PUSH1 0x20 DUP1 SWAP2 DIV MUL PUSH1 0x20 ADD PUSH1 0x40 MLOAD SWAP1 DUP2 ADD PUSH1 0x40 MSTORE DUP1 SWAP3 SWAP2 SWAP1 DUP2 DUP2 MSTORE PUSH1 0x20 ADD DUP3 DUP1 SLOAD PUSH2 0x2C9F SWAP1 PUSH2 0x57C0 JUMP JUMPDEST DUP1 ISZERO PUSH2 0x2CEC JUMPI DUP1 PUSH1 0x1F LT PUSH2 0x2CC1 JUMPI PUSH2 0x100 DUP1 DUP4 SLOAD DIV MUL DUP4 MSTORE SWAP2 PUSH1 0x20 ADD SWAP2 PUSH2 0x2CEC JUMP JUMPDEST DUP3 ADD SWAP2 SWAP1 PUSH1 0x0 MSTORE PUSH1 0x20 PUSH1 0x0 KECCAK256 SWAP1 JUMPDEST DUP2 SLOAD DUP2 MSTORE SWAP1 PUSH1 0x1 ADD SWAP1 PUSH1 0x20 ADD DUP1 DUP4 GT PUSH2 0x2CCF JUMPI DUP3 SWAP1 SUB PUSH1 0x1F AND DUP3 ADD SWAP2 JUMPDEST POP POP POP POP POP SWAP1 POP PUSH1 0x0 PUSH1 0x1 DUP2 GT ISZERO PUSH2 0x2D07 JUMPI PUSH2 0x2D06 PUSH2 0x5312 JUMP JUMPDEST JUMPDEST PUSH1 0x8 DUP3 PUSH1 0x40 MLOAD PUSH2 0x2D17 SWAP2 SWAP1 PUSH2 0x5822 JUMP JUMPDEST SWAP1 DUP2 MSTORE PUSH1 0x20 ADD PUSH1 0x40 MLOAD DUP1 SWAP2 SUB SWAP1 KECCAK256 PUSH1 0x0 SWAP1 SLOAD SWAP1 PUSH2 0x100 EXP SWAP1 DIV PUSH1 0xFF AND PUSH1 0x1 DUP2 GT ISZERO PUSH2 0x2D45 JUMPI PUSH2 0x2D44 PUSH2 0x5312 JUMP JUMPDEST JUMPDEST SUB PUSH2 0x2D7C JUMPI PUSH1 0x40 MLOAD PUSH32 0x78DE8BF00000000000000000000000000000000000000000000000000000000 DUP2 MSTORE PUSH1 0x4 ADD PUSH1 0x40 MLOAD DUP1 SWAP2 SUB SWAP1 REVERT JUMPDEST DUP3 DUP3 SWAP1 POP DUP6 DUP6 SWAP1 POP EQ PUSH2 0x2DBB JUMPI PUSH1 0x40 MLOAD PUSH32 0x79B3F46F00000000000000000000000000000000000000000000000000000000 DUP2 MSTORE PUSH1 0x4 ADD PUSH1 0x40 MLOAD DUP1 SWAP2 SUB SWAP1 REVERT JUMPDEST PUSH1 0x0 PUSH1 0x6 PUSH1 0x0 CALLER PUSH20 0xFFFFFFFFFFFFFFFFFFFFFFFFFFFFFFFFFFFFFFFF AND PUSH20 0xFFFFFFFFFFFFFFFFFFFFFFFFFFFFFFFFFFFFFFFF AND DUP2 MSTORE PUSH1 0x20 ADD SWAP1 DUP2 MSTORE PUSH1 0x20 ADD PUSH1 0x0 KECCAK256 DUP1 SLOAD PUSH2 0x2E07 SWAP1 PUSH2 0x57C0 JUMP JUMPDEST DUP1 PUSH1 0x1F ADD PUSH1 0x20 DUP1 SWAP2 DIV MUL PUSH1 0x20 ADD PUSH1 0x40 MLOAD SWAP1 DUP2 ADD PUSH1 0x40 MSTORE DUP1 SWAP3 SWAP2 SWAP1 DUP2 DUP2 MSTORE PUSH1 0x20 ADD DUP3 DUP1 SLOAD PUSH2 0x2E33 SWAP1 PUSH2 0x57C0 JUMP JUMPDEST DUP1 ISZERO PUSH2 0x2E80 JUMPI DUP1 PUSH1 0x1F LT PUSH2 0x2E55 JUMPI PUSH2 0x100 DUP1 DUP4 SLOAD DIV MUL DUP4 MSTORE SWAP2 PUSH1 0x20 ADD SWAP2 PUSH2 0x2E80 JUMP JUMPDEST DUP3 ADD SWAP2 SWAP1 PUSH1 0x0 MSTORE PUSH1 0x20 PUSH1 0x0 KECCAK256 SWAP1 JUMPDEST DUP2 SLOAD DUP2 MSTORE SWAP1 PUSH1 0x1 ADD SWAP1 PUSH1 0x20 ADD DUP1 DUP4 GT PUSH2 0x2E63 JUMPI DUP3 SWAP1 SUB PUSH1 0x1F AND DUP3 ADD SWAP2 JUMPDEST POP POP POP POP POP SWAP1 POP PUSH1 0x0 JUMPDEST DUP7 DUP7 SWAP1 POP DUP2 LT ISZERO PUSH2 0x300D JUMPI PUSH1 0xB DUP3 PUSH1 0x40 MLOAD PUSH2 0x2EA5 SWAP2 SWAP1 PUSH2 0x5822 JUMP JUMPDEST SWAP1 DUP2 MSTORE PUSH1 0x20 ADD PUSH1 0x40 MLOAD DUP1 SWAP2 SUB SWAP1 KECCAK256 DUP8 DUP8 DUP4 DUP2 DUP2 LT PUSH2 0x2EC6 JUMPI PUSH2 0x2EC5 PUSH2 0x5BBC JUMP JUMPDEST JUMPDEST SWAP1 POP PUSH1 0x20 MUL DUP2 ADD SWAP1 PUSH2 0x2ED8 SWAP2 SWAP1 PUSH2 0x5BFA JUMP JUMPDEST PUSH1 0x40 MLOAD PUSH2 0x2EE6 SWAP3 SWAP2 SWAP1 PUSH2 0x5778 JUMP JUMPDEST SWAP1 DUP2 MSTORE PUSH1 0x20 ADD PUSH1 0x40 MLOAD DUP1 SWAP2 SUB SWAP1 KECCAK256 PUSH1 0x0 SWAP1 SLOAD SWAP1 PUSH2 0x100 EXP SWAP1 DIV PUSH1 0xFF AND PUSH2 0x2F38 JUMPI PUSH1 0x40 MLOAD PUSH32 0x722F899200000000000000000000000000000000000000000000000000000000 DUP2 MSTORE PUSH1 0x4 ADD PUSH1 0x40 MLOAD DUP1 SWAP2 SUB SWAP1 REVERT JUMPDEST PUSH2 0x2F68 DUP3 DUP9 DUP9 DUP5 DUP2 DUP2 LT PUSH2 0x2F4F JUMPI PUSH2 0x2F4E PUSH2 0x5BBC JUMP JUMPDEST JUMPDEST SWAP1 POP PUSH1 0x20 MUL DUP2 ADD SWAP1 PUSH2 0x2F61 SWAP2 SWAP1 PUSH2 0x5BFA JUMP JUMPDEST PUSH1 0x1 PUSH2 0x4905 JUMP JUMPDEST DUP5 DUP5 DUP3 DUP2 DUP2 LT PUSH2 0x2F7B JUMPI PUSH2 0x2F7A PUSH2 0x5BBC JUMP JUMPDEST JUMPDEST SWAP1 POP PUSH1 0x20 MUL DUP2 ADD SWAP1 PUSH2 0x2F8D SWAP2 SWAP1 PUSH2 0x5BFA JUMP JUMPDEST PUSH1 0xD DUP5 PUSH1 0x40 MLOAD PUSH2 0x2F9D SWAP2 SWAP1 PUSH2 0x5822 JUMP JUMPDEST SWAP1 DUP2 MSTORE PUSH1 0x20 ADD PUSH1 0x40 MLOAD DUP1 SWAP2 SUB SWAP1 KECCAK256 DUP10 DUP10 DUP6 DUP2 DUP2 LT PUSH2 0x2FBE JUMPI PUSH2 0x2FBD PUSH2 0x5BBC JUMP JUMPDEST JUMPDEST SWAP1 POP PUSH1 0x20 MUL DUP2 ADD SWAP1 PUSH2 0x2FD0 SWAP2 SWAP1 PUSH2 0x5BFA JUMP JUMPDEST PUSH1 0x40 MLOAD PUSH2 0x2FDE SWAP3 SWAP2 SWAP1 PUSH2 0x5778 JUMP JUMPDEST SWAP1 DUP2 MSTORE PUSH1 0x20 ADD PUSH1 0x40 MLOAD DUP1 SWAP2 SUB SWAP1 KECCAK256 SWAP2 DUP3 PUSH2 0x2FF9 SWAP3 SWAP2 SWAP1 PUSH2 0x5CDF JUMP JUMPDEST POP DUP1 DUP1 PUSH2 0x3005 SWAP1 PUSH2 0x5C8C JUMP JUMPDEST SWAP2 POP POP PUSH2 0x2E8A JUMP JUMPDEST POP POP POP POP POP POP POP JUMP JUMPDEST PUSH1 0x0 PUSH1 0x1 PUSH1 0x0 CALLER PUSH20 0xFFFFFFFFFFFFFFFFFFFFFFFFFFFFFFFFFFFFFFFF AND PUSH20 0xFFFFFFFFFFFFFFFFFFFFFFFFFFFFFFFFFFFFFFFF AND DUP2 MSTORE PUSH1 0x20 ADD SWAP1 DUP2 MSTORE PUSH1 0x20 ADD PUSH1 0x0 KECCAK256 DUP1 SLOAD PUSH2 0x3062 SWAP1 PUSH2 0x57C0 JUMP JUMPDEST DUP1 PUSH1 0x1F ADD PUSH1 0x20 DUP1 SWAP2 DIV MUL PUSH1 0x20 ADD PUSH1 0x40 MLOAD SWAP1 DUP2 ADD PUSH1 0x40 MSTORE DUP1 SWAP3 SWAP2 SWAP1 DUP2 DUP2 MSTORE PUSH1 0x20 ADD DUP3 DUP1 SLOAD PUSH2 0x308E SWAP1 PUSH2 0x57C0 JUMP JUMPDEST DUP1 ISZERO PUSH2 0x30DB JUMPI DUP1 PUSH1 0x1F LT PUSH2 0x30B0 JUMPI PUSH2 0x100 DUP1 DUP4 SLOAD DIV MUL DUP4 MSTORE SWAP2 PUSH1 0x20 ADD SWAP2 PUSH2 0x30DB JUMP JUMPDEST DUP3 ADD SWAP2 SWAP1 PUSH1 0x0 MSTORE PUSH1 0x20 PUSH1 0x0 KECCAK256 SWAP1 JUMPDEST DUP2 SLOAD DUP2 MSTORE SWAP1 PUSH1 0x1 ADD SWAP1 PUSH1 0x20 ADD DUP1 DUP4 GT PUSH2 0x30BE JUMPI DUP3 SWAP1 SUB PUSH1 0x1F AND DUP3 ADD SWAP2 JUMPDEST POP POP POP POP POP SWAP1 POP PUSH1 0x0 PUSH1 0x3 DUP2 GT ISZERO PUSH2 0x30F6 JUMPI PUSH2 0x30F5 PUSH2 0x5312 JUMP JUMPDEST JUMPDEST PUSH1 0x3 DUP3 PUSH1 0x40 MLOAD PUSH2 0x3106 SWAP2 SWAP1 PUSH2 0x5822 JUMP JUMPDEST SWAP1 DUP2 MSTORE PUSH1 0x20 ADD PUSH1 0x40 MLOAD DUP1 SWAP2 SUB SWAP1 KECCAK256 PUSH1 0x0 SWAP1 SLOAD SWAP1 PUSH2 0x100 EXP SWAP1 DIV PUSH1 0xFF AND PUSH1 0x3 DUP2 GT ISZERO PUSH2 0x3134 JUMPI PUSH2 0x3133 PUSH2 0x5312 JUMP JUMPDEST JUMPDEST SUB PUSH2 0x316B JUMPI PUSH1 0x40 MLOAD PUSH32 0x8FA622F500000000000000000000000000000000000000000000000000000000 DUP2 MSTORE PUSH1 0x4 ADD PUSH1 0x40 MLOAD DUP1 SWAP2 SUB SWAP1 REVERT JUMPDEST PUSH1 0x2 PUSH1 0x3 DUP2 GT ISZERO PUSH2 0x317F JUMPI PUSH2 0x317E PUSH2 0x5312 JUMP JUMPDEST JUMPDEST PUSH1 0x3 DUP3 PUSH1 0x40 MLOAD PUSH2 0x318F SWAP2 SWAP1 PUSH2 0x5822 JUMP JUMPDEST SWAP1 DUP2 MSTORE PUSH1 0x20 ADD PUSH1 0x40 MLOAD DUP1 SWAP2 SUB SWAP1 KECCAK256 PUSH1 0x0 SWAP1 SLOAD SWAP1 PUSH2 0x100 EXP SWAP1 DIV PUSH1 0xFF AND PUSH1 0x3 DUP2 GT ISZERO PUSH2 0x31BD JUMPI PUSH2 0x31BC PUSH2 0x5312 JUMP JUMPDEST JUMPDEST EQ PUSH2 0x31F4 JUMPI PUSH1 0x40 MLOAD PUSH32 0x8AC8E00B00000000000000000000000000000000000000000000000000000000 DUP2 MSTORE PUSH1 0x4 ADD PUSH1 0x40 MLOAD DUP1 SWAP2 SUB SWAP1 REVERT JUMPDEST DUP5 DUP5 PUSH1 0x0 PUSH1 0x1 DUP2 GT ISZERO PUSH2 0x320A JUMPI PUSH2 0x3209 PUSH2 0x5312 JUMP JUMPDEST JUMPDEST PUSH1 0x8 DUP4 DUP4 PUSH1 0x40 MLOAD PUSH2 0x321C SWAP3 SWAP2 SWAP1 PUSH2 0x5778 JUMP JUMPDEST SWAP1 DUP2 MSTORE PUSH1 0x20 ADD PUSH1 0x40 MLOAD DUP1 SWAP2 SUB SWAP1 KECCAK256 PUSH1 0x0 SWAP1 SLOAD SWAP1 PUSH2 0x100 EXP SWAP1 DIV PUSH1 0xFF AND PUSH1 0x1 DUP2 GT ISZERO PUSH2 0x324A JUMPI PUSH2 0x3249 PUSH2 0x5312 JUMP JUMPDEST JUMPDEST SUB PUSH2 0x3281 JUMPI PUSH1 0x40 MLOAD PUSH32 0x78DE8BF00000000000000000000000000000000000000000000000000000000 DUP2 MSTORE PUSH1 0x4 ADD PUSH1 0x40 MLOAD DUP1 SWAP2 SUB SWAP1 REVERT JUMPDEST PUSH1 0x0 PUSH1 0x1 PUSH1 0x0 CALLER PUSH20 0xFFFFFFFFFFFFFFFFFFFFFFFFFFFFFFFFFFFFFFFF AND PUSH20 0xFFFFFFFFFFFFFFFFFFFFFFFFFFFFFFFFFFFFFFFF AND DUP2 MSTORE PUSH1 0x20 ADD SWAP1 DUP2 MSTORE PUSH1 0x20 ADD PUSH1 0x0 KECCAK256 DUP1 SLOAD PUSH2 0x32CD SWAP1 PUSH2 0x57C0 JUMP JUMPDEST DUP1 PUSH1 0x1F ADD PUSH1 0x20 DUP1 SWAP2 DIV MUL PUSH1 0x20 ADD PUSH1 0x40 MLOAD SWAP1 DUP2 ADD PUSH1 0x40 MSTORE DUP1 SWAP3 SWAP2 SWAP1 DUP2 DUP2 MSTORE PUSH1 0x20 ADD DUP3 DUP1 SLOAD PUSH2 0x32F9 SWAP1 PUSH2 0x57C0 JUMP JUMPDEST DUP1 ISZERO PUSH2 0x3346 JUMPI DUP1 PUSH1 0x1F LT PUSH2 0x331B JUMPI PUSH2 0x100 DUP1 DUP4 SLOAD DIV MUL DUP4 MSTORE SWAP2 PUSH1 0x20 ADD SWAP2 PUSH2 0x3346 JUMP JUMPDEST DUP3 ADD SWAP2 SWAP1 PUSH1 0x0 MSTORE PUSH1 0x20 PUSH1 0x0 KECCAK256 SWAP1 JUMPDEST DUP2 SLOAD DUP2 MSTORE SWAP1 PUSH1 0x1 ADD SWAP1 PUSH1 0x20 ADD DUP1 DUP4 GT PUSH2 0x3329 JUMPI DUP3 SWAP1 SUB PUSH1 0x1F AND DUP3 ADD SWAP2 JUMPDEST POP POP POP POP POP SWAP1 POP PUSH1 0x0 PUSH1 0x9 DUP5 DUP5 PUSH1 0x40 MLOAD PUSH2 0x3361 SWAP3 SWAP2 SWAP1 PUSH2 0x5778 JUMP JUMPDEST SWAP1 DUP2 MSTORE PUSH1 0x20 ADD PUSH1 0x40 MLOAD DUP1 SWAP2 SUB SWAP1 KECCAK256 PUSH1 0x40 MLOAD PUSH2 0x337B SWAP1 PUSH2 0x5934 JUMP JUMPDEST SWAP1 DUP2 MSTORE PUSH1 0x20 ADD PUSH1 0x40 MLOAD DUP1 SWAP2 SUB SWAP1 KECCAK256 DUP1 SLOAD PUSH2 0x3394 SWAP1 PUSH2 0x57C0 JUMP JUMPDEST DUP1 PUSH1 0x1F ADD PUSH1 0x20 DUP1 SWAP2 DIV MUL PUSH1 0x20 ADD PUSH1 0x40 MLOAD SWAP1 DUP2 ADD PUSH1 0x40 MSTORE DUP1 SWAP3 SWAP2 SWAP1 DUP2 DUP2 MSTORE PUSH1 0x20 ADD DUP3 DUP1 SLOAD PUSH2 0x33C0 SWAP1 PUSH2 0x57C0 JUMP JUMPDEST DUP1 ISZERO PUSH2 0x340D JUMPI DUP1 PUSH1 0x1F LT PUSH2 0x33E2 JUMPI PUSH2 0x100 DUP1 DUP4 SLOAD DIV MUL DUP4 MSTORE SWAP2 PUSH1 0x20 ADD SWAP2 PUSH2 0x340D JUMP JUMPDEST DUP3 ADD SWAP2 SWAP1 PUSH1 0x0 MSTORE PUSH1 0x20 PUSH1 0x0 KECCAK256 SWAP1 JUMPDEST DUP2 SLOAD DUP2 MSTORE SWAP1 PUSH1 0x1 ADD SWAP1 PUSH1 0x20 ADD DUP1 DUP4 GT PUSH2 0x33F0 JUMPI DUP3 SWAP1 SUB PUSH1 0x1F AND DUP3 ADD SWAP2 JUMPDEST POP POP POP POP POP SWAP1 POP DUP1 PUSH1 0x40 MLOAD PUSH1 0x20 ADD PUSH2 0x3425 SWAP2 SWAP1 PUSH2 0x5822 JUMP JUMPDEST PUSH1 0x40 MLOAD PUSH1 0x20 DUP2 DUP4 SUB SUB DUP2 MSTORE SWAP1 PUSH1 0x40 MSTORE DUP1 MLOAD SWAP1 PUSH1 0x20 ADD KECCAK256 DUP3 PUSH1 0x40 MLOAD PUSH1 0x20 ADD PUSH2 0x344C SWAP2 SWAP1 PUSH2 0x5822 JUMP JUMPDEST PUSH1 0x40 MLOAD PUSH1 0x20 DUP2 DUP4 SUB SUB DUP2 MSTORE SWAP1 PUSH1 0x40 MSTORE DUP1 MLOAD SWAP1 PUSH1 0x20 ADD KECCAK256 EQ PUSH2 0x3499 JUMPI PUSH1 0x40 MLOAD PUSH32 0xCA7B7FB200000000000000000000000000000000000000000000000000000000 DUP2 MSTORE PUSH1 0x4 ADD PUSH1 0x40 MLOAD DUP1 SWAP2 SUB SWAP1 REVERT JUMPDEST PUSH2 0x34EA DUP10 DUP10 DUP1 DUP1 PUSH1 0x1F ADD PUSH1 0x20 DUP1 SWAP2 DIV MUL PUSH1 0x20 ADD PUSH1 0x40 MLOAD SWAP1 DUP2 ADD PUSH1 0x40 MSTORE DUP1 SWAP4 SWAP3 SWAP2 SWAP1 DUP2 DUP2 MSTORE PUSH1 0x20 ADD DUP4 DUP4 DUP1 DUP3 DUP5 CALLDATACOPY PUSH1 0x0 DUP2 DUP5 ADD MSTORE PUSH1 0x1F NOT PUSH1 0x1F DUP3 ADD AND SWAP1 POP DUP1 DUP4 ADD SWAP3 POP POP POP POP POP POP POP DUP9 DUP9 PUSH1 0x0 PUSH2 0x4905 JUMP JUMPDEST PUSH2 0x3643 DUP10 DUP10 DUP1 DUP1 PUSH1 0x1F ADD PUSH1 0x20 DUP1 SWAP2 DIV MUL PUSH1 0x20 ADD PUSH1 0x40 MLOAD SWAP1 DUP2 ADD PUSH1 0x40 MSTORE DUP1 SWAP4 SWAP3 SWAP2 SWAP1 DUP2 DUP2 MSTORE PUSH1 0x20 ADD DUP4 DUP4 DUP1 DUP3 DUP5 CALLDATACOPY PUSH1 0x0 DUP2 DUP5 ADD MSTORE PUSH1 0x1F NOT PUSH1 0x1F DUP3 ADD AND SWAP1 POP DUP1 DUP4 ADD SWAP3 POP POP POP POP POP POP POP DUP9 DUP9 DUP1 DUP1 PUSH1 0x1F ADD PUSH1 0x20 DUP1 SWAP2 DIV MUL PUSH1 0x20 ADD PUSH1 0x40 MLOAD SWAP1 DUP2 ADD PUSH1 0x40 MSTORE DUP1 SWAP4 SWAP3 SWAP2 SWAP1 DUP2 DUP2 MSTORE PUSH1 0x20 ADD DUP4 DUP4 DUP1 DUP3 DUP5 CALLDATACOPY PUSH1 0x0 DUP2 DUP5 ADD MSTORE PUSH1 0x1F NOT PUSH1 0x1F DUP3 ADD AND SWAP1 POP DUP1 DUP4 ADD SWAP3 POP POP POP POP POP POP POP PUSH1 0xD DUP13 DUP13 PUSH1 0x40 MLOAD PUSH2 0x3589 SWAP3 SWAP2 SWAP1 PUSH2 0x5778 JUMP JUMPDEST SWAP1 DUP2 MSTORE PUSH1 0x20 ADD PUSH1 0x40 MLOAD DUP1 SWAP2 SUB SWAP1 KECCAK256 DUP11 DUP11 PUSH1 0x40 MLOAD PUSH2 0x35A7 SWAP3 SWAP2 SWAP1 PUSH2 0x5778 JUMP JUMPDEST SWAP1 DUP2 MSTORE PUSH1 0x20 ADD PUSH1 0x40 MLOAD DUP1 SWAP2 SUB SWAP1 KECCAK256 DUP1 SLOAD PUSH2 0x35C0 SWAP1 PUSH2 0x57C0 JUMP JUMPDEST DUP1 PUSH1 0x1F ADD PUSH1 0x20 DUP1 SWAP2 DIV MUL PUSH1 0x20 ADD PUSH1 0x40 MLOAD SWAP1 DUP2 ADD PUSH1 0x40 MSTORE DUP1 SWAP3 SWAP2 SWAP1 DUP2 DUP2 MSTORE PUSH1 0x20 ADD DUP3 DUP1 SLOAD PUSH2 0x35EC SWAP1 PUSH2 0x57C0 JUMP JUMPDEST DUP1 ISZERO PUSH2 0x3639 JUMPI DUP1 PUSH1 0x1F LT PUSH2 0x360E JUMPI PUSH2 0x100 DUP1 DUP4 SLOAD DIV MUL DUP4 MSTORE SWAP2 PUSH1 0x20 ADD SWAP2 PUSH2 0x3639 JUMP JUMPDEST DUP3 ADD SWAP2 SWAP1 PUSH1 0x0 MSTORE PUSH1 0x20 PUSH1 0x0 KECCAK256 SWAP1 JUMPDEST DUP2 SLOAD DUP2 MSTORE SWAP1 PUSH1 0x1 ADD SWAP1 PUSH1 0x20 ADD DUP1 DUP4 GT PUSH2 0x361C JUMPI DUP3 SWAP1 SUB PUSH1 0x1F AND DUP3 ADD SWAP2 JUMPDEST POP POP POP POP POP PUSH2 0x4625 JUMP JUMPDEST POP POP POP POP POP POP POP POP POP JUMP JUMPDEST PUSH1 0x0 PUSH1 0x3 DUP4 DUP4 PUSH1 0x40 MLOAD PUSH2 0x3662 SWAP3 SWAP2 SWAP1 PUSH2 0x5778 JUMP JUMPDEST SWAP1 DUP2 MSTORE PUSH1 0x20 ADD PUSH1 0x40 MLOAD DUP1 SWAP2 SUB SWAP1 KECCAK256 PUSH1 0x0 SWAP1 SLOAD SWAP1 PUSH2 0x100 EXP SWAP1 DIV PUSH1 0xFF AND SWAP1 POP SWAP3 SWAP2 POP POP JUMP JUMPDEST PUSH1 0x0 DUP1 SLOAD SWAP1 PUSH2 0x100 EXP SWAP1 DIV PUSH20 0xFFFFFFFFFFFFFFFFFFFFFFFFFFFFFFFFFFFFFFFF AND PUSH20 0xFFFFFFFFFFFFFFFFFFFFFFFFFFFFFFFFFFFFFFFF AND CALLER PUSH20 0xFFFFFFFFFFFFFFFFFFFFFFFFFFFFFFFFFFFFFFFF AND EQ PUSH2 0x370B JUMPI PUSH1 0x40 MLOAD PUSH32 0x2DCA963600000000000000000000000000000000000000000000000000000000 DUP2 MSTORE PUSH1 0x4 ADD PUSH1 0x40 MLOAD DUP1 SWAP2 SUB SWAP1 REVERT JUMPDEST PUSH1 0x0 PUSH1 0x3 DUP2 GT ISZERO PUSH2 0x371F JUMPI PUSH2 0x371E PUSH2 0x5312 JUMP JUMPDEST JUMPDEST PUSH1 0x3 DUP4 DUP4 PUSH1 0x40 MLOAD PUSH2 0x3731 SWAP3 SWAP2 SWAP1 PUSH2 0x5778 JUMP JUMPDEST SWAP1 DUP2 MSTORE PUSH1 0x20 ADD PUSH1 0x40 MLOAD DUP1 SWAP2 SUB SWAP1 KECCAK256 PUSH1 0x0 SWAP1 SLOAD SWAP1 PUSH2 0x100 EXP SWAP1 DIV PUSH1 0xFF AND PUSH1 0x3 DUP2 GT ISZERO PUSH2 0x375F JUMPI PUSH2 0x375E PUSH2 0x5312 JUMP JUMPDEST JUMPDEST SUB PUSH2 0x3796 JUMPI PUSH1 0x40 MLOAD PUSH32 0x567E9BE600000000000000000000000000000000000000000000000000000000 DUP2 MSTORE PUSH1 0x4 ADD PUSH1 0x40 MLOAD DUP1 SWAP2 SUB SWAP1 REVERT JUMPDEST PUSH1 0x2 PUSH1 0x3 DUP2 GT ISZERO PUSH2 0x37AA JUMPI PUSH2 0x37A9 PUSH2 0x5312 JUMP JUMPDEST JUMPDEST PUSH1 0x3 DUP4 DUP4 PUSH1 0x40 MLOAD PUSH2 0x37BC SWAP3 SWAP2 SWAP1 PUSH2 0x5778 JUMP JUMPDEST SWAP1 DUP2 MSTORE PUSH1 0x20 ADD PUSH1 0x40 MLOAD DUP1 SWAP2 SUB SWAP1 KECCAK256 PUSH1 0x0 SWAP1 SLOAD SWAP1 PUSH2 0x100 EXP SWAP1 DIV PUSH1 0xFF AND PUSH1 0x3 DUP2 GT ISZERO PUSH2 0x37EA JUMPI PUSH2 0x37E9 PUSH2 0x5312 JUMP JUMPDEST JUMPDEST SUB PUSH2 0x3821 JUMPI PUSH1 0x40 MLOAD PUSH32 0x61FD49DF00000000000000000000000000000000000000000000000000000000 DUP2 MSTORE PUSH1 0x4 ADD PUSH1 0x40 MLOAD DUP1 SWAP2 SUB SWAP1 REVERT JUMPDEST PUSH1 0x2 PUSH1 0x3 DUP4 DUP4 PUSH1 0x40 MLOAD PUSH2 0x3835 SWAP3 SWAP2 SWAP1 PUSH2 0x5778 JUMP JUMPDEST SWAP1 DUP2 MSTORE PUSH1 0x20 ADD PUSH1 0x40 MLOAD DUP1 SWAP2 SUB SWAP1 KECCAK256 PUSH1 0x0 PUSH2 0x100 EXP DUP2 SLOAD DUP2 PUSH1 0xFF MUL NOT AND SWAP1 DUP4 PUSH1 0x3 DUP2 GT ISZERO PUSH2 0x3865 JUMPI PUSH2 0x3864 PUSH2 0x5312 JUMP JUMPDEST JUMPDEST MUL OR SWAP1 SSTORE POP POP POP JUMP JUMPDEST PUSH1 0x0 DUP1 PUSH1 0x1 PUSH1 0x0 CALLER PUSH20 0xFFFFFFFFFFFFFFFFFFFFFFFFFFFFFFFFFFFFFFFF AND PUSH20 0xFFFFFFFFFFFFFFFFFFFFFFFFFFFFFFFFFFFFFFFF AND DUP2 MSTORE PUSH1 0x20 ADD SWAP1 DUP2 MSTORE PUSH1 0x20 ADD PUSH1 0x0 KECCAK256 DUP1 SLOAD PUSH2 0x38BB SWAP1 PUSH2 0x57C0 JUMP JUMPDEST DUP1 PUSH1 0x1F ADD PUSH1 0x20 DUP1 SWAP2 DIV MUL PUSH1 0x20 ADD PUSH1 0x40 MLOAD SWAP1 DUP2 ADD PUSH1 0x40 MSTORE DUP1 SWAP3 SWAP2 SWAP1 DUP2 DUP2 MSTORE PUSH1 0x20 ADD DUP3 DUP1 SLOAD PUSH2 0x38E7 SWAP1 PUSH2 0x57C0 JUMP JUMPDEST DUP1 ISZERO PUSH2 0x3934 JUMPI DUP1 PUSH1 0x1F LT PUSH2 0x3909 JUMPI PUSH2 0x100 DUP1 DUP4 SLOAD DIV MUL DUP4 MSTORE SWAP2 PUSH1 0x20 ADD SWAP2 PUSH2 0x3934 JUMP JUMPDEST DUP3 ADD SWAP2 SWAP1 PUSH1 0x0 MSTORE PUSH1 0x20 PUSH1 0x0 KECCAK256 SWAP1 JUMPDEST DUP2 SLOAD DUP2 MSTORE SWAP1 PUSH1 0x1 ADD SWAP1 PUSH1 0x20 ADD DUP1 DUP4 GT PUSH2 0x3917 JUMPI DUP3 SWAP1 SUB PUSH1 0x1F AND DUP3 ADD SWAP2 JUMPDEST POP POP POP POP POP SWAP1 POP PUSH1 0x0 PUSH1 0x3 DUP2 GT ISZERO PUSH2 0x394F JUMPI PUSH2 0x394E PUSH2 0x5312 JUMP JUMPDEST JUMPDEST PUSH1 0x3 DUP3 PUSH1 0x40 MLOAD PUSH2 0x395F SWAP2 SWAP1 PUSH2 0x5822 JUMP JUMPDEST SWAP1 DUP2 MSTORE PUSH1 0x20 ADD PUSH1 0x40 MLOAD DUP1 SWAP2 SUB SWAP1 KECCAK256 PUSH1 0x0 SWAP1 SLOAD SWAP1 PUSH2 0x100 EXP SWAP1 DIV PUSH1 0xFF AND PUSH1 0x3 DUP2 GT ISZERO PUSH2 0x398D JUMPI PUSH2 0x398C PUSH2 0x5312 JUMP JUMPDEST JUMPDEST SUB PUSH2 0x39C4 JUMPI PUSH1 0x40 MLOAD PUSH32 0x8FA622F500000000000000000000000000000000000000000000000000000000 DUP2 MSTORE PUSH1 0x4 ADD PUSH1 0x40 MLOAD DUP1 SWAP2 SUB SWAP1 REVERT JUMPDEST PUSH1 0x2 PUSH1 0x3 DUP2 GT ISZERO PUSH2 0x39D8 JUMPI PUSH2 0x39D7 PUSH2 0x5312 JUMP JUMPDEST JUMPDEST PUSH1 0x3 DUP3 PUSH1 0x40 MLOAD PUSH2 0x39E8 SWAP2 SWAP1 PUSH2 0x5822 JUMP JUMPDEST SWAP1 DUP2 MSTORE PUSH1 0x20 ADD PUSH1 0x40 MLOAD DUP1 SWAP2 SUB SWAP1 KECCAK256 PUSH1 0x0 SWAP1 SLOAD SWAP1 PUSH2 0x100 EXP SWAP1 DIV PUSH1 0xFF AND PUSH1 0x3 DUP2 GT ISZERO PUSH2 0x3A16 JUMPI PUSH2 0x3A15 PUSH2 0x5312 JUMP JUMPDEST JUMPDEST EQ PUSH2 0x3A4D JUMPI PUSH1 0x40 MLOAD PUSH32 0x8AC8E00B00000000000000000000000000000000000000000000000000000000 DUP2 MSTORE PUSH1 0x4 ADD PUSH1 0x40 MLOAD DUP1 SWAP2 SUB SWAP1 REVERT JUMPDEST DUP6 DUP6 PUSH1 0x0 PUSH1 0x1 DUP2 GT ISZERO PUSH2 0x3A63 JUMPI PUSH2 0x3A62 PUSH2 0x5312 JUMP JUMPDEST JUMPDEST PUSH1 0x8 DUP4 DUP4 PUSH1 0x40 MLOAD PUSH2 0x3A75 SWAP3 SWAP2 SWAP1 PUSH2 0x5778 JUMP JUMPDEST SWAP1 DUP2 MSTORE PUSH1 0x20 ADD PUSH1 0x40 MLOAD DUP1 SWAP2 SUB SWAP1 KECCAK256 PUSH1 0x0 SWAP1 SLOAD SWAP1 PUSH2 0x100 EXP SWAP1 DIV PUSH1 0xFF AND PUSH1 0x1 DUP2 GT ISZERO PUSH2 0x3AA3 JUMPI PUSH2 0x3AA2 PUSH2 0x5312 JUMP JUMPDEST JUMPDEST SUB PUSH2 0x3ADA JUMPI PUSH1 0x40 MLOAD PUSH32 0x78DE8BF00000000000000000000000000000000000000000000000000000000 DUP2 MSTORE PUSH1 0x4 ADD PUSH1 0x40 MLOAD DUP1 SWAP2 SUB SWAP1 REVERT JUMPDEST PUSH1 0x0 PUSH1 0x1 PUSH1 0x0 CALLER PUSH20 0xFFFFFFFFFFFFFFFFFFFFFFFFFFFFFFFFFFFFFFFF AND PUSH20 0xFFFFFFFFFFFFFFFFFFFFFFFFFFFFFFFFFFFFFFFF AND DUP2 MSTORE PUSH1 0x20 ADD SWAP1 DUP2 MSTORE PUSH1 0x20 ADD PUSH1 0x0 KECCAK256 DUP1 SLOAD PUSH2 0x3B26 SWAP1 PUSH2 0x57C0 JUMP JUMPDEST DUP1 PUSH1 0x1F ADD PUSH1 0x20 DUP1 SWAP2 DIV MUL PUSH1 0x20 ADD PUSH1 0x40 MLOAD SWAP1 DUP2 ADD PUSH1 0x40 MSTORE DUP1 SWAP3 SWAP2 SWAP1 DUP2 DUP2 MSTORE PUSH1 0x20 ADD DUP3 DUP1 SLOAD PUSH2 0x3B52 SWAP1 PUSH2 0x57C0 JUMP JUMPDEST DUP1 ISZERO PUSH2 0x3B9F JUMPI DUP1 PUSH1 0x1F LT PUSH2 0x3B74 JUMPI PUSH2 0x100 DUP1 DUP4 SLOAD DIV MUL DUP4 MSTORE SWAP2 PUSH1 0x20 ADD SWAP2 PUSH2 0x3B9F JUMP JUMPDEST DUP3 ADD SWAP2 SWAP1 PUSH1 0x0 MSTORE PUSH1 0x20 PUSH1 0x0 KECCAK256 SWAP1 JUMPDEST DUP2 SLOAD DUP2 MSTORE SWAP1 PUSH1 0x1 ADD SWAP1 PUSH1 0x20 ADD DUP1 DUP4 GT PUSH2 0x3B82 JUMPI DUP3 SWAP1 SUB PUSH1 0x1F AND DUP3 ADD SWAP2 JUMPDEST POP POP POP POP POP SWAP1 POP PUSH1 0x0 PUSH1 0x9 DUP5 DUP5 PUSH1 0x40 MLOAD PUSH2 0x3BBA SWAP3 SWAP2 SWAP1 PUSH2 0x5778 JUMP JUMPDEST SWAP1 DUP2 MSTORE PUSH1 0x20 ADD PUSH1 0x40 MLOAD DUP1 SWAP2 SUB SWAP1 KECCAK256 PUSH1 0x40 MLOAD PUSH2 0x3BD4 SWAP1 PUSH2 0x5934 JUMP JUMPDEST SWAP1 DUP2 MSTORE PUSH1 0x20 ADD PUSH1 0x40 MLOAD DUP1 SWAP2 SUB SWAP1 KECCAK256 DUP1 SLOAD PUSH2 0x3BED SWAP1 PUSH2 0x57C0 JUMP JUMPDEST DUP1 PUSH1 0x1F ADD PUSH1 0x20 DUP1 SWAP2 DIV MUL PUSH1 0x20 ADD PUSH1 0x40 MLOAD SWAP1 DUP2 ADD PUSH1 0x40 MSTORE DUP1 SWAP3 SWAP2 SWAP1 DUP2 DUP2 MSTORE PUSH1 0x20 ADD DUP3 DUP1 SLOAD PUSH2 0x3C19 SWAP1 PUSH2 0x57C0 JUMP JUMPDEST DUP1 ISZERO PUSH2 0x3C66 JUMPI DUP1 PUSH1 0x1F LT PUSH2 0x3C3B JUMPI PUSH2 0x100 DUP1 DUP4 SLOAD DIV MUL DUP4 MSTORE SWAP2 PUSH1 0x20 ADD SWAP2 PUSH2 0x3C66 JUMP JUMPDEST DUP3 ADD SWAP2 SWAP1 PUSH1 0x0 MSTORE PUSH1 0x20 PUSH1 0x0 KECCAK256 SWAP1 JUMPDEST DUP2 SLOAD DUP2 MSTORE SWAP1 PUSH1 0x1 ADD SWAP1 PUSH1 0x20 ADD DUP1 DUP4 GT PUSH2 0x3C49 JUMPI DUP3 SWAP1 SUB PUSH1 0x1F AND DUP3 ADD SWAP2 JUMPDEST POP POP POP POP POP SWAP1 POP DUP1 PUSH1 0x40 MLOAD PUSH1 0x20 ADD PUSH2 0x3C7E SWAP2 SWAP1 PUSH2 0x5822 JUMP JUMPDEST PUSH1 0x40 MLOAD PUSH1 0x20 DUP2 DUP4 SUB SUB DUP2 MSTORE SWAP1 PUSH1 0x40 MSTORE DUP1 MLOAD SWAP1 PUSH1 0x20 ADD KECCAK256 DUP3 PUSH1 0x40 MLOAD PUSH1 0x20 ADD PUSH2 0x3CA5 SWAP2 SWAP1 PUSH2 0x5822 JUMP JUMPDEST PUSH1 0x40 MLOAD PUSH1 0x20 DUP2 DUP4 SUB SUB DUP2 MSTORE SWAP1 PUSH1 0x40 MSTORE DUP1 MLOAD SWAP1 PUSH1 0x20 ADD KECCAK256 EQ PUSH2 0x3CF2 JUMPI PUSH1 0x40 MLOAD PUSH32 0xCA7B7FB200000000000000000000000000000000000000000000000000000000 DUP2 MSTORE PUSH1 0x4 ADD PUSH1 0x40 MLOAD DUP1 SWAP2 SUB SWAP1 REVERT JUMPDEST PUSH1 0xC DUP11 DUP11 PUSH1 0x40 MLOAD PUSH2 0x3D04 SWAP3 SWAP2 SWAP1 PUSH2 0x5778 JUMP JUMPDEST SWAP1 DUP2 MSTORE PUSH1 0x20 ADD PUSH1 0x40 MLOAD DUP1 SWAP2 SUB SWAP1 KECCAK256 DUP9 DUP9 PUSH1 0x40 MLOAD PUSH2 0x3D22 SWAP3 SWAP2 SWAP1 PUSH2 0x5778 JUMP JUMPDEST SWAP1 DUP2 MSTORE PUSH1 0x20 ADD PUSH1 0x40 MLOAD DUP1 SWAP2 SUB SWAP1 KECCAK256 PUSH1 0x0 SWAP1 SLOAD SWAP1 PUSH2 0x100 EXP SWAP1 DIV PUSH1 0xFF AND SWAP6 POP POP POP POP POP POP SWAP5 SWAP4 POP POP POP POP JUMP JUMPDEST PUSH1 0x60 PUSH1 0xA DUP4 DUP4 PUSH1 0x40 MLOAD PUSH2 0x3D61 SWAP3 SWAP2 SWAP1 PUSH2 0x5778 JUMP JUMPDEST SWAP1 DUP2 MSTORE PUSH1 0x20 ADD PUSH1 0x40 MLOAD DUP1 SWAP2 SUB SWAP1 KECCAK256 DUP1 SLOAD DUP1 PUSH1 0x20 MUL PUSH1 0x20 ADD PUSH1 0x40 MLOAD SWAP1 DUP2 ADD PUSH1 0x40 MSTORE DUP1 SWAP3 SWAP2 SWAP1 DUP2 DUP2 MSTORE PUSH1 0x20 ADD PUSH1 0x0 SWAP1 JUMPDEST DUP3 DUP3 LT ISZERO PUSH2 0x3E3B JUMPI DUP4 DUP3 SWAP1 PUSH1 0x0 MSTORE PUSH1 0x20 PUSH1 0x0 KECCAK256 ADD DUP1 SLOAD PUSH2 0x3DAE SWAP1 PUSH2 0x57C0 JUMP JUMPDEST DUP1 PUSH1 0x1F ADD PUSH1 0x20 DUP1 SWAP2 DIV MUL PUSH1 0x20 ADD PUSH1 0x40 MLOAD SWAP1 DUP2 ADD PUSH1 0x40 MSTORE DUP1 SWAP3 SWAP2 SWAP1 DUP2 DUP2 MSTORE PUSH1 0x20 ADD DUP3 DUP1 SLOAD PUSH2 0x3DDA SWAP1 PUSH2 0x57C0 JUMP JUMPDEST DUP1 ISZERO PUSH2 0x3E27 JUMPI DUP1 PUSH1 0x1F LT PUSH2 0x3DFC JUMPI PUSH2 0x100 DUP1 DUP4 SLOAD DIV MUL DUP4 MSTORE SWAP2 PUSH1 0x20 ADD SWAP2 PUSH2 0x3E27 JUMP JUMPDEST DUP3 ADD SWAP2 SWAP1 PUSH1 0x0 MSTORE PUSH1 0x20 PUSH1 0x0 KECCAK256 SWAP1 JUMPDEST DUP2 SLOAD DUP2 MSTORE SWAP1 PUSH1 0x1 ADD SWAP1 PUSH1 0x20 ADD DUP1 DUP4 GT PUSH2 0x3E0A JUMPI DUP3 SWAP1 SUB PUSH1 0x1F AND DUP3 ADD SWAP2 JUMPDEST POP POP POP POP POP DUP2 MSTORE PUSH1 0x20 ADD SWAP1 PUSH1 0x1 ADD SWAP1 PUSH2 0x3D8F JUMP JUMPDEST POP POP POP POP SWAP1 POP SWAP3 SWAP2 POP POP JUMP JUMPDEST PUSH1 0x0 PUSH1 0x6 PUSH1 0x0 CALLER PUSH20 0xFFFFFFFFFFFFFFFFFFFFFFFFFFFFFFFFFFFFFFFF AND PUSH20 0xFFFFFFFFFFFFFFFFFFFFFFFFFFFFFFFFFFFFFFFF AND DUP2 MSTORE PUSH1 0x20 ADD SWAP1 DUP2 MSTORE PUSH1 0x20 ADD PUSH1 0x0 KECCAK256 DUP1 SLOAD PUSH2 0x3E93 SWAP1 PUSH2 0x57C0 JUMP JUMPDEST DUP1 PUSH1 0x1F ADD PUSH1 0x20 DUP1 SWAP2 DIV MUL PUSH1 0x20 ADD PUSH1 0x40 MLOAD SWAP1 DUP2 ADD PUSH1 0x40 MSTORE DUP1 SWAP3 SWAP2 SWAP1 DUP2 DUP2 MSTORE PUSH1 0x20 ADD DUP3 DUP1 SLOAD PUSH2 0x3EBF SWAP1 PUSH2 0x57C0 JUMP JUMPDEST DUP1 ISZERO PUSH2 0x3F0C JUMPI DUP1 PUSH1 0x1F LT PUSH2 0x3EE1 JUMPI PUSH2 0x100 DUP1 DUP4 SLOAD DIV MUL DUP4 MSTORE SWAP2 PUSH1 0x20 ADD SWAP2 PUSH2 0x3F0C JUMP JUMPDEST DUP3 ADD SWAP2 SWAP1 PUSH1 0x0 MSTORE PUSH1 0x20 PUSH1 0x0 KECCAK256 SWAP1 JUMPDEST DUP2 SLOAD DUP2 MSTORE SWAP1 PUSH1 0x1 ADD SWAP1 PUSH1 0x20 ADD DUP1 DUP4 GT PUSH2 0x3EEF JUMPI DUP3 SWAP1 SUB PUSH1 0x1F AND DUP3 ADD SWAP2 JUMPDEST POP POP POP POP POP SWAP1 POP PUSH1 0x0 PUSH1 0x1 DUP2 GT ISZERO PUSH2 0x3F27 JUMPI PUSH2 0x3F26 PUSH2 0x5312 JUMP JUMPDEST JUMPDEST PUSH1 0x8 DUP3 PUSH1 0x40 MLOAD PUSH2 0x3F37 SWAP2 SWAP1 PUSH2 0x5822 JUMP JUMPDEST SWAP1 DUP2 MSTORE PUSH1 0x20 ADD PUSH1 0x40 MLOAD DUP1 SWAP2 SUB SWAP1 KECCAK256 PUSH1 0x0 SWAP1 SLOAD SWAP1 PUSH2 0x100 EXP SWAP1 DIV PUSH1 0xFF AND PUSH1 0x1 DUP2 GT ISZERO PUSH2 0x3F65 JUMPI PUSH2 0x3F64 PUSH2 0x5312 JUMP JUMPDEST JUMPDEST SUB PUSH2 0x3F9C JUMPI PUSH1 0x40 MLOAD PUSH32 0x78DE8BF00000000000000000000000000000000000000000000000000000000 DUP2 MSTORE PUSH1 0x4 ADD PUSH1 0x40 MLOAD DUP1 SWAP2 SUB SWAP1 REVERT JUMPDEST PUSH1 0x0 PUSH1 0x6 PUSH1 0x0 CALLER PUSH20 0xFFFFFFFFFFFFFFFFFFFFFFFFFFFFFFFFFFFFFFFF AND PUSH20 0xFFFFFFFFFFFFFFFFFFFFFFFFFFFFFFFFFFFFFFFF AND DUP2 MSTORE PUSH1 0x20 ADD SWAP1 DUP2 MSTORE PUSH1 0x20 ADD PUSH1 0x0 KECCAK256 DUP1 SLOAD PUSH2 0x3FE8 SWAP1 PUSH2 0x57C0 JUMP JUMPDEST DUP1 PUSH1 0x1F ADD PUSH1 0x20 DUP1 SWAP2 DIV MUL PUSH1 0x20 ADD PUSH1 0x40 MLOAD SWAP1 DUP2 ADD PUSH1 0x40 MSTORE DUP1 SWAP3 SWAP2 SWAP1 DUP2 DUP2 MSTORE PUSH1 0x20 ADD DUP3 DUP1 SLOAD PUSH2 0x4014 SWAP1 PUSH2 0x57C0 JUMP JUMPDEST DUP1 ISZERO PUSH2 0x4061 JUMPI DUP1 PUSH1 0x1F LT PUSH2 0x4036 JUMPI PUSH2 0x100 DUP1 DUP4 SLOAD DIV MUL DUP4 MSTORE SWAP2 PUSH1 0x20 ADD SWAP2 PUSH2 0x4061 JUMP JUMPDEST DUP3 ADD SWAP2 SWAP1 PUSH1 0x0 MSTORE PUSH1 0x20 PUSH1 0x0 KECCAK256 SWAP1 JUMPDEST DUP2 SLOAD DUP2 MSTORE SWAP1 PUSH1 0x1 ADD SWAP1 PUSH1 0x20 ADD DUP1 DUP4 GT PUSH2 0x4044 JUMPI DUP3 SWAP1 SUB PUSH1 0x1F AND DUP3 ADD SWAP2 JUMPDEST POP POP POP POP POP SWAP1 POP PUSH1 0x0 PUSH1 0xE PUSH1 0x0 DUP8 PUSH20 0xFFFFFFFFFFFFFFFFFFFFFFFFFFFFFFFFFFFFFFFF AND PUSH20 0xFFFFFFFFFFFFFFFFFFFFFFFFFFFFFFFFFFFFFFFF AND DUP2 MSTORE PUSH1 0x20 ADD SWAP1 DUP2 MSTORE PUSH1 0x20 ADD PUSH1 0x0 KECCAK256 DUP3 PUSH1 0x40 MLOAD PUSH2 0x40B7 SWAP2 SWAP1 PUSH2 0x5822 JUMP JUMPDEST SWAP1 DUP2 MSTORE PUSH1 0x20 ADD PUSH1 0x40 MLOAD DUP1 SWAP2 SUB SWAP1 KECCAK256 DUP6 DUP6 PUSH1 0x40 MLOAD PUSH2 0x40D5 SWAP3 SWAP2 SWAP1 PUSH2 0x5778 JUMP JUMPDEST SWAP1 DUP2 MSTORE PUSH1 0x20 ADD PUSH1 0x40 MLOAD DUP1 SWAP2 SUB SWAP1 KECCAK256 PUSH1 0x0 PUSH2 0x100 EXP DUP2 SLOAD DUP2 PUSH1 0xFF MUL NOT AND SWAP1 DUP4 ISZERO ISZERO MUL OR SWAP1 SSTORE POP POP POP POP POP POP JUMP JUMPDEST PUSH1 0x0 PUSH1 0x1 PUSH1 0x0 CALLER PUSH20 0xFFFFFFFFFFFFFFFFFFFFFFFFFFFFFFFFFFFFFFFF AND PUSH20 0xFFFFFFFFFFFFFFFFFFFFFFFFFFFFFFFFFFFFFFFF AND DUP2 MSTORE PUSH1 0x20 ADD SWAP1 DUP2 MSTORE PUSH1 0x20 ADD PUSH1 0x0 KECCAK256 DUP1 SLOAD PUSH2 0x414D SWAP1 PUSH2 0x57C0 JUMP JUMPDEST DUP1 PUSH1 0x1F ADD PUSH1 0x20 DUP1 SWAP2 DIV MUL PUSH1 0x20 ADD PUSH1 0x40 MLOAD SWAP1 DUP2 ADD PUSH1 0x40 MSTORE DUP1 SWAP3 SWAP2 SWAP1 DUP2 DUP2 MSTORE PUSH1 0x20 ADD DUP3 DUP1 SLOAD PUSH2 0x4179 SWAP1 PUSH2 0x57C0 JUMP JUMPDEST DUP1 ISZERO PUSH2 0x41C6 JUMPI DUP1 PUSH1 0x1F LT PUSH2 0x419B JUMPI PUSH2 0x100 DUP1 DUP4 SLOAD DIV MUL DUP4 MSTORE SWAP2 PUSH1 0x20 ADD SWAP2 PUSH2 0x41C6 JUMP JUMPDEST DUP3 ADD SWAP2 SWAP1 PUSH1 0x0 MSTORE PUSH1 0x20 PUSH1 0x0 KECCAK256 SWAP1 JUMPDEST DUP2 SLOAD DUP2 MSTORE SWAP1 PUSH1 0x1 ADD SWAP1 PUSH1 0x20 ADD DUP1 DUP4 GT PUSH2 0x41A9 JUMPI DUP3 SWAP1 SUB PUSH1 0x1F AND DUP3 ADD SWAP2 JUMPDEST POP POP POP POP POP SWAP1 POP PUSH1 0x0 PUSH1 0x3 DUP2 GT ISZERO PUSH2 0x41E1 JUMPI PUSH2 0x41E0 PUSH2 0x5312 JUMP JUMPDEST JUMPDEST PUSH1 0x3 DUP3 PUSH1 0x40 MLOAD PUSH2 0x41F1 SWAP2 SWAP1 PUSH2 0x5822 JUMP JUMPDEST SWAP1 DUP2 MSTORE PUSH1 0x20 ADD PUSH1 0x40 MLOAD DUP1 SWAP2 SUB SWAP1 KECCAK256 PUSH1 0x0 SWAP1 SLOAD SWAP1 PUSH2 0x100 EXP SWAP1 DIV PUSH1 0xFF AND PUSH1 0x3 DUP2 GT ISZERO PUSH2 0x421F JUMPI PUSH2 0x421E PUSH2 0x5312 JUMP JUMPDEST JUMPDEST SUB PUSH2 0x4256 JUMPI PUSH1 0x40 MLOAD PUSH32 0x8FA622F500000000000000000000000000000000000000000000000000000000 DUP2 MSTORE PUSH1 0x4 ADD PUSH1 0x40 MLOAD DUP1 SWAP2 SUB SWAP1 REVERT JUMPDEST PUSH1 0x2 PUSH1 0x3 DUP2 GT ISZERO PUSH2 0x426A JUMPI PUSH2 0x4269 PUSH2 0x5312 JUMP JUMPDEST JUMPDEST PUSH1 0x3 DUP3 PUSH1 0x40 MLOAD PUSH2 0x427A SWAP2 SWAP1 PUSH2 0x5822 JUMP JUMPDEST SWAP1 DUP2 MSTORE PUSH1 0x20 ADD PUSH1 0x40 MLOAD DUP1 SWAP2 SUB SWAP1 KECCAK256 PUSH1 0x0 SWAP1 SLOAD SWAP1 PUSH2 0x100 EXP SWAP1 DIV PUSH1 0xFF AND PUSH1 0x3 DUP2 GT ISZERO PUSH2 0x42A8 JUMPI PUSH2 0x42A7 PUSH2 0x5312 JUMP JUMPDEST JUMPDEST EQ PUSH2 0x42DF JUMPI PUSH1 0x40 MLOAD PUSH32 0x8AC8E00B00000000000000000000000000000000000000000000000000000000 DUP2 MSTORE PUSH1 0x4 ADD PUSH1 0x40 MLOAD DUP1 SWAP2 SUB SWAP1 REVERT JUMPDEST DUP6 DUP6 PUSH1 0x0 PUSH1 0x1 DUP2 GT ISZERO PUSH2 0x42F5 JUMPI PUSH2 0x42F4 PUSH2 0x5312 JUMP JUMPDEST JUMPDEST PUSH1 0x8 DUP4 DUP4 PUSH1 0x40 MLOAD PUSH2 0x4307 SWAP3 SWAP2 SWAP1 PUSH2 0x5778 JUMP JUMPDEST SWAP1 DUP2 MSTORE PUSH1 0x20 ADD PUSH1 0x40 MLOAD DUP1 SWAP2 SUB SWAP1 KECCAK256 PUSH1 0x0 SWAP1 SLOAD SWAP1 PUSH2 0x100 EXP SWAP1 DIV PUSH1 0xFF AND PUSH1 0x1 DUP2 GT ISZERO PUSH2 0x4335 JUMPI PUSH2 0x4334 PUSH2 0x5312 JUMP JUMPDEST JUMPDEST SUB PUSH2 0x436C JUMPI PUSH1 0x40 MLOAD PUSH32 0x78DE8BF00000000000000000000000000000000000000000000000000000000 DUP2 MSTORE PUSH1 0x4 ADD PUSH1 0x40 MLOAD DUP1 SWAP2 SUB SWAP1 REVERT JUMPDEST PUSH1 0x0 PUSH1 0x1 PUSH1 0x0 CALLER PUSH20 0xFFFFFFFFFFFFFFFFFFFFFFFFFFFFFFFFFFFFFFFF AND PUSH20 0xFFFFFFFFFFFFFFFFFFFFFFFFFFFFFFFFFFFFFFFF AND DUP2 MSTORE PUSH1 0x20 ADD SWAP1 DUP2 MSTORE PUSH1 0x20 ADD PUSH1 0x0 KECCAK256 DUP1 SLOAD PUSH2 0x43B8 SWAP1 PUSH2 0x57C0 JUMP JUMPDEST DUP1 PUSH1 0x1F ADD PUSH1 0x20 DUP1 SWAP2 DIV MUL PUSH1 0x20 ADD PUSH1 0x40 MLOAD SWAP1 DUP2 ADD PUSH1 0x40 MSTORE DUP1 SWAP3 SWAP2 SWAP1 DUP2 DUP2 MSTORE PUSH1 0x20 ADD DUP3 DUP1 SLOAD PUSH2 0x43E4 SWAP1 PUSH2 0x57C0 JUMP JUMPDEST DUP1 ISZERO PUSH2 0x4431 JUMPI DUP1 PUSH1 0x1F LT PUSH2 0x4406 JUMPI PUSH2 0x100 DUP1 DUP4 SLOAD DIV MUL DUP4 MSTORE SWAP2 PUSH1 0x20 ADD SWAP2 PUSH2 0x4431 JUMP JUMPDEST DUP3 ADD SWAP2 SWAP1 PUSH1 0x0 MSTORE PUSH1 0x20 PUSH1 0x0 KECCAK256 SWAP1 JUMPDEST DUP2 SLOAD DUP2 MSTORE SWAP1 PUSH1 0x1 ADD SWAP1 PUSH1 0x20 ADD DUP1 DUP4 GT PUSH2 0x4414 JUMPI DUP3 SWAP1 SUB PUSH1 0x1F AND DUP3 ADD SWAP2 JUMPDEST POP POP POP POP POP SWAP1 POP PUSH1 0x0 PUSH1 0x9 DUP5 DUP5 PUSH1 0x40 MLOAD PUSH2 0x444C SWAP3 SWAP2 SWAP1 PUSH2 0x5778 JUMP JUMPDEST SWAP1 DUP2 MSTORE PUSH1 0x20 ADD PUSH1 0x40 MLOAD DUP1 SWAP2 SUB SWAP1 KECCAK256 PUSH1 0x40 MLOAD PUSH2 0x4466 SWAP1 PUSH2 0x5934 JUMP JUMPDEST SWAP1 DUP2 MSTORE PUSH1 0x20 ADD PUSH1 0x40 MLOAD DUP1 SWAP2 SUB SWAP1 KECCAK256 DUP1 SLOAD PUSH2 0x447F SWAP1 PUSH2 0x57C0 JUMP JUMPDEST DUP1 PUSH1 0x1F ADD PUSH1 0x20 DUP1 SWAP2 DIV MUL PUSH1 0x20 ADD PUSH1 0x40 MLOAD SWAP1 DUP2 ADD PUSH1 0x40 MSTORE DUP1 SWAP3 SWAP2 SWAP1 DUP2 DUP2 MSTORE PUSH1 0x20 ADD DUP3 DUP1 SLOAD PUSH2 0x44AB SWAP1 PUSH2 0x57C0 JUMP JUMPDEST DUP1 ISZERO PUSH2 0x44F8 JUMPI DUP1 PUSH1 0x1F LT PUSH2 0x44CD JUMPI PUSH2 0x100 DUP1 DUP4 SLOAD DIV MUL DUP4 MSTORE SWAP2 PUSH1 0x20 ADD SWAP2 PUSH2 0x44F8 JUMP JUMPDEST DUP3 ADD SWAP2 SWAP1 PUSH1 0x0 MSTORE PUSH1 0x20 PUSH1 0x0 KECCAK256 SWAP1 JUMPDEST DUP2 SLOAD DUP2 MSTORE SWAP1 PUSH1 0x1 ADD SWAP1 PUSH1 0x20 ADD DUP1 DUP4 GT PUSH2 0x44DB JUMPI DUP3 SWAP1 SUB PUSH1 0x1F AND DUP3 ADD SWAP2 JUMPDEST POP POP POP POP POP SWAP1 POP DUP1 PUSH1 0x40 MLOAD PUSH1 0x20 ADD PUSH2 0x4510 SWAP2 SWAP1 PUSH2 0x5822 JUMP JUMPDEST PUSH1 0x40 MLOAD PUSH1 0x20 DUP2 DUP4 SUB SUB DUP2 MSTORE SWAP1 PUSH1 0x40 MSTORE DUP1 MLOAD SWAP1 PUSH1 0x20 ADD KECCAK256 DUP3 PUSH1 0x40 MLOAD PUSH1 0x20 ADD PUSH2 0x4537 SWAP2 SWAP1 PUSH2 0x5822 JUMP JUMPDEST PUSH1 0x40 MLOAD PUSH1 0x20 DUP2 DUP4 SUB SUB DUP2 MSTORE SWAP1 PUSH1 0x40 MSTORE DUP1 MLOAD SWAP1 PUSH1 0x20 ADD KECCAK256 EQ PUSH2 0x4584 JUMPI PUSH1 0x40 MLOAD PUSH32 0xCA7B7FB200000000000000000000000000000000000000000000000000000000 DUP2 MSTORE PUSH1 0x4 ADD PUSH1 0x40 MLOAD DUP1 SWAP2 SUB SWAP1 REVERT JUMPDEST DUP6 PUSH1 0xB DUP12 DUP12 PUSH1 0x40 MLOAD PUSH2 0x4597 SWAP3 SWAP2 SWAP1 PUSH2 0x5778 JUMP JUMPDEST SWAP1 DUP2 MSTORE PUSH1 0x20 ADD PUSH1 0x40 MLOAD DUP1 SWAP2 SUB SWAP1 KECCAK256 DUP10 DUP10 PUSH1 0x40 MLOAD PUSH2 0x45B5 SWAP3 SWAP2 SWAP1 PUSH2 0x5778 JUMP JUMPDEST SWAP1 DUP2 MSTORE PUSH1 0x20 ADD PUSH1 0x40 MLOAD DUP1 SWAP2 SUB SWAP1 KECCAK256 PUSH1 0x0 PUSH2 0x100 EXP DUP2 SLOAD DUP2 PUSH1 0xFF MUL NOT AND SWAP1 DUP4 ISZERO ISZERO MUL OR SWAP1 SSTORE POP POP POP POP POP POP POP POP POP POP POP JUMP JUMPDEST PUSH1 0x60 PUSH2 0x461E DUP3 TIMESTAMP DIFFICULTY PUSH1 0x40 MLOAD PUSH1 0x20 ADD PUSH2 0x4600 SWAP4 SWAP3 SWAP2 SWAP1 PUSH2 0x5E18 JUMP JUMPDEST PUSH1 0x40 MLOAD PUSH1 0x20 DUP2 DUP4 SUB SUB DUP2 MSTORE SWAP1 PUSH1 0x40 MSTORE DUP1 MLOAD SWAP1 PUSH1 0x20 ADD KECCAK256 PUSH1 0x0 SHR PUSH2 0x496F JUMP JUMPDEST SWAP1 POP SWAP2 SWAP1 POP JUMP JUMPDEST PUSH1 0x0 PUSH1 0x9 DUP5 PUSH1 0x40 MLOAD PUSH2 0x4637 SWAP2 SWAP1 PUSH2 0x5822 JUMP JUMPDEST SWAP1 DUP2 MSTORE PUSH1 0x20 ADD PUSH1 0x40 MLOAD DUP1 SWAP2 SUB SWAP1 KECCAK256 DUP4 PUSH1 0x40 MLOAD PUSH2 0x4653 SWAP2 SWAP1 PUSH2 0x5822 JUMP JUMPDEST SWAP1 DUP2 MSTORE PUSH1 0x20 ADD PUSH1 0x40 MLOAD DUP1 SWAP2 SUB SWAP1 KECCAK256 DUP1 SLOAD PUSH2 0x466C SWAP1 PUSH2 0x57C0 JUMP JUMPDEST DUP1 PUSH1 0x1F ADD PUSH1 0x20 DUP1 SWAP2 DIV MUL PUSH1 0x20 ADD PUSH1 0x40 MLOAD SWAP1 DUP2 ADD PUSH1 0x40 MSTORE DUP1 SWAP3 SWAP2 SWAP1 DUP2 DUP2 MSTORE PUSH1 0x20 ADD DUP3 DUP1 SLOAD PUSH2 0x4698 SWAP1 PUSH2 0x57C0 JUMP JUMPDEST DUP1 ISZERO PUSH2 0x46E5 JUMPI DUP1 PUSH1 0x1F LT PUSH2 0x46BA JUMPI PUSH2 0x100 DUP1 DUP4 SLOAD DIV MUL DUP4 MSTORE SWAP2 PUSH1 0x20 ADD SWAP2 PUSH2 0x46E5 JUMP JUMPDEST DUP3 ADD SWAP2 SWAP1 PUSH1 0x0 MSTORE PUSH1 0x20 PUSH1 0x0 KECCAK256 SWAP1 JUMPDEST DUP2 SLOAD DUP2 MSTORE SWAP1 PUSH1 0x1 ADD SWAP1 PUSH1 0x20 ADD DUP1 DUP4 GT PUSH2 0x46C8 JUMPI DUP3 SWAP1 SUB PUSH1 0x1F AND DUP3 ADD SWAP2 JUMPDEST POP POP POP POP POP SWAP1 POP PUSH1 0x0 DUP2 MLOAD SUB PUSH2 0x4747 JUMPI PUSH1 0xA DUP5 PUSH1 0x40 MLOAD PUSH2 0x4705 SWAP2 SWAP1 PUSH2 0x5822 JUMP JUMPDEST SWAP1 DUP2 MSTORE PUSH1 0x20 ADD PUSH1 0x40 MLOAD DUP1 SWAP2 SUB SWAP1 KECCAK256 DUP4 SWAP1 DUP1 PUSH1 0x1 DUP2 SLOAD ADD DUP1 DUP3 SSTORE DUP1 SWAP2 POP POP PUSH1 0x1 SWAP1 SUB SWAP1 PUSH1 0x0 MSTORE PUSH1 0x20 PUSH1 0x0 KECCAK256 ADD PUSH1 0x0 SWAP1 SWAP2 SWAP1 SWAP2 SWAP1 SWAP2 POP SWAP1 DUP2 PUSH2 0x4745 SWAP2 SWAP1 PUSH2 0x5AEA JUMP JUMPDEST POP JUMPDEST DUP2 PUSH1 0x9 DUP6 PUSH1 0x40 MLOAD PUSH2 0x4758 SWAP2 SWAP1 PUSH2 0x5822 JUMP JUMPDEST SWAP1 DUP2 MSTORE PUSH1 0x20 ADD PUSH1 0x40 MLOAD DUP1 SWAP2 SUB SWAP1 KECCAK256 DUP5 PUSH1 0x40 MLOAD PUSH2 0x4774 SWAP2 SWAP1 PUSH2 0x5822 JUMP JUMPDEST SWAP1 DUP2 MSTORE PUSH1 0x20 ADD PUSH1 0x40 MLOAD DUP1 SWAP2 SUB SWAP1 KECCAK256 SWAP1 DUP2 PUSH2 0x478E SWAP2 SWAP1 PUSH2 0x5AEA JUMP JUMPDEST POP POP POP POP POP JUMP JUMPDEST PUSH1 0x0 PUSH1 0x4 DUP5 PUSH1 0x40 MLOAD PUSH2 0x47A7 SWAP2 SWAP1 PUSH2 0x5822 JUMP JUMPDEST SWAP1 DUP2 MSTORE PUSH1 0x20 ADD PUSH1 0x40 MLOAD DUP1 SWAP2 SUB SWAP1 KECCAK256 DUP4 PUSH1 0x40 MLOAD PUSH2 0x47C3 SWAP2 SWAP1 PUSH2 0x5822 JUMP JUMPDEST SWAP1 DUP2 MSTORE PUSH1 0x20 ADD PUSH1 0x40 MLOAD DUP1 SWAP2 SUB SWAP1 KECCAK256 DUP1 SLOAD PUSH2 0x47DC SWAP1 PUSH2 0x57C0 JUMP JUMPDEST DUP1 PUSH1 0x1F ADD PUSH1 0x20 DUP1 SWAP2 DIV MUL PUSH1 0x20 ADD PUSH1 0x40 MLOAD SWAP1 DUP2 ADD PUSH1 0x40 MSTORE DUP1 SWAP3 SWAP2 SWAP1 DUP2 DUP2 MSTORE PUSH1 0x20 ADD DUP3 DUP1 SLOAD PUSH2 0x4808 SWAP1 PUSH2 0x57C0 JUMP JUMPDEST DUP1 ISZERO PUSH2 0x4855 JUMPI DUP1 PUSH1 0x1F LT PUSH2 0x482A JUMPI PUSH2 0x100 DUP1 DUP4 SLOAD DIV MUL DUP4 MSTORE SWAP2 PUSH1 0x20 ADD SWAP2 PUSH2 0x4855 JUMP JUMPDEST DUP3 ADD SWAP2 SWAP1 PUSH1 0x0 MSTORE PUSH1 0x20 PUSH1 0x0 KECCAK256 SWAP1 JUMPDEST DUP2 SLOAD DUP2 MSTORE SWAP1 PUSH1 0x1 ADD SWAP1 PUSH1 0x20 ADD DUP1 DUP4 GT PUSH2 0x4838 JUMPI DUP3 SWAP1 SUB PUSH1 0x1F AND DUP3 ADD SWAP2 JUMPDEST POP POP POP POP POP SWAP1 POP PUSH1 0x0 DUP2 MLOAD SUB PUSH2 0x48B7 JUMPI PUSH1 0x5 DUP5 PUSH1 0x40 MLOAD PUSH2 0x4875 SWAP2 SWAP1 PUSH2 0x5822 JUMP JUMPDEST SWAP1 DUP2 MSTORE PUSH1 0x20 ADD PUSH1 0x40 MLOAD DUP1 SWAP2 SUB SWAP1 KECCAK256 DUP4 SWAP1 DUP1 PUSH1 0x1 DUP2 SLOAD ADD DUP1 DUP3 SSTORE DUP1 SWAP2 POP POP PUSH1 0x1 SWAP1 SUB SWAP1 PUSH1 0x0 MSTORE PUSH1 0x20 PUSH1 0x0 KECCAK256 ADD PUSH1 0x0 SWAP1 SWAP2 SWAP1 SWAP2 SWAP1 SWAP2 POP SWAP1 DUP2 PUSH2 0x48B5 SWAP2 SWAP1 PUSH2 0x5AEA JUMP JUMPDEST POP JUMPDEST DUP2 PUSH1 0x4 DUP6 PUSH1 0x40 MLOAD PUSH2 0x48C8 SWAP2 SWAP1 PUSH2 0x5822 JUMP JUMPDEST SWAP1 DUP2 MSTORE PUSH1 0x20 ADD PUSH1 0x40 MLOAD DUP1 SWAP2 SUB SWAP1 KECCAK256 DUP5 PUSH1 0x40 MLOAD PUSH2 0x48E4 SWAP2 SWAP1 PUSH2 0x5822 JUMP JUMPDEST SWAP1 DUP2 MSTORE PUSH1 0x20 ADD PUSH1 0x40 MLOAD DUP1 SWAP2 SUB SWAP1 KECCAK256 SWAP1 DUP2 PUSH2 0x48FE SWAP2 SWAP1 PUSH2 0x5AEA JUMP JUMPDEST POP POP POP POP POP JUMP JUMPDEST DUP1 PUSH1 0xC DUP6 PUSH1 0x40 MLOAD PUSH2 0x4916 SWAP2 SWAP1 PUSH2 0x5822 JUMP JUMPDEST SWAP1 DUP2 MSTORE PUSH1 0x20 ADD PUSH1 0x40 MLOAD DUP1 SWAP2 SUB SWAP1 KECCAK256 DUP5 DUP5 PUSH1 0x40 MLOAD PUSH2 0x4934 SWAP3 SWAP2 SWAP1 PUSH2 0x5778 JUMP JUMPDEST SWAP1 DUP2 MSTORE PUSH1 0x20 ADD PUSH1 0x40 MLOAD DUP1 SWAP2 SUB SWAP1 KECCAK256 PUSH1 0x0 PUSH2 0x100 EXP DUP2 SLOAD DUP2 PUSH1 0xFF MUL NOT AND SWAP1 DUP4 PUSH1 0x2 DUP2 GT ISZERO PUSH2 0x4964 JUMPI PUSH2 0x4963 PUSH2 0x5312 JUMP JUMPDEST JUMPDEST MUL OR SWAP1 SSTORE POP POP POP POP POP JUMP JUMPDEST PUSH1 0x60 PUSH2 0x4986 DUP3 PUSH1 0x1 PUSH2 0x4980 DUP6 PUSH2 0x498D JUMP JUMPDEST ADD PUSH2 0x4A1D JUMP JUMPDEST SWAP1 POP SWAP2 SWAP1 POP JUMP JUMPDEST PUSH1 0x0 DUP1 PUSH1 0x0 SWAP1 POP PUSH1 0x0 PUSH1 0x80 DUP5 SWAP1 SHR GT ISZERO PUSH2 0x49AF JUMPI PUSH1 0x80 DUP4 SWAP1 SHR SWAP3 POP PUSH1 0x10 DUP2 ADD SWAP1 POP JUMPDEST PUSH1 0x0 PUSH1 0x40 DUP5 SWAP1 SHR GT ISZERO PUSH2 0x49CA JUMPI PUSH1 0x40 DUP4 SWAP1 SHR SWAP3 POP PUSH1 0x8 DUP2 ADD SWAP1 POP JUMPDEST PUSH1 0x0 PUSH1 0x20 DUP5 SWAP1 SHR GT ISZERO PUSH2 0x49E5 JUMPI PUSH1 0x20 DUP4 SWAP1 SHR SWAP3 POP PUSH1 0x4 DUP2 ADD SWAP1 POP JUMPDEST PUSH1 0x0 PUSH1 0x10 DUP5 SWAP1 SHR GT ISZERO PUSH2 0x4A00 JUMPI PUSH1 0x10 DUP4 SWAP1 SHR SWAP3 POP PUSH1 0x2 DUP2 ADD SWAP1 POP JUMPDEST PUSH1 0x0 PUSH1 0x8 DUP5 SWAP1 SHR GT ISZERO PUSH2 0x4A14 JUMPI PUSH1 0x1 DUP2 ADD SWAP1 POP JUMPDEST DUP1 SWAP2 POP POP SWAP2 SWAP1 POP JUMP JUMPDEST PUSH1 0x60 PUSH1 0x0 PUSH1 0x2 DUP4 PUSH1 0x2 PUSH2 0x4A30 SWAP2 SWAP1 PUSH2 0x5E55 JUMP JUMPDEST PUSH2 0x4A3A SWAP2 SWAP1 PUSH2 0x5E97 JUMP JUMPDEST PUSH8 0xFFFFFFFFFFFFFFFF DUP2 GT ISZERO PUSH2 0x4A53 JUMPI PUSH2 0x4A52 PUSH2 0x4F74 JUMP JUMPDEST JUMPDEST PUSH1 0x40 MLOAD SWAP1 DUP1 DUP3 MSTORE DUP1 PUSH1 0x1F ADD PUSH1 0x1F NOT AND PUSH1 0x20 ADD DUP3 ADD PUSH1 0x40 MSTORE DUP1 ISZERO PUSH2 0x4A85 JUMPI DUP2 PUSH1 0x20 ADD PUSH1 0x1 DUP3 MUL DUP1 CALLDATASIZE DUP4 CALLDATACOPY DUP1 DUP3 ADD SWAP2 POP POP SWAP1 POP JUMPDEST POP SWAP1 POP PUSH32 0x3000000000000000000000000000000000000000000000000000000000000000 DUP2 PUSH1 0x0 DUP2 MLOAD DUP2 LT PUSH2 0x4ABD JUMPI PUSH2 0x4ABC PUSH2 0x5BBC JUMP JUMPDEST JUMPDEST PUSH1 0x20 ADD ADD SWAP1 PUSH31 0xFFFFFFFFFFFFFFFFFFFFFFFFFFFFFFFFFFFFFFFFFFFFFFFFFFFFFFFFFFFFFF NOT AND SWAP1 DUP2 PUSH1 0x0 BYTE SWAP1 MSTORE8 POP PUSH32 0x7800000000000000000000000000000000000000000000000000000000000000 DUP2 PUSH1 0x1 DUP2 MLOAD DUP2 LT PUSH2 0x4B21 JUMPI PUSH2 0x4B20 PUSH2 0x5BBC JUMP JUMPDEST JUMPDEST PUSH1 0x20 ADD ADD SWAP1 PUSH31 0xFFFFFFFFFFFFFFFFFFFFFFFFFFFFFFFFFFFFFFFFFFFFFFFFFFFFFFFFFFFFFF NOT AND SWAP1 DUP2 PUSH1 0x0 BYTE SWAP1 MSTORE8 POP PUSH1 0x0 PUSH1 0x1 DUP5 PUSH1 0x2 PUSH2 0x4B61 SWAP2 SWAP1 PUSH2 0x5E55 JUMP JUMPDEST PUSH2 0x4B6B SWAP2 SWAP1 PUSH2 0x5E97 JUMP JUMPDEST SWAP1 POP JUMPDEST PUSH1 0x1 DUP2 GT ISZERO PUSH2 0x4C0B JUMPI PUSH32 0x3031323334353637383961626364656600000000000000000000000000000000 PUSH1 0xF DUP7 AND PUSH1 0x10 DUP2 LT PUSH2 0x4BAD JUMPI PUSH2 0x4BAC PUSH2 0x5BBC JUMP JUMPDEST JUMPDEST BYTE PUSH1 0xF8 SHL DUP3 DUP3 DUP2 MLOAD DUP2 LT PUSH2 0x4BC4 JUMPI PUSH2 0x4BC3 PUSH2 0x5BBC JUMP JUMPDEST JUMPDEST PUSH1 0x20 ADD ADD SWAP1 PUSH31 0xFFFFFFFFFFFFFFFFFFFFFFFFFFFFFFFFFFFFFFFFFFFFFFFFFFFFFFFFFFFFFF NOT AND SWAP1 DUP2 PUSH1 0x0 BYTE SWAP1 MSTORE8 POP PUSH1 0x4 DUP6 SWAP1 SHR SWAP5 POP DUP1 PUSH2 0x4C04 SWAP1 PUSH2 0x5ECB JUMP JUMPDEST SWAP1 POP PUSH2 0x4B6E JUMP JUMPDEST POP PUSH1 0x0 DUP5 EQ PUSH2 0x4C4F JUMPI PUSH1 0x40 MLOAD PUSH32 0x8C379A000000000000000000000000000000000000000000000000000000000 DUP2 MSTORE PUSH1 0x4 ADD PUSH2 0x4C46 SWAP1 PUSH2 0x5F40 JUMP JUMPDEST PUSH1 0x40 MLOAD DUP1 SWAP2 SUB SWAP1 REVERT JUMPDEST DUP1 SWAP2 POP POP SWAP3 SWAP2 POP POP JUMP JUMPDEST PUSH1 0x0 PUSH1 0x40 MLOAD SWAP1 POP SWAP1 JUMP JUMPDEST PUSH1 0x0 DUP1 REVERT JUMPDEST PUSH1 0x0 DUP1 REVERT JUMPDEST PUSH1 0x0 PUSH20 0xFFFFFFFFFFFFFFFFFFFFFFFFFFFFFFFFFFFFFFFF DUP3 AND SWAP1 POP SWAP2 SWAP1 POP JUMP JUMPDEST PUSH1 0x0 PUSH2 0x4C98 DUP3 PUSH2 0x4C6D JUMP JUMPDEST SWAP1 POP SWAP2 SWAP1 POP JUMP JUMPDEST PUSH2 0x4CA8 DUP2 PUSH2 0x4C8D JUMP JUMPDEST DUP2 EQ PUSH2 0x4CB3 JUMPI PUSH1 0x0 DUP1 REVERT JUMPDEST POP JUMP JUMPDEST PUSH1 0x0 DUP2 CALLDATALOAD SWAP1 POP PUSH2 0x4CC5 DUP2 PUSH2 0x4C9F JUMP JUMPDEST SWAP3 SWAP2 POP POP JUMP JUMPDEST PUSH1 0x0 DUP1 REVERT JUMPDEST PUSH1 0x0 DUP1 REVERT JUMPDEST PUSH1 0x0 DUP1 REVERT JUMPDEST PUSH1 0x0 DUP1 DUP4 PUSH1 0x1F DUP5 ADD SLT PUSH2 0x4CF0 JUMPI PUSH2 0x4CEF PUSH2 0x4CCB JUMP JUMPDEST JUMPDEST DUP3 CALLDATALOAD SWAP1 POP PUSH8 0xFFFFFFFFFFFFFFFF DUP2 GT ISZERO PUSH2 0x4D0D JUMPI PUSH2 0x4D0C PUSH2 0x4CD0 JUMP JUMPDEST JUMPDEST PUSH1 0x20 DUP4 ADD SWAP2 POP DUP4 PUSH1 0x1 DUP3 MUL DUP4 ADD GT ISZERO PUSH2 0x4D29 JUMPI PUSH2 0x4D28 PUSH2 0x4CD5 JUMP JUMPDEST JUMPDEST SWAP3 POP SWAP3 SWAP1 POP JUMP JUMPDEST PUSH1 0x0 DUP1 PUSH1 0x0 DUP1 PUSH1 0x0 PUSH1 0x60 DUP7 DUP9 SUB SLT ISZERO PUSH2 0x4D4C JUMPI PUSH2 0x4D4B PUSH2 0x4C63 JUMP JUMPDEST JUMPDEST PUSH1 0x0 PUSH2 0x4D5A DUP9 DUP3 DUP10 ADD PUSH2 0x4CB6 JUMP JUMPDEST SWAP6 POP POP PUSH1 0x20 DUP7 ADD CALLDATALOAD PUSH8 0xFFFFFFFFFFFFFFFF DUP2 GT ISZERO PUSH2 0x4D7B JUMPI PUSH2 0x4D7A PUSH2 0x4C68 JUMP JUMPDEST JUMPDEST PUSH2 0x4D87 DUP9 DUP3 DUP10 ADD PUSH2 0x4CDA JUMP JUMPDEST SWAP5 POP SWAP5 POP POP PUSH1 0x40 DUP7 ADD CALLDATALOAD PUSH8 0xFFFFFFFFFFFFFFFF DUP2 GT ISZERO PUSH2 0x4DAA JUMPI PUSH2 0x4DA9 PUSH2 0x4C68 JUMP JUMPDEST JUMPDEST PUSH2 0x4DB6 DUP9 DUP3 DUP10 ADD PUSH2 0x4CDA JUMP JUMPDEST SWAP3 POP SWAP3 POP POP SWAP3 SWAP6 POP SWAP3 SWAP6 SWAP1 SWAP4 POP JUMP JUMPDEST PUSH1 0x0 DUP2 ISZERO ISZERO SWAP1 POP SWAP2 SWAP1 POP JUMP JUMPDEST PUSH2 0x4DDA DUP2 PUSH2 0x4DC5 JUMP JUMPDEST DUP3 MSTORE POP POP JUMP JUMPDEST PUSH1 0x0 PUSH1 0x20 DUP3 ADD SWAP1 POP PUSH2 0x4DF5 PUSH1 0x0 DUP4 ADD DUP5 PUSH2 0x4DD1 JUMP JUMPDEST SWAP3 SWAP2 POP POP JUMP JUMPDEST PUSH1 0x0 DUP2 MLOAD SWAP1 POP SWAP2 SWAP1 POP JUMP JUMPDEST PUSH1 0x0 DUP3 DUP3 MSTORE PUSH1 0x20 DUP3 ADD SWAP1 POP SWAP3 SWAP2 POP POP JUMP JUMPDEST PUSH1 0x0 DUP2 SWAP1 POP PUSH1 0x20 DUP3 ADD SWAP1 POP SWAP2 SWAP1 POP JUMP JUMPDEST PUSH1 0x0 DUP2 MLOAD SWAP1 POP SWAP2 SWAP1 POP JUMP JUMPDEST PUSH1 0x0 DUP3 DUP3 MSTORE PUSH1 0x20 DUP3 ADD SWAP1 POP SWAP3 SWAP2 POP POP JUMP JUMPDEST PUSH1 0x0 JUMPDEST DUP4 DUP2 LT ISZERO PUSH2 0x4E61 JUMPI DUP1 DUP3 ADD MLOAD DUP2 DUP5 ADD MSTORE PUSH1 0x20 DUP2 ADD SWAP1 POP PUSH2 0x4E46 JUMP JUMPDEST PUSH1 0x0 DUP5 DUP5 ADD MSTORE POP POP POP POP JUMP JUMPDEST PUSH1 0x0 PUSH1 0x1F NOT PUSH1 0x1F DUP4 ADD AND SWAP1 POP SWAP2 SWAP1 POP JUMP JUMPDEST PUSH1 0x0 PUSH2 0x4E89 DUP3 PUSH2 0x4E27 JUMP JUMPDEST PUSH2 0x4E93 DUP2 DUP6 PUSH2 0x4E32 JUMP JUMPDEST SWAP4 POP PUSH2 0x4EA3 DUP2 DUP6 PUSH1 0x20 DUP7 ADD PUSH2 0x4E43 JUMP JUMPDEST PUSH2 0x4EAC DUP2 PUSH2 0x4E6D JUMP JUMPDEST DUP5 ADD SWAP2 POP POP SWAP3 SWAP2 POP POP JUMP JUMPDEST PUSH1 0x0 PUSH2 0x4EC3 DUP4 DUP4 PUSH2 0x4E7E JUMP JUMPDEST SWAP1 POP SWAP3 SWAP2 POP POP JUMP JUMPDEST PUSH1 0x0 PUSH1 0x20 DUP3 ADD SWAP1 POP SWAP2 SWAP1 POP JUMP JUMPDEST PUSH1 0x0 PUSH2 0x4EE3 DUP3 PUSH2 0x4DFB JUMP JUMPDEST PUSH2 0x4EED DUP2 DUP6 PUSH2 0x4E06 JUMP JUMPDEST SWAP4 POP DUP4 PUSH1 0x20 DUP3 MUL DUP6 ADD PUSH2 0x4EFF DUP6 PUSH2 0x4E17 JUMP JUMPDEST DUP1 PUSH1 0x0 JUMPDEST DUP6 DUP2 LT ISZERO PUSH2 0x4F3B JUMPI DUP5 DUP5 SUB DUP10 MSTORE DUP2 MLOAD PUSH2 0x4F1C DUP6 DUP3 PUSH2 0x4EB7 JUMP JUMPDEST SWAP5 POP PUSH2 0x4F27 DUP4 PUSH2 0x4ECB JUMP JUMPDEST SWAP3 POP PUSH1 0x20 DUP11 ADD SWAP10 POP POP PUSH1 0x1 DUP2 ADD SWAP1 POP PUSH2 0x4F03 JUMP JUMPDEST POP DUP3 SWAP8 POP DUP8 SWAP6 POP POP POP POP POP POP SWAP3 SWAP2 POP POP JUMP JUMPDEST PUSH1 0x0 PUSH1 0x20 DUP3 ADD SWAP1 POP DUP2 DUP2 SUB PUSH1 0x0 DUP4 ADD MSTORE PUSH2 0x4F67 DUP2 DUP5 PUSH2 0x4ED8 JUMP JUMPDEST SWAP1 POP SWAP3 SWAP2 POP POP JUMP JUMPDEST PUSH1 0x0 DUP1 REVERT JUMPDEST PUSH32 0x4E487B7100000000000000000000000000000000000000000000000000000000 PUSH1 0x0 MSTORE PUSH1 0x41 PUSH1 0x4 MSTORE PUSH1 0x24 PUSH1 0x0 REVERT JUMPDEST PUSH2 0x4FAC DUP3 PUSH2 0x4E6D JUMP JUMPDEST DUP2 ADD DUP2 DUP2 LT PUSH8 0xFFFFFFFFFFFFFFFF DUP3 GT OR ISZERO PUSH2 0x4FCB JUMPI PUSH2 0x4FCA PUSH2 0x4F74 JUMP JUMPDEST JUMPDEST DUP1 PUSH1 0x40 MSTORE POP POP POP JUMP JUMPDEST PUSH1 0x0 PUSH2 0x4FDE PUSH2 0x4C59 JUMP JUMPDEST SWAP1 POP PUSH2 0x4FEA DUP3 DUP3 PUSH2 0x4FA3 JUMP JUMPDEST SWAP2 SWAP1 POP JUMP JUMPDEST PUSH1 0x0 PUSH8 0xFFFFFFFFFFFFFFFF DUP3 GT ISZERO PUSH2 0x500A JUMPI PUSH2 0x5009 PUSH2 0x4F74 JUMP JUMPDEST JUMPDEST PUSH2 0x5013 DUP3 PUSH2 0x4E6D JUMP JUMPDEST SWAP1 POP PUSH1 0x20 DUP2 ADD SWAP1 POP SWAP2 SWAP1 POP JUMP JUMPDEST DUP3 DUP2 DUP4 CALLDATACOPY PUSH1 0x0 DUP4 DUP4 ADD MSTORE POP POP POP JUMP JUMPDEST PUSH1 0x0 PUSH2 0x5042 PUSH2 0x503D DUP5 PUSH2 0x4FEF JUMP JUMPDEST PUSH2 0x4FD4 JUMP JUMPDEST SWAP1 POP DUP3 DUP2 MSTORE PUSH1 0x20 DUP2 ADD DUP5 DUP5 DUP5 ADD GT ISZERO PUSH2 0x505E JUMPI PUSH2 0x505D PUSH2 0x4F6F JUMP JUMPDEST JUMPDEST PUSH2 0x5069 DUP5 DUP3 DUP6 PUSH2 0x5020 JUMP JUMPDEST POP SWAP4 SWAP3 POP POP POP JUMP JUMPDEST PUSH1 0x0 DUP3 PUSH1 0x1F DUP4 ADD SLT PUSH2 0x5086 JUMPI PUSH2 0x5085 PUSH2 0x4CCB JUMP JUMPDEST JUMPDEST DUP2 CALLDATALOAD PUSH2 0x5096 DUP5 DUP3 PUSH1 0x20 DUP7 ADD PUSH2 0x502F JUMP JUMPDEST SWAP2 POP POP SWAP3 SWAP2 POP POP JUMP JUMPDEST PUSH1 0x0 DUP1 PUSH1 0x40 DUP4 DUP6 SUB SLT ISZERO PUSH2 0x50B6 JUMPI PUSH2 0x50B5 PUSH2 0x4C63 JUMP JUMPDEST JUMPDEST PUSH1 0x0 DUP4 ADD CALLDATALOAD PUSH8 0xFFFFFFFFFFFFFFFF DUP2 GT ISZERO PUSH2 0x50D4 JUMPI PUSH2 0x50D3 PUSH2 0x4C68 JUMP JUMPDEST JUMPDEST PUSH2 0x50E0 DUP6 DUP3 DUP7 ADD PUSH2 0x5071 JUMP JUMPDEST SWAP3 POP POP PUSH1 0x20 DUP4 ADD CALLDATALOAD PUSH8 0xFFFFFFFFFFFFFFFF DUP2 GT ISZERO PUSH2 0x5101 JUMPI PUSH2 0x5100 PUSH2 0x4C68 JUMP JUMPDEST JUMPDEST PUSH2 0x510D DUP6 DUP3 DUP7 ADD PUSH2 0x5071 JUMP JUMPDEST SWAP2 POP POP SWAP3 POP SWAP3 SWAP1 POP JUMP JUMPDEST PUSH1 0x0 DUP1 PUSH1 0x20 DUP4 DUP6 SUB SLT ISZERO PUSH2 0x512E JUMPI PUSH2 0x512D PUSH2 0x4C63 JUMP JUMPDEST JUMPDEST PUSH1 0x0 DUP4 ADD CALLDATALOAD PUSH8 0xFFFFFFFFFFFFFFFF DUP2 GT ISZERO PUSH2 0x514C JUMPI PUSH2 0x514B PUSH2 0x4C68 JUMP JUMPDEST JUMPDEST PUSH2 0x5158 DUP6 DUP3 DUP7 ADD PUSH2 0x4CDA JUMP JUMPDEST SWAP3 POP SWAP3 POP POP SWAP3 POP SWAP3 SWAP1 POP JUMP JUMPDEST PUSH2 0x516D DUP2 PUSH2 0x4DC5 JUMP JUMPDEST DUP2 EQ PUSH2 0x5178 JUMPI PUSH1 0x0 DUP1 REVERT JUMPDEST POP JUMP JUMPDEST PUSH1 0x0 DUP2 CALLDATALOAD SWAP1 POP PUSH2 0x518A DUP2 PUSH2 0x5164 JUMP JUMPDEST SWAP3 SWAP2 POP POP JUMP JUMPDEST PUSH1 0x0 DUP1 PUSH1 0x0 DUP1 PUSH1 0x0 PUSH1 0x60 DUP7 DUP9 SUB SLT ISZERO PUSH2 0x51AC JUMPI PUSH2 0x51AB PUSH2 0x4C63 JUMP JUMPDEST JUMPDEST PUSH1 0x0 DUP7 ADD CALLDATALOAD PUSH8 0xFFFFFFFFFFFFFFFF DUP2 GT ISZERO PUSH2 0x51CA JUMPI PUSH2 0x51C9 PUSH2 0x4C68 JUMP JUMPDEST JUMPDEST PUSH2 0x51D6 DUP9 DUP3 DUP10 ADD PUSH2 0x4CDA JUMP JUMPDEST SWAP6 POP SWAP6 POP POP PUSH1 0x20 DUP7 ADD CALLDATALOAD PUSH8 0xFFFFFFFFFFFFFFFF DUP2 GT ISZERO PUSH2 0x51F9 JUMPI PUSH2 0x51F8 PUSH2 0x4C68 JUMP JUMPDEST JUMPDEST PUSH2 0x5205 DUP9 DUP3 DUP10 ADD PUSH2 0x4CDA JUMP JUMPDEST SWAP4 POP SWAP4 POP POP PUSH1 0x40 PUSH2 0x5218 DUP9 DUP3 DUP10 ADD PUSH2 0x517B JUMP JUMPDEST SWAP2 POP POP SWAP3 SWAP6 POP SWAP3 SWAP6 SWAP1 SWAP4 POP JUMP JUMPDEST PUSH1 0x0 DUP3 DUP3 MSTORE PUSH1 0x20 DUP3 ADD SWAP1 POP SWAP3 SWAP2 POP POP JUMP JUMPDEST PUSH1 0x0 PUSH2 0x5241 DUP3 PUSH2 0x4E27 JUMP JUMPDEST PUSH2 0x524B DUP2 DUP6 PUSH2 0x5225 JUMP JUMPDEST SWAP4 POP PUSH2 0x525B DUP2 DUP6 PUSH1 0x20 DUP7 ADD PUSH2 0x4E43 JUMP JUMPDEST PUSH2 0x5264 DUP2 PUSH2 0x4E6D JUMP JUMPDEST DUP5 ADD SWAP2 POP POP SWAP3 SWAP2 POP POP JUMP JUMPDEST PUSH1 0x0 PUSH1 0x20 DUP3 ADD SWAP1 POP DUP2 DUP2 SUB PUSH1 0x0 DUP4 ADD MSTORE PUSH2 0x5289 DUP2 DUP5 PUSH2 0x5236 JUMP JUMPDEST SWAP1 POP SWAP3 SWAP2 POP POP JUMP JUMPDEST PUSH1 0x0 DUP1 PUSH1 0x0 DUP1 PUSH1 0x40 DUP6 DUP8 SUB SLT ISZERO PUSH2 0x52AB JUMPI PUSH2 0x52AA PUSH2 0x4C63 JUMP JUMPDEST JUMPDEST PUSH1 0x0 DUP6 ADD CALLDATALOAD PUSH8 0xFFFFFFFFFFFFFFFF DUP2 GT ISZERO PUSH2 0x52C9 JUMPI PUSH2 0x52C8 PUSH2 0x4C68 JUMP JUMPDEST JUMPDEST PUSH2 0x52D5 DUP8 DUP3 DUP9 ADD PUSH2 0x4CDA JUMP JUMPDEST SWAP5 POP SWAP5 POP POP PUSH1 0x20 DUP6 ADD CALLDATALOAD PUSH8 0xFFFFFFFFFFFFFFFF DUP2 GT ISZERO PUSH2 0x52F8 JUMPI PUSH2 0x52F7 PUSH2 0x4C68 JUMP JUMPDEST JUMPDEST PUSH2 0x5304 DUP8 DUP3 DUP9 ADD PUSH2 0x4CDA JUMP JUMPDEST SWAP3 POP SWAP3 POP POP SWAP3 SWAP6 SWAP2 SWAP5 POP SWAP3 POP JUMP JUMPDEST PUSH32 0x4E487B7100000000000000000000000000000000000000000000000000000000 PUSH1 0x0 MSTORE PUSH1 0x21 PUSH1 0x4 MSTORE PUSH1 0x24 PUSH1 0x0 REVERT JUMPDEST PUSH1 0x2 DUP2 LT PUSH2 0x5352 JUMPI PUSH2 0x5351 PUSH2 0x5312 JUMP JUMPDEST JUMPDEST POP JUMP JUMPDEST PUSH1 0x0 DUP2 SWAP1 POP PUSH2 0x5363 DUP3 PUSH2 0x5341 JUMP JUMPDEST SWAP2 SWAP1 POP JUMP JUMPDEST PUSH1 0x0 PUSH2 0x5373 DUP3 PUSH2 0x5355 JUMP JUMPDEST SWAP1 POP SWAP2 SWAP1 POP JUMP JUMPDEST PUSH2 0x5383 DUP2 PUSH2 0x5368 JUMP JUMPDEST DUP3 MSTORE POP POP JUMP JUMPDEST PUSH1 0x0 PUSH1 0x20 DUP3 ADD SWAP1 POP PUSH2 0x539E PUSH1 0x0 DUP4 ADD DUP5 PUSH2 0x537A JUMP JUMPDEST SWAP3 SWAP2 POP POP JUMP JUMPDEST PUSH1 0x0 DUP1 PUSH1 0x0 DUP1 PUSH1 0x0 DUP1 PUSH1 0x0 PUSH1 0x80 DUP9 DUP11 SUB SLT ISZERO PUSH2 0x53C3 JUMPI PUSH2 0x53C2 PUSH2 0x4C63 JUMP JUMPDEST JUMPDEST PUSH1 0x0 PUSH2 0x53D1 DUP11 DUP3 DUP12 ADD PUSH2 0x4CB6 JUMP JUMPDEST SWAP8 POP POP PUSH1 0x20 DUP9 ADD CALLDATALOAD PUSH8 0xFFFFFFFFFFFFFFFF DUP2 GT ISZERO PUSH2 0x53F2 JUMPI PUSH2 0x53F1 PUSH2 0x4C68 JUMP JUMPDEST JUMPDEST PUSH2 0x53FE DUP11 DUP3 DUP12 ADD PUSH2 0x4CDA JUMP JUMPDEST SWAP7 POP SWAP7 POP POP PUSH1 0x40 DUP9 ADD CALLDATALOAD PUSH8 0xFFFFFFFFFFFFFFFF DUP2 GT ISZERO PUSH2 0x5421 JUMPI PUSH2 0x5420 PUSH2 0x4C68 JUMP JUMPDEST JUMPDEST PUSH2 0x542D DUP11 DUP3 DUP12 ADD PUSH2 0x4CDA JUMP JUMPDEST SWAP5 POP SWAP5 POP POP PUSH1 0x60 DUP9 ADD CALLDATALOAD PUSH8 0xFFFFFFFFFFFFFFFF DUP2 GT ISZERO PUSH2 0x5450 JUMPI PUSH2 0x544F PUSH2 0x4C68 JUMP JUMPDEST JUMPDEST PUSH2 0x545C DUP11 DUP3 DUP12 ADD PUSH2 0x4CDA JUMP JUMPDEST SWAP3 POP SWAP3 POP POP SWAP3 SWAP6 SWAP9 SWAP2 SWAP5 SWAP8 POP SWAP3 SWAP6 POP JUMP JUMPDEST PUSH2 0x5476 DUP2 PUSH2 0x4C8D JUMP JUMPDEST DUP3 MSTORE POP POP JUMP JUMPDEST PUSH1 0x0 PUSH1 0x20 DUP3 ADD SWAP1 POP PUSH2 0x5491 PUSH1 0x0 DUP4 ADD DUP5 PUSH2 0x546D JUMP JUMPDEST SWAP3 SWAP2 POP POP JUMP JUMPDEST PUSH1 0x0 DUP1 DUP4 PUSH1 0x1F DUP5 ADD SLT PUSH2 0x54AD JUMPI PUSH2 0x54AC PUSH2 0x4CCB JUMP JUMPDEST JUMPDEST DUP3 CALLDATALOAD SWAP1 POP PUSH8 0xFFFFFFFFFFFFFFFF DUP2 GT ISZERO PUSH2 0x54CA JUMPI PUSH2 0x54C9 PUSH2 0x4CD0 JUMP JUMPDEST JUMPDEST PUSH1 0x20 DUP4 ADD SWAP2 POP DUP4 PUSH1 0x20 DUP3 MUL DUP4 ADD GT ISZERO PUSH2 0x54E6 JUMPI PUSH2 0x54E5 PUSH2 0x4CD5 JUMP JUMPDEST JUMPDEST SWAP3 POP SWAP3 SWAP1 POP JUMP JUMPDEST PUSH1 0x0 DUP1 PUSH1 0x0 DUP1 PUSH1 0x0 DUP1 PUSH1 0x60 DUP8 DUP10 SUB SLT ISZERO PUSH2 0x550A JUMPI PUSH2 0x5509 PUSH2 0x4C63 JUMP JUMPDEST JUMPDEST PUSH1 0x0 DUP8 ADD CALLDATALOAD PUSH8 0xFFFFFFFFFFFFFFFF DUP2 GT ISZERO PUSH2 0x5528 JUMPI PUSH2 0x5527 PUSH2 0x4C68 JUMP JUMPDEST JUMPDEST PUSH2 0x5534 DUP10 DUP3 DUP11 ADD PUSH2 0x4CDA JUMP JUMPDEST SWAP7 POP SWAP7 POP POP PUSH1 0x20 DUP8 ADD CALLDATALOAD PUSH8 0xFFFFFFFFFFFFFFFF DUP2 GT ISZERO PUSH2 0x5557 JUMPI PUSH2 0x5556 PUSH2 0x4C68 JUMP JUMPDEST JUMPDEST PUSH2 0x5563 DUP10 DUP3 DUP11 ADD PUSH2 0x5497 JUMP JUMPDEST SWAP5 POP SWAP5 POP POP PUSH1 0x40 DUP8 ADD CALLDATALOAD PUSH8 0xFFFFFFFFFFFFFFFF DUP2 GT ISZERO PUSH2 0x5586 JUMPI PUSH2 0x5585 PUSH2 0x4C68 JUMP JUMPDEST JUMPDEST PUSH2 0x5592 DUP10 DUP3 DUP11 ADD PUSH2 0x5497 JUMP JUMPDEST SWAP3 POP SWAP3 POP POP SWAP3 SWAP6 POP SWAP3 SWAP6 POP SWAP3 SWAP6 JUMP JUMPDEST PUSH1 0x0 DUP1 PUSH1 0x0 PUSH1 0x40 DUP5 DUP7 SUB SLT ISZERO PUSH2 0x55BA JUMPI PUSH2 0x55B9 PUSH2 0x4C63 JUMP JUMPDEST JUMPDEST PUSH1 0x0 PUSH2 0x55C8 DUP7 DUP3 DUP8 ADD PUSH2 0x4CB6 JUMP JUMPDEST SWAP4 POP POP PUSH1 0x20 DUP5 ADD CALLDATALOAD PUSH8 0xFFFFFFFFFFFFFFFF DUP2 GT ISZERO PUSH2 0x55E9 JUMPI PUSH2 0x55E8 PUSH2 0x4C68 JUMP JUMPDEST JUMPDEST PUSH2 0x55F5 DUP7 DUP3 DUP8 ADD PUSH2 0x4CDA JUMP JUMPDEST SWAP3 POP SWAP3 POP POP SWAP3 POP SWAP3 POP SWAP3 JUMP JUMPDEST PUSH1 0x0 DUP1 PUSH1 0x0 DUP1 PUSH1 0x40 DUP6 DUP8 SUB SLT ISZERO PUSH2 0x561B JUMPI PUSH2 0x561A PUSH2 0x4C63 JUMP JUMPDEST JUMPDEST PUSH1 0x0 DUP6 ADD CALLDATALOAD PUSH8 0xFFFFFFFFFFFFFFFF DUP2 GT ISZERO PUSH2 0x5639 JUMPI PUSH2 0x5638 PUSH2 0x4C68 JUMP JUMPDEST JUMPDEST PUSH2 0x5645 DUP8 DUP3 DUP9 ADD PUSH2 0x5497 JUMP JUMPDEST SWAP5 POP SWAP5 POP POP PUSH1 0x20 DUP6 ADD CALLDATALOAD PUSH8 0xFFFFFFFFFFFFFFFF DUP2 GT ISZERO PUSH2 0x5668 JUMPI PUSH2 0x5667 PUSH2 0x4C68 JUMP JUMPDEST JUMPDEST PUSH2 0x5674 DUP8 DUP3 DUP9 ADD PUSH2 0x5497 JUMP JUMPDEST SWAP3 POP SWAP3 POP POP SWAP3 SWAP6 SWAP2 SWAP5 POP SWAP3 POP JUMP JUMPDEST PUSH1 0x4 DUP2 LT PUSH2 0x5693 JUMPI PUSH2 0x5692 PUSH2 0x5312 JUMP JUMPDEST JUMPDEST POP JUMP JUMPDEST PUSH1 0x0 DUP2 SWAP1 POP PUSH2 0x56A4 DUP3 PUSH2 0x5682 JUMP JUMPDEST SWAP2 SWAP1 POP JUMP JUMPDEST PUSH1 0x0 PUSH2 0x56B4 DUP3 PUSH2 0x5696 JUMP JUMPDEST SWAP1 POP SWAP2 SWAP1 POP JUMP JUMPDEST PUSH2 0x56C4 DUP2 PUSH2 0x56A9 JUMP JUMPDEST DUP3 MSTORE POP POP JUMP JUMPDEST PUSH1 0x0 PUSH1 0x20 DUP3 ADD SWAP1 POP PUSH2 0x56DF PUSH1 0x0 DUP4 ADD DUP5 PUSH2 0x56BB JUMP JUMPDEST SWAP3 SWAP2 POP POP JUMP JUMPDEST PUSH1 0x3 DUP2 LT PUSH2 0x56F6 JUMPI PUSH2 0x56F5 PUSH2 0x5312 JUMP JUMPDEST JUMPDEST POP JUMP JUMPDEST PUSH1 0x0 DUP2 SWAP1 POP PUSH2 0x5707 DUP3 PUSH2 0x56E5 JUMP JUMPDEST SWAP2 SWAP1 POP JUMP JUMPDEST PUSH1 0x0 PUSH2 0x5717 DUP3 PUSH2 0x56F9 JUMP JUMPDEST SWAP1 POP SWAP2 SWAP1 POP JUMP JUMPDEST PUSH2 0x5727 DUP2 PUSH2 0x570C JUMP JUMPDEST DUP3 MSTORE POP POP JUMP JUMPDEST PUSH1 0x0 PUSH1 0x20 DUP3 ADD SWAP1 POP PUSH2 0x5742 PUSH1 0x0 DUP4 ADD DUP5 PUSH2 0x571E JUMP JUMPDEST SWAP3 SWAP2 POP POP JUMP JUMPDEST PUSH1 0x0 DUP2 SWAP1 POP SWAP3 SWAP2 POP POP JUMP JUMPDEST PUSH1 0x0 PUSH2 0x575F DUP4 DUP6 PUSH2 0x5748 JUMP JUMPDEST SWAP4 POP PUSH2 0x576C DUP4 DUP6 DUP5 PUSH2 0x5020 JUMP JUMPDEST DUP3 DUP5 ADD SWAP1 POP SWAP4 SWAP3 POP POP POP JUMP JUMPDEST PUSH1 0x0 PUSH2 0x5785 DUP3 DUP5 DUP7 PUSH2 0x5753 JUMP JUMPDEST SWAP2 POP DUP2 SWAP1 POP SWAP4 SWAP3 POP POP POP JUMP JUMPDEST PUSH32 0x4E487B7100000000000000000000000000000000000000000000000000000000 PUSH1 0x0 MSTORE PUSH1 0x22 PUSH1 0x4 MSTORE PUSH1 0x24 PUSH1 0x0 REVERT JUMPDEST PUSH1 0x0 PUSH1 0x2 DUP3 DIV SWAP1 POP PUSH1 0x1 DUP3 AND DUP1 PUSH2 0x57D8 JUMPI PUSH1 0x7F DUP3 AND SWAP2 POP JUMPDEST PUSH1 0x20 DUP3 LT DUP2 SUB PUSH2 0x57EB JUMPI PUSH2 0x57EA PUSH2 0x5791 JUMP JUMPDEST JUMPDEST POP SWAP2 SWAP1 POP JUMP JUMPDEST PUSH1 0x0 PUSH2 0x57FC DUP3 PUSH2 0x4E27 JUMP JUMPDEST PUSH2 0x5806 DUP2 DUP6 PUSH2 0x5748 JUMP JUMPDEST SWAP4 POP PUSH2 0x5816 DUP2 DUP6 PUSH1 0x20 DUP7 ADD PUSH2 0x4E43 JUMP JUMPDEST DUP1 DUP5 ADD SWAP2 POP POP SWAP3 SWAP2 POP POP JUMP JUMPDEST PUSH1 0x0 PUSH2 0x582E DUP3 DUP5 PUSH2 0x57F1 JUMP JUMPDEST SWAP2 POP DUP2 SWAP1 POP SWAP3 SWAP2 POP POP JUMP JUMPDEST PUSH1 0x0 DUP2 SWAP1 POP DUP2 PUSH1 0x0 MSTORE PUSH1 0x20 PUSH1 0x0 KECCAK256 SWAP1 POP SWAP2 SWAP1 POP JUMP JUMPDEST PUSH1 0x0 DUP2 SLOAD PUSH2 0x585B DUP2 PUSH2 0x57C0 JUMP JUMPDEST PUSH2 0x5865 DUP2 DUP7 PUSH2 0x5748 JUMP JUMPDEST SWAP5 POP PUSH1 0x1 DUP3 AND PUSH1 0x0 DUP2 EQ PUSH2 0x5880 JUMPI PUSH1 0x1 DUP2 EQ PUSH2 0x5895 JUMPI PUSH2 0x58C8 JUMP JUMPDEST PUSH1 0xFF NOT DUP4 AND DUP7 MSTORE DUP2 ISZERO ISZERO DUP3 MUL DUP7 ADD SWAP4 POP PUSH2 0x58C8 JUMP JUMPDEST PUSH2 0x589E DUP6 PUSH2 0x5839 JUMP JUMPDEST PUSH1 0x0 JUMPDEST DUP4 DUP2 LT ISZERO PUSH2 0x58C0 JUMPI DUP2 SLOAD DUP2 DUP10 ADD MSTORE PUSH1 0x1 DUP3 ADD SWAP2 POP PUSH1 0x20 DUP2 ADD SWAP1 POP PUSH2 0x58A1 JUMP JUMPDEST DUP4 DUP9 ADD SWAP6 POP POP POP JUMPDEST POP POP POP SWAP3 SWAP2 POP POP JUMP JUMPDEST PUSH1 0x0 PUSH2 0x58DD DUP3 DUP5 PUSH2 0x584E JUMP JUMPDEST SWAP2 POP DUP2 SWAP1 POP SWAP3 SWAP2 POP POP JUMP JUMPDEST PUSH32 0x436F6C6C65676520496400000000000000000000000000000000000000000000 PUSH1 0x0 DUP3 ADD MSTORE POP JUMP JUMPDEST PUSH1 0x0 PUSH2 0x591E PUSH1 0xA DUP4 PUSH2 0x5748 JUMP JUMPDEST SWAP2 POP PUSH2 0x5929 DUP3 PUSH2 0x58E8 JUMP JUMPDEST PUSH1 0xA DUP3 ADD SWAP1 POP SWAP2 SWAP1 POP JUMP JUMPDEST PUSH1 0x0 PUSH2 0x593F DUP3 PUSH2 0x5911 JUMP JUMPDEST SWAP2 POP DUP2 SWAP1 POP SWAP2 SWAP1 POP JUMP JUMPDEST PUSH1 0x0 PUSH1 0x20 PUSH1 0x1F DUP4 ADD DIV SWAP1 POP SWAP2 SWAP1 POP JUMP JUMPDEST PUSH1 0x0 DUP3 DUP3 SHL SWAP1 POP SWAP3 SWAP2 POP POP JUMP JUMPDEST PUSH1 0x0 PUSH1 0x8 DUP4 MUL PUSH2 0x5996 PUSH32 0xFFFFFFFFFFFFFFFFFFFFFFFFFFFFFFFFFFFFFFFFFFFFFFFFFFFFFFFFFFFFFFFF DUP3 PUSH2 0x5959 JUMP JUMPDEST PUSH2 0x59A0 DUP7 DUP4 PUSH2 0x5959 JUMP JUMPDEST SWAP6 POP DUP1 NOT DUP5 AND SWAP4 POP DUP1 DUP7 AND DUP5 OR SWAP3 POP POP POP SWAP4 SWAP3 POP POP POP JUMP JUMPDEST PUSH1 0x0 DUP2 SWAP1 POP SWAP2 SWAP1 POP JUMP JUMPDEST PUSH1 0x0 DUP2 SWAP1 POP SWAP2 SWAP1 POP JUMP JUMPDEST PUSH1 0x0 PUSH2 0x59E7 PUSH2 0x59E2 PUSH2 0x59DD DUP5 PUSH2 0x59B8 JUMP JUMPDEST PUSH2 0x59C2 JUMP JUMPDEST PUSH2 0x59B8 JUMP JUMPDEST SWAP1 POP SWAP2 SWAP1 POP JUMP JUMPDEST PUSH1 0x0 DUP2 SWAP1 POP SWAP2 SWAP1 POP JUMP JUMPDEST PUSH2 0x5A01 DUP4 PUSH2 0x59CC JUMP JUMPDEST PUSH2 0x5A15 PUSH2 0x5A0D DUP3 PUSH2 0x59EE JUMP JUMPDEST DUP5 DUP5 SLOAD PUSH2 0x5966 JUMP JUMPDEST DUP3 SSTORE POP POP POP POP JUMP JUMPDEST PUSH1 0x0 SWAP1 JUMP JUMPDEST PUSH2 0x5A2A PUSH2 0x5A1D JUMP JUMPDEST PUSH2 0x5A35 DUP2 DUP5 DUP5 PUSH2 0x59F8 JUMP JUMPDEST POP POP POP JUMP JUMPDEST JUMPDEST DUP2 DUP2 LT ISZERO PUSH2 0x5A59 JUMPI PUSH2 0x5A4E PUSH1 0x0 DUP3 PUSH2 0x5A22 JUMP JUMPDEST PUSH1 0x1 DUP2 ADD SWAP1 POP PUSH2 0x5A3B JUMP JUMPDEST POP POP JUMP JUMPDEST PUSH1 0x1F DUP3 GT ISZERO PUSH2 0x5A9E JUMPI PUSH2 0x5A6F DUP2 PUSH2 0x5839 JUMP JUMPDEST PUSH2 0x5A78 DUP5 PUSH2 0x5949 JUMP JUMPDEST DUP2 ADD PUSH1 0x20 DUP6 LT ISZERO PUSH2 0x5A87 JUMPI DUP2 SWAP1 POP JUMPDEST PUSH2 0x5A9B PUSH2 0x5A93 DUP6 PUSH2 0x5949 JUMP JUMPDEST DUP4 ADD DUP3 PUSH2 0x5A3A JUMP JUMPDEST POP POP JUMPDEST POP POP POP JUMP JUMPDEST PUSH1 0x0 DUP3 DUP3 SHR SWAP1 POP SWAP3 SWAP2 POP POP JUMP JUMPDEST PUSH1 0x0 PUSH2 0x5AC1 PUSH1 0x0 NOT DUP5 PUSH1 0x8 MUL PUSH2 0x5AA3 JUMP JUMPDEST NOT DUP1 DUP4 AND SWAP2 POP POP SWAP3 SWAP2 POP POP JUMP JUMPDEST PUSH1 0x0 PUSH2 0x5ADA DUP4 DUP4 PUSH2 0x5AB0 JUMP JUMPDEST SWAP2 POP DUP3 PUSH1 0x2 MUL DUP3 OR SWAP1 POP SWAP3 SWAP2 POP POP JUMP JUMPDEST PUSH2 0x5AF3 DUP3 PUSH2 0x4E27 JUMP JUMPDEST PUSH8 0xFFFFFFFFFFFFFFFF DUP2 GT ISZERO PUSH2 0x5B0C JUMPI PUSH2 0x5B0B PUSH2 0x4F74 JUMP JUMPDEST JUMPDEST PUSH2 0x5B16 DUP3 SLOAD PUSH2 0x57C0 JUMP JUMPDEST PUSH2 0x5B21 DUP3 DUP3 DUP6 PUSH2 0x5A5D JUMP JUMPDEST PUSH1 0x0 PUSH1 0x20 SWAP1 POP PUSH1 0x1F DUP4 GT PUSH1 0x1 DUP2 EQ PUSH2 0x5B54 JUMPI PUSH1 0x0 DUP5 ISZERO PUSH2 0x5B42 JUMPI DUP3 DUP8 ADD MLOAD SWAP1 POP JUMPDEST PUSH2 0x5B4C DUP6 DUP3 PUSH2 0x5ACE JUMP JUMPDEST DUP7 SSTORE POP PUSH2 0x5BB4 JUMP JUMPDEST PUSH1 0x1F NOT DUP5 AND PUSH2 0x5B62 DUP7 PUSH2 0x5839 JUMP JUMPDEST PUSH1 0x0 JUMPDEST DUP3 DUP2 LT ISZERO PUSH2 0x5B8A JUMPI DUP5 DUP10 ADD MLOAD DUP3 SSTORE PUSH1 0x1 DUP3 ADD SWAP2 POP PUSH1 0x20 DUP6 ADD SWAP5 POP PUSH1 0x20 DUP2 ADD SWAP1 POP PUSH2 0x5B65 JUMP JUMPDEST DUP7 DUP4 LT ISZERO PUSH2 0x5BA7 JUMPI DUP5 DUP10 ADD MLOAD PUSH2 0x5BA3 PUSH1 0x1F DUP10 AND DUP3 PUSH2 0x5AB0 JUMP JUMPDEST DUP4 SSTORE POP JUMPDEST PUSH1 0x1 PUSH1 0x2 DUP9 MUL ADD DUP9 SSTORE POP POP POP JUMPDEST POP POP POP POP POP POP JUMP JUMPDEST PUSH32 0x4E487B7100000000000000000000000000000000000000000000000000000000 PUSH1 0x0 MSTORE PUSH1 0x32 PUSH1 0x4 MSTORE PUSH1 0x24 PUSH1 0x0 REVERT JUMPDEST PUSH1 0x0 DUP1 REVERT JUMPDEST PUSH1 0x0 DUP1 REVERT JUMPDEST PUSH1 0x0 DUP1 REVERT JUMPDEST PUSH1 0x0 DUP1 DUP4 CALLDATALOAD PUSH1 0x1 PUSH1 0x20 SUB DUP5 CALLDATASIZE SUB SUB DUP2 SLT PUSH2 0x5C17 JUMPI PUSH2 0x5C16 PUSH2 0x5BEB JUMP JUMPDEST JUMPDEST DUP1 DUP5 ADD SWAP3 POP DUP3 CALLDATALOAD SWAP2 POP PUSH8 0xFFFFFFFFFFFFFFFF DUP3 GT ISZERO PUSH2 0x5C39 JUMPI PUSH2 0x5C38 PUSH2 0x5BF0 JUMP JUMPDEST JUMPDEST PUSH1 0x20 DUP4 ADD SWAP3 POP PUSH1 0x1 DUP3 MUL CALLDATASIZE SUB DUP4 SGT ISZERO PUSH2 0x5C55 JUMPI PUSH2 0x5C54 PUSH2 0x5BF5 JUMP JUMPDEST JUMPDEST POP SWAP3 POP SWAP3 SWAP1 POP JUMP JUMPDEST PUSH32 0x4E487B7100000000000000000000000000000000000000000000000000000000 PUSH1 0x0 MSTORE PUSH1 0x11 PUSH1 0x4 MSTORE PUSH1 0x24 PUSH1 0x0 REVERT JUMPDEST PUSH1 0x0 PUSH2 0x5C97 DUP3 PUSH2 0x59B8 JUMP JUMPDEST SWAP2 POP PUSH32 0xFFFFFFFFFFFFFFFFFFFFFFFFFFFFFFFFFFFFFFFFFFFFFFFFFFFFFFFFFFFFFFFF DUP3 SUB PUSH2 0x5CC9 JUMPI PUSH2 0x5CC8 PUSH2 0x5C5D JUMP JUMPDEST JUMPDEST PUSH1 0x1 DUP3 ADD SWAP1 POP SWAP2 SWAP1 POP JUMP JUMPDEST PUSH1 0x0 DUP3 SWAP1 POP SWAP3 SWAP2 POP POP JUMP JUMPDEST PUSH2 0x5CE9 DUP4 DUP4 PUSH2 0x5CD4 JUMP JUMPDEST PUSH8 0xFFFFFFFFFFFFFFFF DUP2 GT ISZERO PUSH2 0x5D02 JUMPI PUSH2 0x5D01 PUSH2 0x4F74 JUMP JUMPDEST JUMPDEST PUSH2 0x5D0C DUP3 SLOAD PUSH2 0x57C0 JUMP JUMPDEST PUSH2 0x5D17 DUP3 DUP3 DUP6 PUSH2 0x5A5D JUMP JUMPDEST PUSH1 0x0 PUSH1 0x1F DUP4 GT PUSH1 0x1 DUP2 EQ PUSH2 0x5D46 JUMPI PUSH1 0x0 DUP5 ISZERO PUSH2 0x5D34 JUMPI DUP3 DUP8 ADD CALLDATALOAD SWAP1 POP JUMPDEST PUSH2 0x5D3E DUP6 DUP3 PUSH2 0x5ACE JUMP JUMPDEST DUP7 SSTORE POP PUSH2 0x5DA6 JUMP JUMPDEST PUSH1 0x1F NOT DUP5 AND PUSH2 0x5D54 DUP7 PUSH2 0x5839 JUMP JUMPDEST PUSH1 0x0 JUMPDEST DUP3 DUP2 LT ISZERO PUSH2 0x5D7C JUMPI DUP5 DUP10 ADD CALLDATALOAD DUP3 SSTORE PUSH1 0x1 DUP3 ADD SWAP2 POP PUSH1 0x20 DUP6 ADD SWAP5 POP PUSH1 0x20 DUP2 ADD SWAP1 POP PUSH2 0x5D57 JUMP JUMPDEST DUP7 DUP4 LT ISZERO PUSH2 0x5D99 JUMPI DUP5 DUP10 ADD CALLDATALOAD PUSH2 0x5D95 PUSH1 0x1F DUP10 AND DUP3 PUSH2 0x5AB0 JUMP JUMPDEST DUP4 SSTORE POP JUMPDEST PUSH1 0x1 PUSH1 0x2 DUP9 MUL ADD DUP9 SSTORE POP POP POP JUMPDEST POP POP POP POP POP POP POP JUMP JUMPDEST PUSH1 0x0 DUP2 PUSH1 0x60 SHL SWAP1 POP SWAP2 SWAP1 POP JUMP JUMPDEST PUSH1 0x0 PUSH2 0x5DC7 DUP3 PUSH2 0x5DAF JUMP JUMPDEST SWAP1 POP SWAP2 SWAP1 POP JUMP JUMPDEST PUSH1 0x0 PUSH2 0x5DD9 DUP3 PUSH2 0x5DBC JUMP JUMPDEST SWAP1 POP SWAP2 SWAP1 POP JUMP JUMPDEST PUSH2 0x5DF1 PUSH2 0x5DEC DUP3 PUSH2 0x4C8D JUMP JUMPDEST PUSH2 0x5DCE JUMP JUMPDEST DUP3 MSTORE POP POP JUMP JUMPDEST PUSH1 0x0 DUP2 SWAP1 POP SWAP2 SWAP1 POP JUMP JUMPDEST PUSH2 0x5E12 PUSH2 0x5E0D DUP3 PUSH2 0x59B8 JUMP JUMPDEST PUSH2 0x5DF7 JUMP JUMPDEST DUP3 MSTORE POP POP JUMP JUMPDEST PUSH1 0x0 PUSH2 0x5E24 DUP3 DUP7 PUSH2 0x5DE0 JUMP JUMPDEST PUSH1 0x14 DUP3 ADD SWAP2 POP PUSH2 0x5E34 DUP3 DUP6 PUSH2 0x5E01 JUMP JUMPDEST PUSH1 0x20 DUP3 ADD SWAP2 POP PUSH2 0x5E44 DUP3 DUP5 PUSH2 0x5E01 JUMP JUMPDEST PUSH1 0x20 DUP3 ADD SWAP2 POP DUP2 SWAP1 POP SWAP5 SWAP4 POP POP POP POP JUMP JUMPDEST PUSH1 0x0 PUSH2 0x5E60 DUP3 PUSH2 0x59B8 JUMP JUMPDEST SWAP2 POP PUSH2 0x5E6B DUP4 PUSH2 0x59B8 JUMP JUMPDEST SWAP3 POP DUP3 DUP3 MUL PUSH2 0x5E79 DUP2 PUSH2 0x59B8 JUMP JUMPDEST SWAP2 POP DUP3 DUP3 DIV DUP5 EQ DUP4 ISZERO OR PUSH2 0x5E90 JUMPI PUSH2 0x5E8F PUSH2 0x5C5D JUMP JUMPDEST JUMPDEST POP SWAP3 SWAP2 POP POP JUMP JUMPDEST PUSH1 0x0 PUSH2 0x5EA2 DUP3 PUSH2 0x59B8 JUMP JUMPDEST SWAP2 POP PUSH2 0x5EAD DUP4 PUSH2 0x59B8 JUMP JUMPDEST SWAP3 POP DUP3 DUP3 ADD SWAP1 POP DUP1 DUP3 GT ISZERO PUSH2 0x5EC5 JUMPI PUSH2 0x5EC4 PUSH2 0x5C5D JUMP JUMPDEST JUMPDEST SWAP3 SWAP2 POP POP JUMP JUMPDEST PUSH1 0x0 PUSH2 0x5ED6 DUP3 PUSH2 0x59B8 JUMP JUMPDEST SWAP2 POP PUSH1 0x0 DUP3 SUB PUSH2 0x5EE9 JUMPI PUSH2 0x5EE8 PUSH2 0x5C5D JUMP JUMPDEST JUMPDEST PUSH1 0x1 DUP3 SUB SWAP1 POP SWAP2 SWAP1 POP JUMP JUMPDEST PUSH32 0x537472696E67733A20686578206C656E67746820696E73756666696369656E74 PUSH1 0x0 DUP3 ADD MSTORE POP JUMP JUMPDEST PUSH1 0x0 PUSH2 0x5F2A PUSH1 0x20 DUP4 PUSH2 0x5225 JUMP JUMPDEST SWAP2 POP PUSH2 0x5F35 DUP3 PUSH2 0x5EF4 JUMP JUMPDEST PUSH1 0x20 DUP3 ADD SWAP1 POP SWAP2 SWAP1 POP JUMP JUMPDEST PUSH1 0x0 PUSH1 0x20 DUP3 ADD SWAP1 POP DUP2 DUP2 SUB PUSH1 0x0 DUP4 ADD MSTORE PUSH2 0x5F59 DUP2 PUSH2 0x5F1D JUMP JUMPDEST SWAP1 POP SWAP2 SWAP1 POP JUMP INVALID LOG2 PUSH5 0x6970667358 0x22 SLT KECCAK256 DIFFICULTY 0xD9 0xD5 DIFFICULTY PUSH1 0x82 0xAE TIMESTAMP PUSH21 0x7C1CAECCBBE412A6D24C345E1B2DDF2A18538E5B0C PUSH27 0x3064736F6C63430008110033000000000000000000000000000000 "},"methodIdentifiers":{"addAsCollege(string)":"85c5989e","addNewStudent(address,string,string,string)":"7f3e1e82","approveCollege(string)":"c2d8eef3","checkAccessToThirdParty(address,string,string)":"0147aabd","editOwnCollegeData(string,string)":"95a6ba22","editStudentDataAccessPermission(string,string,bool)":"f42867a5","editStudentDataAsCollege(string,string[],string[])":"90bff258","editStudentDataAsStudent(string[],string[])":"a83cf342","getAllCollegeIds()":"88c045e2","getCollegeData(string,string)":"9a645856","getCollegeDataTypes(string)":"a7ed6e41","getCollegeStatus(string)":"bc1829f8","getCollegeStudentIds()":"1abf4112","getOwnCollegeId()":"7bb312fd","getOwnStudentId()":"53ef780e","getOwner()":"893d20e8","getStudentData(string,string)":"62893b13","getStudentDataAsCollege(string,string,bool)":"3e6835b4","getStudentDataStatus(string,string)":"ce54123d","getStudentDataTypes(string)":"ea055796","getStudentEditAccess(string,string)":"28fd6ae1","getStudentStatus(string)":"75d0b932","giveAccessToThirdParty(address,string)":"9be977d6","rejectCollege(string)":"3d9c5434","revokeAccessToThirdParty(address,string)":"f18b1781","verifyStudentData(string,string)":"b4a9f2c4"}}}}}