{"contracts/Ducid.sol":{"Ducid":{"abi":[{"inputs":[],"stateMutability":"nonpayable","type":"constructor"},{"inputs":[],"name":"AccessOnlyToACollege","type":"error"},{"inputs":[],"name":"AccessOnlyToOwner","type":"error"},{"inputs":[],"name":"AccessOnlyToVerifiedCollege","type":"error"},{"inputs":[],"name":"CollegeAlreadyVerified","type":"error"},{"inputs":[],"name":"CollegeAlreadyrejected","type":"error"},{"inputs":[],"name":"CollegeNotFound","type":"error"},{"inputs":[],"name":"DataMissMatching","type":"error"},{"inputs":[],"name":"EmptyDataNotAllowed","type":"error"},{"inputs":[],"name":"NoAccessToEditData","type":"error"},{"inputs":[],"name":"StudentNotFound","type":"error"},{"inputs":[],"name":"studentIsOfAnotherCollege","type":"error"},{"inputs":[{"internalType":"string","name":"collegeName","type":"string"}],"name":"addAsCollege","outputs":[],"stateMutability":"nonpayable","type":"function"},{"inputs":[{"internalType":"address","name":"studentAddress","type":"address"},{"internalType":"string","name":"studentName","type":"string"},{"internalType":"string","name":"studentAge","type":"string"},{"internalType":"string","name":"studentPercentage","type":"string"}],"name":"addNewStudent","outputs":[],"stateMutability":"nonpayable","type":"function"},{"inputs":[{"internalType":"string","name":"collegeId","type":"string"}],"name":"approveCollege","outputs":[],"stateMutability":"nonpayable","type":"function"},{"inputs":[{"internalType":"address","name":"thirdParty","type":"address"},{"internalType":"string[]","name":"dataType","type":"string[]"},{"internalType":"bool[]","name":"accesses","type":"bool[]"}],"name":"changeThirdPartyAccess","outputs":[],"stateMutability":"nonpayable","type":"function"},{"inputs":[{"internalType":"address","name":"thirdParty","type":"address"},{"internalType":"string","name":"studentId","type":"string"},{"internalType":"string","name":"dataType","type":"string"}],"name":"checkAccessToThirdParty","outputs":[{"internalType":"bool","name":"","type":"bool"}],"stateMutability":"view","type":"function"},{"inputs":[{"internalType":"string","name":"dataType","type":"string"},{"internalType":"string","name":"data","type":"string"}],"name":"editOwnCollegeData","outputs":[],"stateMutability":"nonpayable","type":"function"},{"inputs":[{"internalType":"string","name":"studentId","type":"string"},{"internalType":"string","name":"dataType","type":"string"},{"internalType":"bool","name":"access","type":"bool"}],"name":"editStudentDataAccessPermission","outputs":[],"stateMutability":"nonpayable","type":"function"},{"inputs":[{"internalType":"string","name":"studentId","type":"string"},{"internalType":"string[]","name":"dataTypes","type":"string[]"},{"internalType":"string[]","name":"data","type":"string[]"}],"name":"editStudentDataAsCollege","outputs":[],"stateMutability":"nonpayable","type":"function"},{"inputs":[{"internalType":"string[]","name":"dataTypes","type":"string[]"},{"internalType":"string[]","name":"data","type":"string[]"}],"name":"editStudentDataAsStudent","outputs":[],"stateMutability":"nonpayable","type":"function"},{"inputs":[],"name":"getAllCollegeIds","outputs":[{"internalType":"string[]","name":"","type":"string[]"}],"stateMutability":"view","type":"function"},{"inputs":[{"internalType":"string","name":"collegeId","type":"string"},{"internalType":"string","name":"dataType","type":"string"}],"name":"getCollegeData","outputs":[{"internalType":"string","name":"","type":"string"}],"stateMutability":"view","type":"function"},{"inputs":[{"internalType":"string","name":"collegeId","type":"string"}],"name":"getCollegeStatus","outputs":[{"internalType":"enum Ducid.CollegeStatus","name":"","type":"uint8"}],"stateMutability":"view","type":"function"},{"inputs":[],"name":"getCollegeStudentIds","outputs":[{"internalType":"string[]","name":"","type":"string[]"}],"stateMutability":"view","type":"function"},{"inputs":[],"name":"getOwnCollegeId","outputs":[{"internalType":"string","name":"","type":"string"}],"stateMutability":"view","type":"function"},{"inputs":[],"name":"getOwnStudentId","outputs":[{"internalType":"string","name":"","type":"string"}],"stateMutability":"view","type":"function"},{"inputs":[],"name":"getOwner","outputs":[{"internalType":"address","name":"","type":"address"}],"stateMutability":"view","type":"function"},{"inputs":[{"internalType":"string","name":"studentId","type":"string"},{"internalType":"string","name":"dataType","type":"string"}],"name":"getStudentData","outputs":[{"internalType":"string","name":"","type":"string"}],"stateMutability":"view","type":"function"},{"inputs":[{"internalType":"string","name":"studentId","type":"string"},{"internalType":"string","name":"dataType","type":"string"},{"internalType":"bool","name":"TypeOfData","type":"bool"}],"name":"getStudentDataAsCollege","outputs":[{"internalType":"string","name":"data","type":"string"}],"stateMutability":"view","type":"function"},{"inputs":[{"internalType":"string","name":"studentId","type":"string"},{"internalType":"string","name":"dataType","type":"string"}],"name":"getStudentDataStatus","outputs":[{"internalType":"enum Ducid.StudentDataStatus","name":"","type":"uint8"}],"stateMutability":"view","type":"function"},{"inputs":[{"internalType":"string","name":"studentId","type":"string"}],"name":"getStudentDataTypes","outputs":[{"internalType":"string[]","name":"","type":"string[]"}],"stateMutability":"view","type":"function"},{"inputs":[{"internalType":"string","name":"studentId","type":"string"},{"internalType":"string","name":"dataType","type":"string"}],"name":"getStudentEditAccess","outputs":[{"internalType":"bool","name":"","type":"bool"}],"stateMutability":"view","type":"function"},{"inputs":[{"internalType":"string","name":"studentId","type":"string"}],"name":"getStudentStatus","outputs":[{"internalType":"enum Ducid.StudentStatus","name":"","type":"uint8"}],"stateMutability":"view","type":"function"},{"inputs":[{"internalType":"string","name":"collegeId","type":"string"}],"name":"rejectCollege","outputs":[],"stateMutability":"nonpayable","type":"function"},{"inputs":[{"internalType":"string","name":"studentId","type":"string"},{"internalType":"string","name":"dataType","type":"string"}],"name":"verifyStudentData","outputs":[],"stateMutability":"nonpayable","type":"function"}],"evm":{"bytecode":{"linkReferences":{},"object":"608060405234801561001057600080fd5b50336000806101000a81548173ffffffffffffffffffffffffffffffffffffffff021916908373ffffffffffffffffffffffffffffffffffffffff160217905550615d5e80620000616000396000f3fe608060405234801561001057600080fd5b50600436106101585760003560e01c8063893d20e8116100c3578063bc1829f81161007c578063bc1829f8146103d7578063c2d8eef314610407578063ce54123d14610423578063e2a311e714610453578063ea0557961461046f578063f42867a51461049f57610158565b8063893d20e81461031957806390bff2581461033757806395a6ba22146103535780639a6458561461036f578063a83cf3421461039f578063b4a9f2c4146103bb57610158565b806362893b131161011557806362893b131461024557806375d0b932146102755780637bb312fd146102a55780637f3e1e82146102c357806385c5989e146102df57806388c045e2146102fb57610158565b80630147aabd1461015d5780631abf41121461018d57806328fd6ae1146101ab5780633d9c5434146101db5780633e6835b4146101f757806353ef780e14610227575b600080fd5b61017760048036038101906101729190614a40565b6104bb565b6040516101849190614af0565b60405180910390f35b610195610551565b6040516101a29190614c5d565b60405180910390f35b6101c560048036038101906101c09190614daf565b610863565b6040516101d29190614af0565b60405180910390f35b6101f560048036038101906101f09190614e27565b6108b5565b005b610211600480360381019061020c9190614ea0565b610a9b565b60405161021e9190614f7f565b60405180910390f35b61022f6110d6565b60405161023c9190614f7f565b60405180910390f35b61025f600480360381019061025a9190614fa1565b6111a5565b60405161026c9190614f7f565b60405180910390f35b61028f600480360381019061028a9190614e27565b61145c565b60405161029c9190615099565b60405180910390f35b6102ad611494565b6040516102ba9190614f7f565b60405180910390f35b6102dd60048036038101906102d891906150b4565b611563565b005b6102f960048036038101906102f49190614e27565b611ad7565b005b610303611c36565b6040516103109190614c5d565b60405180910390f35b610321611d0f565b60405161032e919061518c565b60405180910390f35b610351600480360381019061034c91906151fd565b611d38565b005b61036d60048036038101906103689190614fa1565b6123ee565b005b61038960048036038101906103849190614fa1565b6127b8565b6040516103969190614f7f565b60405180910390f35b6103b960048036038101906103b491906152b1565b61288b565b005b6103d560048036038101906103d09190614fa1565b612c7a565b005b6103f160048036038101906103ec9190614e27565b6132b2565b6040516103fe919061537a565b60405180910390f35b610421600480360381019061041c9190614e27565b6132ea565b005b61043d60048036038101906104389190614fa1565b6134d2565b60405161044a91906153dd565b60405180910390f35b61046d6004803603810190610468919061544e565b6139b1565b005b61048960048036038101906104849190614e27565b613d17565b6040516104969190614c5d565b60405180910390f35b6104b960048036038101906104b49190614ea0565b613e11565b005b6000600e60008773ffffffffffffffffffffffffffffffffffffffff1673ffffffffffffffffffffffffffffffffffffffff168152602001908152602001600020858560405161050c929190615513565b9081526020016040518091039020838360405161052a929190615513565b908152602001604051809103902060009054906101000a900460ff16905095945050505050565b60606000600160003373ffffffffffffffffffffffffffffffffffffffff1673ffffffffffffffffffffffffffffffffffffffff168152602001908152602001600020805461059f9061555b565b80601f01602080910402602001604051908101604052809291908181526020018280546105cb9061555b565b80156106185780601f106105ed57610100808354040283529160200191610618565b820191906000526020600020905b8154815290600101906020018083116105fb57829003601f168201915b505050505090506000600381111561063357610632615022565b5b60038260405161064391906155bd565b908152602001604051809103902060009054906101000a900460ff16600381111561067157610670615022565b5b036106a8576040517f8fa622f500000000000000000000000000000000000000000000000000000000815260040160405180910390fd5b600260038111156106bc576106bb615022565b5b6003826040516106cc91906155bd565b908152602001604051809103902060009054906101000a900460ff1660038111156106fa576106f9615022565b5b14610731576040517f8ac8e00b00000000000000000000000000000000000000000000000000000000815260040160405180910390fd5b6007600160003373ffffffffffffffffffffffffffffffffffffffff1673ffffffffffffffffffffffffffffffffffffffff16815260200190815260200160002060405161077f919061566c565b9081526020016040518091039020805480602002602001604051908101604052809291908181526020016000905b828210156108595783829060005260206000200180546107cc9061555b565b80601f01602080910402602001604051908101604052809291908181526020018280546107f89061555b565b80156108455780601f1061081a57610100808354040283529160200191610845565b820191906000526020600020905b81548152906001019060200180831161082857829003601f168201915b5050505050815260200190600101906107ad565b5050505091505090565b6000600b8360405161087591906155bd565b90815260200160405180910390208260405161089191906155bd565b908152602001604051809103902060009054906101000a900460ff16905092915050565b60008054906101000a900473ffffffffffffffffffffffffffffffffffffffff1673ffffffffffffffffffffffffffffffffffffffff163373ffffffffffffffffffffffffffffffffffffffff161461093a576040517f2dca963600000000000000000000000000000000000000000000000000000000815260040160405180910390fd5b6000600381111561094e5761094d615022565b5b60038383604051610960929190615513565b908152602001604051809103902060009054906101000a900460ff16600381111561098e5761098d615022565b5b036109c5576040517f567e9be600000000000000000000000000000000000000000000000000000000815260040160405180910390fd5b6003808111156109d8576109d7615022565b5b600383836040516109ea929190615513565b908152602001604051809103902060009054906101000a900460ff166003811115610a1857610a17615022565b5b03610a4f576040517f20f935a000000000000000000000000000000000000000000000000000000000815260040160405180910390fd5b6003808383604051610a62929190615513565b908152602001604051809103902060006101000a81548160ff02191690836003811115610a9257610a91615022565b5b02179055505050565b60606000600160003373ffffffffffffffffffffffffffffffffffffffff1673ffffffffffffffffffffffffffffffffffffffff1681526020019081526020016000208054610ae99061555b565b80601f0160208091040260200160405190810160405280929190818152602001828054610b159061555b565b8015610b625780601f10610b3757610100808354040283529160200191610b62565b820191906000526020600020905b815481529060010190602001808311610b4557829003601f168201915b5050505050905060006003811115610b7d57610b7c615022565b5b600382604051610b8d91906155bd565b908152602001604051809103902060009054906101000a900460ff166003811115610bbb57610bba615022565b5b03610bf2576040517f8fa622f500000000000000000000000000000000000000000000000000000000815260040160405180910390fd5b60026003811115610c0657610c05615022565b5b600382604051610c1691906155bd565b908152602001604051809103902060009054906101000a900460ff166003811115610c4457610c43615022565b5b14610c7b576040517f8ac8e00b00000000000000000000000000000000000000000000000000000000815260040160405180910390fd5b868660006001811115610c9157610c90615022565b5b60088383604051610ca3929190615513565b908152602001604051809103902060009054906101000a900460ff166001811115610cd157610cd0615022565b5b03610d08576040517f078de8bf00000000000000000000000000000000000000000000000000000000815260040160405180910390fd5b6000600160003373ffffffffffffffffffffffffffffffffffffffff1673ffffffffffffffffffffffffffffffffffffffff1681526020019081526020016000208054610d549061555b565b80601f0160208091040260200160405190810160405280929190818152602001828054610d809061555b565b8015610dcd5780601f10610da257610100808354040283529160200191610dcd565b820191906000526020600020905b815481529060010190602001808311610db057829003601f168201915b50505050509050600060098484604051610de8929190615513565b9081526020016040518091039020604051610e02906156cf565b90815260200160405180910390208054610e1b9061555b565b80601f0160208091040260200160405190810160405280929190818152602001828054610e479061555b565b8015610e945780601f10610e6957610100808354040283529160200191610e94565b820191906000526020600020905b815481529060010190602001808311610e7757829003601f168201915b5050505050905080604051602001610eac91906155bd565b6040516020818303038152906040528051906020012082604051602001610ed391906155bd565b6040516020818303038152906040528051906020012014610f20576040517fca7b7fb200000000000000000000000000000000000000000000000000000000815260040160405180910390fd5b8615610ff45760098b8b604051610f38929190615513565b90815260200160405180910390208989604051610f56929190615513565b90815260200160405180910390208054610f6f9061555b565b80601f0160208091040260200160405190810160405280929190818152602001828054610f9b9061555b565b8015610fe85780601f10610fbd57610100808354040283529160200191610fe8565b820191906000526020600020905b815481529060010190602001808311610fcb57829003601f168201915b505050505095506110c8565b866110c757600d8b8b60405161100b929190615513565b90815260200160405180910390208989604051611029929190615513565b908152602001604051809103902080546110429061555b565b80601f016020809104026020016040519081016040528092919081815260200182805461106e9061555b565b80156110bb5780601f10611090576101008083540402835291602001916110bb565b820191906000526020600020905b81548152906001019060200180831161109e57829003601f168201915b505050505095506110c8565b5b505050505095945050505050565b6060600660003373ffffffffffffffffffffffffffffffffffffffff1673ffffffffffffffffffffffffffffffffffffffff16815260200190815260200160002080546111229061555b565b80601f016020809104026020016040519081016040528092919081815260200182805461114e9061555b565b801561119b5780601f106111705761010080835404028352916020019161119b565b820191906000526020600020905b81548152906001019060200180831161117e57829003601f168201915b5050505050905090565b6060600060018111156111bb576111ba615022565b5b600886866040516111cd929190615513565b908152602001604051809103902060009054906101000a900460ff1660018111156111fb576111fa615022565b5b03611232576040517f078de8bf00000000000000000000000000000000000000000000000000000000815260040160405180910390fd5b8484604051602001611245929190615513565b60405160208183030381529060405280519060200120600660003373ffffffffffffffffffffffffffffffffffffffff1673ffffffffffffffffffffffffffffffffffffffff1681526020019081526020016000206040516020016112aa919061566c565b60405160208183030381529060405280519060200120141580156113545750600e60003373ffffffffffffffffffffffffffffffffffffffff1673ffffffffffffffffffffffffffffffffffffffff1681526020019081526020016000208585604051611318929190615513565b90815260200160405180910390208383604051611336929190615513565b908152602001604051809103902060009054906101000a900460ff16155b1561138b576040517f722f899200000000000000000000000000000000000000000000000000000000815260040160405180910390fd5b6009858560405161139d929190615513565b908152602001604051809103902083836040516113bb929190615513565b908152602001604051809103902080546113d49061555b565b80601f01602080910402602001604051908101604052809291908181526020018280546114009061555b565b801561144d5780601f106114225761010080835404028352916020019161144d565b820191906000526020600020905b81548152906001019060200180831161143057829003601f168201915b50505050509050949350505050565b600060088383604051611470929190615513565b908152602001604051809103902060009054906101000a900460ff16905092915050565b6060600160003373ffffffffffffffffffffffffffffffffffffffff1673ffffffffffffffffffffffffffffffffffffffff16815260200190815260200160002080546114e09061555b565b80601f016020809104026020016040519081016040528092919081815260200182805461150c9061555b565b80156115595780601f1061152e57610100808354040283529160200191611559565b820191906000526020600020905b81548152906001019060200180831161153c57829003601f168201915b5050505050905090565b6000600160003373ffffffffffffffffffffffffffffffffffffffff1673ffffffffffffffffffffffffffffffffffffffff16815260200190815260200160002080546115af9061555b565b80601f01602080910402602001604051908101604052809291908181526020018280546115db9061555b565b80156116285780601f106115fd57610100808354040283529160200191611628565b820191906000526020600020905b81548152906001019060200180831161160b57829003601f168201915b505050505090506000600381111561164357611642615022565b5b60038260405161165391906155bd565b908152602001604051809103902060009054906101000a900460ff16600381111561168157611680615022565b5b036116b8576040517f8fa622f500000000000000000000000000000000000000000000000000000000815260040160405180910390fd5b600260038111156116cc576116cb615022565b5b6003826040516116dc91906155bd565b908152602001604051809103902060009054906101000a900460ff16600381111561170a57611709615022565b5b14611741576040517f8ac8e00b00000000000000000000000000000000000000000000000000000000815260040160405180910390fd5b6000600160003373ffffffffffffffffffffffffffffffffffffffff1673ffffffffffffffffffffffffffffffffffffffff168152602001908152602001600020805461178d9061555b565b80601f01602080910402602001604051908101604052809291908181526020018280546117b99061555b565b80156118065780601f106117db57610100808354040283529160200191611806565b820191906000526020600020905b8154815290600101906020018083116117e957829003601f168201915b5050505050905060006118188a6142f6565b905080600660008c73ffffffffffffffffffffffffffffffffffffffff1673ffffffffffffffffffffffffffffffffffffffff16815260200190815260200160002090816118669190615885565b5060078260405161187791906155bd565b9081526020016040518091039020819080600181540180825580915050600190039060005260206000200160009091909190915090816118b79190615885565b5060016008826040516118ca91906155bd565b908152602001604051809103902060006101000a81548160ff021916908360018111156118fa576118f9615022565b5b021790555061193f816040518060400160405280600a81526020017f436f6c6c6567652049640000000000000000000000000000000000000000000081525084614335565b6119c3816040518060400160405280600c81526020017f53747564656e74204e616d6500000000000000000000000000000000000000008152508b8b8080601f016020809104026020016040519081016040528093929190818152602001838380828437600081840152601f19601f82011690508083019250505050505050614335565b611a47816040518060400160405280600b81526020017f53747564656e742041676500000000000000000000000000000000000000000081525089898080601f016020809104026020016040519081016040528093929190818152602001838380828437600081840152601f19601f82011690508083019250505050505050614335565b611acb816040518060400160405280601281526020017f53747564656e742050657263656e74616765000000000000000000000000000081525087878080601f016020809104026020016040519081016040528093929190818152602001838380828437600081840152601f19601f82011690508083019250505050505050614335565b50505050505050505050565b6000611ae2336142f6565b905080600160003373ffffffffffffffffffffffffffffffffffffffff1673ffffffffffffffffffffffffffffffffffffffff1681526020019081526020016000209081611b309190615885565b50600281908060018154018082558091505060019003906000526020600020016000909190919091509081611b659190615885565b506001600382604051611b7891906155bd565b908152602001604051809103902060006101000a81548160ff02191690836003811115611ba857611ba7615022565b5b0217905550611c31816040518060400160405280600c81526020017f436f6c6c656765204e616d65000000000000000000000000000000000000000081525085858080601f016020809104026020016040519081016040528093929190818152602001838380828437600081840152601f19601f820116905080830192505050505050506144a5565b505050565b60606002805480602002602001604051908101604052809291908181526020016000905b82821015611d06578382906000526020600020018054611c799061555b565b80601f0160208091040260200160405190810160405280929190818152602001828054611ca59061555b565b8015611cf25780601f10611cc757610100808354040283529160200191611cf2565b820191906000526020600020905b815481529060010190602001808311611cd557829003601f168201915b505050505081526020019060010190611c5a565b50505050905090565b60008060009054906101000a900473ffffffffffffffffffffffffffffffffffffffff16905090565b6000600160003373ffffffffffffffffffffffffffffffffffffffff1673ffffffffffffffffffffffffffffffffffffffff1681526020019081526020016000208054611d849061555b565b80601f0160208091040260200160405190810160405280929190818152602001828054611db09061555b565b8015611dfd5780601f10611dd257610100808354040283529160200191611dfd565b820191906000526020600020905b815481529060010190602001808311611de057829003601f168201915b5050505050905060006003811115611e1857611e17615022565b5b600382604051611e2891906155bd565b908152602001604051809103902060009054906101000a900460ff166003811115611e5657611e55615022565b5b03611e8d576040517f8fa622f500000000000000000000000000000000000000000000000000000000815260040160405180910390fd5b60026003811115611ea157611ea0615022565b5b600382604051611eb191906155bd565b908152602001604051809103902060009054906101000a900460ff166003811115611edf57611ede615022565b5b14611f16576040517f8ac8e00b00000000000000000000000000000000000000000000000000000000815260040160405180910390fd5b868660006001811115611f2c57611f2b615022565b5b60088383604051611f3e929190615513565b908152602001604051809103902060009054906101000a900460ff166001811115611f6c57611f6b615022565b5b03611fa3576040517f078de8bf00000000000000000000000000000000000000000000000000000000815260040160405180910390fd5b6000600160003373ffffffffffffffffffffffffffffffffffffffff1673ffffffffffffffffffffffffffffffffffffffff1681526020019081526020016000208054611fef9061555b565b80601f016020809104026020016040519081016040528092919081815260200182805461201b9061555b565b80156120685780601f1061203d57610100808354040283529160200191612068565b820191906000526020600020905b81548152906001019060200180831161204b57829003601f168201915b50505050509050600060098484604051612083929190615513565b908152602001604051809103902060405161209d906156cf565b908152602001604051809103902080546120b69061555b565b80601f01602080910402602001604051908101604052809291908181526020018280546120e29061555b565b801561212f5780601f106121045761010080835404028352916020019161212f565b820191906000526020600020905b81548152906001019060200180831161211257829003601f168201915b505050505090508060405160200161214791906155bd565b604051602081830303815290604052805190602001208260405160200161216e91906155bd565b60405160208183030381529060405280519060200120146121bb576040517fca7b7fb200000000000000000000000000000000000000000000000000000000815260040160405180910390fd5b8686905089899050146121fa576040517f79b3f46f00000000000000000000000000000000000000000000000000000000815260040160405180910390fd5b60005b898990508110156123e057600088888381811061221d5761221c615957565b5b905060200281019061222f9190615995565b8080601f016020809104026020016040519081016040528093929190818152602001838380828437600081840152601f19601f82011690508083019250505050505050905060008151036122af576040517f47b4af9400000000000000000000000000000000000000000000000000000000815260040160405180910390fd5b6123cc8d8d8080601f016020809104026020016040519081016040528093929190818152602001838380828437600081840152601f19601f820116905080830192505050505050508c8c8581811061230a57612309615957565b5b905060200281019061231c9190615995565b8080601f016020809104026020016040519081016040528093929190818152602001838380828437600081840152601f19601f820116905080830192505050505050508b8b8681811061237257612371615957565b5b90506020028101906123849190615995565b8080601f016020809104026020016040519081016040528093929190818152602001838380828437600081840152601f19601f82011690508083019250505050505050614335565b5080806123d890615a27565b9150506121fd565b505050505050505050505050565b6000600160003373ffffffffffffffffffffffffffffffffffffffff1673ffffffffffffffffffffffffffffffffffffffff168152602001908152602001600020805461243a9061555b565b80601f01602080910402602001604051908101604052809291908181526020018280546124669061555b565b80156124b35780601f10612488576101008083540402835291602001916124b3565b820191906000526020600020905b81548152906001019060200180831161249657829003601f168201915b50505050509050600060038111156124ce576124cd615022565b5b6003826040516124de91906155bd565b908152602001604051809103902060009054906101000a900460ff16600381111561250c5761250b615022565b5b03612543576040517f8fa622f500000000000000000000000000000000000000000000000000000000815260040160405180910390fd5b6002600381111561255757612556615022565b5b60038260405161256791906155bd565b908152602001604051809103902060009054906101000a900460ff16600381111561259557612594615022565b5b146125cc576040517f8ac8e00b00000000000000000000000000000000000000000000000000000000815260040160405180910390fd5b600083838080601f016020809104026020016040519081016040528093929190818152602001838380828437600081840152601f19601f8201169050808301925050505050505090506000815103612650576040517f47b4af9400000000000000000000000000000000000000000000000000000000815260040160405180910390fd5b6000600160003373ffffffffffffffffffffffffffffffffffffffff1673ffffffffffffffffffffffffffffffffffffffff168152602001908152602001600020805461269c9061555b565b80601f01602080910402602001604051908101604052809291908181526020018280546126c89061555b565b80156127155780601f106126ea57610100808354040283529160200191612715565b820191906000526020600020905b8154815290600101906020018083116126f857829003601f168201915b505050505090506127af8188888080601f016020809104026020016040519081016040528093929190818152602001838380828437600081840152601f19601f8201169050808301925050505050505087878080601f016020809104026020016040519081016040528093929190818152602001838380828437600081840152601f19601f820116905080830192505050505050506144a5565b50505050505050565b6060600485856040516127cc929190615513565b908152602001604051809103902083836040516127ea929190615513565b908152602001604051809103902080546128039061555b565b80601f016020809104026020016040519081016040528092919081815260200182805461282f9061555b565b801561287c5780601f106128515761010080835404028352916020019161287c565b820191906000526020600020905b81548152906001019060200180831161285f57829003601f168201915b50505050509050949350505050565b6000600660003373ffffffffffffffffffffffffffffffffffffffff1673ffffffffffffffffffffffffffffffffffffffff16815260200190815260200160002080546128d79061555b565b80601f01602080910402602001604051908101604052809291908181526020018280546129039061555b565b80156129505780601f1061292557610100808354040283529160200191612950565b820191906000526020600020905b81548152906001019060200180831161293357829003601f168201915b505050505090506000600181111561296b5761296a615022565b5b60088260405161297b91906155bd565b908152602001604051809103902060009054906101000a900460ff1660018111156129a9576129a8615022565b5b036129e0576040517f078de8bf00000000000000000000000000000000000000000000000000000000815260040160405180910390fd5b828290508585905014612a1f576040517f79b3f46f00000000000000000000000000000000000000000000000000000000815260040160405180910390fd5b6000600660003373ffffffffffffffffffffffffffffffffffffffff1673ffffffffffffffffffffffffffffffffffffffff1681526020019081526020016000208054612a6b9061555b565b80601f0160208091040260200160405190810160405280929190818152602001828054612a979061555b565b8015612ae45780601f10612ab957610100808354040283529160200191612ae4565b820191906000526020600020905b815481529060010190602001808311612ac757829003601f168201915b5050505050905060005b86869050811015612c7157600b82604051612b0991906155bd565b9081526020016040518091039020878783818110612b2a57612b29615957565b5b9050602002810190612b3c9190615995565b604051612b4a929190615513565b908152602001604051809103902060009054906101000a900460ff16612b9c576040517f722f899200000000000000000000000000000000000000000000000000000000815260040160405180910390fd5b612bcc82888884818110612bb357612bb2615957565b5b9050602002810190612bc59190615995565b6001614615565b848482818110612bdf57612bde615957565b5b9050602002810190612bf19190615995565b600d84604051612c0191906155bd565b9081526020016040518091039020898985818110612c2257612c21615957565b5b9050602002810190612c349190615995565b604051612c42929190615513565b90815260200160405180910390209182612c5d929190615a7a565b508080612c6990615a27565b915050612aee565b50505050505050565b6000600160003373ffffffffffffffffffffffffffffffffffffffff1673ffffffffffffffffffffffffffffffffffffffff1681526020019081526020016000208054612cc69061555b565b80601f0160208091040260200160405190810160405280929190818152602001828054612cf29061555b565b8015612d3f5780601f10612d1457610100808354040283529160200191612d3f565b820191906000526020600020905b815481529060010190602001808311612d2257829003601f168201915b5050505050905060006003811115612d5a57612d59615022565b5b600382604051612d6a91906155bd565b908152602001604051809103902060009054906101000a900460ff166003811115612d9857612d97615022565b5b03612dcf576040517f8fa622f500000000000000000000000000000000000000000000000000000000815260040160405180910390fd5b60026003811115612de357612de2615022565b5b600382604051612df391906155bd565b908152602001604051809103902060009054906101000a900460ff166003811115612e2157612e20615022565b5b14612e58576040517f8ac8e00b00000000000000000000000000000000000000000000000000000000815260040160405180910390fd5b848460006001811115612e6e57612e6d615022565b5b60088383604051612e80929190615513565b908152602001604051809103902060009054906101000a900460ff166001811115612eae57612ead615022565b5b03612ee5576040517f078de8bf00000000000000000000000000000000000000000000000000000000815260040160405180910390fd5b6000600160003373ffffffffffffffffffffffffffffffffffffffff1673ffffffffffffffffffffffffffffffffffffffff1681526020019081526020016000208054612f319061555b565b80601f0160208091040260200160405190810160405280929190818152602001828054612f5d9061555b565b8015612faa5780601f10612f7f57610100808354040283529160200191612faa565b820191906000526020600020905b815481529060010190602001808311612f8d57829003601f168201915b50505050509050600060098484604051612fc5929190615513565b9081526020016040518091039020604051612fdf906156cf565b90815260200160405180910390208054612ff89061555b565b80601f01602080910402602001604051908101604052809291908181526020018280546130249061555b565b80156130715780601f1061304657610100808354040283529160200191613071565b820191906000526020600020905b81548152906001019060200180831161305457829003601f168201915b505050505090508060405160200161308991906155bd565b60405160208183030381529060405280519060200120826040516020016130b091906155bd565b60405160208183030381529060405280519060200120146130fd576040517fca7b7fb200000000000000000000000000000000000000000000000000000000815260040160405180910390fd5b61314e89898080601f016020809104026020016040519081016040528093929190818152602001838380828437600081840152601f19601f8201169050808301925050505050505088886000614615565b6132a789898080601f016020809104026020016040519081016040528093929190818152602001838380828437600081840152601f19601f8201169050808301925050505050505088888080601f016020809104026020016040519081016040528093929190818152602001838380828437600081840152601f19601f82011690508083019250505050505050600d8c8c6040516131ed929190615513565b90815260200160405180910390208a8a60405161320b929190615513565b908152602001604051809103902080546132249061555b565b80601f01602080910402602001604051908101604052809291908181526020018280546132509061555b565b801561329d5780601f106132725761010080835404028352916020019161329d565b820191906000526020600020905b81548152906001019060200180831161328057829003601f168201915b5050505050614335565b505050505050505050565b6000600383836040516132c6929190615513565b908152602001604051809103902060009054906101000a900460ff16905092915050565b60008054906101000a900473ffffffffffffffffffffffffffffffffffffffff1673ffffffffffffffffffffffffffffffffffffffff163373ffffffffffffffffffffffffffffffffffffffff161461336f576040517f2dca963600000000000000000000000000000000000000000000000000000000815260040160405180910390fd5b6000600381111561338357613382615022565b5b60038383604051613395929190615513565b908152602001604051809103902060009054906101000a900460ff1660038111156133c3576133c2615022565b5b036133fa576040517f567e9be600000000000000000000000000000000000000000000000000000000815260040160405180910390fd5b6002600381111561340e5761340d615022565b5b60038383604051613420929190615513565b908152602001604051809103902060009054906101000a900460ff16600381111561344e5761344d615022565b5b03613485576040517f61fd49df00000000000000000000000000000000000000000000000000000000815260040160405180910390fd5b600260038383604051613499929190615513565b908152602001604051809103902060006101000a81548160ff021916908360038111156134c9576134c8615022565b5b02179055505050565b600080600160003373ffffffffffffffffffffffffffffffffffffffff1673ffffffffffffffffffffffffffffffffffffffff168152602001908152602001600020805461351f9061555b565b80601f016020809104026020016040519081016040528092919081815260200182805461354b9061555b565b80156135985780601f1061356d57610100808354040283529160200191613598565b820191906000526020600020905b81548152906001019060200180831161357b57829003601f168201915b50505050509050600060038111156135b3576135b2615022565b5b6003826040516135c391906155bd565b908152602001604051809103902060009054906101000a900460ff1660038111156135f1576135f0615022565b5b03613628576040517f8fa622f500000000000000000000000000000000000000000000000000000000815260040160405180910390fd5b6002600381111561363c5761363b615022565b5b60038260405161364c91906155bd565b908152602001604051809103902060009054906101000a900460ff16600381111561367a57613679615022565b5b146136b1576040517f8ac8e00b00000000000000000000000000000000000000000000000000000000815260040160405180910390fd5b8585600060018111156136c7576136c6615022565b5b600883836040516136d9929190615513565b908152602001604051809103902060009054906101000a900460ff16600181111561370757613706615022565b5b0361373e576040517f078de8bf00000000000000000000000000000000000000000000000000000000815260040160405180910390fd5b6000600160003373ffffffffffffffffffffffffffffffffffffffff1673ffffffffffffffffffffffffffffffffffffffff168152602001908152602001600020805461378a9061555b565b80601f01602080910402602001604051908101604052809291908181526020018280546137b69061555b565b80156138035780601f106137d857610100808354040283529160200191613803565b820191906000526020600020905b8154815290600101906020018083116137e657829003601f168201915b5050505050905060006009848460405161381e929190615513565b9081526020016040518091039020604051613838906156cf565b908152602001604051809103902080546138519061555b565b80601f016020809104026020016040519081016040528092919081815260200182805461387d9061555b565b80156138ca5780601f1061389f576101008083540402835291602001916138ca565b820191906000526020600020905b8154815290600101906020018083116138ad57829003601f168201915b50505050509050806040516020016138e291906155bd565b604051602081830303815290604052805190602001208260405160200161390991906155bd565b6040516020818303038152906040528051906020012014613956576040517fca7b7fb200000000000000000000000000000000000000000000000000000000815260040160405180910390fd5b600c8a8a604051613968929190615513565b90815260200160405180910390208888604051613986929190615513565b908152602001604051809103902060009054906101000a900460ff1695505050505050949350505050565b6000600660003373ffffffffffffffffffffffffffffffffffffffff1673ffffffffffffffffffffffffffffffffffffffff16815260200190815260200160002080546139fd9061555b565b80601f0160208091040260200160405190810160405280929190818152602001828054613a299061555b565b8015613a765780601f10613a4b57610100808354040283529160200191613a76565b820191906000526020600020905b815481529060010190602001808311613a5957829003601f168201915b5050505050905060006001811115613a9157613a90615022565b5b600882604051613aa191906155bd565b908152602001604051809103902060009054906101000a900460ff166001811115613acf57613ace615022565b5b03613b06576040517f078de8bf00000000000000000000000000000000000000000000000000000000815260040160405180910390fd5b828290508585905014613b45576040517f79b3f46f00000000000000000000000000000000000000000000000000000000815260040160405180910390fd5b6000600660003373ffffffffffffffffffffffffffffffffffffffff1673ffffffffffffffffffffffffffffffffffffffff1681526020019081526020016000208054613b919061555b565b80601f0160208091040260200160405190810160405280929190818152602001828054613bbd9061555b565b8015613c0a5780601f10613bdf57610100808354040283529160200191613c0a565b820191906000526020600020905b815481529060010190602001808311613bed57829003601f168201915b5050505050905060005b86869050811015613d0d57848482818110613c3257613c31615957565b5b9050602002016020810190613c479190615b4a565b600e60008a73ffffffffffffffffffffffffffffffffffffffff1673ffffffffffffffffffffffffffffffffffffffff16815260200190815260200160002083604051613c9491906155bd565b9081526020016040518091039020888884818110613cb557613cb4615957565b5b9050602002810190613cc79190615995565b604051613cd5929190615513565b908152602001604051809103902060006101000a81548160ff0219169083151502179055508080613d0590615a27565b915050613c14565b5050505050505050565b6060600a8383604051613d2b929190615513565b9081526020016040518091039020805480602002602001604051908101604052809291908181526020016000905b82821015613e05578382906000526020600020018054613d789061555b565b80601f0160208091040260200160405190810160405280929190818152602001828054613da49061555b565b8015613df15780601f10613dc657610100808354040283529160200191613df1565b820191906000526020600020905b815481529060010190602001808311613dd457829003601f168201915b505050505081526020019060010190613d59565b50505050905092915050565b6000600160003373ffffffffffffffffffffffffffffffffffffffff1673ffffffffffffffffffffffffffffffffffffffff1681526020019081526020016000208054613e5d9061555b565b80601f0160208091040260200160405190810160405280929190818152602001828054613e899061555b565b8015613ed65780601f10613eab57610100808354040283529160200191613ed6565b820191906000526020600020905b815481529060010190602001808311613eb957829003601f168201915b5050505050905060006003811115613ef157613ef0615022565b5b600382604051613f0191906155bd565b908152602001604051809103902060009054906101000a900460ff166003811115613f2f57613f2e615022565b5b03613f66576040517f8fa622f500000000000000000000000000000000000000000000000000000000815260040160405180910390fd5b60026003811115613f7a57613f79615022565b5b600382604051613f8a91906155bd565b908152602001604051809103902060009054906101000a900460ff166003811115613fb857613fb7615022565b5b14613fef576040517f8ac8e00b00000000000000000000000000000000000000000000000000000000815260040160405180910390fd5b85856000600181111561400557614004615022565b5b60088383604051614017929190615513565b908152602001604051809103902060009054906101000a900460ff16600181111561404557614044615022565b5b0361407c576040517f078de8bf00000000000000000000000000000000000000000000000000000000815260040160405180910390fd5b6000600160003373ffffffffffffffffffffffffffffffffffffffff1673ffffffffffffffffffffffffffffffffffffffff16815260200190815260200160002080546140c89061555b565b80601f01602080910402602001604051908101604052809291908181526020018280546140f49061555b565b80156141415780601f1061411657610100808354040283529160200191614141565b820191906000526020600020905b81548152906001019060200180831161412457829003601f168201915b5050505050905060006009848460405161415c929190615513565b9081526020016040518091039020604051614176906156cf565b9081526020016040518091039020805461418f9061555b565b80601f01602080910402602001604051908101604052809291908181526020018280546141bb9061555b565b80156142085780601f106141dd57610100808354040283529160200191614208565b820191906000526020600020905b8154815290600101906020018083116141eb57829003601f168201915b505050505090508060405160200161422091906155bd565b604051602081830303815290604052805190602001208260405160200161424791906155bd565b6040516020818303038152906040528051906020012014614294576040517fca7b7fb200000000000000000000000000000000000000000000000000000000815260040160405180910390fd5b85600b8b8b6040516142a7929190615513565b908152602001604051809103902089896040516142c5929190615513565b908152602001604051809103902060006101000a81548160ff02191690831515021790555050505050505050505050565b606061432e82424460405160200161431093929190615be0565b6040516020818303038152906040528051906020012060001c61467f565b9050919050565b600060098460405161434791906155bd565b90815260200160405180910390208360405161436391906155bd565b9081526020016040518091039020805461437c9061555b565b80601f01602080910402602001604051908101604052809291908181526020018280546143a89061555b565b80156143f55780601f106143ca576101008083540402835291602001916143f5565b820191906000526020600020905b8154815290600101906020018083116143d857829003601f168201915b50505050509050600081510361445757600a8460405161441591906155bd565b9081526020016040518091039020839080600181540180825580915050600190039060005260206000200160009091909190915090816144559190615885565b505b8160098560405161446891906155bd565b90815260200160405180910390208460405161448491906155bd565b9081526020016040518091039020908161449e9190615885565b5050505050565b60006004846040516144b791906155bd565b9081526020016040518091039020836040516144d391906155bd565b908152602001604051809103902080546144ec9061555b565b80601f01602080910402602001604051908101604052809291908181526020018280546145189061555b565b80156145655780601f1061453a57610100808354040283529160200191614565565b820191906000526020600020905b81548152906001019060200180831161454857829003601f168201915b5050505050905060008151036145c75760058460405161458591906155bd565b9081526020016040518091039020839080600181540180825580915050600190039060005260206000200160009091909190915090816145c59190615885565b505b816004856040516145d891906155bd565b9081526020016040518091039020846040516145f491906155bd565b9081526020016040518091039020908161460e9190615885565b5050505050565b80600c8560405161462691906155bd565b90815260200160405180910390208484604051614644929190615513565b908152602001604051809103902060006101000a81548160ff0219169083600281111561467457614673615022565b5b021790555050505050565b60606146968260016146908561469d565b0161472d565b9050919050565b600080600090506000608084901c11156146bf57608083901c92506010810190505b6000604084901c11156146da57604083901c92506008810190505b6000602084901c11156146f557602083901c92506004810190505b6000601084901c111561471057601083901c92506002810190505b6000600884901c1115614724576001810190505b80915050919050565b6060600060028360026147409190615c1d565b61474a9190615c5f565b67ffffffffffffffff81111561476357614762614c84565b5b6040519080825280601f01601f1916602001820160405280156147955781602001600182028036833780820191505090505b5090507f3000000000000000000000000000000000000000000000000000000000000000816000815181106147cd576147cc615957565b5b60200101907effffffffffffffffffffffffffffffffffffffffffffffffffffffffffffff1916908160001a9053507f78000000000000000000000000000000000000000000000000000000000000008160018151811061483157614830615957565b5b60200101907effffffffffffffffffffffffffffffffffffffffffffffffffffffffffffff1916908160001a905350600060018460026148719190615c1d565b61487b9190615c5f565b90505b600181111561491b577f3031323334353637383961626364656600000000000000000000000000000000600f8616601081106148bd576148bc615957565b5b1a60f81b8282815181106148d4576148d3615957565b5b60200101907effffffffffffffffffffffffffffffffffffffffffffffffffffffffffffff1916908160001a905350600485901c94508061491490615c93565b905061487e565b506000841461495f576040517f08c379a000000000000000000000000000000000000000000000000000000000815260040161495690615d08565b60405180910390fd5b8091505092915050565b6000604051905090565b600080fd5b600080fd5b600073ffffffffffffffffffffffffffffffffffffffff82169050919050565b60006149a88261497d565b9050919050565b6149b88161499d565b81146149c357600080fd5b50565b6000813590506149d5816149af565b92915050565b600080fd5b600080fd5b600080fd5b60008083601f840112614a00576149ff6149db565b5b8235905067ffffffffffffffff811115614a1d57614a1c6149e0565b5b602083019150836001820283011115614a3957614a386149e5565b5b9250929050565b600080600080600060608688031215614a5c57614a5b614973565b5b6000614a6a888289016149c6565b955050602086013567ffffffffffffffff811115614a8b57614a8a614978565b5b614a97888289016149ea565b9450945050604086013567ffffffffffffffff811115614aba57614ab9614978565b5b614ac6888289016149ea565b92509250509295509295909350565b60008115159050919050565b614aea81614ad5565b82525050565b6000602082019050614b056000830184614ae1565b92915050565b600081519050919050565b600082825260208201905092915050565b6000819050602082019050919050565b600081519050919050565b600082825260208201905092915050565b60005b83811015614b71578082015181840152602081019050614b56565b60008484015250505050565b6000601f19601f8301169050919050565b6000614b9982614b37565b614ba38185614b42565b9350614bb3818560208601614b53565b614bbc81614b7d565b840191505092915050565b6000614bd38383614b8e565b905092915050565b6000602082019050919050565b6000614bf382614b0b565b614bfd8185614b16565b935083602082028501614c0f85614b27565b8060005b85811015614c4b5784840389528151614c2c8582614bc7565b9450614c3783614bdb565b925060208a01995050600181019050614c13565b50829750879550505050505092915050565b60006020820190508181036000830152614c778184614be8565b905092915050565b600080fd5b7f4e487b7100000000000000000000000000000000000000000000000000000000600052604160045260246000fd5b614cbc82614b7d565b810181811067ffffffffffffffff82111715614cdb57614cda614c84565b5b80604052505050565b6000614cee614969565b9050614cfa8282614cb3565b919050565b600067ffffffffffffffff821115614d1a57614d19614c84565b5b614d2382614b7d565b9050602081019050919050565b82818337600083830152505050565b6000614d52614d4d84614cff565b614ce4565b905082815260208101848484011115614d6e57614d6d614c7f565b5b614d79848285614d30565b509392505050565b600082601f830112614d9657614d956149db565b5b8135614da6848260208601614d3f565b91505092915050565b60008060408385031215614dc657614dc5614973565b5b600083013567ffffffffffffffff811115614de457614de3614978565b5b614df085828601614d81565b925050602083013567ffffffffffffffff811115614e1157614e10614978565b5b614e1d85828601614d81565b9150509250929050565b60008060208385031215614e3e57614e3d614973565b5b600083013567ffffffffffffffff811115614e5c57614e5b614978565b5b614e68858286016149ea565b92509250509250929050565b614e7d81614ad5565b8114614e8857600080fd5b50565b600081359050614e9a81614e74565b92915050565b600080600080600060608688031215614ebc57614ebb614973565b5b600086013567ffffffffffffffff811115614eda57614ed9614978565b5b614ee6888289016149ea565b9550955050602086013567ffffffffffffffff811115614f0957614f08614978565b5b614f15888289016149ea565b93509350506040614f2888828901614e8b565b9150509295509295909350565b600082825260208201905092915050565b6000614f5182614b37565b614f5b8185614f35565b9350614f6b818560208601614b53565b614f7481614b7d565b840191505092915050565b60006020820190508181036000830152614f998184614f46565b905092915050565b60008060008060408587031215614fbb57614fba614973565b5b600085013567ffffffffffffffff811115614fd957614fd8614978565b5b614fe5878288016149ea565b9450945050602085013567ffffffffffffffff81111561500857615007614978565b5b615014878288016149ea565b925092505092959194509250565b7f4e487b7100000000000000000000000000000000000000000000000000000000600052602160045260246000fd5b6002811061506257615061615022565b5b50565b600081905061507382615051565b919050565b600061508382615065565b9050919050565b61509381615078565b82525050565b60006020820190506150ae600083018461508a565b92915050565b60008060008060008060006080888a0312156150d3576150d2614973565b5b60006150e18a828b016149c6565b975050602088013567ffffffffffffffff81111561510257615101614978565b5b61510e8a828b016149ea565b9650965050604088013567ffffffffffffffff81111561513157615130614978565b5b61513d8a828b016149ea565b9450945050606088013567ffffffffffffffff8111156151605761515f614978565b5b61516c8a828b016149ea565b925092505092959891949750929550565b6151868161499d565b82525050565b60006020820190506151a1600083018461517d565b92915050565b60008083601f8401126151bd576151bc6149db565b5b8235905067ffffffffffffffff8111156151da576151d96149e0565b5b6020830191508360208202830111156151f6576151f56149e5565b5b9250929050565b6000806000806000806060878903121561521a57615219614973565b5b600087013567ffffffffffffffff81111561523857615237614978565b5b61524489828a016149ea565b9650965050602087013567ffffffffffffffff81111561526757615266614978565b5b61527389828a016151a7565b9450945050604087013567ffffffffffffffff81111561529657615295614978565b5b6152a289828a016151a7565b92509250509295509295509295565b600080600080604085870312156152cb576152ca614973565b5b600085013567ffffffffffffffff8111156152e9576152e8614978565b5b6152f5878288016151a7565b9450945050602085013567ffffffffffffffff81111561531857615317614978565b5b615324878288016151a7565b925092505092959194509250565b6004811061534357615342615022565b5b50565b600081905061535482615332565b919050565b600061536482615346565b9050919050565b61537481615359565b82525050565b600060208201905061538f600083018461536b565b92915050565b600381106153a6576153a5615022565b5b50565b60008190506153b782615395565b919050565b60006153c7826153a9565b9050919050565b6153d7816153bc565b82525050565b60006020820190506153f260008301846153ce565b92915050565b60008083601f84011261540e5761540d6149db565b5b8235905067ffffffffffffffff81111561542b5761542a6149e0565b5b602083019150836020820283011115615447576154466149e5565b5b9250929050565b60008060008060006060868803121561546a57615469614973565b5b6000615478888289016149c6565b955050602086013567ffffffffffffffff81111561549957615498614978565b5b6154a5888289016151a7565b9450945050604086013567ffffffffffffffff8111156154c8576154c7614978565b5b6154d4888289016153f8565b92509250509295509295909350565b600081905092915050565b60006154fa83856154e3565b9350615507838584614d30565b82840190509392505050565b60006155208284866154ee565b91508190509392505050565b7f4e487b7100000000000000000000000000000000000000000000000000000000600052602260045260246000fd5b6000600282049050600182168061557357607f821691505b6020821081036155865761558561552c565b5b50919050565b600061559782614b37565b6155a181856154e3565b93506155b1818560208601614b53565b80840191505092915050565b60006155c9828461558c565b915081905092915050565b60008190508160005260206000209050919050565b600081546155f68161555b565b61560081866154e3565b9450600182166000811461561b576001811461563057615663565b60ff1983168652811515820286019350615663565b615639856155d4565b60005b8381101561565b5781548189015260018201915060208101905061563c565b838801955050505b50505092915050565b600061567882846155e9565b915081905092915050565b7f436f6c6c65676520496400000000000000000000000000000000000000000000600082015250565b60006156b9600a836154e3565b91506156c482615683565b600a82019050919050565b60006156da826156ac565b9150819050919050565b60006020601f8301049050919050565b600082821b905092915050565b6000600883026157317fffffffffffffffffffffffffffffffffffffffffffffffffffffffffffffffff826156f4565b61573b86836156f4565b95508019841693508086168417925050509392505050565b6000819050919050565b6000819050919050565b600061578261577d61577884615753565b61575d565b615753565b9050919050565b6000819050919050565b61579c83615767565b6157b06157a882615789565b848454615701565b825550505050565b600090565b6157c56157b8565b6157d0818484615793565b505050565b5b818110156157f4576157e96000826157bd565b6001810190506157d6565b5050565b601f8211156158395761580a816155d4565b615813846156e4565b81016020851015615822578190505b61583661582e856156e4565b8301826157d5565b50505b505050565b600082821c905092915050565b600061585c6000198460080261583e565b1980831691505092915050565b6000615875838361584b565b9150826002028217905092915050565b61588e82614b37565b67ffffffffffffffff8111156158a7576158a6614c84565b5b6158b1825461555b565b6158bc8282856157f8565b600060209050601f8311600181146158ef57600084156158dd578287015190505b6158e78582615869565b86555061594f565b601f1984166158fd866155d4565b60005b8281101561592557848901518255600182019150602085019450602081019050615900565b86831015615942578489015161593e601f89168261584b565b8355505b6001600288020188555050505b505050505050565b7f4e487b7100000000000000000000000000000000000000000000000000000000600052603260045260246000fd5b600080fd5b600080fd5b600080fd5b600080833560016020038436030381126159b2576159b1615986565b5b80840192508235915067ffffffffffffffff8211156159d4576159d361598b565b5b6020830192506001820236038313156159f0576159ef615990565b5b509250929050565b7f4e487b7100000000000000000000000000000000000000000000000000000000600052601160045260246000fd5b6000615a3282615753565b91507fffffffffffffffffffffffffffffffffffffffffffffffffffffffffffffffff8203615a6457615a636159f8565b5b600182019050919050565b600082905092915050565b615a848383615a6f565b67ffffffffffffffff811115615a9d57615a9c614c84565b5b615aa7825461555b565b615ab28282856157f8565b6000601f831160018114615ae15760008415615acf578287013590505b615ad98582615869565b865550615b41565b601f198416615aef866155d4565b60005b82811015615b1757848901358255600182019150602085019450602081019050615af2565b86831015615b345784890135615b30601f89168261584b565b8355505b6001600288020188555050505b50505050505050565b600060208284031215615b6057615b5f614973565b5b6000615b6e84828501614e8b565b91505092915050565b60008160601b9050919050565b6000615b8f82615b77565b9050919050565b6000615ba182615b84565b9050919050565b615bb9615bb48261499d565b615b96565b82525050565b6000819050919050565b615bda615bd582615753565b615bbf565b82525050565b6000615bec8286615ba8565b601482019150615bfc8285615bc9565b602082019150615c0c8284615bc9565b602082019150819050949350505050565b6000615c2882615753565b9150615c3383615753565b9250828202615c4181615753565b91508282048414831517615c5857615c576159f8565b5b5092915050565b6000615c6a82615753565b9150615c7583615753565b9250828201905080821115615c8d57615c8c6159f8565b5b92915050565b6000615c9e82615753565b915060008203615cb157615cb06159f8565b5b600182039050919050565b7f537472696e67733a20686578206c656e67746820696e73756666696369656e74600082015250565b6000615cf2602083614f35565b9150615cfd82615cbc565b602082019050919050565b60006020820190508181036000830152615d2181615ce5565b905091905056fea2646970667358221220eb88c65bb67d8a9b2966ec3f1174b09f3447cce079290aff43257fb33ecf716764736f6c63430008110033","opcodes":"PUSH1 0x80 PUSH1 0x40 MSTORE CALLVALUE DUP1 ISZERO PUSH2 0x10 JUMPI PUSH1 0x0 DUP1 REVERT JUMPDEST POP CALLER PUSH1 0x0 DUP1 PUSH2 0x100 EXP DUP2 SLOAD DUP2 PUSH20 0xFFFFFFFFFFFFFFFFFFFFFFFFFFFFFFFFFFFFFFFF MUL NOT AND SWAP1 DUP4 PUSH20 0xFFFFFFFFFFFFFFFFFFFFFFFFFFFFFFFFFFFFFFFF AND MUL OR SWAP1 SSTORE POP PUSH2 0x5D5E DUP1 PUSH3 0x61 PUSH1 0x0 CODECOPY PUSH1 0x0 RETURN INVALID PUSH1 0x80 PUSH1 0x40 MSTORE CALLVALUE DUP1 ISZERO PUSH2 0x10 JUMPI PUSH1 0x0 DUP1 REVERT JUMPDEST POP PUSH1 0x4 CALLDATASIZE LT PUSH2 0x158 JUMPI PUSH1 0x0 CALLDATALOAD PUSH1 0xE0 SHR DUP1 PUSH4 0x893D20E8 GT PUSH2 0xC3 JUMPI DUP1 PUSH4 0xBC1829F8 GT PUSH2 0x7C JUMPI DUP1 PUSH4 0xBC1829F8 EQ PUSH2 0x3D7 JUMPI DUP1 PUSH4 0xC2D8EEF3 EQ PUSH2 0x407 JUMPI DUP1 PUSH4 0xCE54123D EQ PUSH2 0x423 JUMPI DUP1 PUSH4 0xE2A311E7 EQ PUSH2 0x453 JUMPI DUP1 PUSH4 0xEA055796 EQ PUSH2 0x46F JUMPI DUP1 PUSH4 0xF42867A5 EQ PUSH2 0x49F JUMPI PUSH2 0x158 JUMP JUMPDEST DUP1 PUSH4 0x893D20E8 EQ PUSH2 0x319 JUMPI DUP1 PUSH4 0x90BFF258 EQ PUSH2 0x337 JUMPI DUP1 PUSH4 0x95A6BA22 EQ PUSH2 0x353 JUMPI DUP1 PUSH4 0x9A645856 EQ PUSH2 0x36F JUMPI DUP1 PUSH4 0xA83CF342 EQ PUSH2 0x39F JUMPI DUP1 PUSH4 0xB4A9F2C4 EQ PUSH2 0x3BB JUMPI PUSH2 0x158 JUMP JUMPDEST DUP1 PUSH4 0x62893B13 GT PUSH2 0x115 JUMPI DUP1 PUSH4 0x62893B13 EQ PUSH2 0x245 JUMPI DUP1 PUSH4 0x75D0B932 EQ PUSH2 0x275 JUMPI DUP1 PUSH4 0x7BB312FD EQ PUSH2 0x2A5 JUMPI DUP1 PUSH4 0x7F3E1E82 EQ PUSH2 0x2C3 JUMPI DUP1 PUSH4 0x85C5989E EQ PUSH2 0x2DF JUMPI DUP1 PUSH4 0x88C045E2 EQ PUSH2 0x2FB JUMPI PUSH2 0x158 JUMP JUMPDEST DUP1 PUSH4 0x147AABD EQ PUSH2 0x15D JUMPI DUP1 PUSH4 0x1ABF4112 EQ PUSH2 0x18D JUMPI DUP1 PUSH4 0x28FD6AE1 EQ PUSH2 0x1AB JUMPI DUP1 PUSH4 0x3D9C5434 EQ PUSH2 0x1DB JUMPI DUP1 PUSH4 0x3E6835B4 EQ PUSH2 0x1F7 JUMPI DUP1 PUSH4 0x53EF780E EQ PUSH2 0x227 JUMPI JUMPDEST PUSH1 0x0 DUP1 REVERT JUMPDEST PUSH2 0x177 PUSH1 0x4 DUP1 CALLDATASIZE SUB DUP2 ADD SWAP1 PUSH2 0x172 SWAP2 SWAP1 PUSH2 0x4A40 JUMP JUMPDEST PUSH2 0x4BB JUMP JUMPDEST PUSH1 0x40 MLOAD PUSH2 0x184 SWAP2 SWAP1 PUSH2 0x4AF0 JUMP JUMPDEST PUSH1 0x40 MLOAD DUP1 SWAP2 SUB SWAP1 RETURN JUMPDEST PUSH2 0x195 PUSH2 0x551 JUMP JUMPDEST PUSH1 0x40 MLOAD PUSH2 0x1A2 SWAP2 SWAP1 PUSH2 0x4C5D JUMP JUMPDEST PUSH1 0x40 MLOAD DUP1 SWAP2 SUB SWAP1 RETURN JUMPDEST PUSH2 0x1C5 PUSH1 0x4 DUP1 CALLDATASIZE SUB DUP2 ADD SWAP1 PUSH2 0x1C0 SWAP2 SWAP1 PUSH2 0x4DAF JUMP JUMPDEST PUSH2 0x863 JUMP JUMPDEST PUSH1 0x40 MLOAD PUSH2 0x1D2 SWAP2 SWAP1 PUSH2 0x4AF0 JUMP JUMPDEST PUSH1 0x40 MLOAD DUP1 SWAP2 SUB SWAP1 RETURN JUMPDEST PUSH2 0x1F5 PUSH1 0x4 DUP1 CALLDATASIZE SUB DUP2 ADD SWAP1 PUSH2 0x1F0 SWAP2 SWAP1 PUSH2 0x4E27 JUMP JUMPDEST PUSH2 0x8B5 JUMP JUMPDEST STOP JUMPDEST PUSH2 0x211 PUSH1 0x4 DUP1 CALLDATASIZE SUB DUP2 ADD SWAP1 PUSH2 0x20C SWAP2 SWAP1 PUSH2 0x4EA0 JUMP JUMPDEST PUSH2 0xA9B JUMP JUMPDEST PUSH1 0x40 MLOAD PUSH2 0x21E SWAP2 SWAP1 PUSH2 0x4F7F JUMP JUMPDEST PUSH1 0x40 MLOAD DUP1 SWAP2 SUB SWAP1 RETURN JUMPDEST PUSH2 0x22F PUSH2 0x10D6 JUMP JUMPDEST PUSH1 0x40 MLOAD PUSH2 0x23C SWAP2 SWAP1 PUSH2 0x4F7F JUMP JUMPDEST PUSH1 0x40 MLOAD DUP1 SWAP2 SUB SWAP1 RETURN JUMPDEST PUSH2 0x25F PUSH1 0x4 DUP1 CALLDATASIZE SUB DUP2 ADD SWAP1 PUSH2 0x25A SWAP2 SWAP1 PUSH2 0x4FA1 JUMP JUMPDEST PUSH2 0x11A5 JUMP JUMPDEST PUSH1 0x40 MLOAD PUSH2 0x26C SWAP2 SWAP1 PUSH2 0x4F7F JUMP JUMPDEST PUSH1 0x40 MLOAD DUP1 SWAP2 SUB SWAP1 RETURN JUMPDEST PUSH2 0x28F PUSH1 0x4 DUP1 CALLDATASIZE SUB DUP2 ADD SWAP1 PUSH2 0x28A SWAP2 SWAP1 PUSH2 0x4E27 JUMP JUMPDEST PUSH2 0x145C JUMP JUMPDEST PUSH1 0x40 MLOAD PUSH2 0x29C SWAP2 SWAP1 PUSH2 0x5099 JUMP JUMPDEST PUSH1 0x40 MLOAD DUP1 SWAP2 SUB SWAP1 RETURN JUMPDEST PUSH2 0x2AD PUSH2 0x1494 JUMP JUMPDEST PUSH1 0x40 MLOAD PUSH2 0x2BA SWAP2 SWAP1 PUSH2 0x4F7F JUMP JUMPDEST PUSH1 0x40 MLOAD DUP1 SWAP2 SUB SWAP1 RETURN JUMPDEST PUSH2 0x2DD PUSH1 0x4 DUP1 CALLDATASIZE SUB DUP2 ADD SWAP1 PUSH2 0x2D8 SWAP2 SWAP1 PUSH2 0x50B4 JUMP JUMPDEST PUSH2 0x1563 JUMP JUMPDEST STOP JUMPDEST PUSH2 0x2F9 PUSH1 0x4 DUP1 CALLDATASIZE SUB DUP2 ADD SWAP1 PUSH2 0x2F4 SWAP2 SWAP1 PUSH2 0x4E27 JUMP JUMPDEST PUSH2 0x1AD7 JUMP JUMPDEST STOP JUMPDEST PUSH2 0x303 PUSH2 0x1C36 JUMP JUMPDEST PUSH1 0x40 MLOAD PUSH2 0x310 SWAP2 SWAP1 PUSH2 0x4C5D JUMP JUMPDEST PUSH1 0x40 MLOAD DUP1 SWAP2 SUB SWAP1 RETURN JUMPDEST PUSH2 0x321 PUSH2 0x1D0F JUMP JUMPDEST PUSH1 0x40 MLOAD PUSH2 0x32E SWAP2 SWAP1 PUSH2 0x518C JUMP JUMPDEST PUSH1 0x40 MLOAD DUP1 SWAP2 SUB SWAP1 RETURN JUMPDEST PUSH2 0x351 PUSH1 0x4 DUP1 CALLDATASIZE SUB DUP2 ADD SWAP1 PUSH2 0x34C SWAP2 SWAP1 PUSH2 0x51FD JUMP JUMPDEST PUSH2 0x1D38 JUMP JUMPDEST STOP JUMPDEST PUSH2 0x36D PUSH1 0x4 DUP1 CALLDATASIZE SUB DUP2 ADD SWAP1 PUSH2 0x368 SWAP2 SWAP1 PUSH2 0x4FA1 JUMP JUMPDEST PUSH2 0x23EE JUMP JUMPDEST STOP JUMPDEST PUSH2 0x389 PUSH1 0x4 DUP1 CALLDATASIZE SUB DUP2 ADD SWAP1 PUSH2 0x384 SWAP2 SWAP1 PUSH2 0x4FA1 JUMP JUMPDEST PUSH2 0x27B8 JUMP JUMPDEST PUSH1 0x40 MLOAD PUSH2 0x396 SWAP2 SWAP1 PUSH2 0x4F7F JUMP JUMPDEST PUSH1 0x40 MLOAD DUP1 SWAP2 SUB SWAP1 RETURN JUMPDEST PUSH2 0x3B9 PUSH1 0x4 DUP1 CALLDATASIZE SUB DUP2 ADD SWAP1 PUSH2 0x3B4 SWAP2 SWAP1 PUSH2 0x52B1 JUMP JUMPDEST PUSH2 0x288B JUMP JUMPDEST STOP JUMPDEST PUSH2 0x3D5 PUSH1 0x4 DUP1 CALLDATASIZE SUB DUP2 ADD SWAP1 PUSH2 0x3D0 SWAP2 SWAP1 PUSH2 0x4FA1 JUMP JUMPDEST PUSH2 0x2C7A JUMP JUMPDEST STOP JUMPDEST PUSH2 0x3F1 PUSH1 0x4 DUP1 CALLDATASIZE SUB DUP2 ADD SWAP1 PUSH2 0x3EC SWAP2 SWAP1 PUSH2 0x4E27 JUMP JUMPDEST PUSH2 0x32B2 JUMP JUMPDEST PUSH1 0x40 MLOAD PUSH2 0x3FE SWAP2 SWAP1 PUSH2 0x537A JUMP JUMPDEST PUSH1 0x40 MLOAD DUP1 SWAP2 SUB SWAP1 RETURN JUMPDEST PUSH2 0x421 PUSH1 0x4 DUP1 CALLDATASIZE SUB DUP2 ADD SWAP1 PUSH2 0x41C SWAP2 SWAP1 PUSH2 0x4E27 JUMP JUMPDEST PUSH2 0x32EA JUMP JUMPDEST STOP JUMPDEST PUSH2 0x43D PUSH1 0x4 DUP1 CALLDATASIZE SUB DUP2 ADD SWAP1 PUSH2 0x438 SWAP2 SWAP1 PUSH2 0x4FA1 JUMP JUMPDEST PUSH2 0x34D2 JUMP JUMPDEST PUSH1 0x40 MLOAD PUSH2 0x44A SWAP2 SWAP1 PUSH2 0x53DD JUMP JUMPDEST PUSH1 0x40 MLOAD DUP1 SWAP2 SUB SWAP1 RETURN JUMPDEST PUSH2 0x46D PUSH1 0x4 DUP1 CALLDATASIZE SUB DUP2 ADD SWAP1 PUSH2 0x468 SWAP2 SWAP1 PUSH2 0x544E JUMP JUMPDEST PUSH2 0x39B1 JUMP JUMPDEST STOP JUMPDEST PUSH2 0x489 PUSH1 0x4 DUP1 CALLDATASIZE SUB DUP2 ADD SWAP1 PUSH2 0x484 SWAP2 SWAP1 PUSH2 0x4E27 JUMP JUMPDEST PUSH2 0x3D17 JUMP JUMPDEST PUSH1 0x40 MLOAD PUSH2 0x496 SWAP2 SWAP1 PUSH2 0x4C5D JUMP JUMPDEST PUSH1 0x40 MLOAD DUP1 SWAP2 SUB SWAP1 RETURN JUMPDEST PUSH2 0x4B9 PUSH1 0x4 DUP1 CALLDATASIZE SUB DUP2 ADD SWAP1 PUSH2 0x4B4 SWAP2 SWAP1 PUSH2 0x4EA0 JUMP JUMPDEST PUSH2 0x3E11 JUMP JUMPDEST STOP JUMPDEST PUSH1 0x0 PUSH1 0xE PUSH1 0x0 DUP8 PUSH20 0xFFFFFFFFFFFFFFFFFFFFFFFFFFFFFFFFFFFFFFFF AND PUSH20 0xFFFFFFFFFFFFFFFFFFFFFFFFFFFFFFFFFFFFFFFF AND DUP2 MSTORE PUSH1 0x20 ADD SWAP1 DUP2 MSTORE PUSH1 0x20 ADD PUSH1 0x0 KECCAK256 DUP6 DUP6 PUSH1 0x40 MLOAD PUSH2 0x50C SWAP3 SWAP2 SWAP1 PUSH2 0x5513 JUMP JUMPDEST SWAP1 DUP2 MSTORE PUSH1 0x20 ADD PUSH1 0x40 MLOAD DUP1 SWAP2 SUB SWAP1 KECCAK256 DUP4 DUP4 PUSH1 0x40 MLOAD PUSH2 0x52A SWAP3 SWAP2 SWAP1 PUSH2 0x5513 JUMP JUMPDEST SWAP1 DUP2 MSTORE PUSH1 0x20 ADD PUSH1 0x40 MLOAD DUP1 SWAP2 SUB SWAP1 KECCAK256 PUSH1 0x0 SWAP1 SLOAD SWAP1 PUSH2 0x100 EXP SWAP1 DIV PUSH1 0xFF AND SWAP1 POP SWAP6 SWAP5 POP POP POP POP POP JUMP JUMPDEST PUSH1 0x60 PUSH1 0x0 PUSH1 0x1 PUSH1 0x0 CALLER PUSH20 0xFFFFFFFFFFFFFFFFFFFFFFFFFFFFFFFFFFFFFFFF AND PUSH20 0xFFFFFFFFFFFFFFFFFFFFFFFFFFFFFFFFFFFFFFFF AND DUP2 MSTORE PUSH1 0x20 ADD SWAP1 DUP2 MSTORE PUSH1 0x20 ADD PUSH1 0x0 KECCAK256 DUP1 SLOAD PUSH2 0x59F SWAP1 PUSH2 0x555B JUMP JUMPDEST DUP1 PUSH1 0x1F ADD PUSH1 0x20 DUP1 SWAP2 DIV MUL PUSH1 0x20 ADD PUSH1 0x40 MLOAD SWAP1 DUP2 ADD PUSH1 0x40 MSTORE DUP1 SWAP3 SWAP2 SWAP1 DUP2 DUP2 MSTORE PUSH1 0x20 ADD DUP3 DUP1 SLOAD PUSH2 0x5CB SWAP1 PUSH2 0x555B JUMP JUMPDEST DUP1 ISZERO PUSH2 0x618 JUMPI DUP1 PUSH1 0x1F LT PUSH2 0x5ED JUMPI PUSH2 0x100 DUP1 DUP4 SLOAD DIV MUL DUP4 MSTORE SWAP2 PUSH1 0x20 ADD SWAP2 PUSH2 0x618 JUMP JUMPDEST DUP3 ADD SWAP2 SWAP1 PUSH1 0x0 MSTORE PUSH1 0x20 PUSH1 0x0 KECCAK256 SWAP1 JUMPDEST DUP2 SLOAD DUP2 MSTORE SWAP1 PUSH1 0x1 ADD SWAP1 PUSH1 0x20 ADD DUP1 DUP4 GT PUSH2 0x5FB JUMPI DUP3 SWAP1 SUB PUSH1 0x1F AND DUP3 ADD SWAP2 JUMPDEST POP POP POP POP POP SWAP1 POP PUSH1 0x0 PUSH1 0x3 DUP2 GT ISZERO PUSH2 0x633 JUMPI PUSH2 0x632 PUSH2 0x5022 JUMP JUMPDEST JUMPDEST PUSH1 0x3 DUP3 PUSH1 0x40 MLOAD PUSH2 0x643 SWAP2 SWAP1 PUSH2 0x55BD JUMP JUMPDEST SWAP1 DUP2 MSTORE PUSH1 0x20 ADD PUSH1 0x40 MLOAD DUP1 SWAP2 SUB SWAP1 KECCAK256 PUSH1 0x0 SWAP1 SLOAD SWAP1 PUSH2 0x100 EXP SWAP1 DIV PUSH1 0xFF AND PUSH1 0x3 DUP2 GT ISZERO PUSH2 0x671 JUMPI PUSH2 0x670 PUSH2 0x5022 JUMP JUMPDEST JUMPDEST SUB PUSH2 0x6A8 JUMPI PUSH1 0x40 MLOAD PUSH32 0x8FA622F500000000000000000000000000000000000000000000000000000000 DUP2 MSTORE PUSH1 0x4 ADD PUSH1 0x40 MLOAD DUP1 SWAP2 SUB SWAP1 REVERT JUMPDEST PUSH1 0x2 PUSH1 0x3 DUP2 GT ISZERO PUSH2 0x6BC JUMPI PUSH2 0x6BB PUSH2 0x5022 JUMP JUMPDEST JUMPDEST PUSH1 0x3 DUP3 PUSH1 0x40 MLOAD PUSH2 0x6CC SWAP2 SWAP1 PUSH2 0x55BD JUMP JUMPDEST SWAP1 DUP2 MSTORE PUSH1 0x20 ADD PUSH1 0x40 MLOAD DUP1 SWAP2 SUB SWAP1 KECCAK256 PUSH1 0x0 SWAP1 SLOAD SWAP1 PUSH2 0x100 EXP SWAP1 DIV PUSH1 0xFF AND PUSH1 0x3 DUP2 GT ISZERO PUSH2 0x6FA JUMPI PUSH2 0x6F9 PUSH2 0x5022 JUMP JUMPDEST JUMPDEST EQ PUSH2 0x731 JUMPI PUSH1 0x40 MLOAD PUSH32 0x8AC8E00B00000000000000000000000000000000000000000000000000000000 DUP2 MSTORE PUSH1 0x4 ADD PUSH1 0x40 MLOAD DUP1 SWAP2 SUB SWAP1 REVERT JUMPDEST PUSH1 0x7 PUSH1 0x1 PUSH1 0x0 CALLER PUSH20 0xFFFFFFFFFFFFFFFFFFFFFFFFFFFFFFFFFFFFFFFF AND PUSH20 0xFFFFFFFFFFFFFFFFFFFFFFFFFFFFFFFFFFFFFFFF AND DUP2 MSTORE PUSH1 0x20 ADD SWAP1 DUP2 MSTORE PUSH1 0x20 ADD PUSH1 0x0 KECCAK256 PUSH1 0x40 MLOAD PUSH2 0x77F SWAP2 SWAP1 PUSH2 0x566C JUMP JUMPDEST SWAP1 DUP2 MSTORE PUSH1 0x20 ADD PUSH1 0x40 MLOAD DUP1 SWAP2 SUB SWAP1 KECCAK256 DUP1 SLOAD DUP1 PUSH1 0x20 MUL PUSH1 0x20 ADD PUSH1 0x40 MLOAD SWAP1 DUP2 ADD PUSH1 0x40 MSTORE DUP1 SWAP3 SWAP2 SWAP1 DUP2 DUP2 MSTORE PUSH1 0x20 ADD PUSH1 0x0 SWAP1 JUMPDEST DUP3 DUP3 LT ISZERO PUSH2 0x859 JUMPI DUP4 DUP3 SWAP1 PUSH1 0x0 MSTORE PUSH1 0x20 PUSH1 0x0 KECCAK256 ADD DUP1 SLOAD PUSH2 0x7CC SWAP1 PUSH2 0x555B JUMP JUMPDEST DUP1 PUSH1 0x1F ADD PUSH1 0x20 DUP1 SWAP2 DIV MUL PUSH1 0x20 ADD PUSH1 0x40 MLOAD SWAP1 DUP2 ADD PUSH1 0x40 MSTORE DUP1 SWAP3 SWAP2 SWAP1 DUP2 DUP2 MSTORE PUSH1 0x20 ADD DUP3 DUP1 SLOAD PUSH2 0x7F8 SWAP1 PUSH2 0x555B JUMP JUMPDEST DUP1 ISZERO PUSH2 0x845 JUMPI DUP1 PUSH1 0x1F LT PUSH2 0x81A JUMPI PUSH2 0x100 DUP1 DUP4 SLOAD DIV MUL DUP4 MSTORE SWAP2 PUSH1 0x20 ADD SWAP2 PUSH2 0x845 JUMP JUMPDEST DUP3 ADD SWAP2 SWAP1 PUSH1 0x0 MSTORE PUSH1 0x20 PUSH1 0x0 KECCAK256 SWAP1 JUMPDEST DUP2 SLOAD DUP2 MSTORE SWAP1 PUSH1 0x1 ADD SWAP1 PUSH1 0x20 ADD DUP1 DUP4 GT PUSH2 0x828 JUMPI DUP3 SWAP1 SUB PUSH1 0x1F AND DUP3 ADD SWAP2 JUMPDEST POP POP POP POP POP DUP2 MSTORE PUSH1 0x20 ADD SWAP1 PUSH1 0x1 ADD SWAP1 PUSH2 0x7AD JUMP JUMPDEST POP POP POP POP SWAP2 POP POP SWAP1 JUMP JUMPDEST PUSH1 0x0 PUSH1 0xB DUP4 PUSH1 0x40 MLOAD PUSH2 0x875 SWAP2 SWAP1 PUSH2 0x55BD JUMP JUMPDEST SWAP1 DUP2 MSTORE PUSH1 0x20 ADD PUSH1 0x40 MLOAD DUP1 SWAP2 SUB SWAP1 KECCAK256 DUP3 PUSH1 0x40 MLOAD PUSH2 0x891 SWAP2 SWAP1 PUSH2 0x55BD JUMP JUMPDEST SWAP1 DUP2 MSTORE PUSH1 0x20 ADD PUSH1 0x40 MLOAD DUP1 SWAP2 SUB SWAP1 KECCAK256 PUSH1 0x0 SWAP1 SLOAD SWAP1 PUSH2 0x100 EXP SWAP1 DIV PUSH1 0xFF AND SWAP1 POP SWAP3 SWAP2 POP POP JUMP JUMPDEST PUSH1 0x0 DUP1 SLOAD SWAP1 PUSH2 0x100 EXP SWAP1 DIV PUSH20 0xFFFFFFFFFFFFFFFFFFFFFFFFFFFFFFFFFFFFFFFF AND PUSH20 0xFFFFFFFFFFFFFFFFFFFFFFFFFFFFFFFFFFFFFFFF AND CALLER PUSH20 0xFFFFFFFFFFFFFFFFFFFFFFFFFFFFFFFFFFFFFFFF AND EQ PUSH2 0x93A JUMPI PUSH1 0x40 MLOAD PUSH32 0x2DCA963600000000000000000000000000000000000000000000000000000000 DUP2 MSTORE PUSH1 0x4 ADD PUSH1 0x40 MLOAD DUP1 SWAP2 SUB SWAP1 REVERT JUMPDEST PUSH1 0x0 PUSH1 0x3 DUP2 GT ISZERO PUSH2 0x94E JUMPI PUSH2 0x94D PUSH2 0x5022 JUMP JUMPDEST JUMPDEST PUSH1 0x3 DUP4 DUP4 PUSH1 0x40 MLOAD PUSH2 0x960 SWAP3 SWAP2 SWAP1 PUSH2 0x5513 JUMP JUMPDEST SWAP1 DUP2 MSTORE PUSH1 0x20 ADD PUSH1 0x40 MLOAD DUP1 SWAP2 SUB SWAP1 KECCAK256 PUSH1 0x0 SWAP1 SLOAD SWAP1 PUSH2 0x100 EXP SWAP1 DIV PUSH1 0xFF AND PUSH1 0x3 DUP2 GT ISZERO PUSH2 0x98E JUMPI PUSH2 0x98D PUSH2 0x5022 JUMP JUMPDEST JUMPDEST SUB PUSH2 0x9C5 JUMPI PUSH1 0x40 MLOAD PUSH32 0x567E9BE600000000000000000000000000000000000000000000000000000000 DUP2 MSTORE PUSH1 0x4 ADD PUSH1 0x40 MLOAD DUP1 SWAP2 SUB SWAP1 REVERT JUMPDEST PUSH1 0x3 DUP1 DUP2 GT ISZERO PUSH2 0x9D8 JUMPI PUSH2 0x9D7 PUSH2 0x5022 JUMP JUMPDEST JUMPDEST PUSH1 0x3 DUP4 DUP4 PUSH1 0x40 MLOAD PUSH2 0x9EA SWAP3 SWAP2 SWAP1 PUSH2 0x5513 JUMP JUMPDEST SWAP1 DUP2 MSTORE PUSH1 0x20 ADD PUSH1 0x40 MLOAD DUP1 SWAP2 SUB SWAP1 KECCAK256 PUSH1 0x0 SWAP1 SLOAD SWAP1 PUSH2 0x100 EXP SWAP1 DIV PUSH1 0xFF AND PUSH1 0x3 DUP2 GT ISZERO PUSH2 0xA18 JUMPI PUSH2 0xA17 PUSH2 0x5022 JUMP JUMPDEST JUMPDEST SUB PUSH2 0xA4F JUMPI PUSH1 0x40 MLOAD PUSH32 0x20F935A000000000000000000000000000000000000000000000000000000000 DUP2 MSTORE PUSH1 0x4 ADD PUSH1 0x40 MLOAD DUP1 SWAP2 SUB SWAP1 REVERT JUMPDEST PUSH1 0x3 DUP1 DUP4 DUP4 PUSH1 0x40 MLOAD PUSH2 0xA62 SWAP3 SWAP2 SWAP1 PUSH2 0x5513 JUMP JUMPDEST SWAP1 DUP2 MSTORE PUSH1 0x20 ADD PUSH1 0x40 MLOAD DUP1 SWAP2 SUB SWAP1 KECCAK256 PUSH1 0x0 PUSH2 0x100 EXP DUP2 SLOAD DUP2 PUSH1 0xFF MUL NOT AND SWAP1 DUP4 PUSH1 0x3 DUP2 GT ISZERO PUSH2 0xA92 JUMPI PUSH2 0xA91 PUSH2 0x5022 JUMP JUMPDEST JUMPDEST MUL OR SWAP1 SSTORE POP POP POP JUMP JUMPDEST PUSH1 0x60 PUSH1 0x0 PUSH1 0x1 PUSH1 0x0 CALLER PUSH20 0xFFFFFFFFFFFFFFFFFFFFFFFFFFFFFFFFFFFFFFFF AND PUSH20 0xFFFFFFFFFFFFFFFFFFFFFFFFFFFFFFFFFFFFFFFF AND DUP2 MSTORE PUSH1 0x20 ADD SWAP1 DUP2 MSTORE PUSH1 0x20 ADD PUSH1 0x0 KECCAK256 DUP1 SLOAD PUSH2 0xAE9 SWAP1 PUSH2 0x555B JUMP JUMPDEST DUP1 PUSH1 0x1F ADD PUSH1 0x20 DUP1 SWAP2 DIV MUL PUSH1 0x20 ADD PUSH1 0x40 MLOAD SWAP1 DUP2 ADD PUSH1 0x40 MSTORE DUP1 SWAP3 SWAP2 SWAP1 DUP2 DUP2 MSTORE PUSH1 0x20 ADD DUP3 DUP1 SLOAD PUSH2 0xB15 SWAP1 PUSH2 0x555B JUMP JUMPDEST DUP1 ISZERO PUSH2 0xB62 JUMPI DUP1 PUSH1 0x1F LT PUSH2 0xB37 JUMPI PUSH2 0x100 DUP1 DUP4 SLOAD DIV MUL DUP4 MSTORE SWAP2 PUSH1 0x20 ADD SWAP2 PUSH2 0xB62 JUMP JUMPDEST DUP3 ADD SWAP2 SWAP1 PUSH1 0x0 MSTORE PUSH1 0x20 PUSH1 0x0 KECCAK256 SWAP1 JUMPDEST DUP2 SLOAD DUP2 MSTORE SWAP1 PUSH1 0x1 ADD SWAP1 PUSH1 0x20 ADD DUP1 DUP4 GT PUSH2 0xB45 JUMPI DUP3 SWAP1 SUB PUSH1 0x1F AND DUP3 ADD SWAP2 JUMPDEST POP POP POP POP POP SWAP1 POP PUSH1 0x0 PUSH1 0x3 DUP2 GT ISZERO PUSH2 0xB7D JUMPI PUSH2 0xB7C PUSH2 0x5022 JUMP JUMPDEST JUMPDEST PUSH1 0x3 DUP3 PUSH1 0x40 MLOAD PUSH2 0xB8D SWAP2 SWAP1 PUSH2 0x55BD JUMP JUMPDEST SWAP1 DUP2 MSTORE PUSH1 0x20 ADD PUSH1 0x40 MLOAD DUP1 SWAP2 SUB SWAP1 KECCAK256 PUSH1 0x0 SWAP1 SLOAD SWAP1 PUSH2 0x100 EXP SWAP1 DIV PUSH1 0xFF AND PUSH1 0x3 DUP2 GT ISZERO PUSH2 0xBBB JUMPI PUSH2 0xBBA PUSH2 0x5022 JUMP JUMPDEST JUMPDEST SUB PUSH2 0xBF2 JUMPI PUSH1 0x40 MLOAD PUSH32 0x8FA622F500000000000000000000000000000000000000000000000000000000 DUP2 MSTORE PUSH1 0x4 ADD PUSH1 0x40 MLOAD DUP1 SWAP2 SUB SWAP1 REVERT JUMPDEST PUSH1 0x2 PUSH1 0x3 DUP2 GT ISZERO PUSH2 0xC06 JUMPI PUSH2 0xC05 PUSH2 0x5022 JUMP JUMPDEST JUMPDEST PUSH1 0x3 DUP3 PUSH1 0x40 MLOAD PUSH2 0xC16 SWAP2 SWAP1 PUSH2 0x55BD JUMP JUMPDEST SWAP1 DUP2 MSTORE PUSH1 0x20 ADD PUSH1 0x40 MLOAD DUP1 SWAP2 SUB SWAP1 KECCAK256 PUSH1 0x0 SWAP1 SLOAD SWAP1 PUSH2 0x100 EXP SWAP1 DIV PUSH1 0xFF AND PUSH1 0x3 DUP2 GT ISZERO PUSH2 0xC44 JUMPI PUSH2 0xC43 PUSH2 0x5022 JUMP JUMPDEST JUMPDEST EQ PUSH2 0xC7B JUMPI PUSH1 0x40 MLOAD PUSH32 0x8AC8E00B00000000000000000000000000000000000000000000000000000000 DUP2 MSTORE PUSH1 0x4 ADD PUSH1 0x40 MLOAD DUP1 SWAP2 SUB SWAP1 REVERT JUMPDEST DUP7 DUP7 PUSH1 0x0 PUSH1 0x1 DUP2 GT ISZERO PUSH2 0xC91 JUMPI PUSH2 0xC90 PUSH2 0x5022 JUMP JUMPDEST JUMPDEST PUSH1 0x8 DUP4 DUP4 PUSH1 0x40 MLOAD PUSH2 0xCA3 SWAP3 SWAP2 SWAP1 PUSH2 0x5513 JUMP JUMPDEST SWAP1 DUP2 MSTORE PUSH1 0x20 ADD PUSH1 0x40 MLOAD DUP1 SWAP2 SUB SWAP1 KECCAK256 PUSH1 0x0 SWAP1 SLOAD SWAP1 PUSH2 0x100 EXP SWAP1 DIV PUSH1 0xFF AND PUSH1 0x1 DUP2 GT ISZERO PUSH2 0xCD1 JUMPI PUSH2 0xCD0 PUSH2 0x5022 JUMP JUMPDEST JUMPDEST SUB PUSH2 0xD08 JUMPI PUSH1 0x40 MLOAD PUSH32 0x78DE8BF00000000000000000000000000000000000000000000000000000000 DUP2 MSTORE PUSH1 0x4 ADD PUSH1 0x40 MLOAD DUP1 SWAP2 SUB SWAP1 REVERT JUMPDEST PUSH1 0x0 PUSH1 0x1 PUSH1 0x0 CALLER PUSH20 0xFFFFFFFFFFFFFFFFFFFFFFFFFFFFFFFFFFFFFFFF AND PUSH20 0xFFFFFFFFFFFFFFFFFFFFFFFFFFFFFFFFFFFFFFFF AND DUP2 MSTORE PUSH1 0x20 ADD SWAP1 DUP2 MSTORE PUSH1 0x20 ADD PUSH1 0x0 KECCAK256 DUP1 SLOAD PUSH2 0xD54 SWAP1 PUSH2 0x555B JUMP JUMPDEST DUP1 PUSH1 0x1F ADD PUSH1 0x20 DUP1 SWAP2 DIV MUL PUSH1 0x20 ADD PUSH1 0x40 MLOAD SWAP1 DUP2 ADD PUSH1 0x40 MSTORE DUP1 SWAP3 SWAP2 SWAP1 DUP2 DUP2 MSTORE PUSH1 0x20 ADD DUP3 DUP1 SLOAD PUSH2 0xD80 SWAP1 PUSH2 0x555B JUMP JUMPDEST DUP1 ISZERO PUSH2 0xDCD JUMPI DUP1 PUSH1 0x1F LT PUSH2 0xDA2 JUMPI PUSH2 0x100 DUP1 DUP4 SLOAD DIV MUL DUP4 MSTORE SWAP2 PUSH1 0x20 ADD SWAP2 PUSH2 0xDCD JUMP JUMPDEST DUP3 ADD SWAP2 SWAP1 PUSH1 0x0 MSTORE PUSH1 0x20 PUSH1 0x0 KECCAK256 SWAP1 JUMPDEST DUP2 SLOAD DUP2 MSTORE SWAP1 PUSH1 0x1 ADD SWAP1 PUSH1 0x20 ADD DUP1 DUP4 GT PUSH2 0xDB0 JUMPI DUP3 SWAP1 SUB PUSH1 0x1F AND DUP3 ADD SWAP2 JUMPDEST POP POP POP POP POP SWAP1 POP PUSH1 0x0 PUSH1 0x9 DUP5 DUP5 PUSH1 0x40 MLOAD PUSH2 0xDE8 SWAP3 SWAP2 SWAP1 PUSH2 0x5513 JUMP JUMPDEST SWAP1 DUP2 MSTORE PUSH1 0x20 ADD PUSH1 0x40 MLOAD DUP1 SWAP2 SUB SWAP1 KECCAK256 PUSH1 0x40 MLOAD PUSH2 0xE02 SWAP1 PUSH2 0x56CF JUMP JUMPDEST SWAP1 DUP2 MSTORE PUSH1 0x20 ADD PUSH1 0x40 MLOAD DUP1 SWAP2 SUB SWAP1 KECCAK256 DUP1 SLOAD PUSH2 0xE1B SWAP1 PUSH2 0x555B JUMP JUMPDEST DUP1 PUSH1 0x1F ADD PUSH1 0x20 DUP1 SWAP2 DIV MUL PUSH1 0x20 ADD PUSH1 0x40 MLOAD SWAP1 DUP2 ADD PUSH1 0x40 MSTORE DUP1 SWAP3 SWAP2 SWAP1 DUP2 DUP2 MSTORE PUSH1 0x20 ADD DUP3 DUP1 SLOAD PUSH2 0xE47 SWAP1 PUSH2 0x555B JUMP JUMPDEST DUP1 ISZERO PUSH2 0xE94 JUMPI DUP1 PUSH1 0x1F LT PUSH2 0xE69 JUMPI PUSH2 0x100 DUP1 DUP4 SLOAD DIV MUL DUP4 MSTORE SWAP2 PUSH1 0x20 ADD SWAP2 PUSH2 0xE94 JUMP JUMPDEST DUP3 ADD SWAP2 SWAP1 PUSH1 0x0 MSTORE PUSH1 0x20 PUSH1 0x0 KECCAK256 SWAP1 JUMPDEST DUP2 SLOAD DUP2 MSTORE SWAP1 PUSH1 0x1 ADD SWAP1 PUSH1 0x20 ADD DUP1 DUP4 GT PUSH2 0xE77 JUMPI DUP3 SWAP1 SUB PUSH1 0x1F AND DUP3 ADD SWAP2 JUMPDEST POP POP POP POP POP SWAP1 POP DUP1 PUSH1 0x40 MLOAD PUSH1 0x20 ADD PUSH2 0xEAC SWAP2 SWAP1 PUSH2 0x55BD JUMP JUMPDEST PUSH1 0x40 MLOAD PUSH1 0x20 DUP2 DUP4 SUB SUB DUP2 MSTORE SWAP1 PUSH1 0x40 MSTORE DUP1 MLOAD SWAP1 PUSH1 0x20 ADD KECCAK256 DUP3 PUSH1 0x40 MLOAD PUSH1 0x20 ADD PUSH2 0xED3 SWAP2 SWAP1 PUSH2 0x55BD JUMP JUMPDEST PUSH1 0x40 MLOAD PUSH1 0x20 DUP2 DUP4 SUB SUB DUP2 MSTORE SWAP1 PUSH1 0x40 MSTORE DUP1 MLOAD SWAP1 PUSH1 0x20 ADD KECCAK256 EQ PUSH2 0xF20 JUMPI PUSH1 0x40 MLOAD PUSH32 0xCA7B7FB200000000000000000000000000000000000000000000000000000000 DUP2 MSTORE PUSH1 0x4 ADD PUSH1 0x40 MLOAD DUP1 SWAP2 SUB SWAP1 REVERT JUMPDEST DUP7 ISZERO PUSH2 0xFF4 JUMPI PUSH1 0x9 DUP12 DUP12 PUSH1 0x40 MLOAD PUSH2 0xF38 SWAP3 SWAP2 SWAP1 PUSH2 0x5513 JUMP JUMPDEST SWAP1 DUP2 MSTORE PUSH1 0x20 ADD PUSH1 0x40 MLOAD DUP1 SWAP2 SUB SWAP1 KECCAK256 DUP10 DUP10 PUSH1 0x40 MLOAD PUSH2 0xF56 SWAP3 SWAP2 SWAP1 PUSH2 0x5513 JUMP JUMPDEST SWAP1 DUP2 MSTORE PUSH1 0x20 ADD PUSH1 0x40 MLOAD DUP1 SWAP2 SUB SWAP1 KECCAK256 DUP1 SLOAD PUSH2 0xF6F SWAP1 PUSH2 0x555B JUMP JUMPDEST DUP1 PUSH1 0x1F ADD PUSH1 0x20 DUP1 SWAP2 DIV MUL PUSH1 0x20 ADD PUSH1 0x40 MLOAD SWAP1 DUP2 ADD PUSH1 0x40 MSTORE DUP1 SWAP3 SWAP2 SWAP1 DUP2 DUP2 MSTORE PUSH1 0x20 ADD DUP3 DUP1 SLOAD PUSH2 0xF9B SWAP1 PUSH2 0x555B JUMP JUMPDEST DUP1 ISZERO PUSH2 0xFE8 JUMPI DUP1 PUSH1 0x1F LT PUSH2 0xFBD JUMPI PUSH2 0x100 DUP1 DUP4 SLOAD DIV MUL DUP4 MSTORE SWAP2 PUSH1 0x20 ADD SWAP2 PUSH2 0xFE8 JUMP JUMPDEST DUP3 ADD SWAP2 SWAP1 PUSH1 0x0 MSTORE PUSH1 0x20 PUSH1 0x0 KECCAK256 SWAP1 JUMPDEST DUP2 SLOAD DUP2 MSTORE SWAP1 PUSH1 0x1 ADD SWAP1 PUSH1 0x20 ADD DUP1 DUP4 GT PUSH2 0xFCB JUMPI DUP3 SWAP1 SUB PUSH1 0x1F AND DUP3 ADD SWAP2 JUMPDEST POP POP POP POP POP SWAP6 POP PUSH2 0x10C8 JUMP JUMPDEST DUP7 PUSH2 0x10C7 JUMPI PUSH1 0xD DUP12 DUP12 PUSH1 0x40 MLOAD PUSH2 0x100B SWAP3 SWAP2 SWAP1 PUSH2 0x5513 JUMP JUMPDEST SWAP1 DUP2 MSTORE PUSH1 0x20 ADD PUSH1 0x40 MLOAD DUP1 SWAP2 SUB SWAP1 KECCAK256 DUP10 DUP10 PUSH1 0x40 MLOAD PUSH2 0x1029 SWAP3 SWAP2 SWAP1 PUSH2 0x5513 JUMP JUMPDEST SWAP1 DUP2 MSTORE PUSH1 0x20 ADD PUSH1 0x40 MLOAD DUP1 SWAP2 SUB SWAP1 KECCAK256 DUP1 SLOAD PUSH2 0x1042 SWAP1 PUSH2 0x555B JUMP JUMPDEST DUP1 PUSH1 0x1F ADD PUSH1 0x20 DUP1 SWAP2 DIV MUL PUSH1 0x20 ADD PUSH1 0x40 MLOAD SWAP1 DUP2 ADD PUSH1 0x40 MSTORE DUP1 SWAP3 SWAP2 SWAP1 DUP2 DUP2 MSTORE PUSH1 0x20 ADD DUP3 DUP1 SLOAD PUSH2 0x106E SWAP1 PUSH2 0x555B JUMP JUMPDEST DUP1 ISZERO PUSH2 0x10BB JUMPI DUP1 PUSH1 0x1F LT PUSH2 0x1090 JUMPI PUSH2 0x100 DUP1 DUP4 SLOAD DIV MUL DUP4 MSTORE SWAP2 PUSH1 0x20 ADD SWAP2 PUSH2 0x10BB JUMP JUMPDEST DUP3 ADD SWAP2 SWAP1 PUSH1 0x0 MSTORE PUSH1 0x20 PUSH1 0x0 KECCAK256 SWAP1 JUMPDEST DUP2 SLOAD DUP2 MSTORE SWAP1 PUSH1 0x1 ADD SWAP1 PUSH1 0x20 ADD DUP1 DUP4 GT PUSH2 0x109E JUMPI DUP3 SWAP1 SUB PUSH1 0x1F AND DUP3 ADD SWAP2 JUMPDEST POP POP POP POP POP SWAP6 POP PUSH2 0x10C8 JUMP JUMPDEST JUMPDEST POP POP POP POP POP SWAP6 SWAP5 POP POP POP POP POP JUMP JUMPDEST PUSH1 0x60 PUSH1 0x6 PUSH1 0x0 CALLER PUSH20 0xFFFFFFFFFFFFFFFFFFFFFFFFFFFFFFFFFFFFFFFF AND PUSH20 0xFFFFFFFFFFFFFFFFFFFFFFFFFFFFFFFFFFFFFFFF AND DUP2 MSTORE PUSH1 0x20 ADD SWAP1 DUP2 MSTORE PUSH1 0x20 ADD PUSH1 0x0 KECCAK256 DUP1 SLOAD PUSH2 0x1122 SWAP1 PUSH2 0x555B JUMP JUMPDEST DUP1 PUSH1 0x1F ADD PUSH1 0x20 DUP1 SWAP2 DIV MUL PUSH1 0x20 ADD PUSH1 0x40 MLOAD SWAP1 DUP2 ADD PUSH1 0x40 MSTORE DUP1 SWAP3 SWAP2 SWAP1 DUP2 DUP2 MSTORE PUSH1 0x20 ADD DUP3 DUP1 SLOAD PUSH2 0x114E SWAP1 PUSH2 0x555B JUMP JUMPDEST DUP1 ISZERO PUSH2 0x119B JUMPI DUP1 PUSH1 0x1F LT PUSH2 0x1170 JUMPI PUSH2 0x100 DUP1 DUP4 SLOAD DIV MUL DUP4 MSTORE SWAP2 PUSH1 0x20 ADD SWAP2 PUSH2 0x119B JUMP JUMPDEST DUP3 ADD SWAP2 SWAP1 PUSH1 0x0 MSTORE PUSH1 0x20 PUSH1 0x0 KECCAK256 SWAP1 JUMPDEST DUP2 SLOAD DUP2 MSTORE SWAP1 PUSH1 0x1 ADD SWAP1 PUSH1 0x20 ADD DUP1 DUP4 GT PUSH2 0x117E JUMPI DUP3 SWAP1 SUB PUSH1 0x1F AND DUP3 ADD SWAP2 JUMPDEST POP POP POP POP POP SWAP1 POP SWAP1 JUMP JUMPDEST PUSH1 0x60 PUSH1 0x0 PUSH1 0x1 DUP2 GT ISZERO PUSH2 0x11BB JUMPI PUSH2 0x11BA PUSH2 0x5022 JUMP JUMPDEST JUMPDEST PUSH1 0x8 DUP7 DUP7 PUSH1 0x40 MLOAD PUSH2 0x11CD SWAP3 SWAP2 SWAP1 PUSH2 0x5513 JUMP JUMPDEST SWAP1 DUP2 MSTORE PUSH1 0x20 ADD PUSH1 0x40 MLOAD DUP1 SWAP2 SUB SWAP1 KECCAK256 PUSH1 0x0 SWAP1 SLOAD SWAP1 PUSH2 0x100 EXP SWAP1 DIV PUSH1 0xFF AND PUSH1 0x1 DUP2 GT ISZERO PUSH2 0x11FB JUMPI PUSH2 0x11FA PUSH2 0x5022 JUMP JUMPDEST JUMPDEST SUB PUSH2 0x1232 JUMPI PUSH1 0x40 MLOAD PUSH32 0x78DE8BF00000000000000000000000000000000000000000000000000000000 DUP2 MSTORE PUSH1 0x4 ADD PUSH1 0x40 MLOAD DUP1 SWAP2 SUB SWAP1 REVERT JUMPDEST DUP5 DUP5 PUSH1 0x40 MLOAD PUSH1 0x20 ADD PUSH2 0x1245 SWAP3 SWAP2 SWAP1 PUSH2 0x5513 JUMP JUMPDEST PUSH1 0x40 MLOAD PUSH1 0x20 DUP2 DUP4 SUB SUB DUP2 MSTORE SWAP1 PUSH1 0x40 MSTORE DUP1 MLOAD SWAP1 PUSH1 0x20 ADD KECCAK256 PUSH1 0x6 PUSH1 0x0 CALLER PUSH20 0xFFFFFFFFFFFFFFFFFFFFFFFFFFFFFFFFFFFFFFFF AND PUSH20 0xFFFFFFFFFFFFFFFFFFFFFFFFFFFFFFFFFFFFFFFF AND DUP2 MSTORE PUSH1 0x20 ADD SWAP1 DUP2 MSTORE PUSH1 0x20 ADD PUSH1 0x0 KECCAK256 PUSH1 0x40 MLOAD PUSH1 0x20 ADD PUSH2 0x12AA SWAP2 SWAP1 PUSH2 0x566C JUMP JUMPDEST PUSH1 0x40 MLOAD PUSH1 0x20 DUP2 DUP4 SUB SUB DUP2 MSTORE SWAP1 PUSH1 0x40 MSTORE DUP1 MLOAD SWAP1 PUSH1 0x20 ADD KECCAK256 EQ ISZERO DUP1 ISZERO PUSH2 0x1354 JUMPI POP PUSH1 0xE PUSH1 0x0 CALLER PUSH20 0xFFFFFFFFFFFFFFFFFFFFFFFFFFFFFFFFFFFFFFFF AND PUSH20 0xFFFFFFFFFFFFFFFFFFFFFFFFFFFFFFFFFFFFFFFF AND DUP2 MSTORE PUSH1 0x20 ADD SWAP1 DUP2 MSTORE PUSH1 0x20 ADD PUSH1 0x0 KECCAK256 DUP6 DUP6 PUSH1 0x40 MLOAD PUSH2 0x1318 SWAP3 SWAP2 SWAP1 PUSH2 0x5513 JUMP JUMPDEST SWAP1 DUP2 MSTORE PUSH1 0x20 ADD PUSH1 0x40 MLOAD DUP1 SWAP2 SUB SWAP1 KECCAK256 DUP4 DUP4 PUSH1 0x40 MLOAD PUSH2 0x1336 SWAP3 SWAP2 SWAP1 PUSH2 0x5513 JUMP JUMPDEST SWAP1 DUP2 MSTORE PUSH1 0x20 ADD PUSH1 0x40 MLOAD DUP1 SWAP2 SUB SWAP1 KECCAK256 PUSH1 0x0 SWAP1 SLOAD SWAP1 PUSH2 0x100 EXP SWAP1 DIV PUSH1 0xFF AND ISZERO JUMPDEST ISZERO PUSH2 0x138B JUMPI PUSH1 0x40 MLOAD PUSH32 0x722F899200000000000000000000000000000000000000000000000000000000 DUP2 MSTORE PUSH1 0x4 ADD PUSH1 0x40 MLOAD DUP1 SWAP2 SUB SWAP1 REVERT JUMPDEST PUSH1 0x9 DUP6 DUP6 PUSH1 0x40 MLOAD PUSH2 0x139D SWAP3 SWAP2 SWAP1 PUSH2 0x5513 JUMP JUMPDEST SWAP1 DUP2 MSTORE PUSH1 0x20 ADD PUSH1 0x40 MLOAD DUP1 SWAP2 SUB SWAP1 KECCAK256 DUP4 DUP4 PUSH1 0x40 MLOAD PUSH2 0x13BB SWAP3 SWAP2 SWAP1 PUSH2 0x5513 JUMP JUMPDEST SWAP1 DUP2 MSTORE PUSH1 0x20 ADD PUSH1 0x40 MLOAD DUP1 SWAP2 SUB SWAP1 KECCAK256 DUP1 SLOAD PUSH2 0x13D4 SWAP1 PUSH2 0x555B JUMP JUMPDEST DUP1 PUSH1 0x1F ADD PUSH1 0x20 DUP1 SWAP2 DIV MUL PUSH1 0x20 ADD PUSH1 0x40 MLOAD SWAP1 DUP2 ADD PUSH1 0x40 MSTORE DUP1 SWAP3 SWAP2 SWAP1 DUP2 DUP2 MSTORE PUSH1 0x20 ADD DUP3 DUP1 SLOAD PUSH2 0x1400 SWAP1 PUSH2 0x555B JUMP JUMPDEST DUP1 ISZERO PUSH2 0x144D JUMPI DUP1 PUSH1 0x1F LT PUSH2 0x1422 JUMPI PUSH2 0x100 DUP1 DUP4 SLOAD DIV MUL DUP4 MSTORE SWAP2 PUSH1 0x20 ADD SWAP2 PUSH2 0x144D JUMP JUMPDEST DUP3 ADD SWAP2 SWAP1 PUSH1 0x0 MSTORE PUSH1 0x20 PUSH1 0x0 KECCAK256 SWAP1 JUMPDEST DUP2 SLOAD DUP2 MSTORE SWAP1 PUSH1 0x1 ADD SWAP1 PUSH1 0x20 ADD DUP1 DUP4 GT PUSH2 0x1430 JUMPI DUP3 SWAP1 SUB PUSH1 0x1F AND DUP3 ADD SWAP2 JUMPDEST POP POP POP POP POP SWAP1 POP SWAP5 SWAP4 POP POP POP POP JUMP JUMPDEST PUSH1 0x0 PUSH1 0x8 DUP4 DUP4 PUSH1 0x40 MLOAD PUSH2 0x1470 SWAP3 SWAP2 SWAP1 PUSH2 0x5513 JUMP JUMPDEST SWAP1 DUP2 MSTORE PUSH1 0x20 ADD PUSH1 0x40 MLOAD DUP1 SWAP2 SUB SWAP1 KECCAK256 PUSH1 0x0 SWAP1 SLOAD SWAP1 PUSH2 0x100 EXP SWAP1 DIV PUSH1 0xFF AND SWAP1 POP SWAP3 SWAP2 POP POP JUMP JUMPDEST PUSH1 0x60 PUSH1 0x1 PUSH1 0x0 CALLER PUSH20 0xFFFFFFFFFFFFFFFFFFFFFFFFFFFFFFFFFFFFFFFF AND PUSH20 0xFFFFFFFFFFFFFFFFFFFFFFFFFFFFFFFFFFFFFFFF AND DUP2 MSTORE PUSH1 0x20 ADD SWAP1 DUP2 MSTORE PUSH1 0x20 ADD PUSH1 0x0 KECCAK256 DUP1 SLOAD PUSH2 0x14E0 SWAP1 PUSH2 0x555B JUMP JUMPDEST DUP1 PUSH1 0x1F ADD PUSH1 0x20 DUP1 SWAP2 DIV MUL PUSH1 0x20 ADD PUSH1 0x40 MLOAD SWAP1 DUP2 ADD PUSH1 0x40 MSTORE DUP1 SWAP3 SWAP2 SWAP1 DUP2 DUP2 MSTORE PUSH1 0x20 ADD DUP3 DUP1 SLOAD PUSH2 0x150C SWAP1 PUSH2 0x555B JUMP JUMPDEST DUP1 ISZERO PUSH2 0x1559 JUMPI DUP1 PUSH1 0x1F LT PUSH2 0x152E JUMPI PUSH2 0x100 DUP1 DUP4 SLOAD DIV MUL DUP4 MSTORE SWAP2 PUSH1 0x20 ADD SWAP2 PUSH2 0x1559 JUMP JUMPDEST DUP3 ADD SWAP2 SWAP1 PUSH1 0x0 MSTORE PUSH1 0x20 PUSH1 0x0 KECCAK256 SWAP1 JUMPDEST DUP2 SLOAD DUP2 MSTORE SWAP1 PUSH1 0x1 ADD SWAP1 PUSH1 0x20 ADD DUP1 DUP4 GT PUSH2 0x153C JUMPI DUP3 SWAP1 SUB PUSH1 0x1F AND DUP3 ADD SWAP2 JUMPDEST POP POP POP POP POP SWAP1 POP SWAP1 JUMP JUMPDEST PUSH1 0x0 PUSH1 0x1 PUSH1 0x0 CALLER PUSH20 0xFFFFFFFFFFFFFFFFFFFFFFFFFFFFFFFFFFFFFFFF AND PUSH20 0xFFFFFFFFFFFFFFFFFFFFFFFFFFFFFFFFFFFFFFFF AND DUP2 MSTORE PUSH1 0x20 ADD SWAP1 DUP2 MSTORE PUSH1 0x20 ADD PUSH1 0x0 KECCAK256 DUP1 SLOAD PUSH2 0x15AF SWAP1 PUSH2 0x555B JUMP JUMPDEST DUP1 PUSH1 0x1F ADD PUSH1 0x20 DUP1 SWAP2 DIV MUL PUSH1 0x20 ADD PUSH1 0x40 MLOAD SWAP1 DUP2 ADD PUSH1 0x40 MSTORE DUP1 SWAP3 SWAP2 SWAP1 DUP2 DUP2 MSTORE PUSH1 0x20 ADD DUP3 DUP1 SLOAD PUSH2 0x15DB SWAP1 PUSH2 0x555B JUMP JUMPDEST DUP1 ISZERO PUSH2 0x1628 JUMPI DUP1 PUSH1 0x1F LT PUSH2 0x15FD JUMPI PUSH2 0x100 DUP1 DUP4 SLOAD DIV MUL DUP4 MSTORE SWAP2 PUSH1 0x20 ADD SWAP2 PUSH2 0x1628 JUMP JUMPDEST DUP3 ADD SWAP2 SWAP1 PUSH1 0x0 MSTORE PUSH1 0x20 PUSH1 0x0 KECCAK256 SWAP1 JUMPDEST DUP2 SLOAD DUP2 MSTORE SWAP1 PUSH1 0x1 ADD SWAP1 PUSH1 0x20 ADD DUP1 DUP4 GT PUSH2 0x160B JUMPI DUP3 SWAP1 SUB PUSH1 0x1F AND DUP3 ADD SWAP2 JUMPDEST POP POP POP POP POP SWAP1 POP PUSH1 0x0 PUSH1 0x3 DUP2 GT ISZERO PUSH2 0x1643 JUMPI PUSH2 0x1642 PUSH2 0x5022 JUMP JUMPDEST JUMPDEST PUSH1 0x3 DUP3 PUSH1 0x40 MLOAD PUSH2 0x1653 SWAP2 SWAP1 PUSH2 0x55BD JUMP JUMPDEST SWAP1 DUP2 MSTORE PUSH1 0x20 ADD PUSH1 0x40 MLOAD DUP1 SWAP2 SUB SWAP1 KECCAK256 PUSH1 0x0 SWAP1 SLOAD SWAP1 PUSH2 0x100 EXP SWAP1 DIV PUSH1 0xFF AND PUSH1 0x3 DUP2 GT ISZERO PUSH2 0x1681 JUMPI PUSH2 0x1680 PUSH2 0x5022 JUMP JUMPDEST JUMPDEST SUB PUSH2 0x16B8 JUMPI PUSH1 0x40 MLOAD PUSH32 0x8FA622F500000000000000000000000000000000000000000000000000000000 DUP2 MSTORE PUSH1 0x4 ADD PUSH1 0x40 MLOAD DUP1 SWAP2 SUB SWAP1 REVERT JUMPDEST PUSH1 0x2 PUSH1 0x3 DUP2 GT ISZERO PUSH2 0x16CC JUMPI PUSH2 0x16CB PUSH2 0x5022 JUMP JUMPDEST JUMPDEST PUSH1 0x3 DUP3 PUSH1 0x40 MLOAD PUSH2 0x16DC SWAP2 SWAP1 PUSH2 0x55BD JUMP JUMPDEST SWAP1 DUP2 MSTORE PUSH1 0x20 ADD PUSH1 0x40 MLOAD DUP1 SWAP2 SUB SWAP1 KECCAK256 PUSH1 0x0 SWAP1 SLOAD SWAP1 PUSH2 0x100 EXP SWAP1 DIV PUSH1 0xFF AND PUSH1 0x3 DUP2 GT ISZERO PUSH2 0x170A JUMPI PUSH2 0x1709 PUSH2 0x5022 JUMP JUMPDEST JUMPDEST EQ PUSH2 0x1741 JUMPI PUSH1 0x40 MLOAD PUSH32 0x8AC8E00B00000000000000000000000000000000000000000000000000000000 DUP2 MSTORE PUSH1 0x4 ADD PUSH1 0x40 MLOAD DUP1 SWAP2 SUB SWAP1 REVERT JUMPDEST PUSH1 0x0 PUSH1 0x1 PUSH1 0x0 CALLER PUSH20 0xFFFFFFFFFFFFFFFFFFFFFFFFFFFFFFFFFFFFFFFF AND PUSH20 0xFFFFFFFFFFFFFFFFFFFFFFFFFFFFFFFFFFFFFFFF AND DUP2 MSTORE PUSH1 0x20 ADD SWAP1 DUP2 MSTORE PUSH1 0x20 ADD PUSH1 0x0 KECCAK256 DUP1 SLOAD PUSH2 0x178D SWAP1 PUSH2 0x555B JUMP JUMPDEST DUP1 PUSH1 0x1F ADD PUSH1 0x20 DUP1 SWAP2 DIV MUL PUSH1 0x20 ADD PUSH1 0x40 MLOAD SWAP1 DUP2 ADD PUSH1 0x40 MSTORE DUP1 SWAP3 SWAP2 SWAP1 DUP2 DUP2 MSTORE PUSH1 0x20 ADD DUP3 DUP1 SLOAD PUSH2 0x17B9 SWAP1 PUSH2 0x555B JUMP JUMPDEST DUP1 ISZERO PUSH2 0x1806 JUMPI DUP1 PUSH1 0x1F LT PUSH2 0x17DB JUMPI PUSH2 0x100 DUP1 DUP4 SLOAD DIV MUL DUP4 MSTORE SWAP2 PUSH1 0x20 ADD SWAP2 PUSH2 0x1806 JUMP JUMPDEST DUP3 ADD SWAP2 SWAP1 PUSH1 0x0 MSTORE PUSH1 0x20 PUSH1 0x0 KECCAK256 SWAP1 JUMPDEST DUP2 SLOAD DUP2 MSTORE SWAP1 PUSH1 0x1 ADD SWAP1 PUSH1 0x20 ADD DUP1 DUP4 GT PUSH2 0x17E9 JUMPI DUP3 SWAP1 SUB PUSH1 0x1F AND DUP3 ADD SWAP2 JUMPDEST POP POP POP POP POP SWAP1 POP PUSH1 0x0 PUSH2 0x1818 DUP11 PUSH2 0x42F6 JUMP JUMPDEST SWAP1 POP DUP1 PUSH1 0x6 PUSH1 0x0 DUP13 PUSH20 0xFFFFFFFFFFFFFFFFFFFFFFFFFFFFFFFFFFFFFFFF AND PUSH20 0xFFFFFFFFFFFFFFFFFFFFFFFFFFFFFFFFFFFFFFFF AND DUP2 MSTORE PUSH1 0x20 ADD SWAP1 DUP2 MSTORE PUSH1 0x20 ADD PUSH1 0x0 KECCAK256 SWAP1 DUP2 PUSH2 0x1866 SWAP2 SWAP1 PUSH2 0x5885 JUMP JUMPDEST POP PUSH1 0x7 DUP3 PUSH1 0x40 MLOAD PUSH2 0x1877 SWAP2 SWAP1 PUSH2 0x55BD JUMP JUMPDEST SWAP1 DUP2 MSTORE PUSH1 0x20 ADD PUSH1 0x40 MLOAD DUP1 SWAP2 SUB SWAP1 KECCAK256 DUP2 SWAP1 DUP1 PUSH1 0x1 DUP2 SLOAD ADD DUP1 DUP3 SSTORE DUP1 SWAP2 POP POP PUSH1 0x1 SWAP1 SUB SWAP1 PUSH1 0x0 MSTORE PUSH1 0x20 PUSH1 0x0 KECCAK256 ADD PUSH1 0x0 SWAP1 SWAP2 SWAP1 SWAP2 SWAP1 SWAP2 POP SWAP1 DUP2 PUSH2 0x18B7 SWAP2 SWAP1 PUSH2 0x5885 JUMP JUMPDEST POP PUSH1 0x1 PUSH1 0x8 DUP3 PUSH1 0x40 MLOAD PUSH2 0x18CA SWAP2 SWAP1 PUSH2 0x55BD JUMP JUMPDEST SWAP1 DUP2 MSTORE PUSH1 0x20 ADD PUSH1 0x40 MLOAD DUP1 SWAP2 SUB SWAP1 KECCAK256 PUSH1 0x0 PUSH2 0x100 EXP DUP2 SLOAD DUP2 PUSH1 0xFF MUL NOT AND SWAP1 DUP4 PUSH1 0x1 DUP2 GT ISZERO PUSH2 0x18FA JUMPI PUSH2 0x18F9 PUSH2 0x5022 JUMP JUMPDEST JUMPDEST MUL OR SWAP1 SSTORE POP PUSH2 0x193F DUP2 PUSH1 0x40 MLOAD DUP1 PUSH1 0x40 ADD PUSH1 0x40 MSTORE DUP1 PUSH1 0xA DUP2 MSTORE PUSH1 0x20 ADD PUSH32 0x436F6C6C65676520496400000000000000000000000000000000000000000000 DUP2 MSTORE POP DUP5 PUSH2 0x4335 JUMP JUMPDEST PUSH2 0x19C3 DUP2 PUSH1 0x40 MLOAD DUP1 PUSH1 0x40 ADD PUSH1 0x40 MSTORE DUP1 PUSH1 0xC DUP2 MSTORE PUSH1 0x20 ADD PUSH32 0x53747564656E74204E616D650000000000000000000000000000000000000000 DUP2 MSTORE POP DUP12 DUP12 DUP1 DUP1 PUSH1 0x1F ADD PUSH1 0x20 DUP1 SWAP2 DIV MUL PUSH1 0x20 ADD PUSH1 0x40 MLOAD SWAP1 DUP2 ADD PUSH1 0x40 MSTORE DUP1 SWAP4 SWAP3 SWAP2 SWAP1 DUP2 DUP2 MSTORE PUSH1 0x20 ADD DUP4 DUP4 DUP1 DUP3 DUP5 CALLDATACOPY PUSH1 0x0 DUP2 DUP5 ADD MSTORE PUSH1 0x1F NOT PUSH1 0x1F DUP3 ADD AND SWAP1 POP DUP1 DUP4 ADD SWAP3 POP POP POP POP POP POP POP PUSH2 0x4335 JUMP JUMPDEST PUSH2 0x1A47 DUP2 PUSH1 0x40 MLOAD DUP1 PUSH1 0x40 ADD PUSH1 0x40 MSTORE DUP1 PUSH1 0xB DUP2 MSTORE PUSH1 0x20 ADD PUSH32 0x53747564656E7420416765000000000000000000000000000000000000000000 DUP2 MSTORE POP DUP10 DUP10 DUP1 DUP1 PUSH1 0x1F ADD PUSH1 0x20 DUP1 SWAP2 DIV MUL PUSH1 0x20 ADD PUSH1 0x40 MLOAD SWAP1 DUP2 ADD PUSH1 0x40 MSTORE DUP1 SWAP4 SWAP3 SWAP2 SWAP1 DUP2 DUP2 MSTORE PUSH1 0x20 ADD DUP4 DUP4 DUP1 DUP3 DUP5 CALLDATACOPY PUSH1 0x0 DUP2 DUP5 ADD MSTORE PUSH1 0x1F NOT PUSH1 0x1F DUP3 ADD AND SWAP1 POP DUP1 DUP4 ADD SWAP3 POP POP POP POP POP POP POP PUSH2 0x4335 JUMP JUMPDEST PUSH2 0x1ACB DUP2 PUSH1 0x40 MLOAD DUP1 PUSH1 0x40 ADD PUSH1 0x40 MSTORE DUP1 PUSH1 0x12 DUP2 MSTORE PUSH1 0x20 ADD PUSH32 0x53747564656E742050657263656E746167650000000000000000000000000000 DUP2 MSTORE POP DUP8 DUP8 DUP1 DUP1 PUSH1 0x1F ADD PUSH1 0x20 DUP1 SWAP2 DIV MUL PUSH1 0x20 ADD PUSH1 0x40 MLOAD SWAP1 DUP2 ADD PUSH1 0x40 MSTORE DUP1 SWAP4 SWAP3 SWAP2 SWAP1 DUP2 DUP2 MSTORE PUSH1 0x20 ADD DUP4 DUP4 DUP1 DUP3 DUP5 CALLDATACOPY PUSH1 0x0 DUP2 DUP5 ADD MSTORE PUSH1 0x1F NOT PUSH1 0x1F DUP3 ADD AND SWAP1 POP DUP1 DUP4 ADD SWAP3 POP POP POP POP POP POP POP PUSH2 0x4335 JUMP JUMPDEST POP POP POP POP POP POP POP POP POP POP JUMP JUMPDEST PUSH1 0x0 PUSH2 0x1AE2 CALLER PUSH2 0x42F6 JUMP JUMPDEST SWAP1 POP DUP1 PUSH1 0x1 PUSH1 0x0 CALLER PUSH20 0xFFFFFFFFFFFFFFFFFFFFFFFFFFFFFFFFFFFFFFFF AND PUSH20 0xFFFFFFFFFFFFFFFFFFFFFFFFFFFFFFFFFFFFFFFF AND DUP2 MSTORE PUSH1 0x20 ADD SWAP1 DUP2 MSTORE PUSH1 0x20 ADD PUSH1 0x0 KECCAK256 SWAP1 DUP2 PUSH2 0x1B30 SWAP2 SWAP1 PUSH2 0x5885 JUMP JUMPDEST POP PUSH1 0x2 DUP2 SWAP1 DUP1 PUSH1 0x1 DUP2 SLOAD ADD DUP1 DUP3 SSTORE DUP1 SWAP2 POP POP PUSH1 0x1 SWAP1 SUB SWAP1 PUSH1 0x0 MSTORE PUSH1 0x20 PUSH1 0x0 KECCAK256 ADD PUSH1 0x0 SWAP1 SWAP2 SWAP1 SWAP2 SWAP1 SWAP2 POP SWAP1 DUP2 PUSH2 0x1B65 SWAP2 SWAP1 PUSH2 0x5885 JUMP JUMPDEST POP PUSH1 0x1 PUSH1 0x3 DUP3 PUSH1 0x40 MLOAD PUSH2 0x1B78 SWAP2 SWAP1 PUSH2 0x55BD JUMP JUMPDEST SWAP1 DUP2 MSTORE PUSH1 0x20 ADD PUSH1 0x40 MLOAD DUP1 SWAP2 SUB SWAP1 KECCAK256 PUSH1 0x0 PUSH2 0x100 EXP DUP2 SLOAD DUP2 PUSH1 0xFF MUL NOT AND SWAP1 DUP4 PUSH1 0x3 DUP2 GT ISZERO PUSH2 0x1BA8 JUMPI PUSH2 0x1BA7 PUSH2 0x5022 JUMP JUMPDEST JUMPDEST MUL OR SWAP1 SSTORE POP PUSH2 0x1C31 DUP2 PUSH1 0x40 MLOAD DUP1 PUSH1 0x40 ADD PUSH1 0x40 MSTORE DUP1 PUSH1 0xC DUP2 MSTORE PUSH1 0x20 ADD PUSH32 0x436F6C6C656765204E616D650000000000000000000000000000000000000000 DUP2 MSTORE POP DUP6 DUP6 DUP1 DUP1 PUSH1 0x1F ADD PUSH1 0x20 DUP1 SWAP2 DIV MUL PUSH1 0x20 ADD PUSH1 0x40 MLOAD SWAP1 DUP2 ADD PUSH1 0x40 MSTORE DUP1 SWAP4 SWAP3 SWAP2 SWAP1 DUP2 DUP2 MSTORE PUSH1 0x20 ADD DUP4 DUP4 DUP1 DUP3 DUP5 CALLDATACOPY PUSH1 0x0 DUP2 DUP5 ADD MSTORE PUSH1 0x1F NOT PUSH1 0x1F DUP3 ADD AND SWAP1 POP DUP1 DUP4 ADD SWAP3 POP POP POP POP POP POP POP PUSH2 0x44A5 JUMP JUMPDEST POP POP POP JUMP JUMPDEST PUSH1 0x60 PUSH1 0x2 DUP1 SLOAD DUP1 PUSH1 0x20 MUL PUSH1 0x20 ADD PUSH1 0x40 MLOAD SWAP1 DUP2 ADD PUSH1 0x40 MSTORE DUP1 SWAP3 SWAP2 SWAP1 DUP2 DUP2 MSTORE PUSH1 0x20 ADD PUSH1 0x0 SWAP1 JUMPDEST DUP3 DUP3 LT ISZERO PUSH2 0x1D06 JUMPI DUP4 DUP3 SWAP1 PUSH1 0x0 MSTORE PUSH1 0x20 PUSH1 0x0 KECCAK256 ADD DUP1 SLOAD PUSH2 0x1C79 SWAP1 PUSH2 0x555B JUMP JUMPDEST DUP1 PUSH1 0x1F ADD PUSH1 0x20 DUP1 SWAP2 DIV MUL PUSH1 0x20 ADD PUSH1 0x40 MLOAD SWAP1 DUP2 ADD PUSH1 0x40 MSTORE DUP1 SWAP3 SWAP2 SWAP1 DUP2 DUP2 MSTORE PUSH1 0x20 ADD DUP3 DUP1 SLOAD PUSH2 0x1CA5 SWAP1 PUSH2 0x555B JUMP JUMPDEST DUP1 ISZERO PUSH2 0x1CF2 JUMPI DUP1 PUSH1 0x1F LT PUSH2 0x1CC7 JUMPI PUSH2 0x100 DUP1 DUP4 SLOAD DIV MUL DUP4 MSTORE SWAP2 PUSH1 0x20 ADD SWAP2 PUSH2 0x1CF2 JUMP JUMPDEST DUP3 ADD SWAP2 SWAP1 PUSH1 0x0 MSTORE PUSH1 0x20 PUSH1 0x0 KECCAK256 SWAP1 JUMPDEST DUP2 SLOAD DUP2 MSTORE SWAP1 PUSH1 0x1 ADD SWAP1 PUSH1 0x20 ADD DUP1 DUP4 GT PUSH2 0x1CD5 JUMPI DUP3 SWAP1 SUB PUSH1 0x1F AND DUP3 ADD SWAP2 JUMPDEST POP POP POP POP POP DUP2 MSTORE PUSH1 0x20 ADD SWAP1 PUSH1 0x1 ADD SWAP1 PUSH2 0x1C5A JUMP JUMPDEST POP POP POP POP SWAP1 POP SWAP1 JUMP JUMPDEST PUSH1 0x0 DUP1 PUSH1 0x0 SWAP1 SLOAD SWAP1 PUSH2 0x100 EXP SWAP1 DIV PUSH20 0xFFFFFFFFFFFFFFFFFFFFFFFFFFFFFFFFFFFFFFFF AND SWAP1 POP SWAP1 JUMP JUMPDEST PUSH1 0x0 PUSH1 0x1 PUSH1 0x0 CALLER PUSH20 0xFFFFFFFFFFFFFFFFFFFFFFFFFFFFFFFFFFFFFFFF AND PUSH20 0xFFFFFFFFFFFFFFFFFFFFFFFFFFFFFFFFFFFFFFFF AND DUP2 MSTORE PUSH1 0x20 ADD SWAP1 DUP2 MSTORE PUSH1 0x20 ADD PUSH1 0x0 KECCAK256 DUP1 SLOAD PUSH2 0x1D84 SWAP1 PUSH2 0x555B JUMP JUMPDEST DUP1 PUSH1 0x1F ADD PUSH1 0x20 DUP1 SWAP2 DIV MUL PUSH1 0x20 ADD PUSH1 0x40 MLOAD SWAP1 DUP2 ADD PUSH1 0x40 MSTORE DUP1 SWAP3 SWAP2 SWAP1 DUP2 DUP2 MSTORE PUSH1 0x20 ADD DUP3 DUP1 SLOAD PUSH2 0x1DB0 SWAP1 PUSH2 0x555B JUMP JUMPDEST DUP1 ISZERO PUSH2 0x1DFD JUMPI DUP1 PUSH1 0x1F LT PUSH2 0x1DD2 JUMPI PUSH2 0x100 DUP1 DUP4 SLOAD DIV MUL DUP4 MSTORE SWAP2 PUSH1 0x20 ADD SWAP2 PUSH2 0x1DFD JUMP JUMPDEST DUP3 ADD SWAP2 SWAP1 PUSH1 0x0 MSTORE PUSH1 0x20 PUSH1 0x0 KECCAK256 SWAP1 JUMPDEST DUP2 SLOAD DUP2 MSTORE SWAP1 PUSH1 0x1 ADD SWAP1 PUSH1 0x20 ADD DUP1 DUP4 GT PUSH2 0x1DE0 JUMPI DUP3 SWAP1 SUB PUSH1 0x1F AND DUP3 ADD SWAP2 JUMPDEST POP POP POP POP POP SWAP1 POP PUSH1 0x0 PUSH1 0x3 DUP2 GT ISZERO PUSH2 0x1E18 JUMPI PUSH2 0x1E17 PUSH2 0x5022 JUMP JUMPDEST JUMPDEST PUSH1 0x3 DUP3 PUSH1 0x40 MLOAD PUSH2 0x1E28 SWAP2 SWAP1 PUSH2 0x55BD JUMP JUMPDEST SWAP1 DUP2 MSTORE PUSH1 0x20 ADD PUSH1 0x40 MLOAD DUP1 SWAP2 SUB SWAP1 KECCAK256 PUSH1 0x0 SWAP1 SLOAD SWAP1 PUSH2 0x100 EXP SWAP1 DIV PUSH1 0xFF AND PUSH1 0x3 DUP2 GT ISZERO PUSH2 0x1E56 JUMPI PUSH2 0x1E55 PUSH2 0x5022 JUMP JUMPDEST JUMPDEST SUB PUSH2 0x1E8D JUMPI PUSH1 0x40 MLOAD PUSH32 0x8FA622F500000000000000000000000000000000000000000000000000000000 DUP2 MSTORE PUSH1 0x4 ADD PUSH1 0x40 MLOAD DUP1 SWAP2 SUB SWAP1 REVERT JUMPDEST PUSH1 0x2 PUSH1 0x3 DUP2 GT ISZERO PUSH2 0x1EA1 JUMPI PUSH2 0x1EA0 PUSH2 0x5022 JUMP JUMPDEST JUMPDEST PUSH1 0x3 DUP3 PUSH1 0x40 MLOAD PUSH2 0x1EB1 SWAP2 SWAP1 PUSH2 0x55BD JUMP JUMPDEST SWAP1 DUP2 MSTORE PUSH1 0x20 ADD PUSH1 0x40 MLOAD DUP1 SWAP2 SUB SWAP1 KECCAK256 PUSH1 0x0 SWAP1 SLOAD SWAP1 PUSH2 0x100 EXP SWAP1 DIV PUSH1 0xFF AND PUSH1 0x3 DUP2 GT ISZERO PUSH2 0x1EDF JUMPI PUSH2 0x1EDE PUSH2 0x5022 JUMP JUMPDEST JUMPDEST EQ PUSH2 0x1F16 JUMPI PUSH1 0x40 MLOAD PUSH32 0x8AC8E00B00000000000000000000000000000000000000000000000000000000 DUP2 MSTORE PUSH1 0x4 ADD PUSH1 0x40 MLOAD DUP1 SWAP2 SUB SWAP1 REVERT JUMPDEST DUP7 DUP7 PUSH1 0x0 PUSH1 0x1 DUP2 GT ISZERO PUSH2 0x1F2C JUMPI PUSH2 0x1F2B PUSH2 0x5022 JUMP JUMPDEST JUMPDEST PUSH1 0x8 DUP4 DUP4 PUSH1 0x40 MLOAD PUSH2 0x1F3E SWAP3 SWAP2 SWAP1 PUSH2 0x5513 JUMP JUMPDEST SWAP1 DUP2 MSTORE PUSH1 0x20 ADD PUSH1 0x40 MLOAD DUP1 SWAP2 SUB SWAP1 KECCAK256 PUSH1 0x0 SWAP1 SLOAD SWAP1 PUSH2 0x100 EXP SWAP1 DIV PUSH1 0xFF AND PUSH1 0x1 DUP2 GT ISZERO PUSH2 0x1F6C JUMPI PUSH2 0x1F6B PUSH2 0x5022 JUMP JUMPDEST JUMPDEST SUB PUSH2 0x1FA3 JUMPI PUSH1 0x40 MLOAD PUSH32 0x78DE8BF00000000000000000000000000000000000000000000000000000000 DUP2 MSTORE PUSH1 0x4 ADD PUSH1 0x40 MLOAD DUP1 SWAP2 SUB SWAP1 REVERT JUMPDEST PUSH1 0x0 PUSH1 0x1 PUSH1 0x0 CALLER PUSH20 0xFFFFFFFFFFFFFFFFFFFFFFFFFFFFFFFFFFFFFFFF AND PUSH20 0xFFFFFFFFFFFFFFFFFFFFFFFFFFFFFFFFFFFFFFFF AND DUP2 MSTORE PUSH1 0x20 ADD SWAP1 DUP2 MSTORE PUSH1 0x20 ADD PUSH1 0x0 KECCAK256 DUP1 SLOAD PUSH2 0x1FEF SWAP1 PUSH2 0x555B JUMP JUMPDEST DUP1 PUSH1 0x1F ADD PUSH1 0x20 DUP1 SWAP2 DIV MUL PUSH1 0x20 ADD PUSH1 0x40 MLOAD SWAP1 DUP2 ADD PUSH1 0x40 MSTORE DUP1 SWAP3 SWAP2 SWAP1 DUP2 DUP2 MSTORE PUSH1 0x20 ADD DUP3 DUP1 SLOAD PUSH2 0x201B SWAP1 PUSH2 0x555B JUMP JUMPDEST DUP1 ISZERO PUSH2 0x2068 JUMPI DUP1 PUSH1 0x1F LT PUSH2 0x203D JUMPI PUSH2 0x100 DUP1 DUP4 SLOAD DIV MUL DUP4 MSTORE SWAP2 PUSH1 0x20 ADD SWAP2 PUSH2 0x2068 JUMP JUMPDEST DUP3 ADD SWAP2 SWAP1 PUSH1 0x0 MSTORE PUSH1 0x20 PUSH1 0x0 KECCAK256 SWAP1 JUMPDEST DUP2 SLOAD DUP2 MSTORE SWAP1 PUSH1 0x1 ADD SWAP1 PUSH1 0x20 ADD DUP1 DUP4 GT PUSH2 0x204B JUMPI DUP3 SWAP1 SUB PUSH1 0x1F AND DUP3 ADD SWAP2 JUMPDEST POP POP POP POP POP SWAP1 POP PUSH1 0x0 PUSH1 0x9 DUP5 DUP5 PUSH1 0x40 MLOAD PUSH2 0x2083 SWAP3 SWAP2 SWAP1 PUSH2 0x5513 JUMP JUMPDEST SWAP1 DUP2 MSTORE PUSH1 0x20 ADD PUSH1 0x40 MLOAD DUP1 SWAP2 SUB SWAP1 KECCAK256 PUSH1 0x40 MLOAD PUSH2 0x209D SWAP1 PUSH2 0x56CF JUMP JUMPDEST SWAP1 DUP2 MSTORE PUSH1 0x20 ADD PUSH1 0x40 MLOAD DUP1 SWAP2 SUB SWAP1 KECCAK256 DUP1 SLOAD PUSH2 0x20B6 SWAP1 PUSH2 0x555B JUMP JUMPDEST DUP1 PUSH1 0x1F ADD PUSH1 0x20 DUP1 SWAP2 DIV MUL PUSH1 0x20 ADD PUSH1 0x40 MLOAD SWAP1 DUP2 ADD PUSH1 0x40 MSTORE DUP1 SWAP3 SWAP2 SWAP1 DUP2 DUP2 MSTORE PUSH1 0x20 ADD DUP3 DUP1 SLOAD PUSH2 0x20E2 SWAP1 PUSH2 0x555B JUMP JUMPDEST DUP1 ISZERO PUSH2 0x212F JUMPI DUP1 PUSH1 0x1F LT PUSH2 0x2104 JUMPI PUSH2 0x100 DUP1 DUP4 SLOAD DIV MUL DUP4 MSTORE SWAP2 PUSH1 0x20 ADD SWAP2 PUSH2 0x212F JUMP JUMPDEST DUP3 ADD SWAP2 SWAP1 PUSH1 0x0 MSTORE PUSH1 0x20 PUSH1 0x0 KECCAK256 SWAP1 JUMPDEST DUP2 SLOAD DUP2 MSTORE SWAP1 PUSH1 0x1 ADD SWAP1 PUSH1 0x20 ADD DUP1 DUP4 GT PUSH2 0x2112 JUMPI DUP3 SWAP1 SUB PUSH1 0x1F AND DUP3 ADD SWAP2 JUMPDEST POP POP POP POP POP SWAP1 POP DUP1 PUSH1 0x40 MLOAD PUSH1 0x20 ADD PUSH2 0x2147 SWAP2 SWAP1 PUSH2 0x55BD JUMP JUMPDEST PUSH1 0x40 MLOAD PUSH1 0x20 DUP2 DUP4 SUB SUB DUP2 MSTORE SWAP1 PUSH1 0x40 MSTORE DUP1 MLOAD SWAP1 PUSH1 0x20 ADD KECCAK256 DUP3 PUSH1 0x40 MLOAD PUSH1 0x20 ADD PUSH2 0x216E SWAP2 SWAP1 PUSH2 0x55BD JUMP JUMPDEST PUSH1 0x40 MLOAD PUSH1 0x20 DUP2 DUP4 SUB SUB DUP2 MSTORE SWAP1 PUSH1 0x40 MSTORE DUP1 MLOAD SWAP1 PUSH1 0x20 ADD KECCAK256 EQ PUSH2 0x21BB JUMPI PUSH1 0x40 MLOAD PUSH32 0xCA7B7FB200000000000000000000000000000000000000000000000000000000 DUP2 MSTORE PUSH1 0x4 ADD PUSH1 0x40 MLOAD DUP1 SWAP2 SUB SWAP1 REVERT JUMPDEST DUP7 DUP7 SWAP1 POP DUP10 DUP10 SWAP1 POP EQ PUSH2 0x21FA JUMPI PUSH1 0x40 MLOAD PUSH32 0x79B3F46F00000000000000000000000000000000000000000000000000000000 DUP2 MSTORE PUSH1 0x4 ADD PUSH1 0x40 MLOAD DUP1 SWAP2 SUB SWAP1 REVERT JUMPDEST PUSH1 0x0 JUMPDEST DUP10 DUP10 SWAP1 POP DUP2 LT ISZERO PUSH2 0x23E0 JUMPI PUSH1 0x0 DUP9 DUP9 DUP4 DUP2 DUP2 LT PUSH2 0x221D JUMPI PUSH2 0x221C PUSH2 0x5957 JUMP JUMPDEST JUMPDEST SWAP1 POP PUSH1 0x20 MUL DUP2 ADD SWAP1 PUSH2 0x222F SWAP2 SWAP1 PUSH2 0x5995 JUMP JUMPDEST DUP1 DUP1 PUSH1 0x1F ADD PUSH1 0x20 DUP1 SWAP2 DIV MUL PUSH1 0x20 ADD PUSH1 0x40 MLOAD SWAP1 DUP2 ADD PUSH1 0x40 MSTORE DUP1 SWAP4 SWAP3 SWAP2 SWAP1 DUP2 DUP2 MSTORE PUSH1 0x20 ADD DUP4 DUP4 DUP1 DUP3 DUP5 CALLDATACOPY PUSH1 0x0 DUP2 DUP5 ADD MSTORE PUSH1 0x1F NOT PUSH1 0x1F DUP3 ADD AND SWAP1 POP DUP1 DUP4 ADD SWAP3 POP POP POP POP POP POP POP SWAP1 POP PUSH1 0x0 DUP2 MLOAD SUB PUSH2 0x22AF JUMPI PUSH1 0x40 MLOAD PUSH32 0x47B4AF9400000000000000000000000000000000000000000000000000000000 DUP2 MSTORE PUSH1 0x4 ADD PUSH1 0x40 MLOAD DUP1 SWAP2 SUB SWAP1 REVERT JUMPDEST PUSH2 0x23CC DUP14 DUP14 DUP1 DUP1 PUSH1 0x1F ADD PUSH1 0x20 DUP1 SWAP2 DIV MUL PUSH1 0x20 ADD PUSH1 0x40 MLOAD SWAP1 DUP2 ADD PUSH1 0x40 MSTORE DUP1 SWAP4 SWAP3 SWAP2 SWAP1 DUP2 DUP2 MSTORE PUSH1 0x20 ADD DUP4 DUP4 DUP1 DUP3 DUP5 CALLDATACOPY PUSH1 0x0 DUP2 DUP5 ADD MSTORE PUSH1 0x1F NOT PUSH1 0x1F DUP3 ADD AND SWAP1 POP DUP1 DUP4 ADD SWAP3 POP POP POP POP POP POP POP DUP13 DUP13 DUP6 DUP2 DUP2 LT PUSH2 0x230A JUMPI PUSH2 0x2309 PUSH2 0x5957 JUMP JUMPDEST JUMPDEST SWAP1 POP PUSH1 0x20 MUL DUP2 ADD SWAP1 PUSH2 0x231C SWAP2 SWAP1 PUSH2 0x5995 JUMP JUMPDEST DUP1 DUP1 PUSH1 0x1F ADD PUSH1 0x20 DUP1 SWAP2 DIV MUL PUSH1 0x20 ADD PUSH1 0x40 MLOAD SWAP1 DUP2 ADD PUSH1 0x40 MSTORE DUP1 SWAP4 SWAP3 SWAP2 SWAP1 DUP2 DUP2 MSTORE PUSH1 0x20 ADD DUP4 DUP4 DUP1 DUP3 DUP5 CALLDATACOPY PUSH1 0x0 DUP2 DUP5 ADD MSTORE PUSH1 0x1F NOT PUSH1 0x1F DUP3 ADD AND SWAP1 POP DUP1 DUP4 ADD SWAP3 POP POP POP POP POP POP POP DUP12 DUP12 DUP7 DUP2 DUP2 LT PUSH2 0x2372 JUMPI PUSH2 0x2371 PUSH2 0x5957 JUMP JUMPDEST JUMPDEST SWAP1 POP PUSH1 0x20 MUL DUP2 ADD SWAP1 PUSH2 0x2384 SWAP2 SWAP1 PUSH2 0x5995 JUMP JUMPDEST DUP1 DUP1 PUSH1 0x1F ADD PUSH1 0x20 DUP1 SWAP2 DIV MUL PUSH1 0x20 ADD PUSH1 0x40 MLOAD SWAP1 DUP2 ADD PUSH1 0x40 MSTORE DUP1 SWAP4 SWAP3 SWAP2 SWAP1 DUP2 DUP2 MSTORE PUSH1 0x20 ADD DUP4 DUP4 DUP1 DUP3 DUP5 CALLDATACOPY PUSH1 0x0 DUP2 DUP5 ADD MSTORE PUSH1 0x1F NOT PUSH1 0x1F DUP3 ADD AND SWAP1 POP DUP1 DUP4 ADD SWAP3 POP POP POP POP POP POP POP PUSH2 0x4335 JUMP JUMPDEST POP DUP1 DUP1 PUSH2 0x23D8 SWAP1 PUSH2 0x5A27 JUMP JUMPDEST SWAP2 POP POP PUSH2 0x21FD JUMP JUMPDEST POP POP POP POP POP POP POP POP POP POP POP POP JUMP JUMPDEST PUSH1 0x0 PUSH1 0x1 PUSH1 0x0 CALLER PUSH20 0xFFFFFFFFFFFFFFFFFFFFFFFFFFFFFFFFFFFFFFFF AND PUSH20 0xFFFFFFFFFFFFFFFFFFFFFFFFFFFFFFFFFFFFFFFF AND DUP2 MSTORE PUSH1 0x20 ADD SWAP1 DUP2 MSTORE PUSH1 0x20 ADD PUSH1 0x0 KECCAK256 DUP1 SLOAD PUSH2 0x243A SWAP1 PUSH2 0x555B JUMP JUMPDEST DUP1 PUSH1 0x1F ADD PUSH1 0x20 DUP1 SWAP2 DIV MUL PUSH1 0x20 ADD PUSH1 0x40 MLOAD SWAP1 DUP2 ADD PUSH1 0x40 MSTORE DUP1 SWAP3 SWAP2 SWAP1 DUP2 DUP2 MSTORE PUSH1 0x20 ADD DUP3 DUP1 SLOAD PUSH2 0x2466 SWAP1 PUSH2 0x555B JUMP JUMPDEST DUP1 ISZERO PUSH2 0x24B3 JUMPI DUP1 PUSH1 0x1F LT PUSH2 0x2488 JUMPI PUSH2 0x100 DUP1 DUP4 SLOAD DIV MUL DUP4 MSTORE SWAP2 PUSH1 0x20 ADD SWAP2 PUSH2 0x24B3 JUMP JUMPDEST DUP3 ADD SWAP2 SWAP1 PUSH1 0x0 MSTORE PUSH1 0x20 PUSH1 0x0 KECCAK256 SWAP1 JUMPDEST DUP2 SLOAD DUP2 MSTORE SWAP1 PUSH1 0x1 ADD SWAP1 PUSH1 0x20 ADD DUP1 DUP4 GT PUSH2 0x2496 JUMPI DUP3 SWAP1 SUB PUSH1 0x1F AND DUP3 ADD SWAP2 JUMPDEST POP POP POP POP POP SWAP1 POP PUSH1 0x0 PUSH1 0x3 DUP2 GT ISZERO PUSH2 0x24CE JUMPI PUSH2 0x24CD PUSH2 0x5022 JUMP JUMPDEST JUMPDEST PUSH1 0x3 DUP3 PUSH1 0x40 MLOAD PUSH2 0x24DE SWAP2 SWAP1 PUSH2 0x55BD JUMP JUMPDEST SWAP1 DUP2 MSTORE PUSH1 0x20 ADD PUSH1 0x40 MLOAD DUP1 SWAP2 SUB SWAP1 KECCAK256 PUSH1 0x0 SWAP1 SLOAD SWAP1 PUSH2 0x100 EXP SWAP1 DIV PUSH1 0xFF AND PUSH1 0x3 DUP2 GT ISZERO PUSH2 0x250C JUMPI PUSH2 0x250B PUSH2 0x5022 JUMP JUMPDEST JUMPDEST SUB PUSH2 0x2543 JUMPI PUSH1 0x40 MLOAD PUSH32 0x8FA622F500000000000000000000000000000000000000000000000000000000 DUP2 MSTORE PUSH1 0x4 ADD PUSH1 0x40 MLOAD DUP1 SWAP2 SUB SWAP1 REVERT JUMPDEST PUSH1 0x2 PUSH1 0x3 DUP2 GT ISZERO PUSH2 0x2557 JUMPI PUSH2 0x2556 PUSH2 0x5022 JUMP JUMPDEST JUMPDEST PUSH1 0x3 DUP3 PUSH1 0x40 MLOAD PUSH2 0x2567 SWAP2 SWAP1 PUSH2 0x55BD JUMP JUMPDEST SWAP1 DUP2 MSTORE PUSH1 0x20 ADD PUSH1 0x40 MLOAD DUP1 SWAP2 SUB SWAP1 KECCAK256 PUSH1 0x0 SWAP1 SLOAD SWAP1 PUSH2 0x100 EXP SWAP1 DIV PUSH1 0xFF AND PUSH1 0x3 DUP2 GT ISZERO PUSH2 0x2595 JUMPI PUSH2 0x2594 PUSH2 0x5022 JUMP JUMPDEST JUMPDEST EQ PUSH2 0x25CC JUMPI PUSH1 0x40 MLOAD PUSH32 0x8AC8E00B00000000000000000000000000000000000000000000000000000000 DUP2 MSTORE PUSH1 0x4 ADD PUSH1 0x40 MLOAD DUP1 SWAP2 SUB SWAP1 REVERT JUMPDEST PUSH1 0x0 DUP4 DUP4 DUP1 DUP1 PUSH1 0x1F ADD PUSH1 0x20 DUP1 SWAP2 DIV MUL PUSH1 0x20 ADD PUSH1 0x40 MLOAD SWAP1 DUP2 ADD PUSH1 0x40 MSTORE DUP1 SWAP4 SWAP3 SWAP2 SWAP1 DUP2 DUP2 MSTORE PUSH1 0x20 ADD DUP4 DUP4 DUP1 DUP3 DUP5 CALLDATACOPY PUSH1 0x0 DUP2 DUP5 ADD MSTORE PUSH1 0x1F NOT PUSH1 0x1F DUP3 ADD AND SWAP1 POP DUP1 DUP4 ADD SWAP3 POP POP POP POP POP POP POP SWAP1 POP PUSH1 0x0 DUP2 MLOAD SUB PUSH2 0x2650 JUMPI PUSH1 0x40 MLOAD PUSH32 0x47B4AF9400000000000000000000000000000000000000000000000000000000 DUP2 MSTORE PUSH1 0x4 ADD PUSH1 0x40 MLOAD DUP1 SWAP2 SUB SWAP1 REVERT JUMPDEST PUSH1 0x0 PUSH1 0x1 PUSH1 0x0 CALLER PUSH20 0xFFFFFFFFFFFFFFFFFFFFFFFFFFFFFFFFFFFFFFFF AND PUSH20 0xFFFFFFFFFFFFFFFFFFFFFFFFFFFFFFFFFFFFFFFF AND DUP2 MSTORE PUSH1 0x20 ADD SWAP1 DUP2 MSTORE PUSH1 0x20 ADD PUSH1 0x0 KECCAK256 DUP1 SLOAD PUSH2 0x269C SWAP1 PUSH2 0x555B JUMP JUMPDEST DUP1 PUSH1 0x1F ADD PUSH1 0x20 DUP1 SWAP2 DIV MUL PUSH1 0x20 ADD PUSH1 0x40 MLOAD SWAP1 DUP2 ADD PUSH1 0x40 MSTORE DUP1 SWAP3 SWAP2 SWAP1 DUP2 DUP2 MSTORE PUSH1 0x20 ADD DUP3 DUP1 SLOAD PUSH2 0x26C8 SWAP1 PUSH2 0x555B JUMP JUMPDEST DUP1 ISZERO PUSH2 0x2715 JUMPI DUP1 PUSH1 0x1F LT PUSH2 0x26EA JUMPI PUSH2 0x100 DUP1 DUP4 SLOAD DIV MUL DUP4 MSTORE SWAP2 PUSH1 0x20 ADD SWAP2 PUSH2 0x2715 JUMP JUMPDEST DUP3 ADD SWAP2 SWAP1 PUSH1 0x0 MSTORE PUSH1 0x20 PUSH1 0x0 KECCAK256 SWAP1 JUMPDEST DUP2 SLOAD DUP2 MSTORE SWAP1 PUSH1 0x1 ADD SWAP1 PUSH1 0x20 ADD DUP1 DUP4 GT PUSH2 0x26F8 JUMPI DUP3 SWAP1 SUB PUSH1 0x1F AND DUP3 ADD SWAP2 JUMPDEST POP POP POP POP POP SWAP1 POP PUSH2 0x27AF DUP2 DUP9 DUP9 DUP1 DUP1 PUSH1 0x1F ADD PUSH1 0x20 DUP1 SWAP2 DIV MUL PUSH1 0x20 ADD PUSH1 0x40 MLOAD SWAP1 DUP2 ADD PUSH1 0x40 MSTORE DUP1 SWAP4 SWAP3 SWAP2 SWAP1 DUP2 DUP2 MSTORE PUSH1 0x20 ADD DUP4 DUP4 DUP1 DUP3 DUP5 CALLDATACOPY PUSH1 0x0 DUP2 DUP5 ADD MSTORE PUSH1 0x1F NOT PUSH1 0x1F DUP3 ADD AND SWAP1 POP DUP1 DUP4 ADD SWAP3 POP POP POP POP POP POP POP DUP8 DUP8 DUP1 DUP1 PUSH1 0x1F ADD PUSH1 0x20 DUP1 SWAP2 DIV MUL PUSH1 0x20 ADD PUSH1 0x40 MLOAD SWAP1 DUP2 ADD PUSH1 0x40 MSTORE DUP1 SWAP4 SWAP3 SWAP2 SWAP1 DUP2 DUP2 MSTORE PUSH1 0x20 ADD DUP4 DUP4 DUP1 DUP3 DUP5 CALLDATACOPY PUSH1 0x0 DUP2 DUP5 ADD MSTORE PUSH1 0x1F NOT PUSH1 0x1F DUP3 ADD AND SWAP1 POP DUP1 DUP4 ADD SWAP3 POP POP POP POP POP POP POP PUSH2 0x44A5 JUMP JUMPDEST POP POP POP POP POP POP POP JUMP JUMPDEST PUSH1 0x60 PUSH1 0x4 DUP6 DUP6 PUSH1 0x40 MLOAD PUSH2 0x27CC SWAP3 SWAP2 SWAP1 PUSH2 0x5513 JUMP JUMPDEST SWAP1 DUP2 MSTORE PUSH1 0x20 ADD PUSH1 0x40 MLOAD DUP1 SWAP2 SUB SWAP1 KECCAK256 DUP4 DUP4 PUSH1 0x40 MLOAD PUSH2 0x27EA SWAP3 SWAP2 SWAP1 PUSH2 0x5513 JUMP JUMPDEST SWAP1 DUP2 MSTORE PUSH1 0x20 ADD PUSH1 0x40 MLOAD DUP1 SWAP2 SUB SWAP1 KECCAK256 DUP1 SLOAD PUSH2 0x2803 SWAP1 PUSH2 0x555B JUMP JUMPDEST DUP1 PUSH1 0x1F ADD PUSH1 0x20 DUP1 SWAP2 DIV MUL PUSH1 0x20 ADD PUSH1 0x40 MLOAD SWAP1 DUP2 ADD PUSH1 0x40 MSTORE DUP1 SWAP3 SWAP2 SWAP1 DUP2 DUP2 MSTORE PUSH1 0x20 ADD DUP3 DUP1 SLOAD PUSH2 0x282F SWAP1 PUSH2 0x555B JUMP JUMPDEST DUP1 ISZERO PUSH2 0x287C JUMPI DUP1 PUSH1 0x1F LT PUSH2 0x2851 JUMPI PUSH2 0x100 DUP1 DUP4 SLOAD DIV MUL DUP4 MSTORE SWAP2 PUSH1 0x20 ADD SWAP2 PUSH2 0x287C JUMP JUMPDEST DUP3 ADD SWAP2 SWAP1 PUSH1 0x0 MSTORE PUSH1 0x20 PUSH1 0x0 KECCAK256 SWAP1 JUMPDEST DUP2 SLOAD DUP2 MSTORE SWAP1 PUSH1 0x1 ADD SWAP1 PUSH1 0x20 ADD DUP1 DUP4 GT PUSH2 0x285F JUMPI DUP3 SWAP1 SUB PUSH1 0x1F AND DUP3 ADD SWAP2 JUMPDEST POP POP POP POP POP SWAP1 POP SWAP5 SWAP4 POP POP POP POP JUMP JUMPDEST PUSH1 0x0 PUSH1 0x6 PUSH1 0x0 CALLER PUSH20 0xFFFFFFFFFFFFFFFFFFFFFFFFFFFFFFFFFFFFFFFF AND PUSH20 0xFFFFFFFFFFFFFFFFFFFFFFFFFFFFFFFFFFFFFFFF AND DUP2 MSTORE PUSH1 0x20 ADD SWAP1 DUP2 MSTORE PUSH1 0x20 ADD PUSH1 0x0 KECCAK256 DUP1 SLOAD PUSH2 0x28D7 SWAP1 PUSH2 0x555B JUMP JUMPDEST DUP1 PUSH1 0x1F ADD PUSH1 0x20 DUP1 SWAP2 DIV MUL PUSH1 0x20 ADD PUSH1 0x40 MLOAD SWAP1 DUP2 ADD PUSH1 0x40 MSTORE DUP1 SWAP3 SWAP2 SWAP1 DUP2 DUP2 MSTORE PUSH1 0x20 ADD DUP3 DUP1 SLOAD PUSH2 0x2903 SWAP1 PUSH2 0x555B JUMP JUMPDEST DUP1 ISZERO PUSH2 0x2950 JUMPI DUP1 PUSH1 0x1F LT PUSH2 0x2925 JUMPI PUSH2 0x100 DUP1 DUP4 SLOAD DIV MUL DUP4 MSTORE SWAP2 PUSH1 0x20 ADD SWAP2 PUSH2 0x2950 JUMP JUMPDEST DUP3 ADD SWAP2 SWAP1 PUSH1 0x0 MSTORE PUSH1 0x20 PUSH1 0x0 KECCAK256 SWAP1 JUMPDEST DUP2 SLOAD DUP2 MSTORE SWAP1 PUSH1 0x1 ADD SWAP1 PUSH1 0x20 ADD DUP1 DUP4 GT PUSH2 0x2933 JUMPI DUP3 SWAP1 SUB PUSH1 0x1F AND DUP3 ADD SWAP2 JUMPDEST POP POP POP POP POP SWAP1 POP PUSH1 0x0 PUSH1 0x1 DUP2 GT ISZERO PUSH2 0x296B JUMPI PUSH2 0x296A PUSH2 0x5022 JUMP JUMPDEST JUMPDEST PUSH1 0x8 DUP3 PUSH1 0x40 MLOAD PUSH2 0x297B SWAP2 SWAP1 PUSH2 0x55BD JUMP JUMPDEST SWAP1 DUP2 MSTORE PUSH1 0x20 ADD PUSH1 0x40 MLOAD DUP1 SWAP2 SUB SWAP1 KECCAK256 PUSH1 0x0 SWAP1 SLOAD SWAP1 PUSH2 0x100 EXP SWAP1 DIV PUSH1 0xFF AND PUSH1 0x1 DUP2 GT ISZERO PUSH2 0x29A9 JUMPI PUSH2 0x29A8 PUSH2 0x5022 JUMP JUMPDEST JUMPDEST SUB PUSH2 0x29E0 JUMPI PUSH1 0x40 MLOAD PUSH32 0x78DE8BF00000000000000000000000000000000000000000000000000000000 DUP2 MSTORE PUSH1 0x4 ADD PUSH1 0x40 MLOAD DUP1 SWAP2 SUB SWAP1 REVERT JUMPDEST DUP3 DUP3 SWAP1 POP DUP6 DUP6 SWAP1 POP EQ PUSH2 0x2A1F JUMPI PUSH1 0x40 MLOAD PUSH32 0x79B3F46F00000000000000000000000000000000000000000000000000000000 DUP2 MSTORE PUSH1 0x4 ADD PUSH1 0x40 MLOAD DUP1 SWAP2 SUB SWAP1 REVERT JUMPDEST PUSH1 0x0 PUSH1 0x6 PUSH1 0x0 CALLER PUSH20 0xFFFFFFFFFFFFFFFFFFFFFFFFFFFFFFFFFFFFFFFF AND PUSH20 0xFFFFFFFFFFFFFFFFFFFFFFFFFFFFFFFFFFFFFFFF AND DUP2 MSTORE PUSH1 0x20 ADD SWAP1 DUP2 MSTORE PUSH1 0x20 ADD PUSH1 0x0 KECCAK256 DUP1 SLOAD PUSH2 0x2A6B SWAP1 PUSH2 0x555B JUMP JUMPDEST DUP1 PUSH1 0x1F ADD PUSH1 0x20 DUP1 SWAP2 DIV MUL PUSH1 0x20 ADD PUSH1 0x40 MLOAD SWAP1 DUP2 ADD PUSH1 0x40 MSTORE DUP1 SWAP3 SWAP2 SWAP1 DUP2 DUP2 MSTORE PUSH1 0x20 ADD DUP3 DUP1 SLOAD PUSH2 0x2A97 SWAP1 PUSH2 0x555B JUMP JUMPDEST DUP1 ISZERO PUSH2 0x2AE4 JUMPI DUP1 PUSH1 0x1F LT PUSH2 0x2AB9 JUMPI PUSH2 0x100 DUP1 DUP4 SLOAD DIV MUL DUP4 MSTORE SWAP2 PUSH1 0x20 ADD SWAP2 PUSH2 0x2AE4 JUMP JUMPDEST DUP3 ADD SWAP2 SWAP1 PUSH1 0x0 MSTORE PUSH1 0x20 PUSH1 0x0 KECCAK256 SWAP1 JUMPDEST DUP2 SLOAD DUP2 MSTORE SWAP1 PUSH1 0x1 ADD SWAP1 PUSH1 0x20 ADD DUP1 DUP4 GT PUSH2 0x2AC7 JUMPI DUP3 SWAP1 SUB PUSH1 0x1F AND DUP3 ADD SWAP2 JUMPDEST POP POP POP POP POP SWAP1 POP PUSH1 0x0 JUMPDEST DUP7 DUP7 SWAP1 POP DUP2 LT ISZERO PUSH2 0x2C71 JUMPI PUSH1 0xB DUP3 PUSH1 0x40 MLOAD PUSH2 0x2B09 SWAP2 SWAP1 PUSH2 0x55BD JUMP JUMPDEST SWAP1 DUP2 MSTORE PUSH1 0x20 ADD PUSH1 0x40 MLOAD DUP1 SWAP2 SUB SWAP1 KECCAK256 DUP8 DUP8 DUP4 DUP2 DUP2 LT PUSH2 0x2B2A JUMPI PUSH2 0x2B29 PUSH2 0x5957 JUMP JUMPDEST JUMPDEST SWAP1 POP PUSH1 0x20 MUL DUP2 ADD SWAP1 PUSH2 0x2B3C SWAP2 SWAP1 PUSH2 0x5995 JUMP JUMPDEST PUSH1 0x40 MLOAD PUSH2 0x2B4A SWAP3 SWAP2 SWAP1 PUSH2 0x5513 JUMP JUMPDEST SWAP1 DUP2 MSTORE PUSH1 0x20 ADD PUSH1 0x40 MLOAD DUP1 SWAP2 SUB SWAP1 KECCAK256 PUSH1 0x0 SWAP1 SLOAD SWAP1 PUSH2 0x100 EXP SWAP1 DIV PUSH1 0xFF AND PUSH2 0x2B9C JUMPI PUSH1 0x40 MLOAD PUSH32 0x722F899200000000000000000000000000000000000000000000000000000000 DUP2 MSTORE PUSH1 0x4 ADD PUSH1 0x40 MLOAD DUP1 SWAP2 SUB SWAP1 REVERT JUMPDEST PUSH2 0x2BCC DUP3 DUP9 DUP9 DUP5 DUP2 DUP2 LT PUSH2 0x2BB3 JUMPI PUSH2 0x2BB2 PUSH2 0x5957 JUMP JUMPDEST JUMPDEST SWAP1 POP PUSH1 0x20 MUL DUP2 ADD SWAP1 PUSH2 0x2BC5 SWAP2 SWAP1 PUSH2 0x5995 JUMP JUMPDEST PUSH1 0x1 PUSH2 0x4615 JUMP JUMPDEST DUP5 DUP5 DUP3 DUP2 DUP2 LT PUSH2 0x2BDF JUMPI PUSH2 0x2BDE PUSH2 0x5957 JUMP JUMPDEST JUMPDEST SWAP1 POP PUSH1 0x20 MUL DUP2 ADD SWAP1 PUSH2 0x2BF1 SWAP2 SWAP1 PUSH2 0x5995 JUMP JUMPDEST PUSH1 0xD DUP5 PUSH1 0x40 MLOAD PUSH2 0x2C01 SWAP2 SWAP1 PUSH2 0x55BD JUMP JUMPDEST SWAP1 DUP2 MSTORE PUSH1 0x20 ADD PUSH1 0x40 MLOAD DUP1 SWAP2 SUB SWAP1 KECCAK256 DUP10 DUP10 DUP6 DUP2 DUP2 LT PUSH2 0x2C22 JUMPI PUSH2 0x2C21 PUSH2 0x5957 JUMP JUMPDEST JUMPDEST SWAP1 POP PUSH1 0x20 MUL DUP2 ADD SWAP1 PUSH2 0x2C34 SWAP2 SWAP1 PUSH2 0x5995 JUMP JUMPDEST PUSH1 0x40 MLOAD PUSH2 0x2C42 SWAP3 SWAP2 SWAP1 PUSH2 0x5513 JUMP JUMPDEST SWAP1 DUP2 MSTORE PUSH1 0x20 ADD PUSH1 0x40 MLOAD DUP1 SWAP2 SUB SWAP1 KECCAK256 SWAP2 DUP3 PUSH2 0x2C5D SWAP3 SWAP2 SWAP1 PUSH2 0x5A7A JUMP JUMPDEST POP DUP1 DUP1 PUSH2 0x2C69 SWAP1 PUSH2 0x5A27 JUMP JUMPDEST SWAP2 POP POP PUSH2 0x2AEE JUMP JUMPDEST POP POP POP POP POP POP POP JUMP JUMPDEST PUSH1 0x0 PUSH1 0x1 PUSH1 0x0 CALLER PUSH20 0xFFFFFFFFFFFFFFFFFFFFFFFFFFFFFFFFFFFFFFFF AND PUSH20 0xFFFFFFFFFFFFFFFFFFFFFFFFFFFFFFFFFFFFFFFF AND DUP2 MSTORE PUSH1 0x20 ADD SWAP1 DUP2 MSTORE PUSH1 0x20 ADD PUSH1 0x0 KECCAK256 DUP1 SLOAD PUSH2 0x2CC6 SWAP1 PUSH2 0x555B JUMP JUMPDEST DUP1 PUSH1 0x1F ADD PUSH1 0x20 DUP1 SWAP2 DIV MUL PUSH1 0x20 ADD PUSH1 0x40 MLOAD SWAP1 DUP2 ADD PUSH1 0x40 MSTORE DUP1 SWAP3 SWAP2 SWAP1 DUP2 DUP2 MSTORE PUSH1 0x20 ADD DUP3 DUP1 SLOAD PUSH2 0x2CF2 SWAP1 PUSH2 0x555B JUMP JUMPDEST DUP1 ISZERO PUSH2 0x2D3F JUMPI DUP1 PUSH1 0x1F LT PUSH2 0x2D14 JUMPI PUSH2 0x100 DUP1 DUP4 SLOAD DIV MUL DUP4 MSTORE SWAP2 PUSH1 0x20 ADD SWAP2 PUSH2 0x2D3F JUMP JUMPDEST DUP3 ADD SWAP2 SWAP1 PUSH1 0x0 MSTORE PUSH1 0x20 PUSH1 0x0 KECCAK256 SWAP1 JUMPDEST DUP2 SLOAD DUP2 MSTORE SWAP1 PUSH1 0x1 ADD SWAP1 PUSH1 0x20 ADD DUP1 DUP4 GT PUSH2 0x2D22 JUMPI DUP3 SWAP1 SUB PUSH1 0x1F AND DUP3 ADD SWAP2 JUMPDEST POP POP POP POP POP SWAP1 POP PUSH1 0x0 PUSH1 0x3 DUP2 GT ISZERO PUSH2 0x2D5A JUMPI PUSH2 0x2D59 PUSH2 0x5022 JUMP JUMPDEST JUMPDEST PUSH1 0x3 DUP3 PUSH1 0x40 MLOAD PUSH2 0x2D6A SWAP2 SWAP1 PUSH2 0x55BD JUMP JUMPDEST SWAP1 DUP2 MSTORE PUSH1 0x20 ADD PUSH1 0x40 MLOAD DUP1 SWAP2 SUB SWAP1 KECCAK256 PUSH1 0x0 SWAP1 SLOAD SWAP1 PUSH2 0x100 EXP SWAP1 DIV PUSH1 0xFF AND PUSH1 0x3 DUP2 GT ISZERO PUSH2 0x2D98 JUMPI PUSH2 0x2D97 PUSH2 0x5022 JUMP JUMPDEST JUMPDEST SUB PUSH2 0x2DCF JUMPI PUSH1 0x40 MLOAD PUSH32 0x8FA622F500000000000000000000000000000000000000000000000000000000 DUP2 MSTORE PUSH1 0x4 ADD PUSH1 0x40 MLOAD DUP1 SWAP2 SUB SWAP1 REVERT JUMPDEST PUSH1 0x2 PUSH1 0x3 DUP2 GT ISZERO PUSH2 0x2DE3 JUMPI PUSH2 0x2DE2 PUSH2 0x5022 JUMP JUMPDEST JUMPDEST PUSH1 0x3 DUP3 PUSH1 0x40 MLOAD PUSH2 0x2DF3 SWAP2 SWAP1 PUSH2 0x55BD JUMP JUMPDEST SWAP1 DUP2 MSTORE PUSH1 0x20 ADD PUSH1 0x40 MLOAD DUP1 SWAP2 SUB SWAP1 KECCAK256 PUSH1 0x0 SWAP1 SLOAD SWAP1 PUSH2 0x100 EXP SWAP1 DIV PUSH1 0xFF AND PUSH1 0x3 DUP2 GT ISZERO PUSH2 0x2E21 JUMPI PUSH2 0x2E20 PUSH2 0x5022 JUMP JUMPDEST JUMPDEST EQ PUSH2 0x2E58 JUMPI PUSH1 0x40 MLOAD PUSH32 0x8AC8E00B00000000000000000000000000000000000000000000000000000000 DUP2 MSTORE PUSH1 0x4 ADD PUSH1 0x40 MLOAD DUP1 SWAP2 SUB SWAP1 REVERT JUMPDEST DUP5 DUP5 PUSH1 0x0 PUSH1 0x1 DUP2 GT ISZERO PUSH2 0x2E6E JUMPI PUSH2 0x2E6D PUSH2 0x5022 JUMP JUMPDEST JUMPDEST PUSH1 0x8 DUP4 DUP4 PUSH1 0x40 MLOAD PUSH2 0x2E80 SWAP3 SWAP2 SWAP1 PUSH2 0x5513 JUMP JUMPDEST SWAP1 DUP2 MSTORE PUSH1 0x20 ADD PUSH1 0x40 MLOAD DUP1 SWAP2 SUB SWAP1 KECCAK256 PUSH1 0x0 SWAP1 SLOAD SWAP1 PUSH2 0x100 EXP SWAP1 DIV PUSH1 0xFF AND PUSH1 0x1 DUP2 GT ISZERO PUSH2 0x2EAE JUMPI PUSH2 0x2EAD PUSH2 0x5022 JUMP JUMPDEST JUMPDEST SUB PUSH2 0x2EE5 JUMPI PUSH1 0x40 MLOAD PUSH32 0x78DE8BF00000000000000000000000000000000000000000000000000000000 DUP2 MSTORE PUSH1 0x4 ADD PUSH1 0x40 MLOAD DUP1 SWAP2 SUB SWAP1 REVERT JUMPDEST PUSH1 0x0 PUSH1 0x1 PUSH1 0x0 CALLER PUSH20 0xFFFFFFFFFFFFFFFFFFFFFFFFFFFFFFFFFFFFFFFF AND PUSH20 0xFFFFFFFFFFFFFFFFFFFFFFFFFFFFFFFFFFFFFFFF AND DUP2 MSTORE PUSH1 0x20 ADD SWAP1 DUP2 MSTORE PUSH1 0x20 ADD PUSH1 0x0 KECCAK256 DUP1 SLOAD PUSH2 0x2F31 SWAP1 PUSH2 0x555B JUMP JUMPDEST DUP1 PUSH1 0x1F ADD PUSH1 0x20 DUP1 SWAP2 DIV MUL PUSH1 0x20 ADD PUSH1 0x40 MLOAD SWAP1 DUP2 ADD PUSH1 0x40 MSTORE DUP1 SWAP3 SWAP2 SWAP1 DUP2 DUP2 MSTORE PUSH1 0x20 ADD DUP3 DUP1 SLOAD PUSH2 0x2F5D SWAP1 PUSH2 0x555B JUMP JUMPDEST DUP1 ISZERO PUSH2 0x2FAA JUMPI DUP1 PUSH1 0x1F LT PUSH2 0x2F7F JUMPI PUSH2 0x100 DUP1 DUP4 SLOAD DIV MUL DUP4 MSTORE SWAP2 PUSH1 0x20 ADD SWAP2 PUSH2 0x2FAA JUMP JUMPDEST DUP3 ADD SWAP2 SWAP1 PUSH1 0x0 MSTORE PUSH1 0x20 PUSH1 0x0 KECCAK256 SWAP1 JUMPDEST DUP2 SLOAD DUP2 MSTORE SWAP1 PUSH1 0x1 ADD SWAP1 PUSH1 0x20 ADD DUP1 DUP4 GT PUSH2 0x2F8D JUMPI DUP3 SWAP1 SUB PUSH1 0x1F AND DUP3 ADD SWAP2 JUMPDEST POP POP POP POP POP SWAP1 POP PUSH1 0x0 PUSH1 0x9 DUP5 DUP5 PUSH1 0x40 MLOAD PUSH2 0x2FC5 SWAP3 SWAP2 SWAP1 PUSH2 0x5513 JUMP JUMPDEST SWAP1 DUP2 MSTORE PUSH1 0x20 ADD PUSH1 0x40 MLOAD DUP1 SWAP2 SUB SWAP1 KECCAK256 PUSH1 0x40 MLOAD PUSH2 0x2FDF SWAP1 PUSH2 0x56CF JUMP JUMPDEST SWAP1 DUP2 MSTORE PUSH1 0x20 ADD PUSH1 0x40 MLOAD DUP1 SWAP2 SUB SWAP1 KECCAK256 DUP1 SLOAD PUSH2 0x2FF8 SWAP1 PUSH2 0x555B JUMP JUMPDEST DUP1 PUSH1 0x1F ADD PUSH1 0x20 DUP1 SWAP2 DIV MUL PUSH1 0x20 ADD PUSH1 0x40 MLOAD SWAP1 DUP2 ADD PUSH1 0x40 MSTORE DUP1 SWAP3 SWAP2 SWAP1 DUP2 DUP2 MSTORE PUSH1 0x20 ADD DUP3 DUP1 SLOAD PUSH2 0x3024 SWAP1 PUSH2 0x555B JUMP JUMPDEST DUP1 ISZERO PUSH2 0x3071 JUMPI DUP1 PUSH1 0x1F LT PUSH2 0x3046 JUMPI PUSH2 0x100 DUP1 DUP4 SLOAD DIV MUL DUP4 MSTORE SWAP2 PUSH1 0x20 ADD SWAP2 PUSH2 0x3071 JUMP JUMPDEST DUP3 ADD SWAP2 SWAP1 PUSH1 0x0 MSTORE PUSH1 0x20 PUSH1 0x0 KECCAK256 SWAP1 JUMPDEST DUP2 SLOAD DUP2 MSTORE SWAP1 PUSH1 0x1 ADD SWAP1 PUSH1 0x20 ADD DUP1 DUP4 GT PUSH2 0x3054 JUMPI DUP3 SWAP1 SUB PUSH1 0x1F AND DUP3 ADD SWAP2 JUMPDEST POP POP POP POP POP SWAP1 POP DUP1 PUSH1 0x40 MLOAD PUSH1 0x20 ADD PUSH2 0x3089 SWAP2 SWAP1 PUSH2 0x55BD JUMP JUMPDEST PUSH1 0x40 MLOAD PUSH1 0x20 DUP2 DUP4 SUB SUB DUP2 MSTORE SWAP1 PUSH1 0x40 MSTORE DUP1 MLOAD SWAP1 PUSH1 0x20 ADD KECCAK256 DUP3 PUSH1 0x40 MLOAD PUSH1 0x20 ADD PUSH2 0x30B0 SWAP2 SWAP1 PUSH2 0x55BD JUMP JUMPDEST PUSH1 0x40 MLOAD PUSH1 0x20 DUP2 DUP4 SUB SUB DUP2 MSTORE SWAP1 PUSH1 0x40 MSTORE DUP1 MLOAD SWAP1 PUSH1 0x20 ADD KECCAK256 EQ PUSH2 0x30FD JUMPI PUSH1 0x40 MLOAD PUSH32 0xCA7B7FB200000000000000000000000000000000000000000000000000000000 DUP2 MSTORE PUSH1 0x4 ADD PUSH1 0x40 MLOAD DUP1 SWAP2 SUB SWAP1 REVERT JUMPDEST PUSH2 0x314E DUP10 DUP10 DUP1 DUP1 PUSH1 0x1F ADD PUSH1 0x20 DUP1 SWAP2 DIV MUL PUSH1 0x20 ADD PUSH1 0x40 MLOAD SWAP1 DUP2 ADD PUSH1 0x40 MSTORE DUP1 SWAP4 SWAP3 SWAP2 SWAP1 DUP2 DUP2 MSTORE PUSH1 0x20 ADD DUP4 DUP4 DUP1 DUP3 DUP5 CALLDATACOPY PUSH1 0x0 DUP2 DUP5 ADD MSTORE PUSH1 0x1F NOT PUSH1 0x1F DUP3 ADD AND SWAP1 POP DUP1 DUP4 ADD SWAP3 POP POP POP POP POP POP POP DUP9 DUP9 PUSH1 0x0 PUSH2 0x4615 JUMP JUMPDEST PUSH2 0x32A7 DUP10 DUP10 DUP1 DUP1 PUSH1 0x1F ADD PUSH1 0x20 DUP1 SWAP2 DIV MUL PUSH1 0x20 ADD PUSH1 0x40 MLOAD SWAP1 DUP2 ADD PUSH1 0x40 MSTORE DUP1 SWAP4 SWAP3 SWAP2 SWAP1 DUP2 DUP2 MSTORE PUSH1 0x20 ADD DUP4 DUP4 DUP1 DUP3 DUP5 CALLDATACOPY PUSH1 0x0 DUP2 DUP5 ADD MSTORE PUSH1 0x1F NOT PUSH1 0x1F DUP3 ADD AND SWAP1 POP DUP1 DUP4 ADD SWAP3 POP POP POP POP POP POP POP DUP9 DUP9 DUP1 DUP1 PUSH1 0x1F ADD PUSH1 0x20 DUP1 SWAP2 DIV MUL PUSH1 0x20 ADD PUSH1 0x40 MLOAD SWAP1 DUP2 ADD PUSH1 0x40 MSTORE DUP1 SWAP4 SWAP3 SWAP2 SWAP1 DUP2 DUP2 MSTORE PUSH1 0x20 ADD DUP4 DUP4 DUP1 DUP3 DUP5 CALLDATACOPY PUSH1 0x0 DUP2 DUP5 ADD MSTORE PUSH1 0x1F NOT PUSH1 0x1F DUP3 ADD AND SWAP1 POP DUP1 DUP4 ADD SWAP3 POP POP POP POP POP POP POP PUSH1 0xD DUP13 DUP13 PUSH1 0x40 MLOAD PUSH2 0x31ED SWAP3 SWAP2 SWAP1 PUSH2 0x5513 JUMP JUMPDEST SWAP1 DUP2 MSTORE PUSH1 0x20 ADD PUSH1 0x40 MLOAD DUP1 SWAP2 SUB SWAP1 KECCAK256 DUP11 DUP11 PUSH1 0x40 MLOAD PUSH2 0x320B SWAP3 SWAP2 SWAP1 PUSH2 0x5513 JUMP JUMPDEST SWAP1 DUP2 MSTORE PUSH1 0x20 ADD PUSH1 0x40 MLOAD DUP1 SWAP2 SUB SWAP1 KECCAK256 DUP1 SLOAD PUSH2 0x3224 SWAP1 PUSH2 0x555B JUMP JUMPDEST DUP1 PUSH1 0x1F ADD PUSH1 0x20 DUP1 SWAP2 DIV MUL PUSH1 0x20 ADD PUSH1 0x40 MLOAD SWAP1 DUP2 ADD PUSH1 0x40 MSTORE DUP1 SWAP3 SWAP2 SWAP1 DUP2 DUP2 MSTORE PUSH1 0x20 ADD DUP3 DUP1 SLOAD PUSH2 0x3250 SWAP1 PUSH2 0x555B JUMP JUMPDEST DUP1 ISZERO PUSH2 0x329D JUMPI DUP1 PUSH1 0x1F LT PUSH2 0x3272 JUMPI PUSH2 0x100 DUP1 DUP4 SLOAD DIV MUL DUP4 MSTORE SWAP2 PUSH1 0x20 ADD SWAP2 PUSH2 0x329D JUMP JUMPDEST DUP3 ADD SWAP2 SWAP1 PUSH1 0x0 MSTORE PUSH1 0x20 PUSH1 0x0 KECCAK256 SWAP1 JUMPDEST DUP2 SLOAD DUP2 MSTORE SWAP1 PUSH1 0x1 ADD SWAP1 PUSH1 0x20 ADD DUP1 DUP4 GT PUSH2 0x3280 JUMPI DUP3 SWAP1 SUB PUSH1 0x1F AND DUP3 ADD SWAP2 JUMPDEST POP POP POP POP POP PUSH2 0x4335 JUMP JUMPDEST POP POP POP POP POP POP POP POP POP JUMP JUMPDEST PUSH1 0x0 PUSH1 0x3 DUP4 DUP4 PUSH1 0x40 MLOAD PUSH2 0x32C6 SWAP3 SWAP2 SWAP1 PUSH2 0x5513 JUMP JUMPDEST SWAP1 DUP2 MSTORE PUSH1 0x20 ADD PUSH1 0x40 MLOAD DUP1 SWAP2 SUB SWAP1 KECCAK256 PUSH1 0x0 SWAP1 SLOAD SWAP1 PUSH2 0x100 EXP SWAP1 DIV PUSH1 0xFF AND SWAP1 POP SWAP3 SWAP2 POP POP JUMP JUMPDEST PUSH1 0x0 DUP1 SLOAD SWAP1 PUSH2 0x100 EXP SWAP1 DIV PUSH20 0xFFFFFFFFFFFFFFFFFFFFFFFFFFFFFFFFFFFFFFFF AND PUSH20 0xFFFFFFFFFFFFFFFFFFFFFFFFFFFFFFFFFFFFFFFF AND CALLER PUSH20 0xFFFFFFFFFFFFFFFFFFFFFFFFFFFFFFFFFFFFFFFF AND EQ PUSH2 0x336F JUMPI PUSH1 0x40 MLOAD PUSH32 0x2DCA963600000000000000000000000000000000000000000000000000000000 DUP2 MSTORE PUSH1 0x4 ADD PUSH1 0x40 MLOAD DUP1 SWAP2 SUB SWAP1 REVERT JUMPDEST PUSH1 0x0 PUSH1 0x3 DUP2 GT ISZERO PUSH2 0x3383 JUMPI PUSH2 0x3382 PUSH2 0x5022 JUMP JUMPDEST JUMPDEST PUSH1 0x3 DUP4 DUP4 PUSH1 0x40 MLOAD PUSH2 0x3395 SWAP3 SWAP2 SWAP1 PUSH2 0x5513 JUMP JUMPDEST SWAP1 DUP2 MSTORE PUSH1 0x20 ADD PUSH1 0x40 MLOAD DUP1 SWAP2 SUB SWAP1 KECCAK256 PUSH1 0x0 SWAP1 SLOAD SWAP1 PUSH2 0x100 EXP SWAP1 DIV PUSH1 0xFF AND PUSH1 0x3 DUP2 GT ISZERO PUSH2 0x33C3 JUMPI PUSH2 0x33C2 PUSH2 0x5022 JUMP JUMPDEST JUMPDEST SUB PUSH2 0x33FA JUMPI PUSH1 0x40 MLOAD PUSH32 0x567E9BE600000000000000000000000000000000000000000000000000000000 DUP2 MSTORE PUSH1 0x4 ADD PUSH1 0x40 MLOAD DUP1 SWAP2 SUB SWAP1 REVERT JUMPDEST PUSH1 0x2 PUSH1 0x3 DUP2 GT ISZERO PUSH2 0x340E JUMPI PUSH2 0x340D PUSH2 0x5022 JUMP JUMPDEST JUMPDEST PUSH1 0x3 DUP4 DUP4 PUSH1 0x40 MLOAD PUSH2 0x3420 SWAP3 SWAP2 SWAP1 PUSH2 0x5513 JUMP JUMPDEST SWAP1 DUP2 MSTORE PUSH1 0x20 ADD PUSH1 0x40 MLOAD DUP1 SWAP2 SUB SWAP1 KECCAK256 PUSH1 0x0 SWAP1 SLOAD SWAP1 PUSH2 0x100 EXP SWAP1 DIV PUSH1 0xFF AND PUSH1 0x3 DUP2 GT ISZERO PUSH2 0x344E JUMPI PUSH2 0x344D PUSH2 0x5022 JUMP JUMPDEST JUMPDEST SUB PUSH2 0x3485 JUMPI PUSH1 0x40 MLOAD PUSH32 0x61FD49DF00000000000000000000000000000000000000000000000000000000 DUP2 MSTORE PUSH1 0x4 ADD PUSH1 0x40 MLOAD DUP1 SWAP2 SUB SWAP1 REVERT JUMPDEST PUSH1 0x2 PUSH1 0x3 DUP4 DUP4 PUSH1 0x40 MLOAD PUSH2 0x3499 SWAP3 SWAP2 SWAP1 PUSH2 0x5513 JUMP JUMPDEST SWAP1 DUP2 MSTORE PUSH1 0x20 ADD PUSH1 0x40 MLOAD DUP1 SWAP2 SUB SWAP1 KECCAK256 PUSH1 0x0 PUSH2 0x100 EXP DUP2 SLOAD DUP2 PUSH1 0xFF MUL NOT AND SWAP1 DUP4 PUSH1 0x3 DUP2 GT ISZERO PUSH2 0x34C9 JUMPI PUSH2 0x34C8 PUSH2 0x5022 JUMP JUMPDEST JUMPDEST MUL OR SWAP1 SSTORE POP POP POP JUMP JUMPDEST PUSH1 0x0 DUP1 PUSH1 0x1 PUSH1 0x0 CALLER PUSH20 0xFFFFFFFFFFFFFFFFFFFFFFFFFFFFFFFFFFFFFFFF AND PUSH20 0xFFFFFFFFFFFFFFFFFFFFFFFFFFFFFFFFFFFFFFFF AND DUP2 MSTORE PUSH1 0x20 ADD SWAP1 DUP2 MSTORE PUSH1 0x20 ADD PUSH1 0x0 KECCAK256 DUP1 SLOAD PUSH2 0x351F SWAP1 PUSH2 0x555B JUMP JUMPDEST DUP1 PUSH1 0x1F ADD PUSH1 0x20 DUP1 SWAP2 DIV MUL PUSH1 0x20 ADD PUSH1 0x40 MLOAD SWAP1 DUP2 ADD PUSH1 0x40 MSTORE DUP1 SWAP3 SWAP2 SWAP1 DUP2 DUP2 MSTORE PUSH1 0x20 ADD DUP3 DUP1 SLOAD PUSH2 0x354B SWAP1 PUSH2 0x555B JUMP JUMPDEST DUP1 ISZERO PUSH2 0x3598 JUMPI DUP1 PUSH1 0x1F LT PUSH2 0x356D JUMPI PUSH2 0x100 DUP1 DUP4 SLOAD DIV MUL DUP4 MSTORE SWAP2 PUSH1 0x20 ADD SWAP2 PUSH2 0x3598 JUMP JUMPDEST DUP3 ADD SWAP2 SWAP1 PUSH1 0x0 MSTORE PUSH1 0x20 PUSH1 0x0 KECCAK256 SWAP1 JUMPDEST DUP2 SLOAD DUP2 MSTORE SWAP1 PUSH1 0x1 ADD SWAP1 PUSH1 0x20 ADD DUP1 DUP4 GT PUSH2 0x357B JUMPI DUP3 SWAP1 SUB PUSH1 0x1F AND DUP3 ADD SWAP2 JUMPDEST POP POP POP POP POP SWAP1 POP PUSH1 0x0 PUSH1 0x3 DUP2 GT ISZERO PUSH2 0x35B3 JUMPI PUSH2 0x35B2 PUSH2 0x5022 JUMP JUMPDEST JUMPDEST PUSH1 0x3 DUP3 PUSH1 0x40 MLOAD PUSH2 0x35C3 SWAP2 SWAP1 PUSH2 0x55BD JUMP JUMPDEST SWAP1 DUP2 MSTORE PUSH1 0x20 ADD PUSH1 0x40 MLOAD DUP1 SWAP2 SUB SWAP1 KECCAK256 PUSH1 0x0 SWAP1 SLOAD SWAP1 PUSH2 0x100 EXP SWAP1 DIV PUSH1 0xFF AND PUSH1 0x3 DUP2 GT ISZERO PUSH2 0x35F1 JUMPI PUSH2 0x35F0 PUSH2 0x5022 JUMP JUMPDEST JUMPDEST SUB PUSH2 0x3628 JUMPI PUSH1 0x40 MLOAD PUSH32 0x8FA622F500000000000000000000000000000000000000000000000000000000 DUP2 MSTORE PUSH1 0x4 ADD PUSH1 0x40 MLOAD DUP1 SWAP2 SUB SWAP1 REVERT JUMPDEST PUSH1 0x2 PUSH1 0x3 DUP2 GT ISZERO PUSH2 0x363C JUMPI PUSH2 0x363B PUSH2 0x5022 JUMP JUMPDEST JUMPDEST PUSH1 0x3 DUP3 PUSH1 0x40 MLOAD PUSH2 0x364C SWAP2 SWAP1 PUSH2 0x55BD JUMP JUMPDEST SWAP1 DUP2 MSTORE PUSH1 0x20 ADD PUSH1 0x40 MLOAD DUP1 SWAP2 SUB SWAP1 KECCAK256 PUSH1 0x0 SWAP1 SLOAD SWAP1 PUSH2 0x100 EXP SWAP1 DIV PUSH1 0xFF AND PUSH1 0x3 DUP2 GT ISZERO PUSH2 0x367A JUMPI PUSH2 0x3679 PUSH2 0x5022 JUMP JUMPDEST JUMPDEST EQ PUSH2 0x36B1 JUMPI PUSH1 0x40 MLOAD PUSH32 0x8AC8E00B00000000000000000000000000000000000000000000000000000000 DUP2 MSTORE PUSH1 0x4 ADD PUSH1 0x40 MLOAD DUP1 SWAP2 SUB SWAP1 REVERT JUMPDEST DUP6 DUP6 PUSH1 0x0 PUSH1 0x1 DUP2 GT ISZERO PUSH2 0x36C7 JUMPI PUSH2 0x36C6 PUSH2 0x5022 JUMP JUMPDEST JUMPDEST PUSH1 0x8 DUP4 DUP4 PUSH1 0x40 MLOAD PUSH2 0x36D9 SWAP3 SWAP2 SWAP1 PUSH2 0x5513 JUMP JUMPDEST SWAP1 DUP2 MSTORE PUSH1 0x20 ADD PUSH1 0x40 MLOAD DUP1 SWAP2 SUB SWAP1 KECCAK256 PUSH1 0x0 SWAP1 SLOAD SWAP1 PUSH2 0x100 EXP SWAP1 DIV PUSH1 0xFF AND PUSH1 0x1 DUP2 GT ISZERO PUSH2 0x3707 JUMPI PUSH2 0x3706 PUSH2 0x5022 JUMP JUMPDEST JUMPDEST SUB PUSH2 0x373E JUMPI PUSH1 0x40 MLOAD PUSH32 0x78DE8BF00000000000000000000000000000000000000000000000000000000 DUP2 MSTORE PUSH1 0x4 ADD PUSH1 0x40 MLOAD DUP1 SWAP2 SUB SWAP1 REVERT JUMPDEST PUSH1 0x0 PUSH1 0x1 PUSH1 0x0 CALLER PUSH20 0xFFFFFFFFFFFFFFFFFFFFFFFFFFFFFFFFFFFFFFFF AND PUSH20 0xFFFFFFFFFFFFFFFFFFFFFFFFFFFFFFFFFFFFFFFF AND DUP2 MSTORE PUSH1 0x20 ADD SWAP1 DUP2 MSTORE PUSH1 0x20 ADD PUSH1 0x0 KECCAK256 DUP1 SLOAD PUSH2 0x378A SWAP1 PUSH2 0x555B JUMP JUMPDEST DUP1 PUSH1 0x1F ADD PUSH1 0x20 DUP1 SWAP2 DIV MUL PUSH1 0x20 ADD PUSH1 0x40 MLOAD SWAP1 DUP2 ADD PUSH1 0x40 MSTORE DUP1 SWAP3 SWAP2 SWAP1 DUP2 DUP2 MSTORE PUSH1 0x20 ADD DUP3 DUP1 SLOAD PUSH2 0x37B6 SWAP1 PUSH2 0x555B JUMP JUMPDEST DUP1 ISZERO PUSH2 0x3803 JUMPI DUP1 PUSH1 0x1F LT PUSH2 0x37D8 JUMPI PUSH2 0x100 DUP1 DUP4 SLOAD DIV MUL DUP4 MSTORE SWAP2 PUSH1 0x20 ADD SWAP2 PUSH2 0x3803 JUMP JUMPDEST DUP3 ADD SWAP2 SWAP1 PUSH1 0x0 MSTORE PUSH1 0x20 PUSH1 0x0 KECCAK256 SWAP1 JUMPDEST DUP2 SLOAD DUP2 MSTORE SWAP1 PUSH1 0x1 ADD SWAP1 PUSH1 0x20 ADD DUP1 DUP4 GT PUSH2 0x37E6 JUMPI DUP3 SWAP1 SUB PUSH1 0x1F AND DUP3 ADD SWAP2 JUMPDEST POP POP POP POP POP SWAP1 POP PUSH1 0x0 PUSH1 0x9 DUP5 DUP5 PUSH1 0x40 MLOAD PUSH2 0x381E SWAP3 SWAP2 SWAP1 PUSH2 0x5513 JUMP JUMPDEST SWAP1 DUP2 MSTORE PUSH1 0x20 ADD PUSH1 0x40 MLOAD DUP1 SWAP2 SUB SWAP1 KECCAK256 PUSH1 0x40 MLOAD PUSH2 0x3838 SWAP1 PUSH2 0x56CF JUMP JUMPDEST SWAP1 DUP2 MSTORE PUSH1 0x20 ADD PUSH1 0x40 MLOAD DUP1 SWAP2 SUB SWAP1 KECCAK256 DUP1 SLOAD PUSH2 0x3851 SWAP1 PUSH2 0x555B JUMP JUMPDEST DUP1 PUSH1 0x1F ADD PUSH1 0x20 DUP1 SWAP2 DIV MUL PUSH1 0x20 ADD PUSH1 0x40 MLOAD SWAP1 DUP2 ADD PUSH1 0x40 MSTORE DUP1 SWAP3 SWAP2 SWAP1 DUP2 DUP2 MSTORE PUSH1 0x20 ADD DUP3 DUP1 SLOAD PUSH2 0x387D SWAP1 PUSH2 0x555B JUMP JUMPDEST DUP1 ISZERO PUSH2 0x38CA JUMPI DUP1 PUSH1 0x1F LT PUSH2 0x389F JUMPI PUSH2 0x100 DUP1 DUP4 SLOAD DIV MUL DUP4 MSTORE SWAP2 PUSH1 0x20 ADD SWAP2 PUSH2 0x38CA JUMP JUMPDEST DUP3 ADD SWAP2 SWAP1 PUSH1 0x0 MSTORE PUSH1 0x20 PUSH1 0x0 KECCAK256 SWAP1 JUMPDEST DUP2 SLOAD DUP2 MSTORE SWAP1 PUSH1 0x1 ADD SWAP1 PUSH1 0x20 ADD DUP1 DUP4 GT PUSH2 0x38AD JUMPI DUP3 SWAP1 SUB PUSH1 0x1F AND DUP3 ADD SWAP2 JUMPDEST POP POP POP POP POP SWAP1 POP DUP1 PUSH1 0x40 MLOAD PUSH1 0x20 ADD PUSH2 0x38E2 SWAP2 SWAP1 PUSH2 0x55BD JUMP JUMPDEST PUSH1 0x40 MLOAD PUSH1 0x20 DUP2 DUP4 SUB SUB DUP2 MSTORE SWAP1 PUSH1 0x40 MSTORE DUP1 MLOAD SWAP1 PUSH1 0x20 ADD KECCAK256 DUP3 PUSH1 0x40 MLOAD PUSH1 0x20 ADD PUSH2 0x3909 SWAP2 SWAP1 PUSH2 0x55BD JUMP JUMPDEST PUSH1 0x40 MLOAD PUSH1 0x20 DUP2 DUP4 SUB SUB DUP2 MSTORE SWAP1 PUSH1 0x40 MSTORE DUP1 MLOAD SWAP1 PUSH1 0x20 ADD KECCAK256 EQ PUSH2 0x3956 JUMPI PUSH1 0x40 MLOAD PUSH32 0xCA7B7FB200000000000000000000000000000000000000000000000000000000 DUP2 MSTORE PUSH1 0x4 ADD PUSH1 0x40 MLOAD DUP1 SWAP2 SUB SWAP1 REVERT JUMPDEST PUSH1 0xC DUP11 DUP11 PUSH1 0x40 MLOAD PUSH2 0x3968 SWAP3 SWAP2 SWAP1 PUSH2 0x5513 JUMP JUMPDEST SWAP1 DUP2 MSTORE PUSH1 0x20 ADD PUSH1 0x40 MLOAD DUP1 SWAP2 SUB SWAP1 KECCAK256 DUP9 DUP9 PUSH1 0x40 MLOAD PUSH2 0x3986 SWAP3 SWAP2 SWAP1 PUSH2 0x5513 JUMP JUMPDEST SWAP1 DUP2 MSTORE PUSH1 0x20 ADD PUSH1 0x40 MLOAD DUP1 SWAP2 SUB SWAP1 KECCAK256 PUSH1 0x0 SWAP1 SLOAD SWAP1 PUSH2 0x100 EXP SWAP1 DIV PUSH1 0xFF AND SWAP6 POP POP POP POP POP POP SWAP5 SWAP4 POP POP POP POP JUMP JUMPDEST PUSH1 0x0 PUSH1 0x6 PUSH1 0x0 CALLER PUSH20 0xFFFFFFFFFFFFFFFFFFFFFFFFFFFFFFFFFFFFFFFF AND PUSH20 0xFFFFFFFFFFFFFFFFFFFFFFFFFFFFFFFFFFFFFFFF AND DUP2 MSTORE PUSH1 0x20 ADD SWAP1 DUP2 MSTORE PUSH1 0x20 ADD PUSH1 0x0 KECCAK256 DUP1 SLOAD PUSH2 0x39FD SWAP1 PUSH2 0x555B JUMP JUMPDEST DUP1 PUSH1 0x1F ADD PUSH1 0x20 DUP1 SWAP2 DIV MUL PUSH1 0x20 ADD PUSH1 0x40 MLOAD SWAP1 DUP2 ADD PUSH1 0x40 MSTORE DUP1 SWAP3 SWAP2 SWAP1 DUP2 DUP2 MSTORE PUSH1 0x20 ADD DUP3 DUP1 SLOAD PUSH2 0x3A29 SWAP1 PUSH2 0x555B JUMP JUMPDEST DUP1 ISZERO PUSH2 0x3A76 JUMPI DUP1 PUSH1 0x1F LT PUSH2 0x3A4B JUMPI PUSH2 0x100 DUP1 DUP4 SLOAD DIV MUL DUP4 MSTORE SWAP2 PUSH1 0x20 ADD SWAP2 PUSH2 0x3A76 JUMP JUMPDEST DUP3 ADD SWAP2 SWAP1 PUSH1 0x0 MSTORE PUSH1 0x20 PUSH1 0x0 KECCAK256 SWAP1 JUMPDEST DUP2 SLOAD DUP2 MSTORE SWAP1 PUSH1 0x1 ADD SWAP1 PUSH1 0x20 ADD DUP1 DUP4 GT PUSH2 0x3A59 JUMPI DUP3 SWAP1 SUB PUSH1 0x1F AND DUP3 ADD SWAP2 JUMPDEST POP POP POP POP POP SWAP1 POP PUSH1 0x0 PUSH1 0x1 DUP2 GT ISZERO PUSH2 0x3A91 JUMPI PUSH2 0x3A90 PUSH2 0x5022 JUMP JUMPDEST JUMPDEST PUSH1 0x8 DUP3 PUSH1 0x40 MLOAD PUSH2 0x3AA1 SWAP2 SWAP1 PUSH2 0x55BD JUMP JUMPDEST SWAP1 DUP2 MSTORE PUSH1 0x20 ADD PUSH1 0x40 MLOAD DUP1 SWAP2 SUB SWAP1 KECCAK256 PUSH1 0x0 SWAP1 SLOAD SWAP1 PUSH2 0x100 EXP SWAP1 DIV PUSH1 0xFF AND PUSH1 0x1 DUP2 GT ISZERO PUSH2 0x3ACF JUMPI PUSH2 0x3ACE PUSH2 0x5022 JUMP JUMPDEST JUMPDEST SUB PUSH2 0x3B06 JUMPI PUSH1 0x40 MLOAD PUSH32 0x78DE8BF00000000000000000000000000000000000000000000000000000000 DUP2 MSTORE PUSH1 0x4 ADD PUSH1 0x40 MLOAD DUP1 SWAP2 SUB SWAP1 REVERT JUMPDEST DUP3 DUP3 SWAP1 POP DUP6 DUP6 SWAP1 POP EQ PUSH2 0x3B45 JUMPI PUSH1 0x40 MLOAD PUSH32 0x79B3F46F00000000000000000000000000000000000000000000000000000000 DUP2 MSTORE PUSH1 0x4 ADD PUSH1 0x40 MLOAD DUP1 SWAP2 SUB SWAP1 REVERT JUMPDEST PUSH1 0x0 PUSH1 0x6 PUSH1 0x0 CALLER PUSH20 0xFFFFFFFFFFFFFFFFFFFFFFFFFFFFFFFFFFFFFFFF AND PUSH20 0xFFFFFFFFFFFFFFFFFFFFFFFFFFFFFFFFFFFFFFFF AND DUP2 MSTORE PUSH1 0x20 ADD SWAP1 DUP2 MSTORE PUSH1 0x20 ADD PUSH1 0x0 KECCAK256 DUP1 SLOAD PUSH2 0x3B91 SWAP1 PUSH2 0x555B JUMP JUMPDEST DUP1 PUSH1 0x1F ADD PUSH1 0x20 DUP1 SWAP2 DIV MUL PUSH1 0x20 ADD PUSH1 0x40 MLOAD SWAP1 DUP2 ADD PUSH1 0x40 MSTORE DUP1 SWAP3 SWAP2 SWAP1 DUP2 DUP2 MSTORE PUSH1 0x20 ADD DUP3 DUP1 SLOAD PUSH2 0x3BBD SWAP1 PUSH2 0x555B JUMP JUMPDEST DUP1 ISZERO PUSH2 0x3C0A JUMPI DUP1 PUSH1 0x1F LT PUSH2 0x3BDF JUMPI PUSH2 0x100 DUP1 DUP4 SLOAD DIV MUL DUP4 MSTORE SWAP2 PUSH1 0x20 ADD SWAP2 PUSH2 0x3C0A JUMP JUMPDEST DUP3 ADD SWAP2 SWAP1 PUSH1 0x0 MSTORE PUSH1 0x20 PUSH1 0x0 KECCAK256 SWAP1 JUMPDEST DUP2 SLOAD DUP2 MSTORE SWAP1 PUSH1 0x1 ADD SWAP1 PUSH1 0x20 ADD DUP1 DUP4 GT PUSH2 0x3BED JUMPI DUP3 SWAP1 SUB PUSH1 0x1F AND DUP3 ADD SWAP2 JUMPDEST POP POP POP POP POP SWAP1 POP PUSH1 0x0 JUMPDEST DUP7 DUP7 SWAP1 POP DUP2 LT ISZERO PUSH2 0x3D0D JUMPI DUP5 DUP5 DUP3 DUP2 DUP2 LT PUSH2 0x3C32 JUMPI PUSH2 0x3C31 PUSH2 0x5957 JUMP JUMPDEST JUMPDEST SWAP1 POP PUSH1 0x20 MUL ADD PUSH1 0x20 DUP2 ADD SWAP1 PUSH2 0x3C47 SWAP2 SWAP1 PUSH2 0x5B4A JUMP JUMPDEST PUSH1 0xE PUSH1 0x0 DUP11 PUSH20 0xFFFFFFFFFFFFFFFFFFFFFFFFFFFFFFFFFFFFFFFF AND PUSH20 0xFFFFFFFFFFFFFFFFFFFFFFFFFFFFFFFFFFFFFFFF AND DUP2 MSTORE PUSH1 0x20 ADD SWAP1 DUP2 MSTORE PUSH1 0x20 ADD PUSH1 0x0 KECCAK256 DUP4 PUSH1 0x40 MLOAD PUSH2 0x3C94 SWAP2 SWAP1 PUSH2 0x55BD JUMP JUMPDEST SWAP1 DUP2 MSTORE PUSH1 0x20 ADD PUSH1 0x40 MLOAD DUP1 SWAP2 SUB SWAP1 KECCAK256 DUP9 DUP9 DUP5 DUP2 DUP2 LT PUSH2 0x3CB5 JUMPI PUSH2 0x3CB4 PUSH2 0x5957 JUMP JUMPDEST JUMPDEST SWAP1 POP PUSH1 0x20 MUL DUP2 ADD SWAP1 PUSH2 0x3CC7 SWAP2 SWAP1 PUSH2 0x5995 JUMP JUMPDEST PUSH1 0x40 MLOAD PUSH2 0x3CD5 SWAP3 SWAP2 SWAP1 PUSH2 0x5513 JUMP JUMPDEST SWAP1 DUP2 MSTORE PUSH1 0x20 ADD PUSH1 0x40 MLOAD DUP1 SWAP2 SUB SWAP1 KECCAK256 PUSH1 0x0 PUSH2 0x100 EXP DUP2 SLOAD DUP2 PUSH1 0xFF MUL NOT AND SWAP1 DUP4 ISZERO ISZERO MUL OR SWAP1 SSTORE POP DUP1 DUP1 PUSH2 0x3D05 SWAP1 PUSH2 0x5A27 JUMP JUMPDEST SWAP2 POP POP PUSH2 0x3C14 JUMP JUMPDEST POP POP POP POP POP POP POP POP JUMP JUMPDEST PUSH1 0x60 PUSH1 0xA DUP4 DUP4 PUSH1 0x40 MLOAD PUSH2 0x3D2B SWAP3 SWAP2 SWAP1 PUSH2 0x5513 JUMP JUMPDEST SWAP1 DUP2 MSTORE PUSH1 0x20 ADD PUSH1 0x40 MLOAD DUP1 SWAP2 SUB SWAP1 KECCAK256 DUP1 SLOAD DUP1 PUSH1 0x20 MUL PUSH1 0x20 ADD PUSH1 0x40 MLOAD SWAP1 DUP2 ADD PUSH1 0x40 MSTORE DUP1 SWAP3 SWAP2 SWAP1 DUP2 DUP2 MSTORE PUSH1 0x20 ADD PUSH1 0x0 SWAP1 JUMPDEST DUP3 DUP3 LT ISZERO PUSH2 0x3E05 JUMPI DUP4 DUP3 SWAP1 PUSH1 0x0 MSTORE PUSH1 0x20 PUSH1 0x0 KECCAK256 ADD DUP1 SLOAD PUSH2 0x3D78 SWAP1 PUSH2 0x555B JUMP JUMPDEST DUP1 PUSH1 0x1F ADD PUSH1 0x20 DUP1 SWAP2 DIV MUL PUSH1 0x20 ADD PUSH1 0x40 MLOAD SWAP1 DUP2 ADD PUSH1 0x40 MSTORE DUP1 SWAP3 SWAP2 SWAP1 DUP2 DUP2 MSTORE PUSH1 0x20 ADD DUP3 DUP1 SLOAD PUSH2 0x3DA4 SWAP1 PUSH2 0x555B JUMP JUMPDEST DUP1 ISZERO PUSH2 0x3DF1 JUMPI DUP1 PUSH1 0x1F LT PUSH2 0x3DC6 JUMPI PUSH2 0x100 DUP1 DUP4 SLOAD DIV MUL DUP4 MSTORE SWAP2 PUSH1 0x20 ADD SWAP2 PUSH2 0x3DF1 JUMP JUMPDEST DUP3 ADD SWAP2 SWAP1 PUSH1 0x0 MSTORE PUSH1 0x20 PUSH1 0x0 KECCAK256 SWAP1 JUMPDEST DUP2 SLOAD DUP2 MSTORE SWAP1 PUSH1 0x1 ADD SWAP1 PUSH1 0x20 ADD DUP1 DUP4 GT PUSH2 0x3DD4 JUMPI DUP3 SWAP1 SUB PUSH1 0x1F AND DUP3 ADD SWAP2 JUMPDEST POP POP POP POP POP DUP2 MSTORE PUSH1 0x20 ADD SWAP1 PUSH1 0x1 ADD SWAP1 PUSH2 0x3D59 JUMP JUMPDEST POP POP POP POP SWAP1 POP SWAP3 SWAP2 POP POP JUMP JUMPDEST PUSH1 0x0 PUSH1 0x1 PUSH1 0x0 CALLER PUSH20 0xFFFFFFFFFFFFFFFFFFFFFFFFFFFFFFFFFFFFFFFF AND PUSH20 0xFFFFFFFFFFFFFFFFFFFFFFFFFFFFFFFFFFFFFFFF AND DUP2 MSTORE PUSH1 0x20 ADD SWAP1 DUP2 MSTORE PUSH1 0x20 ADD PUSH1 0x0 KECCAK256 DUP1 SLOAD PUSH2 0x3E5D SWAP1 PUSH2 0x555B JUMP JUMPDEST DUP1 PUSH1 0x1F ADD PUSH1 0x20 DUP1 SWAP2 DIV MUL PUSH1 0x20 ADD PUSH1 0x40 MLOAD SWAP1 DUP2 ADD PUSH1 0x40 MSTORE DUP1 SWAP3 SWAP2 SWAP1 DUP2 DUP2 MSTORE PUSH1 0x20 ADD DUP3 DUP1 SLOAD PUSH2 0x3E89 SWAP1 PUSH2 0x555B JUMP JUMPDEST DUP1 ISZERO PUSH2 0x3ED6 JUMPI DUP1 PUSH1 0x1F LT PUSH2 0x3EAB JUMPI PUSH2 0x100 DUP1 DUP4 SLOAD DIV MUL DUP4 MSTORE SWAP2 PUSH1 0x20 ADD SWAP2 PUSH2 0x3ED6 JUMP JUMPDEST DUP3 ADD SWAP2 SWAP1 PUSH1 0x0 MSTORE PUSH1 0x20 PUSH1 0x0 KECCAK256 SWAP1 JUMPDEST DUP2 SLOAD DUP2 MSTORE SWAP1 PUSH1 0x1 ADD SWAP1 PUSH1 0x20 ADD DUP1 DUP4 GT PUSH2 0x3EB9 JUMPI DUP3 SWAP1 SUB PUSH1 0x1F AND DUP3 ADD SWAP2 JUMPDEST POP POP POP POP POP SWAP1 POP PUSH1 0x0 PUSH1 0x3 DUP2 GT ISZERO PUSH2 0x3EF1 JUMPI PUSH2 0x3EF0 PUSH2 0x5022 JUMP JUMPDEST JUMPDEST PUSH1 0x3 DUP3 PUSH1 0x40 MLOAD PUSH2 0x3F01 SWAP2 SWAP1 PUSH2 0x55BD JUMP JUMPDEST SWAP1 DUP2 MSTORE PUSH1 0x20 ADD PUSH1 0x40 MLOAD DUP1 SWAP2 SUB SWAP1 KECCAK256 PUSH1 0x0 SWAP1 SLOAD SWAP1 PUSH2 0x100 EXP SWAP1 DIV PUSH1 0xFF AND PUSH1 0x3 DUP2 GT ISZERO PUSH2 0x3F2F JUMPI PUSH2 0x3F2E PUSH2 0x5022 JUMP JUMPDEST JUMPDEST SUB PUSH2 0x3F66 JUMPI PUSH1 0x40 MLOAD PUSH32 0x8FA622F500000000000000000000000000000000000000000000000000000000 DUP2 MSTORE PUSH1 0x4 ADD PUSH1 0x40 MLOAD DUP1 SWAP2 SUB SWAP1 REVERT JUMPDEST PUSH1 0x2 PUSH1 0x3 DUP2 GT ISZERO PUSH2 0x3F7A JUMPI PUSH2 0x3F79 PUSH2 0x5022 JUMP JUMPDEST JUMPDEST PUSH1 0x3 DUP3 PUSH1 0x40 MLOAD PUSH2 0x3F8A SWAP2 SWAP1 PUSH2 0x55BD JUMP JUMPDEST SWAP1 DUP2 MSTORE PUSH1 0x20 ADD PUSH1 0x40 MLOAD DUP1 SWAP2 SUB SWAP1 KECCAK256 PUSH1 0x0 SWAP1 SLOAD SWAP1 PUSH2 0x100 EXP SWAP1 DIV PUSH1 0xFF AND PUSH1 0x3 DUP2 GT ISZERO PUSH2 0x3FB8 JUMPI PUSH2 0x3FB7 PUSH2 0x5022 JUMP JUMPDEST JUMPDEST EQ PUSH2 0x3FEF JUMPI PUSH1 0x40 MLOAD PUSH32 0x8AC8E00B00000000000000000000000000000000000000000000000000000000 DUP2 MSTORE PUSH1 0x4 ADD PUSH1 0x40 MLOAD DUP1 SWAP2 SUB SWAP1 REVERT JUMPDEST DUP6 DUP6 PUSH1 0x0 PUSH1 0x1 DUP2 GT ISZERO PUSH2 0x4005 JUMPI PUSH2 0x4004 PUSH2 0x5022 JUMP JUMPDEST JUMPDEST PUSH1 0x8 DUP4 DUP4 PUSH1 0x40 MLOAD PUSH2 0x4017 SWAP3 SWAP2 SWAP1 PUSH2 0x5513 JUMP JUMPDEST SWAP1 DUP2 MSTORE PUSH1 0x20 ADD PUSH1 0x40 MLOAD DUP1 SWAP2 SUB SWAP1 KECCAK256 PUSH1 0x0 SWAP1 SLOAD SWAP1 PUSH2 0x100 EXP SWAP1 DIV PUSH1 0xFF AND PUSH1 0x1 DUP2 GT ISZERO PUSH2 0x4045 JUMPI PUSH2 0x4044 PUSH2 0x5022 JUMP JUMPDEST JUMPDEST SUB PUSH2 0x407C JUMPI PUSH1 0x40 MLOAD PUSH32 0x78DE8BF00000000000000000000000000000000000000000000000000000000 DUP2 MSTORE PUSH1 0x4 ADD PUSH1 0x40 MLOAD DUP1 SWAP2 SUB SWAP1 REVERT JUMPDEST PUSH1 0x0 PUSH1 0x1 PUSH1 0x0 CALLER PUSH20 0xFFFFFFFFFFFFFFFFFFFFFFFFFFFFFFFFFFFFFFFF AND PUSH20 0xFFFFFFFFFFFFFFFFFFFFFFFFFFFFFFFFFFFFFFFF AND DUP2 MSTORE PUSH1 0x20 ADD SWAP1 DUP2 MSTORE PUSH1 0x20 ADD PUSH1 0x0 KECCAK256 DUP1 SLOAD PUSH2 0x40C8 SWAP1 PUSH2 0x555B JUMP JUMPDEST DUP1 PUSH1 0x1F ADD PUSH1 0x20 DUP1 SWAP2 DIV MUL PUSH1 0x20 ADD PUSH1 0x40 MLOAD SWAP1 DUP2 ADD PUSH1 0x40 MSTORE DUP1 SWAP3 SWAP2 SWAP1 DUP2 DUP2 MSTORE PUSH1 0x20 ADD DUP3 DUP1 SLOAD PUSH2 0x40F4 SWAP1 PUSH2 0x555B JUMP JUMPDEST DUP1 ISZERO PUSH2 0x4141 JUMPI DUP1 PUSH1 0x1F LT PUSH2 0x4116 JUMPI PUSH2 0x100 DUP1 DUP4 SLOAD DIV MUL DUP4 MSTORE SWAP2 PUSH1 0x20 ADD SWAP2 PUSH2 0x4141 JUMP JUMPDEST DUP3 ADD SWAP2 SWAP1 PUSH1 0x0 MSTORE PUSH1 0x20 PUSH1 0x0 KECCAK256 SWAP1 JUMPDEST DUP2 SLOAD DUP2 MSTORE SWAP1 PUSH1 0x1 ADD SWAP1 PUSH1 0x20 ADD DUP1 DUP4 GT PUSH2 0x4124 JUMPI DUP3 SWAP1 SUB PUSH1 0x1F AND DUP3 ADD SWAP2 JUMPDEST POP POP POP POP POP SWAP1 POP PUSH1 0x0 PUSH1 0x9 DUP5 DUP5 PUSH1 0x40 MLOAD PUSH2 0x415C SWAP3 SWAP2 SWAP1 PUSH2 0x5513 JUMP JUMPDEST SWAP1 DUP2 MSTORE PUSH1 0x20 ADD PUSH1 0x40 MLOAD DUP1 SWAP2 SUB SWAP1 KECCAK256 PUSH1 0x40 MLOAD PUSH2 0x4176 SWAP1 PUSH2 0x56CF JUMP JUMPDEST SWAP1 DUP2 MSTORE PUSH1 0x20 ADD PUSH1 0x40 MLOAD DUP1 SWAP2 SUB SWAP1 KECCAK256 DUP1 SLOAD PUSH2 0x418F SWAP1 PUSH2 0x555B JUMP JUMPDEST DUP1 PUSH1 0x1F ADD PUSH1 0x20 DUP1 SWAP2 DIV MUL PUSH1 0x20 ADD PUSH1 0x40 MLOAD SWAP1 DUP2 ADD PUSH1 0x40 MSTORE DUP1 SWAP3 SWAP2 SWAP1 DUP2 DUP2 MSTORE PUSH1 0x20 ADD DUP3 DUP1 SLOAD PUSH2 0x41BB SWAP1 PUSH2 0x555B JUMP JUMPDEST DUP1 ISZERO PUSH2 0x4208 JUMPI DUP1 PUSH1 0x1F LT PUSH2 0x41DD JUMPI PUSH2 0x100 DUP1 DUP4 SLOAD DIV MUL DUP4 MSTORE SWAP2 PUSH1 0x20 ADD SWAP2 PUSH2 0x4208 JUMP JUMPDEST DUP3 ADD SWAP2 SWAP1 PUSH1 0x0 MSTORE PUSH1 0x20 PUSH1 0x0 KECCAK256 SWAP1 JUMPDEST DUP2 SLOAD DUP2 MSTORE SWAP1 PUSH1 0x1 ADD SWAP1 PUSH1 0x20 ADD DUP1 DUP4 GT PUSH2 0x41EB JUMPI DUP3 SWAP1 SUB PUSH1 0x1F AND DUP3 ADD SWAP2 JUMPDEST POP POP POP POP POP SWAP1 POP DUP1 PUSH1 0x40 MLOAD PUSH1 0x20 ADD PUSH2 0x4220 SWAP2 SWAP1 PUSH2 0x55BD JUMP JUMPDEST PUSH1 0x40 MLOAD PUSH1 0x20 DUP2 DUP4 SUB SUB DUP2 MSTORE SWAP1 PUSH1 0x40 MSTORE DUP1 MLOAD SWAP1 PUSH1 0x20 ADD KECCAK256 DUP3 PUSH1 0x40 MLOAD PUSH1 0x20 ADD PUSH2 0x4247 SWAP2 SWAP1 PUSH2 0x55BD JUMP JUMPDEST PUSH1 0x40 MLOAD PUSH1 0x20 DUP2 DUP4 SUB SUB DUP2 MSTORE SWAP1 PUSH1 0x40 MSTORE DUP1 MLOAD SWAP1 PUSH1 0x20 ADD KECCAK256 EQ PUSH2 0x4294 JUMPI PUSH1 0x40 MLOAD PUSH32 0xCA7B7FB200000000000000000000000000000000000000000000000000000000 DUP2 MSTORE PUSH1 0x4 ADD PUSH1 0x40 MLOAD DUP1 SWAP2 SUB SWAP1 REVERT JUMPDEST DUP6 PUSH1 0xB DUP12 DUP12 PUSH1 0x40 MLOAD PUSH2 0x42A7 SWAP3 SWAP2 SWAP1 PUSH2 0x5513 JUMP JUMPDEST SWAP1 DUP2 MSTORE PUSH1 0x20 ADD PUSH1 0x40 MLOAD DUP1 SWAP2 SUB SWAP1 KECCAK256 DUP10 DUP10 PUSH1 0x40 MLOAD PUSH2 0x42C5 SWAP3 SWAP2 SWAP1 PUSH2 0x5513 JUMP JUMPDEST SWAP1 DUP2 MSTORE PUSH1 0x20 ADD PUSH1 0x40 MLOAD DUP1 SWAP2 SUB SWAP1 KECCAK256 PUSH1 0x0 PUSH2 0x100 EXP DUP2 SLOAD DUP2 PUSH1 0xFF MUL NOT AND SWAP1 DUP4 ISZERO ISZERO MUL OR SWAP1 SSTORE POP POP POP POP POP POP POP POP POP POP POP JUMP JUMPDEST PUSH1 0x60 PUSH2 0x432E DUP3 TIMESTAMP DIFFICULTY PUSH1 0x40 MLOAD PUSH1 0x20 ADD PUSH2 0x4310 SWAP4 SWAP3 SWAP2 SWAP1 PUSH2 0x5BE0 JUMP JUMPDEST PUSH1 0x40 MLOAD PUSH1 0x20 DUP2 DUP4 SUB SUB DUP2 MSTORE SWAP1 PUSH1 0x40 MSTORE DUP1 MLOAD SWAP1 PUSH1 0x20 ADD KECCAK256 PUSH1 0x0 SHR PUSH2 0x467F JUMP JUMPDEST SWAP1 POP SWAP2 SWAP1 POP JUMP JUMPDEST PUSH1 0x0 PUSH1 0x9 DUP5 PUSH1 0x40 MLOAD PUSH2 0x4347 SWAP2 SWAP1 PUSH2 0x55BD JUMP JUMPDEST SWAP1 DUP2 MSTORE PUSH1 0x20 ADD PUSH1 0x40 MLOAD DUP1 SWAP2 SUB SWAP1 KECCAK256 DUP4 PUSH1 0x40 MLOAD PUSH2 0x4363 SWAP2 SWAP1 PUSH2 0x55BD JUMP JUMPDEST SWAP1 DUP2 MSTORE PUSH1 0x20 ADD PUSH1 0x40 MLOAD DUP1 SWAP2 SUB SWAP1 KECCAK256 DUP1 SLOAD PUSH2 0x437C SWAP1 PUSH2 0x555B JUMP JUMPDEST DUP1 PUSH1 0x1F ADD PUSH1 0x20 DUP1 SWAP2 DIV MUL PUSH1 0x20 ADD PUSH1 0x40 MLOAD SWAP1 DUP2 ADD PUSH1 0x40 MSTORE DUP1 SWAP3 SWAP2 SWAP1 DUP2 DUP2 MSTORE PUSH1 0x20 ADD DUP3 DUP1 SLOAD PUSH2 0x43A8 SWAP1 PUSH2 0x555B JUMP JUMPDEST DUP1 ISZERO PUSH2 0x43F5 JUMPI DUP1 PUSH1 0x1F LT PUSH2 0x43CA JUMPI PUSH2 0x100 DUP1 DUP4 SLOAD DIV MUL DUP4 MSTORE SWAP2 PUSH1 0x20 ADD SWAP2 PUSH2 0x43F5 JUMP JUMPDEST DUP3 ADD SWAP2 SWAP1 PUSH1 0x0 MSTORE PUSH1 0x20 PUSH1 0x0 KECCAK256 SWAP1 JUMPDEST DUP2 SLOAD DUP2 MSTORE SWAP1 PUSH1 0x1 ADD SWAP1 PUSH1 0x20 ADD DUP1 DUP4 GT PUSH2 0x43D8 JUMPI DUP3 SWAP1 SUB PUSH1 0x1F AND DUP3 ADD SWAP2 JUMPDEST POP POP POP POP POP SWAP1 POP PUSH1 0x0 DUP2 MLOAD SUB PUSH2 0x4457 JUMPI PUSH1 0xA DUP5 PUSH1 0x40 MLOAD PUSH2 0x4415 SWAP2 SWAP1 PUSH2 0x55BD JUMP JUMPDEST SWAP1 DUP2 MSTORE PUSH1 0x20 ADD PUSH1 0x40 MLOAD DUP1 SWAP2 SUB SWAP1 KECCAK256 DUP4 SWAP1 DUP1 PUSH1 0x1 DUP2 SLOAD ADD DUP1 DUP3 SSTORE DUP1 SWAP2 POP POP PUSH1 0x1 SWAP1 SUB SWAP1 PUSH1 0x0 MSTORE PUSH1 0x20 PUSH1 0x0 KECCAK256 ADD PUSH1 0x0 SWAP1 SWAP2 SWAP1 SWAP2 SWAP1 SWAP2 POP SWAP1 DUP2 PUSH2 0x4455 SWAP2 SWAP1 PUSH2 0x5885 JUMP JUMPDEST POP JUMPDEST DUP2 PUSH1 0x9 DUP6 PUSH1 0x40 MLOAD PUSH2 0x4468 SWAP2 SWAP1 PUSH2 0x55BD JUMP JUMPDEST SWAP1 DUP2 MSTORE PUSH1 0x20 ADD PUSH1 0x40 MLOAD DUP1 SWAP2 SUB SWAP1 KECCAK256 DUP5 PUSH1 0x40 MLOAD PUSH2 0x4484 SWAP2 SWAP1 PUSH2 0x55BD JUMP JUMPDEST SWAP1 DUP2 MSTORE PUSH1 0x20 ADD PUSH1 0x40 MLOAD DUP1 SWAP2 SUB SWAP1 KECCAK256 SWAP1 DUP2 PUSH2 0x449E SWAP2 SWAP1 PUSH2 0x5885 JUMP JUMPDEST POP POP POP POP POP JUMP JUMPDEST PUSH1 0x0 PUSH1 0x4 DUP5 PUSH1 0x40 MLOAD PUSH2 0x44B7 SWAP2 SWAP1 PUSH2 0x55BD JUMP JUMPDEST SWAP1 DUP2 MSTORE PUSH1 0x20 ADD PUSH1 0x40 MLOAD DUP1 SWAP2 SUB SWAP1 KECCAK256 DUP4 PUSH1 0x40 MLOAD PUSH2 0x44D3 SWAP2 SWAP1 PUSH2 0x55BD JUMP JUMPDEST SWAP1 DUP2 MSTORE PUSH1 0x20 ADD PUSH1 0x40 MLOAD DUP1 SWAP2 SUB SWAP1 KECCAK256 DUP1 SLOAD PUSH2 0x44EC SWAP1 PUSH2 0x555B JUMP JUMPDEST DUP1 PUSH1 0x1F ADD PUSH1 0x20 DUP1 SWAP2 DIV MUL PUSH1 0x20 ADD PUSH1 0x40 MLOAD SWAP1 DUP2 ADD PUSH1 0x40 MSTORE DUP1 SWAP3 SWAP2 SWAP1 DUP2 DUP2 MSTORE PUSH1 0x20 ADD DUP3 DUP1 SLOAD PUSH2 0x4518 SWAP1 PUSH2 0x555B JUMP JUMPDEST DUP1 ISZERO PUSH2 0x4565 JUMPI DUP1 PUSH1 0x1F LT PUSH2 0x453A JUMPI PUSH2 0x100 DUP1 DUP4 SLOAD DIV MUL DUP4 MSTORE SWAP2 PUSH1 0x20 ADD SWAP2 PUSH2 0x4565 JUMP JUMPDEST DUP3 ADD SWAP2 SWAP1 PUSH1 0x0 MSTORE PUSH1 0x20 PUSH1 0x0 KECCAK256 SWAP1 JUMPDEST DUP2 SLOAD DUP2 MSTORE SWAP1 PUSH1 0x1 ADD SWAP1 PUSH1 0x20 ADD DUP1 DUP4 GT PUSH2 0x4548 JUMPI DUP3 SWAP1 SUB PUSH1 0x1F AND DUP3 ADD SWAP2 JUMPDEST POP POP POP POP POP SWAP1 POP PUSH1 0x0 DUP2 MLOAD SUB PUSH2 0x45C7 JUMPI PUSH1 0x5 DUP5 PUSH1 0x40 MLOAD PUSH2 0x4585 SWAP2 SWAP1 PUSH2 0x55BD JUMP JUMPDEST SWAP1 DUP2 MSTORE PUSH1 0x20 ADD PUSH1 0x40 MLOAD DUP1 SWAP2 SUB SWAP1 KECCAK256 DUP4 SWAP1 DUP1 PUSH1 0x1 DUP2 SLOAD ADD DUP1 DUP3 SSTORE DUP1 SWAP2 POP POP PUSH1 0x1 SWAP1 SUB SWAP1 PUSH1 0x0 MSTORE PUSH1 0x20 PUSH1 0x0 KECCAK256 ADD PUSH1 0x0 SWAP1 SWAP2 SWAP1 SWAP2 SWAP1 SWAP2 POP SWAP1 DUP2 PUSH2 0x45C5 SWAP2 SWAP1 PUSH2 0x5885 JUMP JUMPDEST POP JUMPDEST DUP2 PUSH1 0x4 DUP6 PUSH1 0x40 MLOAD PUSH2 0x45D8 SWAP2 SWAP1 PUSH2 0x55BD JUMP JUMPDEST SWAP1 DUP2 MSTORE PUSH1 0x20 ADD PUSH1 0x40 MLOAD DUP1 SWAP2 SUB SWAP1 KECCAK256 DUP5 PUSH1 0x40 MLOAD PUSH2 0x45F4 SWAP2 SWAP1 PUSH2 0x55BD JUMP JUMPDEST SWAP1 DUP2 MSTORE PUSH1 0x20 ADD PUSH1 0x40 MLOAD DUP1 SWAP2 SUB SWAP1 KECCAK256 SWAP1 DUP2 PUSH2 0x460E SWAP2 SWAP1 PUSH2 0x5885 JUMP JUMPDEST POP POP POP POP POP JUMP JUMPDEST DUP1 PUSH1 0xC DUP6 PUSH1 0x40 MLOAD PUSH2 0x4626 SWAP2 SWAP1 PUSH2 0x55BD JUMP JUMPDEST SWAP1 DUP2 MSTORE PUSH1 0x20 ADD PUSH1 0x40 MLOAD DUP1 SWAP2 SUB SWAP1 KECCAK256 DUP5 DUP5 PUSH1 0x40 MLOAD PUSH2 0x4644 SWAP3 SWAP2 SWAP1 PUSH2 0x5513 JUMP JUMPDEST SWAP1 DUP2 MSTORE PUSH1 0x20 ADD PUSH1 0x40 MLOAD DUP1 SWAP2 SUB SWAP1 KECCAK256 PUSH1 0x0 PUSH2 0x100 EXP DUP2 SLOAD DUP2 PUSH1 0xFF MUL NOT AND SWAP1 DUP4 PUSH1 0x2 DUP2 GT ISZERO PUSH2 0x4674 JUMPI PUSH2 0x4673 PUSH2 0x5022 JUMP JUMPDEST JUMPDEST MUL OR SWAP1 SSTORE POP POP POP POP POP JUMP JUMPDEST PUSH1 0x60 PUSH2 0x4696 DUP3 PUSH1 0x1 PUSH2 0x4690 DUP6 PUSH2 0x469D JUMP JUMPDEST ADD PUSH2 0x472D JUMP JUMPDEST SWAP1 POP SWAP2 SWAP1 POP JUMP JUMPDEST PUSH1 0x0 DUP1 PUSH1 0x0 SWAP1 POP PUSH1 0x0 PUSH1 0x80 DUP5 SWAP1 SHR GT ISZERO PUSH2 0x46BF JUMPI PUSH1 0x80 DUP4 SWAP1 SHR SWAP3 POP PUSH1 0x10 DUP2 ADD SWAP1 POP JUMPDEST PUSH1 0x0 PUSH1 0x40 DUP5 SWAP1 SHR GT ISZERO PUSH2 0x46DA JUMPI PUSH1 0x40 DUP4 SWAP1 SHR SWAP3 POP PUSH1 0x8 DUP2 ADD SWAP1 POP JUMPDEST PUSH1 0x0 PUSH1 0x20 DUP5 SWAP1 SHR GT ISZERO PUSH2 0x46F5 JUMPI PUSH1 0x20 DUP4 SWAP1 SHR SWAP3 POP PUSH1 0x4 DUP2 ADD SWAP1 POP JUMPDEST PUSH1 0x0 PUSH1 0x10 DUP5 SWAP1 SHR GT ISZERO PUSH2 0x4710 JUMPI PUSH1 0x10 DUP4 SWAP1 SHR SWAP3 POP PUSH1 0x2 DUP2 ADD SWAP1 POP JUMPDEST PUSH1 0x0 PUSH1 0x8 DUP5 SWAP1 SHR GT ISZERO PUSH2 0x4724 JUMPI PUSH1 0x1 DUP2 ADD SWAP1 POP JUMPDEST DUP1 SWAP2 POP POP SWAP2 SWAP1 POP JUMP JUMPDEST PUSH1 0x60 PUSH1 0x0 PUSH1 0x2 DUP4 PUSH1 0x2 PUSH2 0x4740 SWAP2 SWAP1 PUSH2 0x5C1D JUMP JUMPDEST PUSH2 0x474A SWAP2 SWAP1 PUSH2 0x5C5F JUMP JUMPDEST PUSH8 0xFFFFFFFFFFFFFFFF DUP2 GT ISZERO PUSH2 0x4763 JUMPI PUSH2 0x4762 PUSH2 0x4C84 JUMP JUMPDEST JUMPDEST PUSH1 0x40 MLOAD SWAP1 DUP1 DUP3 MSTORE DUP1 PUSH1 0x1F ADD PUSH1 0x1F NOT AND PUSH1 0x20 ADD DUP3 ADD PUSH1 0x40 MSTORE DUP1 ISZERO PUSH2 0x4795 JUMPI DUP2 PUSH1 0x20 ADD PUSH1 0x1 DUP3 MUL DUP1 CALLDATASIZE DUP4 CALLDATACOPY DUP1 DUP3 ADD SWAP2 POP POP SWAP1 POP JUMPDEST POP SWAP1 POP PUSH32 0x3000000000000000000000000000000000000000000000000000000000000000 DUP2 PUSH1 0x0 DUP2 MLOAD DUP2 LT PUSH2 0x47CD JUMPI PUSH2 0x47CC PUSH2 0x5957 JUMP JUMPDEST JUMPDEST PUSH1 0x20 ADD ADD SWAP1 PUSH31 0xFFFFFFFFFFFFFFFFFFFFFFFFFFFFFFFFFFFFFFFFFFFFFFFFFFFFFFFFFFFFFF NOT AND SWAP1 DUP2 PUSH1 0x0 BYTE SWAP1 MSTORE8 POP PUSH32 0x7800000000000000000000000000000000000000000000000000000000000000 DUP2 PUSH1 0x1 DUP2 MLOAD DUP2 LT PUSH2 0x4831 JUMPI PUSH2 0x4830 PUSH2 0x5957 JUMP JUMPDEST JUMPDEST PUSH1 0x20 ADD ADD SWAP1 PUSH31 0xFFFFFFFFFFFFFFFFFFFFFFFFFFFFFFFFFFFFFFFFFFFFFFFFFFFFFFFFFFFFFF NOT AND SWAP1 DUP2 PUSH1 0x0 BYTE SWAP1 MSTORE8 POP PUSH1 0x0 PUSH1 0x1 DUP5 PUSH1 0x2 PUSH2 0x4871 SWAP2 SWAP1 PUSH2 0x5C1D JUMP JUMPDEST PUSH2 0x487B SWAP2 SWAP1 PUSH2 0x5C5F JUMP JUMPDEST SWAP1 POP JUMPDEST PUSH1 0x1 DUP2 GT ISZERO PUSH2 0x491B JUMPI PUSH32 0x3031323334353637383961626364656600000000000000000000000000000000 PUSH1 0xF DUP7 AND PUSH1 0x10 DUP2 LT PUSH2 0x48BD JUMPI PUSH2 0x48BC PUSH2 0x5957 JUMP JUMPDEST JUMPDEST BYTE PUSH1 0xF8 SHL DUP3 DUP3 DUP2 MLOAD DUP2 LT PUSH2 0x48D4 JUMPI PUSH2 0x48D3 PUSH2 0x5957 JUMP JUMPDEST JUMPDEST PUSH1 0x20 ADD ADD SWAP1 PUSH31 0xFFFFFFFFFFFFFFFFFFFFFFFFFFFFFFFFFFFFFFFFFFFFFFFFFFFFFFFFFFFFFF NOT AND SWAP1 DUP2 PUSH1 0x0 BYTE SWAP1 MSTORE8 POP PUSH1 0x4 DUP6 SWAP1 SHR SWAP5 POP DUP1 PUSH2 0x4914 SWAP1 PUSH2 0x5C93 JUMP JUMPDEST SWAP1 POP PUSH2 0x487E JUMP JUMPDEST POP PUSH1 0x0 DUP5 EQ PUSH2 0x495F JUMPI PUSH1 0x40 MLOAD PUSH32 0x8C379A000000000000000000000000000000000000000000000000000000000 DUP2 MSTORE PUSH1 0x4 ADD PUSH2 0x4956 SWAP1 PUSH2 0x5D08 JUMP JUMPDEST PUSH1 0x40 MLOAD DUP1 SWAP2 SUB SWAP1 REVERT JUMPDEST DUP1 SWAP2 POP POP SWAP3 SWAP2 POP POP JUMP JUMPDEST PUSH1 0x0 PUSH1 0x40 MLOAD SWAP1 POP SWAP1 JUMP JUMPDEST PUSH1 0x0 DUP1 REVERT JUMPDEST PUSH1 0x0 DUP1 REVERT JUMPDEST PUSH1 0x0 PUSH20 0xFFFFFFFFFFFFFFFFFFFFFFFFFFFFFFFFFFFFFFFF DUP3 AND SWAP1 POP SWAP2 SWAP1 POP JUMP JUMPDEST PUSH1 0x0 PUSH2 0x49A8 DUP3 PUSH2 0x497D JUMP JUMPDEST SWAP1 POP SWAP2 SWAP1 POP JUMP JUMPDEST PUSH2 0x49B8 DUP2 PUSH2 0x499D JUMP JUMPDEST DUP2 EQ PUSH2 0x49C3 JUMPI PUSH1 0x0 DUP1 REVERT JUMPDEST POP JUMP JUMPDEST PUSH1 0x0 DUP2 CALLDATALOAD SWAP1 POP PUSH2 0x49D5 DUP2 PUSH2 0x49AF JUMP JUMPDEST SWAP3 SWAP2 POP POP JUMP JUMPDEST PUSH1 0x0 DUP1 REVERT JUMPDEST PUSH1 0x0 DUP1 REVERT JUMPDEST PUSH1 0x0 DUP1 REVERT JUMPDEST PUSH1 0x0 DUP1 DUP4 PUSH1 0x1F DUP5 ADD SLT PUSH2 0x4A00 JUMPI PUSH2 0x49FF PUSH2 0x49DB JUMP JUMPDEST JUMPDEST DUP3 CALLDATALOAD SWAP1 POP PUSH8 0xFFFFFFFFFFFFFFFF DUP2 GT ISZERO PUSH2 0x4A1D JUMPI PUSH2 0x4A1C PUSH2 0x49E0 JUMP JUMPDEST JUMPDEST PUSH1 0x20 DUP4 ADD SWAP2 POP DUP4 PUSH1 0x1 DUP3 MUL DUP4 ADD GT ISZERO PUSH2 0x4A39 JUMPI PUSH2 0x4A38 PUSH2 0x49E5 JUMP JUMPDEST JUMPDEST SWAP3 POP SWAP3 SWAP1 POP JUMP JUMPDEST PUSH1 0x0 DUP1 PUSH1 0x0 DUP1 PUSH1 0x0 PUSH1 0x60 DUP7 DUP9 SUB SLT ISZERO PUSH2 0x4A5C JUMPI PUSH2 0x4A5B PUSH2 0x4973 JUMP JUMPDEST JUMPDEST PUSH1 0x0 PUSH2 0x4A6A DUP9 DUP3 DUP10 ADD PUSH2 0x49C6 JUMP JUMPDEST SWAP6 POP POP PUSH1 0x20 DUP7 ADD CALLDATALOAD PUSH8 0xFFFFFFFFFFFFFFFF DUP2 GT ISZERO PUSH2 0x4A8B JUMPI PUSH2 0x4A8A PUSH2 0x4978 JUMP JUMPDEST JUMPDEST PUSH2 0x4A97 DUP9 DUP3 DUP10 ADD PUSH2 0x49EA JUMP JUMPDEST SWAP5 POP SWAP5 POP POP PUSH1 0x40 DUP7 ADD CALLDATALOAD PUSH8 0xFFFFFFFFFFFFFFFF DUP2 GT ISZERO PUSH2 0x4ABA JUMPI PUSH2 0x4AB9 PUSH2 0x4978 JUMP JUMPDEST JUMPDEST PUSH2 0x4AC6 DUP9 DUP3 DUP10 ADD PUSH2 0x49EA JUMP JUMPDEST SWAP3 POP SWAP3 POP POP SWAP3 SWAP6 POP SWAP3 SWAP6 SWAP1 SWAP4 POP JUMP JUMPDEST PUSH1 0x0 DUP2 ISZERO ISZERO SWAP1 POP SWAP2 SWAP1 POP JUMP JUMPDEST PUSH2 0x4AEA DUP2 PUSH2 0x4AD5 JUMP JUMPDEST DUP3 MSTORE POP POP JUMP JUMPDEST PUSH1 0x0 PUSH1 0x20 DUP3 ADD SWAP1 POP PUSH2 0x4B05 PUSH1 0x0 DUP4 ADD DUP5 PUSH2 0x4AE1 JUMP JUMPDEST SWAP3 SWAP2 POP POP JUMP JUMPDEST PUSH1 0x0 DUP2 MLOAD SWAP1 POP SWAP2 SWAP1 POP JUMP JUMPDEST PUSH1 0x0 DUP3 DUP3 MSTORE PUSH1 0x20 DUP3 ADD SWAP1 POP SWAP3 SWAP2 POP POP JUMP JUMPDEST PUSH1 0x0 DUP2 SWAP1 POP PUSH1 0x20 DUP3 ADD SWAP1 POP SWAP2 SWAP1 POP JUMP JUMPDEST PUSH1 0x0 DUP2 MLOAD SWAP1 POP SWAP2 SWAP1 POP JUMP JUMPDEST PUSH1 0x0 DUP3 DUP3 MSTORE PUSH1 0x20 DUP3 ADD SWAP1 POP SWAP3 SWAP2 POP POP JUMP JUMPDEST PUSH1 0x0 JUMPDEST DUP4 DUP2 LT ISZERO PUSH2 0x4B71 JUMPI DUP1 DUP3 ADD MLOAD DUP2 DUP5 ADD MSTORE PUSH1 0x20 DUP2 ADD SWAP1 POP PUSH2 0x4B56 JUMP JUMPDEST PUSH1 0x0 DUP5 DUP5 ADD MSTORE POP POP POP POP JUMP JUMPDEST PUSH1 0x0 PUSH1 0x1F NOT PUSH1 0x1F DUP4 ADD AND SWAP1 POP SWAP2 SWAP1 POP JUMP JUMPDEST PUSH1 0x0 PUSH2 0x4B99 DUP3 PUSH2 0x4B37 JUMP JUMPDEST PUSH2 0x4BA3 DUP2 DUP6 PUSH2 0x4B42 JUMP JUMPDEST SWAP4 POP PUSH2 0x4BB3 DUP2 DUP6 PUSH1 0x20 DUP7 ADD PUSH2 0x4B53 JUMP JUMPDEST PUSH2 0x4BBC DUP2 PUSH2 0x4B7D JUMP JUMPDEST DUP5 ADD SWAP2 POP POP SWAP3 SWAP2 POP POP JUMP JUMPDEST PUSH1 0x0 PUSH2 0x4BD3 DUP4 DUP4 PUSH2 0x4B8E JUMP JUMPDEST SWAP1 POP SWAP3 SWAP2 POP POP JUMP JUMPDEST PUSH1 0x0 PUSH1 0x20 DUP3 ADD SWAP1 POP SWAP2 SWAP1 POP JUMP JUMPDEST PUSH1 0x0 PUSH2 0x4BF3 DUP3 PUSH2 0x4B0B JUMP JUMPDEST PUSH2 0x4BFD DUP2 DUP6 PUSH2 0x4B16 JUMP JUMPDEST SWAP4 POP DUP4 PUSH1 0x20 DUP3 MUL DUP6 ADD PUSH2 0x4C0F DUP6 PUSH2 0x4B27 JUMP JUMPDEST DUP1 PUSH1 0x0 JUMPDEST DUP6 DUP2 LT ISZERO PUSH2 0x4C4B JUMPI DUP5 DUP5 SUB DUP10 MSTORE DUP2 MLOAD PUSH2 0x4C2C DUP6 DUP3 PUSH2 0x4BC7 JUMP JUMPDEST SWAP5 POP PUSH2 0x4C37 DUP4 PUSH2 0x4BDB JUMP JUMPDEST SWAP3 POP PUSH1 0x20 DUP11 ADD SWAP10 POP POP PUSH1 0x1 DUP2 ADD SWAP1 POP PUSH2 0x4C13 JUMP JUMPDEST POP DUP3 SWAP8 POP DUP8 SWAP6 POP POP POP POP POP POP SWAP3 SWAP2 POP POP JUMP JUMPDEST PUSH1 0x0 PUSH1 0x20 DUP3 ADD SWAP1 POP DUP2 DUP2 SUB PUSH1 0x0 DUP4 ADD MSTORE PUSH2 0x4C77 DUP2 DUP5 PUSH2 0x4BE8 JUMP JUMPDEST SWAP1 POP SWAP3 SWAP2 POP POP JUMP JUMPDEST PUSH1 0x0 DUP1 REVERT JUMPDEST PUSH32 0x4E487B7100000000000000000000000000000000000000000000000000000000 PUSH1 0x0 MSTORE PUSH1 0x41 PUSH1 0x4 MSTORE PUSH1 0x24 PUSH1 0x0 REVERT JUMPDEST PUSH2 0x4CBC DUP3 PUSH2 0x4B7D JUMP JUMPDEST DUP2 ADD DUP2 DUP2 LT PUSH8 0xFFFFFFFFFFFFFFFF DUP3 GT OR ISZERO PUSH2 0x4CDB JUMPI PUSH2 0x4CDA PUSH2 0x4C84 JUMP JUMPDEST JUMPDEST DUP1 PUSH1 0x40 MSTORE POP POP POP JUMP JUMPDEST PUSH1 0x0 PUSH2 0x4CEE PUSH2 0x4969 JUMP JUMPDEST SWAP1 POP PUSH2 0x4CFA DUP3 DUP3 PUSH2 0x4CB3 JUMP JUMPDEST SWAP2 SWAP1 POP JUMP JUMPDEST PUSH1 0x0 PUSH8 0xFFFFFFFFFFFFFFFF DUP3 GT ISZERO PUSH2 0x4D1A JUMPI PUSH2 0x4D19 PUSH2 0x4C84 JUMP JUMPDEST JUMPDEST PUSH2 0x4D23 DUP3 PUSH2 0x4B7D JUMP JUMPDEST SWAP1 POP PUSH1 0x20 DUP2 ADD SWAP1 POP SWAP2 SWAP1 POP JUMP JUMPDEST DUP3 DUP2 DUP4 CALLDATACOPY PUSH1 0x0 DUP4 DUP4 ADD MSTORE POP POP POP JUMP JUMPDEST PUSH1 0x0 PUSH2 0x4D52 PUSH2 0x4D4D DUP5 PUSH2 0x4CFF JUMP JUMPDEST PUSH2 0x4CE4 JUMP JUMPDEST SWAP1 POP DUP3 DUP2 MSTORE PUSH1 0x20 DUP2 ADD DUP5 DUP5 DUP5 ADD GT ISZERO PUSH2 0x4D6E JUMPI PUSH2 0x4D6D PUSH2 0x4C7F JUMP JUMPDEST JUMPDEST PUSH2 0x4D79 DUP5 DUP3 DUP6 PUSH2 0x4D30 JUMP JUMPDEST POP SWAP4 SWAP3 POP POP POP JUMP JUMPDEST PUSH1 0x0 DUP3 PUSH1 0x1F DUP4 ADD SLT PUSH2 0x4D96 JUMPI PUSH2 0x4D95 PUSH2 0x49DB JUMP JUMPDEST JUMPDEST DUP2 CALLDATALOAD PUSH2 0x4DA6 DUP5 DUP3 PUSH1 0x20 DUP7 ADD PUSH2 0x4D3F JUMP JUMPDEST SWAP2 POP POP SWAP3 SWAP2 POP POP JUMP JUMPDEST PUSH1 0x0 DUP1 PUSH1 0x40 DUP4 DUP6 SUB SLT ISZERO PUSH2 0x4DC6 JUMPI PUSH2 0x4DC5 PUSH2 0x4973 JUMP JUMPDEST JUMPDEST PUSH1 0x0 DUP4 ADD CALLDATALOAD PUSH8 0xFFFFFFFFFFFFFFFF DUP2 GT ISZERO PUSH2 0x4DE4 JUMPI PUSH2 0x4DE3 PUSH2 0x4978 JUMP JUMPDEST JUMPDEST PUSH2 0x4DF0 DUP6 DUP3 DUP7 ADD PUSH2 0x4D81 JUMP JUMPDEST SWAP3 POP POP PUSH1 0x20 DUP4 ADD CALLDATALOAD PUSH8 0xFFFFFFFFFFFFFFFF DUP2 GT ISZERO PUSH2 0x4E11 JUMPI PUSH2 0x4E10 PUSH2 0x4978 JUMP JUMPDEST JUMPDEST PUSH2 0x4E1D DUP6 DUP3 DUP7 ADD PUSH2 0x4D81 JUMP JUMPDEST SWAP2 POP POP SWAP3 POP SWAP3 SWAP1 POP JUMP JUMPDEST PUSH1 0x0 DUP1 PUSH1 0x20 DUP4 DUP6 SUB SLT ISZERO PUSH2 0x4E3E JUMPI PUSH2 0x4E3D PUSH2 0x4973 JUMP JUMPDEST JUMPDEST PUSH1 0x0 DUP4 ADD CALLDATALOAD PUSH8 0xFFFFFFFFFFFFFFFF DUP2 GT ISZERO PUSH2 0x4E5C JUMPI PUSH2 0x4E5B PUSH2 0x4978 JUMP JUMPDEST JUMPDEST PUSH2 0x4E68 DUP6 DUP3 DUP7 ADD PUSH2 0x49EA JUMP JUMPDEST SWAP3 POP SWAP3 POP POP SWAP3 POP SWAP3 SWAP1 POP JUMP JUMPDEST PUSH2 0x4E7D DUP2 PUSH2 0x4AD5 JUMP JUMPDEST DUP2 EQ PUSH2 0x4E88 JUMPI PUSH1 0x0 DUP1 REVERT JUMPDEST POP JUMP JUMPDEST PUSH1 0x0 DUP2 CALLDATALOAD SWAP1 POP PUSH2 0x4E9A DUP2 PUSH2 0x4E74 JUMP JUMPDEST SWAP3 SWAP2 POP POP JUMP JUMPDEST PUSH1 0x0 DUP1 PUSH1 0x0 DUP1 PUSH1 0x0 PUSH1 0x60 DUP7 DUP9 SUB SLT ISZERO PUSH2 0x4EBC JUMPI PUSH2 0x4EBB PUSH2 0x4973 JUMP JUMPDEST JUMPDEST PUSH1 0x0 DUP7 ADD CALLDATALOAD PUSH8 0xFFFFFFFFFFFFFFFF DUP2 GT ISZERO PUSH2 0x4EDA JUMPI PUSH2 0x4ED9 PUSH2 0x4978 JUMP JUMPDEST JUMPDEST PUSH2 0x4EE6 DUP9 DUP3 DUP10 ADD PUSH2 0x49EA JUMP JUMPDEST SWAP6 POP SWAP6 POP POP PUSH1 0x20 DUP7 ADD CALLDATALOAD PUSH8 0xFFFFFFFFFFFFFFFF DUP2 GT ISZERO PUSH2 0x4F09 JUMPI PUSH2 0x4F08 PUSH2 0x4978 JUMP JUMPDEST JUMPDEST PUSH2 0x4F15 DUP9 DUP3 DUP10 ADD PUSH2 0x49EA JUMP JUMPDEST SWAP4 POP SWAP4 POP POP PUSH1 0x40 PUSH2 0x4F28 DUP9 DUP3 DUP10 ADD PUSH2 0x4E8B JUMP JUMPDEST SWAP2 POP POP SWAP3 SWAP6 POP SWAP3 SWAP6 SWAP1 SWAP4 POP JUMP JUMPDEST PUSH1 0x0 DUP3 DUP3 MSTORE PUSH1 0x20 DUP3 ADD SWAP1 POP SWAP3 SWAP2 POP POP JUMP JUMPDEST PUSH1 0x0 PUSH2 0x4F51 DUP3 PUSH2 0x4B37 JUMP JUMPDEST PUSH2 0x4F5B DUP2 DUP6 PUSH2 0x4F35 JUMP JUMPDEST SWAP4 POP PUSH2 0x4F6B DUP2 DUP6 PUSH1 0x20 DUP7 ADD PUSH2 0x4B53 JUMP JUMPDEST PUSH2 0x4F74 DUP2 PUSH2 0x4B7D JUMP JUMPDEST DUP5 ADD SWAP2 POP POP SWAP3 SWAP2 POP POP JUMP JUMPDEST PUSH1 0x0 PUSH1 0x20 DUP3 ADD SWAP1 POP DUP2 DUP2 SUB PUSH1 0x0 DUP4 ADD MSTORE PUSH2 0x4F99 DUP2 DUP5 PUSH2 0x4F46 JUMP JUMPDEST SWAP1 POP SWAP3 SWAP2 POP POP JUMP JUMPDEST PUSH1 0x0 DUP1 PUSH1 0x0 DUP1 PUSH1 0x40 DUP6 DUP8 SUB SLT ISZERO PUSH2 0x4FBB JUMPI PUSH2 0x4FBA PUSH2 0x4973 JUMP JUMPDEST JUMPDEST PUSH1 0x0 DUP6 ADD CALLDATALOAD PUSH8 0xFFFFFFFFFFFFFFFF DUP2 GT ISZERO PUSH2 0x4FD9 JUMPI PUSH2 0x4FD8 PUSH2 0x4978 JUMP JUMPDEST JUMPDEST PUSH2 0x4FE5 DUP8 DUP3 DUP9 ADD PUSH2 0x49EA JUMP JUMPDEST SWAP5 POP SWAP5 POP POP PUSH1 0x20 DUP6 ADD CALLDATALOAD PUSH8 0xFFFFFFFFFFFFFFFF DUP2 GT ISZERO PUSH2 0x5008 JUMPI PUSH2 0x5007 PUSH2 0x4978 JUMP JUMPDEST JUMPDEST PUSH2 0x5014 DUP8 DUP3 DUP9 ADD PUSH2 0x49EA JUMP JUMPDEST SWAP3 POP SWAP3 POP POP SWAP3 SWAP6 SWAP2 SWAP5 POP SWAP3 POP JUMP JUMPDEST PUSH32 0x4E487B7100000000000000000000000000000000000000000000000000000000 PUSH1 0x0 MSTORE PUSH1 0x21 PUSH1 0x4 MSTORE PUSH1 0x24 PUSH1 0x0 REVERT JUMPDEST PUSH1 0x2 DUP2 LT PUSH2 0x5062 JUMPI PUSH2 0x5061 PUSH2 0x5022 JUMP JUMPDEST JUMPDEST POP JUMP JUMPDEST PUSH1 0x0 DUP2 SWAP1 POP PUSH2 0x5073 DUP3 PUSH2 0x5051 JUMP JUMPDEST SWAP2 SWAP1 POP JUMP JUMPDEST PUSH1 0x0 PUSH2 0x5083 DUP3 PUSH2 0x5065 JUMP JUMPDEST SWAP1 POP SWAP2 SWAP1 POP JUMP JUMPDEST PUSH2 0x5093 DUP2 PUSH2 0x5078 JUMP JUMPDEST DUP3 MSTORE POP POP JUMP JUMPDEST PUSH1 0x0 PUSH1 0x20 DUP3 ADD SWAP1 POP PUSH2 0x50AE PUSH1 0x0 DUP4 ADD DUP5 PUSH2 0x508A JUMP JUMPDEST SWAP3 SWAP2 POP POP JUMP JUMPDEST PUSH1 0x0 DUP1 PUSH1 0x0 DUP1 PUSH1 0x0 DUP1 PUSH1 0x0 PUSH1 0x80 DUP9 DUP11 SUB SLT ISZERO PUSH2 0x50D3 JUMPI PUSH2 0x50D2 PUSH2 0x4973 JUMP JUMPDEST JUMPDEST PUSH1 0x0 PUSH2 0x50E1 DUP11 DUP3 DUP12 ADD PUSH2 0x49C6 JUMP JUMPDEST SWAP8 POP POP PUSH1 0x20 DUP9 ADD CALLDATALOAD PUSH8 0xFFFFFFFFFFFFFFFF DUP2 GT ISZERO PUSH2 0x5102 JUMPI PUSH2 0x5101 PUSH2 0x4978 JUMP JUMPDEST JUMPDEST PUSH2 0x510E DUP11 DUP3 DUP12 ADD PUSH2 0x49EA JUMP JUMPDEST SWAP7 POP SWAP7 POP POP PUSH1 0x40 DUP9 ADD CALLDATALOAD PUSH8 0xFFFFFFFFFFFFFFFF DUP2 GT ISZERO PUSH2 0x5131 JUMPI PUSH2 0x5130 PUSH2 0x4978 JUMP JUMPDEST JUMPDEST PUSH2 0x513D DUP11 DUP3 DUP12 ADD PUSH2 0x49EA JUMP JUMPDEST SWAP5 POP SWAP5 POP POP PUSH1 0x60 DUP9 ADD CALLDATALOAD PUSH8 0xFFFFFFFFFFFFFFFF DUP2 GT ISZERO PUSH2 0x5160 JUMPI PUSH2 0x515F PUSH2 0x4978 JUMP JUMPDEST JUMPDEST PUSH2 0x516C DUP11 DUP3 DUP12 ADD PUSH2 0x49EA JUMP JUMPDEST SWAP3 POP SWAP3 POP POP SWAP3 SWAP6 SWAP9 SWAP2 SWAP5 SWAP8 POP SWAP3 SWAP6 POP JUMP JUMPDEST PUSH2 0x5186 DUP2 PUSH2 0x499D JUMP JUMPDEST DUP3 MSTORE POP POP JUMP JUMPDEST PUSH1 0x0 PUSH1 0x20 DUP3 ADD SWAP1 POP PUSH2 0x51A1 PUSH1 0x0 DUP4 ADD DUP5 PUSH2 0x517D JUMP JUMPDEST SWAP3 SWAP2 POP POP JUMP JUMPDEST PUSH1 0x0 DUP1 DUP4 PUSH1 0x1F DUP5 ADD SLT PUSH2 0x51BD JUMPI PUSH2 0x51BC PUSH2 0x49DB JUMP JUMPDEST JUMPDEST DUP3 CALLDATALOAD SWAP1 POP PUSH8 0xFFFFFFFFFFFFFFFF DUP2 GT ISZERO PUSH2 0x51DA JUMPI PUSH2 0x51D9 PUSH2 0x49E0 JUMP JUMPDEST JUMPDEST PUSH1 0x20 DUP4 ADD SWAP2 POP DUP4 PUSH1 0x20 DUP3 MUL DUP4 ADD GT ISZERO PUSH2 0x51F6 JUMPI PUSH2 0x51F5 PUSH2 0x49E5 JUMP JUMPDEST JUMPDEST SWAP3 POP SWAP3 SWAP1 POP JUMP JUMPDEST PUSH1 0x0 DUP1 PUSH1 0x0 DUP1 PUSH1 0x0 DUP1 PUSH1 0x60 DUP8 DUP10 SUB SLT ISZERO PUSH2 0x521A JUMPI PUSH2 0x5219 PUSH2 0x4973 JUMP JUMPDEST JUMPDEST PUSH1 0x0 DUP8 ADD CALLDATALOAD PUSH8 0xFFFFFFFFFFFFFFFF DUP2 GT ISZERO PUSH2 0x5238 JUMPI PUSH2 0x5237 PUSH2 0x4978 JUMP JUMPDEST JUMPDEST PUSH2 0x5244 DUP10 DUP3 DUP11 ADD PUSH2 0x49EA JUMP JUMPDEST SWAP7 POP SWAP7 POP POP PUSH1 0x20 DUP8 ADD CALLDATALOAD PUSH8 0xFFFFFFFFFFFFFFFF DUP2 GT ISZERO PUSH2 0x5267 JUMPI PUSH2 0x5266 PUSH2 0x4978 JUMP JUMPDEST JUMPDEST PUSH2 0x5273 DUP10 DUP3 DUP11 ADD PUSH2 0x51A7 JUMP JUMPDEST SWAP5 POP SWAP5 POP POP PUSH1 0x40 DUP8 ADD CALLDATALOAD PUSH8 0xFFFFFFFFFFFFFFFF DUP2 GT ISZERO PUSH2 0x5296 JUMPI PUSH2 0x5295 PUSH2 0x4978 JUMP JUMPDEST JUMPDEST PUSH2 0x52A2 DUP10 DUP3 DUP11 ADD PUSH2 0x51A7 JUMP JUMPDEST SWAP3 POP SWAP3 POP POP SWAP3 SWAP6 POP SWAP3 SWAP6 POP SWAP3 SWAP6 JUMP JUMPDEST PUSH1 0x0 DUP1 PUSH1 0x0 DUP1 PUSH1 0x40 DUP6 DUP8 SUB SLT ISZERO PUSH2 0x52CB JUMPI PUSH2 0x52CA PUSH2 0x4973 JUMP JUMPDEST JUMPDEST PUSH1 0x0 DUP6 ADD CALLDATALOAD PUSH8 0xFFFFFFFFFFFFFFFF DUP2 GT ISZERO PUSH2 0x52E9 JUMPI PUSH2 0x52E8 PUSH2 0x4978 JUMP JUMPDEST JUMPDEST PUSH2 0x52F5 DUP8 DUP3 DUP9 ADD PUSH2 0x51A7 JUMP JUMPDEST SWAP5 POP SWAP5 POP POP PUSH1 0x20 DUP6 ADD CALLDATALOAD PUSH8 0xFFFFFFFFFFFFFFFF DUP2 GT ISZERO PUSH2 0x5318 JUMPI PUSH2 0x5317 PUSH2 0x4978 JUMP JUMPDEST JUMPDEST PUSH2 0x5324 DUP8 DUP3 DUP9 ADD PUSH2 0x51A7 JUMP JUMPDEST SWAP3 POP SWAP3 POP POP SWAP3 SWAP6 SWAP2 SWAP5 POP SWAP3 POP JUMP JUMPDEST PUSH1 0x4 DUP2 LT PUSH2 0x5343 JUMPI PUSH2 0x5342 PUSH2 0x5022 JUMP JUMPDEST JUMPDEST POP JUMP JUMPDEST PUSH1 0x0 DUP2 SWAP1 POP PUSH2 0x5354 DUP3 PUSH2 0x5332 JUMP JUMPDEST SWAP2 SWAP1 POP JUMP JUMPDEST PUSH1 0x0 PUSH2 0x5364 DUP3 PUSH2 0x5346 JUMP JUMPDEST SWAP1 POP SWAP2 SWAP1 POP JUMP JUMPDEST PUSH2 0x5374 DUP2 PUSH2 0x5359 JUMP JUMPDEST DUP3 MSTORE POP POP JUMP JUMPDEST PUSH1 0x0 PUSH1 0x20 DUP3 ADD SWAP1 POP PUSH2 0x538F PUSH1 0x0 DUP4 ADD DUP5 PUSH2 0x536B JUMP JUMPDEST SWAP3 SWAP2 POP POP JUMP JUMPDEST PUSH1 0x3 DUP2 LT PUSH2 0x53A6 JUMPI PUSH2 0x53A5 PUSH2 0x5022 JUMP JUMPDEST JUMPDEST POP JUMP JUMPDEST PUSH1 0x0 DUP2 SWAP1 POP PUSH2 0x53B7 DUP3 PUSH2 0x5395 JUMP JUMPDEST SWAP2 SWAP1 POP JUMP JUMPDEST PUSH1 0x0 PUSH2 0x53C7 DUP3 PUSH2 0x53A9 JUMP JUMPDEST SWAP1 POP SWAP2 SWAP1 POP JUMP JUMPDEST PUSH2 0x53D7 DUP2 PUSH2 0x53BC JUMP JUMPDEST DUP3 MSTORE POP POP JUMP JUMPDEST PUSH1 0x0 PUSH1 0x20 DUP3 ADD SWAP1 POP PUSH2 0x53F2 PUSH1 0x0 DUP4 ADD DUP5 PUSH2 0x53CE JUMP JUMPDEST SWAP3 SWAP2 POP POP JUMP JUMPDEST PUSH1 0x0 DUP1 DUP4 PUSH1 0x1F DUP5 ADD SLT PUSH2 0x540E JUMPI PUSH2 0x540D PUSH2 0x49DB JUMP JUMPDEST JUMPDEST DUP3 CALLDATALOAD SWAP1 POP PUSH8 0xFFFFFFFFFFFFFFFF DUP2 GT ISZERO PUSH2 0x542B JUMPI PUSH2 0x542A PUSH2 0x49E0 JUMP JUMPDEST JUMPDEST PUSH1 0x20 DUP4 ADD SWAP2 POP DUP4 PUSH1 0x20 DUP3 MUL DUP4 ADD GT ISZERO PUSH2 0x5447 JUMPI PUSH2 0x5446 PUSH2 0x49E5 JUMP JUMPDEST JUMPDEST SWAP3 POP SWAP3 SWAP1 POP JUMP JUMPDEST PUSH1 0x0 DUP1 PUSH1 0x0 DUP1 PUSH1 0x0 PUSH1 0x60 DUP7 DUP9 SUB SLT ISZERO PUSH2 0x546A JUMPI PUSH2 0x5469 PUSH2 0x4973 JUMP JUMPDEST JUMPDEST PUSH1 0x0 PUSH2 0x5478 DUP9 DUP3 DUP10 ADD PUSH2 0x49C6 JUMP JUMPDEST SWAP6 POP POP PUSH1 0x20 DUP7 ADD CALLDATALOAD PUSH8 0xFFFFFFFFFFFFFFFF DUP2 GT ISZERO PUSH2 0x5499 JUMPI PUSH2 0x5498 PUSH2 0x4978 JUMP JUMPDEST JUMPDEST PUSH2 0x54A5 DUP9 DUP3 DUP10 ADD PUSH2 0x51A7 JUMP JUMPDEST SWAP5 POP SWAP5 POP POP PUSH1 0x40 DUP7 ADD CALLDATALOAD PUSH8 0xFFFFFFFFFFFFFFFF DUP2 GT ISZERO PUSH2 0x54C8 JUMPI PUSH2 0x54C7 PUSH2 0x4978 JUMP JUMPDEST JUMPDEST PUSH2 0x54D4 DUP9 DUP3 DUP10 ADD PUSH2 0x53F8 JUMP JUMPDEST SWAP3 POP SWAP3 POP POP SWAP3 SWAP6 POP SWAP3 SWAP6 SWAP1 SWAP4 POP JUMP JUMPDEST PUSH1 0x0 DUP2 SWAP1 POP SWAP3 SWAP2 POP POP JUMP JUMPDEST PUSH1 0x0 PUSH2 0x54FA DUP4 DUP6 PUSH2 0x54E3 JUMP JUMPDEST SWAP4 POP PUSH2 0x5507 DUP4 DUP6 DUP5 PUSH2 0x4D30 JUMP JUMPDEST DUP3 DUP5 ADD SWAP1 POP SWAP4 SWAP3 POP POP POP JUMP JUMPDEST PUSH1 0x0 PUSH2 0x5520 DUP3 DUP5 DUP7 PUSH2 0x54EE JUMP JUMPDEST SWAP2 POP DUP2 SWAP1 POP SWAP4 SWAP3 POP POP POP JUMP JUMPDEST PUSH32 0x4E487B7100000000000000000000000000000000000000000000000000000000 PUSH1 0x0 MSTORE PUSH1 0x22 PUSH1 0x4 MSTORE PUSH1 0x24 PUSH1 0x0 REVERT JUMPDEST PUSH1 0x0 PUSH1 0x2 DUP3 DIV SWAP1 POP PUSH1 0x1 DUP3 AND DUP1 PUSH2 0x5573 JUMPI PUSH1 0x7F DUP3 AND SWAP2 POP JUMPDEST PUSH1 0x20 DUP3 LT DUP2 SUB PUSH2 0x5586 JUMPI PUSH2 0x5585 PUSH2 0x552C JUMP JUMPDEST JUMPDEST POP SWAP2 SWAP1 POP JUMP JUMPDEST PUSH1 0x0 PUSH2 0x5597 DUP3 PUSH2 0x4B37 JUMP JUMPDEST PUSH2 0x55A1 DUP2 DUP6 PUSH2 0x54E3 JUMP JUMPDEST SWAP4 POP PUSH2 0x55B1 DUP2 DUP6 PUSH1 0x20 DUP7 ADD PUSH2 0x4B53 JUMP JUMPDEST DUP1 DUP5 ADD SWAP2 POP POP SWAP3 SWAP2 POP POP JUMP JUMPDEST PUSH1 0x0 PUSH2 0x55C9 DUP3 DUP5 PUSH2 0x558C JUMP JUMPDEST SWAP2 POP DUP2 SWAP1 POP SWAP3 SWAP2 POP POP JUMP JUMPDEST PUSH1 0x0 DUP2 SWAP1 POP DUP2 PUSH1 0x0 MSTORE PUSH1 0x20 PUSH1 0x0 KECCAK256 SWAP1 POP SWAP2 SWAP1 POP JUMP JUMPDEST PUSH1 0x0 DUP2 SLOAD PUSH2 0x55F6 DUP2 PUSH2 0x555B JUMP JUMPDEST PUSH2 0x5600 DUP2 DUP7 PUSH2 0x54E3 JUMP JUMPDEST SWAP5 POP PUSH1 0x1 DUP3 AND PUSH1 0x0 DUP2 EQ PUSH2 0x561B JUMPI PUSH1 0x1 DUP2 EQ PUSH2 0x5630 JUMPI PUSH2 0x5663 JUMP JUMPDEST PUSH1 0xFF NOT DUP4 AND DUP7 MSTORE DUP2 ISZERO ISZERO DUP3 MUL DUP7 ADD SWAP4 POP PUSH2 0x5663 JUMP JUMPDEST PUSH2 0x5639 DUP6 PUSH2 0x55D4 JUMP JUMPDEST PUSH1 0x0 JUMPDEST DUP4 DUP2 LT ISZERO PUSH2 0x565B JUMPI DUP2 SLOAD DUP2 DUP10 ADD MSTORE PUSH1 0x1 DUP3 ADD SWAP2 POP PUSH1 0x20 DUP2 ADD SWAP1 POP PUSH2 0x563C JUMP JUMPDEST DUP4 DUP9 ADD SWAP6 POP POP POP JUMPDEST POP POP POP SWAP3 SWAP2 POP POP JUMP JUMPDEST PUSH1 0x0 PUSH2 0x5678 DUP3 DUP5 PUSH2 0x55E9 JUMP JUMPDEST SWAP2 POP DUP2 SWAP1 POP SWAP3 SWAP2 POP POP JUMP JUMPDEST PUSH32 0x436F6C6C65676520496400000000000000000000000000000000000000000000 PUSH1 0x0 DUP3 ADD MSTORE POP JUMP JUMPDEST PUSH1 0x0 PUSH2 0x56B9 PUSH1 0xA DUP4 PUSH2 0x54E3 JUMP JUMPDEST SWAP2 POP PUSH2 0x56C4 DUP3 PUSH2 0x5683 JUMP JUMPDEST PUSH1 0xA DUP3 ADD SWAP1 POP SWAP2 SWAP1 POP JUMP JUMPDEST PUSH1 0x0 PUSH2 0x56DA DUP3 PUSH2 0x56AC JUMP JUMPDEST SWAP2 POP DUP2 SWAP1 POP SWAP2 SWAP1 POP JUMP JUMPDEST PUSH1 0x0 PUSH1 0x20 PUSH1 0x1F DUP4 ADD DIV SWAP1 POP SWAP2 SWAP1 POP JUMP JUMPDEST PUSH1 0x0 DUP3 DUP3 SHL SWAP1 POP SWAP3 SWAP2 POP POP JUMP JUMPDEST PUSH1 0x0 PUSH1 0x8 DUP4 MUL PUSH2 0x5731 PUSH32 0xFFFFFFFFFFFFFFFFFFFFFFFFFFFFFFFFFFFFFFFFFFFFFFFFFFFFFFFFFFFFFFFF DUP3 PUSH2 0x56F4 JUMP JUMPDEST PUSH2 0x573B DUP7 DUP4 PUSH2 0x56F4 JUMP JUMPDEST SWAP6 POP DUP1 NOT DUP5 AND SWAP4 POP DUP1 DUP7 AND DUP5 OR SWAP3 POP POP POP SWAP4 SWAP3 POP POP POP JUMP JUMPDEST PUSH1 0x0 DUP2 SWAP1 POP SWAP2 SWAP1 POP JUMP JUMPDEST PUSH1 0x0 DUP2 SWAP1 POP SWAP2 SWAP1 POP JUMP JUMPDEST PUSH1 0x0 PUSH2 0x5782 PUSH2 0x577D PUSH2 0x5778 DUP5 PUSH2 0x5753 JUMP JUMPDEST PUSH2 0x575D JUMP JUMPDEST PUSH2 0x5753 JUMP JUMPDEST SWAP1 POP SWAP2 SWAP1 POP JUMP JUMPDEST PUSH1 0x0 DUP2 SWAP1 POP SWAP2 SWAP1 POP JUMP JUMPDEST PUSH2 0x579C DUP4 PUSH2 0x5767 JUMP JUMPDEST PUSH2 0x57B0 PUSH2 0x57A8 DUP3 PUSH2 0x5789 JUMP JUMPDEST DUP5 DUP5 SLOAD PUSH2 0x5701 JUMP JUMPDEST DUP3 SSTORE POP POP POP POP JUMP JUMPDEST PUSH1 0x0 SWAP1 JUMP JUMPDEST PUSH2 0x57C5 PUSH2 0x57B8 JUMP JUMPDEST PUSH2 0x57D0 DUP2 DUP5 DUP5 PUSH2 0x5793 JUMP JUMPDEST POP POP POP JUMP JUMPDEST JUMPDEST DUP2 DUP2 LT ISZERO PUSH2 0x57F4 JUMPI PUSH2 0x57E9 PUSH1 0x0 DUP3 PUSH2 0x57BD JUMP JUMPDEST PUSH1 0x1 DUP2 ADD SWAP1 POP PUSH2 0x57D6 JUMP JUMPDEST POP POP JUMP JUMPDEST PUSH1 0x1F DUP3 GT ISZERO PUSH2 0x5839 JUMPI PUSH2 0x580A DUP2 PUSH2 0x55D4 JUMP JUMPDEST PUSH2 0x5813 DUP5 PUSH2 0x56E4 JUMP JUMPDEST DUP2 ADD PUSH1 0x20 DUP6 LT ISZERO PUSH2 0x5822 JUMPI DUP2 SWAP1 POP JUMPDEST PUSH2 0x5836 PUSH2 0x582E DUP6 PUSH2 0x56E4 JUMP JUMPDEST DUP4 ADD DUP3 PUSH2 0x57D5 JUMP JUMPDEST POP POP JUMPDEST POP POP POP JUMP JUMPDEST PUSH1 0x0 DUP3 DUP3 SHR SWAP1 POP SWAP3 SWAP2 POP POP JUMP JUMPDEST PUSH1 0x0 PUSH2 0x585C PUSH1 0x0 NOT DUP5 PUSH1 0x8 MUL PUSH2 0x583E JUMP JUMPDEST NOT DUP1 DUP4 AND SWAP2 POP POP SWAP3 SWAP2 POP POP JUMP JUMPDEST PUSH1 0x0 PUSH2 0x5875 DUP4 DUP4 PUSH2 0x584B JUMP JUMPDEST SWAP2 POP DUP3 PUSH1 0x2 MUL DUP3 OR SWAP1 POP SWAP3 SWAP2 POP POP JUMP JUMPDEST PUSH2 0x588E DUP3 PUSH2 0x4B37 JUMP JUMPDEST PUSH8 0xFFFFFFFFFFFFFFFF DUP2 GT ISZERO PUSH2 0x58A7 JUMPI PUSH2 0x58A6 PUSH2 0x4C84 JUMP JUMPDEST JUMPDEST PUSH2 0x58B1 DUP3 SLOAD PUSH2 0x555B JUMP JUMPDEST PUSH2 0x58BC DUP3 DUP3 DUP6 PUSH2 0x57F8 JUMP JUMPDEST PUSH1 0x0 PUSH1 0x20 SWAP1 POP PUSH1 0x1F DUP4 GT PUSH1 0x1 DUP2 EQ PUSH2 0x58EF JUMPI PUSH1 0x0 DUP5 ISZERO PUSH2 0x58DD JUMPI DUP3 DUP8 ADD MLOAD SWAP1 POP JUMPDEST PUSH2 0x58E7 DUP6 DUP3 PUSH2 0x5869 JUMP JUMPDEST DUP7 SSTORE POP PUSH2 0x594F JUMP JUMPDEST PUSH1 0x1F NOT DUP5 AND PUSH2 0x58FD DUP7 PUSH2 0x55D4 JUMP JUMPDEST PUSH1 0x0 JUMPDEST DUP3 DUP2 LT ISZERO PUSH2 0x5925 JUMPI DUP5 DUP10 ADD MLOAD DUP3 SSTORE PUSH1 0x1 DUP3 ADD SWAP2 POP PUSH1 0x20 DUP6 ADD SWAP5 POP PUSH1 0x20 DUP2 ADD SWAP1 POP PUSH2 0x5900 JUMP JUMPDEST DUP7 DUP4 LT ISZERO PUSH2 0x5942 JUMPI DUP5 DUP10 ADD MLOAD PUSH2 0x593E PUSH1 0x1F DUP10 AND DUP3 PUSH2 0x584B JUMP JUMPDEST DUP4 SSTORE POP JUMPDEST PUSH1 0x1 PUSH1 0x2 DUP9 MUL ADD DUP9 SSTORE POP POP POP JUMPDEST POP POP POP POP POP POP JUMP JUMPDEST PUSH32 0x4E487B7100000000000000000000000000000000000000000000000000000000 PUSH1 0x0 MSTORE PUSH1 0x32 PUSH1 0x4 MSTORE PUSH1 0x24 PUSH1 0x0 REVERT JUMPDEST PUSH1 0x0 DUP1 REVERT JUMPDEST PUSH1 0x0 DUP1 REVERT JUMPDEST PUSH1 0x0 DUP1 REVERT JUMPDEST PUSH1 0x0 DUP1 DUP4 CALLDATALOAD PUSH1 0x1 PUSH1 0x20 SUB DUP5 CALLDATASIZE SUB SUB DUP2 SLT PUSH2 0x59B2 JUMPI PUSH2 0x59B1 PUSH2 0x5986 JUMP JUMPDEST JUMPDEST DUP1 DUP5 ADD SWAP3 POP DUP3 CALLDATALOAD SWAP2 POP PUSH8 0xFFFFFFFFFFFFFFFF DUP3 GT ISZERO PUSH2 0x59D4 JUMPI PUSH2 0x59D3 PUSH2 0x598B JUMP JUMPDEST JUMPDEST PUSH1 0x20 DUP4 ADD SWAP3 POP PUSH1 0x1 DUP3 MUL CALLDATASIZE SUB DUP4 SGT ISZERO PUSH2 0x59F0 JUMPI PUSH2 0x59EF PUSH2 0x5990 JUMP JUMPDEST JUMPDEST POP SWAP3 POP SWAP3 SWAP1 POP JUMP JUMPDEST PUSH32 0x4E487B7100000000000000000000000000000000000000000000000000000000 PUSH1 0x0 MSTORE PUSH1 0x11 PUSH1 0x4 MSTORE PUSH1 0x24 PUSH1 0x0 REVERT JUMPDEST PUSH1 0x0 PUSH2 0x5A32 DUP3 PUSH2 0x5753 JUMP JUMPDEST SWAP2 POP PUSH32 0xFFFFFFFFFFFFFFFFFFFFFFFFFFFFFFFFFFFFFFFFFFFFFFFFFFFFFFFFFFFFFFFF DUP3 SUB PUSH2 0x5A64 JUMPI PUSH2 0x5A63 PUSH2 0x59F8 JUMP JUMPDEST JUMPDEST PUSH1 0x1 DUP3 ADD SWAP1 POP SWAP2 SWAP1 POP JUMP JUMPDEST PUSH1 0x0 DUP3 SWAP1 POP SWAP3 SWAP2 POP POP JUMP JUMPDEST PUSH2 0x5A84 DUP4 DUP4 PUSH2 0x5A6F JUMP JUMPDEST PUSH8 0xFFFFFFFFFFFFFFFF DUP2 GT ISZERO PUSH2 0x5A9D JUMPI PUSH2 0x5A9C PUSH2 0x4C84 JUMP JUMPDEST JUMPDEST PUSH2 0x5AA7 DUP3 SLOAD PUSH2 0x555B JUMP JUMPDEST PUSH2 0x5AB2 DUP3 DUP3 DUP6 PUSH2 0x57F8 JUMP JUMPDEST PUSH1 0x0 PUSH1 0x1F DUP4 GT PUSH1 0x1 DUP2 EQ PUSH2 0x5AE1 JUMPI PUSH1 0x0 DUP5 ISZERO PUSH2 0x5ACF JUMPI DUP3 DUP8 ADD CALLDATALOAD SWAP1 POP JUMPDEST PUSH2 0x5AD9 DUP6 DUP3 PUSH2 0x5869 JUMP JUMPDEST DUP7 SSTORE POP PUSH2 0x5B41 JUMP JUMPDEST PUSH1 0x1F NOT DUP5 AND PUSH2 0x5AEF DUP7 PUSH2 0x55D4 JUMP JUMPDEST PUSH1 0x0 JUMPDEST DUP3 DUP2 LT ISZERO PUSH2 0x5B17 JUMPI DUP5 DUP10 ADD CALLDATALOAD DUP3 SSTORE PUSH1 0x1 DUP3 ADD SWAP2 POP PUSH1 0x20 DUP6 ADD SWAP5 POP PUSH1 0x20 DUP2 ADD SWAP1 POP PUSH2 0x5AF2 JUMP JUMPDEST DUP7 DUP4 LT ISZERO PUSH2 0x5B34 JUMPI DUP5 DUP10 ADD CALLDATALOAD PUSH2 0x5B30 PUSH1 0x1F DUP10 AND DUP3 PUSH2 0x584B JUMP JUMPDEST DUP4 SSTORE POP JUMPDEST PUSH1 0x1 PUSH1 0x2 DUP9 MUL ADD DUP9 SSTORE POP POP POP JUMPDEST POP POP POP POP POP POP POP JUMP JUMPDEST PUSH1 0x0 PUSH1 0x20 DUP3 DUP5 SUB SLT ISZERO PUSH2 0x5B60 JUMPI PUSH2 0x5B5F PUSH2 0x4973 JUMP JUMPDEST JUMPDEST PUSH1 0x0 PUSH2 0x5B6E DUP5 DUP3 DUP6 ADD PUSH2 0x4E8B JUMP JUMPDEST SWAP2 POP POP SWAP3 SWAP2 POP POP JUMP JUMPDEST PUSH1 0x0 DUP2 PUSH1 0x60 SHL SWAP1 POP SWAP2 SWAP1 POP JUMP JUMPDEST PUSH1 0x0 PUSH2 0x5B8F DUP3 PUSH2 0x5B77 JUMP JUMPDEST SWAP1 POP SWAP2 SWAP1 POP JUMP JUMPDEST PUSH1 0x0 PUSH2 0x5BA1 DUP3 PUSH2 0x5B84 JUMP JUMPDEST SWAP1 POP SWAP2 SWAP1 POP JUMP JUMPDEST PUSH2 0x5BB9 PUSH2 0x5BB4 DUP3 PUSH2 0x499D JUMP JUMPDEST PUSH2 0x5B96 JUMP JUMPDEST DUP3 MSTORE POP POP JUMP JUMPDEST PUSH1 0x0 DUP2 SWAP1 POP SWAP2 SWAP1 POP JUMP JUMPDEST PUSH2 0x5BDA PUSH2 0x5BD5 DUP3 PUSH2 0x5753 JUMP JUMPDEST PUSH2 0x5BBF JUMP JUMPDEST DUP3 MSTORE POP POP JUMP JUMPDEST PUSH1 0x0 PUSH2 0x5BEC DUP3 DUP7 PUSH2 0x5BA8 JUMP JUMPDEST PUSH1 0x14 DUP3 ADD SWAP2 POP PUSH2 0x5BFC DUP3 DUP6 PUSH2 0x5BC9 JUMP JUMPDEST PUSH1 0x20 DUP3 ADD SWAP2 POP PUSH2 0x5C0C DUP3 DUP5 PUSH2 0x5BC9 JUMP JUMPDEST PUSH1 0x20 DUP3 ADD SWAP2 POP DUP2 SWAP1 POP SWAP5 SWAP4 POP POP POP POP JUMP JUMPDEST PUSH1 0x0 PUSH2 0x5C28 DUP3 PUSH2 0x5753 JUMP JUMPDEST SWAP2 POP PUSH2 0x5C33 DUP4 PUSH2 0x5753 JUMP JUMPDEST SWAP3 POP DUP3 DUP3 MUL PUSH2 0x5C41 DUP2 PUSH2 0x5753 JUMP JUMPDEST SWAP2 POP DUP3 DUP3 DIV DUP5 EQ DUP4 ISZERO OR PUSH2 0x5C58 JUMPI PUSH2 0x5C57 PUSH2 0x59F8 JUMP JUMPDEST JUMPDEST POP SWAP3 SWAP2 POP POP JUMP JUMPDEST PUSH1 0x0 PUSH2 0x5C6A DUP3 PUSH2 0x5753 JUMP JUMPDEST SWAP2 POP PUSH2 0x5C75 DUP4 PUSH2 0x5753 JUMP JUMPDEST SWAP3 POP DUP3 DUP3 ADD SWAP1 POP DUP1 DUP3 GT ISZERO PUSH2 0x5C8D JUMPI PUSH2 0x5C8C PUSH2 0x59F8 JUMP JUMPDEST JUMPDEST SWAP3 SWAP2 POP POP JUMP JUMPDEST PUSH1 0x0 PUSH2 0x5C9E DUP3 PUSH2 0x5753 JUMP JUMPDEST SWAP2 POP PUSH1 0x0 DUP3 SUB PUSH2 0x5CB1 JUMPI PUSH2 0x5CB0 PUSH2 0x59F8 JUMP JUMPDEST JUMPDEST PUSH1 0x1 DUP3 SUB SWAP1 POP SWAP2 SWAP1 POP JUMP JUMPDEST PUSH32 0x537472696E67733A20686578206C656E67746820696E73756666696369656E74 PUSH1 0x0 DUP3 ADD MSTORE POP JUMP JUMPDEST PUSH1 0x0 PUSH2 0x5CF2 PUSH1 0x20 DUP4 PUSH2 0x4F35 JUMP JUMPDEST SWAP2 POP PUSH2 0x5CFD DUP3 PUSH2 0x5CBC JUMP JUMPDEST PUSH1 0x20 DUP3 ADD SWAP1 POP SWAP2 SWAP1 POP JUMP JUMPDEST PUSH1 0x0 PUSH1 0x20 DUP3 ADD SWAP1 POP DUP2 DUP2 SUB PUSH1 0x0 DUP4 ADD MSTORE PUSH2 0x5D21 DUP2 PUSH2 0x5CE5 JUMP JUMPDEST SWAP1 POP SWAP2 SWAP1 POP JUMP INVALID LOG2 PUSH5 0x6970667358 0x22 SLT KECCAK256 0xEB DUP9 0xC6 JUMPDEST 0xB6 PUSH30 0x8A9B2966EC3F1174B09F3447CCE079290AFF43257FB33ECF716764736F6C PUSH4 0x43000811 STOP CALLER "},"methodIdentifiers":{"addAsCollege(string)":"85c5989e","addNewStudent(address,string,string,string)":"7f3e1e82","approveCollege(string)":"c2d8eef3","changeThirdPartyAccess(address,string[],bool[])":"e2a311e7","checkAccessToThirdParty(address,string,string)":"0147aabd","editOwnCollegeData(string,string)":"95a6ba22","editStudentDataAccessPermission(string,string,bool)":"f42867a5","editStudentDataAsCollege(string,string[],string[])":"90bff258","editStudentDataAsStudent(string[],string[])":"a83cf342","getAllCollegeIds()":"88c045e2","getCollegeData(string,string)":"9a645856","getCollegeStatus(string)":"bc1829f8","getCollegeStudentIds()":"1abf4112","getOwnCollegeId()":"7bb312fd","getOwnStudentId()":"53ef780e","getOwner()":"893d20e8","getStudentData(string,string)":"62893b13","getStudentDataAsCollege(string,string,bool)":"3e6835b4","getStudentDataStatus(string,string)":"ce54123d","getStudentDataTypes(string)":"ea055796","getStudentEditAccess(string,string)":"28fd6ae1","getStudentStatus(string)":"75d0b932","rejectCollege(string)":"3d9c5434","verifyStudentData(string,string)":"b4a9f2c4"}}}}}