{"contracts/Ducid.sol":{"Ducid":{"abi":[{"inputs":[],"stateMutability":"nonpayable","type":"constructor"},{"inputs":[],"name":"AccessOnlyToACollege","type":"error"},{"inputs":[],"name":"AccessOnlyToOwner","type":"error"},{"inputs":[],"name":"AccessOnlyToVerifiedCollege","type":"error"},{"inputs":[],"name":"CollegeAlreadyVerified","type":"error"},{"inputs":[],"name":"CollegeAlreadyrejected","type":"error"},{"inputs":[],"name":"CollegeNotFound","type":"error"},{"inputs":[],"name":"DataMissMatching","type":"error"},{"inputs":[],"name":"EmptyDataNotAllowed","type":"error"},{"inputs":[],"name":"NoAccessToEditData","type":"error"},{"inputs":[],"name":"StudentNotFound","type":"error"},{"inputs":[],"name":"studentIsOfAnotherCollege","type":"error"},{"inputs":[{"internalType":"string","name":"collegeName","type":"string"}],"name":"addAsCollege","outputs":[],"stateMutability":"nonpayable","type":"function"},{"inputs":[{"internalType":"address","name":"studentAddress","type":"address"},{"internalType":"string","name":"studentName","type":"string"},{"internalType":"string","name":"studentAge","type":"string"},{"internalType":"string","name":"studentPercentage","type":"string"}],"name":"addNewStudent","outputs":[],"stateMutability":"nonpayable","type":"function"},{"inputs":[{"internalType":"string","name":"collegeId","type":"string"}],"name":"approveCollege","outputs":[],"stateMutability":"nonpayable","type":"function"},{"inputs":[{"internalType":"address","name":"thirdParty","type":"address"},{"internalType":"string","name":"studentId","type":"string"},{"internalType":"string","name":"dataType","type":"string"}],"name":"checkAccessToThirdParty","outputs":[{"internalType":"bool","name":"","type":"bool"}],"stateMutability":"view","type":"function"},{"inputs":[{"internalType":"string","name":"dataType","type":"string"},{"internalType":"string","name":"data","type":"string"}],"name":"editOwnCollegeData","outputs":[],"stateMutability":"nonpayable","type":"function"},{"inputs":[{"internalType":"string","name":"studentId","type":"string"},{"internalType":"string","name":"dataType","type":"string"},{"internalType":"bool","name":"access","type":"bool"}],"name":"editStudentDataAccessPermission","outputs":[],"stateMutability":"nonpayable","type":"function"},{"inputs":[{"internalType":"string","name":"studentId","type":"string"},{"internalType":"string[]","name":"dataTypes","type":"string[]"},{"internalType":"string[]","name":"data","type":"string[]"}],"name":"editStudentDataAsCollege","outputs":[],"stateMutability":"nonpayable","type":"function"},{"inputs":[{"internalType":"string[]","name":"dataTypes","type":"string[]"},{"internalType":"string[]","name":"data","type":"string[]"}],"name":"editStudentDataAsStudent","outputs":[],"stateMutability":"nonpayable","type":"function"},{"inputs":[],"name":"getAllCollegeIds","outputs":[{"internalType":"string[]","name":"","type":"string[]"}],"stateMutability":"view","type":"function"},{"inputs":[{"internalType":"string","name":"collegeId","type":"string"},{"internalType":"string","name":"dataType","type":"string"}],"name":"getCollegeData","outputs":[{"internalType":"string","name":"","type":"string"}],"stateMutability":"view","type":"function"},{"inputs":[{"internalType":"string","name":"collegeId","type":"string"}],"name":"getCollegeStatus","outputs":[{"internalType":"enum Ducid.CollegeStatus","name":"","type":"uint8"}],"stateMutability":"view","type":"function"},{"inputs":[],"name":"getCollegeStudentIds","outputs":[{"internalType":"string[]","name":"","type":"string[]"}],"stateMutability":"view","type":"function"},{"inputs":[],"name":"getOwnCollegeId","outputs":[{"internalType":"string","name":"","type":"string"}],"stateMutability":"view","type":"function"},{"inputs":[],"name":"getOwnStudentId","outputs":[{"internalType":"string","name":"","type":"string"}],"stateMutability":"view","type":"function"},{"inputs":[],"name":"getOwner","outputs":[{"internalType":"address","name":"","type":"address"}],"stateMutability":"view","type":"function"},{"inputs":[{"internalType":"string","name":"studentId","type":"string"},{"internalType":"string","name":"dataType","type":"string"}],"name":"getStudentData","outputs":[{"internalType":"string","name":"","type":"string"}],"stateMutability":"view","type":"function"},{"inputs":[{"internalType":"string","name":"studentId","type":"string"},{"internalType":"string","name":"dataType","type":"string"},{"internalType":"bool","name":"TypeOfData","type":"bool"}],"name":"getStudentDataAsCollege","outputs":[{"internalType":"string","name":"data","type":"string"}],"stateMutability":"view","type":"function"},{"inputs":[{"internalType":"string","name":"studentId","type":"string"},{"internalType":"string","name":"dataType","type":"string"}],"name":"getStudentDataStatus","outputs":[{"internalType":"enum Ducid.StudentDataStatus","name":"","type":"uint8"}],"stateMutability":"view","type":"function"},{"inputs":[{"internalType":"string","name":"studentId","type":"string"}],"name":"getStudentDataTypes","outputs":[{"internalType":"string[]","name":"","type":"string[]"}],"stateMutability":"view","type":"function"},{"inputs":[{"internalType":"string","name":"studentId","type":"string"},{"internalType":"string","name":"dataType","type":"string"}],"name":"getStudentEditAccess","outputs":[{"internalType":"bool","name":"","type":"bool"}],"stateMutability":"view","type":"function"},{"inputs":[{"internalType":"string","name":"studentId","type":"string"}],"name":"getStudentStatus","outputs":[{"internalType":"enum Ducid.StudentStatus","name":"","type":"uint8"}],"stateMutability":"view","type":"function"},{"inputs":[{"internalType":"address","name":"thirdParty","type":"address"},{"internalType":"string","name":"dataType","type":"string"}],"name":"giveAccessToThirdParty","outputs":[],"stateMutability":"nonpayable","type":"function"},{"inputs":[{"internalType":"string","name":"collegeId","type":"string"}],"name":"rejectCollege","outputs":[],"stateMutability":"nonpayable","type":"function"},{"inputs":[{"internalType":"address","name":"thirdParty","type":"address"},{"internalType":"string","name":"dataType","type":"string"}],"name":"revokeAccessToThirdParty","outputs":[],"stateMutability":"nonpayable","type":"function"},{"inputs":[{"internalType":"string","name":"studentId","type":"string"},{"internalType":"string","name":"dataType","type":"string"}],"name":"verifyStudentData","outputs":[],"stateMutability":"nonpayable","type":"function"}],"evm":{"bytecode":{"linkReferences":{},"object":"608060405234801561001057600080fd5b50336000806101000a81548173ffffffffffffffffffffffffffffffffffffffff021916908373ffffffffffffffffffffffffffffffffffffffff160217905550615ee980620000616000396000f3fe608060405234801561001057600080fd5b50600436106101735760003560e01c8063893d20e8116100de578063b4a9f2c411610097578063ce54123d11610071578063ce54123d1461045a578063ea0557961461048a578063f18b1781146104ba578063f42867a5146104d657610173565b8063b4a9f2c4146103f2578063bc1829f81461040e578063c2d8eef31461043e57610173565b8063893d20e81461033457806390bff2581461035257806395a6ba221461036e5780639a6458561461038a5780639be977d6146103ba578063a83cf342146103d657610173565b806362893b131161013057806362893b131461026057806375d0b932146102905780637bb312fd146102c05780637f3e1e82146102de57806385c5989e146102fa57806388c045e21461031657610173565b80630147aabd146101785780631abf4112146101a857806328fd6ae1146101c65780633d9c5434146101f65780633e6835b41461021257806353ef780e14610242575b600080fd5b610192600480360381019061018d9190614c83565b6104f2565b60405161019f9190614d33565b60405180910390f35b6101b0610588565b6040516101bd9190614ea0565b60405180910390f35b6101e060048036038101906101db9190614ff2565b61089a565b6040516101ed9190614d33565b60405180910390f35b610210600480360381019061020b919061506a565b6108ec565b005b61022c600480360381019061022791906150e3565b610ad2565b60405161023991906151c2565b60405180910390f35b61024a61110d565b60405161025791906151c2565b60405180910390f35b61027a600480360381019061027591906151e4565b6111dc565b60405161028791906151c2565b60405180910390f35b6102aa60048036038101906102a5919061506a565b611491565b6040516102b791906152dc565b60405180910390f35b6102c86114c9565b6040516102d591906151c2565b60405180910390f35b6102f860048036038101906102f391906152f7565b611598565b005b610314600480360381019061030f919061506a565b611b0c565b005b61031e611c6b565b60405161032b9190614ea0565b60405180910390f35b61033c611d44565b60405161034991906153cf565b60405180910390f35b61036c60048036038101906103679190615440565b611d6d565b005b610388600480360381019061038391906151e4565b612423565b005b6103a4600480360381019061039f91906151e4565b6127ed565b6040516103b191906151c2565b60405180910390f35b6103d460048036038101906103cf91906154f4565b6128c0565b005b6103f060048036038101906103eb9190615554565b612b7a565b005b61040c600480360381019061040791906151e4565b612f69565b005b6104286004803603810190610423919061506a565b6135a1565b604051610435919061561d565b60405180910390f35b6104586004803603810190610453919061506a565b6135d9565b005b610474600480360381019061046f91906151e4565b6137c1565b6040516104819190615680565b60405180910390f35b6104a4600480360381019061049f919061506a565b613ca0565b6040516104b19190614ea0565b60405180910390f35b6104d460048036038101906104cf91906154f4565b613d9a565b005b6104f060048036038101906104eb91906150e3565b614054565b005b6000600e60008773ffffffffffffffffffffffffffffffffffffffff1673ffffffffffffffffffffffffffffffffffffffff16815260200190815260200160002085856040516105439291906156cb565b908152602001604051809103902083836040516105619291906156cb565b908152602001604051809103902060009054906101000a900460ff16905095945050505050565b60606000600160003373ffffffffffffffffffffffffffffffffffffffff1673ffffffffffffffffffffffffffffffffffffffff16815260200190815260200160002080546105d690615713565b80601f016020809104026020016040519081016040528092919081815260200182805461060290615713565b801561064f5780601f106106245761010080835404028352916020019161064f565b820191906000526020600020905b81548152906001019060200180831161063257829003601f168201915b505050505090506000600381111561066a57610669615265565b5b60038260405161067a9190615775565b908152602001604051809103902060009054906101000a900460ff1660038111156106a8576106a7615265565b5b036106df576040517f8fa622f500000000000000000000000000000000000000000000000000000000815260040160405180910390fd5b600260038111156106f3576106f2615265565b5b6003826040516107039190615775565b908152602001604051809103902060009054906101000a900460ff16600381111561073157610730615265565b5b14610768576040517f8ac8e00b00000000000000000000000000000000000000000000000000000000815260040160405180910390fd5b6007600160003373ffffffffffffffffffffffffffffffffffffffff1673ffffffffffffffffffffffffffffffffffffffff1681526020019081526020016000206040516107b69190615824565b9081526020016040518091039020805480602002602001604051908101604052809291908181526020016000905b8282101561089057838290600052602060002001805461080390615713565b80601f016020809104026020016040519081016040528092919081815260200182805461082f90615713565b801561087c5780601f106108515761010080835404028352916020019161087c565b820191906000526020600020905b81548152906001019060200180831161085f57829003601f168201915b5050505050815260200190600101906107e4565b5050505091505090565b6000600b836040516108ac9190615775565b9081526020016040518091039020826040516108c89190615775565b908152602001604051809103902060009054906101000a900460ff16905092915050565b60008054906101000a900473ffffffffffffffffffffffffffffffffffffffff1673ffffffffffffffffffffffffffffffffffffffff163373ffffffffffffffffffffffffffffffffffffffff1614610971576040517f2dca963600000000000000000000000000000000000000000000000000000000815260040160405180910390fd5b6000600381111561098557610984615265565b5b600383836040516109979291906156cb565b908152602001604051809103902060009054906101000a900460ff1660038111156109c5576109c4615265565b5b036109fc576040517f567e9be600000000000000000000000000000000000000000000000000000000815260040160405180910390fd5b600380811115610a0f57610a0e615265565b5b60038383604051610a219291906156cb565b908152602001604051809103902060009054906101000a900460ff166003811115610a4f57610a4e615265565b5b03610a86576040517f20f935a000000000000000000000000000000000000000000000000000000000815260040160405180910390fd5b6003808383604051610a999291906156cb565b908152602001604051809103902060006101000a81548160ff02191690836003811115610ac957610ac8615265565b5b02179055505050565b60606000600160003373ffffffffffffffffffffffffffffffffffffffff1673ffffffffffffffffffffffffffffffffffffffff1681526020019081526020016000208054610b2090615713565b80601f0160208091040260200160405190810160405280929190818152602001828054610b4c90615713565b8015610b995780601f10610b6e57610100808354040283529160200191610b99565b820191906000526020600020905b815481529060010190602001808311610b7c57829003601f168201915b5050505050905060006003811115610bb457610bb3615265565b5b600382604051610bc49190615775565b908152602001604051809103902060009054906101000a900460ff166003811115610bf257610bf1615265565b5b03610c29576040517f8fa622f500000000000000000000000000000000000000000000000000000000815260040160405180910390fd5b60026003811115610c3d57610c3c615265565b5b600382604051610c4d9190615775565b908152602001604051809103902060009054906101000a900460ff166003811115610c7b57610c7a615265565b5b14610cb2576040517f8ac8e00b00000000000000000000000000000000000000000000000000000000815260040160405180910390fd5b868660006001811115610cc857610cc7615265565b5b60088383604051610cda9291906156cb565b908152602001604051809103902060009054906101000a900460ff166001811115610d0857610d07615265565b5b03610d3f576040517f078de8bf00000000000000000000000000000000000000000000000000000000815260040160405180910390fd5b6000600160003373ffffffffffffffffffffffffffffffffffffffff1673ffffffffffffffffffffffffffffffffffffffff1681526020019081526020016000208054610d8b90615713565b80601f0160208091040260200160405190810160405280929190818152602001828054610db790615713565b8015610e045780601f10610dd957610100808354040283529160200191610e04565b820191906000526020600020905b815481529060010190602001808311610de757829003601f168201915b50505050509050600060098484604051610e1f9291906156cb565b9081526020016040518091039020604051610e3990615887565b90815260200160405180910390208054610e5290615713565b80601f0160208091040260200160405190810160405280929190818152602001828054610e7e90615713565b8015610ecb5780601f10610ea057610100808354040283529160200191610ecb565b820191906000526020600020905b815481529060010190602001808311610eae57829003601f168201915b5050505050905080604051602001610ee39190615775565b6040516020818303038152906040528051906020012082604051602001610f0a9190615775565b6040516020818303038152906040528051906020012014610f57576040517fca7b7fb200000000000000000000000000000000000000000000000000000000815260040160405180910390fd5b861561102b5760098b8b604051610f6f9291906156cb565b90815260200160405180910390208989604051610f8d9291906156cb565b90815260200160405180910390208054610fa690615713565b80601f0160208091040260200160405190810160405280929190818152602001828054610fd290615713565b801561101f5780601f10610ff45761010080835404028352916020019161101f565b820191906000526020600020905b81548152906001019060200180831161100257829003601f168201915b505050505095506110ff565b866110fe57600d8b8b6040516110429291906156cb565b908152602001604051809103902089896040516110609291906156cb565b9081526020016040518091039020805461107990615713565b80601f01602080910402602001604051908101604052809291908181526020018280546110a590615713565b80156110f25780601f106110c7576101008083540402835291602001916110f2565b820191906000526020600020905b8154815290600101906020018083116110d557829003601f168201915b505050505095506110ff565b5b505050505095945050505050565b6060600660003373ffffffffffffffffffffffffffffffffffffffff1673ffffffffffffffffffffffffffffffffffffffff168152602001908152602001600020805461115990615713565b80601f016020809104026020016040519081016040528092919081815260200182805461118590615713565b80156111d25780601f106111a7576101008083540402835291602001916111d2565b820191906000526020600020905b8154815290600101906020018083116111b557829003601f168201915b5050505050905090565b6060600060018111156111f2576111f1615265565b5b600886866040516112049291906156cb565b908152602001604051809103902060009054906101000a900460ff16600181111561123257611231615265565b5b03611269576040517f078de8bf00000000000000000000000000000000000000000000000000000000815260040160405180910390fd5b848460405160200161127c9291906156cb565b60405160208183030381529060405280519060200120600660003373ffffffffffffffffffffffffffffffffffffffff1673ffffffffffffffffffffffffffffffffffffffff1681526020019081526020016000206040516020016112e19190615824565b6040516020818303038152906040528051906020012014806113895750600e60003373ffffffffffffffffffffffffffffffffffffffff1673ffffffffffffffffffffffffffffffffffffffff168152602001908152602001600020858560405161134d9291906156cb565b9081526020016040518091039020838360405161136b9291906156cb565b908152602001604051809103902060009054906101000a900460ff16155b156113c0576040517f722f899200000000000000000000000000000000000000000000000000000000815260040160405180910390fd5b600985856040516113d29291906156cb565b908152602001604051809103902083836040516113f09291906156cb565b9081526020016040518091039020805461140990615713565b80601f016020809104026020016040519081016040528092919081815260200182805461143590615713565b80156114825780601f1061145757610100808354040283529160200191611482565b820191906000526020600020905b81548152906001019060200180831161146557829003601f168201915b50505050509050949350505050565b6000600883836040516114a59291906156cb565b908152602001604051809103902060009054906101000a900460ff16905092915050565b6060600160003373ffffffffffffffffffffffffffffffffffffffff1673ffffffffffffffffffffffffffffffffffffffff168152602001908152602001600020805461151590615713565b80601f016020809104026020016040519081016040528092919081815260200182805461154190615713565b801561158e5780601f106115635761010080835404028352916020019161158e565b820191906000526020600020905b81548152906001019060200180831161157157829003601f168201915b5050505050905090565b6000600160003373ffffffffffffffffffffffffffffffffffffffff1673ffffffffffffffffffffffffffffffffffffffff16815260200190815260200160002080546115e490615713565b80601f016020809104026020016040519081016040528092919081815260200182805461161090615713565b801561165d5780601f106116325761010080835404028352916020019161165d565b820191906000526020600020905b81548152906001019060200180831161164057829003601f168201915b505050505090506000600381111561167857611677615265565b5b6003826040516116889190615775565b908152602001604051809103902060009054906101000a900460ff1660038111156116b6576116b5615265565b5b036116ed576040517f8fa622f500000000000000000000000000000000000000000000000000000000815260040160405180910390fd5b6002600381111561170157611700615265565b5b6003826040516117119190615775565b908152602001604051809103902060009054906101000a900460ff16600381111561173f5761173e615265565b5b14611776576040517f8ac8e00b00000000000000000000000000000000000000000000000000000000815260040160405180910390fd5b6000600160003373ffffffffffffffffffffffffffffffffffffffff1673ffffffffffffffffffffffffffffffffffffffff16815260200190815260200160002080546117c290615713565b80601f01602080910402602001604051908101604052809291908181526020018280546117ee90615713565b801561183b5780601f106118105761010080835404028352916020019161183b565b820191906000526020600020905b81548152906001019060200180831161181e57829003601f168201915b50505050509050600061184d8a614539565b905080600660008c73ffffffffffffffffffffffffffffffffffffffff1673ffffffffffffffffffffffffffffffffffffffff168152602001908152602001600020908161189b9190615a3d565b506007826040516118ac9190615775565b9081526020016040518091039020819080600181540180825580915050600190039060005260206000200160009091909190915090816118ec9190615a3d565b5060016008826040516118ff9190615775565b908152602001604051809103902060006101000a81548160ff0219169083600181111561192f5761192e615265565b5b0217905550611974816040518060400160405280600a81526020017f436f6c6c6567652049640000000000000000000000000000000000000000000081525084614578565b6119f8816040518060400160405280600c81526020017f53747564656e74204e616d6500000000000000000000000000000000000000008152508b8b8080601f016020809104026020016040519081016040528093929190818152602001838380828437600081840152601f19601f82011690508083019250505050505050614578565b611a7c816040518060400160405280600b81526020017f53747564656e742041676500000000000000000000000000000000000000000081525089898080601f016020809104026020016040519081016040528093929190818152602001838380828437600081840152601f19601f82011690508083019250505050505050614578565b611b00816040518060400160405280601281526020017f53747564656e742050657263656e74616765000000000000000000000000000081525087878080601f016020809104026020016040519081016040528093929190818152602001838380828437600081840152601f19601f82011690508083019250505050505050614578565b50505050505050505050565b6000611b1733614539565b905080600160003373ffffffffffffffffffffffffffffffffffffffff1673ffffffffffffffffffffffffffffffffffffffff1681526020019081526020016000209081611b659190615a3d565b50600281908060018154018082558091505060019003906000526020600020016000909190919091509081611b9a9190615a3d565b506001600382604051611bad9190615775565b908152602001604051809103902060006101000a81548160ff02191690836003811115611bdd57611bdc615265565b5b0217905550611c66816040518060400160405280600c81526020017f436f6c6c656765204e616d65000000000000000000000000000000000000000081525085858080601f016020809104026020016040519081016040528093929190818152602001838380828437600081840152601f19601f820116905080830192505050505050506146e8565b505050565b60606002805480602002602001604051908101604052809291908181526020016000905b82821015611d3b578382906000526020600020018054611cae90615713565b80601f0160208091040260200160405190810160405280929190818152602001828054611cda90615713565b8015611d275780601f10611cfc57610100808354040283529160200191611d27565b820191906000526020600020905b815481529060010190602001808311611d0a57829003601f168201915b505050505081526020019060010190611c8f565b50505050905090565b60008060009054906101000a900473ffffffffffffffffffffffffffffffffffffffff16905090565b6000600160003373ffffffffffffffffffffffffffffffffffffffff1673ffffffffffffffffffffffffffffffffffffffff1681526020019081526020016000208054611db990615713565b80601f0160208091040260200160405190810160405280929190818152602001828054611de590615713565b8015611e325780601f10611e0757610100808354040283529160200191611e32565b820191906000526020600020905b815481529060010190602001808311611e1557829003601f168201915b5050505050905060006003811115611e4d57611e4c615265565b5b600382604051611e5d9190615775565b908152602001604051809103902060009054906101000a900460ff166003811115611e8b57611e8a615265565b5b03611ec2576040517f8fa622f500000000000000000000000000000000000000000000000000000000815260040160405180910390fd5b60026003811115611ed657611ed5615265565b5b600382604051611ee69190615775565b908152602001604051809103902060009054906101000a900460ff166003811115611f1457611f13615265565b5b14611f4b576040517f8ac8e00b00000000000000000000000000000000000000000000000000000000815260040160405180910390fd5b868660006001811115611f6157611f60615265565b5b60088383604051611f739291906156cb565b908152602001604051809103902060009054906101000a900460ff166001811115611fa157611fa0615265565b5b03611fd8576040517f078de8bf00000000000000000000000000000000000000000000000000000000815260040160405180910390fd5b6000600160003373ffffffffffffffffffffffffffffffffffffffff1673ffffffffffffffffffffffffffffffffffffffff168152602001908152602001600020805461202490615713565b80601f016020809104026020016040519081016040528092919081815260200182805461205090615713565b801561209d5780601f106120725761010080835404028352916020019161209d565b820191906000526020600020905b81548152906001019060200180831161208057829003601f168201915b505050505090506000600984846040516120b89291906156cb565b90815260200160405180910390206040516120d290615887565b908152602001604051809103902080546120eb90615713565b80601f016020809104026020016040519081016040528092919081815260200182805461211790615713565b80156121645780601f1061213957610100808354040283529160200191612164565b820191906000526020600020905b81548152906001019060200180831161214757829003601f168201915b505050505090508060405160200161217c9190615775565b60405160208183030381529060405280519060200120826040516020016121a39190615775565b60405160208183030381529060405280519060200120146121f0576040517fca7b7fb200000000000000000000000000000000000000000000000000000000815260040160405180910390fd5b86869050898990501461222f576040517f79b3f46f00000000000000000000000000000000000000000000000000000000815260040160405180910390fd5b60005b8989905081101561241557600088888381811061225257612251615b0f565b5b90506020028101906122649190615b4d565b8080601f016020809104026020016040519081016040528093929190818152602001838380828437600081840152601f19601f82011690508083019250505050505050905060008151036122e4576040517f47b4af9400000000000000000000000000000000000000000000000000000000815260040160405180910390fd5b6124018d8d8080601f016020809104026020016040519081016040528093929190818152602001838380828437600081840152601f19601f820116905080830192505050505050508c8c8581811061233f5761233e615b0f565b5b90506020028101906123519190615b4d565b8080601f016020809104026020016040519081016040528093929190818152602001838380828437600081840152601f19601f820116905080830192505050505050508b8b868181106123a7576123a6615b0f565b5b90506020028101906123b99190615b4d565b8080601f016020809104026020016040519081016040528093929190818152602001838380828437600081840152601f19601f82011690508083019250505050505050614578565b50808061240d90615bdf565b915050612232565b505050505050505050505050565b6000600160003373ffffffffffffffffffffffffffffffffffffffff1673ffffffffffffffffffffffffffffffffffffffff168152602001908152602001600020805461246f90615713565b80601f016020809104026020016040519081016040528092919081815260200182805461249b90615713565b80156124e85780601f106124bd576101008083540402835291602001916124e8565b820191906000526020600020905b8154815290600101906020018083116124cb57829003601f168201915b505050505090506000600381111561250357612502615265565b5b6003826040516125139190615775565b908152602001604051809103902060009054906101000a900460ff16600381111561254157612540615265565b5b03612578576040517f8fa622f500000000000000000000000000000000000000000000000000000000815260040160405180910390fd5b6002600381111561258c5761258b615265565b5b60038260405161259c9190615775565b908152602001604051809103902060009054906101000a900460ff1660038111156125ca576125c9615265565b5b14612601576040517f8ac8e00b00000000000000000000000000000000000000000000000000000000815260040160405180910390fd5b600083838080601f016020809104026020016040519081016040528093929190818152602001838380828437600081840152601f19601f8201169050808301925050505050505090506000815103612685576040517f47b4af9400000000000000000000000000000000000000000000000000000000815260040160405180910390fd5b6000600160003373ffffffffffffffffffffffffffffffffffffffff1673ffffffffffffffffffffffffffffffffffffffff16815260200190815260200160002080546126d190615713565b80601f01602080910402602001604051908101604052809291908181526020018280546126fd90615713565b801561274a5780601f1061271f5761010080835404028352916020019161274a565b820191906000526020600020905b81548152906001019060200180831161272d57829003601f168201915b505050505090506127e48188888080601f016020809104026020016040519081016040528093929190818152602001838380828437600081840152601f19601f8201169050808301925050505050505087878080601f016020809104026020016040519081016040528093929190818152602001838380828437600081840152601f19601f820116905080830192505050505050506146e8565b50505050505050565b6060600485856040516128019291906156cb565b9081526020016040518091039020838360405161281f9291906156cb565b9081526020016040518091039020805461283890615713565b80601f016020809104026020016040519081016040528092919081815260200182805461286490615713565b80156128b15780601f10612886576101008083540402835291602001916128b1565b820191906000526020600020905b81548152906001019060200180831161289457829003601f168201915b50505050509050949350505050565b6000600660003373ffffffffffffffffffffffffffffffffffffffff1673ffffffffffffffffffffffffffffffffffffffff168152602001908152602001600020805461290c90615713565b80601f016020809104026020016040519081016040528092919081815260200182805461293890615713565b80156129855780601f1061295a57610100808354040283529160200191612985565b820191906000526020600020905b81548152906001019060200180831161296857829003601f168201915b50505050509050600060018111156129a05761299f615265565b5b6008826040516129b09190615775565b908152602001604051809103902060009054906101000a900460ff1660018111156129de576129dd615265565b5b03612a15576040517f078de8bf00000000000000000000000000000000000000000000000000000000815260040160405180910390fd5b6000600660003373ffffffffffffffffffffffffffffffffffffffff1673ffffffffffffffffffffffffffffffffffffffff1681526020019081526020016000208054612a6190615713565b80601f0160208091040260200160405190810160405280929190818152602001828054612a8d90615713565b8015612ada5780601f10612aaf57610100808354040283529160200191612ada565b820191906000526020600020905b815481529060010190602001808311612abd57829003601f168201915b505050505090506001600e60008773ffffffffffffffffffffffffffffffffffffffff1673ffffffffffffffffffffffffffffffffffffffff16815260200190815260200160002082604051612b309190615775565b90815260200160405180910390208585604051612b4e9291906156cb565b908152602001604051809103902060006101000a81548160ff0219169083151502179055505050505050565b6000600660003373ffffffffffffffffffffffffffffffffffffffff1673ffffffffffffffffffffffffffffffffffffffff1681526020019081526020016000208054612bc690615713565b80601f0160208091040260200160405190810160405280929190818152602001828054612bf290615713565b8015612c3f5780601f10612c1457610100808354040283529160200191612c3f565b820191906000526020600020905b815481529060010190602001808311612c2257829003601f168201915b5050505050905060006001811115612c5a57612c59615265565b5b600882604051612c6a9190615775565b908152602001604051809103902060009054906101000a900460ff166001811115612c9857612c97615265565b5b03612ccf576040517f078de8bf00000000000000000000000000000000000000000000000000000000815260040160405180910390fd5b828290508585905014612d0e576040517f79b3f46f00000000000000000000000000000000000000000000000000000000815260040160405180910390fd5b6000600660003373ffffffffffffffffffffffffffffffffffffffff1673ffffffffffffffffffffffffffffffffffffffff1681526020019081526020016000208054612d5a90615713565b80601f0160208091040260200160405190810160405280929190818152602001828054612d8690615713565b8015612dd35780601f10612da857610100808354040283529160200191612dd3565b820191906000526020600020905b815481529060010190602001808311612db657829003601f168201915b5050505050905060005b86869050811015612f6057600b82604051612df89190615775565b9081526020016040518091039020878783818110612e1957612e18615b0f565b5b9050602002810190612e2b9190615b4d565b604051612e399291906156cb565b908152602001604051809103902060009054906101000a900460ff16612e8b576040517f722f899200000000000000000000000000000000000000000000000000000000815260040160405180910390fd5b612ebb82888884818110612ea257612ea1615b0f565b5b9050602002810190612eb49190615b4d565b6001614858565b848482818110612ece57612ecd615b0f565b5b9050602002810190612ee09190615b4d565b600d84604051612ef09190615775565b9081526020016040518091039020898985818110612f1157612f10615b0f565b5b9050602002810190612f239190615b4d565b604051612f319291906156cb565b90815260200160405180910390209182612f4c929190615c32565b508080612f5890615bdf565b915050612ddd565b50505050505050565b6000600160003373ffffffffffffffffffffffffffffffffffffffff1673ffffffffffffffffffffffffffffffffffffffff1681526020019081526020016000208054612fb590615713565b80601f0160208091040260200160405190810160405280929190818152602001828054612fe190615713565b801561302e5780601f106130035761010080835404028352916020019161302e565b820191906000526020600020905b81548152906001019060200180831161301157829003601f168201915b505050505090506000600381111561304957613048615265565b5b6003826040516130599190615775565b908152602001604051809103902060009054906101000a900460ff16600381111561308757613086615265565b5b036130be576040517f8fa622f500000000000000000000000000000000000000000000000000000000815260040160405180910390fd5b600260038111156130d2576130d1615265565b5b6003826040516130e29190615775565b908152602001604051809103902060009054906101000a900460ff1660038111156131105761310f615265565b5b14613147576040517f8ac8e00b00000000000000000000000000000000000000000000000000000000815260040160405180910390fd5b84846000600181111561315d5761315c615265565b5b6008838360405161316f9291906156cb565b908152602001604051809103902060009054906101000a900460ff16600181111561319d5761319c615265565b5b036131d4576040517f078de8bf00000000000000000000000000000000000000000000000000000000815260040160405180910390fd5b6000600160003373ffffffffffffffffffffffffffffffffffffffff1673ffffffffffffffffffffffffffffffffffffffff168152602001908152602001600020805461322090615713565b80601f016020809104026020016040519081016040528092919081815260200182805461324c90615713565b80156132995780601f1061326e57610100808354040283529160200191613299565b820191906000526020600020905b81548152906001019060200180831161327c57829003601f168201915b505050505090506000600984846040516132b49291906156cb565b90815260200160405180910390206040516132ce90615887565b908152602001604051809103902080546132e790615713565b80601f016020809104026020016040519081016040528092919081815260200182805461331390615713565b80156133605780601f1061333557610100808354040283529160200191613360565b820191906000526020600020905b81548152906001019060200180831161334357829003601f168201915b50505050509050806040516020016133789190615775565b604051602081830303815290604052805190602001208260405160200161339f9190615775565b60405160208183030381529060405280519060200120146133ec576040517fca7b7fb200000000000000000000000000000000000000000000000000000000815260040160405180910390fd5b61343d89898080601f016020809104026020016040519081016040528093929190818152602001838380828437600081840152601f19601f8201169050808301925050505050505088886000614858565b61359689898080601f016020809104026020016040519081016040528093929190818152602001838380828437600081840152601f19601f8201169050808301925050505050505088888080601f016020809104026020016040519081016040528093929190818152602001838380828437600081840152601f19601f82011690508083019250505050505050600d8c8c6040516134dc9291906156cb565b90815260200160405180910390208a8a6040516134fa9291906156cb565b9081526020016040518091039020805461351390615713565b80601f016020809104026020016040519081016040528092919081815260200182805461353f90615713565b801561358c5780601f106135615761010080835404028352916020019161358c565b820191906000526020600020905b81548152906001019060200180831161356f57829003601f168201915b5050505050614578565b505050505050505050565b6000600383836040516135b59291906156cb565b908152602001604051809103902060009054906101000a900460ff16905092915050565b60008054906101000a900473ffffffffffffffffffffffffffffffffffffffff1673ffffffffffffffffffffffffffffffffffffffff163373ffffffffffffffffffffffffffffffffffffffff161461365e576040517f2dca963600000000000000000000000000000000000000000000000000000000815260040160405180910390fd5b6000600381111561367257613671615265565b5b600383836040516136849291906156cb565b908152602001604051809103902060009054906101000a900460ff1660038111156136b2576136b1615265565b5b036136e9576040517f567e9be600000000000000000000000000000000000000000000000000000000815260040160405180910390fd5b600260038111156136fd576136fc615265565b5b6003838360405161370f9291906156cb565b908152602001604051809103902060009054906101000a900460ff16600381111561373d5761373c615265565b5b03613774576040517f61fd49df00000000000000000000000000000000000000000000000000000000815260040160405180910390fd5b6002600383836040516137889291906156cb565b908152602001604051809103902060006101000a81548160ff021916908360038111156137b8576137b7615265565b5b02179055505050565b600080600160003373ffffffffffffffffffffffffffffffffffffffff1673ffffffffffffffffffffffffffffffffffffffff168152602001908152602001600020805461380e90615713565b80601f016020809104026020016040519081016040528092919081815260200182805461383a90615713565b80156138875780601f1061385c57610100808354040283529160200191613887565b820191906000526020600020905b81548152906001019060200180831161386a57829003601f168201915b50505050509050600060038111156138a2576138a1615265565b5b6003826040516138b29190615775565b908152602001604051809103902060009054906101000a900460ff1660038111156138e0576138df615265565b5b03613917576040517f8fa622f500000000000000000000000000000000000000000000000000000000815260040160405180910390fd5b6002600381111561392b5761392a615265565b5b60038260405161393b9190615775565b908152602001604051809103902060009054906101000a900460ff16600381111561396957613968615265565b5b146139a0576040517f8ac8e00b00000000000000000000000000000000000000000000000000000000815260040160405180910390fd5b8585600060018111156139b6576139b5615265565b5b600883836040516139c89291906156cb565b908152602001604051809103902060009054906101000a900460ff1660018111156139f6576139f5615265565b5b03613a2d576040517f078de8bf00000000000000000000000000000000000000000000000000000000815260040160405180910390fd5b6000600160003373ffffffffffffffffffffffffffffffffffffffff1673ffffffffffffffffffffffffffffffffffffffff1681526020019081526020016000208054613a7990615713565b80601f0160208091040260200160405190810160405280929190818152602001828054613aa590615713565b8015613af25780601f10613ac757610100808354040283529160200191613af2565b820191906000526020600020905b815481529060010190602001808311613ad557829003601f168201915b50505050509050600060098484604051613b0d9291906156cb565b9081526020016040518091039020604051613b2790615887565b90815260200160405180910390208054613b4090615713565b80601f0160208091040260200160405190810160405280929190818152602001828054613b6c90615713565b8015613bb95780601f10613b8e57610100808354040283529160200191613bb9565b820191906000526020600020905b815481529060010190602001808311613b9c57829003601f168201915b5050505050905080604051602001613bd19190615775565b6040516020818303038152906040528051906020012082604051602001613bf89190615775565b6040516020818303038152906040528051906020012014613c45576040517fca7b7fb200000000000000000000000000000000000000000000000000000000815260040160405180910390fd5b600c8a8a604051613c579291906156cb565b90815260200160405180910390208888604051613c759291906156cb565b908152602001604051809103902060009054906101000a900460ff1695505050505050949350505050565b6060600a8383604051613cb49291906156cb565b9081526020016040518091039020805480602002602001604051908101604052809291908181526020016000905b82821015613d8e578382906000526020600020018054613d0190615713565b80601f0160208091040260200160405190810160405280929190818152602001828054613d2d90615713565b8015613d7a5780601f10613d4f57610100808354040283529160200191613d7a565b820191906000526020600020905b815481529060010190602001808311613d5d57829003601f168201915b505050505081526020019060010190613ce2565b50505050905092915050565b6000600660003373ffffffffffffffffffffffffffffffffffffffff1673ffffffffffffffffffffffffffffffffffffffff1681526020019081526020016000208054613de690615713565b80601f0160208091040260200160405190810160405280929190818152602001828054613e1290615713565b8015613e5f5780601f10613e3457610100808354040283529160200191613e5f565b820191906000526020600020905b815481529060010190602001808311613e4257829003601f168201915b5050505050905060006001811115613e7a57613e79615265565b5b600882604051613e8a9190615775565b908152602001604051809103902060009054906101000a900460ff166001811115613eb857613eb7615265565b5b03613eef576040517f078de8bf00000000000000000000000000000000000000000000000000000000815260040160405180910390fd5b6000600660003373ffffffffffffffffffffffffffffffffffffffff1673ffffffffffffffffffffffffffffffffffffffff1681526020019081526020016000208054613f3b90615713565b80601f0160208091040260200160405190810160405280929190818152602001828054613f6790615713565b8015613fb45780601f10613f8957610100808354040283529160200191613fb4565b820191906000526020600020905b815481529060010190602001808311613f9757829003601f168201915b505050505090506000600e60008773ffffffffffffffffffffffffffffffffffffffff1673ffffffffffffffffffffffffffffffffffffffff1681526020019081526020016000208260405161400a9190615775565b908152602001604051809103902085856040516140289291906156cb565b908152602001604051809103902060006101000a81548160ff0219169083151502179055505050505050565b6000600160003373ffffffffffffffffffffffffffffffffffffffff1673ffffffffffffffffffffffffffffffffffffffff16815260200190815260200160002080546140a090615713565b80601f01602080910402602001604051908101604052809291908181526020018280546140cc90615713565b80156141195780601f106140ee57610100808354040283529160200191614119565b820191906000526020600020905b8154815290600101906020018083116140fc57829003601f168201915b505050505090506000600381111561413457614133615265565b5b6003826040516141449190615775565b908152602001604051809103902060009054906101000a900460ff16600381111561417257614171615265565b5b036141a9576040517f8fa622f500000000000000000000000000000000000000000000000000000000815260040160405180910390fd5b600260038111156141bd576141bc615265565b5b6003826040516141cd9190615775565b908152602001604051809103902060009054906101000a900460ff1660038111156141fb576141fa615265565b5b14614232576040517f8ac8e00b00000000000000000000000000000000000000000000000000000000815260040160405180910390fd5b85856000600181111561424857614247615265565b5b6008838360405161425a9291906156cb565b908152602001604051809103902060009054906101000a900460ff16600181111561428857614287615265565b5b036142bf576040517f078de8bf00000000000000000000000000000000000000000000000000000000815260040160405180910390fd5b6000600160003373ffffffffffffffffffffffffffffffffffffffff1673ffffffffffffffffffffffffffffffffffffffff168152602001908152602001600020805461430b90615713565b80601f016020809104026020016040519081016040528092919081815260200182805461433790615713565b80156143845780601f1061435957610100808354040283529160200191614384565b820191906000526020600020905b81548152906001019060200180831161436757829003601f168201915b5050505050905060006009848460405161439f9291906156cb565b90815260200160405180910390206040516143b990615887565b908152602001604051809103902080546143d290615713565b80601f01602080910402602001604051908101604052809291908181526020018280546143fe90615713565b801561444b5780601f106144205761010080835404028352916020019161444b565b820191906000526020600020905b81548152906001019060200180831161442e57829003601f168201915b50505050509050806040516020016144639190615775565b604051602081830303815290604052805190602001208260405160200161448a9190615775565b60405160208183030381529060405280519060200120146144d7576040517fca7b7fb200000000000000000000000000000000000000000000000000000000815260040160405180910390fd5b85600b8b8b6040516144ea9291906156cb565b908152602001604051809103902089896040516145089291906156cb565b908152602001604051809103902060006101000a81548160ff02191690831515021790555050505050505050505050565b606061457182424460405160200161455393929190615d6b565b6040516020818303038152906040528051906020012060001c6148c2565b9050919050565b600060098460405161458a9190615775565b9081526020016040518091039020836040516145a69190615775565b908152602001604051809103902080546145bf90615713565b80601f01602080910402602001604051908101604052809291908181526020018280546145eb90615713565b80156146385780601f1061460d57610100808354040283529160200191614638565b820191906000526020600020905b81548152906001019060200180831161461b57829003601f168201915b50505050509050600081510361469a57600a846040516146589190615775565b9081526020016040518091039020839080600181540180825580915050600190039060005260206000200160009091909190915090816146989190615a3d565b505b816009856040516146ab9190615775565b9081526020016040518091039020846040516146c79190615775565b908152602001604051809103902090816146e19190615a3d565b5050505050565b60006004846040516146fa9190615775565b9081526020016040518091039020836040516147169190615775565b9081526020016040518091039020805461472f90615713565b80601f016020809104026020016040519081016040528092919081815260200182805461475b90615713565b80156147a85780601f1061477d576101008083540402835291602001916147a8565b820191906000526020600020905b81548152906001019060200180831161478b57829003601f168201915b50505050509050600081510361480a576005846040516147c89190615775565b9081526020016040518091039020839080600181540180825580915050600190039060005260206000200160009091909190915090816148089190615a3d565b505b8160048560405161481b9190615775565b9081526020016040518091039020846040516148379190615775565b908152602001604051809103902090816148519190615a3d565b5050505050565b80600c856040516148699190615775565b908152602001604051809103902084846040516148879291906156cb565b908152602001604051809103902060006101000a81548160ff021916908360028111156148b7576148b6615265565b5b021790555050505050565b60606148d98260016148d3856148e0565b01614970565b9050919050565b600080600090506000608084901c111561490257608083901c92506010810190505b6000604084901c111561491d57604083901c92506008810190505b6000602084901c111561493857602083901c92506004810190505b6000601084901c111561495357601083901c92506002810190505b6000600884901c1115614967576001810190505b80915050919050565b6060600060028360026149839190615da8565b61498d9190615dea565b67ffffffffffffffff8111156149a6576149a5614ec7565b5b6040519080825280601f01601f1916602001820160405280156149d85781602001600182028036833780820191505090505b5090507f300000000000000000000000000000000000000000000000000000000000000081600081518110614a1057614a0f615b0f565b5b60200101907effffffffffffffffffffffffffffffffffffffffffffffffffffffffffffff1916908160001a9053507f780000000000000000000000000000000000000000000000000000000000000081600181518110614a7457614a73615b0f565b5b60200101907effffffffffffffffffffffffffffffffffffffffffffffffffffffffffffff1916908160001a90535060006001846002614ab49190615da8565b614abe9190615dea565b90505b6001811115614b5e577f3031323334353637383961626364656600000000000000000000000000000000600f861660108110614b0057614aff615b0f565b5b1a60f81b828281518110614b1757614b16615b0f565b5b60200101907effffffffffffffffffffffffffffffffffffffffffffffffffffffffffffff1916908160001a905350600485901c945080614b5790615e1e565b9050614ac1565b5060008414614ba2576040517f08c379a0000000000000000000000000000000000000000000000000000000008152600401614b9990615e93565b60405180910390fd5b8091505092915050565b6000604051905090565b600080fd5b600080fd5b600073ffffffffffffffffffffffffffffffffffffffff82169050919050565b6000614beb82614bc0565b9050919050565b614bfb81614be0565b8114614c0657600080fd5b50565b600081359050614c1881614bf2565b92915050565b600080fd5b600080fd5b600080fd5b60008083601f840112614c4357614c42614c1e565b5b8235905067ffffffffffffffff811115614c6057614c5f614c23565b5b602083019150836001820283011115614c7c57614c7b614c28565b5b9250929050565b600080600080600060608688031215614c9f57614c9e614bb6565b5b6000614cad88828901614c09565b955050602086013567ffffffffffffffff811115614cce57614ccd614bbb565b5b614cda88828901614c2d565b9450945050604086013567ffffffffffffffff811115614cfd57614cfc614bbb565b5b614d0988828901614c2d565b92509250509295509295909350565b60008115159050919050565b614d2d81614d18565b82525050565b6000602082019050614d486000830184614d24565b92915050565b600081519050919050565b600082825260208201905092915050565b6000819050602082019050919050565b600081519050919050565b600082825260208201905092915050565b60005b83811015614db4578082015181840152602081019050614d99565b60008484015250505050565b6000601f19601f8301169050919050565b6000614ddc82614d7a565b614de68185614d85565b9350614df6818560208601614d96565b614dff81614dc0565b840191505092915050565b6000614e168383614dd1565b905092915050565b6000602082019050919050565b6000614e3682614d4e565b614e408185614d59565b935083602082028501614e5285614d6a565b8060005b85811015614e8e5784840389528151614e6f8582614e0a565b9450614e7a83614e1e565b925060208a01995050600181019050614e56565b50829750879550505050505092915050565b60006020820190508181036000830152614eba8184614e2b565b905092915050565b600080fd5b7f4e487b7100000000000000000000000000000000000000000000000000000000600052604160045260246000fd5b614eff82614dc0565b810181811067ffffffffffffffff82111715614f1e57614f1d614ec7565b5b80604052505050565b6000614f31614bac565b9050614f3d8282614ef6565b919050565b600067ffffffffffffffff821115614f5d57614f5c614ec7565b5b614f6682614dc0565b9050602081019050919050565b82818337600083830152505050565b6000614f95614f9084614f42565b614f27565b905082815260208101848484011115614fb157614fb0614ec2565b5b614fbc848285614f73565b509392505050565b600082601f830112614fd957614fd8614c1e565b5b8135614fe9848260208601614f82565b91505092915050565b6000806040838503121561500957615008614bb6565b5b600083013567ffffffffffffffff81111561502757615026614bbb565b5b61503385828601614fc4565b925050602083013567ffffffffffffffff81111561505457615053614bbb565b5b61506085828601614fc4565b9150509250929050565b6000806020838503121561508157615080614bb6565b5b600083013567ffffffffffffffff81111561509f5761509e614bbb565b5b6150ab85828601614c2d565b92509250509250929050565b6150c081614d18565b81146150cb57600080fd5b50565b6000813590506150dd816150b7565b92915050565b6000806000806000606086880312156150ff576150fe614bb6565b5b600086013567ffffffffffffffff81111561511d5761511c614bbb565b5b61512988828901614c2d565b9550955050602086013567ffffffffffffffff81111561514c5761514b614bbb565b5b61515888828901614c2d565b9350935050604061516b888289016150ce565b9150509295509295909350565b600082825260208201905092915050565b600061519482614d7a565b61519e8185615178565b93506151ae818560208601614d96565b6151b781614dc0565b840191505092915050565b600060208201905081810360008301526151dc8184615189565b905092915050565b600080600080604085870312156151fe576151fd614bb6565b5b600085013567ffffffffffffffff81111561521c5761521b614bbb565b5b61522887828801614c2d565b9450945050602085013567ffffffffffffffff81111561524b5761524a614bbb565b5b61525787828801614c2d565b925092505092959194509250565b7f4e487b7100000000000000000000000000000000000000000000000000000000600052602160045260246000fd5b600281106152a5576152a4615265565b5b50565b60008190506152b682615294565b919050565b60006152c6826152a8565b9050919050565b6152d6816152bb565b82525050565b60006020820190506152f160008301846152cd565b92915050565b60008060008060008060006080888a03121561531657615315614bb6565b5b60006153248a828b01614c09565b975050602088013567ffffffffffffffff81111561534557615344614bbb565b5b6153518a828b01614c2d565b9650965050604088013567ffffffffffffffff81111561537457615373614bbb565b5b6153808a828b01614c2d565b9450945050606088013567ffffffffffffffff8111156153a3576153a2614bbb565b5b6153af8a828b01614c2d565b925092505092959891949750929550565b6153c981614be0565b82525050565b60006020820190506153e460008301846153c0565b92915050565b60008083601f840112615400576153ff614c1e565b5b8235905067ffffffffffffffff81111561541d5761541c614c23565b5b60208301915083602082028301111561543957615438614c28565b5b9250929050565b6000806000806000806060878903121561545d5761545c614bb6565b5b600087013567ffffffffffffffff81111561547b5761547a614bbb565b5b61548789828a01614c2d565b9650965050602087013567ffffffffffffffff8111156154aa576154a9614bbb565b5b6154b689828a016153ea565b9450945050604087013567ffffffffffffffff8111156154d9576154d8614bbb565b5b6154e589828a016153ea565b92509250509295509295509295565b60008060006040848603121561550d5761550c614bb6565b5b600061551b86828701614c09565b935050602084013567ffffffffffffffff81111561553c5761553b614bbb565b5b61554886828701614c2d565b92509250509250925092565b6000806000806040858703121561556e5761556d614bb6565b5b600085013567ffffffffffffffff81111561558c5761558b614bbb565b5b615598878288016153ea565b9450945050602085013567ffffffffffffffff8111156155bb576155ba614bbb565b5b6155c7878288016153ea565b925092505092959194509250565b600481106155e6576155e5615265565b5b50565b60008190506155f7826155d5565b919050565b6000615607826155e9565b9050919050565b615617816155fc565b82525050565b6000602082019050615632600083018461560e565b92915050565b6003811061564957615648615265565b5b50565b600081905061565a82615638565b919050565b600061566a8261564c565b9050919050565b61567a8161565f565b82525050565b60006020820190506156956000830184615671565b92915050565b600081905092915050565b60006156b2838561569b565b93506156bf838584614f73565b82840190509392505050565b60006156d88284866156a6565b91508190509392505050565b7f4e487b7100000000000000000000000000000000000000000000000000000000600052602260045260246000fd5b6000600282049050600182168061572b57607f821691505b60208210810361573e5761573d6156e4565b5b50919050565b600061574f82614d7a565b615759818561569b565b9350615769818560208601614d96565b80840191505092915050565b60006157818284615744565b915081905092915050565b60008190508160005260206000209050919050565b600081546157ae81615713565b6157b8818661569b565b945060018216600081146157d357600181146157e85761581b565b60ff198316865281151582028601935061581b565b6157f18561578c565b60005b83811015615813578154818901526001820191506020810190506157f4565b838801955050505b50505092915050565b600061583082846157a1565b915081905092915050565b7f436f6c6c65676520496400000000000000000000000000000000000000000000600082015250565b6000615871600a8361569b565b915061587c8261583b565b600a82019050919050565b600061589282615864565b9150819050919050565b60006020601f8301049050919050565b600082821b905092915050565b6000600883026158e97fffffffffffffffffffffffffffffffffffffffffffffffffffffffffffffffff826158ac565b6158f386836158ac565b95508019841693508086168417925050509392505050565b6000819050919050565b6000819050919050565b600061593a6159356159308461590b565b615915565b61590b565b9050919050565b6000819050919050565b6159548361591f565b61596861596082615941565b8484546158b9565b825550505050565b600090565b61597d615970565b61598881848461594b565b505050565b5b818110156159ac576159a1600082615975565b60018101905061598e565b5050565b601f8211156159f1576159c28161578c565b6159cb8461589c565b810160208510156159da578190505b6159ee6159e68561589c565b83018261598d565b50505b505050565b600082821c905092915050565b6000615a14600019846008026159f6565b1980831691505092915050565b6000615a2d8383615a03565b9150826002028217905092915050565b615a4682614d7a565b67ffffffffffffffff811115615a5f57615a5e614ec7565b5b615a698254615713565b615a748282856159b0565b600060209050601f831160018114615aa75760008415615a95578287015190505b615a9f8582615a21565b865550615b07565b601f198416615ab58661578c565b60005b82811015615add57848901518255600182019150602085019450602081019050615ab8565b86831015615afa5784890151615af6601f891682615a03565b8355505b6001600288020188555050505b505050505050565b7f4e487b7100000000000000000000000000000000000000000000000000000000600052603260045260246000fd5b600080fd5b600080fd5b600080fd5b60008083356001602003843603038112615b6a57615b69615b3e565b5b80840192508235915067ffffffffffffffff821115615b8c57615b8b615b43565b5b602083019250600182023603831315615ba857615ba7615b48565b5b509250929050565b7f4e487b7100000000000000000000000000000000000000000000000000000000600052601160045260246000fd5b6000615bea8261590b565b91507fffffffffffffffffffffffffffffffffffffffffffffffffffffffffffffffff8203615c1c57615c1b615bb0565b5b600182019050919050565b600082905092915050565b615c3c8383615c27565b67ffffffffffffffff811115615c5557615c54614ec7565b5b615c5f8254615713565b615c6a8282856159b0565b6000601f831160018114615c995760008415615c87578287013590505b615c918582615a21565b865550615cf9565b601f198416615ca78661578c565b60005b82811015615ccf57848901358255600182019150602085019450602081019050615caa565b86831015615cec5784890135615ce8601f891682615a03565b8355505b6001600288020188555050505b50505050505050565b60008160601b9050919050565b6000615d1a82615d02565b9050919050565b6000615d2c82615d0f565b9050919050565b615d44615d3f82614be0565b615d21565b82525050565b6000819050919050565b615d65615d608261590b565b615d4a565b82525050565b6000615d778286615d33565b601482019150615d878285615d54565b602082019150615d978284615d54565b602082019150819050949350505050565b6000615db38261590b565b9150615dbe8361590b565b9250828202615dcc8161590b565b91508282048414831517615de357615de2615bb0565b5b5092915050565b6000615df58261590b565b9150615e008361590b565b9250828201905080821115615e1857615e17615bb0565b5b92915050565b6000615e298261590b565b915060008203615e3c57615e3b615bb0565b5b600182039050919050565b7f537472696e67733a20686578206c656e67746820696e73756666696369656e74600082015250565b6000615e7d602083615178565b9150615e8882615e47565b602082019050919050565b60006020820190508181036000830152615eac81615e70565b905091905056fea2646970667358221220d6025f1bf761dc95b7adc8282821fcde033373cd6590272c7b40af88de82eb1f64736f6c63430008110033","opcodes":"PUSH1 0x80 PUSH1 0x40 MSTORE CALLVALUE DUP1 ISZERO PUSH2 0x10 JUMPI PUSH1 0x0 DUP1 REVERT JUMPDEST POP CALLER PUSH1 0x0 DUP1 PUSH2 0x100 EXP DUP2 SLOAD DUP2 PUSH20 0xFFFFFFFFFFFFFFFFFFFFFFFFFFFFFFFFFFFFFFFF MUL NOT AND SWAP1 DUP4 PUSH20 0xFFFFFFFFFFFFFFFFFFFFFFFFFFFFFFFFFFFFFFFF AND MUL OR SWAP1 SSTORE POP PUSH2 0x5EE9 DUP1 PUSH3 0x61 PUSH1 0x0 CODECOPY PUSH1 0x0 RETURN INVALID PUSH1 0x80 PUSH1 0x40 MSTORE CALLVALUE DUP1 ISZERO PUSH2 0x10 JUMPI PUSH1 0x0 DUP1 REVERT JUMPDEST POP PUSH1 0x4 CALLDATASIZE LT PUSH2 0x173 JUMPI PUSH1 0x0 CALLDATALOAD PUSH1 0xE0 SHR DUP1 PUSH4 0x893D20E8 GT PUSH2 0xDE JUMPI DUP1 PUSH4 0xB4A9F2C4 GT PUSH2 0x97 JUMPI DUP1 PUSH4 0xCE54123D GT PUSH2 0x71 JUMPI DUP1 PUSH4 0xCE54123D EQ PUSH2 0x45A JUMPI DUP1 PUSH4 0xEA055796 EQ PUSH2 0x48A JUMPI DUP1 PUSH4 0xF18B1781 EQ PUSH2 0x4BA JUMPI DUP1 PUSH4 0xF42867A5 EQ PUSH2 0x4D6 JUMPI PUSH2 0x173 JUMP JUMPDEST DUP1 PUSH4 0xB4A9F2C4 EQ PUSH2 0x3F2 JUMPI DUP1 PUSH4 0xBC1829F8 EQ PUSH2 0x40E JUMPI DUP1 PUSH4 0xC2D8EEF3 EQ PUSH2 0x43E JUMPI PUSH2 0x173 JUMP JUMPDEST DUP1 PUSH4 0x893D20E8 EQ PUSH2 0x334 JUMPI DUP1 PUSH4 0x90BFF258 EQ PUSH2 0x352 JUMPI DUP1 PUSH4 0x95A6BA22 EQ PUSH2 0x36E JUMPI DUP1 PUSH4 0x9A645856 EQ PUSH2 0x38A JUMPI DUP1 PUSH4 0x9BE977D6 EQ PUSH2 0x3BA JUMPI DUP1 PUSH4 0xA83CF342 EQ PUSH2 0x3D6 JUMPI PUSH2 0x173 JUMP JUMPDEST DUP1 PUSH4 0x62893B13 GT PUSH2 0x130 JUMPI DUP1 PUSH4 0x62893B13 EQ PUSH2 0x260 JUMPI DUP1 PUSH4 0x75D0B932 EQ PUSH2 0x290 JUMPI DUP1 PUSH4 0x7BB312FD EQ PUSH2 0x2C0 JUMPI DUP1 PUSH4 0x7F3E1E82 EQ PUSH2 0x2DE JUMPI DUP1 PUSH4 0x85C5989E EQ PUSH2 0x2FA JUMPI DUP1 PUSH4 0x88C045E2 EQ PUSH2 0x316 JUMPI PUSH2 0x173 JUMP JUMPDEST DUP1 PUSH4 0x147AABD EQ PUSH2 0x178 JUMPI DUP1 PUSH4 0x1ABF4112 EQ PUSH2 0x1A8 JUMPI DUP1 PUSH4 0x28FD6AE1 EQ PUSH2 0x1C6 JUMPI DUP1 PUSH4 0x3D9C5434 EQ PUSH2 0x1F6 JUMPI DUP1 PUSH4 0x3E6835B4 EQ PUSH2 0x212 JUMPI DUP1 PUSH4 0x53EF780E EQ PUSH2 0x242 JUMPI JUMPDEST PUSH1 0x0 DUP1 REVERT JUMPDEST PUSH2 0x192 PUSH1 0x4 DUP1 CALLDATASIZE SUB DUP2 ADD SWAP1 PUSH2 0x18D SWAP2 SWAP1 PUSH2 0x4C83 JUMP JUMPDEST PUSH2 0x4F2 JUMP JUMPDEST PUSH1 0x40 MLOAD PUSH2 0x19F SWAP2 SWAP1 PUSH2 0x4D33 JUMP JUMPDEST PUSH1 0x40 MLOAD DUP1 SWAP2 SUB SWAP1 RETURN JUMPDEST PUSH2 0x1B0 PUSH2 0x588 JUMP JUMPDEST PUSH1 0x40 MLOAD PUSH2 0x1BD SWAP2 SWAP1 PUSH2 0x4EA0 JUMP JUMPDEST PUSH1 0x40 MLOAD DUP1 SWAP2 SUB SWAP1 RETURN JUMPDEST PUSH2 0x1E0 PUSH1 0x4 DUP1 CALLDATASIZE SUB DUP2 ADD SWAP1 PUSH2 0x1DB SWAP2 SWAP1 PUSH2 0x4FF2 JUMP JUMPDEST PUSH2 0x89A JUMP JUMPDEST PUSH1 0x40 MLOAD PUSH2 0x1ED SWAP2 SWAP1 PUSH2 0x4D33 JUMP JUMPDEST PUSH1 0x40 MLOAD DUP1 SWAP2 SUB SWAP1 RETURN JUMPDEST PUSH2 0x210 PUSH1 0x4 DUP1 CALLDATASIZE SUB DUP2 ADD SWAP1 PUSH2 0x20B SWAP2 SWAP1 PUSH2 0x506A JUMP JUMPDEST PUSH2 0x8EC JUMP JUMPDEST STOP JUMPDEST PUSH2 0x22C PUSH1 0x4 DUP1 CALLDATASIZE SUB DUP2 ADD SWAP1 PUSH2 0x227 SWAP2 SWAP1 PUSH2 0x50E3 JUMP JUMPDEST PUSH2 0xAD2 JUMP JUMPDEST PUSH1 0x40 MLOAD PUSH2 0x239 SWAP2 SWAP1 PUSH2 0x51C2 JUMP JUMPDEST PUSH1 0x40 MLOAD DUP1 SWAP2 SUB SWAP1 RETURN JUMPDEST PUSH2 0x24A PUSH2 0x110D JUMP JUMPDEST PUSH1 0x40 MLOAD PUSH2 0x257 SWAP2 SWAP1 PUSH2 0x51C2 JUMP JUMPDEST PUSH1 0x40 MLOAD DUP1 SWAP2 SUB SWAP1 RETURN JUMPDEST PUSH2 0x27A PUSH1 0x4 DUP1 CALLDATASIZE SUB DUP2 ADD SWAP1 PUSH2 0x275 SWAP2 SWAP1 PUSH2 0x51E4 JUMP JUMPDEST PUSH2 0x11DC JUMP JUMPDEST PUSH1 0x40 MLOAD PUSH2 0x287 SWAP2 SWAP1 PUSH2 0x51C2 JUMP JUMPDEST PUSH1 0x40 MLOAD DUP1 SWAP2 SUB SWAP1 RETURN JUMPDEST PUSH2 0x2AA PUSH1 0x4 DUP1 CALLDATASIZE SUB DUP2 ADD SWAP1 PUSH2 0x2A5 SWAP2 SWAP1 PUSH2 0x506A JUMP JUMPDEST PUSH2 0x1491 JUMP JUMPDEST PUSH1 0x40 MLOAD PUSH2 0x2B7 SWAP2 SWAP1 PUSH2 0x52DC JUMP JUMPDEST PUSH1 0x40 MLOAD DUP1 SWAP2 SUB SWAP1 RETURN JUMPDEST PUSH2 0x2C8 PUSH2 0x14C9 JUMP JUMPDEST PUSH1 0x40 MLOAD PUSH2 0x2D5 SWAP2 SWAP1 PUSH2 0x51C2 JUMP JUMPDEST PUSH1 0x40 MLOAD DUP1 SWAP2 SUB SWAP1 RETURN JUMPDEST PUSH2 0x2F8 PUSH1 0x4 DUP1 CALLDATASIZE SUB DUP2 ADD SWAP1 PUSH2 0x2F3 SWAP2 SWAP1 PUSH2 0x52F7 JUMP JUMPDEST PUSH2 0x1598 JUMP JUMPDEST STOP JUMPDEST PUSH2 0x314 PUSH1 0x4 DUP1 CALLDATASIZE SUB DUP2 ADD SWAP1 PUSH2 0x30F SWAP2 SWAP1 PUSH2 0x506A JUMP JUMPDEST PUSH2 0x1B0C JUMP JUMPDEST STOP JUMPDEST PUSH2 0x31E PUSH2 0x1C6B JUMP JUMPDEST PUSH1 0x40 MLOAD PUSH2 0x32B SWAP2 SWAP1 PUSH2 0x4EA0 JUMP JUMPDEST PUSH1 0x40 MLOAD DUP1 SWAP2 SUB SWAP1 RETURN JUMPDEST PUSH2 0x33C PUSH2 0x1D44 JUMP JUMPDEST PUSH1 0x40 MLOAD PUSH2 0x349 SWAP2 SWAP1 PUSH2 0x53CF JUMP JUMPDEST PUSH1 0x40 MLOAD DUP1 SWAP2 SUB SWAP1 RETURN JUMPDEST PUSH2 0x36C PUSH1 0x4 DUP1 CALLDATASIZE SUB DUP2 ADD SWAP1 PUSH2 0x367 SWAP2 SWAP1 PUSH2 0x5440 JUMP JUMPDEST PUSH2 0x1D6D JUMP JUMPDEST STOP JUMPDEST PUSH2 0x388 PUSH1 0x4 DUP1 CALLDATASIZE SUB DUP2 ADD SWAP1 PUSH2 0x383 SWAP2 SWAP1 PUSH2 0x51E4 JUMP JUMPDEST PUSH2 0x2423 JUMP JUMPDEST STOP JUMPDEST PUSH2 0x3A4 PUSH1 0x4 DUP1 CALLDATASIZE SUB DUP2 ADD SWAP1 PUSH2 0x39F SWAP2 SWAP1 PUSH2 0x51E4 JUMP JUMPDEST PUSH2 0x27ED JUMP JUMPDEST PUSH1 0x40 MLOAD PUSH2 0x3B1 SWAP2 SWAP1 PUSH2 0x51C2 JUMP JUMPDEST PUSH1 0x40 MLOAD DUP1 SWAP2 SUB SWAP1 RETURN JUMPDEST PUSH2 0x3D4 PUSH1 0x4 DUP1 CALLDATASIZE SUB DUP2 ADD SWAP1 PUSH2 0x3CF SWAP2 SWAP1 PUSH2 0x54F4 JUMP JUMPDEST PUSH2 0x28C0 JUMP JUMPDEST STOP JUMPDEST PUSH2 0x3F0 PUSH1 0x4 DUP1 CALLDATASIZE SUB DUP2 ADD SWAP1 PUSH2 0x3EB SWAP2 SWAP1 PUSH2 0x5554 JUMP JUMPDEST PUSH2 0x2B7A JUMP JUMPDEST STOP JUMPDEST PUSH2 0x40C PUSH1 0x4 DUP1 CALLDATASIZE SUB DUP2 ADD SWAP1 PUSH2 0x407 SWAP2 SWAP1 PUSH2 0x51E4 JUMP JUMPDEST PUSH2 0x2F69 JUMP JUMPDEST STOP JUMPDEST PUSH2 0x428 PUSH1 0x4 DUP1 CALLDATASIZE SUB DUP2 ADD SWAP1 PUSH2 0x423 SWAP2 SWAP1 PUSH2 0x506A JUMP JUMPDEST PUSH2 0x35A1 JUMP JUMPDEST PUSH1 0x40 MLOAD PUSH2 0x435 SWAP2 SWAP1 PUSH2 0x561D JUMP JUMPDEST PUSH1 0x40 MLOAD DUP1 SWAP2 SUB SWAP1 RETURN JUMPDEST PUSH2 0x458 PUSH1 0x4 DUP1 CALLDATASIZE SUB DUP2 ADD SWAP1 PUSH2 0x453 SWAP2 SWAP1 PUSH2 0x506A JUMP JUMPDEST PUSH2 0x35D9 JUMP JUMPDEST STOP JUMPDEST PUSH2 0x474 PUSH1 0x4 DUP1 CALLDATASIZE SUB DUP2 ADD SWAP1 PUSH2 0x46F SWAP2 SWAP1 PUSH2 0x51E4 JUMP JUMPDEST PUSH2 0x37C1 JUMP JUMPDEST PUSH1 0x40 MLOAD PUSH2 0x481 SWAP2 SWAP1 PUSH2 0x5680 JUMP JUMPDEST PUSH1 0x40 MLOAD DUP1 SWAP2 SUB SWAP1 RETURN JUMPDEST PUSH2 0x4A4 PUSH1 0x4 DUP1 CALLDATASIZE SUB DUP2 ADD SWAP1 PUSH2 0x49F SWAP2 SWAP1 PUSH2 0x506A JUMP JUMPDEST PUSH2 0x3CA0 JUMP JUMPDEST PUSH1 0x40 MLOAD PUSH2 0x4B1 SWAP2 SWAP1 PUSH2 0x4EA0 JUMP JUMPDEST PUSH1 0x40 MLOAD DUP1 SWAP2 SUB SWAP1 RETURN JUMPDEST PUSH2 0x4D4 PUSH1 0x4 DUP1 CALLDATASIZE SUB DUP2 ADD SWAP1 PUSH2 0x4CF SWAP2 SWAP1 PUSH2 0x54F4 JUMP JUMPDEST PUSH2 0x3D9A JUMP JUMPDEST STOP JUMPDEST PUSH2 0x4F0 PUSH1 0x4 DUP1 CALLDATASIZE SUB DUP2 ADD SWAP1 PUSH2 0x4EB SWAP2 SWAP1 PUSH2 0x50E3 JUMP JUMPDEST PUSH2 0x4054 JUMP JUMPDEST STOP JUMPDEST PUSH1 0x0 PUSH1 0xE PUSH1 0x0 DUP8 PUSH20 0xFFFFFFFFFFFFFFFFFFFFFFFFFFFFFFFFFFFFFFFF AND PUSH20 0xFFFFFFFFFFFFFFFFFFFFFFFFFFFFFFFFFFFFFFFF AND DUP2 MSTORE PUSH1 0x20 ADD SWAP1 DUP2 MSTORE PUSH1 0x20 ADD PUSH1 0x0 KECCAK256 DUP6 DUP6 PUSH1 0x40 MLOAD PUSH2 0x543 SWAP3 SWAP2 SWAP1 PUSH2 0x56CB JUMP JUMPDEST SWAP1 DUP2 MSTORE PUSH1 0x20 ADD PUSH1 0x40 MLOAD DUP1 SWAP2 SUB SWAP1 KECCAK256 DUP4 DUP4 PUSH1 0x40 MLOAD PUSH2 0x561 SWAP3 SWAP2 SWAP1 PUSH2 0x56CB JUMP JUMPDEST SWAP1 DUP2 MSTORE PUSH1 0x20 ADD PUSH1 0x40 MLOAD DUP1 SWAP2 SUB SWAP1 KECCAK256 PUSH1 0x0 SWAP1 SLOAD SWAP1 PUSH2 0x100 EXP SWAP1 DIV PUSH1 0xFF AND SWAP1 POP SWAP6 SWAP5 POP POP POP POP POP JUMP JUMPDEST PUSH1 0x60 PUSH1 0x0 PUSH1 0x1 PUSH1 0x0 CALLER PUSH20 0xFFFFFFFFFFFFFFFFFFFFFFFFFFFFFFFFFFFFFFFF AND PUSH20 0xFFFFFFFFFFFFFFFFFFFFFFFFFFFFFFFFFFFFFFFF AND DUP2 MSTORE PUSH1 0x20 ADD SWAP1 DUP2 MSTORE PUSH1 0x20 ADD PUSH1 0x0 KECCAK256 DUP1 SLOAD PUSH2 0x5D6 SWAP1 PUSH2 0x5713 JUMP JUMPDEST DUP1 PUSH1 0x1F ADD PUSH1 0x20 DUP1 SWAP2 DIV MUL PUSH1 0x20 ADD PUSH1 0x40 MLOAD SWAP1 DUP2 ADD PUSH1 0x40 MSTORE DUP1 SWAP3 SWAP2 SWAP1 DUP2 DUP2 MSTORE PUSH1 0x20 ADD DUP3 DUP1 SLOAD PUSH2 0x602 SWAP1 PUSH2 0x5713 JUMP JUMPDEST DUP1 ISZERO PUSH2 0x64F JUMPI DUP1 PUSH1 0x1F LT PUSH2 0x624 JUMPI PUSH2 0x100 DUP1 DUP4 SLOAD DIV MUL DUP4 MSTORE SWAP2 PUSH1 0x20 ADD SWAP2 PUSH2 0x64F JUMP JUMPDEST DUP3 ADD SWAP2 SWAP1 PUSH1 0x0 MSTORE PUSH1 0x20 PUSH1 0x0 KECCAK256 SWAP1 JUMPDEST DUP2 SLOAD DUP2 MSTORE SWAP1 PUSH1 0x1 ADD SWAP1 PUSH1 0x20 ADD DUP1 DUP4 GT PUSH2 0x632 JUMPI DUP3 SWAP1 SUB PUSH1 0x1F AND DUP3 ADD SWAP2 JUMPDEST POP POP POP POP POP SWAP1 POP PUSH1 0x0 PUSH1 0x3 DUP2 GT ISZERO PUSH2 0x66A JUMPI PUSH2 0x669 PUSH2 0x5265 JUMP JUMPDEST JUMPDEST PUSH1 0x3 DUP3 PUSH1 0x40 MLOAD PUSH2 0x67A SWAP2 SWAP1 PUSH2 0x5775 JUMP JUMPDEST SWAP1 DUP2 MSTORE PUSH1 0x20 ADD PUSH1 0x40 MLOAD DUP1 SWAP2 SUB SWAP1 KECCAK256 PUSH1 0x0 SWAP1 SLOAD SWAP1 PUSH2 0x100 EXP SWAP1 DIV PUSH1 0xFF AND PUSH1 0x3 DUP2 GT ISZERO PUSH2 0x6A8 JUMPI PUSH2 0x6A7 PUSH2 0x5265 JUMP JUMPDEST JUMPDEST SUB PUSH2 0x6DF JUMPI PUSH1 0x40 MLOAD PUSH32 0x8FA622F500000000000000000000000000000000000000000000000000000000 DUP2 MSTORE PUSH1 0x4 ADD PUSH1 0x40 MLOAD DUP1 SWAP2 SUB SWAP1 REVERT JUMPDEST PUSH1 0x2 PUSH1 0x3 DUP2 GT ISZERO PUSH2 0x6F3 JUMPI PUSH2 0x6F2 PUSH2 0x5265 JUMP JUMPDEST JUMPDEST PUSH1 0x3 DUP3 PUSH1 0x40 MLOAD PUSH2 0x703 SWAP2 SWAP1 PUSH2 0x5775 JUMP JUMPDEST SWAP1 DUP2 MSTORE PUSH1 0x20 ADD PUSH1 0x40 MLOAD DUP1 SWAP2 SUB SWAP1 KECCAK256 PUSH1 0x0 SWAP1 SLOAD SWAP1 PUSH2 0x100 EXP SWAP1 DIV PUSH1 0xFF AND PUSH1 0x3 DUP2 GT ISZERO PUSH2 0x731 JUMPI PUSH2 0x730 PUSH2 0x5265 JUMP JUMPDEST JUMPDEST EQ PUSH2 0x768 JUMPI PUSH1 0x40 MLOAD PUSH32 0x8AC8E00B00000000000000000000000000000000000000000000000000000000 DUP2 MSTORE PUSH1 0x4 ADD PUSH1 0x40 MLOAD DUP1 SWAP2 SUB SWAP1 REVERT JUMPDEST PUSH1 0x7 PUSH1 0x1 PUSH1 0x0 CALLER PUSH20 0xFFFFFFFFFFFFFFFFFFFFFFFFFFFFFFFFFFFFFFFF AND PUSH20 0xFFFFFFFFFFFFFFFFFFFFFFFFFFFFFFFFFFFFFFFF AND DUP2 MSTORE PUSH1 0x20 ADD SWAP1 DUP2 MSTORE PUSH1 0x20 ADD PUSH1 0x0 KECCAK256 PUSH1 0x40 MLOAD PUSH2 0x7B6 SWAP2 SWAP1 PUSH2 0x5824 JUMP JUMPDEST SWAP1 DUP2 MSTORE PUSH1 0x20 ADD PUSH1 0x40 MLOAD DUP1 SWAP2 SUB SWAP1 KECCAK256 DUP1 SLOAD DUP1 PUSH1 0x20 MUL PUSH1 0x20 ADD PUSH1 0x40 MLOAD SWAP1 DUP2 ADD PUSH1 0x40 MSTORE DUP1 SWAP3 SWAP2 SWAP1 DUP2 DUP2 MSTORE PUSH1 0x20 ADD PUSH1 0x0 SWAP1 JUMPDEST DUP3 DUP3 LT ISZERO PUSH2 0x890 JUMPI DUP4 DUP3 SWAP1 PUSH1 0x0 MSTORE PUSH1 0x20 PUSH1 0x0 KECCAK256 ADD DUP1 SLOAD PUSH2 0x803 SWAP1 PUSH2 0x5713 JUMP JUMPDEST DUP1 PUSH1 0x1F ADD PUSH1 0x20 DUP1 SWAP2 DIV MUL PUSH1 0x20 ADD PUSH1 0x40 MLOAD SWAP1 DUP2 ADD PUSH1 0x40 MSTORE DUP1 SWAP3 SWAP2 SWAP1 DUP2 DUP2 MSTORE PUSH1 0x20 ADD DUP3 DUP1 SLOAD PUSH2 0x82F SWAP1 PUSH2 0x5713 JUMP JUMPDEST DUP1 ISZERO PUSH2 0x87C JUMPI DUP1 PUSH1 0x1F LT PUSH2 0x851 JUMPI PUSH2 0x100 DUP1 DUP4 SLOAD DIV MUL DUP4 MSTORE SWAP2 PUSH1 0x20 ADD SWAP2 PUSH2 0x87C JUMP JUMPDEST DUP3 ADD SWAP2 SWAP1 PUSH1 0x0 MSTORE PUSH1 0x20 PUSH1 0x0 KECCAK256 SWAP1 JUMPDEST DUP2 SLOAD DUP2 MSTORE SWAP1 PUSH1 0x1 ADD SWAP1 PUSH1 0x20 ADD DUP1 DUP4 GT PUSH2 0x85F JUMPI DUP3 SWAP1 SUB PUSH1 0x1F AND DUP3 ADD SWAP2 JUMPDEST POP POP POP POP POP DUP2 MSTORE PUSH1 0x20 ADD SWAP1 PUSH1 0x1 ADD SWAP1 PUSH2 0x7E4 JUMP JUMPDEST POP POP POP POP SWAP2 POP POP SWAP1 JUMP JUMPDEST PUSH1 0x0 PUSH1 0xB DUP4 PUSH1 0x40 MLOAD PUSH2 0x8AC SWAP2 SWAP1 PUSH2 0x5775 JUMP JUMPDEST SWAP1 DUP2 MSTORE PUSH1 0x20 ADD PUSH1 0x40 MLOAD DUP1 SWAP2 SUB SWAP1 KECCAK256 DUP3 PUSH1 0x40 MLOAD PUSH2 0x8C8 SWAP2 SWAP1 PUSH2 0x5775 JUMP JUMPDEST SWAP1 DUP2 MSTORE PUSH1 0x20 ADD PUSH1 0x40 MLOAD DUP1 SWAP2 SUB SWAP1 KECCAK256 PUSH1 0x0 SWAP1 SLOAD SWAP1 PUSH2 0x100 EXP SWAP1 DIV PUSH1 0xFF AND SWAP1 POP SWAP3 SWAP2 POP POP JUMP JUMPDEST PUSH1 0x0 DUP1 SLOAD SWAP1 PUSH2 0x100 EXP SWAP1 DIV PUSH20 0xFFFFFFFFFFFFFFFFFFFFFFFFFFFFFFFFFFFFFFFF AND PUSH20 0xFFFFFFFFFFFFFFFFFFFFFFFFFFFFFFFFFFFFFFFF AND CALLER PUSH20 0xFFFFFFFFFFFFFFFFFFFFFFFFFFFFFFFFFFFFFFFF AND EQ PUSH2 0x971 JUMPI PUSH1 0x40 MLOAD PUSH32 0x2DCA963600000000000000000000000000000000000000000000000000000000 DUP2 MSTORE PUSH1 0x4 ADD PUSH1 0x40 MLOAD DUP1 SWAP2 SUB SWAP1 REVERT JUMPDEST PUSH1 0x0 PUSH1 0x3 DUP2 GT ISZERO PUSH2 0x985 JUMPI PUSH2 0x984 PUSH2 0x5265 JUMP JUMPDEST JUMPDEST PUSH1 0x3 DUP4 DUP4 PUSH1 0x40 MLOAD PUSH2 0x997 SWAP3 SWAP2 SWAP1 PUSH2 0x56CB JUMP JUMPDEST SWAP1 DUP2 MSTORE PUSH1 0x20 ADD PUSH1 0x40 MLOAD DUP1 SWAP2 SUB SWAP1 KECCAK256 PUSH1 0x0 SWAP1 SLOAD SWAP1 PUSH2 0x100 EXP SWAP1 DIV PUSH1 0xFF AND PUSH1 0x3 DUP2 GT ISZERO PUSH2 0x9C5 JUMPI PUSH2 0x9C4 PUSH2 0x5265 JUMP JUMPDEST JUMPDEST SUB PUSH2 0x9FC JUMPI PUSH1 0x40 MLOAD PUSH32 0x567E9BE600000000000000000000000000000000000000000000000000000000 DUP2 MSTORE PUSH1 0x4 ADD PUSH1 0x40 MLOAD DUP1 SWAP2 SUB SWAP1 REVERT JUMPDEST PUSH1 0x3 DUP1 DUP2 GT ISZERO PUSH2 0xA0F JUMPI PUSH2 0xA0E PUSH2 0x5265 JUMP JUMPDEST JUMPDEST PUSH1 0x3 DUP4 DUP4 PUSH1 0x40 MLOAD PUSH2 0xA21 SWAP3 SWAP2 SWAP1 PUSH2 0x56CB JUMP JUMPDEST SWAP1 DUP2 MSTORE PUSH1 0x20 ADD PUSH1 0x40 MLOAD DUP1 SWAP2 SUB SWAP1 KECCAK256 PUSH1 0x0 SWAP1 SLOAD SWAP1 PUSH2 0x100 EXP SWAP1 DIV PUSH1 0xFF AND PUSH1 0x3 DUP2 GT ISZERO PUSH2 0xA4F JUMPI PUSH2 0xA4E PUSH2 0x5265 JUMP JUMPDEST JUMPDEST SUB PUSH2 0xA86 JUMPI PUSH1 0x40 MLOAD PUSH32 0x20F935A000000000000000000000000000000000000000000000000000000000 DUP2 MSTORE PUSH1 0x4 ADD PUSH1 0x40 MLOAD DUP1 SWAP2 SUB SWAP1 REVERT JUMPDEST PUSH1 0x3 DUP1 DUP4 DUP4 PUSH1 0x40 MLOAD PUSH2 0xA99 SWAP3 SWAP2 SWAP1 PUSH2 0x56CB JUMP JUMPDEST SWAP1 DUP2 MSTORE PUSH1 0x20 ADD PUSH1 0x40 MLOAD DUP1 SWAP2 SUB SWAP1 KECCAK256 PUSH1 0x0 PUSH2 0x100 EXP DUP2 SLOAD DUP2 PUSH1 0xFF MUL NOT AND SWAP1 DUP4 PUSH1 0x3 DUP2 GT ISZERO PUSH2 0xAC9 JUMPI PUSH2 0xAC8 PUSH2 0x5265 JUMP JUMPDEST JUMPDEST MUL OR SWAP1 SSTORE POP POP POP JUMP JUMPDEST PUSH1 0x60 PUSH1 0x0 PUSH1 0x1 PUSH1 0x0 CALLER PUSH20 0xFFFFFFFFFFFFFFFFFFFFFFFFFFFFFFFFFFFFFFFF AND PUSH20 0xFFFFFFFFFFFFFFFFFFFFFFFFFFFFFFFFFFFFFFFF AND DUP2 MSTORE PUSH1 0x20 ADD SWAP1 DUP2 MSTORE PUSH1 0x20 ADD PUSH1 0x0 KECCAK256 DUP1 SLOAD PUSH2 0xB20 SWAP1 PUSH2 0x5713 JUMP JUMPDEST DUP1 PUSH1 0x1F ADD PUSH1 0x20 DUP1 SWAP2 DIV MUL PUSH1 0x20 ADD PUSH1 0x40 MLOAD SWAP1 DUP2 ADD PUSH1 0x40 MSTORE DUP1 SWAP3 SWAP2 SWAP1 DUP2 DUP2 MSTORE PUSH1 0x20 ADD DUP3 DUP1 SLOAD PUSH2 0xB4C SWAP1 PUSH2 0x5713 JUMP JUMPDEST DUP1 ISZERO PUSH2 0xB99 JUMPI DUP1 PUSH1 0x1F LT PUSH2 0xB6E JUMPI PUSH2 0x100 DUP1 DUP4 SLOAD DIV MUL DUP4 MSTORE SWAP2 PUSH1 0x20 ADD SWAP2 PUSH2 0xB99 JUMP JUMPDEST DUP3 ADD SWAP2 SWAP1 PUSH1 0x0 MSTORE PUSH1 0x20 PUSH1 0x0 KECCAK256 SWAP1 JUMPDEST DUP2 SLOAD DUP2 MSTORE SWAP1 PUSH1 0x1 ADD SWAP1 PUSH1 0x20 ADD DUP1 DUP4 GT PUSH2 0xB7C JUMPI DUP3 SWAP1 SUB PUSH1 0x1F AND DUP3 ADD SWAP2 JUMPDEST POP POP POP POP POP SWAP1 POP PUSH1 0x0 PUSH1 0x3 DUP2 GT ISZERO PUSH2 0xBB4 JUMPI PUSH2 0xBB3 PUSH2 0x5265 JUMP JUMPDEST JUMPDEST PUSH1 0x3 DUP3 PUSH1 0x40 MLOAD PUSH2 0xBC4 SWAP2 SWAP1 PUSH2 0x5775 JUMP JUMPDEST SWAP1 DUP2 MSTORE PUSH1 0x20 ADD PUSH1 0x40 MLOAD DUP1 SWAP2 SUB SWAP1 KECCAK256 PUSH1 0x0 SWAP1 SLOAD SWAP1 PUSH2 0x100 EXP SWAP1 DIV PUSH1 0xFF AND PUSH1 0x3 DUP2 GT ISZERO PUSH2 0xBF2 JUMPI PUSH2 0xBF1 PUSH2 0x5265 JUMP JUMPDEST JUMPDEST SUB PUSH2 0xC29 JUMPI PUSH1 0x40 MLOAD PUSH32 0x8FA622F500000000000000000000000000000000000000000000000000000000 DUP2 MSTORE PUSH1 0x4 ADD PUSH1 0x40 MLOAD DUP1 SWAP2 SUB SWAP1 REVERT JUMPDEST PUSH1 0x2 PUSH1 0x3 DUP2 GT ISZERO PUSH2 0xC3D JUMPI PUSH2 0xC3C PUSH2 0x5265 JUMP JUMPDEST JUMPDEST PUSH1 0x3 DUP3 PUSH1 0x40 MLOAD PUSH2 0xC4D SWAP2 SWAP1 PUSH2 0x5775 JUMP JUMPDEST SWAP1 DUP2 MSTORE PUSH1 0x20 ADD PUSH1 0x40 MLOAD DUP1 SWAP2 SUB SWAP1 KECCAK256 PUSH1 0x0 SWAP1 SLOAD SWAP1 PUSH2 0x100 EXP SWAP1 DIV PUSH1 0xFF AND PUSH1 0x3 DUP2 GT ISZERO PUSH2 0xC7B JUMPI PUSH2 0xC7A PUSH2 0x5265 JUMP JUMPDEST JUMPDEST EQ PUSH2 0xCB2 JUMPI PUSH1 0x40 MLOAD PUSH32 0x8AC8E00B00000000000000000000000000000000000000000000000000000000 DUP2 MSTORE PUSH1 0x4 ADD PUSH1 0x40 MLOAD DUP1 SWAP2 SUB SWAP1 REVERT JUMPDEST DUP7 DUP7 PUSH1 0x0 PUSH1 0x1 DUP2 GT ISZERO PUSH2 0xCC8 JUMPI PUSH2 0xCC7 PUSH2 0x5265 JUMP JUMPDEST JUMPDEST PUSH1 0x8 DUP4 DUP4 PUSH1 0x40 MLOAD PUSH2 0xCDA SWAP3 SWAP2 SWAP1 PUSH2 0x56CB JUMP JUMPDEST SWAP1 DUP2 MSTORE PUSH1 0x20 ADD PUSH1 0x40 MLOAD DUP1 SWAP2 SUB SWAP1 KECCAK256 PUSH1 0x0 SWAP1 SLOAD SWAP1 PUSH2 0x100 EXP SWAP1 DIV PUSH1 0xFF AND PUSH1 0x1 DUP2 GT ISZERO PUSH2 0xD08 JUMPI PUSH2 0xD07 PUSH2 0x5265 JUMP JUMPDEST JUMPDEST SUB PUSH2 0xD3F JUMPI PUSH1 0x40 MLOAD PUSH32 0x78DE8BF00000000000000000000000000000000000000000000000000000000 DUP2 MSTORE PUSH1 0x4 ADD PUSH1 0x40 MLOAD DUP1 SWAP2 SUB SWAP1 REVERT JUMPDEST PUSH1 0x0 PUSH1 0x1 PUSH1 0x0 CALLER PUSH20 0xFFFFFFFFFFFFFFFFFFFFFFFFFFFFFFFFFFFFFFFF AND PUSH20 0xFFFFFFFFFFFFFFFFFFFFFFFFFFFFFFFFFFFFFFFF AND DUP2 MSTORE PUSH1 0x20 ADD SWAP1 DUP2 MSTORE PUSH1 0x20 ADD PUSH1 0x0 KECCAK256 DUP1 SLOAD PUSH2 0xD8B SWAP1 PUSH2 0x5713 JUMP JUMPDEST DUP1 PUSH1 0x1F ADD PUSH1 0x20 DUP1 SWAP2 DIV MUL PUSH1 0x20 ADD PUSH1 0x40 MLOAD SWAP1 DUP2 ADD PUSH1 0x40 MSTORE DUP1 SWAP3 SWAP2 SWAP1 DUP2 DUP2 MSTORE PUSH1 0x20 ADD DUP3 DUP1 SLOAD PUSH2 0xDB7 SWAP1 PUSH2 0x5713 JUMP JUMPDEST DUP1 ISZERO PUSH2 0xE04 JUMPI DUP1 PUSH1 0x1F LT PUSH2 0xDD9 JUMPI PUSH2 0x100 DUP1 DUP4 SLOAD DIV MUL DUP4 MSTORE SWAP2 PUSH1 0x20 ADD SWAP2 PUSH2 0xE04 JUMP JUMPDEST DUP3 ADD SWAP2 SWAP1 PUSH1 0x0 MSTORE PUSH1 0x20 PUSH1 0x0 KECCAK256 SWAP1 JUMPDEST DUP2 SLOAD DUP2 MSTORE SWAP1 PUSH1 0x1 ADD SWAP1 PUSH1 0x20 ADD DUP1 DUP4 GT PUSH2 0xDE7 JUMPI DUP3 SWAP1 SUB PUSH1 0x1F AND DUP3 ADD SWAP2 JUMPDEST POP POP POP POP POP SWAP1 POP PUSH1 0x0 PUSH1 0x9 DUP5 DUP5 PUSH1 0x40 MLOAD PUSH2 0xE1F SWAP3 SWAP2 SWAP1 PUSH2 0x56CB JUMP JUMPDEST SWAP1 DUP2 MSTORE PUSH1 0x20 ADD PUSH1 0x40 MLOAD DUP1 SWAP2 SUB SWAP1 KECCAK256 PUSH1 0x40 MLOAD PUSH2 0xE39 SWAP1 PUSH2 0x5887 JUMP JUMPDEST SWAP1 DUP2 MSTORE PUSH1 0x20 ADD PUSH1 0x40 MLOAD DUP1 SWAP2 SUB SWAP1 KECCAK256 DUP1 SLOAD PUSH2 0xE52 SWAP1 PUSH2 0x5713 JUMP JUMPDEST DUP1 PUSH1 0x1F ADD PUSH1 0x20 DUP1 SWAP2 DIV MUL PUSH1 0x20 ADD PUSH1 0x40 MLOAD SWAP1 DUP2 ADD PUSH1 0x40 MSTORE DUP1 SWAP3 SWAP2 SWAP1 DUP2 DUP2 MSTORE PUSH1 0x20 ADD DUP3 DUP1 SLOAD PUSH2 0xE7E SWAP1 PUSH2 0x5713 JUMP JUMPDEST DUP1 ISZERO PUSH2 0xECB JUMPI DUP1 PUSH1 0x1F LT PUSH2 0xEA0 JUMPI PUSH2 0x100 DUP1 DUP4 SLOAD DIV MUL DUP4 MSTORE SWAP2 PUSH1 0x20 ADD SWAP2 PUSH2 0xECB JUMP JUMPDEST DUP3 ADD SWAP2 SWAP1 PUSH1 0x0 MSTORE PUSH1 0x20 PUSH1 0x0 KECCAK256 SWAP1 JUMPDEST DUP2 SLOAD DUP2 MSTORE SWAP1 PUSH1 0x1 ADD SWAP1 PUSH1 0x20 ADD DUP1 DUP4 GT PUSH2 0xEAE JUMPI DUP3 SWAP1 SUB PUSH1 0x1F AND DUP3 ADD SWAP2 JUMPDEST POP POP POP POP POP SWAP1 POP DUP1 PUSH1 0x40 MLOAD PUSH1 0x20 ADD PUSH2 0xEE3 SWAP2 SWAP1 PUSH2 0x5775 JUMP JUMPDEST PUSH1 0x40 MLOAD PUSH1 0x20 DUP2 DUP4 SUB SUB DUP2 MSTORE SWAP1 PUSH1 0x40 MSTORE DUP1 MLOAD SWAP1 PUSH1 0x20 ADD KECCAK256 DUP3 PUSH1 0x40 MLOAD PUSH1 0x20 ADD PUSH2 0xF0A SWAP2 SWAP1 PUSH2 0x5775 JUMP JUMPDEST PUSH1 0x40 MLOAD PUSH1 0x20 DUP2 DUP4 SUB SUB DUP2 MSTORE SWAP1 PUSH1 0x40 MSTORE DUP1 MLOAD SWAP1 PUSH1 0x20 ADD KECCAK256 EQ PUSH2 0xF57 JUMPI PUSH1 0x40 MLOAD PUSH32 0xCA7B7FB200000000000000000000000000000000000000000000000000000000 DUP2 MSTORE PUSH1 0x4 ADD PUSH1 0x40 MLOAD DUP1 SWAP2 SUB SWAP1 REVERT JUMPDEST DUP7 ISZERO PUSH2 0x102B JUMPI PUSH1 0x9 DUP12 DUP12 PUSH1 0x40 MLOAD PUSH2 0xF6F SWAP3 SWAP2 SWAP1 PUSH2 0x56CB JUMP JUMPDEST SWAP1 DUP2 MSTORE PUSH1 0x20 ADD PUSH1 0x40 MLOAD DUP1 SWAP2 SUB SWAP1 KECCAK256 DUP10 DUP10 PUSH1 0x40 MLOAD PUSH2 0xF8D SWAP3 SWAP2 SWAP1 PUSH2 0x56CB JUMP JUMPDEST SWAP1 DUP2 MSTORE PUSH1 0x20 ADD PUSH1 0x40 MLOAD DUP1 SWAP2 SUB SWAP1 KECCAK256 DUP1 SLOAD PUSH2 0xFA6 SWAP1 PUSH2 0x5713 JUMP JUMPDEST DUP1 PUSH1 0x1F ADD PUSH1 0x20 DUP1 SWAP2 DIV MUL PUSH1 0x20 ADD PUSH1 0x40 MLOAD SWAP1 DUP2 ADD PUSH1 0x40 MSTORE DUP1 SWAP3 SWAP2 SWAP1 DUP2 DUP2 MSTORE PUSH1 0x20 ADD DUP3 DUP1 SLOAD PUSH2 0xFD2 SWAP1 PUSH2 0x5713 JUMP JUMPDEST DUP1 ISZERO PUSH2 0x101F JUMPI DUP1 PUSH1 0x1F LT PUSH2 0xFF4 JUMPI PUSH2 0x100 DUP1 DUP4 SLOAD DIV MUL DUP4 MSTORE SWAP2 PUSH1 0x20 ADD SWAP2 PUSH2 0x101F JUMP JUMPDEST DUP3 ADD SWAP2 SWAP1 PUSH1 0x0 MSTORE PUSH1 0x20 PUSH1 0x0 KECCAK256 SWAP1 JUMPDEST DUP2 SLOAD DUP2 MSTORE SWAP1 PUSH1 0x1 ADD SWAP1 PUSH1 0x20 ADD DUP1 DUP4 GT PUSH2 0x1002 JUMPI DUP3 SWAP1 SUB PUSH1 0x1F AND DUP3 ADD SWAP2 JUMPDEST POP POP POP POP POP SWAP6 POP PUSH2 0x10FF JUMP JUMPDEST DUP7 PUSH2 0x10FE JUMPI PUSH1 0xD DUP12 DUP12 PUSH1 0x40 MLOAD PUSH2 0x1042 SWAP3 SWAP2 SWAP1 PUSH2 0x56CB JUMP JUMPDEST SWAP1 DUP2 MSTORE PUSH1 0x20 ADD PUSH1 0x40 MLOAD DUP1 SWAP2 SUB SWAP1 KECCAK256 DUP10 DUP10 PUSH1 0x40 MLOAD PUSH2 0x1060 SWAP3 SWAP2 SWAP1 PUSH2 0x56CB JUMP JUMPDEST SWAP1 DUP2 MSTORE PUSH1 0x20 ADD PUSH1 0x40 MLOAD DUP1 SWAP2 SUB SWAP1 KECCAK256 DUP1 SLOAD PUSH2 0x1079 SWAP1 PUSH2 0x5713 JUMP JUMPDEST DUP1 PUSH1 0x1F ADD PUSH1 0x20 DUP1 SWAP2 DIV MUL PUSH1 0x20 ADD PUSH1 0x40 MLOAD SWAP1 DUP2 ADD PUSH1 0x40 MSTORE DUP1 SWAP3 SWAP2 SWAP1 DUP2 DUP2 MSTORE PUSH1 0x20 ADD DUP3 DUP1 SLOAD PUSH2 0x10A5 SWAP1 PUSH2 0x5713 JUMP JUMPDEST DUP1 ISZERO PUSH2 0x10F2 JUMPI DUP1 PUSH1 0x1F LT PUSH2 0x10C7 JUMPI PUSH2 0x100 DUP1 DUP4 SLOAD DIV MUL DUP4 MSTORE SWAP2 PUSH1 0x20 ADD SWAP2 PUSH2 0x10F2 JUMP JUMPDEST DUP3 ADD SWAP2 SWAP1 PUSH1 0x0 MSTORE PUSH1 0x20 PUSH1 0x0 KECCAK256 SWAP1 JUMPDEST DUP2 SLOAD DUP2 MSTORE SWAP1 PUSH1 0x1 ADD SWAP1 PUSH1 0x20 ADD DUP1 DUP4 GT PUSH2 0x10D5 JUMPI DUP3 SWAP1 SUB PUSH1 0x1F AND DUP3 ADD SWAP2 JUMPDEST POP POP POP POP POP SWAP6 POP PUSH2 0x10FF JUMP JUMPDEST JUMPDEST POP POP POP POP POP SWAP6 SWAP5 POP POP POP POP POP JUMP JUMPDEST PUSH1 0x60 PUSH1 0x6 PUSH1 0x0 CALLER PUSH20 0xFFFFFFFFFFFFFFFFFFFFFFFFFFFFFFFFFFFFFFFF AND PUSH20 0xFFFFFFFFFFFFFFFFFFFFFFFFFFFFFFFFFFFFFFFF AND DUP2 MSTORE PUSH1 0x20 ADD SWAP1 DUP2 MSTORE PUSH1 0x20 ADD PUSH1 0x0 KECCAK256 DUP1 SLOAD PUSH2 0x1159 SWAP1 PUSH2 0x5713 JUMP JUMPDEST DUP1 PUSH1 0x1F ADD PUSH1 0x20 DUP1 SWAP2 DIV MUL PUSH1 0x20 ADD PUSH1 0x40 MLOAD SWAP1 DUP2 ADD PUSH1 0x40 MSTORE DUP1 SWAP3 SWAP2 SWAP1 DUP2 DUP2 MSTORE PUSH1 0x20 ADD DUP3 DUP1 SLOAD PUSH2 0x1185 SWAP1 PUSH2 0x5713 JUMP JUMPDEST DUP1 ISZERO PUSH2 0x11D2 JUMPI DUP1 PUSH1 0x1F LT PUSH2 0x11A7 JUMPI PUSH2 0x100 DUP1 DUP4 SLOAD DIV MUL DUP4 MSTORE SWAP2 PUSH1 0x20 ADD SWAP2 PUSH2 0x11D2 JUMP JUMPDEST DUP3 ADD SWAP2 SWAP1 PUSH1 0x0 MSTORE PUSH1 0x20 PUSH1 0x0 KECCAK256 SWAP1 JUMPDEST DUP2 SLOAD DUP2 MSTORE SWAP1 PUSH1 0x1 ADD SWAP1 PUSH1 0x20 ADD DUP1 DUP4 GT PUSH2 0x11B5 JUMPI DUP3 SWAP1 SUB PUSH1 0x1F AND DUP3 ADD SWAP2 JUMPDEST POP POP POP POP POP SWAP1 POP SWAP1 JUMP JUMPDEST PUSH1 0x60 PUSH1 0x0 PUSH1 0x1 DUP2 GT ISZERO PUSH2 0x11F2 JUMPI PUSH2 0x11F1 PUSH2 0x5265 JUMP JUMPDEST JUMPDEST PUSH1 0x8 DUP7 DUP7 PUSH1 0x40 MLOAD PUSH2 0x1204 SWAP3 SWAP2 SWAP1 PUSH2 0x56CB JUMP JUMPDEST SWAP1 DUP2 MSTORE PUSH1 0x20 ADD PUSH1 0x40 MLOAD DUP1 SWAP2 SUB SWAP1 KECCAK256 PUSH1 0x0 SWAP1 SLOAD SWAP1 PUSH2 0x100 EXP SWAP1 DIV PUSH1 0xFF AND PUSH1 0x1 DUP2 GT ISZERO PUSH2 0x1232 JUMPI PUSH2 0x1231 PUSH2 0x5265 JUMP JUMPDEST JUMPDEST SUB PUSH2 0x1269 JUMPI PUSH1 0x40 MLOAD PUSH32 0x78DE8BF00000000000000000000000000000000000000000000000000000000 DUP2 MSTORE PUSH1 0x4 ADD PUSH1 0x40 MLOAD DUP1 SWAP2 SUB SWAP1 REVERT JUMPDEST DUP5 DUP5 PUSH1 0x40 MLOAD PUSH1 0x20 ADD PUSH2 0x127C SWAP3 SWAP2 SWAP1 PUSH2 0x56CB JUMP JUMPDEST PUSH1 0x40 MLOAD PUSH1 0x20 DUP2 DUP4 SUB SUB DUP2 MSTORE SWAP1 PUSH1 0x40 MSTORE DUP1 MLOAD SWAP1 PUSH1 0x20 ADD KECCAK256 PUSH1 0x6 PUSH1 0x0 CALLER PUSH20 0xFFFFFFFFFFFFFFFFFFFFFFFFFFFFFFFFFFFFFFFF AND PUSH20 0xFFFFFFFFFFFFFFFFFFFFFFFFFFFFFFFFFFFFFFFF AND DUP2 MSTORE PUSH1 0x20 ADD SWAP1 DUP2 MSTORE PUSH1 0x20 ADD PUSH1 0x0 KECCAK256 PUSH1 0x40 MLOAD PUSH1 0x20 ADD PUSH2 0x12E1 SWAP2 SWAP1 PUSH2 0x5824 JUMP JUMPDEST PUSH1 0x40 MLOAD PUSH1 0x20 DUP2 DUP4 SUB SUB DUP2 MSTORE SWAP1 PUSH1 0x40 MSTORE DUP1 MLOAD SWAP1 PUSH1 0x20 ADD KECCAK256 EQ DUP1 PUSH2 0x1389 JUMPI POP PUSH1 0xE PUSH1 0x0 CALLER PUSH20 0xFFFFFFFFFFFFFFFFFFFFFFFFFFFFFFFFFFFFFFFF AND PUSH20 0xFFFFFFFFFFFFFFFFFFFFFFFFFFFFFFFFFFFFFFFF AND DUP2 MSTORE PUSH1 0x20 ADD SWAP1 DUP2 MSTORE PUSH1 0x20 ADD PUSH1 0x0 KECCAK256 DUP6 DUP6 PUSH1 0x40 MLOAD PUSH2 0x134D SWAP3 SWAP2 SWAP1 PUSH2 0x56CB JUMP JUMPDEST SWAP1 DUP2 MSTORE PUSH1 0x20 ADD PUSH1 0x40 MLOAD DUP1 SWAP2 SUB SWAP1 KECCAK256 DUP4 DUP4 PUSH1 0x40 MLOAD PUSH2 0x136B SWAP3 SWAP2 SWAP1 PUSH2 0x56CB JUMP JUMPDEST SWAP1 DUP2 MSTORE PUSH1 0x20 ADD PUSH1 0x40 MLOAD DUP1 SWAP2 SUB SWAP1 KECCAK256 PUSH1 0x0 SWAP1 SLOAD SWAP1 PUSH2 0x100 EXP SWAP1 DIV PUSH1 0xFF AND ISZERO JUMPDEST ISZERO PUSH2 0x13C0 JUMPI PUSH1 0x40 MLOAD PUSH32 0x722F899200000000000000000000000000000000000000000000000000000000 DUP2 MSTORE PUSH1 0x4 ADD PUSH1 0x40 MLOAD DUP1 SWAP2 SUB SWAP1 REVERT JUMPDEST PUSH1 0x9 DUP6 DUP6 PUSH1 0x40 MLOAD PUSH2 0x13D2 SWAP3 SWAP2 SWAP1 PUSH2 0x56CB JUMP JUMPDEST SWAP1 DUP2 MSTORE PUSH1 0x20 ADD PUSH1 0x40 MLOAD DUP1 SWAP2 SUB SWAP1 KECCAK256 DUP4 DUP4 PUSH1 0x40 MLOAD PUSH2 0x13F0 SWAP3 SWAP2 SWAP1 PUSH2 0x56CB JUMP JUMPDEST SWAP1 DUP2 MSTORE PUSH1 0x20 ADD PUSH1 0x40 MLOAD DUP1 SWAP2 SUB SWAP1 KECCAK256 DUP1 SLOAD PUSH2 0x1409 SWAP1 PUSH2 0x5713 JUMP JUMPDEST DUP1 PUSH1 0x1F ADD PUSH1 0x20 DUP1 SWAP2 DIV MUL PUSH1 0x20 ADD PUSH1 0x40 MLOAD SWAP1 DUP2 ADD PUSH1 0x40 MSTORE DUP1 SWAP3 SWAP2 SWAP1 DUP2 DUP2 MSTORE PUSH1 0x20 ADD DUP3 DUP1 SLOAD PUSH2 0x1435 SWAP1 PUSH2 0x5713 JUMP JUMPDEST DUP1 ISZERO PUSH2 0x1482 JUMPI DUP1 PUSH1 0x1F LT PUSH2 0x1457 JUMPI PUSH2 0x100 DUP1 DUP4 SLOAD DIV MUL DUP4 MSTORE SWAP2 PUSH1 0x20 ADD SWAP2 PUSH2 0x1482 JUMP JUMPDEST DUP3 ADD SWAP2 SWAP1 PUSH1 0x0 MSTORE PUSH1 0x20 PUSH1 0x0 KECCAK256 SWAP1 JUMPDEST DUP2 SLOAD DUP2 MSTORE SWAP1 PUSH1 0x1 ADD SWAP1 PUSH1 0x20 ADD DUP1 DUP4 GT PUSH2 0x1465 JUMPI DUP3 SWAP1 SUB PUSH1 0x1F AND DUP3 ADD SWAP2 JUMPDEST POP POP POP POP POP SWAP1 POP SWAP5 SWAP4 POP POP POP POP JUMP JUMPDEST PUSH1 0x0 PUSH1 0x8 DUP4 DUP4 PUSH1 0x40 MLOAD PUSH2 0x14A5 SWAP3 SWAP2 SWAP1 PUSH2 0x56CB JUMP JUMPDEST SWAP1 DUP2 MSTORE PUSH1 0x20 ADD PUSH1 0x40 MLOAD DUP1 SWAP2 SUB SWAP1 KECCAK256 PUSH1 0x0 SWAP1 SLOAD SWAP1 PUSH2 0x100 EXP SWAP1 DIV PUSH1 0xFF AND SWAP1 POP SWAP3 SWAP2 POP POP JUMP JUMPDEST PUSH1 0x60 PUSH1 0x1 PUSH1 0x0 CALLER PUSH20 0xFFFFFFFFFFFFFFFFFFFFFFFFFFFFFFFFFFFFFFFF AND PUSH20 0xFFFFFFFFFFFFFFFFFFFFFFFFFFFFFFFFFFFFFFFF AND DUP2 MSTORE PUSH1 0x20 ADD SWAP1 DUP2 MSTORE PUSH1 0x20 ADD PUSH1 0x0 KECCAK256 DUP1 SLOAD PUSH2 0x1515 SWAP1 PUSH2 0x5713 JUMP JUMPDEST DUP1 PUSH1 0x1F ADD PUSH1 0x20 DUP1 SWAP2 DIV MUL PUSH1 0x20 ADD PUSH1 0x40 MLOAD SWAP1 DUP2 ADD PUSH1 0x40 MSTORE DUP1 SWAP3 SWAP2 SWAP1 DUP2 DUP2 MSTORE PUSH1 0x20 ADD DUP3 DUP1 SLOAD PUSH2 0x1541 SWAP1 PUSH2 0x5713 JUMP JUMPDEST DUP1 ISZERO PUSH2 0x158E JUMPI DUP1 PUSH1 0x1F LT PUSH2 0x1563 JUMPI PUSH2 0x100 DUP1 DUP4 SLOAD DIV MUL DUP4 MSTORE SWAP2 PUSH1 0x20 ADD SWAP2 PUSH2 0x158E JUMP JUMPDEST DUP3 ADD SWAP2 SWAP1 PUSH1 0x0 MSTORE PUSH1 0x20 PUSH1 0x0 KECCAK256 SWAP1 JUMPDEST DUP2 SLOAD DUP2 MSTORE SWAP1 PUSH1 0x1 ADD SWAP1 PUSH1 0x20 ADD DUP1 DUP4 GT PUSH2 0x1571 JUMPI DUP3 SWAP1 SUB PUSH1 0x1F AND DUP3 ADD SWAP2 JUMPDEST POP POP POP POP POP SWAP1 POP SWAP1 JUMP JUMPDEST PUSH1 0x0 PUSH1 0x1 PUSH1 0x0 CALLER PUSH20 0xFFFFFFFFFFFFFFFFFFFFFFFFFFFFFFFFFFFFFFFF AND PUSH20 0xFFFFFFFFFFFFFFFFFFFFFFFFFFFFFFFFFFFFFFFF AND DUP2 MSTORE PUSH1 0x20 ADD SWAP1 DUP2 MSTORE PUSH1 0x20 ADD PUSH1 0x0 KECCAK256 DUP1 SLOAD PUSH2 0x15E4 SWAP1 PUSH2 0x5713 JUMP JUMPDEST DUP1 PUSH1 0x1F ADD PUSH1 0x20 DUP1 SWAP2 DIV MUL PUSH1 0x20 ADD PUSH1 0x40 MLOAD SWAP1 DUP2 ADD PUSH1 0x40 MSTORE DUP1 SWAP3 SWAP2 SWAP1 DUP2 DUP2 MSTORE PUSH1 0x20 ADD DUP3 DUP1 SLOAD PUSH2 0x1610 SWAP1 PUSH2 0x5713 JUMP JUMPDEST DUP1 ISZERO PUSH2 0x165D JUMPI DUP1 PUSH1 0x1F LT PUSH2 0x1632 JUMPI PUSH2 0x100 DUP1 DUP4 SLOAD DIV MUL DUP4 MSTORE SWAP2 PUSH1 0x20 ADD SWAP2 PUSH2 0x165D JUMP JUMPDEST DUP3 ADD SWAP2 SWAP1 PUSH1 0x0 MSTORE PUSH1 0x20 PUSH1 0x0 KECCAK256 SWAP1 JUMPDEST DUP2 SLOAD DUP2 MSTORE SWAP1 PUSH1 0x1 ADD SWAP1 PUSH1 0x20 ADD DUP1 DUP4 GT PUSH2 0x1640 JUMPI DUP3 SWAP1 SUB PUSH1 0x1F AND DUP3 ADD SWAP2 JUMPDEST POP POP POP POP POP SWAP1 POP PUSH1 0x0 PUSH1 0x3 DUP2 GT ISZERO PUSH2 0x1678 JUMPI PUSH2 0x1677 PUSH2 0x5265 JUMP JUMPDEST JUMPDEST PUSH1 0x3 DUP3 PUSH1 0x40 MLOAD PUSH2 0x1688 SWAP2 SWAP1 PUSH2 0x5775 JUMP JUMPDEST SWAP1 DUP2 MSTORE PUSH1 0x20 ADD PUSH1 0x40 MLOAD DUP1 SWAP2 SUB SWAP1 KECCAK256 PUSH1 0x0 SWAP1 SLOAD SWAP1 PUSH2 0x100 EXP SWAP1 DIV PUSH1 0xFF AND PUSH1 0x3 DUP2 GT ISZERO PUSH2 0x16B6 JUMPI PUSH2 0x16B5 PUSH2 0x5265 JUMP JUMPDEST JUMPDEST SUB PUSH2 0x16ED JUMPI PUSH1 0x40 MLOAD PUSH32 0x8FA622F500000000000000000000000000000000000000000000000000000000 DUP2 MSTORE PUSH1 0x4 ADD PUSH1 0x40 MLOAD DUP1 SWAP2 SUB SWAP1 REVERT JUMPDEST PUSH1 0x2 PUSH1 0x3 DUP2 GT ISZERO PUSH2 0x1701 JUMPI PUSH2 0x1700 PUSH2 0x5265 JUMP JUMPDEST JUMPDEST PUSH1 0x3 DUP3 PUSH1 0x40 MLOAD PUSH2 0x1711 SWAP2 SWAP1 PUSH2 0x5775 JUMP JUMPDEST SWAP1 DUP2 MSTORE PUSH1 0x20 ADD PUSH1 0x40 MLOAD DUP1 SWAP2 SUB SWAP1 KECCAK256 PUSH1 0x0 SWAP1 SLOAD SWAP1 PUSH2 0x100 EXP SWAP1 DIV PUSH1 0xFF AND PUSH1 0x3 DUP2 GT ISZERO PUSH2 0x173F JUMPI PUSH2 0x173E PUSH2 0x5265 JUMP JUMPDEST JUMPDEST EQ PUSH2 0x1776 JUMPI PUSH1 0x40 MLOAD PUSH32 0x8AC8E00B00000000000000000000000000000000000000000000000000000000 DUP2 MSTORE PUSH1 0x4 ADD PUSH1 0x40 MLOAD DUP1 SWAP2 SUB SWAP1 REVERT JUMPDEST PUSH1 0x0 PUSH1 0x1 PUSH1 0x0 CALLER PUSH20 0xFFFFFFFFFFFFFFFFFFFFFFFFFFFFFFFFFFFFFFFF AND PUSH20 0xFFFFFFFFFFFFFFFFFFFFFFFFFFFFFFFFFFFFFFFF AND DUP2 MSTORE PUSH1 0x20 ADD SWAP1 DUP2 MSTORE PUSH1 0x20 ADD PUSH1 0x0 KECCAK256 DUP1 SLOAD PUSH2 0x17C2 SWAP1 PUSH2 0x5713 JUMP JUMPDEST DUP1 PUSH1 0x1F ADD PUSH1 0x20 DUP1 SWAP2 DIV MUL PUSH1 0x20 ADD PUSH1 0x40 MLOAD SWAP1 DUP2 ADD PUSH1 0x40 MSTORE DUP1 SWAP3 SWAP2 SWAP1 DUP2 DUP2 MSTORE PUSH1 0x20 ADD DUP3 DUP1 SLOAD PUSH2 0x17EE SWAP1 PUSH2 0x5713 JUMP JUMPDEST DUP1 ISZERO PUSH2 0x183B JUMPI DUP1 PUSH1 0x1F LT PUSH2 0x1810 JUMPI PUSH2 0x100 DUP1 DUP4 SLOAD DIV MUL DUP4 MSTORE SWAP2 PUSH1 0x20 ADD SWAP2 PUSH2 0x183B JUMP JUMPDEST DUP3 ADD SWAP2 SWAP1 PUSH1 0x0 MSTORE PUSH1 0x20 PUSH1 0x0 KECCAK256 SWAP1 JUMPDEST DUP2 SLOAD DUP2 MSTORE SWAP1 PUSH1 0x1 ADD SWAP1 PUSH1 0x20 ADD DUP1 DUP4 GT PUSH2 0x181E JUMPI DUP3 SWAP1 SUB PUSH1 0x1F AND DUP3 ADD SWAP2 JUMPDEST POP POP POP POP POP SWAP1 POP PUSH1 0x0 PUSH2 0x184D DUP11 PUSH2 0x4539 JUMP JUMPDEST SWAP1 POP DUP1 PUSH1 0x6 PUSH1 0x0 DUP13 PUSH20 0xFFFFFFFFFFFFFFFFFFFFFFFFFFFFFFFFFFFFFFFF AND PUSH20 0xFFFFFFFFFFFFFFFFFFFFFFFFFFFFFFFFFFFFFFFF AND DUP2 MSTORE PUSH1 0x20 ADD SWAP1 DUP2 MSTORE PUSH1 0x20 ADD PUSH1 0x0 KECCAK256 SWAP1 DUP2 PUSH2 0x189B SWAP2 SWAP1 PUSH2 0x5A3D JUMP JUMPDEST POP PUSH1 0x7 DUP3 PUSH1 0x40 MLOAD PUSH2 0x18AC SWAP2 SWAP1 PUSH2 0x5775 JUMP JUMPDEST SWAP1 DUP2 MSTORE PUSH1 0x20 ADD PUSH1 0x40 MLOAD DUP1 SWAP2 SUB SWAP1 KECCAK256 DUP2 SWAP1 DUP1 PUSH1 0x1 DUP2 SLOAD ADD DUP1 DUP3 SSTORE DUP1 SWAP2 POP POP PUSH1 0x1 SWAP1 SUB SWAP1 PUSH1 0x0 MSTORE PUSH1 0x20 PUSH1 0x0 KECCAK256 ADD PUSH1 0x0 SWAP1 SWAP2 SWAP1 SWAP2 SWAP1 SWAP2 POP SWAP1 DUP2 PUSH2 0x18EC SWAP2 SWAP1 PUSH2 0x5A3D JUMP JUMPDEST POP PUSH1 0x1 PUSH1 0x8 DUP3 PUSH1 0x40 MLOAD PUSH2 0x18FF SWAP2 SWAP1 PUSH2 0x5775 JUMP JUMPDEST SWAP1 DUP2 MSTORE PUSH1 0x20 ADD PUSH1 0x40 MLOAD DUP1 SWAP2 SUB SWAP1 KECCAK256 PUSH1 0x0 PUSH2 0x100 EXP DUP2 SLOAD DUP2 PUSH1 0xFF MUL NOT AND SWAP1 DUP4 PUSH1 0x1 DUP2 GT ISZERO PUSH2 0x192F JUMPI PUSH2 0x192E PUSH2 0x5265 JUMP JUMPDEST JUMPDEST MUL OR SWAP1 SSTORE POP PUSH2 0x1974 DUP2 PUSH1 0x40 MLOAD DUP1 PUSH1 0x40 ADD PUSH1 0x40 MSTORE DUP1 PUSH1 0xA DUP2 MSTORE PUSH1 0x20 ADD PUSH32 0x436F6C6C65676520496400000000000000000000000000000000000000000000 DUP2 MSTORE POP DUP5 PUSH2 0x4578 JUMP JUMPDEST PUSH2 0x19F8 DUP2 PUSH1 0x40 MLOAD DUP1 PUSH1 0x40 ADD PUSH1 0x40 MSTORE DUP1 PUSH1 0xC DUP2 MSTORE PUSH1 0x20 ADD PUSH32 0x53747564656E74204E616D650000000000000000000000000000000000000000 DUP2 MSTORE POP DUP12 DUP12 DUP1 DUP1 PUSH1 0x1F ADD PUSH1 0x20 DUP1 SWAP2 DIV MUL PUSH1 0x20 ADD PUSH1 0x40 MLOAD SWAP1 DUP2 ADD PUSH1 0x40 MSTORE DUP1 SWAP4 SWAP3 SWAP2 SWAP1 DUP2 DUP2 MSTORE PUSH1 0x20 ADD DUP4 DUP4 DUP1 DUP3 DUP5 CALLDATACOPY PUSH1 0x0 DUP2 DUP5 ADD MSTORE PUSH1 0x1F NOT PUSH1 0x1F DUP3 ADD AND SWAP1 POP DUP1 DUP4 ADD SWAP3 POP POP POP POP POP POP POP PUSH2 0x4578 JUMP JUMPDEST PUSH2 0x1A7C DUP2 PUSH1 0x40 MLOAD DUP1 PUSH1 0x40 ADD PUSH1 0x40 MSTORE DUP1 PUSH1 0xB DUP2 MSTORE PUSH1 0x20 ADD PUSH32 0x53747564656E7420416765000000000000000000000000000000000000000000 DUP2 MSTORE POP DUP10 DUP10 DUP1 DUP1 PUSH1 0x1F ADD PUSH1 0x20 DUP1 SWAP2 DIV MUL PUSH1 0x20 ADD PUSH1 0x40 MLOAD SWAP1 DUP2 ADD PUSH1 0x40 MSTORE DUP1 SWAP4 SWAP3 SWAP2 SWAP1 DUP2 DUP2 MSTORE PUSH1 0x20 ADD DUP4 DUP4 DUP1 DUP3 DUP5 CALLDATACOPY PUSH1 0x0 DUP2 DUP5 ADD MSTORE PUSH1 0x1F NOT PUSH1 0x1F DUP3 ADD AND SWAP1 POP DUP1 DUP4 ADD SWAP3 POP POP POP POP POP POP POP PUSH2 0x4578 JUMP JUMPDEST PUSH2 0x1B00 DUP2 PUSH1 0x40 MLOAD DUP1 PUSH1 0x40 ADD PUSH1 0x40 MSTORE DUP1 PUSH1 0x12 DUP2 MSTORE PUSH1 0x20 ADD PUSH32 0x53747564656E742050657263656E746167650000000000000000000000000000 DUP2 MSTORE POP DUP8 DUP8 DUP1 DUP1 PUSH1 0x1F ADD PUSH1 0x20 DUP1 SWAP2 DIV MUL PUSH1 0x20 ADD PUSH1 0x40 MLOAD SWAP1 DUP2 ADD PUSH1 0x40 MSTORE DUP1 SWAP4 SWAP3 SWAP2 SWAP1 DUP2 DUP2 MSTORE PUSH1 0x20 ADD DUP4 DUP4 DUP1 DUP3 DUP5 CALLDATACOPY PUSH1 0x0 DUP2 DUP5 ADD MSTORE PUSH1 0x1F NOT PUSH1 0x1F DUP3 ADD AND SWAP1 POP DUP1 DUP4 ADD SWAP3 POP POP POP POP POP POP POP PUSH2 0x4578 JUMP JUMPDEST POP POP POP POP POP POP POP POP POP POP JUMP JUMPDEST PUSH1 0x0 PUSH2 0x1B17 CALLER PUSH2 0x4539 JUMP JUMPDEST SWAP1 POP DUP1 PUSH1 0x1 PUSH1 0x0 CALLER PUSH20 0xFFFFFFFFFFFFFFFFFFFFFFFFFFFFFFFFFFFFFFFF AND PUSH20 0xFFFFFFFFFFFFFFFFFFFFFFFFFFFFFFFFFFFFFFFF AND DUP2 MSTORE PUSH1 0x20 ADD SWAP1 DUP2 MSTORE PUSH1 0x20 ADD PUSH1 0x0 KECCAK256 SWAP1 DUP2 PUSH2 0x1B65 SWAP2 SWAP1 PUSH2 0x5A3D JUMP JUMPDEST POP PUSH1 0x2 DUP2 SWAP1 DUP1 PUSH1 0x1 DUP2 SLOAD ADD DUP1 DUP3 SSTORE DUP1 SWAP2 POP POP PUSH1 0x1 SWAP1 SUB SWAP1 PUSH1 0x0 MSTORE PUSH1 0x20 PUSH1 0x0 KECCAK256 ADD PUSH1 0x0 SWAP1 SWAP2 SWAP1 SWAP2 SWAP1 SWAP2 POP SWAP1 DUP2 PUSH2 0x1B9A SWAP2 SWAP1 PUSH2 0x5A3D JUMP JUMPDEST POP PUSH1 0x1 PUSH1 0x3 DUP3 PUSH1 0x40 MLOAD PUSH2 0x1BAD SWAP2 SWAP1 PUSH2 0x5775 JUMP JUMPDEST SWAP1 DUP2 MSTORE PUSH1 0x20 ADD PUSH1 0x40 MLOAD DUP1 SWAP2 SUB SWAP1 KECCAK256 PUSH1 0x0 PUSH2 0x100 EXP DUP2 SLOAD DUP2 PUSH1 0xFF MUL NOT AND SWAP1 DUP4 PUSH1 0x3 DUP2 GT ISZERO PUSH2 0x1BDD JUMPI PUSH2 0x1BDC PUSH2 0x5265 JUMP JUMPDEST JUMPDEST MUL OR SWAP1 SSTORE POP PUSH2 0x1C66 DUP2 PUSH1 0x40 MLOAD DUP1 PUSH1 0x40 ADD PUSH1 0x40 MSTORE DUP1 PUSH1 0xC DUP2 MSTORE PUSH1 0x20 ADD PUSH32 0x436F6C6C656765204E616D650000000000000000000000000000000000000000 DUP2 MSTORE POP DUP6 DUP6 DUP1 DUP1 PUSH1 0x1F ADD PUSH1 0x20 DUP1 SWAP2 DIV MUL PUSH1 0x20 ADD PUSH1 0x40 MLOAD SWAP1 DUP2 ADD PUSH1 0x40 MSTORE DUP1 SWAP4 SWAP3 SWAP2 SWAP1 DUP2 DUP2 MSTORE PUSH1 0x20 ADD DUP4 DUP4 DUP1 DUP3 DUP5 CALLDATACOPY PUSH1 0x0 DUP2 DUP5 ADD MSTORE PUSH1 0x1F NOT PUSH1 0x1F DUP3 ADD AND SWAP1 POP DUP1 DUP4 ADD SWAP3 POP POP POP POP POP POP POP PUSH2 0x46E8 JUMP JUMPDEST POP POP POP JUMP JUMPDEST PUSH1 0x60 PUSH1 0x2 DUP1 SLOAD DUP1 PUSH1 0x20 MUL PUSH1 0x20 ADD PUSH1 0x40 MLOAD SWAP1 DUP2 ADD PUSH1 0x40 MSTORE DUP1 SWAP3 SWAP2 SWAP1 DUP2 DUP2 MSTORE PUSH1 0x20 ADD PUSH1 0x0 SWAP1 JUMPDEST DUP3 DUP3 LT ISZERO PUSH2 0x1D3B JUMPI DUP4 DUP3 SWAP1 PUSH1 0x0 MSTORE PUSH1 0x20 PUSH1 0x0 KECCAK256 ADD DUP1 SLOAD PUSH2 0x1CAE SWAP1 PUSH2 0x5713 JUMP JUMPDEST DUP1 PUSH1 0x1F ADD PUSH1 0x20 DUP1 SWAP2 DIV MUL PUSH1 0x20 ADD PUSH1 0x40 MLOAD SWAP1 DUP2 ADD PUSH1 0x40 MSTORE DUP1 SWAP3 SWAP2 SWAP1 DUP2 DUP2 MSTORE PUSH1 0x20 ADD DUP3 DUP1 SLOAD PUSH2 0x1CDA SWAP1 PUSH2 0x5713 JUMP JUMPDEST DUP1 ISZERO PUSH2 0x1D27 JUMPI DUP1 PUSH1 0x1F LT PUSH2 0x1CFC JUMPI PUSH2 0x100 DUP1 DUP4 SLOAD DIV MUL DUP4 MSTORE SWAP2 PUSH1 0x20 ADD SWAP2 PUSH2 0x1D27 JUMP JUMPDEST DUP3 ADD SWAP2 SWAP1 PUSH1 0x0 MSTORE PUSH1 0x20 PUSH1 0x0 KECCAK256 SWAP1 JUMPDEST DUP2 SLOAD DUP2 MSTORE SWAP1 PUSH1 0x1 ADD SWAP1 PUSH1 0x20 ADD DUP1 DUP4 GT PUSH2 0x1D0A JUMPI DUP3 SWAP1 SUB PUSH1 0x1F AND DUP3 ADD SWAP2 JUMPDEST POP POP POP POP POP DUP2 MSTORE PUSH1 0x20 ADD SWAP1 PUSH1 0x1 ADD SWAP1 PUSH2 0x1C8F JUMP JUMPDEST POP POP POP POP SWAP1 POP SWAP1 JUMP JUMPDEST PUSH1 0x0 DUP1 PUSH1 0x0 SWAP1 SLOAD SWAP1 PUSH2 0x100 EXP SWAP1 DIV PUSH20 0xFFFFFFFFFFFFFFFFFFFFFFFFFFFFFFFFFFFFFFFF AND SWAP1 POP SWAP1 JUMP JUMPDEST PUSH1 0x0 PUSH1 0x1 PUSH1 0x0 CALLER PUSH20 0xFFFFFFFFFFFFFFFFFFFFFFFFFFFFFFFFFFFFFFFF AND PUSH20 0xFFFFFFFFFFFFFFFFFFFFFFFFFFFFFFFFFFFFFFFF AND DUP2 MSTORE PUSH1 0x20 ADD SWAP1 DUP2 MSTORE PUSH1 0x20 ADD PUSH1 0x0 KECCAK256 DUP1 SLOAD PUSH2 0x1DB9 SWAP1 PUSH2 0x5713 JUMP JUMPDEST DUP1 PUSH1 0x1F ADD PUSH1 0x20 DUP1 SWAP2 DIV MUL PUSH1 0x20 ADD PUSH1 0x40 MLOAD SWAP1 DUP2 ADD PUSH1 0x40 MSTORE DUP1 SWAP3 SWAP2 SWAP1 DUP2 DUP2 MSTORE PUSH1 0x20 ADD DUP3 DUP1 SLOAD PUSH2 0x1DE5 SWAP1 PUSH2 0x5713 JUMP JUMPDEST DUP1 ISZERO PUSH2 0x1E32 JUMPI DUP1 PUSH1 0x1F LT PUSH2 0x1E07 JUMPI PUSH2 0x100 DUP1 DUP4 SLOAD DIV MUL DUP4 MSTORE SWAP2 PUSH1 0x20 ADD SWAP2 PUSH2 0x1E32 JUMP JUMPDEST DUP3 ADD SWAP2 SWAP1 PUSH1 0x0 MSTORE PUSH1 0x20 PUSH1 0x0 KECCAK256 SWAP1 JUMPDEST DUP2 SLOAD DUP2 MSTORE SWAP1 PUSH1 0x1 ADD SWAP1 PUSH1 0x20 ADD DUP1 DUP4 GT PUSH2 0x1E15 JUMPI DUP3 SWAP1 SUB PUSH1 0x1F AND DUP3 ADD SWAP2 JUMPDEST POP POP POP POP POP SWAP1 POP PUSH1 0x0 PUSH1 0x3 DUP2 GT ISZERO PUSH2 0x1E4D JUMPI PUSH2 0x1E4C PUSH2 0x5265 JUMP JUMPDEST JUMPDEST PUSH1 0x3 DUP3 PUSH1 0x40 MLOAD PUSH2 0x1E5D SWAP2 SWAP1 PUSH2 0x5775 JUMP JUMPDEST SWAP1 DUP2 MSTORE PUSH1 0x20 ADD PUSH1 0x40 MLOAD DUP1 SWAP2 SUB SWAP1 KECCAK256 PUSH1 0x0 SWAP1 SLOAD SWAP1 PUSH2 0x100 EXP SWAP1 DIV PUSH1 0xFF AND PUSH1 0x3 DUP2 GT ISZERO PUSH2 0x1E8B JUMPI PUSH2 0x1E8A PUSH2 0x5265 JUMP JUMPDEST JUMPDEST SUB PUSH2 0x1EC2 JUMPI PUSH1 0x40 MLOAD PUSH32 0x8FA622F500000000000000000000000000000000000000000000000000000000 DUP2 MSTORE PUSH1 0x4 ADD PUSH1 0x40 MLOAD DUP1 SWAP2 SUB SWAP1 REVERT JUMPDEST PUSH1 0x2 PUSH1 0x3 DUP2 GT ISZERO PUSH2 0x1ED6 JUMPI PUSH2 0x1ED5 PUSH2 0x5265 JUMP JUMPDEST JUMPDEST PUSH1 0x3 DUP3 PUSH1 0x40 MLOAD PUSH2 0x1EE6 SWAP2 SWAP1 PUSH2 0x5775 JUMP JUMPDEST SWAP1 DUP2 MSTORE PUSH1 0x20 ADD PUSH1 0x40 MLOAD DUP1 SWAP2 SUB SWAP1 KECCAK256 PUSH1 0x0 SWAP1 SLOAD SWAP1 PUSH2 0x100 EXP SWAP1 DIV PUSH1 0xFF AND PUSH1 0x3 DUP2 GT ISZERO PUSH2 0x1F14 JUMPI PUSH2 0x1F13 PUSH2 0x5265 JUMP JUMPDEST JUMPDEST EQ PUSH2 0x1F4B JUMPI PUSH1 0x40 MLOAD PUSH32 0x8AC8E00B00000000000000000000000000000000000000000000000000000000 DUP2 MSTORE PUSH1 0x4 ADD PUSH1 0x40 MLOAD DUP1 SWAP2 SUB SWAP1 REVERT JUMPDEST DUP7 DUP7 PUSH1 0x0 PUSH1 0x1 DUP2 GT ISZERO PUSH2 0x1F61 JUMPI PUSH2 0x1F60 PUSH2 0x5265 JUMP JUMPDEST JUMPDEST PUSH1 0x8 DUP4 DUP4 PUSH1 0x40 MLOAD PUSH2 0x1F73 SWAP3 SWAP2 SWAP1 PUSH2 0x56CB JUMP JUMPDEST SWAP1 DUP2 MSTORE PUSH1 0x20 ADD PUSH1 0x40 MLOAD DUP1 SWAP2 SUB SWAP1 KECCAK256 PUSH1 0x0 SWAP1 SLOAD SWAP1 PUSH2 0x100 EXP SWAP1 DIV PUSH1 0xFF AND PUSH1 0x1 DUP2 GT ISZERO PUSH2 0x1FA1 JUMPI PUSH2 0x1FA0 PUSH2 0x5265 JUMP JUMPDEST JUMPDEST SUB PUSH2 0x1FD8 JUMPI PUSH1 0x40 MLOAD PUSH32 0x78DE8BF00000000000000000000000000000000000000000000000000000000 DUP2 MSTORE PUSH1 0x4 ADD PUSH1 0x40 MLOAD DUP1 SWAP2 SUB SWAP1 REVERT JUMPDEST PUSH1 0x0 PUSH1 0x1 PUSH1 0x0 CALLER PUSH20 0xFFFFFFFFFFFFFFFFFFFFFFFFFFFFFFFFFFFFFFFF AND PUSH20 0xFFFFFFFFFFFFFFFFFFFFFFFFFFFFFFFFFFFFFFFF AND DUP2 MSTORE PUSH1 0x20 ADD SWAP1 DUP2 MSTORE PUSH1 0x20 ADD PUSH1 0x0 KECCAK256 DUP1 SLOAD PUSH2 0x2024 SWAP1 PUSH2 0x5713 JUMP JUMPDEST DUP1 PUSH1 0x1F ADD PUSH1 0x20 DUP1 SWAP2 DIV MUL PUSH1 0x20 ADD PUSH1 0x40 MLOAD SWAP1 DUP2 ADD PUSH1 0x40 MSTORE DUP1 SWAP3 SWAP2 SWAP1 DUP2 DUP2 MSTORE PUSH1 0x20 ADD DUP3 DUP1 SLOAD PUSH2 0x2050 SWAP1 PUSH2 0x5713 JUMP JUMPDEST DUP1 ISZERO PUSH2 0x209D JUMPI DUP1 PUSH1 0x1F LT PUSH2 0x2072 JUMPI PUSH2 0x100 DUP1 DUP4 SLOAD DIV MUL DUP4 MSTORE SWAP2 PUSH1 0x20 ADD SWAP2 PUSH2 0x209D JUMP JUMPDEST DUP3 ADD SWAP2 SWAP1 PUSH1 0x0 MSTORE PUSH1 0x20 PUSH1 0x0 KECCAK256 SWAP1 JUMPDEST DUP2 SLOAD DUP2 MSTORE SWAP1 PUSH1 0x1 ADD SWAP1 PUSH1 0x20 ADD DUP1 DUP4 GT PUSH2 0x2080 JUMPI DUP3 SWAP1 SUB PUSH1 0x1F AND DUP3 ADD SWAP2 JUMPDEST POP POP POP POP POP SWAP1 POP PUSH1 0x0 PUSH1 0x9 DUP5 DUP5 PUSH1 0x40 MLOAD PUSH2 0x20B8 SWAP3 SWAP2 SWAP1 PUSH2 0x56CB JUMP JUMPDEST SWAP1 DUP2 MSTORE PUSH1 0x20 ADD PUSH1 0x40 MLOAD DUP1 SWAP2 SUB SWAP1 KECCAK256 PUSH1 0x40 MLOAD PUSH2 0x20D2 SWAP1 PUSH2 0x5887 JUMP JUMPDEST SWAP1 DUP2 MSTORE PUSH1 0x20 ADD PUSH1 0x40 MLOAD DUP1 SWAP2 SUB SWAP1 KECCAK256 DUP1 SLOAD PUSH2 0x20EB SWAP1 PUSH2 0x5713 JUMP JUMPDEST DUP1 PUSH1 0x1F ADD PUSH1 0x20 DUP1 SWAP2 DIV MUL PUSH1 0x20 ADD PUSH1 0x40 MLOAD SWAP1 DUP2 ADD PUSH1 0x40 MSTORE DUP1 SWAP3 SWAP2 SWAP1 DUP2 DUP2 MSTORE PUSH1 0x20 ADD DUP3 DUP1 SLOAD PUSH2 0x2117 SWAP1 PUSH2 0x5713 JUMP JUMPDEST DUP1 ISZERO PUSH2 0x2164 JUMPI DUP1 PUSH1 0x1F LT PUSH2 0x2139 JUMPI PUSH2 0x100 DUP1 DUP4 SLOAD DIV MUL DUP4 MSTORE SWAP2 PUSH1 0x20 ADD SWAP2 PUSH2 0x2164 JUMP JUMPDEST DUP3 ADD SWAP2 SWAP1 PUSH1 0x0 MSTORE PUSH1 0x20 PUSH1 0x0 KECCAK256 SWAP1 JUMPDEST DUP2 SLOAD DUP2 MSTORE SWAP1 PUSH1 0x1 ADD SWAP1 PUSH1 0x20 ADD DUP1 DUP4 GT PUSH2 0x2147 JUMPI DUP3 SWAP1 SUB PUSH1 0x1F AND DUP3 ADD SWAP2 JUMPDEST POP POP POP POP POP SWAP1 POP DUP1 PUSH1 0x40 MLOAD PUSH1 0x20 ADD PUSH2 0x217C SWAP2 SWAP1 PUSH2 0x5775 JUMP JUMPDEST PUSH1 0x40 MLOAD PUSH1 0x20 DUP2 DUP4 SUB SUB DUP2 MSTORE SWAP1 PUSH1 0x40 MSTORE DUP1 MLOAD SWAP1 PUSH1 0x20 ADD KECCAK256 DUP3 PUSH1 0x40 MLOAD PUSH1 0x20 ADD PUSH2 0x21A3 SWAP2 SWAP1 PUSH2 0x5775 JUMP JUMPDEST PUSH1 0x40 MLOAD PUSH1 0x20 DUP2 DUP4 SUB SUB DUP2 MSTORE SWAP1 PUSH1 0x40 MSTORE DUP1 MLOAD SWAP1 PUSH1 0x20 ADD KECCAK256 EQ PUSH2 0x21F0 JUMPI PUSH1 0x40 MLOAD PUSH32 0xCA7B7FB200000000000000000000000000000000000000000000000000000000 DUP2 MSTORE PUSH1 0x4 ADD PUSH1 0x40 MLOAD DUP1 SWAP2 SUB SWAP1 REVERT JUMPDEST DUP7 DUP7 SWAP1 POP DUP10 DUP10 SWAP1 POP EQ PUSH2 0x222F JUMPI PUSH1 0x40 MLOAD PUSH32 0x79B3F46F00000000000000000000000000000000000000000000000000000000 DUP2 MSTORE PUSH1 0x4 ADD PUSH1 0x40 MLOAD DUP1 SWAP2 SUB SWAP1 REVERT JUMPDEST PUSH1 0x0 JUMPDEST DUP10 DUP10 SWAP1 POP DUP2 LT ISZERO PUSH2 0x2415 JUMPI PUSH1 0x0 DUP9 DUP9 DUP4 DUP2 DUP2 LT PUSH2 0x2252 JUMPI PUSH2 0x2251 PUSH2 0x5B0F JUMP JUMPDEST JUMPDEST SWAP1 POP PUSH1 0x20 MUL DUP2 ADD SWAP1 PUSH2 0x2264 SWAP2 SWAP1 PUSH2 0x5B4D JUMP JUMPDEST DUP1 DUP1 PUSH1 0x1F ADD PUSH1 0x20 DUP1 SWAP2 DIV MUL PUSH1 0x20 ADD PUSH1 0x40 MLOAD SWAP1 DUP2 ADD PUSH1 0x40 MSTORE DUP1 SWAP4 SWAP3 SWAP2 SWAP1 DUP2 DUP2 MSTORE PUSH1 0x20 ADD DUP4 DUP4 DUP1 DUP3 DUP5 CALLDATACOPY PUSH1 0x0 DUP2 DUP5 ADD MSTORE PUSH1 0x1F NOT PUSH1 0x1F DUP3 ADD AND SWAP1 POP DUP1 DUP4 ADD SWAP3 POP POP POP POP POP POP POP SWAP1 POP PUSH1 0x0 DUP2 MLOAD SUB PUSH2 0x22E4 JUMPI PUSH1 0x40 MLOAD PUSH32 0x47B4AF9400000000000000000000000000000000000000000000000000000000 DUP2 MSTORE PUSH1 0x4 ADD PUSH1 0x40 MLOAD DUP1 SWAP2 SUB SWAP1 REVERT JUMPDEST PUSH2 0x2401 DUP14 DUP14 DUP1 DUP1 PUSH1 0x1F ADD PUSH1 0x20 DUP1 SWAP2 DIV MUL PUSH1 0x20 ADD PUSH1 0x40 MLOAD SWAP1 DUP2 ADD PUSH1 0x40 MSTORE DUP1 SWAP4 SWAP3 SWAP2 SWAP1 DUP2 DUP2 MSTORE PUSH1 0x20 ADD DUP4 DUP4 DUP1 DUP3 DUP5 CALLDATACOPY PUSH1 0x0 DUP2 DUP5 ADD MSTORE PUSH1 0x1F NOT PUSH1 0x1F DUP3 ADD AND SWAP1 POP DUP1 DUP4 ADD SWAP3 POP POP POP POP POP POP POP DUP13 DUP13 DUP6 DUP2 DUP2 LT PUSH2 0x233F JUMPI PUSH2 0x233E PUSH2 0x5B0F JUMP JUMPDEST JUMPDEST SWAP1 POP PUSH1 0x20 MUL DUP2 ADD SWAP1 PUSH2 0x2351 SWAP2 SWAP1 PUSH2 0x5B4D JUMP JUMPDEST DUP1 DUP1 PUSH1 0x1F ADD PUSH1 0x20 DUP1 SWAP2 DIV MUL PUSH1 0x20 ADD PUSH1 0x40 MLOAD SWAP1 DUP2 ADD PUSH1 0x40 MSTORE DUP1 SWAP4 SWAP3 SWAP2 SWAP1 DUP2 DUP2 MSTORE PUSH1 0x20 ADD DUP4 DUP4 DUP1 DUP3 DUP5 CALLDATACOPY PUSH1 0x0 DUP2 DUP5 ADD MSTORE PUSH1 0x1F NOT PUSH1 0x1F DUP3 ADD AND SWAP1 POP DUP1 DUP4 ADD SWAP3 POP POP POP POP POP POP POP DUP12 DUP12 DUP7 DUP2 DUP2 LT PUSH2 0x23A7 JUMPI PUSH2 0x23A6 PUSH2 0x5B0F JUMP JUMPDEST JUMPDEST SWAP1 POP PUSH1 0x20 MUL DUP2 ADD SWAP1 PUSH2 0x23B9 SWAP2 SWAP1 PUSH2 0x5B4D JUMP JUMPDEST DUP1 DUP1 PUSH1 0x1F ADD PUSH1 0x20 DUP1 SWAP2 DIV MUL PUSH1 0x20 ADD PUSH1 0x40 MLOAD SWAP1 DUP2 ADD PUSH1 0x40 MSTORE DUP1 SWAP4 SWAP3 SWAP2 SWAP1 DUP2 DUP2 MSTORE PUSH1 0x20 ADD DUP4 DUP4 DUP1 DUP3 DUP5 CALLDATACOPY PUSH1 0x0 DUP2 DUP5 ADD MSTORE PUSH1 0x1F NOT PUSH1 0x1F DUP3 ADD AND SWAP1 POP DUP1 DUP4 ADD SWAP3 POP POP POP POP POP POP POP PUSH2 0x4578 JUMP JUMPDEST POP DUP1 DUP1 PUSH2 0x240D SWAP1 PUSH2 0x5BDF JUMP JUMPDEST SWAP2 POP POP PUSH2 0x2232 JUMP JUMPDEST POP POP POP POP POP POP POP POP POP POP POP POP JUMP JUMPDEST PUSH1 0x0 PUSH1 0x1 PUSH1 0x0 CALLER PUSH20 0xFFFFFFFFFFFFFFFFFFFFFFFFFFFFFFFFFFFFFFFF AND PUSH20 0xFFFFFFFFFFFFFFFFFFFFFFFFFFFFFFFFFFFFFFFF AND DUP2 MSTORE PUSH1 0x20 ADD SWAP1 DUP2 MSTORE PUSH1 0x20 ADD PUSH1 0x0 KECCAK256 DUP1 SLOAD PUSH2 0x246F SWAP1 PUSH2 0x5713 JUMP JUMPDEST DUP1 PUSH1 0x1F ADD PUSH1 0x20 DUP1 SWAP2 DIV MUL PUSH1 0x20 ADD PUSH1 0x40 MLOAD SWAP1 DUP2 ADD PUSH1 0x40 MSTORE DUP1 SWAP3 SWAP2 SWAP1 DUP2 DUP2 MSTORE PUSH1 0x20 ADD DUP3 DUP1 SLOAD PUSH2 0x249B SWAP1 PUSH2 0x5713 JUMP JUMPDEST DUP1 ISZERO PUSH2 0x24E8 JUMPI DUP1 PUSH1 0x1F LT PUSH2 0x24BD JUMPI PUSH2 0x100 DUP1 DUP4 SLOAD DIV MUL DUP4 MSTORE SWAP2 PUSH1 0x20 ADD SWAP2 PUSH2 0x24E8 JUMP JUMPDEST DUP3 ADD SWAP2 SWAP1 PUSH1 0x0 MSTORE PUSH1 0x20 PUSH1 0x0 KECCAK256 SWAP1 JUMPDEST DUP2 SLOAD DUP2 MSTORE SWAP1 PUSH1 0x1 ADD SWAP1 PUSH1 0x20 ADD DUP1 DUP4 GT PUSH2 0x24CB JUMPI DUP3 SWAP1 SUB PUSH1 0x1F AND DUP3 ADD SWAP2 JUMPDEST POP POP POP POP POP SWAP1 POP PUSH1 0x0 PUSH1 0x3 DUP2 GT ISZERO PUSH2 0x2503 JUMPI PUSH2 0x2502 PUSH2 0x5265 JUMP JUMPDEST JUMPDEST PUSH1 0x3 DUP3 PUSH1 0x40 MLOAD PUSH2 0x2513 SWAP2 SWAP1 PUSH2 0x5775 JUMP JUMPDEST SWAP1 DUP2 MSTORE PUSH1 0x20 ADD PUSH1 0x40 MLOAD DUP1 SWAP2 SUB SWAP1 KECCAK256 PUSH1 0x0 SWAP1 SLOAD SWAP1 PUSH2 0x100 EXP SWAP1 DIV PUSH1 0xFF AND PUSH1 0x3 DUP2 GT ISZERO PUSH2 0x2541 JUMPI PUSH2 0x2540 PUSH2 0x5265 JUMP JUMPDEST JUMPDEST SUB PUSH2 0x2578 JUMPI PUSH1 0x40 MLOAD PUSH32 0x8FA622F500000000000000000000000000000000000000000000000000000000 DUP2 MSTORE PUSH1 0x4 ADD PUSH1 0x40 MLOAD DUP1 SWAP2 SUB SWAP1 REVERT JUMPDEST PUSH1 0x2 PUSH1 0x3 DUP2 GT ISZERO PUSH2 0x258C JUMPI PUSH2 0x258B PUSH2 0x5265 JUMP JUMPDEST JUMPDEST PUSH1 0x3 DUP3 PUSH1 0x40 MLOAD PUSH2 0x259C SWAP2 SWAP1 PUSH2 0x5775 JUMP JUMPDEST SWAP1 DUP2 MSTORE PUSH1 0x20 ADD PUSH1 0x40 MLOAD DUP1 SWAP2 SUB SWAP1 KECCAK256 PUSH1 0x0 SWAP1 SLOAD SWAP1 PUSH2 0x100 EXP SWAP1 DIV PUSH1 0xFF AND PUSH1 0x3 DUP2 GT ISZERO PUSH2 0x25CA JUMPI PUSH2 0x25C9 PUSH2 0x5265 JUMP JUMPDEST JUMPDEST EQ PUSH2 0x2601 JUMPI PUSH1 0x40 MLOAD PUSH32 0x8AC8E00B00000000000000000000000000000000000000000000000000000000 DUP2 MSTORE PUSH1 0x4 ADD PUSH1 0x40 MLOAD DUP1 SWAP2 SUB SWAP1 REVERT JUMPDEST PUSH1 0x0 DUP4 DUP4 DUP1 DUP1 PUSH1 0x1F ADD PUSH1 0x20 DUP1 SWAP2 DIV MUL PUSH1 0x20 ADD PUSH1 0x40 MLOAD SWAP1 DUP2 ADD PUSH1 0x40 MSTORE DUP1 SWAP4 SWAP3 SWAP2 SWAP1 DUP2 DUP2 MSTORE PUSH1 0x20 ADD DUP4 DUP4 DUP1 DUP3 DUP5 CALLDATACOPY PUSH1 0x0 DUP2 DUP5 ADD MSTORE PUSH1 0x1F NOT PUSH1 0x1F DUP3 ADD AND SWAP1 POP DUP1 DUP4 ADD SWAP3 POP POP POP POP POP POP POP SWAP1 POP PUSH1 0x0 DUP2 MLOAD SUB PUSH2 0x2685 JUMPI PUSH1 0x40 MLOAD PUSH32 0x47B4AF9400000000000000000000000000000000000000000000000000000000 DUP2 MSTORE PUSH1 0x4 ADD PUSH1 0x40 MLOAD DUP1 SWAP2 SUB SWAP1 REVERT JUMPDEST PUSH1 0x0 PUSH1 0x1 PUSH1 0x0 CALLER PUSH20 0xFFFFFFFFFFFFFFFFFFFFFFFFFFFFFFFFFFFFFFFF AND PUSH20 0xFFFFFFFFFFFFFFFFFFFFFFFFFFFFFFFFFFFFFFFF AND DUP2 MSTORE PUSH1 0x20 ADD SWAP1 DUP2 MSTORE PUSH1 0x20 ADD PUSH1 0x0 KECCAK256 DUP1 SLOAD PUSH2 0x26D1 SWAP1 PUSH2 0x5713 JUMP JUMPDEST DUP1 PUSH1 0x1F ADD PUSH1 0x20 DUP1 SWAP2 DIV MUL PUSH1 0x20 ADD PUSH1 0x40 MLOAD SWAP1 DUP2 ADD PUSH1 0x40 MSTORE DUP1 SWAP3 SWAP2 SWAP1 DUP2 DUP2 MSTORE PUSH1 0x20 ADD DUP3 DUP1 SLOAD PUSH2 0x26FD SWAP1 PUSH2 0x5713 JUMP JUMPDEST DUP1 ISZERO PUSH2 0x274A JUMPI DUP1 PUSH1 0x1F LT PUSH2 0x271F JUMPI PUSH2 0x100 DUP1 DUP4 SLOAD DIV MUL DUP4 MSTORE SWAP2 PUSH1 0x20 ADD SWAP2 PUSH2 0x274A JUMP JUMPDEST DUP3 ADD SWAP2 SWAP1 PUSH1 0x0 MSTORE PUSH1 0x20 PUSH1 0x0 KECCAK256 SWAP1 JUMPDEST DUP2 SLOAD DUP2 MSTORE SWAP1 PUSH1 0x1 ADD SWAP1 PUSH1 0x20 ADD DUP1 DUP4 GT PUSH2 0x272D JUMPI DUP3 SWAP1 SUB PUSH1 0x1F AND DUP3 ADD SWAP2 JUMPDEST POP POP POP POP POP SWAP1 POP PUSH2 0x27E4 DUP2 DUP9 DUP9 DUP1 DUP1 PUSH1 0x1F ADD PUSH1 0x20 DUP1 SWAP2 DIV MUL PUSH1 0x20 ADD PUSH1 0x40 MLOAD SWAP1 DUP2 ADD PUSH1 0x40 MSTORE DUP1 SWAP4 SWAP3 SWAP2 SWAP1 DUP2 DUP2 MSTORE PUSH1 0x20 ADD DUP4 DUP4 DUP1 DUP3 DUP5 CALLDATACOPY PUSH1 0x0 DUP2 DUP5 ADD MSTORE PUSH1 0x1F NOT PUSH1 0x1F DUP3 ADD AND SWAP1 POP DUP1 DUP4 ADD SWAP3 POP POP POP POP POP POP POP DUP8 DUP8 DUP1 DUP1 PUSH1 0x1F ADD PUSH1 0x20 DUP1 SWAP2 DIV MUL PUSH1 0x20 ADD PUSH1 0x40 MLOAD SWAP1 DUP2 ADD PUSH1 0x40 MSTORE DUP1 SWAP4 SWAP3 SWAP2 SWAP1 DUP2 DUP2 MSTORE PUSH1 0x20 ADD DUP4 DUP4 DUP1 DUP3 DUP5 CALLDATACOPY PUSH1 0x0 DUP2 DUP5 ADD MSTORE PUSH1 0x1F NOT PUSH1 0x1F DUP3 ADD AND SWAP1 POP DUP1 DUP4 ADD SWAP3 POP POP POP POP POP POP POP PUSH2 0x46E8 JUMP JUMPDEST POP POP POP POP POP POP POP JUMP JUMPDEST PUSH1 0x60 PUSH1 0x4 DUP6 DUP6 PUSH1 0x40 MLOAD PUSH2 0x2801 SWAP3 SWAP2 SWAP1 PUSH2 0x56CB JUMP JUMPDEST SWAP1 DUP2 MSTORE PUSH1 0x20 ADD PUSH1 0x40 MLOAD DUP1 SWAP2 SUB SWAP1 KECCAK256 DUP4 DUP4 PUSH1 0x40 MLOAD PUSH2 0x281F SWAP3 SWAP2 SWAP1 PUSH2 0x56CB JUMP JUMPDEST SWAP1 DUP2 MSTORE PUSH1 0x20 ADD PUSH1 0x40 MLOAD DUP1 SWAP2 SUB SWAP1 KECCAK256 DUP1 SLOAD PUSH2 0x2838 SWAP1 PUSH2 0x5713 JUMP JUMPDEST DUP1 PUSH1 0x1F ADD PUSH1 0x20 DUP1 SWAP2 DIV MUL PUSH1 0x20 ADD PUSH1 0x40 MLOAD SWAP1 DUP2 ADD PUSH1 0x40 MSTORE DUP1 SWAP3 SWAP2 SWAP1 DUP2 DUP2 MSTORE PUSH1 0x20 ADD DUP3 DUP1 SLOAD PUSH2 0x2864 SWAP1 PUSH2 0x5713 JUMP JUMPDEST DUP1 ISZERO PUSH2 0x28B1 JUMPI DUP1 PUSH1 0x1F LT PUSH2 0x2886 JUMPI PUSH2 0x100 DUP1 DUP4 SLOAD DIV MUL DUP4 MSTORE SWAP2 PUSH1 0x20 ADD SWAP2 PUSH2 0x28B1 JUMP JUMPDEST DUP3 ADD SWAP2 SWAP1 PUSH1 0x0 MSTORE PUSH1 0x20 PUSH1 0x0 KECCAK256 SWAP1 JUMPDEST DUP2 SLOAD DUP2 MSTORE SWAP1 PUSH1 0x1 ADD SWAP1 PUSH1 0x20 ADD DUP1 DUP4 GT PUSH2 0x2894 JUMPI DUP3 SWAP1 SUB PUSH1 0x1F AND DUP3 ADD SWAP2 JUMPDEST POP POP POP POP POP SWAP1 POP SWAP5 SWAP4 POP POP POP POP JUMP JUMPDEST PUSH1 0x0 PUSH1 0x6 PUSH1 0x0 CALLER PUSH20 0xFFFFFFFFFFFFFFFFFFFFFFFFFFFFFFFFFFFFFFFF AND PUSH20 0xFFFFFFFFFFFFFFFFFFFFFFFFFFFFFFFFFFFFFFFF AND DUP2 MSTORE PUSH1 0x20 ADD SWAP1 DUP2 MSTORE PUSH1 0x20 ADD PUSH1 0x0 KECCAK256 DUP1 SLOAD PUSH2 0x290C SWAP1 PUSH2 0x5713 JUMP JUMPDEST DUP1 PUSH1 0x1F ADD PUSH1 0x20 DUP1 SWAP2 DIV MUL PUSH1 0x20 ADD PUSH1 0x40 MLOAD SWAP1 DUP2 ADD PUSH1 0x40 MSTORE DUP1 SWAP3 SWAP2 SWAP1 DUP2 DUP2 MSTORE PUSH1 0x20 ADD DUP3 DUP1 SLOAD PUSH2 0x2938 SWAP1 PUSH2 0x5713 JUMP JUMPDEST DUP1 ISZERO PUSH2 0x2985 JUMPI DUP1 PUSH1 0x1F LT PUSH2 0x295A JUMPI PUSH2 0x100 DUP1 DUP4 SLOAD DIV MUL DUP4 MSTORE SWAP2 PUSH1 0x20 ADD SWAP2 PUSH2 0x2985 JUMP JUMPDEST DUP3 ADD SWAP2 SWAP1 PUSH1 0x0 MSTORE PUSH1 0x20 PUSH1 0x0 KECCAK256 SWAP1 JUMPDEST DUP2 SLOAD DUP2 MSTORE SWAP1 PUSH1 0x1 ADD SWAP1 PUSH1 0x20 ADD DUP1 DUP4 GT PUSH2 0x2968 JUMPI DUP3 SWAP1 SUB PUSH1 0x1F AND DUP3 ADD SWAP2 JUMPDEST POP POP POP POP POP SWAP1 POP PUSH1 0x0 PUSH1 0x1 DUP2 GT ISZERO PUSH2 0x29A0 JUMPI PUSH2 0x299F PUSH2 0x5265 JUMP JUMPDEST JUMPDEST PUSH1 0x8 DUP3 PUSH1 0x40 MLOAD PUSH2 0x29B0 SWAP2 SWAP1 PUSH2 0x5775 JUMP JUMPDEST SWAP1 DUP2 MSTORE PUSH1 0x20 ADD PUSH1 0x40 MLOAD DUP1 SWAP2 SUB SWAP1 KECCAK256 PUSH1 0x0 SWAP1 SLOAD SWAP1 PUSH2 0x100 EXP SWAP1 DIV PUSH1 0xFF AND PUSH1 0x1 DUP2 GT ISZERO PUSH2 0x29DE JUMPI PUSH2 0x29DD PUSH2 0x5265 JUMP JUMPDEST JUMPDEST SUB PUSH2 0x2A15 JUMPI PUSH1 0x40 MLOAD PUSH32 0x78DE8BF00000000000000000000000000000000000000000000000000000000 DUP2 MSTORE PUSH1 0x4 ADD PUSH1 0x40 MLOAD DUP1 SWAP2 SUB SWAP1 REVERT JUMPDEST PUSH1 0x0 PUSH1 0x6 PUSH1 0x0 CALLER PUSH20 0xFFFFFFFFFFFFFFFFFFFFFFFFFFFFFFFFFFFFFFFF AND PUSH20 0xFFFFFFFFFFFFFFFFFFFFFFFFFFFFFFFFFFFFFFFF AND DUP2 MSTORE PUSH1 0x20 ADD SWAP1 DUP2 MSTORE PUSH1 0x20 ADD PUSH1 0x0 KECCAK256 DUP1 SLOAD PUSH2 0x2A61 SWAP1 PUSH2 0x5713 JUMP JUMPDEST DUP1 PUSH1 0x1F ADD PUSH1 0x20 DUP1 SWAP2 DIV MUL PUSH1 0x20 ADD PUSH1 0x40 MLOAD SWAP1 DUP2 ADD PUSH1 0x40 MSTORE DUP1 SWAP3 SWAP2 SWAP1 DUP2 DUP2 MSTORE PUSH1 0x20 ADD DUP3 DUP1 SLOAD PUSH2 0x2A8D SWAP1 PUSH2 0x5713 JUMP JUMPDEST DUP1 ISZERO PUSH2 0x2ADA JUMPI DUP1 PUSH1 0x1F LT PUSH2 0x2AAF JUMPI PUSH2 0x100 DUP1 DUP4 SLOAD DIV MUL DUP4 MSTORE SWAP2 PUSH1 0x20 ADD SWAP2 PUSH2 0x2ADA JUMP JUMPDEST DUP3 ADD SWAP2 SWAP1 PUSH1 0x0 MSTORE PUSH1 0x20 PUSH1 0x0 KECCAK256 SWAP1 JUMPDEST DUP2 SLOAD DUP2 MSTORE SWAP1 PUSH1 0x1 ADD SWAP1 PUSH1 0x20 ADD DUP1 DUP4 GT PUSH2 0x2ABD JUMPI DUP3 SWAP1 SUB PUSH1 0x1F AND DUP3 ADD SWAP2 JUMPDEST POP POP POP POP POP SWAP1 POP PUSH1 0x1 PUSH1 0xE PUSH1 0x0 DUP8 PUSH20 0xFFFFFFFFFFFFFFFFFFFFFFFFFFFFFFFFFFFFFFFF AND PUSH20 0xFFFFFFFFFFFFFFFFFFFFFFFFFFFFFFFFFFFFFFFF AND DUP2 MSTORE PUSH1 0x20 ADD SWAP1 DUP2 MSTORE PUSH1 0x20 ADD PUSH1 0x0 KECCAK256 DUP3 PUSH1 0x40 MLOAD PUSH2 0x2B30 SWAP2 SWAP1 PUSH2 0x5775 JUMP JUMPDEST SWAP1 DUP2 MSTORE PUSH1 0x20 ADD PUSH1 0x40 MLOAD DUP1 SWAP2 SUB SWAP1 KECCAK256 DUP6 DUP6 PUSH1 0x40 MLOAD PUSH2 0x2B4E SWAP3 SWAP2 SWAP1 PUSH2 0x56CB JUMP JUMPDEST SWAP1 DUP2 MSTORE PUSH1 0x20 ADD PUSH1 0x40 MLOAD DUP1 SWAP2 SUB SWAP1 KECCAK256 PUSH1 0x0 PUSH2 0x100 EXP DUP2 SLOAD DUP2 PUSH1 0xFF MUL NOT AND SWAP1 DUP4 ISZERO ISZERO MUL OR SWAP1 SSTORE POP POP POP POP POP POP JUMP JUMPDEST PUSH1 0x0 PUSH1 0x6 PUSH1 0x0 CALLER PUSH20 0xFFFFFFFFFFFFFFFFFFFFFFFFFFFFFFFFFFFFFFFF AND PUSH20 0xFFFFFFFFFFFFFFFFFFFFFFFFFFFFFFFFFFFFFFFF AND DUP2 MSTORE PUSH1 0x20 ADD SWAP1 DUP2 MSTORE PUSH1 0x20 ADD PUSH1 0x0 KECCAK256 DUP1 SLOAD PUSH2 0x2BC6 SWAP1 PUSH2 0x5713 JUMP JUMPDEST DUP1 PUSH1 0x1F ADD PUSH1 0x20 DUP1 SWAP2 DIV MUL PUSH1 0x20 ADD PUSH1 0x40 MLOAD SWAP1 DUP2 ADD PUSH1 0x40 MSTORE DUP1 SWAP3 SWAP2 SWAP1 DUP2 DUP2 MSTORE PUSH1 0x20 ADD DUP3 DUP1 SLOAD PUSH2 0x2BF2 SWAP1 PUSH2 0x5713 JUMP JUMPDEST DUP1 ISZERO PUSH2 0x2C3F JUMPI DUP1 PUSH1 0x1F LT PUSH2 0x2C14 JUMPI PUSH2 0x100 DUP1 DUP4 SLOAD DIV MUL DUP4 MSTORE SWAP2 PUSH1 0x20 ADD SWAP2 PUSH2 0x2C3F JUMP JUMPDEST DUP3 ADD SWAP2 SWAP1 PUSH1 0x0 MSTORE PUSH1 0x20 PUSH1 0x0 KECCAK256 SWAP1 JUMPDEST DUP2 SLOAD DUP2 MSTORE SWAP1 PUSH1 0x1 ADD SWAP1 PUSH1 0x20 ADD DUP1 DUP4 GT PUSH2 0x2C22 JUMPI DUP3 SWAP1 SUB PUSH1 0x1F AND DUP3 ADD SWAP2 JUMPDEST POP POP POP POP POP SWAP1 POP PUSH1 0x0 PUSH1 0x1 DUP2 GT ISZERO PUSH2 0x2C5A JUMPI PUSH2 0x2C59 PUSH2 0x5265 JUMP JUMPDEST JUMPDEST PUSH1 0x8 DUP3 PUSH1 0x40 MLOAD PUSH2 0x2C6A SWAP2 SWAP1 PUSH2 0x5775 JUMP JUMPDEST SWAP1 DUP2 MSTORE PUSH1 0x20 ADD PUSH1 0x40 MLOAD DUP1 SWAP2 SUB SWAP1 KECCAK256 PUSH1 0x0 SWAP1 SLOAD SWAP1 PUSH2 0x100 EXP SWAP1 DIV PUSH1 0xFF AND PUSH1 0x1 DUP2 GT ISZERO PUSH2 0x2C98 JUMPI PUSH2 0x2C97 PUSH2 0x5265 JUMP JUMPDEST JUMPDEST SUB PUSH2 0x2CCF JUMPI PUSH1 0x40 MLOAD PUSH32 0x78DE8BF00000000000000000000000000000000000000000000000000000000 DUP2 MSTORE PUSH1 0x4 ADD PUSH1 0x40 MLOAD DUP1 SWAP2 SUB SWAP1 REVERT JUMPDEST DUP3 DUP3 SWAP1 POP DUP6 DUP6 SWAP1 POP EQ PUSH2 0x2D0E JUMPI PUSH1 0x40 MLOAD PUSH32 0x79B3F46F00000000000000000000000000000000000000000000000000000000 DUP2 MSTORE PUSH1 0x4 ADD PUSH1 0x40 MLOAD DUP1 SWAP2 SUB SWAP1 REVERT JUMPDEST PUSH1 0x0 PUSH1 0x6 PUSH1 0x0 CALLER PUSH20 0xFFFFFFFFFFFFFFFFFFFFFFFFFFFFFFFFFFFFFFFF AND PUSH20 0xFFFFFFFFFFFFFFFFFFFFFFFFFFFFFFFFFFFFFFFF AND DUP2 MSTORE PUSH1 0x20 ADD SWAP1 DUP2 MSTORE PUSH1 0x20 ADD PUSH1 0x0 KECCAK256 DUP1 SLOAD PUSH2 0x2D5A SWAP1 PUSH2 0x5713 JUMP JUMPDEST DUP1 PUSH1 0x1F ADD PUSH1 0x20 DUP1 SWAP2 DIV MUL PUSH1 0x20 ADD PUSH1 0x40 MLOAD SWAP1 DUP2 ADD PUSH1 0x40 MSTORE DUP1 SWAP3 SWAP2 SWAP1 DUP2 DUP2 MSTORE PUSH1 0x20 ADD DUP3 DUP1 SLOAD PUSH2 0x2D86 SWAP1 PUSH2 0x5713 JUMP JUMPDEST DUP1 ISZERO PUSH2 0x2DD3 JUMPI DUP1 PUSH1 0x1F LT PUSH2 0x2DA8 JUMPI PUSH2 0x100 DUP1 DUP4 SLOAD DIV MUL DUP4 MSTORE SWAP2 PUSH1 0x20 ADD SWAP2 PUSH2 0x2DD3 JUMP JUMPDEST DUP3 ADD SWAP2 SWAP1 PUSH1 0x0 MSTORE PUSH1 0x20 PUSH1 0x0 KECCAK256 SWAP1 JUMPDEST DUP2 SLOAD DUP2 MSTORE SWAP1 PUSH1 0x1 ADD SWAP1 PUSH1 0x20 ADD DUP1 DUP4 GT PUSH2 0x2DB6 JUMPI DUP3 SWAP1 SUB PUSH1 0x1F AND DUP3 ADD SWAP2 JUMPDEST POP POP POP POP POP SWAP1 POP PUSH1 0x0 JUMPDEST DUP7 DUP7 SWAP1 POP DUP2 LT ISZERO PUSH2 0x2F60 JUMPI PUSH1 0xB DUP3 PUSH1 0x40 MLOAD PUSH2 0x2DF8 SWAP2 SWAP1 PUSH2 0x5775 JUMP JUMPDEST SWAP1 DUP2 MSTORE PUSH1 0x20 ADD PUSH1 0x40 MLOAD DUP1 SWAP2 SUB SWAP1 KECCAK256 DUP8 DUP8 DUP4 DUP2 DUP2 LT PUSH2 0x2E19 JUMPI PUSH2 0x2E18 PUSH2 0x5B0F JUMP JUMPDEST JUMPDEST SWAP1 POP PUSH1 0x20 MUL DUP2 ADD SWAP1 PUSH2 0x2E2B SWAP2 SWAP1 PUSH2 0x5B4D JUMP JUMPDEST PUSH1 0x40 MLOAD PUSH2 0x2E39 SWAP3 SWAP2 SWAP1 PUSH2 0x56CB JUMP JUMPDEST SWAP1 DUP2 MSTORE PUSH1 0x20 ADD PUSH1 0x40 MLOAD DUP1 SWAP2 SUB SWAP1 KECCAK256 PUSH1 0x0 SWAP1 SLOAD SWAP1 PUSH2 0x100 EXP SWAP1 DIV PUSH1 0xFF AND PUSH2 0x2E8B JUMPI PUSH1 0x40 MLOAD PUSH32 0x722F899200000000000000000000000000000000000000000000000000000000 DUP2 MSTORE PUSH1 0x4 ADD PUSH1 0x40 MLOAD DUP1 SWAP2 SUB SWAP1 REVERT JUMPDEST PUSH2 0x2EBB DUP3 DUP9 DUP9 DUP5 DUP2 DUP2 LT PUSH2 0x2EA2 JUMPI PUSH2 0x2EA1 PUSH2 0x5B0F JUMP JUMPDEST JUMPDEST SWAP1 POP PUSH1 0x20 MUL DUP2 ADD SWAP1 PUSH2 0x2EB4 SWAP2 SWAP1 PUSH2 0x5B4D JUMP JUMPDEST PUSH1 0x1 PUSH2 0x4858 JUMP JUMPDEST DUP5 DUP5 DUP3 DUP2 DUP2 LT PUSH2 0x2ECE JUMPI PUSH2 0x2ECD PUSH2 0x5B0F JUMP JUMPDEST JUMPDEST SWAP1 POP PUSH1 0x20 MUL DUP2 ADD SWAP1 PUSH2 0x2EE0 SWAP2 SWAP1 PUSH2 0x5B4D JUMP JUMPDEST PUSH1 0xD DUP5 PUSH1 0x40 MLOAD PUSH2 0x2EF0 SWAP2 SWAP1 PUSH2 0x5775 JUMP JUMPDEST SWAP1 DUP2 MSTORE PUSH1 0x20 ADD PUSH1 0x40 MLOAD DUP1 SWAP2 SUB SWAP1 KECCAK256 DUP10 DUP10 DUP6 DUP2 DUP2 LT PUSH2 0x2F11 JUMPI PUSH2 0x2F10 PUSH2 0x5B0F JUMP JUMPDEST JUMPDEST SWAP1 POP PUSH1 0x20 MUL DUP2 ADD SWAP1 PUSH2 0x2F23 SWAP2 SWAP1 PUSH2 0x5B4D JUMP JUMPDEST PUSH1 0x40 MLOAD PUSH2 0x2F31 SWAP3 SWAP2 SWAP1 PUSH2 0x56CB JUMP JUMPDEST SWAP1 DUP2 MSTORE PUSH1 0x20 ADD PUSH1 0x40 MLOAD DUP1 SWAP2 SUB SWAP1 KECCAK256 SWAP2 DUP3 PUSH2 0x2F4C SWAP3 SWAP2 SWAP1 PUSH2 0x5C32 JUMP JUMPDEST POP DUP1 DUP1 PUSH2 0x2F58 SWAP1 PUSH2 0x5BDF JUMP JUMPDEST SWAP2 POP POP PUSH2 0x2DDD JUMP JUMPDEST POP POP POP POP POP POP POP JUMP JUMPDEST PUSH1 0x0 PUSH1 0x1 PUSH1 0x0 CALLER PUSH20 0xFFFFFFFFFFFFFFFFFFFFFFFFFFFFFFFFFFFFFFFF AND PUSH20 0xFFFFFFFFFFFFFFFFFFFFFFFFFFFFFFFFFFFFFFFF AND DUP2 MSTORE PUSH1 0x20 ADD SWAP1 DUP2 MSTORE PUSH1 0x20 ADD PUSH1 0x0 KECCAK256 DUP1 SLOAD PUSH2 0x2FB5 SWAP1 PUSH2 0x5713 JUMP JUMPDEST DUP1 PUSH1 0x1F ADD PUSH1 0x20 DUP1 SWAP2 DIV MUL PUSH1 0x20 ADD PUSH1 0x40 MLOAD SWAP1 DUP2 ADD PUSH1 0x40 MSTORE DUP1 SWAP3 SWAP2 SWAP1 DUP2 DUP2 MSTORE PUSH1 0x20 ADD DUP3 DUP1 SLOAD PUSH2 0x2FE1 SWAP1 PUSH2 0x5713 JUMP JUMPDEST DUP1 ISZERO PUSH2 0x302E JUMPI DUP1 PUSH1 0x1F LT PUSH2 0x3003 JUMPI PUSH2 0x100 DUP1 DUP4 SLOAD DIV MUL DUP4 MSTORE SWAP2 PUSH1 0x20 ADD SWAP2 PUSH2 0x302E JUMP JUMPDEST DUP3 ADD SWAP2 SWAP1 PUSH1 0x0 MSTORE PUSH1 0x20 PUSH1 0x0 KECCAK256 SWAP1 JUMPDEST DUP2 SLOAD DUP2 MSTORE SWAP1 PUSH1 0x1 ADD SWAP1 PUSH1 0x20 ADD DUP1 DUP4 GT PUSH2 0x3011 JUMPI DUP3 SWAP1 SUB PUSH1 0x1F AND DUP3 ADD SWAP2 JUMPDEST POP POP POP POP POP SWAP1 POP PUSH1 0x0 PUSH1 0x3 DUP2 GT ISZERO PUSH2 0x3049 JUMPI PUSH2 0x3048 PUSH2 0x5265 JUMP JUMPDEST JUMPDEST PUSH1 0x3 DUP3 PUSH1 0x40 MLOAD PUSH2 0x3059 SWAP2 SWAP1 PUSH2 0x5775 JUMP JUMPDEST SWAP1 DUP2 MSTORE PUSH1 0x20 ADD PUSH1 0x40 MLOAD DUP1 SWAP2 SUB SWAP1 KECCAK256 PUSH1 0x0 SWAP1 SLOAD SWAP1 PUSH2 0x100 EXP SWAP1 DIV PUSH1 0xFF AND PUSH1 0x3 DUP2 GT ISZERO PUSH2 0x3087 JUMPI PUSH2 0x3086 PUSH2 0x5265 JUMP JUMPDEST JUMPDEST SUB PUSH2 0x30BE JUMPI PUSH1 0x40 MLOAD PUSH32 0x8FA622F500000000000000000000000000000000000000000000000000000000 DUP2 MSTORE PUSH1 0x4 ADD PUSH1 0x40 MLOAD DUP1 SWAP2 SUB SWAP1 REVERT JUMPDEST PUSH1 0x2 PUSH1 0x3 DUP2 GT ISZERO PUSH2 0x30D2 JUMPI PUSH2 0x30D1 PUSH2 0x5265 JUMP JUMPDEST JUMPDEST PUSH1 0x3 DUP3 PUSH1 0x40 MLOAD PUSH2 0x30E2 SWAP2 SWAP1 PUSH2 0x5775 JUMP JUMPDEST SWAP1 DUP2 MSTORE PUSH1 0x20 ADD PUSH1 0x40 MLOAD DUP1 SWAP2 SUB SWAP1 KECCAK256 PUSH1 0x0 SWAP1 SLOAD SWAP1 PUSH2 0x100 EXP SWAP1 DIV PUSH1 0xFF AND PUSH1 0x3 DUP2 GT ISZERO PUSH2 0x3110 JUMPI PUSH2 0x310F PUSH2 0x5265 JUMP JUMPDEST JUMPDEST EQ PUSH2 0x3147 JUMPI PUSH1 0x40 MLOAD PUSH32 0x8AC8E00B00000000000000000000000000000000000000000000000000000000 DUP2 MSTORE PUSH1 0x4 ADD PUSH1 0x40 MLOAD DUP1 SWAP2 SUB SWAP1 REVERT JUMPDEST DUP5 DUP5 PUSH1 0x0 PUSH1 0x1 DUP2 GT ISZERO PUSH2 0x315D JUMPI PUSH2 0x315C PUSH2 0x5265 JUMP JUMPDEST JUMPDEST PUSH1 0x8 DUP4 DUP4 PUSH1 0x40 MLOAD PUSH2 0x316F SWAP3 SWAP2 SWAP1 PUSH2 0x56CB JUMP JUMPDEST SWAP1 DUP2 MSTORE PUSH1 0x20 ADD PUSH1 0x40 MLOAD DUP1 SWAP2 SUB SWAP1 KECCAK256 PUSH1 0x0 SWAP1 SLOAD SWAP1 PUSH2 0x100 EXP SWAP1 DIV PUSH1 0xFF AND PUSH1 0x1 DUP2 GT ISZERO PUSH2 0x319D JUMPI PUSH2 0x319C PUSH2 0x5265 JUMP JUMPDEST JUMPDEST SUB PUSH2 0x31D4 JUMPI PUSH1 0x40 MLOAD PUSH32 0x78DE8BF00000000000000000000000000000000000000000000000000000000 DUP2 MSTORE PUSH1 0x4 ADD PUSH1 0x40 MLOAD DUP1 SWAP2 SUB SWAP1 REVERT JUMPDEST PUSH1 0x0 PUSH1 0x1 PUSH1 0x0 CALLER PUSH20 0xFFFFFFFFFFFFFFFFFFFFFFFFFFFFFFFFFFFFFFFF AND PUSH20 0xFFFFFFFFFFFFFFFFFFFFFFFFFFFFFFFFFFFFFFFF AND DUP2 MSTORE PUSH1 0x20 ADD SWAP1 DUP2 MSTORE PUSH1 0x20 ADD PUSH1 0x0 KECCAK256 DUP1 SLOAD PUSH2 0x3220 SWAP1 PUSH2 0x5713 JUMP JUMPDEST DUP1 PUSH1 0x1F ADD PUSH1 0x20 DUP1 SWAP2 DIV MUL PUSH1 0x20 ADD PUSH1 0x40 MLOAD SWAP1 DUP2 ADD PUSH1 0x40 MSTORE DUP1 SWAP3 SWAP2 SWAP1 DUP2 DUP2 MSTORE PUSH1 0x20 ADD DUP3 DUP1 SLOAD PUSH2 0x324C SWAP1 PUSH2 0x5713 JUMP JUMPDEST DUP1 ISZERO PUSH2 0x3299 JUMPI DUP1 PUSH1 0x1F LT PUSH2 0x326E JUMPI PUSH2 0x100 DUP1 DUP4 SLOAD DIV MUL DUP4 MSTORE SWAP2 PUSH1 0x20 ADD SWAP2 PUSH2 0x3299 JUMP JUMPDEST DUP3 ADD SWAP2 SWAP1 PUSH1 0x0 MSTORE PUSH1 0x20 PUSH1 0x0 KECCAK256 SWAP1 JUMPDEST DUP2 SLOAD DUP2 MSTORE SWAP1 PUSH1 0x1 ADD SWAP1 PUSH1 0x20 ADD DUP1 DUP4 GT PUSH2 0x327C JUMPI DUP3 SWAP1 SUB PUSH1 0x1F AND DUP3 ADD SWAP2 JUMPDEST POP POP POP POP POP SWAP1 POP PUSH1 0x0 PUSH1 0x9 DUP5 DUP5 PUSH1 0x40 MLOAD PUSH2 0x32B4 SWAP3 SWAP2 SWAP1 PUSH2 0x56CB JUMP JUMPDEST SWAP1 DUP2 MSTORE PUSH1 0x20 ADD PUSH1 0x40 MLOAD DUP1 SWAP2 SUB SWAP1 KECCAK256 PUSH1 0x40 MLOAD PUSH2 0x32CE SWAP1 PUSH2 0x5887 JUMP JUMPDEST SWAP1 DUP2 MSTORE PUSH1 0x20 ADD PUSH1 0x40 MLOAD DUP1 SWAP2 SUB SWAP1 KECCAK256 DUP1 SLOAD PUSH2 0x32E7 SWAP1 PUSH2 0x5713 JUMP JUMPDEST DUP1 PUSH1 0x1F ADD PUSH1 0x20 DUP1 SWAP2 DIV MUL PUSH1 0x20 ADD PUSH1 0x40 MLOAD SWAP1 DUP2 ADD PUSH1 0x40 MSTORE DUP1 SWAP3 SWAP2 SWAP1 DUP2 DUP2 MSTORE PUSH1 0x20 ADD DUP3 DUP1 SLOAD PUSH2 0x3313 SWAP1 PUSH2 0x5713 JUMP JUMPDEST DUP1 ISZERO PUSH2 0x3360 JUMPI DUP1 PUSH1 0x1F LT PUSH2 0x3335 JUMPI PUSH2 0x100 DUP1 DUP4 SLOAD DIV MUL DUP4 MSTORE SWAP2 PUSH1 0x20 ADD SWAP2 PUSH2 0x3360 JUMP JUMPDEST DUP3 ADD SWAP2 SWAP1 PUSH1 0x0 MSTORE PUSH1 0x20 PUSH1 0x0 KECCAK256 SWAP1 JUMPDEST DUP2 SLOAD DUP2 MSTORE SWAP1 PUSH1 0x1 ADD SWAP1 PUSH1 0x20 ADD DUP1 DUP4 GT PUSH2 0x3343 JUMPI DUP3 SWAP1 SUB PUSH1 0x1F AND DUP3 ADD SWAP2 JUMPDEST POP POP POP POP POP SWAP1 POP DUP1 PUSH1 0x40 MLOAD PUSH1 0x20 ADD PUSH2 0x3378 SWAP2 SWAP1 PUSH2 0x5775 JUMP JUMPDEST PUSH1 0x40 MLOAD PUSH1 0x20 DUP2 DUP4 SUB SUB DUP2 MSTORE SWAP1 PUSH1 0x40 MSTORE DUP1 MLOAD SWAP1 PUSH1 0x20 ADD KECCAK256 DUP3 PUSH1 0x40 MLOAD PUSH1 0x20 ADD PUSH2 0x339F SWAP2 SWAP1 PUSH2 0x5775 JUMP JUMPDEST PUSH1 0x40 MLOAD PUSH1 0x20 DUP2 DUP4 SUB SUB DUP2 MSTORE SWAP1 PUSH1 0x40 MSTORE DUP1 MLOAD SWAP1 PUSH1 0x20 ADD KECCAK256 EQ PUSH2 0x33EC JUMPI PUSH1 0x40 MLOAD PUSH32 0xCA7B7FB200000000000000000000000000000000000000000000000000000000 DUP2 MSTORE PUSH1 0x4 ADD PUSH1 0x40 MLOAD DUP1 SWAP2 SUB SWAP1 REVERT JUMPDEST PUSH2 0x343D DUP10 DUP10 DUP1 DUP1 PUSH1 0x1F ADD PUSH1 0x20 DUP1 SWAP2 DIV MUL PUSH1 0x20 ADD PUSH1 0x40 MLOAD SWAP1 DUP2 ADD PUSH1 0x40 MSTORE DUP1 SWAP4 SWAP3 SWAP2 SWAP1 DUP2 DUP2 MSTORE PUSH1 0x20 ADD DUP4 DUP4 DUP1 DUP3 DUP5 CALLDATACOPY PUSH1 0x0 DUP2 DUP5 ADD MSTORE PUSH1 0x1F NOT PUSH1 0x1F DUP3 ADD AND SWAP1 POP DUP1 DUP4 ADD SWAP3 POP POP POP POP POP POP POP DUP9 DUP9 PUSH1 0x0 PUSH2 0x4858 JUMP JUMPDEST PUSH2 0x3596 DUP10 DUP10 DUP1 DUP1 PUSH1 0x1F ADD PUSH1 0x20 DUP1 SWAP2 DIV MUL PUSH1 0x20 ADD PUSH1 0x40 MLOAD SWAP1 DUP2 ADD PUSH1 0x40 MSTORE DUP1 SWAP4 SWAP3 SWAP2 SWAP1 DUP2 DUP2 MSTORE PUSH1 0x20 ADD DUP4 DUP4 DUP1 DUP3 DUP5 CALLDATACOPY PUSH1 0x0 DUP2 DUP5 ADD MSTORE PUSH1 0x1F NOT PUSH1 0x1F DUP3 ADD AND SWAP1 POP DUP1 DUP4 ADD SWAP3 POP POP POP POP POP POP POP DUP9 DUP9 DUP1 DUP1 PUSH1 0x1F ADD PUSH1 0x20 DUP1 SWAP2 DIV MUL PUSH1 0x20 ADD PUSH1 0x40 MLOAD SWAP1 DUP2 ADD PUSH1 0x40 MSTORE DUP1 SWAP4 SWAP3 SWAP2 SWAP1 DUP2 DUP2 MSTORE PUSH1 0x20 ADD DUP4 DUP4 DUP1 DUP3 DUP5 CALLDATACOPY PUSH1 0x0 DUP2 DUP5 ADD MSTORE PUSH1 0x1F NOT PUSH1 0x1F DUP3 ADD AND SWAP1 POP DUP1 DUP4 ADD SWAP3 POP POP POP POP POP POP POP PUSH1 0xD DUP13 DUP13 PUSH1 0x40 MLOAD PUSH2 0x34DC SWAP3 SWAP2 SWAP1 PUSH2 0x56CB JUMP JUMPDEST SWAP1 DUP2 MSTORE PUSH1 0x20 ADD PUSH1 0x40 MLOAD DUP1 SWAP2 SUB SWAP1 KECCAK256 DUP11 DUP11 PUSH1 0x40 MLOAD PUSH2 0x34FA SWAP3 SWAP2 SWAP1 PUSH2 0x56CB JUMP JUMPDEST SWAP1 DUP2 MSTORE PUSH1 0x20 ADD PUSH1 0x40 MLOAD DUP1 SWAP2 SUB SWAP1 KECCAK256 DUP1 SLOAD PUSH2 0x3513 SWAP1 PUSH2 0x5713 JUMP JUMPDEST DUP1 PUSH1 0x1F ADD PUSH1 0x20 DUP1 SWAP2 DIV MUL PUSH1 0x20 ADD PUSH1 0x40 MLOAD SWAP1 DUP2 ADD PUSH1 0x40 MSTORE DUP1 SWAP3 SWAP2 SWAP1 DUP2 DUP2 MSTORE PUSH1 0x20 ADD DUP3 DUP1 SLOAD PUSH2 0x353F SWAP1 PUSH2 0x5713 JUMP JUMPDEST DUP1 ISZERO PUSH2 0x358C JUMPI DUP1 PUSH1 0x1F LT PUSH2 0x3561 JUMPI PUSH2 0x100 DUP1 DUP4 SLOAD DIV MUL DUP4 MSTORE SWAP2 PUSH1 0x20 ADD SWAP2 PUSH2 0x358C JUMP JUMPDEST DUP3 ADD SWAP2 SWAP1 PUSH1 0x0 MSTORE PUSH1 0x20 PUSH1 0x0 KECCAK256 SWAP1 JUMPDEST DUP2 SLOAD DUP2 MSTORE SWAP1 PUSH1 0x1 ADD SWAP1 PUSH1 0x20 ADD DUP1 DUP4 GT PUSH2 0x356F JUMPI DUP3 SWAP1 SUB PUSH1 0x1F AND DUP3 ADD SWAP2 JUMPDEST POP POP POP POP POP PUSH2 0x4578 JUMP JUMPDEST POP POP POP POP POP POP POP POP POP JUMP JUMPDEST PUSH1 0x0 PUSH1 0x3 DUP4 DUP4 PUSH1 0x40 MLOAD PUSH2 0x35B5 SWAP3 SWAP2 SWAP1 PUSH2 0x56CB JUMP JUMPDEST SWAP1 DUP2 MSTORE PUSH1 0x20 ADD PUSH1 0x40 MLOAD DUP1 SWAP2 SUB SWAP1 KECCAK256 PUSH1 0x0 SWAP1 SLOAD SWAP1 PUSH2 0x100 EXP SWAP1 DIV PUSH1 0xFF AND SWAP1 POP SWAP3 SWAP2 POP POP JUMP JUMPDEST PUSH1 0x0 DUP1 SLOAD SWAP1 PUSH2 0x100 EXP SWAP1 DIV PUSH20 0xFFFFFFFFFFFFFFFFFFFFFFFFFFFFFFFFFFFFFFFF AND PUSH20 0xFFFFFFFFFFFFFFFFFFFFFFFFFFFFFFFFFFFFFFFF AND CALLER PUSH20 0xFFFFFFFFFFFFFFFFFFFFFFFFFFFFFFFFFFFFFFFF AND EQ PUSH2 0x365E JUMPI PUSH1 0x40 MLOAD PUSH32 0x2DCA963600000000000000000000000000000000000000000000000000000000 DUP2 MSTORE PUSH1 0x4 ADD PUSH1 0x40 MLOAD DUP1 SWAP2 SUB SWAP1 REVERT JUMPDEST PUSH1 0x0 PUSH1 0x3 DUP2 GT ISZERO PUSH2 0x3672 JUMPI PUSH2 0x3671 PUSH2 0x5265 JUMP JUMPDEST JUMPDEST PUSH1 0x3 DUP4 DUP4 PUSH1 0x40 MLOAD PUSH2 0x3684 SWAP3 SWAP2 SWAP1 PUSH2 0x56CB JUMP JUMPDEST SWAP1 DUP2 MSTORE PUSH1 0x20 ADD PUSH1 0x40 MLOAD DUP1 SWAP2 SUB SWAP1 KECCAK256 PUSH1 0x0 SWAP1 SLOAD SWAP1 PUSH2 0x100 EXP SWAP1 DIV PUSH1 0xFF AND PUSH1 0x3 DUP2 GT ISZERO PUSH2 0x36B2 JUMPI PUSH2 0x36B1 PUSH2 0x5265 JUMP JUMPDEST JUMPDEST SUB PUSH2 0x36E9 JUMPI PUSH1 0x40 MLOAD PUSH32 0x567E9BE600000000000000000000000000000000000000000000000000000000 DUP2 MSTORE PUSH1 0x4 ADD PUSH1 0x40 MLOAD DUP1 SWAP2 SUB SWAP1 REVERT JUMPDEST PUSH1 0x2 PUSH1 0x3 DUP2 GT ISZERO PUSH2 0x36FD JUMPI PUSH2 0x36FC PUSH2 0x5265 JUMP JUMPDEST JUMPDEST PUSH1 0x3 DUP4 DUP4 PUSH1 0x40 MLOAD PUSH2 0x370F SWAP3 SWAP2 SWAP1 PUSH2 0x56CB JUMP JUMPDEST SWAP1 DUP2 MSTORE PUSH1 0x20 ADD PUSH1 0x40 MLOAD DUP1 SWAP2 SUB SWAP1 KECCAK256 PUSH1 0x0 SWAP1 SLOAD SWAP1 PUSH2 0x100 EXP SWAP1 DIV PUSH1 0xFF AND PUSH1 0x3 DUP2 GT ISZERO PUSH2 0x373D JUMPI PUSH2 0x373C PUSH2 0x5265 JUMP JUMPDEST JUMPDEST SUB PUSH2 0x3774 JUMPI PUSH1 0x40 MLOAD PUSH32 0x61FD49DF00000000000000000000000000000000000000000000000000000000 DUP2 MSTORE PUSH1 0x4 ADD PUSH1 0x40 MLOAD DUP1 SWAP2 SUB SWAP1 REVERT JUMPDEST PUSH1 0x2 PUSH1 0x3 DUP4 DUP4 PUSH1 0x40 MLOAD PUSH2 0x3788 SWAP3 SWAP2 SWAP1 PUSH2 0x56CB JUMP JUMPDEST SWAP1 DUP2 MSTORE PUSH1 0x20 ADD PUSH1 0x40 MLOAD DUP1 SWAP2 SUB SWAP1 KECCAK256 PUSH1 0x0 PUSH2 0x100 EXP DUP2 SLOAD DUP2 PUSH1 0xFF MUL NOT AND SWAP1 DUP4 PUSH1 0x3 DUP2 GT ISZERO PUSH2 0x37B8 JUMPI PUSH2 0x37B7 PUSH2 0x5265 JUMP JUMPDEST JUMPDEST MUL OR SWAP1 SSTORE POP POP POP JUMP JUMPDEST PUSH1 0x0 DUP1 PUSH1 0x1 PUSH1 0x0 CALLER PUSH20 0xFFFFFFFFFFFFFFFFFFFFFFFFFFFFFFFFFFFFFFFF AND PUSH20 0xFFFFFFFFFFFFFFFFFFFFFFFFFFFFFFFFFFFFFFFF AND DUP2 MSTORE PUSH1 0x20 ADD SWAP1 DUP2 MSTORE PUSH1 0x20 ADD PUSH1 0x0 KECCAK256 DUP1 SLOAD PUSH2 0x380E SWAP1 PUSH2 0x5713 JUMP JUMPDEST DUP1 PUSH1 0x1F ADD PUSH1 0x20 DUP1 SWAP2 DIV MUL PUSH1 0x20 ADD PUSH1 0x40 MLOAD SWAP1 DUP2 ADD PUSH1 0x40 MSTORE DUP1 SWAP3 SWAP2 SWAP1 DUP2 DUP2 MSTORE PUSH1 0x20 ADD DUP3 DUP1 SLOAD PUSH2 0x383A SWAP1 PUSH2 0x5713 JUMP JUMPDEST DUP1 ISZERO PUSH2 0x3887 JUMPI DUP1 PUSH1 0x1F LT PUSH2 0x385C JUMPI PUSH2 0x100 DUP1 DUP4 SLOAD DIV MUL DUP4 MSTORE SWAP2 PUSH1 0x20 ADD SWAP2 PUSH2 0x3887 JUMP JUMPDEST DUP3 ADD SWAP2 SWAP1 PUSH1 0x0 MSTORE PUSH1 0x20 PUSH1 0x0 KECCAK256 SWAP1 JUMPDEST DUP2 SLOAD DUP2 MSTORE SWAP1 PUSH1 0x1 ADD SWAP1 PUSH1 0x20 ADD DUP1 DUP4 GT PUSH2 0x386A JUMPI DUP3 SWAP1 SUB PUSH1 0x1F AND DUP3 ADD SWAP2 JUMPDEST POP POP POP POP POP SWAP1 POP PUSH1 0x0 PUSH1 0x3 DUP2 GT ISZERO PUSH2 0x38A2 JUMPI PUSH2 0x38A1 PUSH2 0x5265 JUMP JUMPDEST JUMPDEST PUSH1 0x3 DUP3 PUSH1 0x40 MLOAD PUSH2 0x38B2 SWAP2 SWAP1 PUSH2 0x5775 JUMP JUMPDEST SWAP1 DUP2 MSTORE PUSH1 0x20 ADD PUSH1 0x40 MLOAD DUP1 SWAP2 SUB SWAP1 KECCAK256 PUSH1 0x0 SWAP1 SLOAD SWAP1 PUSH2 0x100 EXP SWAP1 DIV PUSH1 0xFF AND PUSH1 0x3 DUP2 GT ISZERO PUSH2 0x38E0 JUMPI PUSH2 0x38DF PUSH2 0x5265 JUMP JUMPDEST JUMPDEST SUB PUSH2 0x3917 JUMPI PUSH1 0x40 MLOAD PUSH32 0x8FA622F500000000000000000000000000000000000000000000000000000000 DUP2 MSTORE PUSH1 0x4 ADD PUSH1 0x40 MLOAD DUP1 SWAP2 SUB SWAP1 REVERT JUMPDEST PUSH1 0x2 PUSH1 0x3 DUP2 GT ISZERO PUSH2 0x392B JUMPI PUSH2 0x392A PUSH2 0x5265 JUMP JUMPDEST JUMPDEST PUSH1 0x3 DUP3 PUSH1 0x40 MLOAD PUSH2 0x393B SWAP2 SWAP1 PUSH2 0x5775 JUMP JUMPDEST SWAP1 DUP2 MSTORE PUSH1 0x20 ADD PUSH1 0x40 MLOAD DUP1 SWAP2 SUB SWAP1 KECCAK256 PUSH1 0x0 SWAP1 SLOAD SWAP1 PUSH2 0x100 EXP SWAP1 DIV PUSH1 0xFF AND PUSH1 0x3 DUP2 GT ISZERO PUSH2 0x3969 JUMPI PUSH2 0x3968 PUSH2 0x5265 JUMP JUMPDEST JUMPDEST EQ PUSH2 0x39A0 JUMPI PUSH1 0x40 MLOAD PUSH32 0x8AC8E00B00000000000000000000000000000000000000000000000000000000 DUP2 MSTORE PUSH1 0x4 ADD PUSH1 0x40 MLOAD DUP1 SWAP2 SUB SWAP1 REVERT JUMPDEST DUP6 DUP6 PUSH1 0x0 PUSH1 0x1 DUP2 GT ISZERO PUSH2 0x39B6 JUMPI PUSH2 0x39B5 PUSH2 0x5265 JUMP JUMPDEST JUMPDEST PUSH1 0x8 DUP4 DUP4 PUSH1 0x40 MLOAD PUSH2 0x39C8 SWAP3 SWAP2 SWAP1 PUSH2 0x56CB JUMP JUMPDEST SWAP1 DUP2 MSTORE PUSH1 0x20 ADD PUSH1 0x40 MLOAD DUP1 SWAP2 SUB SWAP1 KECCAK256 PUSH1 0x0 SWAP1 SLOAD SWAP1 PUSH2 0x100 EXP SWAP1 DIV PUSH1 0xFF AND PUSH1 0x1 DUP2 GT ISZERO PUSH2 0x39F6 JUMPI PUSH2 0x39F5 PUSH2 0x5265 JUMP JUMPDEST JUMPDEST SUB PUSH2 0x3A2D JUMPI PUSH1 0x40 MLOAD PUSH32 0x78DE8BF00000000000000000000000000000000000000000000000000000000 DUP2 MSTORE PUSH1 0x4 ADD PUSH1 0x40 MLOAD DUP1 SWAP2 SUB SWAP1 REVERT JUMPDEST PUSH1 0x0 PUSH1 0x1 PUSH1 0x0 CALLER PUSH20 0xFFFFFFFFFFFFFFFFFFFFFFFFFFFFFFFFFFFFFFFF AND PUSH20 0xFFFFFFFFFFFFFFFFFFFFFFFFFFFFFFFFFFFFFFFF AND DUP2 MSTORE PUSH1 0x20 ADD SWAP1 DUP2 MSTORE PUSH1 0x20 ADD PUSH1 0x0 KECCAK256 DUP1 SLOAD PUSH2 0x3A79 SWAP1 PUSH2 0x5713 JUMP JUMPDEST DUP1 PUSH1 0x1F ADD PUSH1 0x20 DUP1 SWAP2 DIV MUL PUSH1 0x20 ADD PUSH1 0x40 MLOAD SWAP1 DUP2 ADD PUSH1 0x40 MSTORE DUP1 SWAP3 SWAP2 SWAP1 DUP2 DUP2 MSTORE PUSH1 0x20 ADD DUP3 DUP1 SLOAD PUSH2 0x3AA5 SWAP1 PUSH2 0x5713 JUMP JUMPDEST DUP1 ISZERO PUSH2 0x3AF2 JUMPI DUP1 PUSH1 0x1F LT PUSH2 0x3AC7 JUMPI PUSH2 0x100 DUP1 DUP4 SLOAD DIV MUL DUP4 MSTORE SWAP2 PUSH1 0x20 ADD SWAP2 PUSH2 0x3AF2 JUMP JUMPDEST DUP3 ADD SWAP2 SWAP1 PUSH1 0x0 MSTORE PUSH1 0x20 PUSH1 0x0 KECCAK256 SWAP1 JUMPDEST DUP2 SLOAD DUP2 MSTORE SWAP1 PUSH1 0x1 ADD SWAP1 PUSH1 0x20 ADD DUP1 DUP4 GT PUSH2 0x3AD5 JUMPI DUP3 SWAP1 SUB PUSH1 0x1F AND DUP3 ADD SWAP2 JUMPDEST POP POP POP POP POP SWAP1 POP PUSH1 0x0 PUSH1 0x9 DUP5 DUP5 PUSH1 0x40 MLOAD PUSH2 0x3B0D SWAP3 SWAP2 SWAP1 PUSH2 0x56CB JUMP JUMPDEST SWAP1 DUP2 MSTORE PUSH1 0x20 ADD PUSH1 0x40 MLOAD DUP1 SWAP2 SUB SWAP1 KECCAK256 PUSH1 0x40 MLOAD PUSH2 0x3B27 SWAP1 PUSH2 0x5887 JUMP JUMPDEST SWAP1 DUP2 MSTORE PUSH1 0x20 ADD PUSH1 0x40 MLOAD DUP1 SWAP2 SUB SWAP1 KECCAK256 DUP1 SLOAD PUSH2 0x3B40 SWAP1 PUSH2 0x5713 JUMP JUMPDEST DUP1 PUSH1 0x1F ADD PUSH1 0x20 DUP1 SWAP2 DIV MUL PUSH1 0x20 ADD PUSH1 0x40 MLOAD SWAP1 DUP2 ADD PUSH1 0x40 MSTORE DUP1 SWAP3 SWAP2 SWAP1 DUP2 DUP2 MSTORE PUSH1 0x20 ADD DUP3 DUP1 SLOAD PUSH2 0x3B6C SWAP1 PUSH2 0x5713 JUMP JUMPDEST DUP1 ISZERO PUSH2 0x3BB9 JUMPI DUP1 PUSH1 0x1F LT PUSH2 0x3B8E JUMPI PUSH2 0x100 DUP1 DUP4 SLOAD DIV MUL DUP4 MSTORE SWAP2 PUSH1 0x20 ADD SWAP2 PUSH2 0x3BB9 JUMP JUMPDEST DUP3 ADD SWAP2 SWAP1 PUSH1 0x0 MSTORE PUSH1 0x20 PUSH1 0x0 KECCAK256 SWAP1 JUMPDEST DUP2 SLOAD DUP2 MSTORE SWAP1 PUSH1 0x1 ADD SWAP1 PUSH1 0x20 ADD DUP1 DUP4 GT PUSH2 0x3B9C JUMPI DUP3 SWAP1 SUB PUSH1 0x1F AND DUP3 ADD SWAP2 JUMPDEST POP POP POP POP POP SWAP1 POP DUP1 PUSH1 0x40 MLOAD PUSH1 0x20 ADD PUSH2 0x3BD1 SWAP2 SWAP1 PUSH2 0x5775 JUMP JUMPDEST PUSH1 0x40 MLOAD PUSH1 0x20 DUP2 DUP4 SUB SUB DUP2 MSTORE SWAP1 PUSH1 0x40 MSTORE DUP1 MLOAD SWAP1 PUSH1 0x20 ADD KECCAK256 DUP3 PUSH1 0x40 MLOAD PUSH1 0x20 ADD PUSH2 0x3BF8 SWAP2 SWAP1 PUSH2 0x5775 JUMP JUMPDEST PUSH1 0x40 MLOAD PUSH1 0x20 DUP2 DUP4 SUB SUB DUP2 MSTORE SWAP1 PUSH1 0x40 MSTORE DUP1 MLOAD SWAP1 PUSH1 0x20 ADD KECCAK256 EQ PUSH2 0x3C45 JUMPI PUSH1 0x40 MLOAD PUSH32 0xCA7B7FB200000000000000000000000000000000000000000000000000000000 DUP2 MSTORE PUSH1 0x4 ADD PUSH1 0x40 MLOAD DUP1 SWAP2 SUB SWAP1 REVERT JUMPDEST PUSH1 0xC DUP11 DUP11 PUSH1 0x40 MLOAD PUSH2 0x3C57 SWAP3 SWAP2 SWAP1 PUSH2 0x56CB JUMP JUMPDEST SWAP1 DUP2 MSTORE PUSH1 0x20 ADD PUSH1 0x40 MLOAD DUP1 SWAP2 SUB SWAP1 KECCAK256 DUP9 DUP9 PUSH1 0x40 MLOAD PUSH2 0x3C75 SWAP3 SWAP2 SWAP1 PUSH2 0x56CB JUMP JUMPDEST SWAP1 DUP2 MSTORE PUSH1 0x20 ADD PUSH1 0x40 MLOAD DUP1 SWAP2 SUB SWAP1 KECCAK256 PUSH1 0x0 SWAP1 SLOAD SWAP1 PUSH2 0x100 EXP SWAP1 DIV PUSH1 0xFF AND SWAP6 POP POP POP POP POP POP SWAP5 SWAP4 POP POP POP POP JUMP JUMPDEST PUSH1 0x60 PUSH1 0xA DUP4 DUP4 PUSH1 0x40 MLOAD PUSH2 0x3CB4 SWAP3 SWAP2 SWAP1 PUSH2 0x56CB JUMP JUMPDEST SWAP1 DUP2 MSTORE PUSH1 0x20 ADD PUSH1 0x40 MLOAD DUP1 SWAP2 SUB SWAP1 KECCAK256 DUP1 SLOAD DUP1 PUSH1 0x20 MUL PUSH1 0x20 ADD PUSH1 0x40 MLOAD SWAP1 DUP2 ADD PUSH1 0x40 MSTORE DUP1 SWAP3 SWAP2 SWAP1 DUP2 DUP2 MSTORE PUSH1 0x20 ADD PUSH1 0x0 SWAP1 JUMPDEST DUP3 DUP3 LT ISZERO PUSH2 0x3D8E JUMPI DUP4 DUP3 SWAP1 PUSH1 0x0 MSTORE PUSH1 0x20 PUSH1 0x0 KECCAK256 ADD DUP1 SLOAD PUSH2 0x3D01 SWAP1 PUSH2 0x5713 JUMP JUMPDEST DUP1 PUSH1 0x1F ADD PUSH1 0x20 DUP1 SWAP2 DIV MUL PUSH1 0x20 ADD PUSH1 0x40 MLOAD SWAP1 DUP2 ADD PUSH1 0x40 MSTORE DUP1 SWAP3 SWAP2 SWAP1 DUP2 DUP2 MSTORE PUSH1 0x20 ADD DUP3 DUP1 SLOAD PUSH2 0x3D2D SWAP1 PUSH2 0x5713 JUMP JUMPDEST DUP1 ISZERO PUSH2 0x3D7A JUMPI DUP1 PUSH1 0x1F LT PUSH2 0x3D4F JUMPI PUSH2 0x100 DUP1 DUP4 SLOAD DIV MUL DUP4 MSTORE SWAP2 PUSH1 0x20 ADD SWAP2 PUSH2 0x3D7A JUMP JUMPDEST DUP3 ADD SWAP2 SWAP1 PUSH1 0x0 MSTORE PUSH1 0x20 PUSH1 0x0 KECCAK256 SWAP1 JUMPDEST DUP2 SLOAD DUP2 MSTORE SWAP1 PUSH1 0x1 ADD SWAP1 PUSH1 0x20 ADD DUP1 DUP4 GT PUSH2 0x3D5D JUMPI DUP3 SWAP1 SUB PUSH1 0x1F AND DUP3 ADD SWAP2 JUMPDEST POP POP POP POP POP DUP2 MSTORE PUSH1 0x20 ADD SWAP1 PUSH1 0x1 ADD SWAP1 PUSH2 0x3CE2 JUMP JUMPDEST POP POP POP POP SWAP1 POP SWAP3 SWAP2 POP POP JUMP JUMPDEST PUSH1 0x0 PUSH1 0x6 PUSH1 0x0 CALLER PUSH20 0xFFFFFFFFFFFFFFFFFFFFFFFFFFFFFFFFFFFFFFFF AND PUSH20 0xFFFFFFFFFFFFFFFFFFFFFFFFFFFFFFFFFFFFFFFF AND DUP2 MSTORE PUSH1 0x20 ADD SWAP1 DUP2 MSTORE PUSH1 0x20 ADD PUSH1 0x0 KECCAK256 DUP1 SLOAD PUSH2 0x3DE6 SWAP1 PUSH2 0x5713 JUMP JUMPDEST DUP1 PUSH1 0x1F ADD PUSH1 0x20 DUP1 SWAP2 DIV MUL PUSH1 0x20 ADD PUSH1 0x40 MLOAD SWAP1 DUP2 ADD PUSH1 0x40 MSTORE DUP1 SWAP3 SWAP2 SWAP1 DUP2 DUP2 MSTORE PUSH1 0x20 ADD DUP3 DUP1 SLOAD PUSH2 0x3E12 SWAP1 PUSH2 0x5713 JUMP JUMPDEST DUP1 ISZERO PUSH2 0x3E5F JUMPI DUP1 PUSH1 0x1F LT PUSH2 0x3E34 JUMPI PUSH2 0x100 DUP1 DUP4 SLOAD DIV MUL DUP4 MSTORE SWAP2 PUSH1 0x20 ADD SWAP2 PUSH2 0x3E5F JUMP JUMPDEST DUP3 ADD SWAP2 SWAP1 PUSH1 0x0 MSTORE PUSH1 0x20 PUSH1 0x0 KECCAK256 SWAP1 JUMPDEST DUP2 SLOAD DUP2 MSTORE SWAP1 PUSH1 0x1 ADD SWAP1 PUSH1 0x20 ADD DUP1 DUP4 GT PUSH2 0x3E42 JUMPI DUP3 SWAP1 SUB PUSH1 0x1F AND DUP3 ADD SWAP2 JUMPDEST POP POP POP POP POP SWAP1 POP PUSH1 0x0 PUSH1 0x1 DUP2 GT ISZERO PUSH2 0x3E7A JUMPI PUSH2 0x3E79 PUSH2 0x5265 JUMP JUMPDEST JUMPDEST PUSH1 0x8 DUP3 PUSH1 0x40 MLOAD PUSH2 0x3E8A SWAP2 SWAP1 PUSH2 0x5775 JUMP JUMPDEST SWAP1 DUP2 MSTORE PUSH1 0x20 ADD PUSH1 0x40 MLOAD DUP1 SWAP2 SUB SWAP1 KECCAK256 PUSH1 0x0 SWAP1 SLOAD SWAP1 PUSH2 0x100 EXP SWAP1 DIV PUSH1 0xFF AND PUSH1 0x1 DUP2 GT ISZERO PUSH2 0x3EB8 JUMPI PUSH2 0x3EB7 PUSH2 0x5265 JUMP JUMPDEST JUMPDEST SUB PUSH2 0x3EEF JUMPI PUSH1 0x40 MLOAD PUSH32 0x78DE8BF00000000000000000000000000000000000000000000000000000000 DUP2 MSTORE PUSH1 0x4 ADD PUSH1 0x40 MLOAD DUP1 SWAP2 SUB SWAP1 REVERT JUMPDEST PUSH1 0x0 PUSH1 0x6 PUSH1 0x0 CALLER PUSH20 0xFFFFFFFFFFFFFFFFFFFFFFFFFFFFFFFFFFFFFFFF AND PUSH20 0xFFFFFFFFFFFFFFFFFFFFFFFFFFFFFFFFFFFFFFFF AND DUP2 MSTORE PUSH1 0x20 ADD SWAP1 DUP2 MSTORE PUSH1 0x20 ADD PUSH1 0x0 KECCAK256 DUP1 SLOAD PUSH2 0x3F3B SWAP1 PUSH2 0x5713 JUMP JUMPDEST DUP1 PUSH1 0x1F ADD PUSH1 0x20 DUP1 SWAP2 DIV MUL PUSH1 0x20 ADD PUSH1 0x40 MLOAD SWAP1 DUP2 ADD PUSH1 0x40 MSTORE DUP1 SWAP3 SWAP2 SWAP1 DUP2 DUP2 MSTORE PUSH1 0x20 ADD DUP3 DUP1 SLOAD PUSH2 0x3F67 SWAP1 PUSH2 0x5713 JUMP JUMPDEST DUP1 ISZERO PUSH2 0x3FB4 JUMPI DUP1 PUSH1 0x1F LT PUSH2 0x3F89 JUMPI PUSH2 0x100 DUP1 DUP4 SLOAD DIV MUL DUP4 MSTORE SWAP2 PUSH1 0x20 ADD SWAP2 PUSH2 0x3FB4 JUMP JUMPDEST DUP3 ADD SWAP2 SWAP1 PUSH1 0x0 MSTORE PUSH1 0x20 PUSH1 0x0 KECCAK256 SWAP1 JUMPDEST DUP2 SLOAD DUP2 MSTORE SWAP1 PUSH1 0x1 ADD SWAP1 PUSH1 0x20 ADD DUP1 DUP4 GT PUSH2 0x3F97 JUMPI DUP3 SWAP1 SUB PUSH1 0x1F AND DUP3 ADD SWAP2 JUMPDEST POP POP POP POP POP SWAP1 POP PUSH1 0x0 PUSH1 0xE PUSH1 0x0 DUP8 PUSH20 0xFFFFFFFFFFFFFFFFFFFFFFFFFFFFFFFFFFFFFFFF AND PUSH20 0xFFFFFFFFFFFFFFFFFFFFFFFFFFFFFFFFFFFFFFFF AND DUP2 MSTORE PUSH1 0x20 ADD SWAP1 DUP2 MSTORE PUSH1 0x20 ADD PUSH1 0x0 KECCAK256 DUP3 PUSH1 0x40 MLOAD PUSH2 0x400A SWAP2 SWAP1 PUSH2 0x5775 JUMP JUMPDEST SWAP1 DUP2 MSTORE PUSH1 0x20 ADD PUSH1 0x40 MLOAD DUP1 SWAP2 SUB SWAP1 KECCAK256 DUP6 DUP6 PUSH1 0x40 MLOAD PUSH2 0x4028 SWAP3 SWAP2 SWAP1 PUSH2 0x56CB JUMP JUMPDEST SWAP1 DUP2 MSTORE PUSH1 0x20 ADD PUSH1 0x40 MLOAD DUP1 SWAP2 SUB SWAP1 KECCAK256 PUSH1 0x0 PUSH2 0x100 EXP DUP2 SLOAD DUP2 PUSH1 0xFF MUL NOT AND SWAP1 DUP4 ISZERO ISZERO MUL OR SWAP1 SSTORE POP POP POP POP POP POP JUMP JUMPDEST PUSH1 0x0 PUSH1 0x1 PUSH1 0x0 CALLER PUSH20 0xFFFFFFFFFFFFFFFFFFFFFFFFFFFFFFFFFFFFFFFF AND PUSH20 0xFFFFFFFFFFFFFFFFFFFFFFFFFFFFFFFFFFFFFFFF AND DUP2 MSTORE PUSH1 0x20 ADD SWAP1 DUP2 MSTORE PUSH1 0x20 ADD PUSH1 0x0 KECCAK256 DUP1 SLOAD PUSH2 0x40A0 SWAP1 PUSH2 0x5713 JUMP JUMPDEST DUP1 PUSH1 0x1F ADD PUSH1 0x20 DUP1 SWAP2 DIV MUL PUSH1 0x20 ADD PUSH1 0x40 MLOAD SWAP1 DUP2 ADD PUSH1 0x40 MSTORE DUP1 SWAP3 SWAP2 SWAP1 DUP2 DUP2 MSTORE PUSH1 0x20 ADD DUP3 DUP1 SLOAD PUSH2 0x40CC SWAP1 PUSH2 0x5713 JUMP JUMPDEST DUP1 ISZERO PUSH2 0x4119 JUMPI DUP1 PUSH1 0x1F LT PUSH2 0x40EE JUMPI PUSH2 0x100 DUP1 DUP4 SLOAD DIV MUL DUP4 MSTORE SWAP2 PUSH1 0x20 ADD SWAP2 PUSH2 0x4119 JUMP JUMPDEST DUP3 ADD SWAP2 SWAP1 PUSH1 0x0 MSTORE PUSH1 0x20 PUSH1 0x0 KECCAK256 SWAP1 JUMPDEST DUP2 SLOAD DUP2 MSTORE SWAP1 PUSH1 0x1 ADD SWAP1 PUSH1 0x20 ADD DUP1 DUP4 GT PUSH2 0x40FC JUMPI DUP3 SWAP1 SUB PUSH1 0x1F AND DUP3 ADD SWAP2 JUMPDEST POP POP POP POP POP SWAP1 POP PUSH1 0x0 PUSH1 0x3 DUP2 GT ISZERO PUSH2 0x4134 JUMPI PUSH2 0x4133 PUSH2 0x5265 JUMP JUMPDEST JUMPDEST PUSH1 0x3 DUP3 PUSH1 0x40 MLOAD PUSH2 0x4144 SWAP2 SWAP1 PUSH2 0x5775 JUMP JUMPDEST SWAP1 DUP2 MSTORE PUSH1 0x20 ADD PUSH1 0x40 MLOAD DUP1 SWAP2 SUB SWAP1 KECCAK256 PUSH1 0x0 SWAP1 SLOAD SWAP1 PUSH2 0x100 EXP SWAP1 DIV PUSH1 0xFF AND PUSH1 0x3 DUP2 GT ISZERO PUSH2 0x4172 JUMPI PUSH2 0x4171 PUSH2 0x5265 JUMP JUMPDEST JUMPDEST SUB PUSH2 0x41A9 JUMPI PUSH1 0x40 MLOAD PUSH32 0x8FA622F500000000000000000000000000000000000000000000000000000000 DUP2 MSTORE PUSH1 0x4 ADD PUSH1 0x40 MLOAD DUP1 SWAP2 SUB SWAP1 REVERT JUMPDEST PUSH1 0x2 PUSH1 0x3 DUP2 GT ISZERO PUSH2 0x41BD JUMPI PUSH2 0x41BC PUSH2 0x5265 JUMP JUMPDEST JUMPDEST PUSH1 0x3 DUP3 PUSH1 0x40 MLOAD PUSH2 0x41CD SWAP2 SWAP1 PUSH2 0x5775 JUMP JUMPDEST SWAP1 DUP2 MSTORE PUSH1 0x20 ADD PUSH1 0x40 MLOAD DUP1 SWAP2 SUB SWAP1 KECCAK256 PUSH1 0x0 SWAP1 SLOAD SWAP1 PUSH2 0x100 EXP SWAP1 DIV PUSH1 0xFF AND PUSH1 0x3 DUP2 GT ISZERO PUSH2 0x41FB JUMPI PUSH2 0x41FA PUSH2 0x5265 JUMP JUMPDEST JUMPDEST EQ PUSH2 0x4232 JUMPI PUSH1 0x40 MLOAD PUSH32 0x8AC8E00B00000000000000000000000000000000000000000000000000000000 DUP2 MSTORE PUSH1 0x4 ADD PUSH1 0x40 MLOAD DUP1 SWAP2 SUB SWAP1 REVERT JUMPDEST DUP6 DUP6 PUSH1 0x0 PUSH1 0x1 DUP2 GT ISZERO PUSH2 0x4248 JUMPI PUSH2 0x4247 PUSH2 0x5265 JUMP JUMPDEST JUMPDEST PUSH1 0x8 DUP4 DUP4 PUSH1 0x40 MLOAD PUSH2 0x425A SWAP3 SWAP2 SWAP1 PUSH2 0x56CB JUMP JUMPDEST SWAP1 DUP2 MSTORE PUSH1 0x20 ADD PUSH1 0x40 MLOAD DUP1 SWAP2 SUB SWAP1 KECCAK256 PUSH1 0x0 SWAP1 SLOAD SWAP1 PUSH2 0x100 EXP SWAP1 DIV PUSH1 0xFF AND PUSH1 0x1 DUP2 GT ISZERO PUSH2 0x4288 JUMPI PUSH2 0x4287 PUSH2 0x5265 JUMP JUMPDEST JUMPDEST SUB PUSH2 0x42BF JUMPI PUSH1 0x40 MLOAD PUSH32 0x78DE8BF00000000000000000000000000000000000000000000000000000000 DUP2 MSTORE PUSH1 0x4 ADD PUSH1 0x40 MLOAD DUP1 SWAP2 SUB SWAP1 REVERT JUMPDEST PUSH1 0x0 PUSH1 0x1 PUSH1 0x0 CALLER PUSH20 0xFFFFFFFFFFFFFFFFFFFFFFFFFFFFFFFFFFFFFFFF AND PUSH20 0xFFFFFFFFFFFFFFFFFFFFFFFFFFFFFFFFFFFFFFFF AND DUP2 MSTORE PUSH1 0x20 ADD SWAP1 DUP2 MSTORE PUSH1 0x20 ADD PUSH1 0x0 KECCAK256 DUP1 SLOAD PUSH2 0x430B SWAP1 PUSH2 0x5713 JUMP JUMPDEST DUP1 PUSH1 0x1F ADD PUSH1 0x20 DUP1 SWAP2 DIV MUL PUSH1 0x20 ADD PUSH1 0x40 MLOAD SWAP1 DUP2 ADD PUSH1 0x40 MSTORE DUP1 SWAP3 SWAP2 SWAP1 DUP2 DUP2 MSTORE PUSH1 0x20 ADD DUP3 DUP1 SLOAD PUSH2 0x4337 SWAP1 PUSH2 0x5713 JUMP JUMPDEST DUP1 ISZERO PUSH2 0x4384 JUMPI DUP1 PUSH1 0x1F LT PUSH2 0x4359 JUMPI PUSH2 0x100 DUP1 DUP4 SLOAD DIV MUL DUP4 MSTORE SWAP2 PUSH1 0x20 ADD SWAP2 PUSH2 0x4384 JUMP JUMPDEST DUP3 ADD SWAP2 SWAP1 PUSH1 0x0 MSTORE PUSH1 0x20 PUSH1 0x0 KECCAK256 SWAP1 JUMPDEST DUP2 SLOAD DUP2 MSTORE SWAP1 PUSH1 0x1 ADD SWAP1 PUSH1 0x20 ADD DUP1 DUP4 GT PUSH2 0x4367 JUMPI DUP3 SWAP1 SUB PUSH1 0x1F AND DUP3 ADD SWAP2 JUMPDEST POP POP POP POP POP SWAP1 POP PUSH1 0x0 PUSH1 0x9 DUP5 DUP5 PUSH1 0x40 MLOAD PUSH2 0x439F SWAP3 SWAP2 SWAP1 PUSH2 0x56CB JUMP JUMPDEST SWAP1 DUP2 MSTORE PUSH1 0x20 ADD PUSH1 0x40 MLOAD DUP1 SWAP2 SUB SWAP1 KECCAK256 PUSH1 0x40 MLOAD PUSH2 0x43B9 SWAP1 PUSH2 0x5887 JUMP JUMPDEST SWAP1 DUP2 MSTORE PUSH1 0x20 ADD PUSH1 0x40 MLOAD DUP1 SWAP2 SUB SWAP1 KECCAK256 DUP1 SLOAD PUSH2 0x43D2 SWAP1 PUSH2 0x5713 JUMP JUMPDEST DUP1 PUSH1 0x1F ADD PUSH1 0x20 DUP1 SWAP2 DIV MUL PUSH1 0x20 ADD PUSH1 0x40 MLOAD SWAP1 DUP2 ADD PUSH1 0x40 MSTORE DUP1 SWAP3 SWAP2 SWAP1 DUP2 DUP2 MSTORE PUSH1 0x20 ADD DUP3 DUP1 SLOAD PUSH2 0x43FE SWAP1 PUSH2 0x5713 JUMP JUMPDEST DUP1 ISZERO PUSH2 0x444B JUMPI DUP1 PUSH1 0x1F LT PUSH2 0x4420 JUMPI PUSH2 0x100 DUP1 DUP4 SLOAD DIV MUL DUP4 MSTORE SWAP2 PUSH1 0x20 ADD SWAP2 PUSH2 0x444B JUMP JUMPDEST DUP3 ADD SWAP2 SWAP1 PUSH1 0x0 MSTORE PUSH1 0x20 PUSH1 0x0 KECCAK256 SWAP1 JUMPDEST DUP2 SLOAD DUP2 MSTORE SWAP1 PUSH1 0x1 ADD SWAP1 PUSH1 0x20 ADD DUP1 DUP4 GT PUSH2 0x442E JUMPI DUP3 SWAP1 SUB PUSH1 0x1F AND DUP3 ADD SWAP2 JUMPDEST POP POP POP POP POP SWAP1 POP DUP1 PUSH1 0x40 MLOAD PUSH1 0x20 ADD PUSH2 0x4463 SWAP2 SWAP1 PUSH2 0x5775 JUMP JUMPDEST PUSH1 0x40 MLOAD PUSH1 0x20 DUP2 DUP4 SUB SUB DUP2 MSTORE SWAP1 PUSH1 0x40 MSTORE DUP1 MLOAD SWAP1 PUSH1 0x20 ADD KECCAK256 DUP3 PUSH1 0x40 MLOAD PUSH1 0x20 ADD PUSH2 0x448A SWAP2 SWAP1 PUSH2 0x5775 JUMP JUMPDEST PUSH1 0x40 MLOAD PUSH1 0x20 DUP2 DUP4 SUB SUB DUP2 MSTORE SWAP1 PUSH1 0x40 MSTORE DUP1 MLOAD SWAP1 PUSH1 0x20 ADD KECCAK256 EQ PUSH2 0x44D7 JUMPI PUSH1 0x40 MLOAD PUSH32 0xCA7B7FB200000000000000000000000000000000000000000000000000000000 DUP2 MSTORE PUSH1 0x4 ADD PUSH1 0x40 MLOAD DUP1 SWAP2 SUB SWAP1 REVERT JUMPDEST DUP6 PUSH1 0xB DUP12 DUP12 PUSH1 0x40 MLOAD PUSH2 0x44EA SWAP3 SWAP2 SWAP1 PUSH2 0x56CB JUMP JUMPDEST SWAP1 DUP2 MSTORE PUSH1 0x20 ADD PUSH1 0x40 MLOAD DUP1 SWAP2 SUB SWAP1 KECCAK256 DUP10 DUP10 PUSH1 0x40 MLOAD PUSH2 0x4508 SWAP3 SWAP2 SWAP1 PUSH2 0x56CB JUMP JUMPDEST SWAP1 DUP2 MSTORE PUSH1 0x20 ADD PUSH1 0x40 MLOAD DUP1 SWAP2 SUB SWAP1 KECCAK256 PUSH1 0x0 PUSH2 0x100 EXP DUP2 SLOAD DUP2 PUSH1 0xFF MUL NOT AND SWAP1 DUP4 ISZERO ISZERO MUL OR SWAP1 SSTORE POP POP POP POP POP POP POP POP POP POP POP JUMP JUMPDEST PUSH1 0x60 PUSH2 0x4571 DUP3 TIMESTAMP DIFFICULTY PUSH1 0x40 MLOAD PUSH1 0x20 ADD PUSH2 0x4553 SWAP4 SWAP3 SWAP2 SWAP1 PUSH2 0x5D6B JUMP JUMPDEST PUSH1 0x40 MLOAD PUSH1 0x20 DUP2 DUP4 SUB SUB DUP2 MSTORE SWAP1 PUSH1 0x40 MSTORE DUP1 MLOAD SWAP1 PUSH1 0x20 ADD KECCAK256 PUSH1 0x0 SHR PUSH2 0x48C2 JUMP JUMPDEST SWAP1 POP SWAP2 SWAP1 POP JUMP JUMPDEST PUSH1 0x0 PUSH1 0x9 DUP5 PUSH1 0x40 MLOAD PUSH2 0x458A SWAP2 SWAP1 PUSH2 0x5775 JUMP JUMPDEST SWAP1 DUP2 MSTORE PUSH1 0x20 ADD PUSH1 0x40 MLOAD DUP1 SWAP2 SUB SWAP1 KECCAK256 DUP4 PUSH1 0x40 MLOAD PUSH2 0x45A6 SWAP2 SWAP1 PUSH2 0x5775 JUMP JUMPDEST SWAP1 DUP2 MSTORE PUSH1 0x20 ADD PUSH1 0x40 MLOAD DUP1 SWAP2 SUB SWAP1 KECCAK256 DUP1 SLOAD PUSH2 0x45BF SWAP1 PUSH2 0x5713 JUMP JUMPDEST DUP1 PUSH1 0x1F ADD PUSH1 0x20 DUP1 SWAP2 DIV MUL PUSH1 0x20 ADD PUSH1 0x40 MLOAD SWAP1 DUP2 ADD PUSH1 0x40 MSTORE DUP1 SWAP3 SWAP2 SWAP1 DUP2 DUP2 MSTORE PUSH1 0x20 ADD DUP3 DUP1 SLOAD PUSH2 0x45EB SWAP1 PUSH2 0x5713 JUMP JUMPDEST DUP1 ISZERO PUSH2 0x4638 JUMPI DUP1 PUSH1 0x1F LT PUSH2 0x460D JUMPI PUSH2 0x100 DUP1 DUP4 SLOAD DIV MUL DUP4 MSTORE SWAP2 PUSH1 0x20 ADD SWAP2 PUSH2 0x4638 JUMP JUMPDEST DUP3 ADD SWAP2 SWAP1 PUSH1 0x0 MSTORE PUSH1 0x20 PUSH1 0x0 KECCAK256 SWAP1 JUMPDEST DUP2 SLOAD DUP2 MSTORE SWAP1 PUSH1 0x1 ADD SWAP1 PUSH1 0x20 ADD DUP1 DUP4 GT PUSH2 0x461B JUMPI DUP3 SWAP1 SUB PUSH1 0x1F AND DUP3 ADD SWAP2 JUMPDEST POP POP POP POP POP SWAP1 POP PUSH1 0x0 DUP2 MLOAD SUB PUSH2 0x469A JUMPI PUSH1 0xA DUP5 PUSH1 0x40 MLOAD PUSH2 0x4658 SWAP2 SWAP1 PUSH2 0x5775 JUMP JUMPDEST SWAP1 DUP2 MSTORE PUSH1 0x20 ADD PUSH1 0x40 MLOAD DUP1 SWAP2 SUB SWAP1 KECCAK256 DUP4 SWAP1 DUP1 PUSH1 0x1 DUP2 SLOAD ADD DUP1 DUP3 SSTORE DUP1 SWAP2 POP POP PUSH1 0x1 SWAP1 SUB SWAP1 PUSH1 0x0 MSTORE PUSH1 0x20 PUSH1 0x0 KECCAK256 ADD PUSH1 0x0 SWAP1 SWAP2 SWAP1 SWAP2 SWAP1 SWAP2 POP SWAP1 DUP2 PUSH2 0x4698 SWAP2 SWAP1 PUSH2 0x5A3D JUMP JUMPDEST POP JUMPDEST DUP2 PUSH1 0x9 DUP6 PUSH1 0x40 MLOAD PUSH2 0x46AB SWAP2 SWAP1 PUSH2 0x5775 JUMP JUMPDEST SWAP1 DUP2 MSTORE PUSH1 0x20 ADD PUSH1 0x40 MLOAD DUP1 SWAP2 SUB SWAP1 KECCAK256 DUP5 PUSH1 0x40 MLOAD PUSH2 0x46C7 SWAP2 SWAP1 PUSH2 0x5775 JUMP JUMPDEST SWAP1 DUP2 MSTORE PUSH1 0x20 ADD PUSH1 0x40 MLOAD DUP1 SWAP2 SUB SWAP1 KECCAK256 SWAP1 DUP2 PUSH2 0x46E1 SWAP2 SWAP1 PUSH2 0x5A3D JUMP JUMPDEST POP POP POP POP POP JUMP JUMPDEST PUSH1 0x0 PUSH1 0x4 DUP5 PUSH1 0x40 MLOAD PUSH2 0x46FA SWAP2 SWAP1 PUSH2 0x5775 JUMP JUMPDEST SWAP1 DUP2 MSTORE PUSH1 0x20 ADD PUSH1 0x40 MLOAD DUP1 SWAP2 SUB SWAP1 KECCAK256 DUP4 PUSH1 0x40 MLOAD PUSH2 0x4716 SWAP2 SWAP1 PUSH2 0x5775 JUMP JUMPDEST SWAP1 DUP2 MSTORE PUSH1 0x20 ADD PUSH1 0x40 MLOAD DUP1 SWAP2 SUB SWAP1 KECCAK256 DUP1 SLOAD PUSH2 0x472F SWAP1 PUSH2 0x5713 JUMP JUMPDEST DUP1 PUSH1 0x1F ADD PUSH1 0x20 DUP1 SWAP2 DIV MUL PUSH1 0x20 ADD PUSH1 0x40 MLOAD SWAP1 DUP2 ADD PUSH1 0x40 MSTORE DUP1 SWAP3 SWAP2 SWAP1 DUP2 DUP2 MSTORE PUSH1 0x20 ADD DUP3 DUP1 SLOAD PUSH2 0x475B SWAP1 PUSH2 0x5713 JUMP JUMPDEST DUP1 ISZERO PUSH2 0x47A8 JUMPI DUP1 PUSH1 0x1F LT PUSH2 0x477D JUMPI PUSH2 0x100 DUP1 DUP4 SLOAD DIV MUL DUP4 MSTORE SWAP2 PUSH1 0x20 ADD SWAP2 PUSH2 0x47A8 JUMP JUMPDEST DUP3 ADD SWAP2 SWAP1 PUSH1 0x0 MSTORE PUSH1 0x20 PUSH1 0x0 KECCAK256 SWAP1 JUMPDEST DUP2 SLOAD DUP2 MSTORE SWAP1 PUSH1 0x1 ADD SWAP1 PUSH1 0x20 ADD DUP1 DUP4 GT PUSH2 0x478B JUMPI DUP3 SWAP1 SUB PUSH1 0x1F AND DUP3 ADD SWAP2 JUMPDEST POP POP POP POP POP SWAP1 POP PUSH1 0x0 DUP2 MLOAD SUB PUSH2 0x480A JUMPI PUSH1 0x5 DUP5 PUSH1 0x40 MLOAD PUSH2 0x47C8 SWAP2 SWAP1 PUSH2 0x5775 JUMP JUMPDEST SWAP1 DUP2 MSTORE PUSH1 0x20 ADD PUSH1 0x40 MLOAD DUP1 SWAP2 SUB SWAP1 KECCAK256 DUP4 SWAP1 DUP1 PUSH1 0x1 DUP2 SLOAD ADD DUP1 DUP3 SSTORE DUP1 SWAP2 POP POP PUSH1 0x1 SWAP1 SUB SWAP1 PUSH1 0x0 MSTORE PUSH1 0x20 PUSH1 0x0 KECCAK256 ADD PUSH1 0x0 SWAP1 SWAP2 SWAP1 SWAP2 SWAP1 SWAP2 POP SWAP1 DUP2 PUSH2 0x4808 SWAP2 SWAP1 PUSH2 0x5A3D JUMP JUMPDEST POP JUMPDEST DUP2 PUSH1 0x4 DUP6 PUSH1 0x40 MLOAD PUSH2 0x481B SWAP2 SWAP1 PUSH2 0x5775 JUMP JUMPDEST SWAP1 DUP2 MSTORE PUSH1 0x20 ADD PUSH1 0x40 MLOAD DUP1 SWAP2 SUB SWAP1 KECCAK256 DUP5 PUSH1 0x40 MLOAD PUSH2 0x4837 SWAP2 SWAP1 PUSH2 0x5775 JUMP JUMPDEST SWAP1 DUP2 MSTORE PUSH1 0x20 ADD PUSH1 0x40 MLOAD DUP1 SWAP2 SUB SWAP1 KECCAK256 SWAP1 DUP2 PUSH2 0x4851 SWAP2 SWAP1 PUSH2 0x5A3D JUMP JUMPDEST POP POP POP POP POP JUMP JUMPDEST DUP1 PUSH1 0xC DUP6 PUSH1 0x40 MLOAD PUSH2 0x4869 SWAP2 SWAP1 PUSH2 0x5775 JUMP JUMPDEST SWAP1 DUP2 MSTORE PUSH1 0x20 ADD PUSH1 0x40 MLOAD DUP1 SWAP2 SUB SWAP1 KECCAK256 DUP5 DUP5 PUSH1 0x40 MLOAD PUSH2 0x4887 SWAP3 SWAP2 SWAP1 PUSH2 0x56CB JUMP JUMPDEST SWAP1 DUP2 MSTORE PUSH1 0x20 ADD PUSH1 0x40 MLOAD DUP1 SWAP2 SUB SWAP1 KECCAK256 PUSH1 0x0 PUSH2 0x100 EXP DUP2 SLOAD DUP2 PUSH1 0xFF MUL NOT AND SWAP1 DUP4 PUSH1 0x2 DUP2 GT ISZERO PUSH2 0x48B7 JUMPI PUSH2 0x48B6 PUSH2 0x5265 JUMP JUMPDEST JUMPDEST MUL OR SWAP1 SSTORE POP POP POP POP POP JUMP JUMPDEST PUSH1 0x60 PUSH2 0x48D9 DUP3 PUSH1 0x1 PUSH2 0x48D3 DUP6 PUSH2 0x48E0 JUMP JUMPDEST ADD PUSH2 0x4970 JUMP JUMPDEST SWAP1 POP SWAP2 SWAP1 POP JUMP JUMPDEST PUSH1 0x0 DUP1 PUSH1 0x0 SWAP1 POP PUSH1 0x0 PUSH1 0x80 DUP5 SWAP1 SHR GT ISZERO PUSH2 0x4902 JUMPI PUSH1 0x80 DUP4 SWAP1 SHR SWAP3 POP PUSH1 0x10 DUP2 ADD SWAP1 POP JUMPDEST PUSH1 0x0 PUSH1 0x40 DUP5 SWAP1 SHR GT ISZERO PUSH2 0x491D JUMPI PUSH1 0x40 DUP4 SWAP1 SHR SWAP3 POP PUSH1 0x8 DUP2 ADD SWAP1 POP JUMPDEST PUSH1 0x0 PUSH1 0x20 DUP5 SWAP1 SHR GT ISZERO PUSH2 0x4938 JUMPI PUSH1 0x20 DUP4 SWAP1 SHR SWAP3 POP PUSH1 0x4 DUP2 ADD SWAP1 POP JUMPDEST PUSH1 0x0 PUSH1 0x10 DUP5 SWAP1 SHR GT ISZERO PUSH2 0x4953 JUMPI PUSH1 0x10 DUP4 SWAP1 SHR SWAP3 POP PUSH1 0x2 DUP2 ADD SWAP1 POP JUMPDEST PUSH1 0x0 PUSH1 0x8 DUP5 SWAP1 SHR GT ISZERO PUSH2 0x4967 JUMPI PUSH1 0x1 DUP2 ADD SWAP1 POP JUMPDEST DUP1 SWAP2 POP POP SWAP2 SWAP1 POP JUMP JUMPDEST PUSH1 0x60 PUSH1 0x0 PUSH1 0x2 DUP4 PUSH1 0x2 PUSH2 0x4983 SWAP2 SWAP1 PUSH2 0x5DA8 JUMP JUMPDEST PUSH2 0x498D SWAP2 SWAP1 PUSH2 0x5DEA JUMP JUMPDEST PUSH8 0xFFFFFFFFFFFFFFFF DUP2 GT ISZERO PUSH2 0x49A6 JUMPI PUSH2 0x49A5 PUSH2 0x4EC7 JUMP JUMPDEST JUMPDEST PUSH1 0x40 MLOAD SWAP1 DUP1 DUP3 MSTORE DUP1 PUSH1 0x1F ADD PUSH1 0x1F NOT AND PUSH1 0x20 ADD DUP3 ADD PUSH1 0x40 MSTORE DUP1 ISZERO PUSH2 0x49D8 JUMPI DUP2 PUSH1 0x20 ADD PUSH1 0x1 DUP3 MUL DUP1 CALLDATASIZE DUP4 CALLDATACOPY DUP1 DUP3 ADD SWAP2 POP POP SWAP1 POP JUMPDEST POP SWAP1 POP PUSH32 0x3000000000000000000000000000000000000000000000000000000000000000 DUP2 PUSH1 0x0 DUP2 MLOAD DUP2 LT PUSH2 0x4A10 JUMPI PUSH2 0x4A0F PUSH2 0x5B0F JUMP JUMPDEST JUMPDEST PUSH1 0x20 ADD ADD SWAP1 PUSH31 0xFFFFFFFFFFFFFFFFFFFFFFFFFFFFFFFFFFFFFFFFFFFFFFFFFFFFFFFFFFFFFF NOT AND SWAP1 DUP2 PUSH1 0x0 BYTE SWAP1 MSTORE8 POP PUSH32 0x7800000000000000000000000000000000000000000000000000000000000000 DUP2 PUSH1 0x1 DUP2 MLOAD DUP2 LT PUSH2 0x4A74 JUMPI PUSH2 0x4A73 PUSH2 0x5B0F JUMP JUMPDEST JUMPDEST PUSH1 0x20 ADD ADD SWAP1 PUSH31 0xFFFFFFFFFFFFFFFFFFFFFFFFFFFFFFFFFFFFFFFFFFFFFFFFFFFFFFFFFFFFFF NOT AND SWAP1 DUP2 PUSH1 0x0 BYTE SWAP1 MSTORE8 POP PUSH1 0x0 PUSH1 0x1 DUP5 PUSH1 0x2 PUSH2 0x4AB4 SWAP2 SWAP1 PUSH2 0x5DA8 JUMP JUMPDEST PUSH2 0x4ABE SWAP2 SWAP1 PUSH2 0x5DEA JUMP JUMPDEST SWAP1 POP JUMPDEST PUSH1 0x1 DUP2 GT ISZERO PUSH2 0x4B5E JUMPI PUSH32 0x3031323334353637383961626364656600000000000000000000000000000000 PUSH1 0xF DUP7 AND PUSH1 0x10 DUP2 LT PUSH2 0x4B00 JUMPI PUSH2 0x4AFF PUSH2 0x5B0F JUMP JUMPDEST JUMPDEST BYTE PUSH1 0xF8 SHL DUP3 DUP3 DUP2 MLOAD DUP2 LT PUSH2 0x4B17 JUMPI PUSH2 0x4B16 PUSH2 0x5B0F JUMP JUMPDEST JUMPDEST PUSH1 0x20 ADD ADD SWAP1 PUSH31 0xFFFFFFFFFFFFFFFFFFFFFFFFFFFFFFFFFFFFFFFFFFFFFFFFFFFFFFFFFFFFFF NOT AND SWAP1 DUP2 PUSH1 0x0 BYTE SWAP1 MSTORE8 POP PUSH1 0x4 DUP6 SWAP1 SHR SWAP5 POP DUP1 PUSH2 0x4B57 SWAP1 PUSH2 0x5E1E JUMP JUMPDEST SWAP1 POP PUSH2 0x4AC1 JUMP JUMPDEST POP PUSH1 0x0 DUP5 EQ PUSH2 0x4BA2 JUMPI PUSH1 0x40 MLOAD PUSH32 0x8C379A000000000000000000000000000000000000000000000000000000000 DUP2 MSTORE PUSH1 0x4 ADD PUSH2 0x4B99 SWAP1 PUSH2 0x5E93 JUMP JUMPDEST PUSH1 0x40 MLOAD DUP1 SWAP2 SUB SWAP1 REVERT JUMPDEST DUP1 SWAP2 POP POP SWAP3 SWAP2 POP POP JUMP JUMPDEST PUSH1 0x0 PUSH1 0x40 MLOAD SWAP1 POP SWAP1 JUMP JUMPDEST PUSH1 0x0 DUP1 REVERT JUMPDEST PUSH1 0x0 DUP1 REVERT JUMPDEST PUSH1 0x0 PUSH20 0xFFFFFFFFFFFFFFFFFFFFFFFFFFFFFFFFFFFFFFFF DUP3 AND SWAP1 POP SWAP2 SWAP1 POP JUMP JUMPDEST PUSH1 0x0 PUSH2 0x4BEB DUP3 PUSH2 0x4BC0 JUMP JUMPDEST SWAP1 POP SWAP2 SWAP1 POP JUMP JUMPDEST PUSH2 0x4BFB DUP2 PUSH2 0x4BE0 JUMP JUMPDEST DUP2 EQ PUSH2 0x4C06 JUMPI PUSH1 0x0 DUP1 REVERT JUMPDEST POP JUMP JUMPDEST PUSH1 0x0 DUP2 CALLDATALOAD SWAP1 POP PUSH2 0x4C18 DUP2 PUSH2 0x4BF2 JUMP JUMPDEST SWAP3 SWAP2 POP POP JUMP JUMPDEST PUSH1 0x0 DUP1 REVERT JUMPDEST PUSH1 0x0 DUP1 REVERT JUMPDEST PUSH1 0x0 DUP1 REVERT JUMPDEST PUSH1 0x0 DUP1 DUP4 PUSH1 0x1F DUP5 ADD SLT PUSH2 0x4C43 JUMPI PUSH2 0x4C42 PUSH2 0x4C1E JUMP JUMPDEST JUMPDEST DUP3 CALLDATALOAD SWAP1 POP PUSH8 0xFFFFFFFFFFFFFFFF DUP2 GT ISZERO PUSH2 0x4C60 JUMPI PUSH2 0x4C5F PUSH2 0x4C23 JUMP JUMPDEST JUMPDEST PUSH1 0x20 DUP4 ADD SWAP2 POP DUP4 PUSH1 0x1 DUP3 MUL DUP4 ADD GT ISZERO PUSH2 0x4C7C JUMPI PUSH2 0x4C7B PUSH2 0x4C28 JUMP JUMPDEST JUMPDEST SWAP3 POP SWAP3 SWAP1 POP JUMP JUMPDEST PUSH1 0x0 DUP1 PUSH1 0x0 DUP1 PUSH1 0x0 PUSH1 0x60 DUP7 DUP9 SUB SLT ISZERO PUSH2 0x4C9F JUMPI PUSH2 0x4C9E PUSH2 0x4BB6 JUMP JUMPDEST JUMPDEST PUSH1 0x0 PUSH2 0x4CAD DUP9 DUP3 DUP10 ADD PUSH2 0x4C09 JUMP JUMPDEST SWAP6 POP POP PUSH1 0x20 DUP7 ADD CALLDATALOAD PUSH8 0xFFFFFFFFFFFFFFFF DUP2 GT ISZERO PUSH2 0x4CCE JUMPI PUSH2 0x4CCD PUSH2 0x4BBB JUMP JUMPDEST JUMPDEST PUSH2 0x4CDA DUP9 DUP3 DUP10 ADD PUSH2 0x4C2D JUMP JUMPDEST SWAP5 POP SWAP5 POP POP PUSH1 0x40 DUP7 ADD CALLDATALOAD PUSH8 0xFFFFFFFFFFFFFFFF DUP2 GT ISZERO PUSH2 0x4CFD JUMPI PUSH2 0x4CFC PUSH2 0x4BBB JUMP JUMPDEST JUMPDEST PUSH2 0x4D09 DUP9 DUP3 DUP10 ADD PUSH2 0x4C2D JUMP JUMPDEST SWAP3 POP SWAP3 POP POP SWAP3 SWAP6 POP SWAP3 SWAP6 SWAP1 SWAP4 POP JUMP JUMPDEST PUSH1 0x0 DUP2 ISZERO ISZERO SWAP1 POP SWAP2 SWAP1 POP JUMP JUMPDEST PUSH2 0x4D2D DUP2 PUSH2 0x4D18 JUMP JUMPDEST DUP3 MSTORE POP POP JUMP JUMPDEST PUSH1 0x0 PUSH1 0x20 DUP3 ADD SWAP1 POP PUSH2 0x4D48 PUSH1 0x0 DUP4 ADD DUP5 PUSH2 0x4D24 JUMP JUMPDEST SWAP3 SWAP2 POP POP JUMP JUMPDEST PUSH1 0x0 DUP2 MLOAD SWAP1 POP SWAP2 SWAP1 POP JUMP JUMPDEST PUSH1 0x0 DUP3 DUP3 MSTORE PUSH1 0x20 DUP3 ADD SWAP1 POP SWAP3 SWAP2 POP POP JUMP JUMPDEST PUSH1 0x0 DUP2 SWAP1 POP PUSH1 0x20 DUP3 ADD SWAP1 POP SWAP2 SWAP1 POP JUMP JUMPDEST PUSH1 0x0 DUP2 MLOAD SWAP1 POP SWAP2 SWAP1 POP JUMP JUMPDEST PUSH1 0x0 DUP3 DUP3 MSTORE PUSH1 0x20 DUP3 ADD SWAP1 POP SWAP3 SWAP2 POP POP JUMP JUMPDEST PUSH1 0x0 JUMPDEST DUP4 DUP2 LT ISZERO PUSH2 0x4DB4 JUMPI DUP1 DUP3 ADD MLOAD DUP2 DUP5 ADD MSTORE PUSH1 0x20 DUP2 ADD SWAP1 POP PUSH2 0x4D99 JUMP JUMPDEST PUSH1 0x0 DUP5 DUP5 ADD MSTORE POP POP POP POP JUMP JUMPDEST PUSH1 0x0 PUSH1 0x1F NOT PUSH1 0x1F DUP4 ADD AND SWAP1 POP SWAP2 SWAP1 POP JUMP JUMPDEST PUSH1 0x0 PUSH2 0x4DDC DUP3 PUSH2 0x4D7A JUMP JUMPDEST PUSH2 0x4DE6 DUP2 DUP6 PUSH2 0x4D85 JUMP JUMPDEST SWAP4 POP PUSH2 0x4DF6 DUP2 DUP6 PUSH1 0x20 DUP7 ADD PUSH2 0x4D96 JUMP JUMPDEST PUSH2 0x4DFF DUP2 PUSH2 0x4DC0 JUMP JUMPDEST DUP5 ADD SWAP2 POP POP SWAP3 SWAP2 POP POP JUMP JUMPDEST PUSH1 0x0 PUSH2 0x4E16 DUP4 DUP4 PUSH2 0x4DD1 JUMP JUMPDEST SWAP1 POP SWAP3 SWAP2 POP POP JUMP JUMPDEST PUSH1 0x0 PUSH1 0x20 DUP3 ADD SWAP1 POP SWAP2 SWAP1 POP JUMP JUMPDEST PUSH1 0x0 PUSH2 0x4E36 DUP3 PUSH2 0x4D4E JUMP JUMPDEST PUSH2 0x4E40 DUP2 DUP6 PUSH2 0x4D59 JUMP JUMPDEST SWAP4 POP DUP4 PUSH1 0x20 DUP3 MUL DUP6 ADD PUSH2 0x4E52 DUP6 PUSH2 0x4D6A JUMP JUMPDEST DUP1 PUSH1 0x0 JUMPDEST DUP6 DUP2 LT ISZERO PUSH2 0x4E8E JUMPI DUP5 DUP5 SUB DUP10 MSTORE DUP2 MLOAD PUSH2 0x4E6F DUP6 DUP3 PUSH2 0x4E0A JUMP JUMPDEST SWAP5 POP PUSH2 0x4E7A DUP4 PUSH2 0x4E1E JUMP JUMPDEST SWAP3 POP PUSH1 0x20 DUP11 ADD SWAP10 POP POP PUSH1 0x1 DUP2 ADD SWAP1 POP PUSH2 0x4E56 JUMP JUMPDEST POP DUP3 SWAP8 POP DUP8 SWAP6 POP POP POP POP POP POP SWAP3 SWAP2 POP POP JUMP JUMPDEST PUSH1 0x0 PUSH1 0x20 DUP3 ADD SWAP1 POP DUP2 DUP2 SUB PUSH1 0x0 DUP4 ADD MSTORE PUSH2 0x4EBA DUP2 DUP5 PUSH2 0x4E2B JUMP JUMPDEST SWAP1 POP SWAP3 SWAP2 POP POP JUMP JUMPDEST PUSH1 0x0 DUP1 REVERT JUMPDEST PUSH32 0x4E487B7100000000000000000000000000000000000000000000000000000000 PUSH1 0x0 MSTORE PUSH1 0x41 PUSH1 0x4 MSTORE PUSH1 0x24 PUSH1 0x0 REVERT JUMPDEST PUSH2 0x4EFF DUP3 PUSH2 0x4DC0 JUMP JUMPDEST DUP2 ADD DUP2 DUP2 LT PUSH8 0xFFFFFFFFFFFFFFFF DUP3 GT OR ISZERO PUSH2 0x4F1E JUMPI PUSH2 0x4F1D PUSH2 0x4EC7 JUMP JUMPDEST JUMPDEST DUP1 PUSH1 0x40 MSTORE POP POP POP JUMP JUMPDEST PUSH1 0x0 PUSH2 0x4F31 PUSH2 0x4BAC JUMP JUMPDEST SWAP1 POP PUSH2 0x4F3D DUP3 DUP3 PUSH2 0x4EF6 JUMP JUMPDEST SWAP2 SWAP1 POP JUMP JUMPDEST PUSH1 0x0 PUSH8 0xFFFFFFFFFFFFFFFF DUP3 GT ISZERO PUSH2 0x4F5D JUMPI PUSH2 0x4F5C PUSH2 0x4EC7 JUMP JUMPDEST JUMPDEST PUSH2 0x4F66 DUP3 PUSH2 0x4DC0 JUMP JUMPDEST SWAP1 POP PUSH1 0x20 DUP2 ADD SWAP1 POP SWAP2 SWAP1 POP JUMP JUMPDEST DUP3 DUP2 DUP4 CALLDATACOPY PUSH1 0x0 DUP4 DUP4 ADD MSTORE POP POP POP JUMP JUMPDEST PUSH1 0x0 PUSH2 0x4F95 PUSH2 0x4F90 DUP5 PUSH2 0x4F42 JUMP JUMPDEST PUSH2 0x4F27 JUMP JUMPDEST SWAP1 POP DUP3 DUP2 MSTORE PUSH1 0x20 DUP2 ADD DUP5 DUP5 DUP5 ADD GT ISZERO PUSH2 0x4FB1 JUMPI PUSH2 0x4FB0 PUSH2 0x4EC2 JUMP JUMPDEST JUMPDEST PUSH2 0x4FBC DUP5 DUP3 DUP6 PUSH2 0x4F73 JUMP JUMPDEST POP SWAP4 SWAP3 POP POP POP JUMP JUMPDEST PUSH1 0x0 DUP3 PUSH1 0x1F DUP4 ADD SLT PUSH2 0x4FD9 JUMPI PUSH2 0x4FD8 PUSH2 0x4C1E JUMP JUMPDEST JUMPDEST DUP2 CALLDATALOAD PUSH2 0x4FE9 DUP5 DUP3 PUSH1 0x20 DUP7 ADD PUSH2 0x4F82 JUMP JUMPDEST SWAP2 POP POP SWAP3 SWAP2 POP POP JUMP JUMPDEST PUSH1 0x0 DUP1 PUSH1 0x40 DUP4 DUP6 SUB SLT ISZERO PUSH2 0x5009 JUMPI PUSH2 0x5008 PUSH2 0x4BB6 JUMP JUMPDEST JUMPDEST PUSH1 0x0 DUP4 ADD CALLDATALOAD PUSH8 0xFFFFFFFFFFFFFFFF DUP2 GT ISZERO PUSH2 0x5027 JUMPI PUSH2 0x5026 PUSH2 0x4BBB JUMP JUMPDEST JUMPDEST PUSH2 0x5033 DUP6 DUP3 DUP7 ADD PUSH2 0x4FC4 JUMP JUMPDEST SWAP3 POP POP PUSH1 0x20 DUP4 ADD CALLDATALOAD PUSH8 0xFFFFFFFFFFFFFFFF DUP2 GT ISZERO PUSH2 0x5054 JUMPI PUSH2 0x5053 PUSH2 0x4BBB JUMP JUMPDEST JUMPDEST PUSH2 0x5060 DUP6 DUP3 DUP7 ADD PUSH2 0x4FC4 JUMP JUMPDEST SWAP2 POP POP SWAP3 POP SWAP3 SWAP1 POP JUMP JUMPDEST PUSH1 0x0 DUP1 PUSH1 0x20 DUP4 DUP6 SUB SLT ISZERO PUSH2 0x5081 JUMPI PUSH2 0x5080 PUSH2 0x4BB6 JUMP JUMPDEST JUMPDEST PUSH1 0x0 DUP4 ADD CALLDATALOAD PUSH8 0xFFFFFFFFFFFFFFFF DUP2 GT ISZERO PUSH2 0x509F JUMPI PUSH2 0x509E PUSH2 0x4BBB JUMP JUMPDEST JUMPDEST PUSH2 0x50AB DUP6 DUP3 DUP7 ADD PUSH2 0x4C2D JUMP JUMPDEST SWAP3 POP SWAP3 POP POP SWAP3 POP SWAP3 SWAP1 POP JUMP JUMPDEST PUSH2 0x50C0 DUP2 PUSH2 0x4D18 JUMP JUMPDEST DUP2 EQ PUSH2 0x50CB JUMPI PUSH1 0x0 DUP1 REVERT JUMPDEST POP JUMP JUMPDEST PUSH1 0x0 DUP2 CALLDATALOAD SWAP1 POP PUSH2 0x50DD DUP2 PUSH2 0x50B7 JUMP JUMPDEST SWAP3 SWAP2 POP POP JUMP JUMPDEST PUSH1 0x0 DUP1 PUSH1 0x0 DUP1 PUSH1 0x0 PUSH1 0x60 DUP7 DUP9 SUB SLT ISZERO PUSH2 0x50FF JUMPI PUSH2 0x50FE PUSH2 0x4BB6 JUMP JUMPDEST JUMPDEST PUSH1 0x0 DUP7 ADD CALLDATALOAD PUSH8 0xFFFFFFFFFFFFFFFF DUP2 GT ISZERO PUSH2 0x511D JUMPI PUSH2 0x511C PUSH2 0x4BBB JUMP JUMPDEST JUMPDEST PUSH2 0x5129 DUP9 DUP3 DUP10 ADD PUSH2 0x4C2D JUMP JUMPDEST SWAP6 POP SWAP6 POP POP PUSH1 0x20 DUP7 ADD CALLDATALOAD PUSH8 0xFFFFFFFFFFFFFFFF DUP2 GT ISZERO PUSH2 0x514C JUMPI PUSH2 0x514B PUSH2 0x4BBB JUMP JUMPDEST JUMPDEST PUSH2 0x5158 DUP9 DUP3 DUP10 ADD PUSH2 0x4C2D JUMP JUMPDEST SWAP4 POP SWAP4 POP POP PUSH1 0x40 PUSH2 0x516B DUP9 DUP3 DUP10 ADD PUSH2 0x50CE JUMP JUMPDEST SWAP2 POP POP SWAP3 SWAP6 POP SWAP3 SWAP6 SWAP1 SWAP4 POP JUMP JUMPDEST PUSH1 0x0 DUP3 DUP3 MSTORE PUSH1 0x20 DUP3 ADD SWAP1 POP SWAP3 SWAP2 POP POP JUMP JUMPDEST PUSH1 0x0 PUSH2 0x5194 DUP3 PUSH2 0x4D7A JUMP JUMPDEST PUSH2 0x519E DUP2 DUP6 PUSH2 0x5178 JUMP JUMPDEST SWAP4 POP PUSH2 0x51AE DUP2 DUP6 PUSH1 0x20 DUP7 ADD PUSH2 0x4D96 JUMP JUMPDEST PUSH2 0x51B7 DUP2 PUSH2 0x4DC0 JUMP JUMPDEST DUP5 ADD SWAP2 POP POP SWAP3 SWAP2 POP POP JUMP JUMPDEST PUSH1 0x0 PUSH1 0x20 DUP3 ADD SWAP1 POP DUP2 DUP2 SUB PUSH1 0x0 DUP4 ADD MSTORE PUSH2 0x51DC DUP2 DUP5 PUSH2 0x5189 JUMP JUMPDEST SWAP1 POP SWAP3 SWAP2 POP POP JUMP JUMPDEST PUSH1 0x0 DUP1 PUSH1 0x0 DUP1 PUSH1 0x40 DUP6 DUP8 SUB SLT ISZERO PUSH2 0x51FE JUMPI PUSH2 0x51FD PUSH2 0x4BB6 JUMP JUMPDEST JUMPDEST PUSH1 0x0 DUP6 ADD CALLDATALOAD PUSH8 0xFFFFFFFFFFFFFFFF DUP2 GT ISZERO PUSH2 0x521C JUMPI PUSH2 0x521B PUSH2 0x4BBB JUMP JUMPDEST JUMPDEST PUSH2 0x5228 DUP8 DUP3 DUP9 ADD PUSH2 0x4C2D JUMP JUMPDEST SWAP5 POP SWAP5 POP POP PUSH1 0x20 DUP6 ADD CALLDATALOAD PUSH8 0xFFFFFFFFFFFFFFFF DUP2 GT ISZERO PUSH2 0x524B JUMPI PUSH2 0x524A PUSH2 0x4BBB JUMP JUMPDEST JUMPDEST PUSH2 0x5257 DUP8 DUP3 DUP9 ADD PUSH2 0x4C2D JUMP JUMPDEST SWAP3 POP SWAP3 POP POP SWAP3 SWAP6 SWAP2 SWAP5 POP SWAP3 POP JUMP JUMPDEST PUSH32 0x4E487B7100000000000000000000000000000000000000000000000000000000 PUSH1 0x0 MSTORE PUSH1 0x21 PUSH1 0x4 MSTORE PUSH1 0x24 PUSH1 0x0 REVERT JUMPDEST PUSH1 0x2 DUP2 LT PUSH2 0x52A5 JUMPI PUSH2 0x52A4 PUSH2 0x5265 JUMP JUMPDEST JUMPDEST POP JUMP JUMPDEST PUSH1 0x0 DUP2 SWAP1 POP PUSH2 0x52B6 DUP3 PUSH2 0x5294 JUMP JUMPDEST SWAP2 SWAP1 POP JUMP JUMPDEST PUSH1 0x0 PUSH2 0x52C6 DUP3 PUSH2 0x52A8 JUMP JUMPDEST SWAP1 POP SWAP2 SWAP1 POP JUMP JUMPDEST PUSH2 0x52D6 DUP2 PUSH2 0x52BB JUMP JUMPDEST DUP3 MSTORE POP POP JUMP JUMPDEST PUSH1 0x0 PUSH1 0x20 DUP3 ADD SWAP1 POP PUSH2 0x52F1 PUSH1 0x0 DUP4 ADD DUP5 PUSH2 0x52CD JUMP JUMPDEST SWAP3 SWAP2 POP POP JUMP JUMPDEST PUSH1 0x0 DUP1 PUSH1 0x0 DUP1 PUSH1 0x0 DUP1 PUSH1 0x0 PUSH1 0x80 DUP9 DUP11 SUB SLT ISZERO PUSH2 0x5316 JUMPI PUSH2 0x5315 PUSH2 0x4BB6 JUMP JUMPDEST JUMPDEST PUSH1 0x0 PUSH2 0x5324 DUP11 DUP3 DUP12 ADD PUSH2 0x4C09 JUMP JUMPDEST SWAP8 POP POP PUSH1 0x20 DUP9 ADD CALLDATALOAD PUSH8 0xFFFFFFFFFFFFFFFF DUP2 GT ISZERO PUSH2 0x5345 JUMPI PUSH2 0x5344 PUSH2 0x4BBB JUMP JUMPDEST JUMPDEST PUSH2 0x5351 DUP11 DUP3 DUP12 ADD PUSH2 0x4C2D JUMP JUMPDEST SWAP7 POP SWAP7 POP POP PUSH1 0x40 DUP9 ADD CALLDATALOAD PUSH8 0xFFFFFFFFFFFFFFFF DUP2 GT ISZERO PUSH2 0x5374 JUMPI PUSH2 0x5373 PUSH2 0x4BBB JUMP JUMPDEST JUMPDEST PUSH2 0x5380 DUP11 DUP3 DUP12 ADD PUSH2 0x4C2D JUMP JUMPDEST SWAP5 POP SWAP5 POP POP PUSH1 0x60 DUP9 ADD CALLDATALOAD PUSH8 0xFFFFFFFFFFFFFFFF DUP2 GT ISZERO PUSH2 0x53A3 JUMPI PUSH2 0x53A2 PUSH2 0x4BBB JUMP JUMPDEST JUMPDEST PUSH2 0x53AF DUP11 DUP3 DUP12 ADD PUSH2 0x4C2D JUMP JUMPDEST SWAP3 POP SWAP3 POP POP SWAP3 SWAP6 SWAP9 SWAP2 SWAP5 SWAP8 POP SWAP3 SWAP6 POP JUMP JUMPDEST PUSH2 0x53C9 DUP2 PUSH2 0x4BE0 JUMP JUMPDEST DUP3 MSTORE POP POP JUMP JUMPDEST PUSH1 0x0 PUSH1 0x20 DUP3 ADD SWAP1 POP PUSH2 0x53E4 PUSH1 0x0 DUP4 ADD DUP5 PUSH2 0x53C0 JUMP JUMPDEST SWAP3 SWAP2 POP POP JUMP JUMPDEST PUSH1 0x0 DUP1 DUP4 PUSH1 0x1F DUP5 ADD SLT PUSH2 0x5400 JUMPI PUSH2 0x53FF PUSH2 0x4C1E JUMP JUMPDEST JUMPDEST DUP3 CALLDATALOAD SWAP1 POP PUSH8 0xFFFFFFFFFFFFFFFF DUP2 GT ISZERO PUSH2 0x541D JUMPI PUSH2 0x541C PUSH2 0x4C23 JUMP JUMPDEST JUMPDEST PUSH1 0x20 DUP4 ADD SWAP2 POP DUP4 PUSH1 0x20 DUP3 MUL DUP4 ADD GT ISZERO PUSH2 0x5439 JUMPI PUSH2 0x5438 PUSH2 0x4C28 JUMP JUMPDEST JUMPDEST SWAP3 POP SWAP3 SWAP1 POP JUMP JUMPDEST PUSH1 0x0 DUP1 PUSH1 0x0 DUP1 PUSH1 0x0 DUP1 PUSH1 0x60 DUP8 DUP10 SUB SLT ISZERO PUSH2 0x545D JUMPI PUSH2 0x545C PUSH2 0x4BB6 JUMP JUMPDEST JUMPDEST PUSH1 0x0 DUP8 ADD CALLDATALOAD PUSH8 0xFFFFFFFFFFFFFFFF DUP2 GT ISZERO PUSH2 0x547B JUMPI PUSH2 0x547A PUSH2 0x4BBB JUMP JUMPDEST JUMPDEST PUSH2 0x5487 DUP10 DUP3 DUP11 ADD PUSH2 0x4C2D JUMP JUMPDEST SWAP7 POP SWAP7 POP POP PUSH1 0x20 DUP8 ADD CALLDATALOAD PUSH8 0xFFFFFFFFFFFFFFFF DUP2 GT ISZERO PUSH2 0x54AA JUMPI PUSH2 0x54A9 PUSH2 0x4BBB JUMP JUMPDEST JUMPDEST PUSH2 0x54B6 DUP10 DUP3 DUP11 ADD PUSH2 0x53EA JUMP JUMPDEST SWAP5 POP SWAP5 POP POP PUSH1 0x40 DUP8 ADD CALLDATALOAD PUSH8 0xFFFFFFFFFFFFFFFF DUP2 GT ISZERO PUSH2 0x54D9 JUMPI PUSH2 0x54D8 PUSH2 0x4BBB JUMP JUMPDEST JUMPDEST PUSH2 0x54E5 DUP10 DUP3 DUP11 ADD PUSH2 0x53EA JUMP JUMPDEST SWAP3 POP SWAP3 POP POP SWAP3 SWAP6 POP SWAP3 SWAP6 POP SWAP3 SWAP6 JUMP JUMPDEST PUSH1 0x0 DUP1 PUSH1 0x0 PUSH1 0x40 DUP5 DUP7 SUB SLT ISZERO PUSH2 0x550D JUMPI PUSH2 0x550C PUSH2 0x4BB6 JUMP JUMPDEST JUMPDEST PUSH1 0x0 PUSH2 0x551B DUP7 DUP3 DUP8 ADD PUSH2 0x4C09 JUMP JUMPDEST SWAP4 POP POP PUSH1 0x20 DUP5 ADD CALLDATALOAD PUSH8 0xFFFFFFFFFFFFFFFF DUP2 GT ISZERO PUSH2 0x553C JUMPI PUSH2 0x553B PUSH2 0x4BBB JUMP JUMPDEST JUMPDEST PUSH2 0x5548 DUP7 DUP3 DUP8 ADD PUSH2 0x4C2D JUMP JUMPDEST SWAP3 POP SWAP3 POP POP SWAP3 POP SWAP3 POP SWAP3 JUMP JUMPDEST PUSH1 0x0 DUP1 PUSH1 0x0 DUP1 PUSH1 0x40 DUP6 DUP8 SUB SLT ISZERO PUSH2 0x556E JUMPI PUSH2 0x556D PUSH2 0x4BB6 JUMP JUMPDEST JUMPDEST PUSH1 0x0 DUP6 ADD CALLDATALOAD PUSH8 0xFFFFFFFFFFFFFFFF DUP2 GT ISZERO PUSH2 0x558C JUMPI PUSH2 0x558B PUSH2 0x4BBB JUMP JUMPDEST JUMPDEST PUSH2 0x5598 DUP8 DUP3 DUP9 ADD PUSH2 0x53EA JUMP JUMPDEST SWAP5 POP SWAP5 POP POP PUSH1 0x20 DUP6 ADD CALLDATALOAD PUSH8 0xFFFFFFFFFFFFFFFF DUP2 GT ISZERO PUSH2 0x55BB JUMPI PUSH2 0x55BA PUSH2 0x4BBB JUMP JUMPDEST JUMPDEST PUSH2 0x55C7 DUP8 DUP3 DUP9 ADD PUSH2 0x53EA JUMP JUMPDEST SWAP3 POP SWAP3 POP POP SWAP3 SWAP6 SWAP2 SWAP5 POP SWAP3 POP JUMP JUMPDEST PUSH1 0x4 DUP2 LT PUSH2 0x55E6 JUMPI PUSH2 0x55E5 PUSH2 0x5265 JUMP JUMPDEST JUMPDEST POP JUMP JUMPDEST PUSH1 0x0 DUP2 SWAP1 POP PUSH2 0x55F7 DUP3 PUSH2 0x55D5 JUMP JUMPDEST SWAP2 SWAP1 POP JUMP JUMPDEST PUSH1 0x0 PUSH2 0x5607 DUP3 PUSH2 0x55E9 JUMP JUMPDEST SWAP1 POP SWAP2 SWAP1 POP JUMP JUMPDEST PUSH2 0x5617 DUP2 PUSH2 0x55FC JUMP JUMPDEST DUP3 MSTORE POP POP JUMP JUMPDEST PUSH1 0x0 PUSH1 0x20 DUP3 ADD SWAP1 POP PUSH2 0x5632 PUSH1 0x0 DUP4 ADD DUP5 PUSH2 0x560E JUMP JUMPDEST SWAP3 SWAP2 POP POP JUMP JUMPDEST PUSH1 0x3 DUP2 LT PUSH2 0x5649 JUMPI PUSH2 0x5648 PUSH2 0x5265 JUMP JUMPDEST JUMPDEST POP JUMP JUMPDEST PUSH1 0x0 DUP2 SWAP1 POP PUSH2 0x565A DUP3 PUSH2 0x5638 JUMP JUMPDEST SWAP2 SWAP1 POP JUMP JUMPDEST PUSH1 0x0 PUSH2 0x566A DUP3 PUSH2 0x564C JUMP JUMPDEST SWAP1 POP SWAP2 SWAP1 POP JUMP JUMPDEST PUSH2 0x567A DUP2 PUSH2 0x565F JUMP JUMPDEST DUP3 MSTORE POP POP JUMP JUMPDEST PUSH1 0x0 PUSH1 0x20 DUP3 ADD SWAP1 POP PUSH2 0x5695 PUSH1 0x0 DUP4 ADD DUP5 PUSH2 0x5671 JUMP JUMPDEST SWAP3 SWAP2 POP POP JUMP JUMPDEST PUSH1 0x0 DUP2 SWAP1 POP SWAP3 SWAP2 POP POP JUMP JUMPDEST PUSH1 0x0 PUSH2 0x56B2 DUP4 DUP6 PUSH2 0x569B JUMP JUMPDEST SWAP4 POP PUSH2 0x56BF DUP4 DUP6 DUP5 PUSH2 0x4F73 JUMP JUMPDEST DUP3 DUP5 ADD SWAP1 POP SWAP4 SWAP3 POP POP POP JUMP JUMPDEST PUSH1 0x0 PUSH2 0x56D8 DUP3 DUP5 DUP7 PUSH2 0x56A6 JUMP JUMPDEST SWAP2 POP DUP2 SWAP1 POP SWAP4 SWAP3 POP POP POP JUMP JUMPDEST PUSH32 0x4E487B7100000000000000000000000000000000000000000000000000000000 PUSH1 0x0 MSTORE PUSH1 0x22 PUSH1 0x4 MSTORE PUSH1 0x24 PUSH1 0x0 REVERT JUMPDEST PUSH1 0x0 PUSH1 0x2 DUP3 DIV SWAP1 POP PUSH1 0x1 DUP3 AND DUP1 PUSH2 0x572B JUMPI PUSH1 0x7F DUP3 AND SWAP2 POP JUMPDEST PUSH1 0x20 DUP3 LT DUP2 SUB PUSH2 0x573E JUMPI PUSH2 0x573D PUSH2 0x56E4 JUMP JUMPDEST JUMPDEST POP SWAP2 SWAP1 POP JUMP JUMPDEST PUSH1 0x0 PUSH2 0x574F DUP3 PUSH2 0x4D7A JUMP JUMPDEST PUSH2 0x5759 DUP2 DUP6 PUSH2 0x569B JUMP JUMPDEST SWAP4 POP PUSH2 0x5769 DUP2 DUP6 PUSH1 0x20 DUP7 ADD PUSH2 0x4D96 JUMP JUMPDEST DUP1 DUP5 ADD SWAP2 POP POP SWAP3 SWAP2 POP POP JUMP JUMPDEST PUSH1 0x0 PUSH2 0x5781 DUP3 DUP5 PUSH2 0x5744 JUMP JUMPDEST SWAP2 POP DUP2 SWAP1 POP SWAP3 SWAP2 POP POP JUMP JUMPDEST PUSH1 0x0 DUP2 SWAP1 POP DUP2 PUSH1 0x0 MSTORE PUSH1 0x20 PUSH1 0x0 KECCAK256 SWAP1 POP SWAP2 SWAP1 POP JUMP JUMPDEST PUSH1 0x0 DUP2 SLOAD PUSH2 0x57AE DUP2 PUSH2 0x5713 JUMP JUMPDEST PUSH2 0x57B8 DUP2 DUP7 PUSH2 0x569B JUMP JUMPDEST SWAP5 POP PUSH1 0x1 DUP3 AND PUSH1 0x0 DUP2 EQ PUSH2 0x57D3 JUMPI PUSH1 0x1 DUP2 EQ PUSH2 0x57E8 JUMPI PUSH2 0x581B JUMP JUMPDEST PUSH1 0xFF NOT DUP4 AND DUP7 MSTORE DUP2 ISZERO ISZERO DUP3 MUL DUP7 ADD SWAP4 POP PUSH2 0x581B JUMP JUMPDEST PUSH2 0x57F1 DUP6 PUSH2 0x578C JUMP JUMPDEST PUSH1 0x0 JUMPDEST DUP4 DUP2 LT ISZERO PUSH2 0x5813 JUMPI DUP2 SLOAD DUP2 DUP10 ADD MSTORE PUSH1 0x1 DUP3 ADD SWAP2 POP PUSH1 0x20 DUP2 ADD SWAP1 POP PUSH2 0x57F4 JUMP JUMPDEST DUP4 DUP9 ADD SWAP6 POP POP POP JUMPDEST POP POP POP SWAP3 SWAP2 POP POP JUMP JUMPDEST PUSH1 0x0 PUSH2 0x5830 DUP3 DUP5 PUSH2 0x57A1 JUMP JUMPDEST SWAP2 POP DUP2 SWAP1 POP SWAP3 SWAP2 POP POP JUMP JUMPDEST PUSH32 0x436F6C6C65676520496400000000000000000000000000000000000000000000 PUSH1 0x0 DUP3 ADD MSTORE POP JUMP JUMPDEST PUSH1 0x0 PUSH2 0x5871 PUSH1 0xA DUP4 PUSH2 0x569B JUMP JUMPDEST SWAP2 POP PUSH2 0x587C DUP3 PUSH2 0x583B JUMP JUMPDEST PUSH1 0xA DUP3 ADD SWAP1 POP SWAP2 SWAP1 POP JUMP JUMPDEST PUSH1 0x0 PUSH2 0x5892 DUP3 PUSH2 0x5864 JUMP JUMPDEST SWAP2 POP DUP2 SWAP1 POP SWAP2 SWAP1 POP JUMP JUMPDEST PUSH1 0x0 PUSH1 0x20 PUSH1 0x1F DUP4 ADD DIV SWAP1 POP SWAP2 SWAP1 POP JUMP JUMPDEST PUSH1 0x0 DUP3 DUP3 SHL SWAP1 POP SWAP3 SWAP2 POP POP JUMP JUMPDEST PUSH1 0x0 PUSH1 0x8 DUP4 MUL PUSH2 0x58E9 PUSH32 0xFFFFFFFFFFFFFFFFFFFFFFFFFFFFFFFFFFFFFFFFFFFFFFFFFFFFFFFFFFFFFFFF DUP3 PUSH2 0x58AC JUMP JUMPDEST PUSH2 0x58F3 DUP7 DUP4 PUSH2 0x58AC JUMP JUMPDEST SWAP6 POP DUP1 NOT DUP5 AND SWAP4 POP DUP1 DUP7 AND DUP5 OR SWAP3 POP POP POP SWAP4 SWAP3 POP POP POP JUMP JUMPDEST PUSH1 0x0 DUP2 SWAP1 POP SWAP2 SWAP1 POP JUMP JUMPDEST PUSH1 0x0 DUP2 SWAP1 POP SWAP2 SWAP1 POP JUMP JUMPDEST PUSH1 0x0 PUSH2 0x593A PUSH2 0x5935 PUSH2 0x5930 DUP5 PUSH2 0x590B JUMP JUMPDEST PUSH2 0x5915 JUMP JUMPDEST PUSH2 0x590B JUMP JUMPDEST SWAP1 POP SWAP2 SWAP1 POP JUMP JUMPDEST PUSH1 0x0 DUP2 SWAP1 POP SWAP2 SWAP1 POP JUMP JUMPDEST PUSH2 0x5954 DUP4 PUSH2 0x591F JUMP JUMPDEST PUSH2 0x5968 PUSH2 0x5960 DUP3 PUSH2 0x5941 JUMP JUMPDEST DUP5 DUP5 SLOAD PUSH2 0x58B9 JUMP JUMPDEST DUP3 SSTORE POP POP POP POP JUMP JUMPDEST PUSH1 0x0 SWAP1 JUMP JUMPDEST PUSH2 0x597D PUSH2 0x5970 JUMP JUMPDEST PUSH2 0x5988 DUP2 DUP5 DUP5 PUSH2 0x594B JUMP JUMPDEST POP POP POP JUMP JUMPDEST JUMPDEST DUP2 DUP2 LT ISZERO PUSH2 0x59AC JUMPI PUSH2 0x59A1 PUSH1 0x0 DUP3 PUSH2 0x5975 JUMP JUMPDEST PUSH1 0x1 DUP2 ADD SWAP1 POP PUSH2 0x598E JUMP JUMPDEST POP POP JUMP JUMPDEST PUSH1 0x1F DUP3 GT ISZERO PUSH2 0x59F1 JUMPI PUSH2 0x59C2 DUP2 PUSH2 0x578C JUMP JUMPDEST PUSH2 0x59CB DUP5 PUSH2 0x589C JUMP JUMPDEST DUP2 ADD PUSH1 0x20 DUP6 LT ISZERO PUSH2 0x59DA JUMPI DUP2 SWAP1 POP JUMPDEST PUSH2 0x59EE PUSH2 0x59E6 DUP6 PUSH2 0x589C JUMP JUMPDEST DUP4 ADD DUP3 PUSH2 0x598D JUMP JUMPDEST POP POP JUMPDEST POP POP POP JUMP JUMPDEST PUSH1 0x0 DUP3 DUP3 SHR SWAP1 POP SWAP3 SWAP2 POP POP JUMP JUMPDEST PUSH1 0x0 PUSH2 0x5A14 PUSH1 0x0 NOT DUP5 PUSH1 0x8 MUL PUSH2 0x59F6 JUMP JUMPDEST NOT DUP1 DUP4 AND SWAP2 POP POP SWAP3 SWAP2 POP POP JUMP JUMPDEST PUSH1 0x0 PUSH2 0x5A2D DUP4 DUP4 PUSH2 0x5A03 JUMP JUMPDEST SWAP2 POP DUP3 PUSH1 0x2 MUL DUP3 OR SWAP1 POP SWAP3 SWAP2 POP POP JUMP JUMPDEST PUSH2 0x5A46 DUP3 PUSH2 0x4D7A JUMP JUMPDEST PUSH8 0xFFFFFFFFFFFFFFFF DUP2 GT ISZERO PUSH2 0x5A5F JUMPI PUSH2 0x5A5E PUSH2 0x4EC7 JUMP JUMPDEST JUMPDEST PUSH2 0x5A69 DUP3 SLOAD PUSH2 0x5713 JUMP JUMPDEST PUSH2 0x5A74 DUP3 DUP3 DUP6 PUSH2 0x59B0 JUMP JUMPDEST PUSH1 0x0 PUSH1 0x20 SWAP1 POP PUSH1 0x1F DUP4 GT PUSH1 0x1 DUP2 EQ PUSH2 0x5AA7 JUMPI PUSH1 0x0 DUP5 ISZERO PUSH2 0x5A95 JUMPI DUP3 DUP8 ADD MLOAD SWAP1 POP JUMPDEST PUSH2 0x5A9F DUP6 DUP3 PUSH2 0x5A21 JUMP JUMPDEST DUP7 SSTORE POP PUSH2 0x5B07 JUMP JUMPDEST PUSH1 0x1F NOT DUP5 AND PUSH2 0x5AB5 DUP7 PUSH2 0x578C JUMP JUMPDEST PUSH1 0x0 JUMPDEST DUP3 DUP2 LT ISZERO PUSH2 0x5ADD JUMPI DUP5 DUP10 ADD MLOAD DUP3 SSTORE PUSH1 0x1 DUP3 ADD SWAP2 POP PUSH1 0x20 DUP6 ADD SWAP5 POP PUSH1 0x20 DUP2 ADD SWAP1 POP PUSH2 0x5AB8 JUMP JUMPDEST DUP7 DUP4 LT ISZERO PUSH2 0x5AFA JUMPI DUP5 DUP10 ADD MLOAD PUSH2 0x5AF6 PUSH1 0x1F DUP10 AND DUP3 PUSH2 0x5A03 JUMP JUMPDEST DUP4 SSTORE POP JUMPDEST PUSH1 0x1 PUSH1 0x2 DUP9 MUL ADD DUP9 SSTORE POP POP POP JUMPDEST POP POP POP POP POP POP JUMP JUMPDEST PUSH32 0x4E487B7100000000000000000000000000000000000000000000000000000000 PUSH1 0x0 MSTORE PUSH1 0x32 PUSH1 0x4 MSTORE PUSH1 0x24 PUSH1 0x0 REVERT JUMPDEST PUSH1 0x0 DUP1 REVERT JUMPDEST PUSH1 0x0 DUP1 REVERT JUMPDEST PUSH1 0x0 DUP1 REVERT JUMPDEST PUSH1 0x0 DUP1 DUP4 CALLDATALOAD PUSH1 0x1 PUSH1 0x20 SUB DUP5 CALLDATASIZE SUB SUB DUP2 SLT PUSH2 0x5B6A JUMPI PUSH2 0x5B69 PUSH2 0x5B3E JUMP JUMPDEST JUMPDEST DUP1 DUP5 ADD SWAP3 POP DUP3 CALLDATALOAD SWAP2 POP PUSH8 0xFFFFFFFFFFFFFFFF DUP3 GT ISZERO PUSH2 0x5B8C JUMPI PUSH2 0x5B8B PUSH2 0x5B43 JUMP JUMPDEST JUMPDEST PUSH1 0x20 DUP4 ADD SWAP3 POP PUSH1 0x1 DUP3 MUL CALLDATASIZE SUB DUP4 SGT ISZERO PUSH2 0x5BA8 JUMPI PUSH2 0x5BA7 PUSH2 0x5B48 JUMP JUMPDEST JUMPDEST POP SWAP3 POP SWAP3 SWAP1 POP JUMP JUMPDEST PUSH32 0x4E487B7100000000000000000000000000000000000000000000000000000000 PUSH1 0x0 MSTORE PUSH1 0x11 PUSH1 0x4 MSTORE PUSH1 0x24 PUSH1 0x0 REVERT JUMPDEST PUSH1 0x0 PUSH2 0x5BEA DUP3 PUSH2 0x590B JUMP JUMPDEST SWAP2 POP PUSH32 0xFFFFFFFFFFFFFFFFFFFFFFFFFFFFFFFFFFFFFFFFFFFFFFFFFFFFFFFFFFFFFFFF DUP3 SUB PUSH2 0x5C1C JUMPI PUSH2 0x5C1B PUSH2 0x5BB0 JUMP JUMPDEST JUMPDEST PUSH1 0x1 DUP3 ADD SWAP1 POP SWAP2 SWAP1 POP JUMP JUMPDEST PUSH1 0x0 DUP3 SWAP1 POP SWAP3 SWAP2 POP POP JUMP JUMPDEST PUSH2 0x5C3C DUP4 DUP4 PUSH2 0x5C27 JUMP JUMPDEST PUSH8 0xFFFFFFFFFFFFFFFF DUP2 GT ISZERO PUSH2 0x5C55 JUMPI PUSH2 0x5C54 PUSH2 0x4EC7 JUMP JUMPDEST JUMPDEST PUSH2 0x5C5F DUP3 SLOAD PUSH2 0x5713 JUMP JUMPDEST PUSH2 0x5C6A DUP3 DUP3 DUP6 PUSH2 0x59B0 JUMP JUMPDEST PUSH1 0x0 PUSH1 0x1F DUP4 GT PUSH1 0x1 DUP2 EQ PUSH2 0x5C99 JUMPI PUSH1 0x0 DUP5 ISZERO PUSH2 0x5C87 JUMPI DUP3 DUP8 ADD CALLDATALOAD SWAP1 POP JUMPDEST PUSH2 0x5C91 DUP6 DUP3 PUSH2 0x5A21 JUMP JUMPDEST DUP7 SSTORE POP PUSH2 0x5CF9 JUMP JUMPDEST PUSH1 0x1F NOT DUP5 AND PUSH2 0x5CA7 DUP7 PUSH2 0x578C JUMP JUMPDEST PUSH1 0x0 JUMPDEST DUP3 DUP2 LT ISZERO PUSH2 0x5CCF JUMPI DUP5 DUP10 ADD CALLDATALOAD DUP3 SSTORE PUSH1 0x1 DUP3 ADD SWAP2 POP PUSH1 0x20 DUP6 ADD SWAP5 POP PUSH1 0x20 DUP2 ADD SWAP1 POP PUSH2 0x5CAA JUMP JUMPDEST DUP7 DUP4 LT ISZERO PUSH2 0x5CEC JUMPI DUP5 DUP10 ADD CALLDATALOAD PUSH2 0x5CE8 PUSH1 0x1F DUP10 AND DUP3 PUSH2 0x5A03 JUMP JUMPDEST DUP4 SSTORE POP JUMPDEST PUSH1 0x1 PUSH1 0x2 DUP9 MUL ADD DUP9 SSTORE POP POP POP JUMPDEST POP POP POP POP POP POP POP JUMP JUMPDEST PUSH1 0x0 DUP2 PUSH1 0x60 SHL SWAP1 POP SWAP2 SWAP1 POP JUMP JUMPDEST PUSH1 0x0 PUSH2 0x5D1A DUP3 PUSH2 0x5D02 JUMP JUMPDEST SWAP1 POP SWAP2 SWAP1 POP JUMP JUMPDEST PUSH1 0x0 PUSH2 0x5D2C DUP3 PUSH2 0x5D0F JUMP JUMPDEST SWAP1 POP SWAP2 SWAP1 POP JUMP JUMPDEST PUSH2 0x5D44 PUSH2 0x5D3F DUP3 PUSH2 0x4BE0 JUMP JUMPDEST PUSH2 0x5D21 JUMP JUMPDEST DUP3 MSTORE POP POP JUMP JUMPDEST PUSH1 0x0 DUP2 SWAP1 POP SWAP2 SWAP1 POP JUMP JUMPDEST PUSH2 0x5D65 PUSH2 0x5D60 DUP3 PUSH2 0x590B JUMP JUMPDEST PUSH2 0x5D4A JUMP JUMPDEST DUP3 MSTORE POP POP JUMP JUMPDEST PUSH1 0x0 PUSH2 0x5D77 DUP3 DUP7 PUSH2 0x5D33 JUMP JUMPDEST PUSH1 0x14 DUP3 ADD SWAP2 POP PUSH2 0x5D87 DUP3 DUP6 PUSH2 0x5D54 JUMP JUMPDEST PUSH1 0x20 DUP3 ADD SWAP2 POP PUSH2 0x5D97 DUP3 DUP5 PUSH2 0x5D54 JUMP JUMPDEST PUSH1 0x20 DUP3 ADD SWAP2 POP DUP2 SWAP1 POP SWAP5 SWAP4 POP POP POP POP JUMP JUMPDEST PUSH1 0x0 PUSH2 0x5DB3 DUP3 PUSH2 0x590B JUMP JUMPDEST SWAP2 POP PUSH2 0x5DBE DUP4 PUSH2 0x590B JUMP JUMPDEST SWAP3 POP DUP3 DUP3 MUL PUSH2 0x5DCC DUP2 PUSH2 0x590B JUMP JUMPDEST SWAP2 POP DUP3 DUP3 DIV DUP5 EQ DUP4 ISZERO OR PUSH2 0x5DE3 JUMPI PUSH2 0x5DE2 PUSH2 0x5BB0 JUMP JUMPDEST JUMPDEST POP SWAP3 SWAP2 POP POP JUMP JUMPDEST PUSH1 0x0 PUSH2 0x5DF5 DUP3 PUSH2 0x590B JUMP JUMPDEST SWAP2 POP PUSH2 0x5E00 DUP4 PUSH2 0x590B JUMP JUMPDEST SWAP3 POP DUP3 DUP3 ADD SWAP1 POP DUP1 DUP3 GT ISZERO PUSH2 0x5E18 JUMPI PUSH2 0x5E17 PUSH2 0x5BB0 JUMP JUMPDEST JUMPDEST SWAP3 SWAP2 POP POP JUMP JUMPDEST PUSH1 0x0 PUSH2 0x5E29 DUP3 PUSH2 0x590B JUMP JUMPDEST SWAP2 POP PUSH1 0x0 DUP3 SUB PUSH2 0x5E3C JUMPI PUSH2 0x5E3B PUSH2 0x5BB0 JUMP JUMPDEST JUMPDEST PUSH1 0x1 DUP3 SUB SWAP1 POP SWAP2 SWAP1 POP JUMP JUMPDEST PUSH32 0x537472696E67733A20686578206C656E67746820696E73756666696369656E74 PUSH1 0x0 DUP3 ADD MSTORE POP JUMP JUMPDEST PUSH1 0x0 PUSH2 0x5E7D PUSH1 0x20 DUP4 PUSH2 0x5178 JUMP JUMPDEST SWAP2 POP PUSH2 0x5E88 DUP3 PUSH2 0x5E47 JUMP JUMPDEST PUSH1 0x20 DUP3 ADD SWAP1 POP SWAP2 SWAP1 POP JUMP JUMPDEST PUSH1 0x0 PUSH1 0x20 DUP3 ADD SWAP1 POP DUP2 DUP2 SUB PUSH1 0x0 DUP4 ADD MSTORE PUSH2 0x5EAC DUP2 PUSH2 0x5E70 JUMP JUMPDEST SWAP1 POP SWAP2 SWAP1 POP JUMP INVALID LOG2 PUSH5 0x6970667358 0x22 SLT KECCAK256 0xD6 MUL 0x5F SHL 0xF7 PUSH2 0xDC95 0xB7 0xAD 0xC8 0x28 0x28 0x21 0xFC 0xDE SUB CALLER PUSH20 0xCD6590272C7B40AF88DE82EB1F64736F6C634300 ADDMOD GT STOP CALLER "},"methodIdentifiers":{"addAsCollege(string)":"85c5989e","addNewStudent(address,string,string,string)":"7f3e1e82","approveCollege(string)":"c2d8eef3","checkAccessToThirdParty(address,string,string)":"0147aabd","editOwnCollegeData(string,string)":"95a6ba22","editStudentDataAccessPermission(string,string,bool)":"f42867a5","editStudentDataAsCollege(string,string[],string[])":"90bff258","editStudentDataAsStudent(string[],string[])":"a83cf342","getAllCollegeIds()":"88c045e2","getCollegeData(string,string)":"9a645856","getCollegeStatus(string)":"bc1829f8","getCollegeStudentIds()":"1abf4112","getOwnCollegeId()":"7bb312fd","getOwnStudentId()":"53ef780e","getOwner()":"893d20e8","getStudentData(string,string)":"62893b13","getStudentDataAsCollege(string,string,bool)":"3e6835b4","getStudentDataStatus(string,string)":"ce54123d","getStudentDataTypes(string)":"ea055796","getStudentEditAccess(string,string)":"28fd6ae1","getStudentStatus(string)":"75d0b932","giveAccessToThirdParty(address,string)":"9be977d6","rejectCollege(string)":"3d9c5434","revokeAccessToThirdParty(address,string)":"f18b1781","verifyStudentData(string,string)":"b4a9f2c4"}}}}}