{
  "_format": "hh-sol-artifact-1",
  "contractName": "Ducid",
  "sourceName": "contracts/Ducid.sol",
  "abi": [
    {
      "inputs": [],
      "stateMutability": "nonpayable",
      "type": "constructor"
    },
    {
      "inputs": [],
      "name": "AccessOnlyToACollege",
      "type": "error"
    },
    {
      "inputs": [],
      "name": "AccessOnlyToOwner",
      "type": "error"
    },
    {
      "inputs": [],
      "name": "AccessOnlyToVerifiedCollege",
      "type": "error"
    },
    {
      "inputs": [],
      "name": "CollegeAlreadyVerified",
      "type": "error"
    },
    {
      "inputs": [],
      "name": "CollegeAlreadyrejected",
      "type": "error"
    },
    {
      "inputs": [],
      "name": "CollegeNotFound",
      "type": "error"
    },
    {
      "inputs": [],
      "name": "DataMissMatching",
      "type": "error"
    },
    {
      "inputs": [],
      "name": "EmptyDataNotAllowed",
      "type": "error"
    },
    {
      "inputs": [],
      "name": "NoAccessToEditData",
      "type": "error"
    },
    {
      "inputs": [],
      "name": "StudentNotFound",
      "type": "error"
    },
    {
      "inputs": [],
      "name": "studentIsOfAnotherCollege",
      "type": "error"
    },
    {
      "inputs": [
        {
          "internalType": "string",
          "name": "collegeName",
          "type": "string"
        }
      ],
      "name": "addAsCollege",
      "outputs": [],
      "stateMutability": "nonpayable",
      "type": "function"
    },
    {
      "inputs": [
        {
          "internalType": "address",
          "name": "studentAddress",
          "type": "address"
        },
        {
          "internalType": "string",
          "name": "studentName",
          "type": "string"
        },
        {
          "internalType": "string",
          "name": "studentAge",
          "type": "string"
        },
        {
          "internalType": "string",
          "name": "studentPercentage",
          "type": "string"
        }
      ],
      "name": "addNewStudent",
      "outputs": [],
      "stateMutability": "nonpayable",
      "type": "function"
    },
    {
      "inputs": [
        {
          "internalType": "string",
          "name": "collegeId",
          "type": "string"
        }
      ],
      "name": "approveCollege",
      "outputs": [],
      "stateMutability": "nonpayable",
      "type": "function"
    },
    {
      "inputs": [
        {
          "internalType": "address",
          "name": "thirdParty",
          "type": "address"
        },
        {
          "internalType": "string[]",
          "name": "dataType",
          "type": "string[]"
        },
        {
          "internalType": "bool[]",
          "name": "accesses",
          "type": "bool[]"
        }
      ],
      "name": "changeThirdPartyAccess",
      "outputs": [],
      "stateMutability": "nonpayable",
      "type": "function"
    },
    {
      "inputs": [
        {
          "internalType": "address",
          "name": "thirdParty",
          "type": "address"
        },
        {
          "internalType": "string",
          "name": "studentId",
          "type": "string"
        },
        {
          "internalType": "string",
          "name": "dataType",
          "type": "string"
        }
      ],
      "name": "checkAccessToThirdParty",
      "outputs": [
        {
          "internalType": "bool",
          "name": "",
          "type": "bool"
        }
      ],
      "stateMutability": "view",
      "type": "function"
    },
    {
      "inputs": [
        {
          "internalType": "string",
          "name": "dataType",
          "type": "string"
        },
        {
          "internalType": "string",
          "name": "data",
          "type": "string"
        }
      ],
      "name": "editOwnCollegeData",
      "outputs": [],
      "stateMutability": "nonpayable",
      "type": "function"
    },
    {
      "inputs": [
        {
          "internalType": "string",
          "name": "studentId",
          "type": "string"
        },
        {
          "internalType": "string",
          "name": "dataType",
          "type": "string"
        },
        {
          "internalType": "bool",
          "name": "access",
          "type": "bool"
        }
      ],
      "name": "editStudentDataAccessPermission",
      "outputs": [],
      "stateMutability": "nonpayable",
      "type": "function"
    },
    {
      "inputs": [
        {
          "internalType": "string",
          "name": "studentId",
          "type": "string"
        },
        {
          "internalType": "string[]",
          "name": "dataTypes",
          "type": "string[]"
        },
        {
          "internalType": "string[]",
          "name": "data",
          "type": "string[]"
        }
      ],
      "name": "editStudentDataAsCollege",
      "outputs": [],
      "stateMutability": "nonpayable",
      "type": "function"
    },
    {
      "inputs": [
        {
          "internalType": "string[]",
          "name": "dataTypes",
          "type": "string[]"
        },
        {
          "internalType": "string[]",
          "name": "data",
          "type": "string[]"
        }
      ],
      "name": "editStudentDataAsStudent",
      "outputs": [],
      "stateMutability": "nonpayable",
      "type": "function"
    },
    {
      "inputs": [],
      "name": "getAllCollegeIds",
      "outputs": [
        {
          "internalType": "string[]",
          "name": "",
          "type": "string[]"
        }
      ],
      "stateMutability": "view",
      "type": "function"
    },
    {
      "inputs": [
        {
          "internalType": "string",
          "name": "collegeId",
          "type": "string"
        },
        {
          "internalType": "string",
          "name": "dataType",
          "type": "string"
        }
      ],
      "name": "getCollegeData",
      "outputs": [
        {
          "internalType": "string",
          "name": "",
          "type": "string"
        }
      ],
      "stateMutability": "view",
      "type": "function"
    },
    {
      "inputs": [
        {
          "internalType": "string",
          "name": "collegeId",
          "type": "string"
        }
      ],
      "name": "getCollegeStatus",
      "outputs": [
        {
          "internalType": "enum Ducid.CollegeStatus",
          "name": "",
          "type": "uint8"
        }
      ],
      "stateMutability": "view",
      "type": "function"
    },
    {
      "inputs": [],
      "name": "getCollegeStudentIds",
      "outputs": [
        {
          "internalType": "string[]",
          "name": "",
          "type": "string[]"
        }
      ],
      "stateMutability": "view",
      "type": "function"
    },
    {
      "inputs": [],
      "name": "getOwnCollegeId",
      "outputs": [
        {
          "internalType": "string",
          "name": "",
          "type": "string"
        }
      ],
      "stateMutability": "view",
      "type": "function"
    },
    {
      "inputs": [],
      "name": "getOwnStudentId",
      "outputs": [
        {
          "internalType": "string",
          "name": "",
          "type": "string"
        }
      ],
      "stateMutability": "view",
      "type": "function"
    },
    {
      "inputs": [],
      "name": "getOwner",
      "outputs": [
        {
          "internalType": "address",
          "name": "",
          "type": "address"
        }
      ],
      "stateMutability": "view",
      "type": "function"
    },
    {
      "inputs": [
        {
          "internalType": "string",
          "name": "studentId",
          "type": "string"
        },
        {
          "internalType": "string",
          "name": "dataType",
          "type": "string"
        }
      ],
      "name": "getStudentData",
      "outputs": [
        {
          "internalType": "string",
          "name": "",
          "type": "string"
        }
      ],
      "stateMutability": "view",
      "type": "function"
    },
    {
      "inputs": [
        {
          "internalType": "string",
          "name": "studentId",
          "type": "string"
        },
        {
          "internalType": "string",
          "name": "dataType",
          "type": "string"
        },
        {
          "internalType": "bool",
          "name": "TypeOfData",
          "type": "bool"
        }
      ],
      "name": "getStudentDataAsCollege",
      "outputs": [
        {
          "internalType": "string",
          "name": "data",
          "type": "string"
        }
      ],
      "stateMutability": "view",
      "type": "function"
    },
    {
      "inputs": [
        {
          "internalType": "string",
          "name": "studentId",
          "type": "string"
        },
        {
          "internalType": "string",
          "name": "dataType",
          "type": "string"
        }
      ],
      "name": "getStudentDataStatus",
      "outputs": [
        {
          "internalType": "enum Ducid.StudentDataStatus",
          "name": "",
          "type": "uint8"
        }
      ],
      "stateMutability": "view",
      "type": "function"
    },
    {
      "inputs": [
        {
          "internalType": "string",
          "name": "studentId",
          "type": "string"
        }
      ],
      "name": "getStudentDataTypes",
      "outputs": [
        {
          "internalType": "string[]",
          "name": "",
          "type": "string[]"
        }
      ],
      "stateMutability": "view",
      "type": "function"
    },
    {
      "inputs": [
        {
          "internalType": "string",
          "name": "studentId",
          "type": "string"
        },
        {
          "internalType": "string",
          "name": "dataType",
          "type": "string"
        }
      ],
      "name": "getStudentEditAccess",
      "outputs": [
        {
          "internalType": "bool",
          "name": "",
          "type": "bool"
        }
      ],
      "stateMutability": "view",
      "type": "function"
    },
    {
      "inputs": [
        {
          "internalType": "string",
          "name": "studentId",
          "type": "string"
        }
      ],
      "name": "getStudentStatus",
      "outputs": [
        {
          "internalType": "enum Ducid.StudentStatus",
          "name": "",
          "type": "uint8"
        }
      ],
      "stateMutability": "view",
      "type": "function"
    },
    {
      "inputs": [
        {
          "internalType": "string",
          "name": "collegeId",
          "type": "string"
        }
      ],
      "name": "rejectCollege",
      "outputs": [],
      "stateMutability": "nonpayable",
      "type": "function"
    },
    {
      "inputs": [
        {
          "internalType": "string",
          "name": "studentId",
          "type": "string"
        },
        {
          "internalType": "string",
          "name": "dataType",
          "type": "string"
        }
      ],
      "name": "verifyStudentData",
      "outputs": [],
      "stateMutability": "nonpayable",
      "type": "function"
    }
  ],
  "bytecode": "0x608060405234801561001057600080fd5b50336000806101000a81548173ffffffffffffffffffffffffffffffffffffffff021916908373ffffffffffffffffffffffffffffffffffffffff160217905550615d5e80620000616000396000f3fe608060405234801561001057600080fd5b50600436106101585760003560e01c8063893d20e8116100c3578063bc1829f81161007c578063bc1829f8146103d7578063c2d8eef314610407578063ce54123d14610423578063e2a311e714610453578063ea0557961461046f578063f42867a51461049f57610158565b8063893d20e81461031957806390bff2581461033757806395a6ba22146103535780639a6458561461036f578063a83cf3421461039f578063b4a9f2c4146103bb57610158565b806362893b131161011557806362893b131461024557806375d0b932146102755780637bb312fd146102a55780637f3e1e82146102c357806385c5989e146102df57806388c045e2146102fb57610158565b80630147aabd1461015d5780631abf41121461018d57806328fd6ae1146101ab5780633d9c5434146101db5780633e6835b4146101f757806353ef780e14610227575b600080fd5b61017760048036038101906101729190614a40565b6104bb565b6040516101849190614af0565b60405180910390f35b610195610551565b6040516101a29190614c5d565b60405180910390f35b6101c560048036038101906101c09190614daf565b610863565b6040516101d29190614af0565b60405180910390f35b6101f560048036038101906101f09190614e27565b6108b5565b005b610211600480360381019061020c9190614ea0565b610a9b565b60405161021e9190614f7f565b60405180910390f35b61022f6110d6565b60405161023c9190614f7f565b60405180910390f35b61025f600480360381019061025a9190614fa1565b6111a5565b60405161026c9190614f7f565b60405180910390f35b61028f600480360381019061028a9190614e27565b61145c565b60405161029c9190615099565b60405180910390f35b6102ad611494565b6040516102ba9190614f7f565b60405180910390f35b6102dd60048036038101906102d891906150b4565b611563565b005b6102f960048036038101906102f49190614e27565b611ad7565b005b610303611c36565b6040516103109190614c5d565b60405180910390f35b610321611d0f565b60405161032e919061518c565b60405180910390f35b610351600480360381019061034c91906151fd565b611d38565b005b61036d60048036038101906103689190614fa1565b6123ee565b005b61038960048036038101906103849190614fa1565b6127b8565b6040516103969190614f7f565b60405180910390f35b6103b960048036038101906103b491906152b1565b61288b565b005b6103d560048036038101906103d09190614fa1565b612c7a565b005b6103f160048036038101906103ec9190614e27565b6132b2565b6040516103fe919061537a565b60405180910390f35b610421600480360381019061041c9190614e27565b6132ea565b005b61043d60048036038101906104389190614fa1565b6134d2565b60405161044a91906153dd565b60405180910390f35b61046d6004803603810190610468919061544e565b6139b1565b005b61048960048036038101906104849190614e27565b613d17565b6040516104969190614c5d565b60405180910390f35b6104b960048036038101906104b49190614ea0565b613e11565b005b6000600e60008773ffffffffffffffffffffffffffffffffffffffff1673ffffffffffffffffffffffffffffffffffffffff168152602001908152602001600020858560405161050c929190615513565b9081526020016040518091039020838360405161052a929190615513565b908152602001604051809103902060009054906101000a900460ff16905095945050505050565b60606000600160003373ffffffffffffffffffffffffffffffffffffffff1673ffffffffffffffffffffffffffffffffffffffff168152602001908152602001600020805461059f9061555b565b80601f01602080910402602001604051908101604052809291908181526020018280546105cb9061555b565b80156106185780601f106105ed57610100808354040283529160200191610618565b820191906000526020600020905b8154815290600101906020018083116105fb57829003601f168201915b505050505090506000600381111561063357610632615022565b5b60038260405161064391906155bd565b908152602001604051809103902060009054906101000a900460ff16600381111561067157610670615022565b5b036106a8576040517f8fa622f500000000000000000000000000000000000000000000000000000000815260040160405180910390fd5b600260038111156106bc576106bb615022565b5b6003826040516106cc91906155bd565b908152602001604051809103902060009054906101000a900460ff1660038111156106fa576106f9615022565b5b14610731576040517f8ac8e00b00000000000000000000000000000000000000000000000000000000815260040160405180910390fd5b6007600160003373ffffffffffffffffffffffffffffffffffffffff1673ffffffffffffffffffffffffffffffffffffffff16815260200190815260200160002060405161077f919061566c565b9081526020016040518091039020805480602002602001604051908101604052809291908181526020016000905b828210156108595783829060005260206000200180546107cc9061555b565b80601f01602080910402602001604051908101604052809291908181526020018280546107f89061555b565b80156108455780601f1061081a57610100808354040283529160200191610845565b820191906000526020600020905b81548152906001019060200180831161082857829003601f168201915b5050505050815260200190600101906107ad565b5050505091505090565b6000600b8360405161087591906155bd565b90815260200160405180910390208260405161089191906155bd565b908152602001604051809103902060009054906101000a900460ff16905092915050565b60008054906101000a900473ffffffffffffffffffffffffffffffffffffffff1673ffffffffffffffffffffffffffffffffffffffff163373ffffffffffffffffffffffffffffffffffffffff161461093a576040517f2dca963600000000000000000000000000000000000000000000000000000000815260040160405180910390fd5b6000600381111561094e5761094d615022565b5b60038383604051610960929190615513565b908152602001604051809103902060009054906101000a900460ff16600381111561098e5761098d615022565b5b036109c5576040517f567e9be600000000000000000000000000000000000000000000000000000000815260040160405180910390fd5b6003808111156109d8576109d7615022565b5b600383836040516109ea929190615513565b908152602001604051809103902060009054906101000a900460ff166003811115610a1857610a17615022565b5b03610a4f576040517f20f935a000000000000000000000000000000000000000000000000000000000815260040160405180910390fd5b6003808383604051610a62929190615513565b908152602001604051809103902060006101000a81548160ff02191690836003811115610a9257610a91615022565b5b02179055505050565b60606000600160003373ffffffffffffffffffffffffffffffffffffffff1673ffffffffffffffffffffffffffffffffffffffff1681526020019081526020016000208054610ae99061555b565b80601f0160208091040260200160405190810160405280929190818152602001828054610b159061555b565b8015610b625780601f10610b3757610100808354040283529160200191610b62565b820191906000526020600020905b815481529060010190602001808311610b4557829003601f168201915b5050505050905060006003811115610b7d57610b7c615022565b5b600382604051610b8d91906155bd565b908152602001604051809103902060009054906101000a900460ff166003811115610bbb57610bba615022565b5b03610bf2576040517f8fa622f500000000000000000000000000000000000000000000000000000000815260040160405180910390fd5b60026003811115610c0657610c05615022565b5b600382604051610c1691906155bd565b908152602001604051809103902060009054906101000a900460ff166003811115610c4457610c43615022565b5b14610c7b576040517f8ac8e00b00000000000000000000000000000000000000000000000000000000815260040160405180910390fd5b868660006001811115610c9157610c90615022565b5b60088383604051610ca3929190615513565b908152602001604051809103902060009054906101000a900460ff166001811115610cd157610cd0615022565b5b03610d08576040517f078de8bf00000000000000000000000000000000000000000000000000000000815260040160405180910390fd5b6000600160003373ffffffffffffffffffffffffffffffffffffffff1673ffffffffffffffffffffffffffffffffffffffff1681526020019081526020016000208054610d549061555b565b80601f0160208091040260200160405190810160405280929190818152602001828054610d809061555b565b8015610dcd5780601f10610da257610100808354040283529160200191610dcd565b820191906000526020600020905b815481529060010190602001808311610db057829003601f168201915b50505050509050600060098484604051610de8929190615513565b9081526020016040518091039020604051610e02906156cf565b90815260200160405180910390208054610e1b9061555b565b80601f0160208091040260200160405190810160405280929190818152602001828054610e479061555b565b8015610e945780601f10610e6957610100808354040283529160200191610e94565b820191906000526020600020905b815481529060010190602001808311610e7757829003601f168201915b5050505050905080604051602001610eac91906155bd565b6040516020818303038152906040528051906020012082604051602001610ed391906155bd565b6040516020818303038152906040528051906020012014610f20576040517fca7b7fb200000000000000000000000000000000000000000000000000000000815260040160405180910390fd5b8615610ff45760098b8b604051610f38929190615513565b90815260200160405180910390208989604051610f56929190615513565b90815260200160405180910390208054610f6f9061555b565b80601f0160208091040260200160405190810160405280929190818152602001828054610f9b9061555b565b8015610fe85780601f10610fbd57610100808354040283529160200191610fe8565b820191906000526020600020905b815481529060010190602001808311610fcb57829003601f168201915b505050505095506110c8565b866110c757600d8b8b60405161100b929190615513565b90815260200160405180910390208989604051611029929190615513565b908152602001604051809103902080546110429061555b565b80601f016020809104026020016040519081016040528092919081815260200182805461106e9061555b565b80156110bb5780601f10611090576101008083540402835291602001916110bb565b820191906000526020600020905b81548152906001019060200180831161109e57829003601f168201915b505050505095506110c8565b5b505050505095945050505050565b6060600660003373ffffffffffffffffffffffffffffffffffffffff1673ffffffffffffffffffffffffffffffffffffffff16815260200190815260200160002080546111229061555b565b80601f016020809104026020016040519081016040528092919081815260200182805461114e9061555b565b801561119b5780601f106111705761010080835404028352916020019161119b565b820191906000526020600020905b81548152906001019060200180831161117e57829003601f168201915b5050505050905090565b6060600060018111156111bb576111ba615022565b5b600886866040516111cd929190615513565b908152602001604051809103902060009054906101000a900460ff1660018111156111fb576111fa615022565b5b03611232576040517f078de8bf00000000000000000000000000000000000000000000000000000000815260040160405180910390fd5b8484604051602001611245929190615513565b60405160208183030381529060405280519060200120600660003373ffffffffffffffffffffffffffffffffffffffff1673ffffffffffffffffffffffffffffffffffffffff1681526020019081526020016000206040516020016112aa919061566c565b60405160208183030381529060405280519060200120141580156113545750600e60003373ffffffffffffffffffffffffffffffffffffffff1673ffffffffffffffffffffffffffffffffffffffff1681526020019081526020016000208585604051611318929190615513565b90815260200160405180910390208383604051611336929190615513565b908152602001604051809103902060009054906101000a900460ff16155b1561138b576040517f722f899200000000000000000000000000000000000000000000000000000000815260040160405180910390fd5b6009858560405161139d929190615513565b908152602001604051809103902083836040516113bb929190615513565b908152602001604051809103902080546113d49061555b565b80601f01602080910402602001604051908101604052809291908181526020018280546114009061555b565b801561144d5780601f106114225761010080835404028352916020019161144d565b820191906000526020600020905b81548152906001019060200180831161143057829003601f168201915b50505050509050949350505050565b600060088383604051611470929190615513565b908152602001604051809103902060009054906101000a900460ff16905092915050565b6060600160003373ffffffffffffffffffffffffffffffffffffffff1673ffffffffffffffffffffffffffffffffffffffff16815260200190815260200160002080546114e09061555b565b80601f016020809104026020016040519081016040528092919081815260200182805461150c9061555b565b80156115595780601f1061152e57610100808354040283529160200191611559565b820191906000526020600020905b81548152906001019060200180831161153c57829003601f168201915b5050505050905090565b6000600160003373ffffffffffffffffffffffffffffffffffffffff1673ffffffffffffffffffffffffffffffffffffffff16815260200190815260200160002080546115af9061555b565b80601f01602080910402602001604051908101604052809291908181526020018280546115db9061555b565b80156116285780601f106115fd57610100808354040283529160200191611628565b820191906000526020600020905b81548152906001019060200180831161160b57829003601f168201915b505050505090506000600381111561164357611642615022565b5b60038260405161165391906155bd565b908152602001604051809103902060009054906101000a900460ff16600381111561168157611680615022565b5b036116b8576040517f8fa622f500000000000000000000000000000000000000000000000000000000815260040160405180910390fd5b600260038111156116cc576116cb615022565b5b6003826040516116dc91906155bd565b908152602001604051809103902060009054906101000a900460ff16600381111561170a57611709615022565b5b14611741576040517f8ac8e00b00000000000000000000000000000000000000000000000000000000815260040160405180910390fd5b6000600160003373ffffffffffffffffffffffffffffffffffffffff1673ffffffffffffffffffffffffffffffffffffffff168152602001908152602001600020805461178d9061555b565b80601f01602080910402602001604051908101604052809291908181526020018280546117b99061555b565b80156118065780601f106117db57610100808354040283529160200191611806565b820191906000526020600020905b8154815290600101906020018083116117e957829003601f168201915b5050505050905060006118188a6142f6565b905080600660008c73ffffffffffffffffffffffffffffffffffffffff1673ffffffffffffffffffffffffffffffffffffffff16815260200190815260200160002090816118669190615885565b5060078260405161187791906155bd565b9081526020016040518091039020819080600181540180825580915050600190039060005260206000200160009091909190915090816118b79190615885565b5060016008826040516118ca91906155bd565b908152602001604051809103902060006101000a81548160ff021916908360018111156118fa576118f9615022565b5b021790555061193f816040518060400160405280600a81526020017f436f6c6c6567652049640000000000000000000000000000000000000000000081525084614335565b6119c3816040518060400160405280600c81526020017f53747564656e74204e616d6500000000000000000000000000000000000000008152508b8b8080601f016020809104026020016040519081016040528093929190818152602001838380828437600081840152601f19601f82011690508083019250505050505050614335565b611a47816040518060400160405280600b81526020017f53747564656e742041676500000000000000000000000000000000000000000081525089898080601f016020809104026020016040519081016040528093929190818152602001838380828437600081840152601f19601f82011690508083019250505050505050614335565b611acb816040518060400160405280601281526020017f53747564656e742050657263656e74616765000000000000000000000000000081525087878080601f016020809104026020016040519081016040528093929190818152602001838380828437600081840152601f19601f82011690508083019250505050505050614335565b50505050505050505050565b6000611ae2336142f6565b905080600160003373ffffffffffffffffffffffffffffffffffffffff1673ffffffffffffffffffffffffffffffffffffffff1681526020019081526020016000209081611b309190615885565b50600281908060018154018082558091505060019003906000526020600020016000909190919091509081611b659190615885565b506001600382604051611b7891906155bd565b908152602001604051809103902060006101000a81548160ff02191690836003811115611ba857611ba7615022565b5b0217905550611c31816040518060400160405280600c81526020017f436f6c6c656765204e616d65000000000000000000000000000000000000000081525085858080601f016020809104026020016040519081016040528093929190818152602001838380828437600081840152601f19601f820116905080830192505050505050506144a5565b505050565b60606002805480602002602001604051908101604052809291908181526020016000905b82821015611d06578382906000526020600020018054611c799061555b565b80601f0160208091040260200160405190810160405280929190818152602001828054611ca59061555b565b8015611cf25780601f10611cc757610100808354040283529160200191611cf2565b820191906000526020600020905b815481529060010190602001808311611cd557829003601f168201915b505050505081526020019060010190611c5a565b50505050905090565b60008060009054906101000a900473ffffffffffffffffffffffffffffffffffffffff16905090565b6000600160003373ffffffffffffffffffffffffffffffffffffffff1673ffffffffffffffffffffffffffffffffffffffff1681526020019081526020016000208054611d849061555b565b80601f0160208091040260200160405190810160405280929190818152602001828054611db09061555b565b8015611dfd5780601f10611dd257610100808354040283529160200191611dfd565b820191906000526020600020905b815481529060010190602001808311611de057829003601f168201915b5050505050905060006003811115611e1857611e17615022565b5b600382604051611e2891906155bd565b908152602001604051809103902060009054906101000a900460ff166003811115611e5657611e55615022565b5b03611e8d576040517f8fa622f500000000000000000000000000000000000000000000000000000000815260040160405180910390fd5b60026003811115611ea157611ea0615022565b5b600382604051611eb191906155bd565b908152602001604051809103902060009054906101000a900460ff166003811115611edf57611ede615022565b5b14611f16576040517f8ac8e00b00000000000000000000000000000000000000000000000000000000815260040160405180910390fd5b868660006001811115611f2c57611f2b615022565b5b60088383604051611f3e929190615513565b908152602001604051809103902060009054906101000a900460ff166001811115611f6c57611f6b615022565b5b03611fa3576040517f078de8bf00000000000000000000000000000000000000000000000000000000815260040160405180910390fd5b6000600160003373ffffffffffffffffffffffffffffffffffffffff1673ffffffffffffffffffffffffffffffffffffffff1681526020019081526020016000208054611fef9061555b565b80601f016020809104026020016040519081016040528092919081815260200182805461201b9061555b565b80156120685780601f1061203d57610100808354040283529160200191612068565b820191906000526020600020905b81548152906001019060200180831161204b57829003601f168201915b50505050509050600060098484604051612083929190615513565b908152602001604051809103902060405161209d906156cf565b908152602001604051809103902080546120b69061555b565b80601f01602080910402602001604051908101604052809291908181526020018280546120e29061555b565b801561212f5780601f106121045761010080835404028352916020019161212f565b820191906000526020600020905b81548152906001019060200180831161211257829003601f168201915b505050505090508060405160200161214791906155bd565b604051602081830303815290604052805190602001208260405160200161216e91906155bd565b60405160208183030381529060405280519060200120146121bb576040517fca7b7fb200000000000000000000000000000000000000000000000000000000815260040160405180910390fd5b8686905089899050146121fa576040517f79b3f46f00000000000000000000000000000000000000000000000000000000815260040160405180910390fd5b60005b898990508110156123e057600088888381811061221d5761221c615957565b5b905060200281019061222f9190615995565b8080601f016020809104026020016040519081016040528093929190818152602001838380828437600081840152601f19601f82011690508083019250505050505050905060008151036122af576040517f47b4af9400000000000000000000000000000000000000000000000000000000815260040160405180910390fd5b6123cc8d8d8080601f016020809104026020016040519081016040528093929190818152602001838380828437600081840152601f19601f820116905080830192505050505050508c8c8581811061230a57612309615957565b5b905060200281019061231c9190615995565b8080601f016020809104026020016040519081016040528093929190818152602001838380828437600081840152601f19601f820116905080830192505050505050508b8b8681811061237257612371615957565b5b90506020028101906123849190615995565b8080601f016020809104026020016040519081016040528093929190818152602001838380828437600081840152601f19601f82011690508083019250505050505050614335565b5080806123d890615a27565b9150506121fd565b505050505050505050505050565b6000600160003373ffffffffffffffffffffffffffffffffffffffff1673ffffffffffffffffffffffffffffffffffffffff168152602001908152602001600020805461243a9061555b565b80601f01602080910402602001604051908101604052809291908181526020018280546124669061555b565b80156124b35780601f10612488576101008083540402835291602001916124b3565b820191906000526020600020905b81548152906001019060200180831161249657829003601f168201915b50505050509050600060038111156124ce576124cd615022565b5b6003826040516124de91906155bd565b908152602001604051809103902060009054906101000a900460ff16600381111561250c5761250b615022565b5b03612543576040517f8fa622f500000000000000000000000000000000000000000000000000000000815260040160405180910390fd5b6002600381111561255757612556615022565b5b60038260405161256791906155bd565b908152602001604051809103902060009054906101000a900460ff16600381111561259557612594615022565b5b146125cc576040517f8ac8e00b00000000000000000000000000000000000000000000000000000000815260040160405180910390fd5b600083838080601f016020809104026020016040519081016040528093929190818152602001838380828437600081840152601f19601f8201169050808301925050505050505090506000815103612650576040517f47b4af9400000000000000000000000000000000000000000000000000000000815260040160405180910390fd5b6000600160003373ffffffffffffffffffffffffffffffffffffffff1673ffffffffffffffffffffffffffffffffffffffff168152602001908152602001600020805461269c9061555b565b80601f01602080910402602001604051908101604052809291908181526020018280546126c89061555b565b80156127155780601f106126ea57610100808354040283529160200191612715565b820191906000526020600020905b8154815290600101906020018083116126f857829003601f168201915b505050505090506127af8188888080601f016020809104026020016040519081016040528093929190818152602001838380828437600081840152601f19601f8201169050808301925050505050505087878080601f016020809104026020016040519081016040528093929190818152602001838380828437600081840152601f19601f820116905080830192505050505050506144a5565b50505050505050565b6060600485856040516127cc929190615513565b908152602001604051809103902083836040516127ea929190615513565b908152602001604051809103902080546128039061555b565b80601f016020809104026020016040519081016040528092919081815260200182805461282f9061555b565b801561287c5780601f106128515761010080835404028352916020019161287c565b820191906000526020600020905b81548152906001019060200180831161285f57829003601f168201915b50505050509050949350505050565b6000600660003373ffffffffffffffffffffffffffffffffffffffff1673ffffffffffffffffffffffffffffffffffffffff16815260200190815260200160002080546128d79061555b565b80601f01602080910402602001604051908101604052809291908181526020018280546129039061555b565b80156129505780601f1061292557610100808354040283529160200191612950565b820191906000526020600020905b81548152906001019060200180831161293357829003601f168201915b505050505090506000600181111561296b5761296a615022565b5b60088260405161297b91906155bd565b908152602001604051809103902060009054906101000a900460ff1660018111156129a9576129a8615022565b5b036129e0576040517f078de8bf00000000000000000000000000000000000000000000000000000000815260040160405180910390fd5b828290508585905014612a1f576040517f79b3f46f00000000000000000000000000000000000000000000000000000000815260040160405180910390fd5b6000600660003373ffffffffffffffffffffffffffffffffffffffff1673ffffffffffffffffffffffffffffffffffffffff1681526020019081526020016000208054612a6b9061555b565b80601f0160208091040260200160405190810160405280929190818152602001828054612a979061555b565b8015612ae45780601f10612ab957610100808354040283529160200191612ae4565b820191906000526020600020905b815481529060010190602001808311612ac757829003601f168201915b5050505050905060005b86869050811015612c7157600b82604051612b0991906155bd565b9081526020016040518091039020878783818110612b2a57612b29615957565b5b9050602002810190612b3c9190615995565b604051612b4a929190615513565b908152602001604051809103902060009054906101000a900460ff16612b9c576040517f722f899200000000000000000000000000000000000000000000000000000000815260040160405180910390fd5b612bcc82888884818110612bb357612bb2615957565b5b9050602002810190612bc59190615995565b6001614615565b848482818110612bdf57612bde615957565b5b9050602002810190612bf19190615995565b600d84604051612c0191906155bd565b9081526020016040518091039020898985818110612c2257612c21615957565b5b9050602002810190612c349190615995565b604051612c42929190615513565b90815260200160405180910390209182612c5d929190615a7a565b508080612c6990615a27565b915050612aee565b50505050505050565b6000600160003373ffffffffffffffffffffffffffffffffffffffff1673ffffffffffffffffffffffffffffffffffffffff1681526020019081526020016000208054612cc69061555b565b80601f0160208091040260200160405190810160405280929190818152602001828054612cf29061555b565b8015612d3f5780601f10612d1457610100808354040283529160200191612d3f565b820191906000526020600020905b815481529060010190602001808311612d2257829003601f168201915b5050505050905060006003811115612d5a57612d59615022565b5b600382604051612d6a91906155bd565b908152602001604051809103902060009054906101000a900460ff166003811115612d9857612d97615022565b5b03612dcf576040517f8fa622f500000000000000000000000000000000000000000000000000000000815260040160405180910390fd5b60026003811115612de357612de2615022565b5b600382604051612df391906155bd565b908152602001604051809103902060009054906101000a900460ff166003811115612e2157612e20615022565b5b14612e58576040517f8ac8e00b00000000000000000000000000000000000000000000000000000000815260040160405180910390fd5b848460006001811115612e6e57612e6d615022565b5b60088383604051612e80929190615513565b908152602001604051809103902060009054906101000a900460ff166001811115612eae57612ead615022565b5b03612ee5576040517f078de8bf00000000000000000000000000000000000000000000000000000000815260040160405180910390fd5b6000600160003373ffffffffffffffffffffffffffffffffffffffff1673ffffffffffffffffffffffffffffffffffffffff1681526020019081526020016000208054612f319061555b565b80601f0160208091040260200160405190810160405280929190818152602001828054612f5d9061555b565b8015612faa5780601f10612f7f57610100808354040283529160200191612faa565b820191906000526020600020905b815481529060010190602001808311612f8d57829003601f168201915b50505050509050600060098484604051612fc5929190615513565b9081526020016040518091039020604051612fdf906156cf565b90815260200160405180910390208054612ff89061555b565b80601f01602080910402602001604051908101604052809291908181526020018280546130249061555b565b80156130715780601f1061304657610100808354040283529160200191613071565b820191906000526020600020905b81548152906001019060200180831161305457829003601f168201915b505050505090508060405160200161308991906155bd565b60405160208183030381529060405280519060200120826040516020016130b091906155bd565b60405160208183030381529060405280519060200120146130fd576040517fca7b7fb200000000000000000000000000000000000000000000000000000000815260040160405180910390fd5b61314e89898080601f016020809104026020016040519081016040528093929190818152602001838380828437600081840152601f19601f8201169050808301925050505050505088886000614615565b6132a789898080601f016020809104026020016040519081016040528093929190818152602001838380828437600081840152601f19601f8201169050808301925050505050505088888080601f016020809104026020016040519081016040528093929190818152602001838380828437600081840152601f19601f82011690508083019250505050505050600d8c8c6040516131ed929190615513565b90815260200160405180910390208a8a60405161320b929190615513565b908152602001604051809103902080546132249061555b565b80601f01602080910402602001604051908101604052809291908181526020018280546132509061555b565b801561329d5780601f106132725761010080835404028352916020019161329d565b820191906000526020600020905b81548152906001019060200180831161328057829003601f168201915b5050505050614335565b505050505050505050565b6000600383836040516132c6929190615513565b908152602001604051809103902060009054906101000a900460ff16905092915050565b60008054906101000a900473ffffffffffffffffffffffffffffffffffffffff1673ffffffffffffffffffffffffffffffffffffffff163373ffffffffffffffffffffffffffffffffffffffff161461336f576040517f2dca963600000000000000000000000000000000000000000000000000000000815260040160405180910390fd5b6000600381111561338357613382615022565b5b60038383604051613395929190615513565b908152602001604051809103902060009054906101000a900460ff1660038111156133c3576133c2615022565b5b036133fa576040517f567e9be600000000000000000000000000000000000000000000000000000000815260040160405180910390fd5b6002600381111561340e5761340d615022565b5b60038383604051613420929190615513565b908152602001604051809103902060009054906101000a900460ff16600381111561344e5761344d615022565b5b03613485576040517f61fd49df00000000000000000000000000000000000000000000000000000000815260040160405180910390fd5b600260038383604051613499929190615513565b908152602001604051809103902060006101000a81548160ff021916908360038111156134c9576134c8615022565b5b02179055505050565b600080600160003373ffffffffffffffffffffffffffffffffffffffff1673ffffffffffffffffffffffffffffffffffffffff168152602001908152602001600020805461351f9061555b565b80601f016020809104026020016040519081016040528092919081815260200182805461354b9061555b565b80156135985780601f1061356d57610100808354040283529160200191613598565b820191906000526020600020905b81548152906001019060200180831161357b57829003601f168201915b50505050509050600060038111156135b3576135b2615022565b5b6003826040516135c391906155bd565b908152602001604051809103902060009054906101000a900460ff1660038111156135f1576135f0615022565b5b03613628576040517f8fa622f500000000000000000000000000000000000000000000000000000000815260040160405180910390fd5b6002600381111561363c5761363b615022565b5b60038260405161364c91906155bd565b908152602001604051809103902060009054906101000a900460ff16600381111561367a57613679615022565b5b146136b1576040517f8ac8e00b00000000000000000000000000000000000000000000000000000000815260040160405180910390fd5b8585600060018111156136c7576136c6615022565b5b600883836040516136d9929190615513565b908152602001604051809103902060009054906101000a900460ff16600181111561370757613706615022565b5b0361373e576040517f078de8bf00000000000000000000000000000000000000000000000000000000815260040160405180910390fd5b6000600160003373ffffffffffffffffffffffffffffffffffffffff1673ffffffffffffffffffffffffffffffffffffffff168152602001908152602001600020805461378a9061555b565b80601f01602080910402602001604051908101604052809291908181526020018280546137b69061555b565b80156138035780601f106137d857610100808354040283529160200191613803565b820191906000526020600020905b8154815290600101906020018083116137e657829003601f168201915b5050505050905060006009848460405161381e929190615513565b9081526020016040518091039020604051613838906156cf565b908152602001604051809103902080546138519061555b565b80601f016020809104026020016040519081016040528092919081815260200182805461387d9061555b565b80156138ca5780601f1061389f576101008083540402835291602001916138ca565b820191906000526020600020905b8154815290600101906020018083116138ad57829003601f168201915b50505050509050806040516020016138e291906155bd565b604051602081830303815290604052805190602001208260405160200161390991906155bd565b6040516020818303038152906040528051906020012014613956576040517fca7b7fb200000000000000000000000000000000000000000000000000000000815260040160405180910390fd5b600c8a8a604051613968929190615513565b90815260200160405180910390208888604051613986929190615513565b908152602001604051809103902060009054906101000a900460ff1695505050505050949350505050565b6000600660003373ffffffffffffffffffffffffffffffffffffffff1673ffffffffffffffffffffffffffffffffffffffff16815260200190815260200160002080546139fd9061555b565b80601f0160208091040260200160405190810160405280929190818152602001828054613a299061555b565b8015613a765780601f10613a4b57610100808354040283529160200191613a76565b820191906000526020600020905b815481529060010190602001808311613a5957829003601f168201915b5050505050905060006001811115613a9157613a90615022565b5b600882604051613aa191906155bd565b908152602001604051809103902060009054906101000a900460ff166001811115613acf57613ace615022565b5b03613b06576040517f078de8bf00000000000000000000000000000000000000000000000000000000815260040160405180910390fd5b828290508585905014613b45576040517f79b3f46f00000000000000000000000000000000000000000000000000000000815260040160405180910390fd5b6000600660003373ffffffffffffffffffffffffffffffffffffffff1673ffffffffffffffffffffffffffffffffffffffff1681526020019081526020016000208054613b919061555b565b80601f0160208091040260200160405190810160405280929190818152602001828054613bbd9061555b565b8015613c0a5780601f10613bdf57610100808354040283529160200191613c0a565b820191906000526020600020905b815481529060010190602001808311613bed57829003601f168201915b5050505050905060005b86869050811015613d0d57848482818110613c3257613c31615957565b5b9050602002016020810190613c479190615b4a565b600e60008a73ffffffffffffffffffffffffffffffffffffffff1673ffffffffffffffffffffffffffffffffffffffff16815260200190815260200160002083604051613c9491906155bd565b9081526020016040518091039020888884818110613cb557613cb4615957565b5b9050602002810190613cc79190615995565b604051613cd5929190615513565b908152602001604051809103902060006101000a81548160ff0219169083151502179055508080613d0590615a27565b915050613c14565b5050505050505050565b6060600a8383604051613d2b929190615513565b9081526020016040518091039020805480602002602001604051908101604052809291908181526020016000905b82821015613e05578382906000526020600020018054613d789061555b565b80601f0160208091040260200160405190810160405280929190818152602001828054613da49061555b565b8015613df15780601f10613dc657610100808354040283529160200191613df1565b820191906000526020600020905b815481529060010190602001808311613dd457829003601f168201915b505050505081526020019060010190613d59565b50505050905092915050565b6000600160003373ffffffffffffffffffffffffffffffffffffffff1673ffffffffffffffffffffffffffffffffffffffff1681526020019081526020016000208054613e5d9061555b565b80601f0160208091040260200160405190810160405280929190818152602001828054613e899061555b565b8015613ed65780601f10613eab57610100808354040283529160200191613ed6565b820191906000526020600020905b815481529060010190602001808311613eb957829003601f168201915b5050505050905060006003811115613ef157613ef0615022565b5b600382604051613f0191906155bd565b908152602001604051809103902060009054906101000a900460ff166003811115613f2f57613f2e615022565b5b03613f66576040517f8fa622f500000000000000000000000000000000000000000000000000000000815260040160405180910390fd5b60026003811115613f7a57613f79615022565b5b600382604051613f8a91906155bd565b908152602001604051809103902060009054906101000a900460ff166003811115613fb857613fb7615022565b5b14613fef576040517f8ac8e00b00000000000000000000000000000000000000000000000000000000815260040160405180910390fd5b85856000600181111561400557614004615022565b5b60088383604051614017929190615513565b908152602001604051809103902060009054906101000a900460ff16600181111561404557614044615022565b5b0361407c576040517f078de8bf00000000000000000000000000000000000000000000000000000000815260040160405180910390fd5b6000600160003373ffffffffffffffffffffffffffffffffffffffff1673ffffffffffffffffffffffffffffffffffffffff16815260200190815260200160002080546140c89061555b565b80601f01602080910402602001604051908101604052809291908181526020018280546140f49061555b565b80156141415780601f1061411657610100808354040283529160200191614141565b820191906000526020600020905b81548152906001019060200180831161412457829003601f168201915b5050505050905060006009848460405161415c929190615513565b9081526020016040518091039020604051614176906156cf565b9081526020016040518091039020805461418f9061555b565b80601f01602080910402602001604051908101604052809291908181526020018280546141bb9061555b565b80156142085780601f106141dd57610100808354040283529160200191614208565b820191906000526020600020905b8154815290600101906020018083116141eb57829003601f168201915b505050505090508060405160200161422091906155bd565b604051602081830303815290604052805190602001208260405160200161424791906155bd565b6040516020818303038152906040528051906020012014614294576040517fca7b7fb200000000000000000000000000000000000000000000000000000000815260040160405180910390fd5b85600b8b8b6040516142a7929190615513565b908152602001604051809103902089896040516142c5929190615513565b908152602001604051809103902060006101000a81548160ff02191690831515021790555050505050505050505050565b606061432e82424460405160200161431093929190615be0565b6040516020818303038152906040528051906020012060001c61467f565b9050919050565b600060098460405161434791906155bd565b90815260200160405180910390208360405161436391906155bd565b9081526020016040518091039020805461437c9061555b565b80601f01602080910402602001604051908101604052809291908181526020018280546143a89061555b565b80156143f55780601f106143ca576101008083540402835291602001916143f5565b820191906000526020600020905b8154815290600101906020018083116143d857829003601f168201915b50505050509050600081510361445757600a8460405161441591906155bd565b9081526020016040518091039020839080600181540180825580915050600190039060005260206000200160009091909190915090816144559190615885565b505b8160098560405161446891906155bd565b90815260200160405180910390208460405161448491906155bd565b9081526020016040518091039020908161449e9190615885565b5050505050565b60006004846040516144b791906155bd565b9081526020016040518091039020836040516144d391906155bd565b908152602001604051809103902080546144ec9061555b565b80601f01602080910402602001604051908101604052809291908181526020018280546145189061555b565b80156145655780601f1061453a57610100808354040283529160200191614565565b820191906000526020600020905b81548152906001019060200180831161454857829003601f168201915b5050505050905060008151036145c75760058460405161458591906155bd565b9081526020016040518091039020839080600181540180825580915050600190039060005260206000200160009091909190915090816145c59190615885565b505b816004856040516145d891906155bd565b9081526020016040518091039020846040516145f491906155bd565b9081526020016040518091039020908161460e9190615885565b5050505050565b80600c8560405161462691906155bd565b90815260200160405180910390208484604051614644929190615513565b908152602001604051809103902060006101000a81548160ff0219169083600281111561467457614673615022565b5b021790555050505050565b60606146968260016146908561469d565b0161472d565b9050919050565b600080600090506000608084901c11156146bf57608083901c92506010810190505b6000604084901c11156146da57604083901c92506008810190505b6000602084901c11156146f557602083901c92506004810190505b6000601084901c111561471057601083901c92506002810190505b6000600884901c1115614724576001810190505b80915050919050565b6060600060028360026147409190615c1d565b61474a9190615c5f565b67ffffffffffffffff81111561476357614762614c84565b5b6040519080825280601f01601f1916602001820160405280156147955781602001600182028036833780820191505090505b5090507f3000000000000000000000000000000000000000000000000000000000000000816000815181106147cd576147cc615957565b5b60200101907effffffffffffffffffffffffffffffffffffffffffffffffffffffffffffff1916908160001a9053507f78000000000000000000000000000000000000000000000000000000000000008160018151811061483157614830615957565b5b60200101907effffffffffffffffffffffffffffffffffffffffffffffffffffffffffffff1916908160001a905350600060018460026148719190615c1d565b61487b9190615c5f565b90505b600181111561491b577f3031323334353637383961626364656600000000000000000000000000000000600f8616601081106148bd576148bc615957565b5b1a60f81b8282815181106148d4576148d3615957565b5b60200101907effffffffffffffffffffffffffffffffffffffffffffffffffffffffffffff1916908160001a905350600485901c94508061491490615c93565b905061487e565b506000841461495f576040517f08c379a000000000000000000000000000000000000000000000000000000000815260040161495690615d08565b60405180910390fd5b8091505092915050565b6000604051905090565b600080fd5b600080fd5b600073ffffffffffffffffffffffffffffffffffffffff82169050919050565b60006149a88261497d565b9050919050565b6149b88161499d565b81146149c357600080fd5b50565b6000813590506149d5816149af565b92915050565b600080fd5b600080fd5b600080fd5b60008083601f840112614a00576149ff6149db565b5b8235905067ffffffffffffffff811115614a1d57614a1c6149e0565b5b602083019150836001820283011115614a3957614a386149e5565b5b9250929050565b600080600080600060608688031215614a5c57614a5b614973565b5b6000614a6a888289016149c6565b955050602086013567ffffffffffffffff811115614a8b57614a8a614978565b5b614a97888289016149ea565b9450945050604086013567ffffffffffffffff811115614aba57614ab9614978565b5b614ac6888289016149ea565b92509250509295509295909350565b60008115159050919050565b614aea81614ad5565b82525050565b6000602082019050614b056000830184614ae1565b92915050565b600081519050919050565b600082825260208201905092915050565b6000819050602082019050919050565b600081519050919050565b600082825260208201905092915050565b60005b83811015614b71578082015181840152602081019050614b56565b60008484015250505050565b6000601f19601f8301169050919050565b6000614b9982614b37565b614ba38185614b42565b9350614bb3818560208601614b53565b614bbc81614b7d565b840191505092915050565b6000614bd38383614b8e565b905092915050565b6000602082019050919050565b6000614bf382614b0b565b614bfd8185614b16565b935083602082028501614c0f85614b27565b8060005b85811015614c4b5784840389528151614c2c8582614bc7565b9450614c3783614bdb565b925060208a01995050600181019050614c13565b50829750879550505050505092915050565b60006020820190508181036000830152614c778184614be8565b905092915050565b600080fd5b7f4e487b7100000000000000000000000000000000000000000000000000000000600052604160045260246000fd5b614cbc82614b7d565b810181811067ffffffffffffffff82111715614cdb57614cda614c84565b5b80604052505050565b6000614cee614969565b9050614cfa8282614cb3565b919050565b600067ffffffffffffffff821115614d1a57614d19614c84565b5b614d2382614b7d565b9050602081019050919050565b82818337600083830152505050565b6000614d52614d4d84614cff565b614ce4565b905082815260208101848484011115614d6e57614d6d614c7f565b5b614d79848285614d30565b509392505050565b600082601f830112614d9657614d956149db565b5b8135614da6848260208601614d3f565b91505092915050565b60008060408385031215614dc657614dc5614973565b5b600083013567ffffffffffffffff811115614de457614de3614978565b5b614df085828601614d81565b925050602083013567ffffffffffffffff811115614e1157614e10614978565b5b614e1d85828601614d81565b9150509250929050565b60008060208385031215614e3e57614e3d614973565b5b600083013567ffffffffffffffff811115614e5c57614e5b614978565b5b614e68858286016149ea565b92509250509250929050565b614e7d81614ad5565b8114614e8857600080fd5b50565b600081359050614e9a81614e74565b92915050565b600080600080600060608688031215614ebc57614ebb614973565b5b600086013567ffffffffffffffff811115614eda57614ed9614978565b5b614ee6888289016149ea565b9550955050602086013567ffffffffffffffff811115614f0957614f08614978565b5b614f15888289016149ea565b93509350506040614f2888828901614e8b565b9150509295509295909350565b600082825260208201905092915050565b6000614f5182614b37565b614f5b8185614f35565b9350614f6b818560208601614b53565b614f7481614b7d565b840191505092915050565b60006020820190508181036000830152614f998184614f46565b905092915050565b60008060008060408587031215614fbb57614fba614973565b5b600085013567ffffffffffffffff811115614fd957614fd8614978565b5b614fe5878288016149ea565b9450945050602085013567ffffffffffffffff81111561500857615007614978565b5b615014878288016149ea565b925092505092959194509250565b7f4e487b7100000000000000000000000000000000000000000000000000000000600052602160045260246000fd5b6002811061506257615061615022565b5b50565b600081905061507382615051565b919050565b600061508382615065565b9050919050565b61509381615078565b82525050565b60006020820190506150ae600083018461508a565b92915050565b60008060008060008060006080888a0312156150d3576150d2614973565b5b60006150e18a828b016149c6565b975050602088013567ffffffffffffffff81111561510257615101614978565b5b61510e8a828b016149ea565b9650965050604088013567ffffffffffffffff81111561513157615130614978565b5b61513d8a828b016149ea565b9450945050606088013567ffffffffffffffff8111156151605761515f614978565b5b61516c8a828b016149ea565b925092505092959891949750929550565b6151868161499d565b82525050565b60006020820190506151a1600083018461517d565b92915050565b60008083601f8401126151bd576151bc6149db565b5b8235905067ffffffffffffffff8111156151da576151d96149e0565b5b6020830191508360208202830111156151f6576151f56149e5565b5b9250929050565b6000806000806000806060878903121561521a57615219614973565b5b600087013567ffffffffffffffff81111561523857615237614978565b5b61524489828a016149ea565b9650965050602087013567ffffffffffffffff81111561526757615266614978565b5b61527389828a016151a7565b9450945050604087013567ffffffffffffffff81111561529657615295614978565b5b6152a289828a016151a7565b92509250509295509295509295565b600080600080604085870312156152cb576152ca614973565b5b600085013567ffffffffffffffff8111156152e9576152e8614978565b5b6152f5878288016151a7565b9450945050602085013567ffffffffffffffff81111561531857615317614978565b5b615324878288016151a7565b925092505092959194509250565b6004811061534357615342615022565b5b50565b600081905061535482615332565b919050565b600061536482615346565b9050919050565b61537481615359565b82525050565b600060208201905061538f600083018461536b565b92915050565b600381106153a6576153a5615022565b5b50565b60008190506153b782615395565b919050565b60006153c7826153a9565b9050919050565b6153d7816153bc565b82525050565b60006020820190506153f260008301846153ce565b92915050565b60008083601f84011261540e5761540d6149db565b5b8235905067ffffffffffffffff81111561542b5761542a6149e0565b5b602083019150836020820283011115615447576154466149e5565b5b9250929050565b60008060008060006060868803121561546a57615469614973565b5b6000615478888289016149c6565b955050602086013567ffffffffffffffff81111561549957615498614978565b5b6154a5888289016151a7565b9450945050604086013567ffffffffffffffff8111156154c8576154c7614978565b5b6154d4888289016153f8565b92509250509295509295909350565b600081905092915050565b60006154fa83856154e3565b9350615507838584614d30565b82840190509392505050565b60006155208284866154ee565b91508190509392505050565b7f4e487b7100000000000000000000000000000000000000000000000000000000600052602260045260246000fd5b6000600282049050600182168061557357607f821691505b6020821081036155865761558561552c565b5b50919050565b600061559782614b37565b6155a181856154e3565b93506155b1818560208601614b53565b80840191505092915050565b60006155c9828461558c565b915081905092915050565b60008190508160005260206000209050919050565b600081546155f68161555b565b61560081866154e3565b9450600182166000811461561b576001811461563057615663565b60ff1983168652811515820286019350615663565b615639856155d4565b60005b8381101561565b5781548189015260018201915060208101905061563c565b838801955050505b50505092915050565b600061567882846155e9565b915081905092915050565b7f436f6c6c65676520496400000000000000000000000000000000000000000000600082015250565b60006156b9600a836154e3565b91506156c482615683565b600a82019050919050565b60006156da826156ac565b9150819050919050565b60006020601f8301049050919050565b600082821b905092915050565b6000600883026157317fffffffffffffffffffffffffffffffffffffffffffffffffffffffffffffffff826156f4565b61573b86836156f4565b95508019841693508086168417925050509392505050565b6000819050919050565b6000819050919050565b600061578261577d61577884615753565b61575d565b615753565b9050919050565b6000819050919050565b61579c83615767565b6157b06157a882615789565b848454615701565b825550505050565b600090565b6157c56157b8565b6157d0818484615793565b505050565b5b818110156157f4576157e96000826157bd565b6001810190506157d6565b5050565b601f8211156158395761580a816155d4565b615813846156e4565b81016020851015615822578190505b61583661582e856156e4565b8301826157d5565b50505b505050565b600082821c905092915050565b600061585c6000198460080261583e565b1980831691505092915050565b6000615875838361584b565b9150826002028217905092915050565b61588e82614b37565b67ffffffffffffffff8111156158a7576158a6614c84565b5b6158b1825461555b565b6158bc8282856157f8565b600060209050601f8311600181146158ef57600084156158dd578287015190505b6158e78582615869565b86555061594f565b601f1984166158fd866155d4565b60005b8281101561592557848901518255600182019150602085019450602081019050615900565b86831015615942578489015161593e601f89168261584b565b8355505b6001600288020188555050505b505050505050565b7f4e487b7100000000000000000000000000000000000000000000000000000000600052603260045260246000fd5b600080fd5b600080fd5b600080fd5b600080833560016020038436030381126159b2576159b1615986565b5b80840192508235915067ffffffffffffffff8211156159d4576159d361598b565b5b6020830192506001820236038313156159f0576159ef615990565b5b509250929050565b7f4e487b7100000000000000000000000000000000000000000000000000000000600052601160045260246000fd5b6000615a3282615753565b91507fffffffffffffffffffffffffffffffffffffffffffffffffffffffffffffffff8203615a6457615a636159f8565b5b600182019050919050565b600082905092915050565b615a848383615a6f565b67ffffffffffffffff811115615a9d57615a9c614c84565b5b615aa7825461555b565b615ab28282856157f8565b6000601f831160018114615ae15760008415615acf578287013590505b615ad98582615869565b865550615b41565b601f198416615aef866155d4565b60005b82811015615b1757848901358255600182019150602085019450602081019050615af2565b86831015615b345784890135615b30601f89168261584b565b8355505b6001600288020188555050505b50505050505050565b600060208284031215615b6057615b5f614973565b5b6000615b6e84828501614e8b565b91505092915050565b60008160601b9050919050565b6000615b8f82615b77565b9050919050565b6000615ba182615b84565b9050919050565b615bb9615bb48261499d565b615b96565b82525050565b6000819050919050565b615bda615bd582615753565b615bbf565b82525050565b6000615bec8286615ba8565b601482019150615bfc8285615bc9565b602082019150615c0c8284615bc9565b602082019150819050949350505050565b6000615c2882615753565b9150615c3383615753565b9250828202615c4181615753565b91508282048414831517615c5857615c576159f8565b5b5092915050565b6000615c6a82615753565b9150615c7583615753565b9250828201905080821115615c8d57615c8c6159f8565b5b92915050565b6000615c9e82615753565b915060008203615cb157615cb06159f8565b5b600182039050919050565b7f537472696e67733a20686578206c656e67746820696e73756666696369656e74600082015250565b6000615cf2602083614f35565b9150615cfd82615cbc565b602082019050919050565b60006020820190508181036000830152615d2181615ce5565b905091905056fea2646970667358221220eb88c65bb67d8a9b2966ec3f1174b09f3447cce079290aff43257fb33ecf716764736f6c63430008110033",
  "linkReferences": {},
  "deployedLinkReferences": {}
}