{
  "_format": "hh-sol-artifact-1",
  "contractName": "Ducid",
  "sourceName": "contracts/Ducid.sol",
  "abi": [
    {
      "inputs": [],
      "stateMutability": "nonpayable",
      "type": "constructor"
    },
    {
      "inputs": [],
      "name": "AccessOnlyToACollege",
      "type": "error"
    },
    {
      "inputs": [],
      "name": "AccessOnlyToOwner",
      "type": "error"
    },
    {
      "inputs": [],
      "name": "AccessOnlyToVerifiedCollege",
      "type": "error"
    },
    {
      "inputs": [],
      "name": "CollegeAlreadyVerified",
      "type": "error"
    },
    {
      "inputs": [],
      "name": "CollegeAlreadyrejected",
      "type": "error"
    },
    {
      "inputs": [],
      "name": "CollegeNotFound",
      "type": "error"
    },
    {
      "inputs": [],
      "name": "DataMissMatching",
      "type": "error"
    },
    {
      "inputs": [],
      "name": "EmptyDataNotAllowed",
      "type": "error"
    },
    {
      "inputs": [],
      "name": "NoAccessToEditData",
      "type": "error"
    },
    {
      "inputs": [],
      "name": "StudentNotFound",
      "type": "error"
    },
    {
      "inputs": [],
      "name": "studentIsOfAnotherCollege",
      "type": "error"
    },
    {
      "inputs": [
        {
          "internalType": "string",
          "name": "collegeName",
          "type": "string"
        }
      ],
      "name": "addAsCollege",
      "outputs": [],
      "stateMutability": "nonpayable",
      "type": "function"
    },
    {
      "inputs": [
        {
          "internalType": "address",
          "name": "studentAddress",
          "type": "address"
        },
        {
          "internalType": "string",
          "name": "studentName",
          "type": "string"
        },
        {
          "internalType": "string",
          "name": "studentAge",
          "type": "string"
        },
        {
          "internalType": "string",
          "name": "studentPercentage",
          "type": "string"
        }
      ],
      "name": "addNewStudent",
      "outputs": [],
      "stateMutability": "nonpayable",
      "type": "function"
    },
    {
      "inputs": [
        {
          "internalType": "string",
          "name": "collegeId",
          "type": "string"
        }
      ],
      "name": "approveCollege",
      "outputs": [],
      "stateMutability": "nonpayable",
      "type": "function"
    },
    {
      "inputs": [
        {
          "internalType": "address",
          "name": "thirdParty",
          "type": "address"
        },
        {
          "internalType": "string",
          "name": "studentId",
          "type": "string"
        },
        {
          "internalType": "string",
          "name": "dataType",
          "type": "string"
        }
      ],
      "name": "checkAccessToThirdParty",
      "outputs": [
        {
          "internalType": "bool",
          "name": "",
          "type": "bool"
        }
      ],
      "stateMutability": "view",
      "type": "function"
    },
    {
      "inputs": [
        {
          "internalType": "string",
          "name": "dataType",
          "type": "string"
        },
        {
          "internalType": "string",
          "name": "data",
          "type": "string"
        }
      ],
      "name": "editOwnCollegeData",
      "outputs": [],
      "stateMutability": "nonpayable",
      "type": "function"
    },
    {
      "inputs": [
        {
          "internalType": "string",
          "name": "studentId",
          "type": "string"
        },
        {
          "internalType": "string",
          "name": "dataType",
          "type": "string"
        },
        {
          "internalType": "bool",
          "name": "access",
          "type": "bool"
        }
      ],
      "name": "editStudentDataAccessPermission",
      "outputs": [],
      "stateMutability": "nonpayable",
      "type": "function"
    },
    {
      "inputs": [
        {
          "internalType": "string",
          "name": "studentId",
          "type": "string"
        },
        {
          "internalType": "string[]",
          "name": "dataTypes",
          "type": "string[]"
        },
        {
          "internalType": "string[]",
          "name": "data",
          "type": "string[]"
        }
      ],
      "name": "editStudentDataAsCollege",
      "outputs": [],
      "stateMutability": "nonpayable",
      "type": "function"
    },
    {
      "inputs": [
        {
          "internalType": "string[]",
          "name": "dataTypes",
          "type": "string[]"
        },
        {
          "internalType": "string[]",
          "name": "data",
          "type": "string[]"
        }
      ],
      "name": "editStudentDataAsStudent",
      "outputs": [],
      "stateMutability": "nonpayable",
      "type": "function"
    },
    {
      "inputs": [],
      "name": "getAllCollegeIds",
      "outputs": [
        {
          "internalType": "string[]",
          "name": "",
          "type": "string[]"
        }
      ],
      "stateMutability": "view",
      "type": "function"
    },
    {
      "inputs": [
        {
          "internalType": "string",
          "name": "collegeId",
          "type": "string"
        },
        {
          "internalType": "string",
          "name": "dataType",
          "type": "string"
        }
      ],
      "name": "getCollegeData",
      "outputs": [
        {
          "internalType": "string",
          "name": "",
          "type": "string"
        }
      ],
      "stateMutability": "view",
      "type": "function"
    },
    {
      "inputs": [
        {
          "internalType": "string",
          "name": "collegeId",
          "type": "string"
        }
      ],
      "name": "getCollegeStatus",
      "outputs": [
        {
          "internalType": "enum Ducid.CollegeStatus",
          "name": "",
          "type": "uint8"
        }
      ],
      "stateMutability": "view",
      "type": "function"
    },
    {
      "inputs": [],
      "name": "getCollegeStudentIds",
      "outputs": [
        {
          "internalType": "string[]",
          "name": "",
          "type": "string[]"
        }
      ],
      "stateMutability": "view",
      "type": "function"
    },
    {
      "inputs": [],
      "name": "getOwnCollegeId",
      "outputs": [
        {
          "internalType": "string",
          "name": "",
          "type": "string"
        }
      ],
      "stateMutability": "view",
      "type": "function"
    },
    {
      "inputs": [],
      "name": "getOwnStudentId",
      "outputs": [
        {
          "internalType": "string",
          "name": "",
          "type": "string"
        }
      ],
      "stateMutability": "view",
      "type": "function"
    },
    {
      "inputs": [],
      "name": "getOwner",
      "outputs": [
        {
          "internalType": "address",
          "name": "",
          "type": "address"
        }
      ],
      "stateMutability": "view",
      "type": "function"
    },
    {
      "inputs": [
        {
          "internalType": "string",
          "name": "studentId",
          "type": "string"
        },
        {
          "internalType": "string",
          "name": "dataType",
          "type": "string"
        }
      ],
      "name": "getStudentData",
      "outputs": [
        {
          "internalType": "string",
          "name": "",
          "type": "string"
        }
      ],
      "stateMutability": "view",
      "type": "function"
    },
    {
      "inputs": [
        {
          "internalType": "string",
          "name": "studentId",
          "type": "string"
        },
        {
          "internalType": "string",
          "name": "dataType",
          "type": "string"
        },
        {
          "internalType": "bool",
          "name": "TypeOfData",
          "type": "bool"
        }
      ],
      "name": "getStudentDataAsCollege",
      "outputs": [
        {
          "internalType": "string",
          "name": "data",
          "type": "string"
        }
      ],
      "stateMutability": "view",
      "type": "function"
    },
    {
      "inputs": [
        {
          "internalType": "string",
          "name": "studentId",
          "type": "string"
        },
        {
          "internalType": "string",
          "name": "dataType",
          "type": "string"
        }
      ],
      "name": "getStudentDataStatus",
      "outputs": [
        {
          "internalType": "enum Ducid.StudentDataStatus",
          "name": "",
          "type": "uint8"
        }
      ],
      "stateMutability": "view",
      "type": "function"
    },
    {
      "inputs": [
        {
          "internalType": "string",
          "name": "studentId",
          "type": "string"
        }
      ],
      "name": "getStudentDataTypes",
      "outputs": [
        {
          "internalType": "string[]",
          "name": "",
          "type": "string[]"
        }
      ],
      "stateMutability": "view",
      "type": "function"
    },
    {
      "inputs": [
        {
          "internalType": "string",
          "name": "studentId",
          "type": "string"
        },
        {
          "internalType": "string",
          "name": "dataType",
          "type": "string"
        }
      ],
      "name": "getStudentEditAccess",
      "outputs": [
        {
          "internalType": "bool",
          "name": "",
          "type": "bool"
        }
      ],
      "stateMutability": "view",
      "type": "function"
    },
    {
      "inputs": [
        {
          "internalType": "string",
          "name": "studentId",
          "type": "string"
        }
      ],
      "name": "getStudentStatus",
      "outputs": [
        {
          "internalType": "enum Ducid.StudentStatus",
          "name": "",
          "type": "uint8"
        }
      ],
      "stateMutability": "view",
      "type": "function"
    },
    {
      "inputs": [
        {
          "internalType": "address",
          "name": "thirdParty",
          "type": "address"
        },
        {
          "internalType": "string",
          "name": "dataType",
          "type": "string"
        }
      ],
      "name": "giveAccessToThirdParty",
      "outputs": [],
      "stateMutability": "nonpayable",
      "type": "function"
    },
    {
      "inputs": [
        {
          "internalType": "string",
          "name": "collegeId",
          "type": "string"
        }
      ],
      "name": "rejectCollege",
      "outputs": [],
      "stateMutability": "nonpayable",
      "type": "function"
    },
    {
      "inputs": [
        {
          "internalType": "address",
          "name": "thirdParty",
          "type": "address"
        },
        {
          "internalType": "string",
          "name": "dataType",
          "type": "string"
        }
      ],
      "name": "revokeAccessToThirdParty",
      "outputs": [],
      "stateMutability": "nonpayable",
      "type": "function"
    },
    {
      "inputs": [
        {
          "internalType": "string",
          "name": "studentId",
          "type": "string"
        },
        {
          "internalType": "string",
          "name": "dataType",
          "type": "string"
        }
      ],
      "name": "verifyStudentData",
      "outputs": [],
      "stateMutability": "nonpayable",
      "type": "function"
    }
  ],
  "bytecode": "0x608060405234801561001057600080fd5b50336000806101000a81548173ffffffffffffffffffffffffffffffffffffffff021916908373ffffffffffffffffffffffffffffffffffffffff160217905550615ee980620000616000396000f3fe608060405234801561001057600080fd5b50600436106101735760003560e01c8063893d20e8116100de578063b4a9f2c411610097578063ce54123d11610071578063ce54123d1461045a578063ea0557961461048a578063f18b1781146104ba578063f42867a5146104d657610173565b8063b4a9f2c4146103f2578063bc1829f81461040e578063c2d8eef31461043e57610173565b8063893d20e81461033457806390bff2581461035257806395a6ba221461036e5780639a6458561461038a5780639be977d6146103ba578063a83cf342146103d657610173565b806362893b131161013057806362893b131461026057806375d0b932146102905780637bb312fd146102c05780637f3e1e82146102de57806385c5989e146102fa57806388c045e21461031657610173565b80630147aabd146101785780631abf4112146101a857806328fd6ae1146101c65780633d9c5434146101f65780633e6835b41461021257806353ef780e14610242575b600080fd5b610192600480360381019061018d9190614c83565b6104f2565b60405161019f9190614d33565b60405180910390f35b6101b0610588565b6040516101bd9190614ea0565b60405180910390f35b6101e060048036038101906101db9190614ff2565b61089a565b6040516101ed9190614d33565b60405180910390f35b610210600480360381019061020b919061506a565b6108ec565b005b61022c600480360381019061022791906150e3565b610ad2565b60405161023991906151c2565b60405180910390f35b61024a61110d565b60405161025791906151c2565b60405180910390f35b61027a600480360381019061027591906151e4565b6111dc565b60405161028791906151c2565b60405180910390f35b6102aa60048036038101906102a5919061506a565b611491565b6040516102b791906152dc565b60405180910390f35b6102c86114c9565b6040516102d591906151c2565b60405180910390f35b6102f860048036038101906102f391906152f7565b611598565b005b610314600480360381019061030f919061506a565b611b0c565b005b61031e611c6b565b60405161032b9190614ea0565b60405180910390f35b61033c611d44565b60405161034991906153cf565b60405180910390f35b61036c60048036038101906103679190615440565b611d6d565b005b610388600480360381019061038391906151e4565b612423565b005b6103a4600480360381019061039f91906151e4565b6127ed565b6040516103b191906151c2565b60405180910390f35b6103d460048036038101906103cf91906154f4565b6128c0565b005b6103f060048036038101906103eb9190615554565b612b7a565b005b61040c600480360381019061040791906151e4565b612f69565b005b6104286004803603810190610423919061506a565b6135a1565b604051610435919061561d565b60405180910390f35b6104586004803603810190610453919061506a565b6135d9565b005b610474600480360381019061046f91906151e4565b6137c1565b6040516104819190615680565b60405180910390f35b6104a4600480360381019061049f919061506a565b613ca0565b6040516104b19190614ea0565b60405180910390f35b6104d460048036038101906104cf91906154f4565b613d9a565b005b6104f060048036038101906104eb91906150e3565b614054565b005b6000600e60008773ffffffffffffffffffffffffffffffffffffffff1673ffffffffffffffffffffffffffffffffffffffff16815260200190815260200160002085856040516105439291906156cb565b908152602001604051809103902083836040516105619291906156cb565b908152602001604051809103902060009054906101000a900460ff16905095945050505050565b60606000600160003373ffffffffffffffffffffffffffffffffffffffff1673ffffffffffffffffffffffffffffffffffffffff16815260200190815260200160002080546105d690615713565b80601f016020809104026020016040519081016040528092919081815260200182805461060290615713565b801561064f5780601f106106245761010080835404028352916020019161064f565b820191906000526020600020905b81548152906001019060200180831161063257829003601f168201915b505050505090506000600381111561066a57610669615265565b5b60038260405161067a9190615775565b908152602001604051809103902060009054906101000a900460ff1660038111156106a8576106a7615265565b5b036106df576040517f8fa622f500000000000000000000000000000000000000000000000000000000815260040160405180910390fd5b600260038111156106f3576106f2615265565b5b6003826040516107039190615775565b908152602001604051809103902060009054906101000a900460ff16600381111561073157610730615265565b5b14610768576040517f8ac8e00b00000000000000000000000000000000000000000000000000000000815260040160405180910390fd5b6007600160003373ffffffffffffffffffffffffffffffffffffffff1673ffffffffffffffffffffffffffffffffffffffff1681526020019081526020016000206040516107b69190615824565b9081526020016040518091039020805480602002602001604051908101604052809291908181526020016000905b8282101561089057838290600052602060002001805461080390615713565b80601f016020809104026020016040519081016040528092919081815260200182805461082f90615713565b801561087c5780601f106108515761010080835404028352916020019161087c565b820191906000526020600020905b81548152906001019060200180831161085f57829003601f168201915b5050505050815260200190600101906107e4565b5050505091505090565b6000600b836040516108ac9190615775565b9081526020016040518091039020826040516108c89190615775565b908152602001604051809103902060009054906101000a900460ff16905092915050565b60008054906101000a900473ffffffffffffffffffffffffffffffffffffffff1673ffffffffffffffffffffffffffffffffffffffff163373ffffffffffffffffffffffffffffffffffffffff1614610971576040517f2dca963600000000000000000000000000000000000000000000000000000000815260040160405180910390fd5b6000600381111561098557610984615265565b5b600383836040516109979291906156cb565b908152602001604051809103902060009054906101000a900460ff1660038111156109c5576109c4615265565b5b036109fc576040517f567e9be600000000000000000000000000000000000000000000000000000000815260040160405180910390fd5b600380811115610a0f57610a0e615265565b5b60038383604051610a219291906156cb565b908152602001604051809103902060009054906101000a900460ff166003811115610a4f57610a4e615265565b5b03610a86576040517f20f935a000000000000000000000000000000000000000000000000000000000815260040160405180910390fd5b6003808383604051610a999291906156cb565b908152602001604051809103902060006101000a81548160ff02191690836003811115610ac957610ac8615265565b5b02179055505050565b60606000600160003373ffffffffffffffffffffffffffffffffffffffff1673ffffffffffffffffffffffffffffffffffffffff1681526020019081526020016000208054610b2090615713565b80601f0160208091040260200160405190810160405280929190818152602001828054610b4c90615713565b8015610b995780601f10610b6e57610100808354040283529160200191610b99565b820191906000526020600020905b815481529060010190602001808311610b7c57829003601f168201915b5050505050905060006003811115610bb457610bb3615265565b5b600382604051610bc49190615775565b908152602001604051809103902060009054906101000a900460ff166003811115610bf257610bf1615265565b5b03610c29576040517f8fa622f500000000000000000000000000000000000000000000000000000000815260040160405180910390fd5b60026003811115610c3d57610c3c615265565b5b600382604051610c4d9190615775565b908152602001604051809103902060009054906101000a900460ff166003811115610c7b57610c7a615265565b5b14610cb2576040517f8ac8e00b00000000000000000000000000000000000000000000000000000000815260040160405180910390fd5b868660006001811115610cc857610cc7615265565b5b60088383604051610cda9291906156cb565b908152602001604051809103902060009054906101000a900460ff166001811115610d0857610d07615265565b5b03610d3f576040517f078de8bf00000000000000000000000000000000000000000000000000000000815260040160405180910390fd5b6000600160003373ffffffffffffffffffffffffffffffffffffffff1673ffffffffffffffffffffffffffffffffffffffff1681526020019081526020016000208054610d8b90615713565b80601f0160208091040260200160405190810160405280929190818152602001828054610db790615713565b8015610e045780601f10610dd957610100808354040283529160200191610e04565b820191906000526020600020905b815481529060010190602001808311610de757829003601f168201915b50505050509050600060098484604051610e1f9291906156cb565b9081526020016040518091039020604051610e3990615887565b90815260200160405180910390208054610e5290615713565b80601f0160208091040260200160405190810160405280929190818152602001828054610e7e90615713565b8015610ecb5780601f10610ea057610100808354040283529160200191610ecb565b820191906000526020600020905b815481529060010190602001808311610eae57829003601f168201915b5050505050905080604051602001610ee39190615775565b6040516020818303038152906040528051906020012082604051602001610f0a9190615775565b6040516020818303038152906040528051906020012014610f57576040517fca7b7fb200000000000000000000000000000000000000000000000000000000815260040160405180910390fd5b861561102b5760098b8b604051610f6f9291906156cb565b90815260200160405180910390208989604051610f8d9291906156cb565b90815260200160405180910390208054610fa690615713565b80601f0160208091040260200160405190810160405280929190818152602001828054610fd290615713565b801561101f5780601f10610ff45761010080835404028352916020019161101f565b820191906000526020600020905b81548152906001019060200180831161100257829003601f168201915b505050505095506110ff565b866110fe57600d8b8b6040516110429291906156cb565b908152602001604051809103902089896040516110609291906156cb565b9081526020016040518091039020805461107990615713565b80601f01602080910402602001604051908101604052809291908181526020018280546110a590615713565b80156110f25780601f106110c7576101008083540402835291602001916110f2565b820191906000526020600020905b8154815290600101906020018083116110d557829003601f168201915b505050505095506110ff565b5b505050505095945050505050565b6060600660003373ffffffffffffffffffffffffffffffffffffffff1673ffffffffffffffffffffffffffffffffffffffff168152602001908152602001600020805461115990615713565b80601f016020809104026020016040519081016040528092919081815260200182805461118590615713565b80156111d25780601f106111a7576101008083540402835291602001916111d2565b820191906000526020600020905b8154815290600101906020018083116111b557829003601f168201915b5050505050905090565b6060600060018111156111f2576111f1615265565b5b600886866040516112049291906156cb565b908152602001604051809103902060009054906101000a900460ff16600181111561123257611231615265565b5b03611269576040517f078de8bf00000000000000000000000000000000000000000000000000000000815260040160405180910390fd5b848460405160200161127c9291906156cb565b60405160208183030381529060405280519060200120600660003373ffffffffffffffffffffffffffffffffffffffff1673ffffffffffffffffffffffffffffffffffffffff1681526020019081526020016000206040516020016112e19190615824565b6040516020818303038152906040528051906020012014806113895750600e60003373ffffffffffffffffffffffffffffffffffffffff1673ffffffffffffffffffffffffffffffffffffffff168152602001908152602001600020858560405161134d9291906156cb565b9081526020016040518091039020838360405161136b9291906156cb565b908152602001604051809103902060009054906101000a900460ff16155b156113c0576040517f722f899200000000000000000000000000000000000000000000000000000000815260040160405180910390fd5b600985856040516113d29291906156cb565b908152602001604051809103902083836040516113f09291906156cb565b9081526020016040518091039020805461140990615713565b80601f016020809104026020016040519081016040528092919081815260200182805461143590615713565b80156114825780601f1061145757610100808354040283529160200191611482565b820191906000526020600020905b81548152906001019060200180831161146557829003601f168201915b50505050509050949350505050565b6000600883836040516114a59291906156cb565b908152602001604051809103902060009054906101000a900460ff16905092915050565b6060600160003373ffffffffffffffffffffffffffffffffffffffff1673ffffffffffffffffffffffffffffffffffffffff168152602001908152602001600020805461151590615713565b80601f016020809104026020016040519081016040528092919081815260200182805461154190615713565b801561158e5780601f106115635761010080835404028352916020019161158e565b820191906000526020600020905b81548152906001019060200180831161157157829003601f168201915b5050505050905090565b6000600160003373ffffffffffffffffffffffffffffffffffffffff1673ffffffffffffffffffffffffffffffffffffffff16815260200190815260200160002080546115e490615713565b80601f016020809104026020016040519081016040528092919081815260200182805461161090615713565b801561165d5780601f106116325761010080835404028352916020019161165d565b820191906000526020600020905b81548152906001019060200180831161164057829003601f168201915b505050505090506000600381111561167857611677615265565b5b6003826040516116889190615775565b908152602001604051809103902060009054906101000a900460ff1660038111156116b6576116b5615265565b5b036116ed576040517f8fa622f500000000000000000000000000000000000000000000000000000000815260040160405180910390fd5b6002600381111561170157611700615265565b5b6003826040516117119190615775565b908152602001604051809103902060009054906101000a900460ff16600381111561173f5761173e615265565b5b14611776576040517f8ac8e00b00000000000000000000000000000000000000000000000000000000815260040160405180910390fd5b6000600160003373ffffffffffffffffffffffffffffffffffffffff1673ffffffffffffffffffffffffffffffffffffffff16815260200190815260200160002080546117c290615713565b80601f01602080910402602001604051908101604052809291908181526020018280546117ee90615713565b801561183b5780601f106118105761010080835404028352916020019161183b565b820191906000526020600020905b81548152906001019060200180831161181e57829003601f168201915b50505050509050600061184d8a614539565b905080600660008c73ffffffffffffffffffffffffffffffffffffffff1673ffffffffffffffffffffffffffffffffffffffff168152602001908152602001600020908161189b9190615a3d565b506007826040516118ac9190615775565b9081526020016040518091039020819080600181540180825580915050600190039060005260206000200160009091909190915090816118ec9190615a3d565b5060016008826040516118ff9190615775565b908152602001604051809103902060006101000a81548160ff0219169083600181111561192f5761192e615265565b5b0217905550611974816040518060400160405280600a81526020017f436f6c6c6567652049640000000000000000000000000000000000000000000081525084614578565b6119f8816040518060400160405280600c81526020017f53747564656e74204e616d6500000000000000000000000000000000000000008152508b8b8080601f016020809104026020016040519081016040528093929190818152602001838380828437600081840152601f19601f82011690508083019250505050505050614578565b611a7c816040518060400160405280600b81526020017f53747564656e742041676500000000000000000000000000000000000000000081525089898080601f016020809104026020016040519081016040528093929190818152602001838380828437600081840152601f19601f82011690508083019250505050505050614578565b611b00816040518060400160405280601281526020017f53747564656e742050657263656e74616765000000000000000000000000000081525087878080601f016020809104026020016040519081016040528093929190818152602001838380828437600081840152601f19601f82011690508083019250505050505050614578565b50505050505050505050565b6000611b1733614539565b905080600160003373ffffffffffffffffffffffffffffffffffffffff1673ffffffffffffffffffffffffffffffffffffffff1681526020019081526020016000209081611b659190615a3d565b50600281908060018154018082558091505060019003906000526020600020016000909190919091509081611b9a9190615a3d565b506001600382604051611bad9190615775565b908152602001604051809103902060006101000a81548160ff02191690836003811115611bdd57611bdc615265565b5b0217905550611c66816040518060400160405280600c81526020017f436f6c6c656765204e616d65000000000000000000000000000000000000000081525085858080601f016020809104026020016040519081016040528093929190818152602001838380828437600081840152601f19601f820116905080830192505050505050506146e8565b505050565b60606002805480602002602001604051908101604052809291908181526020016000905b82821015611d3b578382906000526020600020018054611cae90615713565b80601f0160208091040260200160405190810160405280929190818152602001828054611cda90615713565b8015611d275780601f10611cfc57610100808354040283529160200191611d27565b820191906000526020600020905b815481529060010190602001808311611d0a57829003601f168201915b505050505081526020019060010190611c8f565b50505050905090565b60008060009054906101000a900473ffffffffffffffffffffffffffffffffffffffff16905090565b6000600160003373ffffffffffffffffffffffffffffffffffffffff1673ffffffffffffffffffffffffffffffffffffffff1681526020019081526020016000208054611db990615713565b80601f0160208091040260200160405190810160405280929190818152602001828054611de590615713565b8015611e325780601f10611e0757610100808354040283529160200191611e32565b820191906000526020600020905b815481529060010190602001808311611e1557829003601f168201915b5050505050905060006003811115611e4d57611e4c615265565b5b600382604051611e5d9190615775565b908152602001604051809103902060009054906101000a900460ff166003811115611e8b57611e8a615265565b5b03611ec2576040517f8fa622f500000000000000000000000000000000000000000000000000000000815260040160405180910390fd5b60026003811115611ed657611ed5615265565b5b600382604051611ee69190615775565b908152602001604051809103902060009054906101000a900460ff166003811115611f1457611f13615265565b5b14611f4b576040517f8ac8e00b00000000000000000000000000000000000000000000000000000000815260040160405180910390fd5b868660006001811115611f6157611f60615265565b5b60088383604051611f739291906156cb565b908152602001604051809103902060009054906101000a900460ff166001811115611fa157611fa0615265565b5b03611fd8576040517f078de8bf00000000000000000000000000000000000000000000000000000000815260040160405180910390fd5b6000600160003373ffffffffffffffffffffffffffffffffffffffff1673ffffffffffffffffffffffffffffffffffffffff168152602001908152602001600020805461202490615713565b80601f016020809104026020016040519081016040528092919081815260200182805461205090615713565b801561209d5780601f106120725761010080835404028352916020019161209d565b820191906000526020600020905b81548152906001019060200180831161208057829003601f168201915b505050505090506000600984846040516120b89291906156cb565b90815260200160405180910390206040516120d290615887565b908152602001604051809103902080546120eb90615713565b80601f016020809104026020016040519081016040528092919081815260200182805461211790615713565b80156121645780601f1061213957610100808354040283529160200191612164565b820191906000526020600020905b81548152906001019060200180831161214757829003601f168201915b505050505090508060405160200161217c9190615775565b60405160208183030381529060405280519060200120826040516020016121a39190615775565b60405160208183030381529060405280519060200120146121f0576040517fca7b7fb200000000000000000000000000000000000000000000000000000000815260040160405180910390fd5b86869050898990501461222f576040517f79b3f46f00000000000000000000000000000000000000000000000000000000815260040160405180910390fd5b60005b8989905081101561241557600088888381811061225257612251615b0f565b5b90506020028101906122649190615b4d565b8080601f016020809104026020016040519081016040528093929190818152602001838380828437600081840152601f19601f82011690508083019250505050505050905060008151036122e4576040517f47b4af9400000000000000000000000000000000000000000000000000000000815260040160405180910390fd5b6124018d8d8080601f016020809104026020016040519081016040528093929190818152602001838380828437600081840152601f19601f820116905080830192505050505050508c8c8581811061233f5761233e615b0f565b5b90506020028101906123519190615b4d565b8080601f016020809104026020016040519081016040528093929190818152602001838380828437600081840152601f19601f820116905080830192505050505050508b8b868181106123a7576123a6615b0f565b5b90506020028101906123b99190615b4d565b8080601f016020809104026020016040519081016040528093929190818152602001838380828437600081840152601f19601f82011690508083019250505050505050614578565b50808061240d90615bdf565b915050612232565b505050505050505050505050565b6000600160003373ffffffffffffffffffffffffffffffffffffffff1673ffffffffffffffffffffffffffffffffffffffff168152602001908152602001600020805461246f90615713565b80601f016020809104026020016040519081016040528092919081815260200182805461249b90615713565b80156124e85780601f106124bd576101008083540402835291602001916124e8565b820191906000526020600020905b8154815290600101906020018083116124cb57829003601f168201915b505050505090506000600381111561250357612502615265565b5b6003826040516125139190615775565b908152602001604051809103902060009054906101000a900460ff16600381111561254157612540615265565b5b03612578576040517f8fa622f500000000000000000000000000000000000000000000000000000000815260040160405180910390fd5b6002600381111561258c5761258b615265565b5b60038260405161259c9190615775565b908152602001604051809103902060009054906101000a900460ff1660038111156125ca576125c9615265565b5b14612601576040517f8ac8e00b00000000000000000000000000000000000000000000000000000000815260040160405180910390fd5b600083838080601f016020809104026020016040519081016040528093929190818152602001838380828437600081840152601f19601f8201169050808301925050505050505090506000815103612685576040517f47b4af9400000000000000000000000000000000000000000000000000000000815260040160405180910390fd5b6000600160003373ffffffffffffffffffffffffffffffffffffffff1673ffffffffffffffffffffffffffffffffffffffff16815260200190815260200160002080546126d190615713565b80601f01602080910402602001604051908101604052809291908181526020018280546126fd90615713565b801561274a5780601f1061271f5761010080835404028352916020019161274a565b820191906000526020600020905b81548152906001019060200180831161272d57829003601f168201915b505050505090506127e48188888080601f016020809104026020016040519081016040528093929190818152602001838380828437600081840152601f19601f8201169050808301925050505050505087878080601f016020809104026020016040519081016040528093929190818152602001838380828437600081840152601f19601f820116905080830192505050505050506146e8565b50505050505050565b6060600485856040516128019291906156cb565b9081526020016040518091039020838360405161281f9291906156cb565b9081526020016040518091039020805461283890615713565b80601f016020809104026020016040519081016040528092919081815260200182805461286490615713565b80156128b15780601f10612886576101008083540402835291602001916128b1565b820191906000526020600020905b81548152906001019060200180831161289457829003601f168201915b50505050509050949350505050565b6000600660003373ffffffffffffffffffffffffffffffffffffffff1673ffffffffffffffffffffffffffffffffffffffff168152602001908152602001600020805461290c90615713565b80601f016020809104026020016040519081016040528092919081815260200182805461293890615713565b80156129855780601f1061295a57610100808354040283529160200191612985565b820191906000526020600020905b81548152906001019060200180831161296857829003601f168201915b50505050509050600060018111156129a05761299f615265565b5b6008826040516129b09190615775565b908152602001604051809103902060009054906101000a900460ff1660018111156129de576129dd615265565b5b03612a15576040517f078de8bf00000000000000000000000000000000000000000000000000000000815260040160405180910390fd5b6000600660003373ffffffffffffffffffffffffffffffffffffffff1673ffffffffffffffffffffffffffffffffffffffff1681526020019081526020016000208054612a6190615713565b80601f0160208091040260200160405190810160405280929190818152602001828054612a8d90615713565b8015612ada5780601f10612aaf57610100808354040283529160200191612ada565b820191906000526020600020905b815481529060010190602001808311612abd57829003601f168201915b505050505090506001600e60008773ffffffffffffffffffffffffffffffffffffffff1673ffffffffffffffffffffffffffffffffffffffff16815260200190815260200160002082604051612b309190615775565b90815260200160405180910390208585604051612b4e9291906156cb565b908152602001604051809103902060006101000a81548160ff0219169083151502179055505050505050565b6000600660003373ffffffffffffffffffffffffffffffffffffffff1673ffffffffffffffffffffffffffffffffffffffff1681526020019081526020016000208054612bc690615713565b80601f0160208091040260200160405190810160405280929190818152602001828054612bf290615713565b8015612c3f5780601f10612c1457610100808354040283529160200191612c3f565b820191906000526020600020905b815481529060010190602001808311612c2257829003601f168201915b5050505050905060006001811115612c5a57612c59615265565b5b600882604051612c6a9190615775565b908152602001604051809103902060009054906101000a900460ff166001811115612c9857612c97615265565b5b03612ccf576040517f078de8bf00000000000000000000000000000000000000000000000000000000815260040160405180910390fd5b828290508585905014612d0e576040517f79b3f46f00000000000000000000000000000000000000000000000000000000815260040160405180910390fd5b6000600660003373ffffffffffffffffffffffffffffffffffffffff1673ffffffffffffffffffffffffffffffffffffffff1681526020019081526020016000208054612d5a90615713565b80601f0160208091040260200160405190810160405280929190818152602001828054612d8690615713565b8015612dd35780601f10612da857610100808354040283529160200191612dd3565b820191906000526020600020905b815481529060010190602001808311612db657829003601f168201915b5050505050905060005b86869050811015612f6057600b82604051612df89190615775565b9081526020016040518091039020878783818110612e1957612e18615b0f565b5b9050602002810190612e2b9190615b4d565b604051612e399291906156cb565b908152602001604051809103902060009054906101000a900460ff16612e8b576040517f722f899200000000000000000000000000000000000000000000000000000000815260040160405180910390fd5b612ebb82888884818110612ea257612ea1615b0f565b5b9050602002810190612eb49190615b4d565b6001614858565b848482818110612ece57612ecd615b0f565b5b9050602002810190612ee09190615b4d565b600d84604051612ef09190615775565b9081526020016040518091039020898985818110612f1157612f10615b0f565b5b9050602002810190612f239190615b4d565b604051612f319291906156cb565b90815260200160405180910390209182612f4c929190615c32565b508080612f5890615bdf565b915050612ddd565b50505050505050565b6000600160003373ffffffffffffffffffffffffffffffffffffffff1673ffffffffffffffffffffffffffffffffffffffff1681526020019081526020016000208054612fb590615713565b80601f0160208091040260200160405190810160405280929190818152602001828054612fe190615713565b801561302e5780601f106130035761010080835404028352916020019161302e565b820191906000526020600020905b81548152906001019060200180831161301157829003601f168201915b505050505090506000600381111561304957613048615265565b5b6003826040516130599190615775565b908152602001604051809103902060009054906101000a900460ff16600381111561308757613086615265565b5b036130be576040517f8fa622f500000000000000000000000000000000000000000000000000000000815260040160405180910390fd5b600260038111156130d2576130d1615265565b5b6003826040516130e29190615775565b908152602001604051809103902060009054906101000a900460ff1660038111156131105761310f615265565b5b14613147576040517f8ac8e00b00000000000000000000000000000000000000000000000000000000815260040160405180910390fd5b84846000600181111561315d5761315c615265565b5b6008838360405161316f9291906156cb565b908152602001604051809103902060009054906101000a900460ff16600181111561319d5761319c615265565b5b036131d4576040517f078de8bf00000000000000000000000000000000000000000000000000000000815260040160405180910390fd5b6000600160003373ffffffffffffffffffffffffffffffffffffffff1673ffffffffffffffffffffffffffffffffffffffff168152602001908152602001600020805461322090615713565b80601f016020809104026020016040519081016040528092919081815260200182805461324c90615713565b80156132995780601f1061326e57610100808354040283529160200191613299565b820191906000526020600020905b81548152906001019060200180831161327c57829003601f168201915b505050505090506000600984846040516132b49291906156cb565b90815260200160405180910390206040516132ce90615887565b908152602001604051809103902080546132e790615713565b80601f016020809104026020016040519081016040528092919081815260200182805461331390615713565b80156133605780601f1061333557610100808354040283529160200191613360565b820191906000526020600020905b81548152906001019060200180831161334357829003601f168201915b50505050509050806040516020016133789190615775565b604051602081830303815290604052805190602001208260405160200161339f9190615775565b60405160208183030381529060405280519060200120146133ec576040517fca7b7fb200000000000000000000000000000000000000000000000000000000815260040160405180910390fd5b61343d89898080601f016020809104026020016040519081016040528093929190818152602001838380828437600081840152601f19601f8201169050808301925050505050505088886000614858565b61359689898080601f016020809104026020016040519081016040528093929190818152602001838380828437600081840152601f19601f8201169050808301925050505050505088888080601f016020809104026020016040519081016040528093929190818152602001838380828437600081840152601f19601f82011690508083019250505050505050600d8c8c6040516134dc9291906156cb565b90815260200160405180910390208a8a6040516134fa9291906156cb565b9081526020016040518091039020805461351390615713565b80601f016020809104026020016040519081016040528092919081815260200182805461353f90615713565b801561358c5780601f106135615761010080835404028352916020019161358c565b820191906000526020600020905b81548152906001019060200180831161356f57829003601f168201915b5050505050614578565b505050505050505050565b6000600383836040516135b59291906156cb565b908152602001604051809103902060009054906101000a900460ff16905092915050565b60008054906101000a900473ffffffffffffffffffffffffffffffffffffffff1673ffffffffffffffffffffffffffffffffffffffff163373ffffffffffffffffffffffffffffffffffffffff161461365e576040517f2dca963600000000000000000000000000000000000000000000000000000000815260040160405180910390fd5b6000600381111561367257613671615265565b5b600383836040516136849291906156cb565b908152602001604051809103902060009054906101000a900460ff1660038111156136b2576136b1615265565b5b036136e9576040517f567e9be600000000000000000000000000000000000000000000000000000000815260040160405180910390fd5b600260038111156136fd576136fc615265565b5b6003838360405161370f9291906156cb565b908152602001604051809103902060009054906101000a900460ff16600381111561373d5761373c615265565b5b03613774576040517f61fd49df00000000000000000000000000000000000000000000000000000000815260040160405180910390fd5b6002600383836040516137889291906156cb565b908152602001604051809103902060006101000a81548160ff021916908360038111156137b8576137b7615265565b5b02179055505050565b600080600160003373ffffffffffffffffffffffffffffffffffffffff1673ffffffffffffffffffffffffffffffffffffffff168152602001908152602001600020805461380e90615713565b80601f016020809104026020016040519081016040528092919081815260200182805461383a90615713565b80156138875780601f1061385c57610100808354040283529160200191613887565b820191906000526020600020905b81548152906001019060200180831161386a57829003601f168201915b50505050509050600060038111156138a2576138a1615265565b5b6003826040516138b29190615775565b908152602001604051809103902060009054906101000a900460ff1660038111156138e0576138df615265565b5b03613917576040517f8fa622f500000000000000000000000000000000000000000000000000000000815260040160405180910390fd5b6002600381111561392b5761392a615265565b5b60038260405161393b9190615775565b908152602001604051809103902060009054906101000a900460ff16600381111561396957613968615265565b5b146139a0576040517f8ac8e00b00000000000000000000000000000000000000000000000000000000815260040160405180910390fd5b8585600060018111156139b6576139b5615265565b5b600883836040516139c89291906156cb565b908152602001604051809103902060009054906101000a900460ff1660018111156139f6576139f5615265565b5b03613a2d576040517f078de8bf00000000000000000000000000000000000000000000000000000000815260040160405180910390fd5b6000600160003373ffffffffffffffffffffffffffffffffffffffff1673ffffffffffffffffffffffffffffffffffffffff1681526020019081526020016000208054613a7990615713565b80601f0160208091040260200160405190810160405280929190818152602001828054613aa590615713565b8015613af25780601f10613ac757610100808354040283529160200191613af2565b820191906000526020600020905b815481529060010190602001808311613ad557829003601f168201915b50505050509050600060098484604051613b0d9291906156cb565b9081526020016040518091039020604051613b2790615887565b90815260200160405180910390208054613b4090615713565b80601f0160208091040260200160405190810160405280929190818152602001828054613b6c90615713565b8015613bb95780601f10613b8e57610100808354040283529160200191613bb9565b820191906000526020600020905b815481529060010190602001808311613b9c57829003601f168201915b5050505050905080604051602001613bd19190615775565b6040516020818303038152906040528051906020012082604051602001613bf89190615775565b6040516020818303038152906040528051906020012014613c45576040517fca7b7fb200000000000000000000000000000000000000000000000000000000815260040160405180910390fd5b600c8a8a604051613c579291906156cb565b90815260200160405180910390208888604051613c759291906156cb565b908152602001604051809103902060009054906101000a900460ff1695505050505050949350505050565b6060600a8383604051613cb49291906156cb565b9081526020016040518091039020805480602002602001604051908101604052809291908181526020016000905b82821015613d8e578382906000526020600020018054613d0190615713565b80601f0160208091040260200160405190810160405280929190818152602001828054613d2d90615713565b8015613d7a5780601f10613d4f57610100808354040283529160200191613d7a565b820191906000526020600020905b815481529060010190602001808311613d5d57829003601f168201915b505050505081526020019060010190613ce2565b50505050905092915050565b6000600660003373ffffffffffffffffffffffffffffffffffffffff1673ffffffffffffffffffffffffffffffffffffffff1681526020019081526020016000208054613de690615713565b80601f0160208091040260200160405190810160405280929190818152602001828054613e1290615713565b8015613e5f5780601f10613e3457610100808354040283529160200191613e5f565b820191906000526020600020905b815481529060010190602001808311613e4257829003601f168201915b5050505050905060006001811115613e7a57613e79615265565b5b600882604051613e8a9190615775565b908152602001604051809103902060009054906101000a900460ff166001811115613eb857613eb7615265565b5b03613eef576040517f078de8bf00000000000000000000000000000000000000000000000000000000815260040160405180910390fd5b6000600660003373ffffffffffffffffffffffffffffffffffffffff1673ffffffffffffffffffffffffffffffffffffffff1681526020019081526020016000208054613f3b90615713565b80601f0160208091040260200160405190810160405280929190818152602001828054613f6790615713565b8015613fb45780601f10613f8957610100808354040283529160200191613fb4565b820191906000526020600020905b815481529060010190602001808311613f9757829003601f168201915b505050505090506000600e60008773ffffffffffffffffffffffffffffffffffffffff1673ffffffffffffffffffffffffffffffffffffffff1681526020019081526020016000208260405161400a9190615775565b908152602001604051809103902085856040516140289291906156cb565b908152602001604051809103902060006101000a81548160ff0219169083151502179055505050505050565b6000600160003373ffffffffffffffffffffffffffffffffffffffff1673ffffffffffffffffffffffffffffffffffffffff16815260200190815260200160002080546140a090615713565b80601f01602080910402602001604051908101604052809291908181526020018280546140cc90615713565b80156141195780601f106140ee57610100808354040283529160200191614119565b820191906000526020600020905b8154815290600101906020018083116140fc57829003601f168201915b505050505090506000600381111561413457614133615265565b5b6003826040516141449190615775565b908152602001604051809103902060009054906101000a900460ff16600381111561417257614171615265565b5b036141a9576040517f8fa622f500000000000000000000000000000000000000000000000000000000815260040160405180910390fd5b600260038111156141bd576141bc615265565b5b6003826040516141cd9190615775565b908152602001604051809103902060009054906101000a900460ff1660038111156141fb576141fa615265565b5b14614232576040517f8ac8e00b00000000000000000000000000000000000000000000000000000000815260040160405180910390fd5b85856000600181111561424857614247615265565b5b6008838360405161425a9291906156cb565b908152602001604051809103902060009054906101000a900460ff16600181111561428857614287615265565b5b036142bf576040517f078de8bf00000000000000000000000000000000000000000000000000000000815260040160405180910390fd5b6000600160003373ffffffffffffffffffffffffffffffffffffffff1673ffffffffffffffffffffffffffffffffffffffff168152602001908152602001600020805461430b90615713565b80601f016020809104026020016040519081016040528092919081815260200182805461433790615713565b80156143845780601f1061435957610100808354040283529160200191614384565b820191906000526020600020905b81548152906001019060200180831161436757829003601f168201915b5050505050905060006009848460405161439f9291906156cb565b90815260200160405180910390206040516143b990615887565b908152602001604051809103902080546143d290615713565b80601f01602080910402602001604051908101604052809291908181526020018280546143fe90615713565b801561444b5780601f106144205761010080835404028352916020019161444b565b820191906000526020600020905b81548152906001019060200180831161442e57829003601f168201915b50505050509050806040516020016144639190615775565b604051602081830303815290604052805190602001208260405160200161448a9190615775565b60405160208183030381529060405280519060200120146144d7576040517fca7b7fb200000000000000000000000000000000000000000000000000000000815260040160405180910390fd5b85600b8b8b6040516144ea9291906156cb565b908152602001604051809103902089896040516145089291906156cb565b908152602001604051809103902060006101000a81548160ff02191690831515021790555050505050505050505050565b606061457182424460405160200161455393929190615d6b565b6040516020818303038152906040528051906020012060001c6148c2565b9050919050565b600060098460405161458a9190615775565b9081526020016040518091039020836040516145a69190615775565b908152602001604051809103902080546145bf90615713565b80601f01602080910402602001604051908101604052809291908181526020018280546145eb90615713565b80156146385780601f1061460d57610100808354040283529160200191614638565b820191906000526020600020905b81548152906001019060200180831161461b57829003601f168201915b50505050509050600081510361469a57600a846040516146589190615775565b9081526020016040518091039020839080600181540180825580915050600190039060005260206000200160009091909190915090816146989190615a3d565b505b816009856040516146ab9190615775565b9081526020016040518091039020846040516146c79190615775565b908152602001604051809103902090816146e19190615a3d565b5050505050565b60006004846040516146fa9190615775565b9081526020016040518091039020836040516147169190615775565b9081526020016040518091039020805461472f90615713565b80601f016020809104026020016040519081016040528092919081815260200182805461475b90615713565b80156147a85780601f1061477d576101008083540402835291602001916147a8565b820191906000526020600020905b81548152906001019060200180831161478b57829003601f168201915b50505050509050600081510361480a576005846040516147c89190615775565b9081526020016040518091039020839080600181540180825580915050600190039060005260206000200160009091909190915090816148089190615a3d565b505b8160048560405161481b9190615775565b9081526020016040518091039020846040516148379190615775565b908152602001604051809103902090816148519190615a3d565b5050505050565b80600c856040516148699190615775565b908152602001604051809103902084846040516148879291906156cb565b908152602001604051809103902060006101000a81548160ff021916908360028111156148b7576148b6615265565b5b021790555050505050565b60606148d98260016148d3856148e0565b01614970565b9050919050565b600080600090506000608084901c111561490257608083901c92506010810190505b6000604084901c111561491d57604083901c92506008810190505b6000602084901c111561493857602083901c92506004810190505b6000601084901c111561495357601083901c92506002810190505b6000600884901c1115614967576001810190505b80915050919050565b6060600060028360026149839190615da8565b61498d9190615dea565b67ffffffffffffffff8111156149a6576149a5614ec7565b5b6040519080825280601f01601f1916602001820160405280156149d85781602001600182028036833780820191505090505b5090507f300000000000000000000000000000000000000000000000000000000000000081600081518110614a1057614a0f615b0f565b5b60200101907effffffffffffffffffffffffffffffffffffffffffffffffffffffffffffff1916908160001a9053507f780000000000000000000000000000000000000000000000000000000000000081600181518110614a7457614a73615b0f565b5b60200101907effffffffffffffffffffffffffffffffffffffffffffffffffffffffffffff1916908160001a90535060006001846002614ab49190615da8565b614abe9190615dea565b90505b6001811115614b5e577f3031323334353637383961626364656600000000000000000000000000000000600f861660108110614b0057614aff615b0f565b5b1a60f81b828281518110614b1757614b16615b0f565b5b60200101907effffffffffffffffffffffffffffffffffffffffffffffffffffffffffffff1916908160001a905350600485901c945080614b5790615e1e565b9050614ac1565b5060008414614ba2576040517f08c379a0000000000000000000000000000000000000000000000000000000008152600401614b9990615e93565b60405180910390fd5b8091505092915050565b6000604051905090565b600080fd5b600080fd5b600073ffffffffffffffffffffffffffffffffffffffff82169050919050565b6000614beb82614bc0565b9050919050565b614bfb81614be0565b8114614c0657600080fd5b50565b600081359050614c1881614bf2565b92915050565b600080fd5b600080fd5b600080fd5b60008083601f840112614c4357614c42614c1e565b5b8235905067ffffffffffffffff811115614c6057614c5f614c23565b5b602083019150836001820283011115614c7c57614c7b614c28565b5b9250929050565b600080600080600060608688031215614c9f57614c9e614bb6565b5b6000614cad88828901614c09565b955050602086013567ffffffffffffffff811115614cce57614ccd614bbb565b5b614cda88828901614c2d565b9450945050604086013567ffffffffffffffff811115614cfd57614cfc614bbb565b5b614d0988828901614c2d565b92509250509295509295909350565b60008115159050919050565b614d2d81614d18565b82525050565b6000602082019050614d486000830184614d24565b92915050565b600081519050919050565b600082825260208201905092915050565b6000819050602082019050919050565b600081519050919050565b600082825260208201905092915050565b60005b83811015614db4578082015181840152602081019050614d99565b60008484015250505050565b6000601f19601f8301169050919050565b6000614ddc82614d7a565b614de68185614d85565b9350614df6818560208601614d96565b614dff81614dc0565b840191505092915050565b6000614e168383614dd1565b905092915050565b6000602082019050919050565b6000614e3682614d4e565b614e408185614d59565b935083602082028501614e5285614d6a565b8060005b85811015614e8e5784840389528151614e6f8582614e0a565b9450614e7a83614e1e565b925060208a01995050600181019050614e56565b50829750879550505050505092915050565b60006020820190508181036000830152614eba8184614e2b565b905092915050565b600080fd5b7f4e487b7100000000000000000000000000000000000000000000000000000000600052604160045260246000fd5b614eff82614dc0565b810181811067ffffffffffffffff82111715614f1e57614f1d614ec7565b5b80604052505050565b6000614f31614bac565b9050614f3d8282614ef6565b919050565b600067ffffffffffffffff821115614f5d57614f5c614ec7565b5b614f6682614dc0565b9050602081019050919050565b82818337600083830152505050565b6000614f95614f9084614f42565b614f27565b905082815260208101848484011115614fb157614fb0614ec2565b5b614fbc848285614f73565b509392505050565b600082601f830112614fd957614fd8614c1e565b5b8135614fe9848260208601614f82565b91505092915050565b6000806040838503121561500957615008614bb6565b5b600083013567ffffffffffffffff81111561502757615026614bbb565b5b61503385828601614fc4565b925050602083013567ffffffffffffffff81111561505457615053614bbb565b5b61506085828601614fc4565b9150509250929050565b6000806020838503121561508157615080614bb6565b5b600083013567ffffffffffffffff81111561509f5761509e614bbb565b5b6150ab85828601614c2d565b92509250509250929050565b6150c081614d18565b81146150cb57600080fd5b50565b6000813590506150dd816150b7565b92915050565b6000806000806000606086880312156150ff576150fe614bb6565b5b600086013567ffffffffffffffff81111561511d5761511c614bbb565b5b61512988828901614c2d565b9550955050602086013567ffffffffffffffff81111561514c5761514b614bbb565b5b61515888828901614c2d565b9350935050604061516b888289016150ce565b9150509295509295909350565b600082825260208201905092915050565b600061519482614d7a565b61519e8185615178565b93506151ae818560208601614d96565b6151b781614dc0565b840191505092915050565b600060208201905081810360008301526151dc8184615189565b905092915050565b600080600080604085870312156151fe576151fd614bb6565b5b600085013567ffffffffffffffff81111561521c5761521b614bbb565b5b61522887828801614c2d565b9450945050602085013567ffffffffffffffff81111561524b5761524a614bbb565b5b61525787828801614c2d565b925092505092959194509250565b7f4e487b7100000000000000000000000000000000000000000000000000000000600052602160045260246000fd5b600281106152a5576152a4615265565b5b50565b60008190506152b682615294565b919050565b60006152c6826152a8565b9050919050565b6152d6816152bb565b82525050565b60006020820190506152f160008301846152cd565b92915050565b60008060008060008060006080888a03121561531657615315614bb6565b5b60006153248a828b01614c09565b975050602088013567ffffffffffffffff81111561534557615344614bbb565b5b6153518a828b01614c2d565b9650965050604088013567ffffffffffffffff81111561537457615373614bbb565b5b6153808a828b01614c2d565b9450945050606088013567ffffffffffffffff8111156153a3576153a2614bbb565b5b6153af8a828b01614c2d565b925092505092959891949750929550565b6153c981614be0565b82525050565b60006020820190506153e460008301846153c0565b92915050565b60008083601f840112615400576153ff614c1e565b5b8235905067ffffffffffffffff81111561541d5761541c614c23565b5b60208301915083602082028301111561543957615438614c28565b5b9250929050565b6000806000806000806060878903121561545d5761545c614bb6565b5b600087013567ffffffffffffffff81111561547b5761547a614bbb565b5b61548789828a01614c2d565b9650965050602087013567ffffffffffffffff8111156154aa576154a9614bbb565b5b6154b689828a016153ea565b9450945050604087013567ffffffffffffffff8111156154d9576154d8614bbb565b5b6154e589828a016153ea565b92509250509295509295509295565b60008060006040848603121561550d5761550c614bb6565b5b600061551b86828701614c09565b935050602084013567ffffffffffffffff81111561553c5761553b614bbb565b5b61554886828701614c2d565b92509250509250925092565b6000806000806040858703121561556e5761556d614bb6565b5b600085013567ffffffffffffffff81111561558c5761558b614bbb565b5b615598878288016153ea565b9450945050602085013567ffffffffffffffff8111156155bb576155ba614bbb565b5b6155c7878288016153ea565b925092505092959194509250565b600481106155e6576155e5615265565b5b50565b60008190506155f7826155d5565b919050565b6000615607826155e9565b9050919050565b615617816155fc565b82525050565b6000602082019050615632600083018461560e565b92915050565b6003811061564957615648615265565b5b50565b600081905061565a82615638565b919050565b600061566a8261564c565b9050919050565b61567a8161565f565b82525050565b60006020820190506156956000830184615671565b92915050565b600081905092915050565b60006156b2838561569b565b93506156bf838584614f73565b82840190509392505050565b60006156d88284866156a6565b91508190509392505050565b7f4e487b7100000000000000000000000000000000000000000000000000000000600052602260045260246000fd5b6000600282049050600182168061572b57607f821691505b60208210810361573e5761573d6156e4565b5b50919050565b600061574f82614d7a565b615759818561569b565b9350615769818560208601614d96565b80840191505092915050565b60006157818284615744565b915081905092915050565b60008190508160005260206000209050919050565b600081546157ae81615713565b6157b8818661569b565b945060018216600081146157d357600181146157e85761581b565b60ff198316865281151582028601935061581b565b6157f18561578c565b60005b83811015615813578154818901526001820191506020810190506157f4565b838801955050505b50505092915050565b600061583082846157a1565b915081905092915050565b7f436f6c6c65676520496400000000000000000000000000000000000000000000600082015250565b6000615871600a8361569b565b915061587c8261583b565b600a82019050919050565b600061589282615864565b9150819050919050565b60006020601f8301049050919050565b600082821b905092915050565b6000600883026158e97fffffffffffffffffffffffffffffffffffffffffffffffffffffffffffffffff826158ac565b6158f386836158ac565b95508019841693508086168417925050509392505050565b6000819050919050565b6000819050919050565b600061593a6159356159308461590b565b615915565b61590b565b9050919050565b6000819050919050565b6159548361591f565b61596861596082615941565b8484546158b9565b825550505050565b600090565b61597d615970565b61598881848461594b565b505050565b5b818110156159ac576159a1600082615975565b60018101905061598e565b5050565b601f8211156159f1576159c28161578c565b6159cb8461589c565b810160208510156159da578190505b6159ee6159e68561589c565b83018261598d565b50505b505050565b600082821c905092915050565b6000615a14600019846008026159f6565b1980831691505092915050565b6000615a2d8383615a03565b9150826002028217905092915050565b615a4682614d7a565b67ffffffffffffffff811115615a5f57615a5e614ec7565b5b615a698254615713565b615a748282856159b0565b600060209050601f831160018114615aa75760008415615a95578287015190505b615a9f8582615a21565b865550615b07565b601f198416615ab58661578c565b60005b82811015615add57848901518255600182019150602085019450602081019050615ab8565b86831015615afa5784890151615af6601f891682615a03565b8355505b6001600288020188555050505b505050505050565b7f4e487b7100000000000000000000000000000000000000000000000000000000600052603260045260246000fd5b600080fd5b600080fd5b600080fd5b60008083356001602003843603038112615b6a57615b69615b3e565b5b80840192508235915067ffffffffffffffff821115615b8c57615b8b615b43565b5b602083019250600182023603831315615ba857615ba7615b48565b5b509250929050565b7f4e487b7100000000000000000000000000000000000000000000000000000000600052601160045260246000fd5b6000615bea8261590b565b91507fffffffffffffffffffffffffffffffffffffffffffffffffffffffffffffffff8203615c1c57615c1b615bb0565b5b600182019050919050565b600082905092915050565b615c3c8383615c27565b67ffffffffffffffff811115615c5557615c54614ec7565b5b615c5f8254615713565b615c6a8282856159b0565b6000601f831160018114615c995760008415615c87578287013590505b615c918582615a21565b865550615cf9565b601f198416615ca78661578c565b60005b82811015615ccf57848901358255600182019150602085019450602081019050615caa565b86831015615cec5784890135615ce8601f891682615a03565b8355505b6001600288020188555050505b50505050505050565b60008160601b9050919050565b6000615d1a82615d02565b9050919050565b6000615d2c82615d0f565b9050919050565b615d44615d3f82614be0565b615d21565b82525050565b6000819050919050565b615d65615d608261590b565b615d4a565b82525050565b6000615d778286615d33565b601482019150615d878285615d54565b602082019150615d978284615d54565b602082019150819050949350505050565b6000615db38261590b565b9150615dbe8361590b565b9250828202615dcc8161590b565b91508282048414831517615de357615de2615bb0565b5b5092915050565b6000615df58261590b565b9150615e008361590b565b9250828201905080821115615e1857615e17615bb0565b5b92915050565b6000615e298261590b565b915060008203615e3c57615e3b615bb0565b5b600182039050919050565b7f537472696e67733a20686578206c656e67746820696e73756666696369656e74600082015250565b6000615e7d602083615178565b9150615e8882615e47565b602082019050919050565b60006020820190508181036000830152615eac81615e70565b905091905056fea2646970667358221220d6025f1bf761dc95b7adc8282821fcde033373cd6590272c7b40af88de82eb1f64736f6c63430008110033",
  "linkReferences": {},
  "deployedLinkReferences": {}
}