{
  "_format": "hh-sol-artifact-1",
  "contractName": "Ducid",
  "sourceName": "contracts/Ducid.sol",
  "abi": [
    {
      "inputs": [],
      "stateMutability": "nonpayable",
      "type": "constructor"
    },
    {
      "inputs": [],
      "name": "AccessOnlyToACollege",
      "type": "error"
    },
    {
      "inputs": [],
      "name": "AccessOnlyToOwner",
      "type": "error"
    },
    {
      "inputs": [],
      "name": "AccessOnlyToVerifiedCollege",
      "type": "error"
    },
    {
      "inputs": [],
      "name": "CollegeAlreadyVerified",
      "type": "error"
    },
    {
      "inputs": [],
      "name": "CollegeAlreadyrejected",
      "type": "error"
    },
    {
      "inputs": [],
      "name": "CollegeNotFound",
      "type": "error"
    },
    {
      "inputs": [],
      "name": "DataMissMatching",
      "type": "error"
    },
    {
      "inputs": [],
      "name": "EmptyDataNotAllowed",
      "type": "error"
    },
    {
      "inputs": [],
      "name": "NoAccessToEditData",
      "type": "error"
    },
    {
      "inputs": [],
      "name": "StudentNotFound",
      "type": "error"
    },
    {
      "inputs": [],
      "name": "studentIsOfAnotherCollege",
      "type": "error"
    },
    {
      "inputs": [
        {
          "internalType": "string",
          "name": "collegeName",
          "type": "string"
        }
      ],
      "name": "addAsCollege",
      "outputs": [],
      "stateMutability": "nonpayable",
      "type": "function"
    },
    {
      "inputs": [
        {
          "internalType": "address",
          "name": "studentAddress",
          "type": "address"
        },
        {
          "internalType": "string",
          "name": "studentName",
          "type": "string"
        },
        {
          "internalType": "string",
          "name": "studentAge",
          "type": "string"
        },
        {
          "internalType": "string",
          "name": "studentPercentage",
          "type": "string"
        }
      ],
      "name": "addNewStudent",
      "outputs": [],
      "stateMutability": "nonpayable",
      "type": "function"
    },
    {
      "inputs": [
        {
          "internalType": "string",
          "name": "collegeId",
          "type": "string"
        }
      ],
      "name": "approveCollege",
      "outputs": [],
      "stateMutability": "nonpayable",
      "type": "function"
    },
    {
      "inputs": [
        {
          "internalType": "address",
          "name": "thirdParty",
          "type": "address"
        },
        {
          "internalType": "string",
          "name": "studentId",
          "type": "string"
        },
        {
          "internalType": "string",
          "name": "dataType",
          "type": "string"
        }
      ],
      "name": "checkAccessToThirdParty",
      "outputs": [
        {
          "internalType": "bool",
          "name": "",
          "type": "bool"
        }
      ],
      "stateMutability": "view",
      "type": "function"
    },
    {
      "inputs": [
        {
          "internalType": "string",
          "name": "dataType",
          "type": "string"
        },
        {
          "internalType": "string",
          "name": "data",
          "type": "string"
        }
      ],
      "name": "editOwnCollegeData",
      "outputs": [],
      "stateMutability": "nonpayable",
      "type": "function"
    },
    {
      "inputs": [
        {
          "internalType": "string",
          "name": "studentId",
          "type": "string"
        },
        {
          "internalType": "string",
          "name": "dataType",
          "type": "string"
        },
        {
          "internalType": "bool",
          "name": "access",
          "type": "bool"
        }
      ],
      "name": "editStudentDataAccessPermission",
      "outputs": [],
      "stateMutability": "nonpayable",
      "type": "function"
    },
    {
      "inputs": [
        {
          "internalType": "string",
          "name": "studentId",
          "type": "string"
        },
        {
          "internalType": "string[]",
          "name": "dataTypes",
          "type": "string[]"
        },
        {
          "internalType": "string[]",
          "name": "data",
          "type": "string[]"
        }
      ],
      "name": "editStudentDataAsCollege",
      "outputs": [],
      "stateMutability": "nonpayable",
      "type": "function"
    },
    {
      "inputs": [
        {
          "internalType": "string[]",
          "name": "dataTypes",
          "type": "string[]"
        },
        {
          "internalType": "string[]",
          "name": "data",
          "type": "string[]"
        }
      ],
      "name": "editStudentDataAsStudent",
      "outputs": [],
      "stateMutability": "nonpayable",
      "type": "function"
    },
    {
      "inputs": [],
      "name": "getAllCollegeIds",
      "outputs": [
        {
          "internalType": "string[]",
          "name": "",
          "type": "string[]"
        }
      ],
      "stateMutability": "view",
      "type": "function"
    },
    {
      "inputs": [
        {
          "internalType": "string",
          "name": "collegeId",
          "type": "string"
        },
        {
          "internalType": "string",
          "name": "dataType",
          "type": "string"
        }
      ],
      "name": "getCollegeData",
      "outputs": [
        {
          "internalType": "string",
          "name": "",
          "type": "string"
        }
      ],
      "stateMutability": "view",
      "type": "function"
    },
    {
      "inputs": [
        {
          "internalType": "string",
          "name": "collegeId",
          "type": "string"
        }
      ],
      "name": "getCollegeDataTypes",
      "outputs": [
        {
          "internalType": "string[]",
          "name": "",
          "type": "string[]"
        }
      ],
      "stateMutability": "view",
      "type": "function"
    },
    {
      "inputs": [
        {
          "internalType": "string",
          "name": "collegeId",
          "type": "string"
        }
      ],
      "name": "getCollegeStatus",
      "outputs": [
        {
          "internalType": "enum Ducid.CollegeStatus",
          "name": "",
          "type": "uint8"
        }
      ],
      "stateMutability": "view",
      "type": "function"
    },
    {
      "inputs": [],
      "name": "getCollegeStudentIds",
      "outputs": [
        {
          "internalType": "string[]",
          "name": "",
          "type": "string[]"
        }
      ],
      "stateMutability": "view",
      "type": "function"
    },
    {
      "inputs": [],
      "name": "getOwnCollegeId",
      "outputs": [
        {
          "internalType": "string",
          "name": "",
          "type": "string"
        }
      ],
      "stateMutability": "view",
      "type": "function"
    },
    {
      "inputs": [],
      "name": "getOwnStudentId",
      "outputs": [
        {
          "internalType": "string",
          "name": "",
          "type": "string"
        }
      ],
      "stateMutability": "view",
      "type": "function"
    },
    {
      "inputs": [],
      "name": "getOwner",
      "outputs": [
        {
          "internalType": "address",
          "name": "",
          "type": "address"
        }
      ],
      "stateMutability": "view",
      "type": "function"
    },
    {
      "inputs": [
        {
          "internalType": "string",
          "name": "studentId",
          "type": "string"
        },
        {
          "internalType": "string",
          "name": "dataType",
          "type": "string"
        }
      ],
      "name": "getStudentData",
      "outputs": [
        {
          "internalType": "string",
          "name": "",
          "type": "string"
        }
      ],
      "stateMutability": "view",
      "type": "function"
    },
    {
      "inputs": [
        {
          "internalType": "string",
          "name": "studentId",
          "type": "string"
        },
        {
          "internalType": "string",
          "name": "dataType",
          "type": "string"
        },
        {
          "internalType": "bool",
          "name": "TypeOfData",
          "type": "bool"
        }
      ],
      "name": "getStudentDataAsCollege",
      "outputs": [
        {
          "internalType": "string",
          "name": "data",
          "type": "string"
        }
      ],
      "stateMutability": "view",
      "type": "function"
    },
    {
      "inputs": [
        {
          "internalType": "string",
          "name": "studentId",
          "type": "string"
        },
        {
          "internalType": "string",
          "name": "dataType",
          "type": "string"
        }
      ],
      "name": "getStudentDataStatus",
      "outputs": [
        {
          "internalType": "enum Ducid.StudentDataStatus",
          "name": "",
          "type": "uint8"
        }
      ],
      "stateMutability": "view",
      "type": "function"
    },
    {
      "inputs": [
        {
          "internalType": "string",
          "name": "studentId",
          "type": "string"
        }
      ],
      "name": "getStudentDataTypes",
      "outputs": [
        {
          "internalType": "string[]",
          "name": "",
          "type": "string[]"
        }
      ],
      "stateMutability": "view",
      "type": "function"
    },
    {
      "inputs": [
        {
          "internalType": "string",
          "name": "studentId",
          "type": "string"
        },
        {
          "internalType": "string",
          "name": "dataType",
          "type": "string"
        }
      ],
      "name": "getStudentEditAccess",
      "outputs": [
        {
          "internalType": "bool",
          "name": "",
          "type": "bool"
        }
      ],
      "stateMutability": "view",
      "type": "function"
    },
    {
      "inputs": [
        {
          "internalType": "string",
          "name": "studentId",
          "type": "string"
        }
      ],
      "name": "getStudentStatus",
      "outputs": [
        {
          "internalType": "enum Ducid.StudentStatus",
          "name": "",
          "type": "uint8"
        }
      ],
      "stateMutability": "view",
      "type": "function"
    },
    {
      "inputs": [
        {
          "internalType": "address",
          "name": "thirdParty",
          "type": "address"
        },
        {
          "internalType": "string",
          "name": "dataType",
          "type": "string"
        }
      ],
      "name": "giveAccessToThirdParty",
      "outputs": [],
      "stateMutability": "nonpayable",
      "type": "function"
    },
    {
      "inputs": [
        {
          "internalType": "string",
          "name": "collegeId",
          "type": "string"
        }
      ],
      "name": "rejectCollege",
      "outputs": [],
      "stateMutability": "nonpayable",
      "type": "function"
    },
    {
      "inputs": [
        {
          "internalType": "address",
          "name": "thirdParty",
          "type": "address"
        },
        {
          "internalType": "string",
          "name": "dataType",
          "type": "string"
        }
      ],
      "name": "revokeAccessToThirdParty",
      "outputs": [],
      "stateMutability": "nonpayable",
      "type": "function"
    },
    {
      "inputs": [
        {
          "internalType": "string",
          "name": "studentId",
          "type": "string"
        },
        {
          "internalType": "string",
          "name": "dataType",
          "type": "string"
        }
      ],
      "name": "verifyStudentData",
      "outputs": [],
      "stateMutability": "nonpayable",
      "type": "function"
    }
  ],
  "bytecode": "0x608060405234801561001057600080fd5b50336000806101000a81548173ffffffffffffffffffffffffffffffffffffffff021916908373ffffffffffffffffffffffffffffffffffffffff160217905550615fdd80620000616000396000f3fe608060405234801561001057600080fd5b506004361061018e5760003560e01c806390bff258116100de578063b4a9f2c411610097578063ce54123d11610071578063ce54123d146104a5578063ea055796146104d5578063f18b178114610505578063f42867a5146105215761018e565b8063b4a9f2c41461043d578063bc1829f814610459578063c2d8eef3146104895761018e565b806390bff2581461036d57806395a6ba22146103895780639a645856146103a55780639be977d6146103d5578063a7ed6e41146103f1578063a83cf342146104215761018e565b806362893b131161014b5780637f3e1e82116101255780637f3e1e82146102f957806385c5989e1461031557806388c045e214610331578063893d20e81461034f5761018e565b806362893b131461027b57806375d0b932146102ab5780637bb312fd146102db5761018e565b80630147aabd146101935780631abf4112146101c357806328fd6ae1146101e15780633d9c5434146102115780633e6835b41461022d57806353ef780e1461025d575b600080fd5b6101ad60048036038101906101a89190614c64565b61053d565b6040516101ba9190614d14565b60405180910390f35b6101cb6105d3565b6040516101d89190614e81565b60405180910390f35b6101fb60048036038101906101f69190614fd3565b6108e5565b6040516102089190614d14565b60405180910390f35b61022b6004803603810190610226919061504b565b610937565b005b610247600480360381019061024291906150c4565b610b1d565b60405161025491906151a3565b60405180910390f35b610265611158565b60405161027291906151a3565b60405180910390f35b610295600480360381019061029091906151c5565b611227565b6040516102a291906151a3565b60405180910390f35b6102c560048036038101906102c0919061504b565b611444565b6040516102d291906152bd565b60405180910390f35b6102e361147c565b6040516102f091906151a3565b60405180910390f35b610313600480360381019061030e91906152d8565b61154b565b005b61032f600480360381019061032a919061504b565b611abf565b005b610339611c1e565b6040516103469190614e81565b60405180910390f35b610357611cf7565b60405161036491906153b0565b60405180910390f35b61038760048036038101906103829190615421565b611d20565b005b6103a3600480360381019061039e91906151c5565b6123d6565b005b6103bf60048036038101906103ba91906151c5565b6127a0565b6040516103cc91906151a3565b60405180910390f35b6103ef60048036038101906103ea91906154d5565b612873565b005b61040b6004803603810190610406919061504b565b612b2d565b6040516104189190614e81565b60405180910390f35b61043b60048036038101906104369190615535565b612c27565b005b610457600480360381019061045291906151c5565b61306e565b005b610473600480360381019061046e919061504b565b6135ec565b60405161048091906155fe565b60405180910390f35b6104a3600480360381019061049e919061504b565b613624565b005b6104bf60048036038101906104ba91906151c5565b61380c565b6040516104cc9190615661565b60405180910390f35b6104ef60048036038101906104ea919061504b565b613ceb565b6040516104fc9190614e81565b60405180910390f35b61051f600480360381019061051a91906154d5565b613de5565b005b61053b600480360381019061053691906150c4565b61409f565b005b6000600e60008773ffffffffffffffffffffffffffffffffffffffff1673ffffffffffffffffffffffffffffffffffffffff168152602001908152602001600020858560405161058e9291906156ac565b908152602001604051809103902083836040516105ac9291906156ac565b908152602001604051809103902060009054906101000a900460ff16905095945050505050565b60606000600160003373ffffffffffffffffffffffffffffffffffffffff1673ffffffffffffffffffffffffffffffffffffffff1681526020019081526020016000208054610621906156f4565b80601f016020809104026020016040519081016040528092919081815260200182805461064d906156f4565b801561069a5780601f1061066f5761010080835404028352916020019161069a565b820191906000526020600020905b81548152906001019060200180831161067d57829003601f168201915b50505050509050600060038111156106b5576106b4615246565b5b6003826040516106c59190615756565b908152602001604051809103902060009054906101000a900460ff1660038111156106f3576106f2615246565b5b0361072a576040517f8fa622f500000000000000000000000000000000000000000000000000000000815260040160405180910390fd5b6002600381111561073e5761073d615246565b5b60038260405161074e9190615756565b908152602001604051809103902060009054906101000a900460ff16600381111561077c5761077b615246565b5b146107b3576040517f8ac8e00b00000000000000000000000000000000000000000000000000000000815260040160405180910390fd5b6007600160003373ffffffffffffffffffffffffffffffffffffffff1673ffffffffffffffffffffffffffffffffffffffff1681526020019081526020016000206040516108019190615805565b9081526020016040518091039020805480602002602001604051908101604052809291908181526020016000905b828210156108db57838290600052602060002001805461084e906156f4565b80601f016020809104026020016040519081016040528092919081815260200182805461087a906156f4565b80156108c75780601f1061089c576101008083540402835291602001916108c7565b820191906000526020600020905b8154815290600101906020018083116108aa57829003601f168201915b50505050508152602001906001019061082f565b5050505091505090565b6000600b836040516108f79190615756565b9081526020016040518091039020826040516109139190615756565b908152602001604051809103902060009054906101000a900460ff16905092915050565b60008054906101000a900473ffffffffffffffffffffffffffffffffffffffff1673ffffffffffffffffffffffffffffffffffffffff163373ffffffffffffffffffffffffffffffffffffffff16146109bc576040517f2dca963600000000000000000000000000000000000000000000000000000000815260040160405180910390fd5b600060038111156109d0576109cf615246565b5b600383836040516109e29291906156ac565b908152602001604051809103902060009054906101000a900460ff166003811115610a1057610a0f615246565b5b03610a47576040517f567e9be600000000000000000000000000000000000000000000000000000000815260040160405180910390fd5b600380811115610a5a57610a59615246565b5b60038383604051610a6c9291906156ac565b908152602001604051809103902060009054906101000a900460ff166003811115610a9a57610a99615246565b5b03610ad1576040517f20f935a000000000000000000000000000000000000000000000000000000000815260040160405180910390fd5b6003808383604051610ae49291906156ac565b908152602001604051809103902060006101000a81548160ff02191690836003811115610b1457610b13615246565b5b02179055505050565b60606000600160003373ffffffffffffffffffffffffffffffffffffffff1673ffffffffffffffffffffffffffffffffffffffff1681526020019081526020016000208054610b6b906156f4565b80601f0160208091040260200160405190810160405280929190818152602001828054610b97906156f4565b8015610be45780601f10610bb957610100808354040283529160200191610be4565b820191906000526020600020905b815481529060010190602001808311610bc757829003601f168201915b5050505050905060006003811115610bff57610bfe615246565b5b600382604051610c0f9190615756565b908152602001604051809103902060009054906101000a900460ff166003811115610c3d57610c3c615246565b5b03610c74576040517f8fa622f500000000000000000000000000000000000000000000000000000000815260040160405180910390fd5b60026003811115610c8857610c87615246565b5b600382604051610c989190615756565b908152602001604051809103902060009054906101000a900460ff166003811115610cc657610cc5615246565b5b14610cfd576040517f8ac8e00b00000000000000000000000000000000000000000000000000000000815260040160405180910390fd5b868660006001811115610d1357610d12615246565b5b60088383604051610d259291906156ac565b908152602001604051809103902060009054906101000a900460ff166001811115610d5357610d52615246565b5b03610d8a576040517f078de8bf00000000000000000000000000000000000000000000000000000000815260040160405180910390fd5b6000600160003373ffffffffffffffffffffffffffffffffffffffff1673ffffffffffffffffffffffffffffffffffffffff1681526020019081526020016000208054610dd6906156f4565b80601f0160208091040260200160405190810160405280929190818152602001828054610e02906156f4565b8015610e4f5780601f10610e2457610100808354040283529160200191610e4f565b820191906000526020600020905b815481529060010190602001808311610e3257829003601f168201915b50505050509050600060098484604051610e6a9291906156ac565b9081526020016040518091039020604051610e8490615868565b90815260200160405180910390208054610e9d906156f4565b80601f0160208091040260200160405190810160405280929190818152602001828054610ec9906156f4565b8015610f165780601f10610eeb57610100808354040283529160200191610f16565b820191906000526020600020905b815481529060010190602001808311610ef957829003601f168201915b5050505050905080604051602001610f2e9190615756565b6040516020818303038152906040528051906020012082604051602001610f559190615756565b6040516020818303038152906040528051906020012014610fa2576040517fca7b7fb200000000000000000000000000000000000000000000000000000000815260040160405180910390fd5b86156110765760098b8b604051610fba9291906156ac565b90815260200160405180910390208989604051610fd89291906156ac565b90815260200160405180910390208054610ff1906156f4565b80601f016020809104026020016040519081016040528092919081815260200182805461101d906156f4565b801561106a5780601f1061103f5761010080835404028352916020019161106a565b820191906000526020600020905b81548152906001019060200180831161104d57829003601f168201915b5050505050955061114a565b8661114957600d8b8b60405161108d9291906156ac565b908152602001604051809103902089896040516110ab9291906156ac565b908152602001604051809103902080546110c4906156f4565b80601f01602080910402602001604051908101604052809291908181526020018280546110f0906156f4565b801561113d5780601f106111125761010080835404028352916020019161113d565b820191906000526020600020905b81548152906001019060200180831161112057829003601f168201915b5050505050955061114a565b5b505050505095945050505050565b6060600660003373ffffffffffffffffffffffffffffffffffffffff1673ffffffffffffffffffffffffffffffffffffffff16815260200190815260200160002080546111a4906156f4565b80601f01602080910402602001604051908101604052809291908181526020018280546111d0906156f4565b801561121d5780601f106111f25761010080835404028352916020019161121d565b820191906000526020600020905b81548152906001019060200180831161120057829003601f168201915b5050505050905090565b60606000600181111561123d5761123c615246565b5b6008868660405161124f9291906156ac565b908152602001604051809103902060009054906101000a900460ff16600181111561127d5761127c615246565b5b036112b4576040517f078de8bf00000000000000000000000000000000000000000000000000000000815260040160405180910390fd5b600e60003373ffffffffffffffffffffffffffffffffffffffff1673ffffffffffffffffffffffffffffffffffffffff16815260200190815260200160002085856040516113039291906156ac565b908152602001604051809103902083836040516113219291906156ac565b908152602001604051809103902060009054906101000a900460ff16611373576040517f722f899200000000000000000000000000000000000000000000000000000000815260040160405180910390fd5b600985856040516113859291906156ac565b908152602001604051809103902083836040516113a39291906156ac565b908152602001604051809103902080546113bc906156f4565b80601f01602080910402602001604051908101604052809291908181526020018280546113e8906156f4565b80156114355780601f1061140a57610100808354040283529160200191611435565b820191906000526020600020905b81548152906001019060200180831161141857829003601f168201915b50505050509050949350505050565b6000600883836040516114589291906156ac565b908152602001604051809103902060009054906101000a900460ff16905092915050565b6060600160003373ffffffffffffffffffffffffffffffffffffffff1673ffffffffffffffffffffffffffffffffffffffff16815260200190815260200160002080546114c8906156f4565b80601f01602080910402602001604051908101604052809291908181526020018280546114f4906156f4565b80156115415780601f1061151657610100808354040283529160200191611541565b820191906000526020600020905b81548152906001019060200180831161152457829003601f168201915b5050505050905090565b6000600160003373ffffffffffffffffffffffffffffffffffffffff1673ffffffffffffffffffffffffffffffffffffffff1681526020019081526020016000208054611597906156f4565b80601f01602080910402602001604051908101604052809291908181526020018280546115c3906156f4565b80156116105780601f106115e557610100808354040283529160200191611610565b820191906000526020600020905b8154815290600101906020018083116115f357829003601f168201915b505050505090506000600381111561162b5761162a615246565b5b60038260405161163b9190615756565b908152602001604051809103902060009054906101000a900460ff16600381111561166957611668615246565b5b036116a0576040517f8fa622f500000000000000000000000000000000000000000000000000000000815260040160405180910390fd5b600260038111156116b4576116b3615246565b5b6003826040516116c49190615756565b908152602001604051809103902060009054906101000a900460ff1660038111156116f2576116f1615246565b5b14611729576040517f8ac8e00b00000000000000000000000000000000000000000000000000000000815260040160405180910390fd5b6000600160003373ffffffffffffffffffffffffffffffffffffffff1673ffffffffffffffffffffffffffffffffffffffff1681526020019081526020016000208054611775906156f4565b80601f01602080910402602001604051908101604052809291908181526020018280546117a1906156f4565b80156117ee5780601f106117c3576101008083540402835291602001916117ee565b820191906000526020600020905b8154815290600101906020018083116117d157829003601f168201915b5050505050905060006118008a614584565b905080600660008c73ffffffffffffffffffffffffffffffffffffffff1673ffffffffffffffffffffffffffffffffffffffff168152602001908152602001600020908161184e9190615a1e565b5060078260405161185f9190615756565b90815260200160405180910390208190806001815401808255809150506001900390600052602060002001600090919091909150908161189f9190615a1e565b5060016008826040516118b29190615756565b908152602001604051809103902060006101000a81548160ff021916908360018111156118e2576118e1615246565b5b0217905550611927816040518060400160405280600a81526020017f436f6c6c65676520496400000000000000000000000000000000000000000000815250846145c3565b6119ab816040518060400160405280600c81526020017f53747564656e74204e616d6500000000000000000000000000000000000000008152508b8b8080601f016020809104026020016040519081016040528093929190818152602001838380828437600081840152601f19601f820116905080830192505050505050506145c3565b611a2f816040518060400160405280600b81526020017f53747564656e742041676500000000000000000000000000000000000000000081525089898080601f016020809104026020016040519081016040528093929190818152602001838380828437600081840152601f19601f820116905080830192505050505050506145c3565b611ab3816040518060400160405280601281526020017f53747564656e742050657263656e74616765000000000000000000000000000081525087878080601f016020809104026020016040519081016040528093929190818152602001838380828437600081840152601f19601f820116905080830192505050505050506145c3565b50505050505050505050565b6000611aca33614584565b905080600160003373ffffffffffffffffffffffffffffffffffffffff1673ffffffffffffffffffffffffffffffffffffffff1681526020019081526020016000209081611b189190615a1e565b50600281908060018154018082558091505060019003906000526020600020016000909190919091509081611b4d9190615a1e565b506001600382604051611b609190615756565b908152602001604051809103902060006101000a81548160ff02191690836003811115611b9057611b8f615246565b5b0217905550611c19816040518060400160405280600c81526020017f436f6c6c656765204e616d65000000000000000000000000000000000000000081525085858080601f016020809104026020016040519081016040528093929190818152602001838380828437600081840152601f19601f82011690508083019250505050505050614733565b505050565b60606002805480602002602001604051908101604052809291908181526020016000905b82821015611cee578382906000526020600020018054611c61906156f4565b80601f0160208091040260200160405190810160405280929190818152602001828054611c8d906156f4565b8015611cda5780601f10611caf57610100808354040283529160200191611cda565b820191906000526020600020905b815481529060010190602001808311611cbd57829003601f168201915b505050505081526020019060010190611c42565b50505050905090565b60008060009054906101000a900473ffffffffffffffffffffffffffffffffffffffff16905090565b6000600160003373ffffffffffffffffffffffffffffffffffffffff1673ffffffffffffffffffffffffffffffffffffffff1681526020019081526020016000208054611d6c906156f4565b80601f0160208091040260200160405190810160405280929190818152602001828054611d98906156f4565b8015611de55780601f10611dba57610100808354040283529160200191611de5565b820191906000526020600020905b815481529060010190602001808311611dc857829003601f168201915b5050505050905060006003811115611e0057611dff615246565b5b600382604051611e109190615756565b908152602001604051809103902060009054906101000a900460ff166003811115611e3e57611e3d615246565b5b03611e75576040517f8fa622f500000000000000000000000000000000000000000000000000000000815260040160405180910390fd5b60026003811115611e8957611e88615246565b5b600382604051611e999190615756565b908152602001604051809103902060009054906101000a900460ff166003811115611ec757611ec6615246565b5b14611efe576040517f8ac8e00b00000000000000000000000000000000000000000000000000000000815260040160405180910390fd5b868660006001811115611f1457611f13615246565b5b60088383604051611f269291906156ac565b908152602001604051809103902060009054906101000a900460ff166001811115611f5457611f53615246565b5b03611f8b576040517f078de8bf00000000000000000000000000000000000000000000000000000000815260040160405180910390fd5b6000600160003373ffffffffffffffffffffffffffffffffffffffff1673ffffffffffffffffffffffffffffffffffffffff1681526020019081526020016000208054611fd7906156f4565b80601f0160208091040260200160405190810160405280929190818152602001828054612003906156f4565b80156120505780601f1061202557610100808354040283529160200191612050565b820191906000526020600020905b81548152906001019060200180831161203357829003601f168201915b5050505050905060006009848460405161206b9291906156ac565b908152602001604051809103902060405161208590615868565b9081526020016040518091039020805461209e906156f4565b80601f01602080910402602001604051908101604052809291908181526020018280546120ca906156f4565b80156121175780601f106120ec57610100808354040283529160200191612117565b820191906000526020600020905b8154815290600101906020018083116120fa57829003601f168201915b505050505090508060405160200161212f9190615756565b60405160208183030381529060405280519060200120826040516020016121569190615756565b60405160208183030381529060405280519060200120146121a3576040517fca7b7fb200000000000000000000000000000000000000000000000000000000815260040160405180910390fd5b8686905089899050146121e2576040517f79b3f46f00000000000000000000000000000000000000000000000000000000815260040160405180910390fd5b60005b898990508110156123c857600088888381811061220557612204615af0565b5b90506020028101906122179190615b2e565b8080601f016020809104026020016040519081016040528093929190818152602001838380828437600081840152601f19601f8201169050808301925050505050505090506000815103612297576040517f47b4af9400000000000000000000000000000000000000000000000000000000815260040160405180910390fd5b6123b48d8d8080601f016020809104026020016040519081016040528093929190818152602001838380828437600081840152601f19601f820116905080830192505050505050508c8c858181106122f2576122f1615af0565b5b90506020028101906123049190615b2e565b8080601f016020809104026020016040519081016040528093929190818152602001838380828437600081840152601f19601f820116905080830192505050505050508b8b8681811061235a57612359615af0565b5b905060200281019061236c9190615b2e565b8080601f016020809104026020016040519081016040528093929190818152602001838380828437600081840152601f19601f820116905080830192505050505050506145c3565b5080806123c090615bc0565b9150506121e5565b505050505050505050505050565b6000600160003373ffffffffffffffffffffffffffffffffffffffff1673ffffffffffffffffffffffffffffffffffffffff1681526020019081526020016000208054612422906156f4565b80601f016020809104026020016040519081016040528092919081815260200182805461244e906156f4565b801561249b5780601f106124705761010080835404028352916020019161249b565b820191906000526020600020905b81548152906001019060200180831161247e57829003601f168201915b50505050509050600060038111156124b6576124b5615246565b5b6003826040516124c69190615756565b908152602001604051809103902060009054906101000a900460ff1660038111156124f4576124f3615246565b5b0361252b576040517f8fa622f500000000000000000000000000000000000000000000000000000000815260040160405180910390fd5b6002600381111561253f5761253e615246565b5b60038260405161254f9190615756565b908152602001604051809103902060009054906101000a900460ff16600381111561257d5761257c615246565b5b146125b4576040517f8ac8e00b00000000000000000000000000000000000000000000000000000000815260040160405180910390fd5b600083838080601f016020809104026020016040519081016040528093929190818152602001838380828437600081840152601f19601f8201169050808301925050505050505090506000815103612638576040517f47b4af9400000000000000000000000000000000000000000000000000000000815260040160405180910390fd5b6000600160003373ffffffffffffffffffffffffffffffffffffffff1673ffffffffffffffffffffffffffffffffffffffff1681526020019081526020016000208054612684906156f4565b80601f01602080910402602001604051908101604052809291908181526020018280546126b0906156f4565b80156126fd5780601f106126d2576101008083540402835291602001916126fd565b820191906000526020600020905b8154815290600101906020018083116126e057829003601f168201915b505050505090506127978188888080601f016020809104026020016040519081016040528093929190818152602001838380828437600081840152601f19601f8201169050808301925050505050505087878080601f016020809104026020016040519081016040528093929190818152602001838380828437600081840152601f19601f82011690508083019250505050505050614733565b50505050505050565b6060600485856040516127b49291906156ac565b908152602001604051809103902083836040516127d29291906156ac565b908152602001604051809103902080546127eb906156f4565b80601f0160208091040260200160405190810160405280929190818152602001828054612817906156f4565b80156128645780601f1061283957610100808354040283529160200191612864565b820191906000526020600020905b81548152906001019060200180831161284757829003601f168201915b50505050509050949350505050565b6000600660003373ffffffffffffffffffffffffffffffffffffffff1673ffffffffffffffffffffffffffffffffffffffff16815260200190815260200160002080546128bf906156f4565b80601f01602080910402602001604051908101604052809291908181526020018280546128eb906156f4565b80156129385780601f1061290d57610100808354040283529160200191612938565b820191906000526020600020905b81548152906001019060200180831161291b57829003601f168201915b505050505090506000600181111561295357612952615246565b5b6008826040516129639190615756565b908152602001604051809103902060009054906101000a900460ff16600181111561299157612990615246565b5b036129c8576040517f078de8bf00000000000000000000000000000000000000000000000000000000815260040160405180910390fd5b6000600660003373ffffffffffffffffffffffffffffffffffffffff1673ffffffffffffffffffffffffffffffffffffffff1681526020019081526020016000208054612a14906156f4565b80601f0160208091040260200160405190810160405280929190818152602001828054612a40906156f4565b8015612a8d5780601f10612a6257610100808354040283529160200191612a8d565b820191906000526020600020905b815481529060010190602001808311612a7057829003601f168201915b505050505090506001600e60008773ffffffffffffffffffffffffffffffffffffffff1673ffffffffffffffffffffffffffffffffffffffff16815260200190815260200160002082604051612ae39190615756565b90815260200160405180910390208585604051612b019291906156ac565b908152602001604051809103902060006101000a81548160ff0219169083151502179055505050505050565b606060058383604051612b419291906156ac565b9081526020016040518091039020805480602002602001604051908101604052809291908181526020016000905b82821015612c1b578382906000526020600020018054612b8e906156f4565b80601f0160208091040260200160405190810160405280929190818152602001828054612bba906156f4565b8015612c075780601f10612bdc57610100808354040283529160200191612c07565b820191906000526020600020905b815481529060010190602001808311612bea57829003601f168201915b505050505081526020019060010190612b6f565b50505050905092915050565b6000600660003373ffffffffffffffffffffffffffffffffffffffff1673ffffffffffffffffffffffffffffffffffffffff1681526020019081526020016000208054612c73906156f4565b80601f0160208091040260200160405190810160405280929190818152602001828054612c9f906156f4565b8015612cec5780601f10612cc157610100808354040283529160200191612cec565b820191906000526020600020905b815481529060010190602001808311612ccf57829003601f168201915b5050505050905060006001811115612d0757612d06615246565b5b600882604051612d179190615756565b908152602001604051809103902060009054906101000a900460ff166001811115612d4557612d44615246565b5b03612d7c576040517f078de8bf00000000000000000000000000000000000000000000000000000000815260040160405180910390fd5b828290508585905014612dbb576040517f79b3f46f00000000000000000000000000000000000000000000000000000000815260040160405180910390fd5b6000600660003373ffffffffffffffffffffffffffffffffffffffff1673ffffffffffffffffffffffffffffffffffffffff1681526020019081526020016000208054612e07906156f4565b80601f0160208091040260200160405190810160405280929190818152602001828054612e33906156f4565b8015612e805780601f10612e5557610100808354040283529160200191612e80565b820191906000526020600020905b815481529060010190602001808311612e6357829003601f168201915b5050505050905060005b8686905081101561306557600b82604051612ea59190615756565b9081526020016040518091039020878783818110612ec657612ec5615af0565b5b9050602002810190612ed89190615b2e565b604051612ee69291906156ac565b908152602001604051809103902060009054906101000a900460ff16612f38576040517f722f899200000000000000000000000000000000000000000000000000000000815260040160405180910390fd5b6001600c83604051612f4a9190615756565b9081526020016040518091039020888884818110612f6b57612f6a615af0565b5b9050602002810190612f7d9190615b2e565b604051612f8b9291906156ac565b908152602001604051809103902060006101000a81548160ff02191690836002811115612fbb57612fba615246565b5b0217905550848482818110612fd357612fd2615af0565b5b9050602002810190612fe59190615b2e565b600d84604051612ff59190615756565b908152602001604051809103902089898581811061301657613015615af0565b5b90506020028101906130289190615b2e565b6040516130369291906156ac565b90815260200160405180910390209182613051929190615c13565b50808061305d90615bc0565b915050612e8a565b50505050505050565b6000600160003373ffffffffffffffffffffffffffffffffffffffff1673ffffffffffffffffffffffffffffffffffffffff16815260200190815260200160002080546130ba906156f4565b80601f01602080910402602001604051908101604052809291908181526020018280546130e6906156f4565b80156131335780601f1061310857610100808354040283529160200191613133565b820191906000526020600020905b81548152906001019060200180831161311657829003601f168201915b505050505090506000600381111561314e5761314d615246565b5b60038260405161315e9190615756565b908152602001604051809103902060009054906101000a900460ff16600381111561318c5761318b615246565b5b036131c3576040517f8fa622f500000000000000000000000000000000000000000000000000000000815260040160405180910390fd5b600260038111156131d7576131d6615246565b5b6003826040516131e79190615756565b908152602001604051809103902060009054906101000a900460ff16600381111561321557613214615246565b5b1461324c576040517f8ac8e00b00000000000000000000000000000000000000000000000000000000815260040160405180910390fd5b84846000600181111561326257613261615246565b5b600883836040516132749291906156ac565b908152602001604051809103902060009054906101000a900460ff1660018111156132a2576132a1615246565b5b036132d9576040517f078de8bf00000000000000000000000000000000000000000000000000000000815260040160405180910390fd5b6000600160003373ffffffffffffffffffffffffffffffffffffffff1673ffffffffffffffffffffffffffffffffffffffff1681526020019081526020016000208054613325906156f4565b80601f0160208091040260200160405190810160405280929190818152602001828054613351906156f4565b801561339e5780601f106133735761010080835404028352916020019161339e565b820191906000526020600020905b81548152906001019060200180831161338157829003601f168201915b505050505090506000600984846040516133b99291906156ac565b90815260200160405180910390206040516133d390615868565b908152602001604051809103902080546133ec906156f4565b80601f0160208091040260200160405190810160405280929190818152602001828054613418906156f4565b80156134655780601f1061343a57610100808354040283529160200191613465565b820191906000526020600020905b81548152906001019060200180831161344857829003601f168201915b505050505090508060405160200161347d9190615756565b60405160208183030381529060405280519060200120826040516020016134a49190615756565b60405160208183030381529060405280519060200120146134f1576040517fca7b7fb200000000000000000000000000000000000000000000000000000000815260040160405180910390fd5b6000600c8a8a6040516135059291906156ac565b908152602001604051809103902088886040516135239291906156ac565b908152602001604051809103902060006101000a81548160ff0219169083600281111561355357613552615246565b5b0217905550600d898960405161356a9291906156ac565b908152602001604051809103902087876040516135889291906156ac565b908152602001604051809103902060098a8a6040516135a89291906156ac565b908152602001604051809103902088886040516135c69291906156ac565b908152602001604051809103902090816135e09190615d0e565b50505050505050505050565b6000600383836040516136009291906156ac565b908152602001604051809103902060009054906101000a900460ff16905092915050565b60008054906101000a900473ffffffffffffffffffffffffffffffffffffffff1673ffffffffffffffffffffffffffffffffffffffff163373ffffffffffffffffffffffffffffffffffffffff16146136a9576040517f2dca963600000000000000000000000000000000000000000000000000000000815260040160405180910390fd5b600060038111156136bd576136bc615246565b5b600383836040516136cf9291906156ac565b908152602001604051809103902060009054906101000a900460ff1660038111156136fd576136fc615246565b5b03613734576040517f567e9be600000000000000000000000000000000000000000000000000000000815260040160405180910390fd5b6002600381111561374857613747615246565b5b6003838360405161375a9291906156ac565b908152602001604051809103902060009054906101000a900460ff16600381111561378857613787615246565b5b036137bf576040517f61fd49df00000000000000000000000000000000000000000000000000000000815260040160405180910390fd5b6002600383836040516137d39291906156ac565b908152602001604051809103902060006101000a81548160ff0219169083600381111561380357613802615246565b5b02179055505050565b600080600160003373ffffffffffffffffffffffffffffffffffffffff1673ffffffffffffffffffffffffffffffffffffffff1681526020019081526020016000208054613859906156f4565b80601f0160208091040260200160405190810160405280929190818152602001828054613885906156f4565b80156138d25780601f106138a7576101008083540402835291602001916138d2565b820191906000526020600020905b8154815290600101906020018083116138b557829003601f168201915b50505050509050600060038111156138ed576138ec615246565b5b6003826040516138fd9190615756565b908152602001604051809103902060009054906101000a900460ff16600381111561392b5761392a615246565b5b03613962576040517f8fa622f500000000000000000000000000000000000000000000000000000000815260040160405180910390fd5b6002600381111561397657613975615246565b5b6003826040516139869190615756565b908152602001604051809103902060009054906101000a900460ff1660038111156139b4576139b3615246565b5b146139eb576040517f8ac8e00b00000000000000000000000000000000000000000000000000000000815260040160405180910390fd5b858560006001811115613a0157613a00615246565b5b60088383604051613a139291906156ac565b908152602001604051809103902060009054906101000a900460ff166001811115613a4157613a40615246565b5b03613a78576040517f078de8bf00000000000000000000000000000000000000000000000000000000815260040160405180910390fd5b6000600160003373ffffffffffffffffffffffffffffffffffffffff1673ffffffffffffffffffffffffffffffffffffffff1681526020019081526020016000208054613ac4906156f4565b80601f0160208091040260200160405190810160405280929190818152602001828054613af0906156f4565b8015613b3d5780601f10613b1257610100808354040283529160200191613b3d565b820191906000526020600020905b815481529060010190602001808311613b2057829003601f168201915b50505050509050600060098484604051613b589291906156ac565b9081526020016040518091039020604051613b7290615868565b90815260200160405180910390208054613b8b906156f4565b80601f0160208091040260200160405190810160405280929190818152602001828054613bb7906156f4565b8015613c045780601f10613bd957610100808354040283529160200191613c04565b820191906000526020600020905b815481529060010190602001808311613be757829003601f168201915b5050505050905080604051602001613c1c9190615756565b6040516020818303038152906040528051906020012082604051602001613c439190615756565b6040516020818303038152906040528051906020012014613c90576040517fca7b7fb200000000000000000000000000000000000000000000000000000000815260040160405180910390fd5b600c8a8a604051613ca29291906156ac565b90815260200160405180910390208888604051613cc09291906156ac565b908152602001604051809103902060009054906101000a900460ff1695505050505050949350505050565b6060600a8383604051613cff9291906156ac565b9081526020016040518091039020805480602002602001604051908101604052809291908181526020016000905b82821015613dd9578382906000526020600020018054613d4c906156f4565b80601f0160208091040260200160405190810160405280929190818152602001828054613d78906156f4565b8015613dc55780601f10613d9a57610100808354040283529160200191613dc5565b820191906000526020600020905b815481529060010190602001808311613da857829003601f168201915b505050505081526020019060010190613d2d565b50505050905092915050565b6000600660003373ffffffffffffffffffffffffffffffffffffffff1673ffffffffffffffffffffffffffffffffffffffff1681526020019081526020016000208054613e31906156f4565b80601f0160208091040260200160405190810160405280929190818152602001828054613e5d906156f4565b8015613eaa5780601f10613e7f57610100808354040283529160200191613eaa565b820191906000526020600020905b815481529060010190602001808311613e8d57829003601f168201915b5050505050905060006001811115613ec557613ec4615246565b5b600882604051613ed59190615756565b908152602001604051809103902060009054906101000a900460ff166001811115613f0357613f02615246565b5b03613f3a576040517f078de8bf00000000000000000000000000000000000000000000000000000000815260040160405180910390fd5b6000600660003373ffffffffffffffffffffffffffffffffffffffff1673ffffffffffffffffffffffffffffffffffffffff1681526020019081526020016000208054613f86906156f4565b80601f0160208091040260200160405190810160405280929190818152602001828054613fb2906156f4565b8015613fff5780601f10613fd457610100808354040283529160200191613fff565b820191906000526020600020905b815481529060010190602001808311613fe257829003601f168201915b505050505090506000600e60008773ffffffffffffffffffffffffffffffffffffffff1673ffffffffffffffffffffffffffffffffffffffff168152602001908152602001600020826040516140559190615756565b908152602001604051809103902085856040516140739291906156ac565b908152602001604051809103902060006101000a81548160ff0219169083151502179055505050505050565b6000600160003373ffffffffffffffffffffffffffffffffffffffff1673ffffffffffffffffffffffffffffffffffffffff16815260200190815260200160002080546140eb906156f4565b80601f0160208091040260200160405190810160405280929190818152602001828054614117906156f4565b80156141645780601f1061413957610100808354040283529160200191614164565b820191906000526020600020905b81548152906001019060200180831161414757829003601f168201915b505050505090506000600381111561417f5761417e615246565b5b60038260405161418f9190615756565b908152602001604051809103902060009054906101000a900460ff1660038111156141bd576141bc615246565b5b036141f4576040517f8fa622f500000000000000000000000000000000000000000000000000000000815260040160405180910390fd5b6002600381111561420857614207615246565b5b6003826040516142189190615756565b908152602001604051809103902060009054906101000a900460ff16600381111561424657614245615246565b5b1461427d576040517f8ac8e00b00000000000000000000000000000000000000000000000000000000815260040160405180910390fd5b85856000600181111561429357614292615246565b5b600883836040516142a59291906156ac565b908152602001604051809103902060009054906101000a900460ff1660018111156142d3576142d2615246565b5b0361430a576040517f078de8bf00000000000000000000000000000000000000000000000000000000815260040160405180910390fd5b6000600160003373ffffffffffffffffffffffffffffffffffffffff1673ffffffffffffffffffffffffffffffffffffffff1681526020019081526020016000208054614356906156f4565b80601f0160208091040260200160405190810160405280929190818152602001828054614382906156f4565b80156143cf5780601f106143a4576101008083540402835291602001916143cf565b820191906000526020600020905b8154815290600101906020018083116143b257829003601f168201915b505050505090506000600984846040516143ea9291906156ac565b908152602001604051809103902060405161440490615868565b9081526020016040518091039020805461441d906156f4565b80601f0160208091040260200160405190810160405280929190818152602001828054614449906156f4565b80156144965780601f1061446b57610100808354040283529160200191614496565b820191906000526020600020905b81548152906001019060200180831161447957829003601f168201915b50505050509050806040516020016144ae9190615756565b60405160208183030381529060405280519060200120826040516020016144d59190615756565b6040516020818303038152906040528051906020012014614522576040517fca7b7fb200000000000000000000000000000000000000000000000000000000815260040160405180910390fd5b85600b8b8b6040516145359291906156ac565b908152602001604051809103902089896040516145539291906156ac565b908152602001604051809103902060006101000a81548160ff02191690831515021790555050505050505050505050565b60606145bc82424460405160200161459e93929190615e5f565b6040516020818303038152906040528051906020012060001c6148a3565b9050919050565b60006009846040516145d59190615756565b9081526020016040518091039020836040516145f19190615756565b9081526020016040518091039020805461460a906156f4565b80601f0160208091040260200160405190810160405280929190818152602001828054614636906156f4565b80156146835780601f1061465857610100808354040283529160200191614683565b820191906000526020600020905b81548152906001019060200180831161466657829003601f168201915b5050505050905060008151036146e557600a846040516146a39190615756565b9081526020016040518091039020839080600181540180825580915050600190039060005260206000200160009091909190915090816146e39190615a1e565b505b816009856040516146f69190615756565b9081526020016040518091039020846040516147129190615756565b9081526020016040518091039020908161472c9190615a1e565b5050505050565b60006004846040516147459190615756565b9081526020016040518091039020836040516147619190615756565b9081526020016040518091039020805461477a906156f4565b80601f01602080910402602001604051908101604052809291908181526020018280546147a6906156f4565b80156147f35780601f106147c8576101008083540402835291602001916147f3565b820191906000526020600020905b8154815290600101906020018083116147d657829003601f168201915b505050505090506000815103614855576005846040516148139190615756565b9081526020016040518091039020839080600181540180825580915050600190039060005260206000200160009091909190915090816148539190615a1e565b505b816004856040516148669190615756565b9081526020016040518091039020846040516148829190615756565b9081526020016040518091039020908161489c9190615a1e565b5050505050565b60606148ba8260016148b4856148c1565b01614951565b9050919050565b600080600090506000608084901c11156148e357608083901c92506010810190505b6000604084901c11156148fe57604083901c92506008810190505b6000602084901c111561491957602083901c92506004810190505b6000601084901c111561493457601083901c92506002810190505b6000600884901c1115614948576001810190505b80915050919050565b6060600060028360026149649190615e9c565b61496e9190615ede565b67ffffffffffffffff81111561498757614986614ea8565b5b6040519080825280601f01601f1916602001820160405280156149b95781602001600182028036833780820191505090505b5090507f3000000000000000000000000000000000000000000000000000000000000000816000815181106149f1576149f0615af0565b5b60200101907effffffffffffffffffffffffffffffffffffffffffffffffffffffffffffff1916908160001a9053507f780000000000000000000000000000000000000000000000000000000000000081600181518110614a5557614a54615af0565b5b60200101907effffffffffffffffffffffffffffffffffffffffffffffffffffffffffffff1916908160001a90535060006001846002614a959190615e9c565b614a9f9190615ede565b90505b6001811115614b3f577f3031323334353637383961626364656600000000000000000000000000000000600f861660108110614ae157614ae0615af0565b5b1a60f81b828281518110614af857614af7615af0565b5b60200101907effffffffffffffffffffffffffffffffffffffffffffffffffffffffffffff1916908160001a905350600485901c945080614b3890615f12565b9050614aa2565b5060008414614b83576040517f08c379a0000000000000000000000000000000000000000000000000000000008152600401614b7a90615f87565b60405180910390fd5b8091505092915050565b6000604051905090565b600080fd5b600080fd5b600073ffffffffffffffffffffffffffffffffffffffff82169050919050565b6000614bcc82614ba1565b9050919050565b614bdc81614bc1565b8114614be757600080fd5b50565b600081359050614bf981614bd3565b92915050565b600080fd5b600080fd5b600080fd5b60008083601f840112614c2457614c23614bff565b5b8235905067ffffffffffffffff811115614c4157614c40614c04565b5b602083019150836001820283011115614c5d57614c5c614c09565b5b9250929050565b600080600080600060608688031215614c8057614c7f614b97565b5b6000614c8e88828901614bea565b955050602086013567ffffffffffffffff811115614caf57614cae614b9c565b5b614cbb88828901614c0e565b9450945050604086013567ffffffffffffffff811115614cde57614cdd614b9c565b5b614cea88828901614c0e565b92509250509295509295909350565b60008115159050919050565b614d0e81614cf9565b82525050565b6000602082019050614d296000830184614d05565b92915050565b600081519050919050565b600082825260208201905092915050565b6000819050602082019050919050565b600081519050919050565b600082825260208201905092915050565b60005b83811015614d95578082015181840152602081019050614d7a565b60008484015250505050565b6000601f19601f8301169050919050565b6000614dbd82614d5b565b614dc78185614d66565b9350614dd7818560208601614d77565b614de081614da1565b840191505092915050565b6000614df78383614db2565b905092915050565b6000602082019050919050565b6000614e1782614d2f565b614e218185614d3a565b935083602082028501614e3385614d4b565b8060005b85811015614e6f5784840389528151614e508582614deb565b9450614e5b83614dff565b925060208a01995050600181019050614e37565b50829750879550505050505092915050565b60006020820190508181036000830152614e9b8184614e0c565b905092915050565b600080fd5b7f4e487b7100000000000000000000000000000000000000000000000000000000600052604160045260246000fd5b614ee082614da1565b810181811067ffffffffffffffff82111715614eff57614efe614ea8565b5b80604052505050565b6000614f12614b8d565b9050614f1e8282614ed7565b919050565b600067ffffffffffffffff821115614f3e57614f3d614ea8565b5b614f4782614da1565b9050602081019050919050565b82818337600083830152505050565b6000614f76614f7184614f23565b614f08565b905082815260208101848484011115614f9257614f91614ea3565b5b614f9d848285614f54565b509392505050565b600082601f830112614fba57614fb9614bff565b5b8135614fca848260208601614f63565b91505092915050565b60008060408385031215614fea57614fe9614b97565b5b600083013567ffffffffffffffff81111561500857615007614b9c565b5b61501485828601614fa5565b925050602083013567ffffffffffffffff81111561503557615034614b9c565b5b61504185828601614fa5565b9150509250929050565b6000806020838503121561506257615061614b97565b5b600083013567ffffffffffffffff8111156150805761507f614b9c565b5b61508c85828601614c0e565b92509250509250929050565b6150a181614cf9565b81146150ac57600080fd5b50565b6000813590506150be81615098565b92915050565b6000806000806000606086880312156150e0576150df614b97565b5b600086013567ffffffffffffffff8111156150fe576150fd614b9c565b5b61510a88828901614c0e565b9550955050602086013567ffffffffffffffff81111561512d5761512c614b9c565b5b61513988828901614c0e565b9350935050604061514c888289016150af565b9150509295509295909350565b600082825260208201905092915050565b600061517582614d5b565b61517f8185615159565b935061518f818560208601614d77565b61519881614da1565b840191505092915050565b600060208201905081810360008301526151bd818461516a565b905092915050565b600080600080604085870312156151df576151de614b97565b5b600085013567ffffffffffffffff8111156151fd576151fc614b9c565b5b61520987828801614c0e565b9450945050602085013567ffffffffffffffff81111561522c5761522b614b9c565b5b61523887828801614c0e565b925092505092959194509250565b7f4e487b7100000000000000000000000000000000000000000000000000000000600052602160045260246000fd5b6002811061528657615285615246565b5b50565b600081905061529782615275565b919050565b60006152a782615289565b9050919050565b6152b78161529c565b82525050565b60006020820190506152d260008301846152ae565b92915050565b60008060008060008060006080888a0312156152f7576152f6614b97565b5b60006153058a828b01614bea565b975050602088013567ffffffffffffffff81111561532657615325614b9c565b5b6153328a828b01614c0e565b9650965050604088013567ffffffffffffffff81111561535557615354614b9c565b5b6153618a828b01614c0e565b9450945050606088013567ffffffffffffffff81111561538457615383614b9c565b5b6153908a828b01614c0e565b925092505092959891949750929550565b6153aa81614bc1565b82525050565b60006020820190506153c560008301846153a1565b92915050565b60008083601f8401126153e1576153e0614bff565b5b8235905067ffffffffffffffff8111156153fe576153fd614c04565b5b60208301915083602082028301111561541a57615419614c09565b5b9250929050565b6000806000806000806060878903121561543e5761543d614b97565b5b600087013567ffffffffffffffff81111561545c5761545b614b9c565b5b61546889828a01614c0e565b9650965050602087013567ffffffffffffffff81111561548b5761548a614b9c565b5b61549789828a016153cb565b9450945050604087013567ffffffffffffffff8111156154ba576154b9614b9c565b5b6154c689828a016153cb565b92509250509295509295509295565b6000806000604084860312156154ee576154ed614b97565b5b60006154fc86828701614bea565b935050602084013567ffffffffffffffff81111561551d5761551c614b9c565b5b61552986828701614c0e565b92509250509250925092565b6000806000806040858703121561554f5761554e614b97565b5b600085013567ffffffffffffffff81111561556d5761556c614b9c565b5b615579878288016153cb565b9450945050602085013567ffffffffffffffff81111561559c5761559b614b9c565b5b6155a8878288016153cb565b925092505092959194509250565b600481106155c7576155c6615246565b5b50565b60008190506155d8826155b6565b919050565b60006155e8826155ca565b9050919050565b6155f8816155dd565b82525050565b600060208201905061561360008301846155ef565b92915050565b6003811061562a57615629615246565b5b50565b600081905061563b82615619565b919050565b600061564b8261562d565b9050919050565b61565b81615640565b82525050565b60006020820190506156766000830184615652565b92915050565b600081905092915050565b6000615693838561567c565b93506156a0838584614f54565b82840190509392505050565b60006156b9828486615687565b91508190509392505050565b7f4e487b7100000000000000000000000000000000000000000000000000000000600052602260045260246000fd5b6000600282049050600182168061570c57607f821691505b60208210810361571f5761571e6156c5565b5b50919050565b600061573082614d5b565b61573a818561567c565b935061574a818560208601614d77565b80840191505092915050565b60006157628284615725565b915081905092915050565b60008190508160005260206000209050919050565b6000815461578f816156f4565b615799818661567c565b945060018216600081146157b457600181146157c9576157fc565b60ff19831686528115158202860193506157fc565b6157d28561576d565b60005b838110156157f4578154818901526001820191506020810190506157d5565b838801955050505b50505092915050565b60006158118284615782565b915081905092915050565b7f436f6c6c65676520496400000000000000000000000000000000000000000000600082015250565b6000615852600a8361567c565b915061585d8261581c565b600a82019050919050565b600061587382615845565b9150819050919050565b60006020601f8301049050919050565b600082821b905092915050565b6000600883026158ca7fffffffffffffffffffffffffffffffffffffffffffffffffffffffffffffffff8261588d565b6158d4868361588d565b95508019841693508086168417925050509392505050565b6000819050919050565b6000819050919050565b600061591b615916615911846158ec565b6158f6565b6158ec565b9050919050565b6000819050919050565b61593583615900565b61594961594182615922565b84845461589a565b825550505050565b600090565b61595e615951565b61596981848461592c565b505050565b5b8181101561598d57615982600082615956565b60018101905061596f565b5050565b601f8211156159d2576159a38161576d565b6159ac8461587d565b810160208510156159bb578190505b6159cf6159c78561587d565b83018261596e565b50505b505050565b600082821c905092915050565b60006159f5600019846008026159d7565b1980831691505092915050565b6000615a0e83836159e4565b9150826002028217905092915050565b615a2782614d5b565b67ffffffffffffffff811115615a4057615a3f614ea8565b5b615a4a82546156f4565b615a55828285615991565b600060209050601f831160018114615a885760008415615a76578287015190505b615a808582615a02565b865550615ae8565b601f198416615a968661576d565b60005b82811015615abe57848901518255600182019150602085019450602081019050615a99565b86831015615adb5784890151615ad7601f8916826159e4565b8355505b6001600288020188555050505b505050505050565b7f4e487b7100000000000000000000000000000000000000000000000000000000600052603260045260246000fd5b600080fd5b600080fd5b600080fd5b60008083356001602003843603038112615b4b57615b4a615b1f565b5b80840192508235915067ffffffffffffffff821115615b6d57615b6c615b24565b5b602083019250600182023603831315615b8957615b88615b29565b5b509250929050565b7f4e487b7100000000000000000000000000000000000000000000000000000000600052601160045260246000fd5b6000615bcb826158ec565b91507fffffffffffffffffffffffffffffffffffffffffffffffffffffffffffffffff8203615bfd57615bfc615b91565b5b600182019050919050565b600082905092915050565b615c1d8383615c08565b67ffffffffffffffff811115615c3657615c35614ea8565b5b615c4082546156f4565b615c4b828285615991565b6000601f831160018114615c7a5760008415615c68578287013590505b615c728582615a02565b865550615cda565b601f198416615c888661576d565b60005b82811015615cb057848901358255600182019150602085019450602081019050615c8b565b86831015615ccd5784890135615cc9601f8916826159e4565b8355505b6001600288020188555050505b50505050505050565b600081549050615cf2816156f4565b9050919050565b60008190508160005260206000209050919050565b818103615d1c575050615df4565b615d2582615ce3565b67ffffffffffffffff811115615d3e57615d3d614ea8565b5b615d4882546156f4565b615d53828285615991565b6000601f831160018114615d825760008415615d70578287015490505b615d7a8582615a02565b865550615ded565b601f198416615d9087615cf9565b9650615d9b8661576d565b60005b82811015615dc357848901548255600182019150600185019450602081019050615d9e565b86831015615de05784890154615ddc601f8916826159e4565b8355505b6001600288020188555050505b5050505050505b565b60008160601b9050919050565b6000615e0e82615df6565b9050919050565b6000615e2082615e03565b9050919050565b615e38615e3382614bc1565b615e15565b82525050565b6000819050919050565b615e59615e54826158ec565b615e3e565b82525050565b6000615e6b8286615e27565b601482019150615e7b8285615e48565b602082019150615e8b8284615e48565b602082019150819050949350505050565b6000615ea7826158ec565b9150615eb2836158ec565b9250828202615ec0816158ec565b91508282048414831517615ed757615ed6615b91565b5b5092915050565b6000615ee9826158ec565b9150615ef4836158ec565b9250828201905080821115615f0c57615f0b615b91565b5b92915050565b6000615f1d826158ec565b915060008203615f3057615f2f615b91565b5b600182039050919050565b7f537472696e67733a20686578206c656e67746820696e73756666696369656e74600082015250565b6000615f71602083615159565b9150615f7c82615f3b565b602082019050919050565b60006020820190508181036000830152615fa081615f64565b905091905056fea26469706673582212209465949c58707356df57648682a79d150291fafd424ef0bbf520caae8a291cb764736f6c63430008110033",
  "linkReferences": {},
  "deployedLinkReferences": {}
}